:0400000062EF00F0BB
:100008004F82FACF16F0FBCF17F0E9CF18F0EACFFE
:1000180019F0E1CF1AF0E2CF1BF0D9CF1CF0DACFFC
:100028001DF0F3CF1EF0F4CF1FF0F6CF20F0F7CF7E
:1000380021F0F8CF22F0F5CF23F04FC024F050C0C4
:1000480025F051C026F052C027F0F2A40FD0F29448
:100058007FEC22F034C00FF035C010F05DEC18F0E2
:10006800BD0E016E010E026E62EC1AF0F0B2F09253
:1000780027C052F026C051F025C050F024C04FF0E0
:1000880023C0F5FF22C0F8FF21C0F7FF20C0F6FF0C
:100098001FC0F4FF1EC0F3FF1DC0DAFF1CC0D9FF4C
:1000A8001BC0E2FF1AC0E1FF19C0EAFF18C0E9FF50
:1000B80017C0FBFF16C0FAFF4F921100AEEF1AF0FF
:1000C800000E0001A16F84518511D8A40CD0010E37
:1000D8009F6F20EE98F000EE84F0080EDBCFEBFF68
:1000E800E806FCE2120014EC21F00009D8B40DD0A7
:1000F800010E00019F6F20EE98F000EE84F0080ECC
:10010800DBCFEBFFE806FCE2120030EC21F000093F
:10011800D8B43CD2300E0001855DD8A00CD0010EB9
:100128009F6F20EE98F000EE84F0080EDBCFEBFF17
:10013800E806FCE21200000E0201016F000E006FDB
:1001480084C002F285C003F284C004F285C005F2BF
:10015800010E066F000E086F22EE00F000EE84F02C
:10016800080EDBCFEBFFE806FCE212000001A1510C
:10017800090D060EF326000EF422000EF324D96EA4
:10018800020EF420DA6EDF50D8A4EFD1A151D8B412
:1001980007D0FF0EA125936F946BFF0E942304D014
:1001A800000E946F070E936F93C060F094C061F0D7
:1001B800000E636F090E626F1DEC22F0020E000143
:1001C8006027000E6123000E6025D96E020E6121A2
:1001D800DA6EDECF8DF0DDCF8EF0010E8D27000EAA
:1001E8008E23A151090D000EF324D96E020EF420BE
:1001F800DA6E8DC0DEFF8EC0DDFFA151090D000E45
:10020800F324D96E020EF420DA6EDECF8DF0DDCF46
:100218008EF084518D2785518E238D05300E8E5991
:10022800D8A0D1D0070EA119D8A4CDD0020106516B
:10023800D8A4C9D00001A151090D040EF326000E5F
:10024800F422000EF324D96E020EF420DA6E84C074
:10025800DEFF85C0DDFFA151090D040EF326000E57
:10026800F422000EF324D96E020EF420DA6EDECFEB
:100278008DF0DDCF8EF0FF0E8F6F2F0E906FA15196
:10028800090D000EF324D96E020EF420DA6EDECFCB
:1002980091F0DDCF92F0911F921F914B922B8F51CD
:1002A800912790519223911F921F914B922B8D5120
:1002B80091278E519223A151090D020EF326000EAB
:1002C800F422000EF324D96E020EF420DA6E91C0E7
:1002D800DEFF92C0DDFF000E966F070E966501D017
:1002E80046D0A1519619D8B43FD0A151090D000E9E
:1002F800F324D96E020EF420DA6E00EE72F0080EC6
:10030800DBCFEBFFE806FCE29651090D000EF32463
:10031800D96E020EF420DA6E00EE7BF0080EDBCF09
:10032800EBFFE806FCE2EEEC16F00009D8B41CD0AE
:1003380000019651090D060EF326000EF422000E58
:10034800F324D96E020EF420DA6EDF50D8B40CD044
:10035800010E9F6F20EE98F000EE84F0080EDBCFC0
:10036800EBFFE806FCE212000001962BB6D7A1517C
:10037800090D060EF326000EF422000EF324D96EA2
:10038800020EF420DA6E010EDF6EA151090D080E7F
:10039800F326000EF422000EF324D96E020EF42088
:1003A800DA6EA1C0DFFFA151090D000EF324D96E4A
:1003B800020EF420DA6E00EE84F0080EDBCFEBFFBD
:1003C800E806FCE21200010E0001956FA151090D2B
:1003D800000EF324D96E020EF420DA6EDECF8DF013
:1003E800DDCF8EF084518D2785518E23A151090DC3
:1003F800020EF326000EF422000EF324D96E020E2C
:10040800F420DA6E8DC0DEFF8EC0DDFF000E976F20
:10041800070E976501D03CD0A1519719D8B435D0B3
:100428009751090D060EF326000EF422000EF32450
:10043800D96E020EF420DA6EDF50D8B426D0A1515E
:10044800090D000EF324D96E020EF420DA6E00EEC8
:1004580072F0080EDBCFEBFFE806FCE29751090DBE
:10046800000EF324D96E020EF420DA6E00EE7BF053
:10047800080EDBCFEBFFE806FCE2EEEC16F0000915
:10048800D8B403D0000E0001956F0001972BC0D798
:100498009551D8B46AD0A151090D060EF326000E65
:1004A800F422000EF324D96E020EF420DA6E010E47
:1004B800DF6EA151090D000EF324D96E020EF4204F
:1004C800DA6EDECF8DF0DDCF8EF084518D27855129
:1004D8008E23A151090D020EF326000EF422000E00
:1004E800F324D96E020EF420DA6E8DC0DEFF8EC0C2
:1004F800DDFFA151090D070EF326000EF422000EB0
:10050800F324D96E020EF420DA6E000EDF6EA151CC
:10051800090D040EF326000EF422000EF324D96E02
:10052800020EF420DA6E84C0DEFF85C0DDFFA15123
:10053800090D080EF326000EF422000EF324D96EDE
:10054800020EF420DA6EA1C0DFFFA151090D000EE2
:10055800F324D96E020EF420DA6E00EE84F0080E51
:10056800DBCFEBFFE806FCE21200A12B080EA11975
:10057800D8A40CD0010E9F6F20EE98F000EE84F006
:10058800080EDBCFEBFFE806FCE21200080E0001C4
:10059800A165ECD51200020E0001FC6F000EFE6F83
:1005A800000EFD6F58EC23F0010120EE10F074519D
:1005B800D9267551DA22000162C0DEFF63C0DDFF73
:1005C8008BEC1CF0010120EE16F07451D926755100
:1005D800DA22010EDF6E20EE10F07451D926755123
:1005E800DA22DECF71F0DDCF72F0C8EC1CF0010129
:1005F80020EE19F07451D9267551DA22040EEBCF8A
:10060800DBFFE806FCE220EE19F07451D92675519B
:10061800DA2210EE14F07451E1267551E222DECF91
:10062800E6FFDDCFE5FF20EE14F07451D9267551B1
:10063800DA22DECF77F1DDCF78F120EE10F07451B9
:10064800D9267551DA22DECF79F1DDCF7AF17751EB
:10065800792778517A23600E7A5DD8A03BD0000EB6
:10066800776F300E786F20EE14F07451D9267551DB
:10067800DA22DECF79F1DDCF7AF1FF0E7B6F2F0E14
:100688007C6F20EE10F07451D9267551DA22DECF36
:100698007DF1DDCF7EF17D1F7E1F7D4B7E2B7B5153
:1006A8007D277C517E237D1F7E1F7D4B7E2B7951BC
:1006B8007D277A517E2377517D2778517E2320EE3E
:1006C80012F07451D9267551DA227DC1DEFF7EC140
:1006D800DDFF22D020EE14F07451D9267551DA22AC
:1006E800DECF77F1DDCF78F120EE10F07451D92606
:1006F8007551DA22DECF79F1DDCF7AF1775179279A
:1007080078517A2320EE12F07451D9267551DA22E5
:1007180079C1DEFF7AC1DDFF20EE10F07451D926D1
:100728007551DA2200EE6FF0080EDBCFEBFFE8061A
:10073800FCE275EC1DF0010120EE0EF07451D92693
:100748007551DA2200016FC0DEFF70C0DDFFDD0EDB
:10075800986F7F0E996F18EC1FF09EC173F09FC1C0
:1007680074F0A0C175F0A1C176F042EC0CF073C032
:1007780098F074C099F018EC1FF0010E01019E2743
:10078800000E9F23A023A123FC0E0001986F7F0E6B
:10079800996F18EC1FF0010120EE1BF07451D92657
:1007A8007551DA22DFAE07D08B0E0001986F7F0EED
:1007B800996F18EC1FF0010120EE1DF07451D92635
:1007C8007551DA22DFA407D0A10E0001986F7F0EC1
:1007D800996F18EC1FF0010120EE1BF07451D92617
:1007E8007551DA22DFBA9ED01A0E0001986F7F0E7B
:1007F800996F18EC1FF096D0D40E0001986F7F0EF9
:10080800996F18EC1FF074C1F8F075C1F9F065EC38
:1008180011F0AAD0CD0E0001986F7F0E996F18ECD9
:100828001FF074C19AF075C19BF0F3EC22F09CD0D4
:10083800DD0E0001986F7F0E996F18EC1FF0010113
:1008480020EE02F07451D9267551DA2200EE7AF0C2
:10085800050EDBCFEBFFE806FCE26AEC16F07AC087
:1008680098F07BC099F018EC1FF0F50E0001986F16
:100878007F0E996F18EC1FF0010120EE08F07451FB
:10088800D9267551DA2200EE7AF0050EDBCFEBFFA0
:10089800E806FCE26AEC16F07AC098F07BC099F0A2
:1008A80018EC1FF0F80E0001986F7F0E996F18EC86
:1008B8001FF0010120EE0EF07451D9267551DA228D
:1008C800DECF60F0DDCF61F034EC20F060C098F04E
:1008D80061C099F018EC1FF0E90E0001986F7F0EC7
:1008E800996F18EC1FF074C1D9FF75C1DAFFDECF1C
:1008F80077F1DDCF78F177C19AF078C19BF00001EC
:100908009C6B9D6BB6EC22F0FC0E0001986F7F0E7D
:10091800996F18EC1FF074C172F075C173F0BAECDE
:1009280020F022D0010120EE0EF07451D926755125
:10093800DA22DECF77F1DDCF78F17851080AD8B422
:1009480004D0800AD8B40CD073D77751000AD8B431
:1009580061D7060AD8B450D7440AD8B405D068D7A6
:100968007751080AD8A464D7DD0E0001986F7F0E6E
:10097800996F18EC1FF0010120EE10F07451D92680
:100988007551DA22DECF77F1DDCF78F177C173F0D8
:1009980078C174F00001756B766B42EC0CF073C093
:1009A80098F074C099F018EC1FF0150E0001986FBC
:1009B8007F0E996F18EC1FF0010120EE12F07451B0
:1009C800D9267551DA22DECF77F1DDCF78F177C1FC
:1009D80073F078C174F00001756B766B42EC0CF023
:1009E80073C098F074C099F018EC1FF0F20E000173
:1009F800986F7F0E996F18EC1FF0010120EE14F02C
:100A08007451D9267551DA22DECF77F1DDCF78F12E
:100A180077C173F078C174F00001756B766B42ECA6
:100A28000CF073C098F074C099F018EC1FF0FB0E2E
:100A38000001986F7F0E996F18EC1FF0F70E0001F8
:100A4800986F7C0E996F18EC1FF01200000E0001D1
:100A58009F6F160E9E6F20EE10F07751D9267851B1
:100A6800DA22DECF97F0DDCF98F09E519725726F8E
:100A78009F519821736F000E16EC1AF0000120EEBA
:100A880010F07751D9267851DA22DECF97F0DDCFF2
:100A980098F09E519725726F9F519821736F010EA0
:100AA80016EC1AF00001A16FA06B20EE10F0775140
:100AB800D9267851DA22DECF97F0DDCF98F09E5113
:100AC8009725726F9F519821736F010E16EC1AF0DB
:100AD8000001996F9951A01320EE10F07751D92693
:100AE8007851DA22DECF97F0DDCF98F09E51972526
:100AF800726F9F519821736F010E16EC1AF0000166
:100B0800A36FA26B20EE10F07751D9267851DA2224
:100B1800DECF97F0DDCF98F09E519725726F9F51E9
:100B28009821736F010E16EC1AF00001996F995114
:100B3800A21320EE10F07751D9267851DA22DECFB1
:100B480097F0DDCF98F09E519725726F9F519821AD
:100B5800736F010E16EC1AF00001A46F20EE10F06E
:100B68007751D9267851DA22DECF97F0DDCF98F089
:100B78009E519725726F9F519821736F010E16EC45
:100B88001AF00001A56F20EE10F07751D9267851A0
:100B9800DA22DECF97F0DDCF98F09E519725726F5D
:100BA8009F519821736F010E16EC1AF00001A76F80
:100BB800A66B20EE10F07751D9267851DA22DECFD5
:100BC80097F0DDCF98F09E519725726F9F5198212D
:100BD800736F010E16EC1AF00001996F9951A61364
:100BE800000E9A6F24D020EE10F07751D926785154
:100BF800DA22DECF97F0DDCF98F09E519725726FFD
:100C08009F519821736F010E16EC1AF00001996F2D
:100C18009A51010D080EF326000EF422A00EF324BB
:100C2800D96E000EF420DA6E99C0DFFF9A2BA4511A
:100C38009A5DD8A0D8D7000E9B6F24D020EE10F074
:100C48007751D9267851DA22DECF97F0DDCF98F0A8
:100C58009E519725726F9F519821736F010E16EC64
:100C68001AF00001996F9B51010D0E0EF326000E2C
:100C7800F422A00EF324D96E000EF420DA6E99C087
:100C8800DFFF9B2BA5519B5DD8A0D8D7000E9C6F8A
:100C980024D020EE10F07751D9267851DA22DECF11
:100CA80097F0DDCF98F09E519725726F9F5198214C
:100CB800736F010E16EC1AF00001996F9C51010D2B
:100CC800120EF326000EF422A00EF324D96E000EA5
:100CD800F420DA6E99C0DFFF9C2BA4519C5DD8A04C
:100CE800D8D7000E9D6F24D020EE10F07751D9266A
:100CF8007851DA22DECF97F0DDCF98F09E51972514
:100D0800726F9F519821736F010E16EC1AF0000153
:100D1800996F9D51010D180EF326000EF422A00EB6
:100D2800F324D96E000EF420DA6E99C0DFFF9D2BF4
:100D3800A5519D5DD8A0D8D720EE10F07751D926BF
:100D48007851DA22DECF97F0DDCF98F09E519725C3
:100D5800726F9F519821736F020E16EC1AF0AE0E47
:100D68000001606F000E616F9AEC21F00001D8A0BD
:100D780002D0BC833CD0BC93AE0E606F000E616F96
:100D8800B80E626F000E636F99EC20F00001D8A0D6
:100D98000DD0B20E606F000E616F82EC21F0000181
:100DA800D8A004D0A605A711D8B41FD0AE0E606F86
:100DB800000E616FB80E626F000E636F99EC20F041
:100DC8000001D8A014D0A80E606F000E616FB20E9B
:100DD800626F000E636F78EC20F00001D8A007D096
:100DE800020EA619A711D8A402D0BC8101D0BC91CB
:100DF800A005A111D8A413D0080EA319A211D8A434
:100E08000ED0A7510CE1030EA65DD8B008D0060E8F
:100E1800A419D8A404D0040EA519D8B404D0010E7E
:100E2800BF6F930E03D0000EBF6F000EBE6F030E90
:100E3800BD6F20EEA0F000EE77F01F0EDBCFEBFFCA
:100E4800E806FCE21200FC0ED316D3508F0B6009A3
:100E5800D36ED288F29EF28AF0889F9A9D8AF28C8D
:100E6800D58ED58CD59AD596D550F80B0509D56E63
:100E780050EC23F00FEC23F0680E0101886FE40EAC
:100E8800E82EFED7882FFCD700F0340E0001986FAB
:100E98007E0E996F18EC1FF07F0E0001986F7F0E81
:100EA800996F18EC1FF08A0E0001986F7E0E996FEB
:100EB80018EC1FF0B40E0001986F7F0E996F18ECB4
:100EC8001FF0F70E0001986F7C0E996F18EC1FF059
:100ED800210E0001986F7D0E996F18EC1FF03CEC05
:100EE8001DF0A6C097F3A7C098F3A8C099F3030113
:100EF80098519911D8B408D097C39AF098C39BF029
:100F080099C39CF0DFEC15F0E7EC1FF06EC097F387
:100F18006FC098F370C099F3030198519911D8A440
:100F28000FD0A4EC22F060C098F061C099F018ECE2
:100F38001FF0730E0001986F7F0E996F18EC1FF069
:100F4800630E0001986F7E0E996F18EC1FF0C7ECC6
:100F580022F00101886F885100019A6F9B6B9C6B8E
:100F68009D6BB6EC22F0E50E0001986F7F0E996F2D
:100F780018EC1FF04C0E0001986F7E0E996F18EC5C
:100F88001FF002EC1DF0E9CFD9FFEACFDAFF00EE3F
:100F98007AF0050EDBCFEBFFE806FCE26AEC16F010
:100FA8007AC098F07BC099F018EC1FF0E50E0001AC
:100FB800986F7F0E996F18EC1FF0FF0E0001986F65
:100FC8007D0E996F18EC1FF0C70E0001986F7C0E0C
:100FD800996F18EC1FF082EC1EF0000E00016E6F86
:100FE800000EE7EC1EF0000E00016E6F010EE7EC3C
:100FF8001EF0150E0101896F4B0E886FBE0EE82E8C
:10100800FED7882FFCD7892FFAD700F0010E0001F0
:101018006E6F000EE7EC1EF0010E00016E6F010E00
:10102800E7EC1EF0000E0301706F000E716F000EEA
:10103800726F000E736F0F015C9B938A800E020122
:10104800516F1F0E526F120E536F1B0E546F6A0EA4
:10105800556F2F0E566FC00E03019A6FA80E9B6F27
:10106800000E9C6F040E9D6FA90E9E6FFE0E9F6F63
:101078006C0EA06F870EA16FF28EF28C0400480EE2
:101088000101846F020E856F90EC10F022EE48F09B
:1010980000EE9AF00E0EDBCFEBFFE806FCE2C5ECA3
:1010A80019F002014851D8B409D074EC23F00101B9
:1010B800886F88510301946F956B05D0030E030167
:1010C800956FE80E946F94C334F095C335F0000E15
:1010D80035BEFF0E366E376E0101BD51D8B4CED77E
:1010E800000EBD6F02014805D8A4C8D79EC38EF272
:1010F8009FC38FF2A0C390F2A1C391F29AC38AF260
:101108009BC38BF29CC38CF29DC38DF2000E806F43
:10111800780E7F6F8669040E7B6F7B0E0001606F0F
:10112800020E616FFAEC08F022EE7BF000EE60F040
:10113800160EDBCFEBFFE806FCE2740E0001776FBA
:10114800030E786F36EC12F07B0E0001A76F020ECB
:10115800A86F8CEC13F0000E0301966F36D00201D5
:101168007C51040D030196510101886F896BF3507E
:10117800885D8951800A8A6FF450800A8A59D8B0EC
:1011880016D022EE7BF000EE72F03D0EDBCFEBFFC7
:10119800E806FCE203019651010D740EF324D96EA2
:1011A800030EF420DA6EDF5043EC1FF00CD022EE71
:1011B8007BF000EE72F03D0EDBCFEBFFE806FCE2C1
:1011C800010E43EC1FF00301962B96510101886F25
:1011D800896B02017F510101885D02018051010183
:1011E8008959D8A0BCD702015C8148D7000120EEFC
:1011F80001F06051D9266151DA22050EDF6E20EE2A
:1012080002F06051D9266151DA22000EDF6E20EE1D
:1012180003F06051D9266151DA22000EDF6E20EE0C
:1012280008F06051D9266151DA22000EDF6E20EEF7
:1012380009F06051D9266151DA22000EDE6E000EE7
:10124800DD6E20EE06F06051D9266151DA22000EDB
:10125800DE6E000EDD6E000E6E6F000E6F6F000EFC
:10126800706F000E716F20EE02F06051D926615147
:10127800DA22DF50626F636BD89062376337D89099
:101288006237633720EE01F06051D9266151DA22C6
:10129800DF50646F6451666F656B60C0D9FF61C0D1
:1012A800DAFFDF50676F686B0C0ED89067376837C6
:1012B800E82EFBD7655167136651681362516713AF
:1012C8006351681320EE03F06051D9266151DA2288
:1012D800DF50696F69516713000E681367C06EF0BD
:1012E80068C06FF0706B716B20EE04F06051D92606
:1012F8006151DA22DECF62F0DDCF63F062516E27F2
:1013080063516F23000E7023000E712320EE06F048
:101318006051D9266151DA22DECF62F0DDCF63F069
:1013280062516E2763516F23000E7023000E7123E4
:1013380020EE09F06051D9266151DA22DECF62F041
:10134800DDCF63F020EE08F06051D9266151DA2232
:10135800DF50646F656B0D0ED89064376537E82EE3
:10136800FBD7625164136351651364516E2765514D
:101378006F23000E7023000E712320EE0BF06051D6
:10138800D9266151DA22DF50626F6251646F636B54
:1013980020EE0CF06051D9266151DA22DF50656FDA
:1013A80065516313000E641363516E2764516F23F4
:1013B800000E7023000E712320EE0FF06051D92625
:1013C8006151DA22DF50626F6251646F636B20EE05
:1013D80010F06051D9266151DA22DF50656F666BD3
:1013E800635165136451661365516E2766516F2307
:1013F800000E7023000E712320EE11F06051D926E3
:101408006151DA22DF50626F6251646F636B20EEC4
:1014180012F06051D9266151DA22DF50656F666B90
:10142800635165136451661365516E2766516F23C6
:10143800000E7023000E712320EE13F06051D926A0
:101448006151DA22DF50626F6251646F636B20EE84
:1014580014F06051D9266151DA22DF50656F666B4E
:10146800635165136451661365516E2766516F2386
:10147800000E7023000E712320EE15F06051D9265E
:101488006151DA22DF50626F6251646F636B20EE44
:1014980016F06051D9266151DA22DF50656F666B0C
:1014A800635165136451661365516E2766516F2346
:1014B800000E7023000E71236EC062F06FC063F0DF
:1014C80070C064F071C065F0110E05D0D890653316
:1014D800643363336233E82EF9D70F0E6215666FF3
:1014E800000E6315676F000E6415686F000E6515B2
:1014F800696FFF0E6E156A6FFF0E6F156B6F000E2A
:1015080070156C6F000E71156D6F66516A256E6FE0
:1015180067516B216F6F68516C21706F69516D2134
:10152800716F6EC062F06FC063F070C064F071C01C
:1015380065F0621F631F641F651F62C06EF063C0A1
:101548006FF064C070F065C071F020EE0DF060516E
:10155800D9266151DA226EC0DEFF6FC0DDFF1200AE
:10156800000E0001656FFF0E666F20EE01F06051FE
:10157800D9266151DA22DF50676F6751696F686B4E
:10158800655168176651691760C0D9FF61C0DAFFF5
:10159800DF506A6F6B6B68516A116C6F69516B1120
:1015A8006D6F20EE02F06051D9266151DA22DFA07A
:1015B80003D0656B652B02D00001656B6E51651910
:1015C800FE0B65196E6F20EE02F06051D92661514D
:1015D800DA22DFA403D0656B652B02D00001656BAE
:1015E80065476E516519FD0B65196E6F20EE02F0A7
:1015F8006051D9266151DA22DFA803D0656B652BCB
:1016080002D00001656B654765476E516519FB0B94
:1016180065196E6F20EE02F06051D9266151DA2209
:10162800DFAA03D0656B652B02D00001656B6547A7
:10163800654765476E516519F70B65196E6F20EEA2
:1016480002F06051D9266151DA22DFAC03D0656B14
:10165800652B02D00001656B653B6E516519EF0B78
:1016680065196E6F20EE02F06051D9266151DA22B9
:10167800DFAE03D0656B652B02D00001656B653B5F
:1016880065476E516519DF0B65196E6F20EE03F023
:101698006051D9266151DA22DFA003D0656B652B32
:1016A80002D00001656B653B654765476E5165195A
:1016B800BF0B65196E6F20EE03F06051D92661519A
:1016C800DA22DFA203D0656B652B02D00001656BBF
:1016D800653365336E5165197F0B65196E6F20EEA2
:1016E80003F06051D9266151DA22DFA603D0656B79
:1016F800652B02D00001656B65476F516519FD0BBD
:1017080065196F6F20EE03F06051D9266151DA2216
:10171800DFA803D0656B652B02D00001656B6547B8
:1017280065476F516519FB0B65196F6F20EE03F064
:101738006051D9266151DA22DFAA03D0656B652B87
:1017480002D00001656B6547654765476F516519AC
:10175800F70B65196F6F20EE03F06051D9266151C0
:10176800DA22DFAC03D0656B652B02D00001656B14
:10177800653B6F516519EF0B65196F6F20EE03F02C
:101788006051D9266151DA22DFAE03D0656B652B33
:1017980002D00001656B653B65476F516519DF0B2A
:1017A80065196F6F20EE04F06051D9266151DA2275
:1017B800DFA003D0656B652B02D00001656B653B2C
:1017C800654765476F516519BF0B65196F6F20EE47
:1017D80004F06051D9266151DA22DFA203D0656B8B
:1017E800652B02D00001656B653365336F51651950
:1017F8007F0B65196F6F20EE04F06051D926615197
:10180800DA22DFA403D0656B652B02D00001656B7B
:1018180070516519FE0B6519706F20EE04F0605168
:10182800D9266151DA22DFA603D0656B652B02D079
:101838000001656B654770516519FD0B6519706F7F
:1018480020EE04F06051D9266151DA22DFA803D0D6
:10185800656B652B02D00001656B65476547705164
:101868006519FB0B6519706F20EE6CF000EE60F0E7
:10187800040EDBCFEBFFE806FCE21200000E0001CD
:10188800866F73C066F074C067F075C068F076C084
:1018980069F0100E6A6F270E6B6F000E6C6F000EEA
:1018A8006D6FCAEC1BF000016651856F85C060F052
:1018B800616B270E636F100E626F1DEC22F0000142
:1018C8006051776F6151786F796B7A6B771F781FEA
:1018D800791F7A1F772B000E782379237A23735187
:1018E8007725666F74517821676F75517921686F14
:1018F80076517A21696FE80E6A6F030E6B6F000EDE
:101908006C6F000E6D6FCAEC1BF000016651846F9E
:1019180085C060F0616B270E636F100E626F1DEC5F
:1019280022F060C077F061C078F084C060F00001F8
:10193800616B030E636FE80E626F1DEC22F000010D
:1019480077516025796F785161217A6F7B6BD8B0B8
:101958007B2B7C6B791F7A1F7B1F7C1F792B000EDA
:101968007A237B237C2373517925666F74517A21FE
:10197800676F75517B21686F76517C21696F640EA2
:101988006A6F000E6B6F000E6C6F000E6D6FCAEC05
:101998001BF000016651836F85C060F0616B270EF4
:1019A800636F100E626F1DEC22F060C077F061C0AB
:1019B80078F084C060F00001616B030E636FE80E7D
:1019C800626F1DEC22F0000177516025796F785124
:1019D80061217A6F7B6BD8B07B2B7C6B8351640D54
:1019E800F35079257D6FF4507A217E6F000E7B21AC
:1019F8007F6F000E7C21806F7D1F7E1F7F1F801FE1
:101A08007D2B000E7E237F23802373517D25666FF7
:101A180074517E21676F75517F21686F76518021DF
:101A2800696F0A0E6A6F000E6B6F000E6C6F000E06
:101A38006D6FCAEC1BF000016651816F73C060F0D6
:101A480074C061F075C062F076C063F00A0E646F0E
:101A5800000E656F000E666F000E676F1AEC1EF0C1
:101A680000016051826F7651751106E1100E735DA9
:101A7800270E7459D8A00CD08651010DAD0EF32451
:101A8800D96E010EF420DA6E8551300FDF6E862B89
:101A98007651751106E1E80E735D030E7459D8A0EE
:101AA8000CD08651010DAD0EF324D96E010EF42031
:101AB800DA6E8451300FDF6E862B765175117411F2
:101AC80004E1640E735DD8A00CD08651010DAD0EF3
:101AD800F324D96E010EF420DA6E8351300FDF6ED5
:101AE800862B76517511741104E10A0E735DD8A026
:101AF8000CD08651010DAD0EF324D96E010EF420E1
:101B0800DA6E8151300FDF6E862B8651010DAD0ED6
:101B1800F324D96E010EF420DA6E8251300FDF6E95
:101B2800862B8651010DAD0EF324D96E010EF420DB
:101B3800DA6E000EDF6E862BAD0E736F010E746FBA
:101B48001200C70E0001606F000E616F59EC22F0A1
:101B5800000E0001D26F240ED16F20EEB9F010EE06
:101B6800D9F0050EDBCFE3FFE806FCE220EEEFF04C
:101B780000EE6FF0080EDBCFEBFFE806FCE2ADEC01
:101B88001DF020EED3F0050EEBCFDBFFE806FCE2FC
:101B9800080E0001E06F060EDF6FD10EA26F000E77
:101BA800A36FE9EC17F00001E851D8A41200080E61
:101BB800E125EF6F000EE221F06FE3C0F1F0E4C021
:101BC800F2F0000EF46F1C0EF36FF3C06AF0F4C06D
:101BD8006BF0A8514EEC1EF0F3C06AF0F4C06BF045
:101BE8000001A7514EEC1EF0F3C06AF0F4C06BF090
:101BF8000001AA514EEC1EF0F3C06AF0F4C06BF07D
:101C08000001A9514EEC1EF0F3C06AF0F4C06BF06D
:101C18000001AB514EEC1EF0F3C06AF0F4C06BF05B
:101C28000001AC514EEC1EF0F3C06AF0F4C06BF04A
:101C38000001AE514EEC1EF0F3C06AF0F4C06BF038
:101C48000001AD514EEC1EF0000E0001CD6F15D015
:101C5800F3C06AF0F4C06BF0CD51010D080EF32605
:101C6800000EF422A70EF324D96E000EF420DA6ECB
:101C7800DF504EEC1EF00001CD2BAB51CD5DD8A04E
:101C8800E7D7000ECE6F15D0F3C06AF0F4C06BF042
:101C9800CE51010D0E0EF326000EF422A70EF324EA
:101CA800D96E000EF420DA6EDF504EEC1EF0000103
:101CB800CE2BAC51CE5DD8A0E7D7000ECF6F15D094
:101CC800F3C06AF0F4C06BF0CF51010D120EF32689
:101CD800000EF422A70EF324D96E000EF420DA6E5B
:101CE800DF504EEC1EF00001CF2BAB51CF5DD8A0DA
:101CF800E7D7000ED06F15D0F3C06AF0F4C06BF0D0
:101D0800D051010D180EF326000EF422A70EF3246D
:101D1800D96E000EF420DA6EDF504EEC1EF0000192
:101D2800D02BAC51D05DD8A0E7D720EEE1F000EE83
:101D380072F0080EDBCFEBFFE806FCE231EC22F094
:101D48001200000E00017B6F000E7C6F030E7C6595
:101D580001D0DFD07C51010D770EF324D96E000E2F
:101D6800F420DA6E7C51010D670EF324E16E000E4B
:101D7800F420E26EE7506B6F6B51606F616B000E81
:101D8800636F640E626F6DEC1FF000016051DF6ECF
:101D98007C51010D730EF324D96E000EF420DA6E17
:101DA8007C51010D770EF324E16E000EF420E26EF3
:101DB800E7506B6F6B51640DF3CF6CF0F4CF6DF09F
:101DC8006C1F6D1F6C4B6D2B7C51010D670EF3243E
:101DD800E16E000EF420E26EE7506E6F6E516C25D6
:101DE800606F000E6D21616F000E636F0A0E626FE7
:101DF8006DEC1FF000016051DF6E7C51010D6F0E1C
:101E0800F324D96E000EF420DA6E7C51010D670EB2
:101E1800F324E16E000EF420E26EE7506B6F6B5115
:101E2800606F616B000E636F0A0E626F56EC20F0F4
:101E380000016051DF6E7C51010D770EF324D96EDD
:101E4800000EF420DA6EDF50D8B414D07B51010DA7
:101E5800CA0EF324D96E010EF420DA6E7C51010DFE
:101E6800770EF324E16E000EF420E26EE750300F97
:101E7800DF6E7B2B7C51010D730EF324D96E000E9F
:101E8800F420DA6EDF50D8A40BD07C51010D770E08
:101E9800F324D96E000EF420DA6EDF50D8B414D0D3
:101EA8007B51010DCA0EF324D96E010EF420DA6EAF
:101EB8007C51010D730EF324E16E000EF420E26EE6
:101EC800E750300FDF6E7B2B7B51010DCA0EF324D8
:101ED800D96E010EF420DA6E7C51010D6F0EF324D9
:101EE800E16E000EF420E26EE750300FDF6E7B2BC0
:101EF800030E7C19D8B40BD07B51010DCA0EF32404
:101F0800D96E010EF420DA6E2E0EDF6E7B2B7C2B41
:101F18001DD77B51010DCA0EF324D96E010EF42092
:101F2800DA6E000EDF6ECA0E676F010E686F120060
:101F3800030E0101816F030E7E6F020E7F6F47C192
:101F480067F048C168F049C169F04AC16AF0800E7B
:101F580000016B6F010E6C6FBCEC18F00009D8B46F
:101F68006ED001018051B2EC21F021EE5CF0050E3B
:101F7800EBCFDBFFE806FCE247C167F048C168F039
:101F880049C169F04AC16AF0A5EC0EF067C098F043
:101F980068C099F018EC1FF0BD0E0001986F7F0E15
:101FA800996F18EC1FF021EE5CF000EE7AF0050E48
:101FB800DBCFEBFFE806FCE26AEC16F07AC098F09B
:101FC8007BC099F018EC1FF0E50E0001986F7F0EAA
:101FD800996F18EC1FF002EC1DF021EE56F0050E7B
:101FE800EBCFDBFFE806FCE221EE5CF000EE6FF0E1
:101FF800050EDBCFEBFFE806FCE221EE64F000EE15
:1020080075F0080EDBCFEBFFE806FCE20CEC1CF0E9
:1020180021EE64F000EE72F0080EDBCFEBFFE8066D
:10202800FCE231EC22F0000E0101836F000E826F9A
:1020380081C134F182C135F183C136F112007FC10B
:1020480072F10101736B746B756B9AC176F19BC168
:1020580077F19CC178F19DC179F1761F771F781FC0
:10206800791F762B000E7723782379233EEC23F013
:10207800010176510001602501017A6F7751000155
:10208800612101017B6F78510001622101017C6FA0
:1020980079510001632101017D6F72517A5D73519D
:1020A8007B5974517C5975517D59D8A029D03EEC83
:1020B80023F060C09AF161C09BF162C09CF163C0DB
:1020C8009DF101017E51A25DD8B00CD0A22B47C171
:1020D800F8F048C1F9F049C1FAF04AC1FBF06EECDA
:1020E80019F00ED0000E0101A26F010E836F920E3F
:1020F800826F81C134F182C135F183C136F112009A
:10210800010E0101836F910E826F81C134F182C18A
:1021180035F183C136F11200BBEC14F0010120EE59
:1021280012F08451D9268551DA22000178C0DEFFE9
:1021380079C0DDFF010120EE12F08451D9268551C6
:10214800DA22DFA818D047EC23F00009D8B413D05E
:1021580084C174F185C175F1CFEC02F0010120EE64
:102168000FF08451D9268551DA2274C1DEFF75C17A
:10217800DEFF76C1DEFF010120EE14F08451D9267E
:102188008551DA22DFA06BD020EE33F08451D926B6
:102198008551DA2201EE34F03D0EDBCFEBFFE80685
:1021A800FCE29CEC0FF0010120EE0FF08451D926DF
:1021B8008551DA2234C1DEFF35C1DEFF36C1DEFFCC
:1021C80020EE0FF08451D9268551DA22030EDE184D
:1021D800D8A42AD020EE10F08451D9268551DA22CD
:1021E800920EDE1821E1DE04D8A41ED020EE46F0BF
:1021F8008451D9268551DA22DECF67F0DECF68F028
:10220800DECF69F0DECF6AF0A5EC0EF067C098F07B
:1022180068C099F018EC1FF0010120EE14F0845109
:10222800D9268551DA22DF9020EE0FF08451D92685
:102238008551DA22030EDE18D8A411D020EE10F052
:102248008451D9268551DA22DE50DE10D8A407D071
:1022580020EE14F08451D9268551DA22DF9020EE41
:1022680012F08451D9268551DA22DFA6120084C1E2
:1022780080F085C181F040EC1BF084C1D9FF85C195
:10228800DAFFDE04D8A40DD0000E00016E6F000E38
:10229800E7EC1EF0020E00016E6F010EF9EC1AF069
:1022A8000CD0010E00016E6F000EE7EC1EF0010E5F
:1022B80000016E6F010EE7EC1EF00B0E5FEC23F0D1
:1022C8001200000120EE0EF0F851D926F951DA2259
:1022D800060EDE1804E1080EDE18D8B407D0F8C0E0
:1022E80072F0F9C073F0BAEC20F01200F8C077F081
:1022F800F9C078F02AEC05F021EE54F01F0EEBCF70
:10230800DBFFE806FCE2010172517311D8B408D072
:10231800FA0E0001986F7C0E996F18EC1FF01200EE
:10232800DD0E0001986F7F0E996F18EC1FF021EEFB
:102338005CF000EE7AF0050EDBCFEBFFE806FCE27E
:102348006AEC16F07AC098F07BC099F018EC1FF090
:10235800890E0001986F7E0E996F18EC1FF062C10C
:1023680067F063C168F064C169F065C16AF0A5EC03
:102378000EF067C098F068C099F018EC1FF0DA0EFC
:102388000001986F7F0E996F18EC1FF021EE66F030
:1023980000EE7AF0050EDBCFEBFFE806FCE26AEC14
:1023A80016F07AC098F07BC099F018EC1FF0890EEF
:1023B8000001986F7E0E996F18EC1FF06CC167F0E2
:1023C8006DC168F06EC169F06FC16AF0A5EC0EF0DE
:1023D80067C098F068C099F018EC1FF0FC0E000177
:1023E800986F7F0E996F18EC1FF0010170A307D04A
:1023F800970E0001986F7F0E996F18EC1FF001017E
:1024080070A107D03A0E0001986F7F0E996F18ECF3
:102418001FF021EE54F001EE00F01F0EDBCFEBFFB2
:10242800E806FCE227EC14F021EE5CF000EE64F024
:10243800050EDBCFEBFFE806FCE262C16AF063C180
:102448006BF064C16CF065C16DF03EEC23F060C0C8
:102458006EF061C06FF062C070F063C071F072EC32
:1024680017F0120000016039F00B611177C0D9FF35
:1024780078C0DAFFDF6E20EE01F07751D926785167
:10248800DA2263C079F0030E79176245E846FC0B3F
:102498007911DF6E20EE02F07751D9267851DA22D1
:1024A8006551DF6E20EE03F07751D9267851DA2294
:1024B80064C0DFFF20EE04F07751D9267851DA2284
:1024C8006751DF6E20EE05F07751D9267851DA2270
:1024D80066C0DFFF20EE06F07751D9267851DA2260
:1024E80010EE69F0E6CF79F0E5CF7AF07AC079F0AE
:1024F8007A6B1F0E79176839E846E00B7911DF6EA1
:1025080020EE07F07751D9267851DA2269C0DFFF2B
:1025180020EE08F07751D9267851DA226BC0DFFF18
:1025280020EE09F07751D9267851DA226CC0DFFF06
:1025380020EE0AF07751D9267851DA226E51DF6EF3
:1025480020EE0BF07751D9267851DA226DC0DFFFE3
:1025580020EE0CF07751D9267851DA226FC0DFFFD0
:1025680020EE0DF07751D9267851DA2270C0DFFFBE
:1025780020EE0EF07751D9267851DA2271C0DFFFAC
:1025880020EE0FF07751D9267851DA2272C0DFFF9A
:1025980020EE10F07751D9267851DA2273C0DFFF88
:1025A80020EE11F07751D9267851DA2274C0DFFF76
:1025B80020EE12F07751D9267851DA2275C0DFFF64
:1025C80020EE13F07751D9267851DA2276C0DFFF52
:1025D8001200000E00019E6F4DC09FF04EC0A0F08B
:1025E80045C0A1F046C0A2F0010EA36F000EA56F72
:1025F800000EA46F050E9E6172D09F0E6A6F000ECA
:102608006B6F160E4CEC21F0A00E00016A6F000EE5
:102618006B6F170E4CEC21F0A10E00016A6F000ED3
:102628006B6F160E67EC21F0A20E00016A6F000EA8
:102638006B6F170E67EC21F000019F51A119D8A408
:102648004BD0A051A219D8A447D0E20E986F7D0EA6
:10265800996F18EC1FF0CA0E29EC23F0420EE82EF1
:10266800FED700D0A10E00016A6F000E6B6F160E28
:1026780067EC21F0A20E00016A6F000E6B6F170E57
:1026880067EC21F00001A151D8A413D0A251D8A41D
:1026980010D0F90E986F7E0E996F18EC1FF0030E8C
:1026A80000019D6FA70EE82EFED79D2FFCD700D006
:1026B8000CD02A0E0001986F7F0E996F18EC1FF04E
:1026C800010E0001A56F2E0EA46FA3C09AF0A4C03E
:1026D8009BF0A5C09CF0120000019E2B12D01B0E8F
:1026E800986F7E0E996F18EC1FF0010E0001A56F10
:1026F8002E0EA46FA3C09AF0A4C09BF0A5C09CF0B6
:102708001200A3C09AF0A4C09BF0A5C09CF01200D0
:10271800000120EE04F0A751D926A851DA22DECF15
:10272800A9F0DDCFAAF0080EA927000EAA2320EEF3
:1027380020F0A751D926A851DA22A9C0DEFFAAC0E5
:10274800DDFF20EE2EF0A751D926A851DA22000E7F
:10275800DE6E080EDD6E200EA725A26F000EA821E2
:10276800A36FE9EC17F0000120EE36F0A751D92647
:10277800A851DA2210EE1DF0A751E126A851E22255
:10278800DFCFE7FF20EE37F0A751D926A851DA228C
:1027980010EE1EF0A751E126A851E222DFCFE7FF95
:1027A80020EE38F0A751D926A851DA2210EE1FF0F2
:1027B800A751E126A851E222DFCFE7FF20EE30F053
:1027C800A751D926A851DA22DECFA9F0DDCFAAF089
:1027D800080EA927000EAA2320EE17F0A751D92624
:1027E800A851DA22A9C0DEFFAAC0DDFF20EE32F030
:1027F800A751D926A851DA2210EE19F0A751E126DF
:10280800A851E222DECFE6FFDDCFE5FFF80EA96F83
:10281800FF0EAA6F20EE34F0A751D926A851DA226C
:10282800DECFABF0DDCFACF0A951AB27AA51AC237A
:1028380020EE1BF0A751D926A851DA22ABC0DEFF43
:10284800ACC0DDFF1200010106050711D8A4120073
:1028580002EC1DF021EE24F0050EEBCFDBFFE806BD
:10286800FCE221EE08F011EE2AF0050EDBCFE3FFC3
:10287800E806FCE20EC130F10FC131F110C132F1AE
:1028880011C133F1060E0101386F040E396F000EC5
:10289800356F010E346F080E376F000E366F000E5D
:1028A8003B6F020E3A6F20C142F121C143F122C1B0
:1028B80044F123C145F121EE24F011EE3CF0050E60
:1028C800DBCFE3FFE806FCE230C14CF131C14DF14A
:1028D80032C14EF133C14FF121EE2AF011EE46F02C
:1028E800050EDBCFE3FFE806FCE221EE34F000EE54
:1028F800A7F01F0EDBCFEBFFE806FCE2A5EC0DF01E
:102908000A0E0001986F7F0E996F18EC1FF021EEE8
:1029180046F000EE7AF0050EDBCFEBFFE806FCE2AE
:102928006AEC16F07AC098F07BC099F018EC1FF0AA
:10293800890E0001986F7E0E996F18EC1FF04CC13C
:1029480067F04DC168F04EC169F04FC16AF0A5EC5F
:102958000EF067C098F068C099F018EC1FF0FC0EF4
:102968000001986F7F0E996F18EC1FF012000EECA3
:1029780020F06EC07DF06FC07EF000017EAD03D008
:102988007A6B7A2B02D000017A6B7B517A19FE0B95
:102998007A197B6F7EAB03D07A6B7A2B02D0000159
:1029A8007A6B7A477B517A19FD0B7A197B6F7EA96E
:1029B80003D07A6B7A2B02D000017A6B7A477A4778
:1029C8007B517A19FB0B7A197B6F7EA703D07A6B40
:1029D8007A2B02D000017A6B7A477A477A477B5183
:1029E8007A19F70B7A197B6F7DAD03D07A6B7A2B46
:1029F80002D000017A6B7A3B7B517A19EF0B7A1976
:102A08007B6F7DAB03D07A6B7A2B02D000017A6B97
:102A18007A3B7A477B517A19DF0B7A197B6F7DA74E
:102A280003D07A6B7A2B02D000017A6B7A3B7A4713
:102A38007A477B517A19BF0B7A197B6F7DA503D032
:102A48007A6B7A2B02D000017A6B7A337A337B5116
:102A58007A197F0B7A197B6F7DA303D07A6B7A2B57
:102A680002D000017A6B7C517A19FE0B7A197C6FBF
:102A78007DA103D07A6B7A2B02D000017A6B7A475A
:102A88007C517A19FD0B7A197C6F7BC078F07CC079
:102A980079F012000001766F000176511F0B776FF5
:102AA800010E786F000E796F000E7A6F000E7B6F43
:102AB800000E7C6F770E6A6F000E6B6F540E4CEC35
:102AC80021F0780E00016A6F000E6B6F550E4CEC0A
:102AD80021F07F0E00016A6F000E6B6F520E67ECDB
:102AE80021F000017F817F0E6A6F000E6B6F520E1E
:102AF8004CEC21F0450EE82EFED700F07F0E0001C9
:102B08006A6F000E6B6F6A0E67EC21F0010E000110
:102B18007927000E7A237B237C237FA108D07C5160
:102B28007B1105E179290F0E7A59D8A0E7D77C5196
:102B38007B1140E179290F0E7A59D8B012007F0E27
:102B48006A6F000E6B6F520E67EC21F000017F91E7
:102B58007F0E6A6F000E6B6F520E4CEC21F07D0EEB
:102B680000016A6F000E6B6F680E67EC21F07E0E35
:102B780000016A6F000E6B6F690E67EC21F0000EA2
:102B88000001706FFF0E716F7E51736F726B705121
:102B98007217715173177D51746F756B725174137D
:102BA800735175136EC0D9FF6FC0DAFF74C0DEFFB2
:102BB80075C0DDFF1200C50E0001986F7F0E996F7A
:102BC80018EC1FF028D0E80E0001986F7E0E996F60
:102BD80018EC1FF049D06C0E0001986F7D0E996FAC
:102BE80018EC1FF041D0B20E0001986F7E0E996F5D
:102BF80018EC1FF039D0580E0001986F7F0E996FAE
:102C080018EC1FF031D0490E0001986F7F0E996FB4
:102C180018EC1FF029D000019A51000AD8B4D3D774
:102C2800010AD8B4D8D7030AD8B4DDD7010AD8B472
:102C3800E2D7070AD8B4E7D717D0470E986F7D0EAA
:102C4800996F18EC1FF024D0900E0001986F7C0E3D
:102C5800996F18EC1FF01CD08A0E0001986F7D0E3A
:102C6800996F18EC1FF014D020EE9BF0DECF9DF08A
:102C7800DDCF9EF000019E51010AD8A4EDD79D51E9
:102C88002D0AD8B4E1D7030AD8B4D7D7A10AE4D714
:102C9800AB0E0001986F7F0E996F18EC1FF09BC068
:102CA80073F09CC074F00001756B766B42EC0CF00D
:102CB80073C098F074C099F018EC1FF0E40E00018E
:102CC800986F7F0E996F18EC1FF0120022EEEBF050
:102CD80010EE81F0110EDBCFE3FFE806FCE2000EF8
:102CE8000001976F000E966F000E956F96BF06D085
:102CF80096516BE1060E955DD8B067D07A0E952592
:102D0800D96E000E9621DA6EDF50806F80390F0B76
:102D18000F0B936F7A0E9525D96E000E9621DA6EF9
:102D2800DF500F0B946F300E9327300E9427390E17
:102D380093650CD09751010D810EF324D96E000EC6
:102D4800F420DA6E9351070FDF6E0AD09751010D08
:102D5800810EF324D96E000EF420DA6E93C0DFFFE3
:102D6800972B390E94650CD09751010D810EF324E1
:102D7800D96E000EF420DA6E9451070FDF6E0AD078
:102D88009751010D810EF324D96E000EF420DA6EEE
:102D980094C0DFFF972B96BF06D096510FE1050E22
:102DA800955DD8B00BD09751010D810EF324D96EE3
:102DB800000EF420DA6E3A0EDF6E972B954B962BA9
:102DC80096BF9CD7965101E195D7810E7A6F000E78
:102DD8007B6F120000017B51721904E17C51731959
:102DE800D8B429D07D51741904E17E517519D8B42D
:102DF80022D072517D1904E173517E19D8B41BD0C9
:102E08007B51741904E17C517519D8B414D0740538
:102E1800300E7559D8B00FD07205300E7359D8B02E
:102E28000AD07D05300E7E59D8B005D07B05300E0E
:102E38007C59D8A002D0010E12007451725D7551F0
:102E48007359D8B036D07D517B5D7E517C59D8B04E
:102E580025D07B51725D7C517359D8B00AD074511A
:102E68007B5D75517C59D8B002D0010E1200000E5E
:102E7800120020EE7BF000EE60F0080EDBCFEBFFD7
:102E8800E806FCE220EE72F000EE69F0080EDBCFF7
:102E9800EBFFE806FCE215EC19F012000001725194
:102EA8007D5D73517E59D8B002D0000E1200010E1C
:102EB800120020EE7BF000EE60F0080EDBCFEBFF97
:102EC800E806FCE220EE72F000EE69F0080EDBCFB7
:102ED800EBFFE806FCE215EC19F01200000E000109
:102EE800766F000E776F000E786F000E796F000E08
:102EF8007A6F000E7B6F070E7B6501D02ED07B5159
:102F08000E0D0A0EF326000EF422000EF324D96EDD
:102F1800030EF420DA6EDE50765DDE507759DE500F
:102F28007859DE507959D8B016D07B510E0D0A0E5B
:102F3800F326000EF422000EF324D96E030EF420BB
:102F4800DA6EDECF76F0DECF77F0DECF78F0DECF48
:102F580079F07BC07AF07B2BCED77A510E0D000E1C
:102F6800F324D96E030EF420DA6E6AC0DEFF6BC05C
:102F7800DEFF6CC0DEFF6DC0DEFF20EE64F07A512C
:102F88000E0D040EF326000EF422000EF324E16E5B
:102F9800030EF420E26E050EDBCFE3FFE806FCE249
:102FA8007A510E0D0A0EF326000EF422000EF324B9
:102FB800D96E030EF420DA6E6EC0DEFF6FC0DEFF3E
:102FC80070C0DEFF71C0DEFF1200020E0001A46FA8
:102FD800000EA66F000EA56FA2C0D9FFA3C0DAFF2E
:102FE800DECF84F0DDCF85F064EC00F0000120EE48
:102FF80010F0A251D926A351DA22080EEBCFDBFF3D
:10300800E806FCE220EE17F0A251D926A351DA22F5
:10301800DF50D8B407D0000EA46F000EA66F650E5F
:10302800A56F120020EE16F0A251D926A351DA227C
:10303800DF50D8A407D0000EA46F000EA66FC70EED
:10304800A56F120020EE08F0A251D926A351DA226A
:1030580000EE6FF0050EDBCFEBFFE806FCE220EE9A
:1030680010F0A251D926A351DA2200EE75F0080E0D
:10307800DBCFEBFFE806FCE20CEC1CF0000120EED5
:103088000EF0A251D926A351DA22DECF6FF0DDCFA0
:1030980070F020EE10F0A251D926A351DA2200EEEA
:1030A80071F0080EDBCFEBFFE806FCE2C0EC1FF086
:1030B800120049C011F0010E126E112A02D0D890E8
:1030C8001236112EFCD71250FF0A8216000E806E9F
:1030D800020E496007D0010E4924136E146A000ECF
:1030E800142204D0000E146E000E136E13C049F0A3
:1030F800E80E0F5C030E1058D8B01200000E156EC3
:10310800020E156401D013D01550010D3C0EF324A6
:10311800D96E000EF420DA6E0FC008F010C009F066
:1031280015C00AF04CEC1CF0DF6E152AE9D749C02F
:1031380011F0010E126E112A02D0D8901236112EFB
:10314800FCD7125082124950010D3C0EF324D96E5F
:10315800000EF420DA6EDF50116E1150010DBE0E14
:10316800F324D96E010EF420DA6EDF50806E12005F
:10317800000E0001756F070E756501D050D07551AE
:103188000E0D000EF324606F030EF420616F670EBE
:10319800626F000E636F99EC20F00001D8A03DD05B
:1031A80075510E0D0A0EF326000EF422000EF324BC
:1031B800D96E030EF420DA6EDECF6DF0DECF6EF03E
:1031C800DECF6FF0DECF70F06D1F6E1F6F1F701FA8
:1031D8006D2B000E6E236F2370233EEC23F000014D
:1031E8006D516025716F6E516121726F6F5162214F
:1031F800736F70516321746F745173110EE12C0E4B
:10320800715D010E7259D8B008D06BC0D9FF6CC07F
:10321800DAFF75C0DFFF010E1200752BACD7000E68
:10322800120000016951601904E16A516119D8B4AA
:1032380029D06B51621904E16C516319D8B422D0BA
:1032480060516B1904E161516C19D8B41BD06951F4
:10325800621904E16A516319D8B414D06205300EBA
:103268006359D8B00FD06005300E6159D8B00AD074
:103278006B05300E6C59D8B005D06905300E6A5907
:10328800D8A002D0010E12006251605D63516159ED
:10329800D8B012006B51695D6C516A59D8B010D022
:1032A8006951605D6A516159D8B012006251695D17
:1032B80063516A59D8B002D0010E1200000E1200F4
:1032C80060516B5D61516C59D8B002D0000E12008C
:1032D800010E120002EC1DF021EE04F0050EEBCFFA
:1032E800DBFFE806FCE20E0E0001606F010E616F65
:1032F80059EC22F0F8C00AF1F9C00BF1FAC00CF150
:10330800FBC00DF1060E0101186F040E196F000EB7
:10331800156F010E146F080E176F000E166F000E52
:103328001B6F010E1A6F00C122F101C123F102C106
:1033380024F103C125F121EE04F011EE1CF0050E75
:10334800DBCFE3FFE806FCE20AC12CF10BC12DF14B
:103358000CC12EF10DC12FF121EE0EF011EE26F069
:10336800050EDBCFE3FFE806FCE221EE14F000EEE9
:10337800A7F01F0EDBCFEBFFE806FCE2A5EC0DF093
:10338800120001018B5100019A19D8B441D09A5109
:10339800D8A407D0660E986F7F0E996F18EC1FF0AF
:1033A8000AD000019A05D8A406D09F0E986F7E0E09
:1033B800996F18EC1FF000019A05D8A429D09B51E9
:1033C800D8A407D08C0E986F7E0E996F18EC1FF05A
:1033D8000AD000019B05D8A406D0780E986F7E0EFF
:1033E800996F18EC1FF000019C51D8A407D0A80EC3
:1033F800986F7D0E996F18EC1FF00AD000019C059C
:10340800D8A406D0C50E986F7D0E996F18EC1FF0E2
:1034180020EE9AF011EE8BF00E0EDBCFE3FFE806FC
:10342800FCE212000001746F3CD072C06AF073C0F5
:103438006BF0F6EC20F02C0E0001756F8198750E7C
:10344800606F000E616FB5EC1EF0000E1200760E74
:103458000001606F000E616FE5EC1DF00001765110
:103468001200818858EC23F0300E000163196211B4
:10347800D8A407D0550E6F6FFE0E6E6FF3EC21F0D7
:103488000BD058EC23F0FE0E000162256E6FFF0E84
:1034980063216F6FF3EC21F0CC0E29EC23F0000EC2
:1034A800120000017451000AD8B4BFD7010AD8B479
:1034B800CED7030AD8B4D5D7000E12001F0E036E5C
:1034C800000E046E000E056E000E066E81BA0FD057
:1034D8003350321014E13028FF0E3158D8B00FD0D5
:1034E800010E3026000E31223222332208D0000E7F
:1034F800306E000E316E000E326E000E336E0350C9
:10350800305C045031580550325806503358D8A012
:1035180002D0010E01D0000E4A6E4A50D8B411D024
:103528004B50D8A40ED003C030F004C031F005C011
:1035380032F006C033F001C0D9FF02C0DAFF010E35
:1035480005D001C0D9FF02C0DAFF000EDF6E4AC005
:103558004BF012006A0EF66E460EF76E000EF86E0D
:1035680002EEEBF010EE12F00900F5CFEEFFE55099
:10357800E150FAE1CA0EF66E450EF76E000EF86ECF
:1035880001EEBEF010EE1CF00900F5CFEEFFE5509D
:10359800E150FAE1EE0EF66E460EF76E000EF86E8A
:1035A8000900F5CF4DF00900F5CF4EF003EE00F01D
:1035B800700EEE6AE806FDE102EE00F0EB0EEE6A30
:1035C800E806FDE101EE8BF0330EEE6AE806FDE158
:1035D80000EE28F0250EEE6AE806FDE14F904F92C6
:1035E800000EF86E000127EF07F000016F6F700EF4
:1035F80000016A6F000E6B6F750E67EC21F0000119
:103608006F05D8B40BD015D0F00E701770812CD080
:10361800F00E18D0F00E7017060E19D06E51000A71
:10362800D8B4F6D7010AD8B4EFD7030AD8B4F2D77A
:10363800EBD76F51D8B40DD017D00F0E7017708913
:1036480013D00F0E701710D00F0E7017600E701376
:103658000BD06E51000AD8B4F4D7010AD8B4EDD70C
:10366800030AD8B4F1D7E9D7700E6A6F000E6B6FF2
:10367800750E4CEC21F01200820E00016A6F000EEC
:103688006B6F1B0E67EC21F0000182A106D080C091
:10369800D9FF81C0DAFF010E05D080C0D9FF81C0F3
:1036A800DAFF000EDF6E830E6E6F000E6F6F1F0E57
:1036B8004EEC15F0000183A708D020EE01F08051F0
:1036C800D9268151DA22010E07D020EE01F080516F
:1036D800D9268151DA22000EDF6E83A909D020EEA7
:1036E80002F08051D9268151DA22010EDF6E1200D4
:1036F80020EE02F08051D9268151DA22000EDF6EC9
:1037080012000001706F080E000170611ED0710E6A
:103718006A6F000E6B6F1C0E67EC21F070C06EF0C4
:10372800010E00016F6F6E2B02D0D8906F376E2F8D
:10373800FCD700016F51FF0A7117710E6A6F000EF6
:103748006B6F1C0E4CEC21F01200080E0001705F2C
:10375800710E6A6F000E6B6F1D0E67EC21F070C062
:103768006EF0010E00016F6F6E2B02D0D8906F378C
:103778006E2FFCD700016F51FF0A7117710E6A6F27
:10378800000E6B6F1D0E4CEC21F01200000E0001B4
:103798006E6F000E6F6F000E706F000E716F6A51C2
:1037A8006B116C116D11D8B42AD0010E726F06D04E
:1037B800D8906A376B376C376D37722B6DAFF8D787
:1037C800D8906E376F37703771376A51665D6B51B5
:1037D80067596C5168596D516959D8A009D06A5117
:1037E800665F6B51675B6C51685B6D51695B6E819D
:1037F800D8906D336C336B336A33722FE1D76EC058
:1038080066F06FC067F070C068F071C069F01200B0
:1038180075C06AF076C06BF0D8EC20F0000E00019D
:10382800866F050E866501D014D08651010D6F0E86
:10383800F324D96E000EF420DA6E8651010D7E0E47
:10384800F324E16E000EF420E26EDFCFE7FF862B53
:10385800E8D72A0E846F8198840E606F000E616F1E
:10386800B5EC1EF0000E0001856F050E856501D0D0
:103878000DD08551010D7E0EF324606F000EF420EB
:10388800616FB5EC1EF00001852BEFD7818812001F
:1038980008C001F009C002F0000E046E640E036E49
:1038A80097EC1FF001500E6E0E50640DF31EF41EBF
:1038B800F34AF42A0850F324016E0950F420026EEA
:1038C800000E046E0A0E036E97EC1FF001500D6E89
:1038D8000D500A0DF3CF0BF00E50640DF3500B246E
:1038E800000808240C6E08D00C5012000D5012006D
:1038F8000E501200000E12000A50000AD8B4F8D771
:10390800010AD8B4F3D7030AD8B4EED7F3D766ECD4
:1039180023F060C075F061C076F075C06AF076C0BB
:103928006BF0F6EC20F02C0E0001776F8198770E83
:10393800606F000E616FB5EC1EF0780E0001606FCD
:10394800000E616FE5EC1DF0790E0001606F000E4E
:10395800616FE5EC1DF08188000E00016F6FFF0EAE
:10396800706F7951726F716B6F5171177051721757
:103978007851736F746B71517311606F7251741158
:10398800616F6BEC23F01200020E000171256A6F63
:10399800000E72216B6FF6EC20F02C0E0001766F92
:1039A8008198760E606F000E616FB5EC1EF0000E08
:1039B8000001776F050E776501D00DD07751010DA5
:1039C800B70EF324606F010EF420616FE5EC1DF073
:1039D8000001772BEFD78188B70E606F010E616FFA
:1039E800B4EC0AF0E9CFD9FFEACFDAFF00EE71F0C4
:1039F800040EDBCFEBFFE806FCE21200740E0001B8
:103A08006A6F000E6B6F640E67EC21F0750E000193
:103A18006A6F000E6B6F650E67EC21F0760E000181
:103A28006A6F000E6B6F620E67EC21F0770E000173
:103A38006A6F000E6B6F630E67EC21F0780E000161
:103A48006A6F000E6B6F600E67EC21F0790E000153
:103A58006A6F000E6B6F610E67EC21F020EE74F058
:103A680000EE6EF0050EDBCFEBFFE806FCE212007D
:103A780001EC23F0EDEC12F09AC0A9F09BC0AAF07B
:103A88009CC0ABF0E7EC1FF06EC0A9F06FC0AAF0C5
:103A980070C0ABF0300E00016F6F000E6E6F08EC57
:103AA80022F0300E0001616F000E606F6BEC23F0A6
:103AB8005F0E00016F6FFE0E6E6FF3EC21F070EC7D
:103AC80023F045EC22F0010E0001A96F000EAB6F48
:103AD800000EAA6FA9C0A6F0AAC0A7F0ABC0A8F0B4
:103AE8001200000E00017D6F000E7C6F140E6F2512
:103AF8006A6F000E70216B6FF6EC20F02C0E00013F
:103B08007E6F81987E0E606F000E616FB5EC1EF0BF
:103B1800800E0001606F000E616FE5EC1DF07F0EF6
:103B28000001606F000E616FE5EC1DF0000180512F
:103B3800796F786B7F517A6F7B6B78517A117C6FD4
:103B480079517B117D6F81887CC06FF07DC070F0EA
:103B580012000E0E00016F256A6F000E70216B6F48
:103B6800F6EC20F02C0E0001786F8198780E606FCB
:103B7800000E616FB5EC1EF0000E0001806F050E9F
:103B8800806501D013D07F0E606F000E616FE5EC89
:103B98001DF000018051010D790EF324D96E000E3D
:103BA800F420DA6E7FC0DFFF802BE9D7818820EE12
:103BB80079F000EE6FF0050EDBCFEBFFE806FCE2D4
:103BC8001200000E0001666F000E676F000E686F2E
:103BD800000E696F000EC96EC7B015D066C062F0DE
:103BE80067C063F068C064F069C065F0662B000EBA
:103BF8006723682369236551641105E162290F0E63
:103C08006359D8A0E9D76951681105E166290F0EF3
:103C18006759D8A004D0818801EC23F0120060C055
:103C2800D9FF61C0DAFFC9CFDFFF1200000164517C
:103C3800651166116711D8B424D0010E686F06D0DB
:103C4800D8906437653766376737682B67AFF8D71A
:103C58006451605D65516159665162596751635994
:103C6800D8A008D06451605F6551615B6651625BA2
:103C78006751635BD8906733663365336433682F65
:103C8800E7D760C060F061C061F062C062F063C0F5
:103C980063F012000001706F43504410D8A40AD09A
:103CA8002A0E0001716F8198710E606F000E616FAE
:103CB800B5EC1EF0700E0001606F000E616FB5EC80
:103CC8001EF0FF0E00016C6FFF0E6D6F6AC06EF084
:103CD8006BC06FF06C516E276D516F2343506E1996
:103CE8000AE144506F19D8A406D08188000E446EAA
:103CF800000E436E1200434A442A12007C0E000153
:103D0800606F000E616F6CEC22F0820E0001606F34
:103D1800000E616FD6EC22F0000E0001866F070ED0
:103D2800866501D0120020EE7CF000EE64F0050EEE
:103D3800DBCFEBFFE806FCE282C06AF083C06BF0E1
:103D480084C06CF085C06DF0FF0E6E6FFF0E6F6F54
:103D5800FF0E706FFF0E716F72EC17F00001862B6B
:103D6800DED7000E0001666F000E676F000E686FE9
:103D7800000E696F60C0D9FF61C0DAFFDF50C96EFD
:103D8800C7B015D066C062F067C063F068C064F061
:103D980069C065F0662B000E6723682369236551A7
:103DA800641105E162290F0E6359D8A0E9D769515A
:103DB800681105E166290F0E6759D8A0120081889D
:103DC80001EC23F0120000016F6F700E00016A6FA2
:103DD800000E6B6F750E67EC21F000016F05D8A41B
:103DE8000CD06E51D8A402D0F00E0ED06E05D8A417
:103DF80013D0F00E701770810FD06F51D8A40CD06B
:103E08006E51D8A403D00F0E701706D06E05D8A433
:103E180003D00F0E70177089700E6A6F000E6B6FEB
:103E2800750E4CEC21F0120016D098C0F6FF99C020
:103E3800F7FFF86A070EF76403D00800F55005D0BD
:103E4800F6CFE9FFF7CFEAFFEF50AD6E0001984BD0
:103E5800992BACA2FED798C0F6FF99C0F7FFF86A75
:103E6800070EF76403D00800F55005D0F6CFE9FF38
:103E7800F7CFEAFFEF500009D8B41200D6D70001F7
:103E8800B46F76C0B5F077C0B6F0B5C06AF0B6C00A
:103E98006BF00001B4514EEC1EF0FF0E0001B06F44
:103EA800FF0EB16FB5C0B2F0B6C0B3F0B051B227D3
:103EB800B151B3233F50B21909E14050B319D8A406
:103EC80005D0000E406E000E3F6E12003F4A402A99
:103ED8001200000E0001666F000E656F62516311DB
:103EE800D8B41CD0010E646F04D0D8906237633701
:103EF800642B63AFFAD7D890653766376251605D37
:103F080063516159D8A005D06251605F6351615B0C
:103F18006581D89063336233642FEDD765C060F054
:103F280066C061F01200000E066E000E056E0350AA
:103F38000410D8B41CD0010E076E04D0D8900336F4
:103F48000436072A04AEFAD7D89005360636035049
:103F5800015C04500258D8A005D00350015E0450FB
:103F6800025A0580D89004320332072EEDD705C0D7
:103F780001F006C002F01200060E000171256A6FFA
:103F8800000E72216B6FD8EC20F06FC07AF0000140
:103F980070517B6F2A0E7C6F81987C0E606F000ECB
:103FA800616FB5EC1EF07B0E0001606F000E616F53
:103FB800B5EC1EF07A0E0001606F000E616FB5EC73
:103FC8001EF081881200010E0001726F000E746FDE
:103FD800000E736F000E716F710E6A6F000E6B6FBB
:103FE800740E67EC21F000017139E842070B070BEA
:103FF800E806D8A404D0000E746F000E03D0010E9A
:10400800746F2D0E736F72C06EF073C06FF074C052
:1040180070F01200770E00016A6F000E6B6F1D0EB4
:1040280067EC21F0760E00016A6F000E6B6F1C0EB4
:1040380067EC21F0000E0001706FFF0E716F775171
:10404800736F726B70517217715173177651746F69
:10405800756B725174116E6F735175116F6F120019
:1040680010D0DF0E0001606F7F0E616F1200EE0E40
:10407800606F7F0E616F1200C50E606F7E0E616FFC
:10408800120060C062F061C063F000016351080A69
:10409800D8A4F2D76251000AD8B4E3D7060AD8B434
:1040A800E6D7EAD7000162516311D8B418D0010EDF
:1040B800646F04D0D89062376337642B63AFFAD744
:1040C8006251605D63516159D8A004D06251605F4C
:1040D8006351615BD89063336233642FF1D760C05A
:1040E80060F061C061F01200000E0001666F050EFD
:1040F800666501D018D06651010DF3506225D96E5E
:10410800F4506321DA6E6651010DF3506025E16EBB
:10411800F4506121E26EDE50E618D8B402D0D8908F
:104128001200662BE4D7D8801200000E0001666FDB
:10413800030E666501D018D06651010DF350622553
:10414800D96EF4506321DA6E6651010DF350602583
:10415800E16EF4506121E26EDE50E618D8B402D068
:10416800D8901200662BE4D7D880120058EC23F0C0
:10417800300E000163196211D8A407D05F0E6F6F6B
:10418800FE0E6E6FF3EC21F00BD058EC23F0FE0E10
:10419800000162256E6FFF0E63216F6FF3EC21F053
:1041A800CC0E29EC23F012006C0E00016C6F6AC073
:1041B8006DF06B516E6F81986C0E606F000E616FC1
:1041C800B5EC1EF06D0E0001606F000E616FB5EC6E
:1041D8001EF06E0E0001606F000E616FB5EC1EF0F0
:1041E80081881200640E00016C6F6AC06DF06B511B
:1041F8006E6F81986C0E606F000E616FB5EC1EF0EB
:104208006D0E0001606F000E616FB5EC1EF06E0E52
:104218000001606F000E616FB5EC1EF0818812001E
:10422800000E0001606F070E606501D013D0605169
:10423800090D060EF326000EF422000EF324D96EA3
:10424800020EF420DA6EDF50D8A402D0000E12005D
:10425800602BE9D7010E1200000E0001606F070EF7
:10426800606501D013D06051090D060EF326000ECB
:10427800F422000EF324D96E020EF420DA6EDF5019
:10428800D8B402D0000E1200602BE9D7010E12003C
:1042980000016C6F220E00016D6F81986D0E606FCA
:1042A800000E616FB5EC1EF06C0E0001606F000E21
:1042B800616FB5EC1EF06AC060F06BC061F0B5ECE0
:1042C8001EF08188120000016C6F200E00016D6FD6
:1042D80081986D0E606F000E616FB5EC1EF06C0E6C
:1042E8000001606F000E616FB5EC1EF06AC060F0EF
:1042F8006BC061F0E5EC1DF081881200000E000132
:10430800626F050E626501D00FD06251010DF35046
:104318006025D96EF4506121DA6EDF50D8B402D02E
:10432800D8901200622BEDD7D8801200000E000141
:10433800626F030E626501D00FD06251010DF35018
:104348006025D96EF4506121DA6EDF50D8B402D0FE
:10435800D8901200622BEDD7D88012000001676F49
:10436800000167510E0D040EF326000EF422000E14
:10437800F324D96E030EF420DA6E00EE60F0050E19
:10438800DBCFEBFFE806FCE212006EC070F0000124
:104398006F51716F700E6A6F000E6B6F000E4CECF0
:1043A80021F0710E00016A6F000E6B6F010E4CEC6C
:1043B80021F012006EC070F000016F51716F700E25
:1043C8006A6F000E6B6F020E4CEC21F0710E00014B
:1043D8006A6F000E6B6F030E4CEC21F012006EC07A
:1043E80070F000016F51716F700E6A6F000E6B6F85
:1043F800060E4CEC21F0710E00016A6F000E6B6F17
:10440800070E4CEC21F012006EC070F000016F51E5
:10441800716F700E6A6F000E6B6F040E4CEC21F01A
:10442800710E00016A6F000E6B6F050E4CEC21F0E7
:104438001200000160516203F3CF64F0F4CF65F01D
:1044480060516303F350652761516203F350652798
:1044580064C060F065C061F0120072C06EF073C095
:104468006FF0C9EC21F076C06EF077C06FF0DEEC2B
:1044780021F0D40E29EC23F000017A5192EC22F0BD
:104488001200000E00016E6F6E0E6A6F000E6B6FE9
:104498006F0E67EC21F000016E8B6E0E6A6F000ED6
:1044A8006B6F6F0E4CEC21F01200000E0001626F72
:1044B800050E626501D012006251010DF3506025AE
:1044C800D96EF4506121DA6EFF0EDF6E622BF0D7E1
:1044D800000E0001626F050E626501D01200625184
:1044E800010DF3506025D96EF4506121DA6E000E8B
:1044F800DF6E622BF0D7F30E41184210D8A40BD010
:10450800000E426E000E416E010E3826000E392252
:104518003A223B221200414A422A12000001606FEF
:1045280000016051090D060EF326000EF422000E5C
:10453800F324D96E020EF420DA6E000EDF6E12003C
:10454800850EF66E7C0EF76E20EE62F00A0E0900FC
:10455800F5CFDEFFE806FBE2620E0001606F000E99
:10456800616F12009AC073F09BC074F09CC075F024
:104578009DC076F042EC0CF073C098F074C099F0CE
:1045880018EC1FF01200000E00016E6F6E0E6A6FBD
:10459800000E6B6F740E67EC21F01F0E00016E1792
:1045A8006E511200000E0001626F030E626501D0A9
:1045B800120060C0D9FF61C0DAFF000EDF6E622B07
:1045C800F4D73F065B4F666D7D077F6F00403F3F26
:1045D8003F2E3F3F3F2E3F3F3F2E3F3F3F00D70EEE
:1045E8000001986F7E0E996F18EC1FF09AC072F058
:1045F8009BC073F0BAEC20F01200C69AC78C938067
:104608000F015C9193925C9393965C9793985C9955
:104618008188C68A1200F80E8216F80E9416000ECB
:10462800926E000E0F015B6FF80E5D178068120026
:10463800000E00016E6F6E0E6A6F000E6B6F1A0E21
:1046480067EC21F000016E51120000016A6F819839
:104658006A0E0001606F000E616FB5EC1EF0818874
:1046680012003F3F3A3F3F3A3F3F3A3F3F3A3F3FD2
:104678003A3F3F0038C060F039C061F03AC062F09C
:104688003BC063F012001CEC23F00009D8B402D040
:10469800010E1200000E1200AC8AAC98AB8EAC8CE6
:1046A800AC80030EAF6E120066EC23F060C062F0BF
:1046B80061C063F012000001726F0001725185EC55
:1046C8001BF0120047C060F048C061F0120060C0E3
:1046D80047F061C048F01200E80E29EC23F0120000
:0846E8001CEC23F01200123457
:107C840000454E433432344A36303000457468651A
:107C9400726E657420636F6E74726F6C6C657220A3
:107CA4006861732072657475726E656420616E20FC
:107CB400756E6B6E6F776E206465766963652049B7
:107CC400442E002D2D2D2D2D2D2D2D2D2D2D2D2DF5
:107CD4002D2D2D2D2D2D2D2D2D2D2D2D2D2D2D2DD0
:107CE4002D2D2D2D2D2D2D2D2D2D2D2D2D2D2D2DC0
:107CF4002D2D2D0A0D005B496E76616C696420415F
:107D04005250204D657373616765207761732064F9
:107D140069736361726465642E5D0D0A00496E695E
:107D24007469616C6973696E672045746865726E05
:107D3400657420436F6E74726F6C6C65722E2E2E98
:107D44000A0D0045746865726E657420636F6E7405
:107D5400726F6C6C657220697320756E72657370D6
:107D64006F6E736976652E002045544845524E4522
:107D74005420434F4E54524F4C4C4552204D4F4487
:107D8400554C453A2000416E20756E6B6E6F776ED0
:107D9400206572726F7220686173206F63637572FD
:107DA40065642E00636F6E6E656374696F6E20691F
:107DB400732048616C66204475706C65782E0A0DDA
:107DC40000636F6E6E656374696F6E20697320461D
:107DD400756C6C204475706C65782E0A0D005772B2
:107DE4006974696E67203078313233342073756377
:107DF4006365737366756C2E0A0D00496E69746948
:107E0400616C69736174696F6E20636F6D706C650A
:107E14007465642E0A0D0057726974696E672030A8
:107E24007831323334206661696C65642E0A0D0042
:107E34004649524D57415245204255494C442044ED
:107E44004154452049532000536F75726365204D9A
:107E54004143206164647265737320697320005325
:107E6400696C69636F6E207265766973696F6E20E1
:107E74006973200053706565642069732031303064
:107E8400204D6270732C2000537065656420697303
:107E9400203130204D6270732C20004C696E6B20B1
:107EA40065737461626C69736865642E2000204593
:107EB400544845524E4554204D4F44554C453A2064
:107EC40000556E6B6E6F776E2045746865725479D9
:107ED4007065005B5041434B45542044524F505011
:107EE40045445D00204D454D4F5259204D4F44555A
:107EF4004C453A200052657365742073756363655D
:107F040073732E0A0D005B5265706C792073656E75
:107F14007420746F20005B53796D626F6C2045721E
:107F2400726F72735D005265736574206661696C6B
:107F340065642E0A0D005B49734772617475697438
:107F44006F75735D002049507634204D4F44554C75
:107F5400453A200020415250204D4F44554C453A5B
:107F640020004C696E6B206C6F73742E0A0D002018
:107F740064657465637465642E200046656220320E
:107F8400382032303139005B42726F61646361734F
:107F9400745D005B497350726F62655D005B556E82
:107FA40069636173745D002028436F64653A20003F
:107FB40032333A30323A333000206973206174200E
:107FC400005B4552524F525D005B495076345D0070
:107FD4005B4152505D005D2D3E5B0049507634009C
:107FE400292E0A0D005D5B4C3D00415250002028B3
:0B7FF400002D3E005D5B00295D0000D9
:020000040020DA
:08000000FFFFFFFFFFFFFFFF00
:020000040030CA
:0E00000002285F3FFFD385FF0FC00FE00F40C7
:00000001FF
