:0400000074EF00F0A9
:100008005182FACF17F0FBCF18F0E9CF19F0EACFF9
:100018001AF0E1CF1BF0E2CF1CF0D9CF1DF0DACFF8
:100028001EF0F3CF1FF0F4CF20F0F6CF21F0F7CF7A
:1000380022F0F8CF23F0F5CF24F051C025F052C0BC
:1000480026F053C027F054C028F09EA412D09E94E6
:1000580081AC02D0010E01D0000EFF0A166E163ACE
:100068001646164681501618BF0B1618816E72EC8C
:1000780026F0F2A40DD0F29435C00FF036C010F07F
:1000880073EC1BF0F30E016E010E026ED5EC1CF042
:10009800F0B2F09228C054F027C053F026C052F0B6
:1000A80025C051F024C0F5FF23C0F8FF22C0F7FF98
:1000B80021C0F6FF20C0F4FF1FC0F3FF1EC0DAFF07
:1000C8001DC0D9FF1CC0E2FF1BC0E1FF1AC0EAFF38
:1000D80019C0E9FF18C0FBFF17C0FAFF51921100C1
:1000E800C2EF1EF0000E0001966F000E956F000E15
:1000F800946F000E936F000E926F000E916F000EBA
:10010800906F79C060F07AC061F07BC062F07CC00B
:1001180063F00A0E646F000E656F000E666F000EC6
:10012800676F44EC21F0000160518F6F7C5108E14A
:10013800400E795D420E7A590F0E7B59D8A021D016
:1001480079C06CF07AC06DF07BC06EF07CC06FF047
:10015800400E706F420E716F0F0E726F000E736F4C
:1001680040EC1EF000016C51956F9651010DE30EA5
:10017800F324D96E010EF420DA6E9551300FDF6E3C
:10018800962B7C5108E1A00E795D860E7A59010EF6
:100198007B59D8A03ED09551606F616B626B636BE1
:1001A800400E646F420E656F0F0E666F000E676F2C
:1001B800DDEC21F00001601F611F621F631F602BCF
:1001C800000E612362236323795160256C6F7A5195
:1001D80061216D6F7B5162216E6F7C5163216F6F5E
:1001E800A00E706F860E716F010E726F000E736F26
:1001F80040EC1EF000016C51946F9651010DE30E16
:10020800F324D96E010EF420DA6E9451300FDF6EAC
:10021800962B7C517B1106E1100E795D270E7A59D9
:10022800D8A062D09451606F616B626B636BA00E53
:10023800646F860E656F010E666F000E676FDDECEA
:1002480021F060C07DF061C07EF062C07FF063C0C5
:1002580080F000019551606F616B626B636B400EBB
:10026800646F420E656F0F0E666F000E676FDDECF0
:1002780021F0000160517D25816F61517E21826FDF
:1002880062517F21836F63518021846F811F821F98
:10029800831F841F812B000E82238323842379519B
:1002A80081256C6F7A5182216D6F7B5183216E6F2E
:1002B8007C5184216F6F100E706F270E716F000EC6
:1002C800726F000E736F40EC1EF000016C51936F5B
:1002D8009651010DE30EF324D96E010EF420DA6E67
:1002E8009351300FDF6E962B7C517B1106E1E80E9F
:1002F800795D030E7A59D8A074D093C060F0616B11
:10030800270E636F100E626F33EC25F060C07DF02E
:1003180061C07EF000019451606F616B626B636B2A
:10032800A00E646F860E656F010E666F000E676F14
:10033800DDEC21F000017D5160257F6F7E51612148
:10034800806F000E6221816F000E6321826F9551CC
:10035800606F616B626B636B400E646F420E656F1A
:100368000F0E666F000E676FDDEC21F00001605123
:100378007F25836F61518021846F62518121856F50
:1003880063518221866F831F841F851F861F832BDD
:10039800000E842385238623795183256C6F7A5137
:1003A80084216D6F7B5185216E6F7C5186216F6F23
:1003B800E80E706F030E716F000E726F000E736F90
:1003C80040EC1EF000016C51926F9651010DE30E46
:1003D800F324D96E010EF420DA6E9251300FDF6EDD
:1003E800962B7C517B117A1104E1640E795DD8A0BB
:1003F80088D093C060F0616B270E636F100E626F38
:1004080033EC25F060C07DF061C07EF092C060F0F2
:100418000001616B030E636FE80E626F33EC25F029
:1004280000017D5160257F6F7E516121806F816B56
:10043800D8B0812B826B9451606F616B626B636B78
:10044800A00E646F860E656F010E666F000E676FF3
:10045800DDEC21F0000160517F25836F615180211F
:10046800846F62518121856F63518221866F955116
:10047800606F616B626B636B400E646F420E656FF9
:100488000F0E666F000E676FDDEC21F00001605102
:100498008325876F61518421886F62518521896F17
:1004A800635186218A6F871F881F891F8A1F872BA0
:1004B800000E882389238A23795187256C6F7A5106
:1004C80088216D6F7B5189216E6F7C518A216F6FF6
:1004D800640E706F000E716F000E726F000E736FF6
:1004E80040EC1EF000016C51916F9651010DE30E26
:1004F800F324D96E010EF420DA6E9151300FDF6EBD
:10050800962B7C517B117A1104E10A0E795DD8A0F3
:1005180096D093C060F0616B270E636F100E626F08
:1005280033EC25F060C07DF061C07EF092C060F0D1
:100538000001616B030E636FE80E626F33EC25F008
:1005480000017D5160257F6F7E516121806F816B35
:10055800D8B0812B826B9151640DF3507F25836F46
:10056800F4508021846F000E8121856F000E822156
:10057800866F9451606F616B626B636BA00E646FE2
:10058800860E656F010E666F000E676FDDEC21F059
:10059800000160518325876F61518421886F625102
:1005A8008521896F635186218A6F9551606F616BD0
:1005B800626B636B400E646F420E656F0F0E666F61
:1005C800000E676FDDEC21F00001605187258B6F0D
:1005D800615188218C6F625189218D6F63518A2105
:1005E8008E6F8B1F8C1F8D1F8E1F8B2B000E8C23E5
:1005F8008D238E2379518B256C6F7A518C216D6FE9
:100608007B518D216E6F7C518E216F6F0A0E706F3A
:10061800000E716F000E726F000E736F40EC1EF0CB
:1006280000016C51906F9651010DE30EF324D96EC1
:10063800010EF420DA6E9051300FDF6E962B965132
:10064800010DE30EF324D96E010EF420DA6E8F51FA
:10065800300FDF6E962B9651010DE30EF324D96E01
:10066800010EF420DA6E000EDF6E962BE30E796F22
:10067800010E7A6F1200020E0101836F000E856F62
:10068800000E846F3AEC26F0010120EE1EF078513E
:10069800D9267951DA22000160C0DEFF61C0DEFF91
:1006A80062C0DEFF63C0DEFF64EC26F0010120EECD
:1006B80010F07851D9267951DA22000162C0DEFFA4
:1006C80063C0DDFF40EC1FF0010120EE16F0785109
:1006D800D9267951DA22010EDF6E20EE10F078511A
:1006E800D9267951DA22DECF71F0DDCF72F0B9EC7C
:1006F8001FF0010120EE19F07851D9267951DA223C
:10070800040EEBCFDBFFE806FCE220EE19F078518F
:10071800D9267951DA2210EE14F07851E126795170
:10072800E222DECFE6FFDDCFE5FF20EE14F07851C0
:10073800D9267951DA22DECF7BF1DDCF7CF120EEAC
:1007480010F07851D9267951DA22DECF7DF1DDCF4C
:100758007EF17B517D277C517E23600E7E5DD8A083
:100768003BD0000E7B6F300E7C6F20EE14F078517A
:10077800D9267951DA22DECF7DF1DDCF7EF1FF0E69
:100788007F6F2F0E806F20EE10F07851D9267951A7
:10079800DA22DECF81F1DDCF82F1811F821F814B0A
:1007A800822B7F51812780518223811F821F814B99
:1007B800822B7D5181277E5182237B5181277C5159
:1007C800822320EE12F07851D9267951DA2281C19C
:1007D800DEFF82C1DDFF22D020EE14F07851D92649
:1007E8007951DA22DECF7BF1DDCF7CF120EE10F0FB
:1007F8007851D9267951DA22DECF7DF1DDCF7EF12D
:100808007B517D277C517E2320EE12F07851D9262A
:100818007951DA227DC1DEFF7EC1DDFF20EE10F0C6
:100828007851D9267951DA2200EE6FF0080EDBCF25
:10083800EBFFE806FCE29FEC20F0010120EE0EF051
:100848007851D9267951DA2200016FC0DEFF70C0D5
:10085800DDFFCE0E986F7F0E996F34EC22F039C011
:1008680079F03AC07AF03BC07BF03CC07CF076EC83
:1008780000F079C098F07AC099F034EC22F0010EBB
:100888003926000E3A223B223C22FA0E0001986FCC
:100898007F0E996F34EC22F0010120EE1BF07851A5
:1008A800D9267951DA22DFAE07D05E0E0001986FA3
:1008B8007F0E996F34EC22F0010120EE1DF0785183
:1008C800D9267951DA22DFA407D07F0E0001986F6C
:1008D8007F0E996F34EC22F0010120EE1BF0785165
:1008E800D9267951DA22DFBA07D0FD0E0001986FB8
:1008F8007E0E996F34EC22F0CE0E0001986F7F0EB9
:10090800996F34EC22F0010120EE1EF07851D926BF
:100918007951DA22DECF79F0DECF7AF0DECF7BF0C4
:10092800DECF7CF076EC00F079C098F07AC099F0D0
:1009380034EC22F0FA0E0001986F7F0E996F34ECB8
:1009480022F096D0C00E0001986F7F0E996F34EC9C
:1009580022F078C1FCF079C1FDF028EC14F0AAD09F
:10096800B90E0001986F7F0E996F34EC22F078C1B0
:10097800B5F079C1B6F04CEC13F09CD0CE0E000166
:10098800986F7F0E996F34EC22F0010120EE02F08F
:100998007851D9267951DA2200EE7AF0050EDBCFAC
:1009A800EBFFE806FCE2A5EC18F07AC098F07BC0F3
:1009B80099F034EC22F0F30E0001986F7F0E996FD6
:1009C80034EC22F0010120EE08F07851D926795153
:1009D800DA2200EE7AF0050EDBCFEBFFE806FCE248
:1009E800A5EC18F07AC098F07BC099F034EC22F0AE
:1009F800F60E0001986F7F0E996F34EC22F001011A
:100A080020EE0EF07851D9267951DA22DECF60F047
:100A1800DDCF61F04AEC23F060C098F061C099F036
:100A280034EC22F0DF0E0001986F7F0E996F34ECE2
:100A380022F078C1D9FF79C1DAFFDECF7BF1DDCFB3
:100A48007CF17BC19AF07CC19BF000019C6B9D6B93
:100A5800B9EC25F0FA0E0001986F7F0E996F34EC0F
:100A680022F078C172F079C173F0D0EC23F022D073
:100A7800010120EE0EF07851D9267951DA22DECF25
:100A88007BF1DDCF7CF17C51080AD8B404D0800A10
:100A9800D8B40CD073D77B51000AD8B461D7060AF2
:100AA800D8B450D7440AD8B405D068D77B51080ABF
:100AB800D8A464D7CE0E0001986F7F0E996F34ECDE
:100AC80022F0010120EE10F07851D9267951DA226E
:100AD800DECF7BF1DDCF7CF17BC179F07CC17AF090
:100AE80000017B6B7C6B76EC00F079C098F07AC0E3
:100AF80099F034EC22F0F80E0001986F7E0E996F91
:100B080034EC22F0010120EE12F07851D926795107
:100B1800DA22DECF7BF1DDCF7CF17BC179F07CC1BD
:100B28007AF000017B6B7C6B76EC00F079C098F072
:100B38007AC099F034EC22F0F00E0001986F7F0E25
:100B4800996F34EC22F0010120EE14F07851D92687
:100B58007951DA22DECF7BF1DDCF7CF17BC179F0F0
:100B68007CC17AF000017B6B7C6B76EC00F079C07D
:100B780098F07AC099F034EC22F0F90E0001986FE1
:100B88007F0E996F34EC22F0040E0001986F7D0EF1
:100B9800996F34EC22F01200000E0001A16F84510D
:100BA8008511D8A40CD0010E9F6F20EE98F000EEAE
:100BB80084F0080EDBCFEBFFE806FCE212002AEC1B
:100BC80024F00009D8B40DD0010E00019F6F20EE6B
:100BD80098F000EE84F0080EDBCFEBFFE806FCE2AD
:100BE800120046EC24F00009D8B43CD2300E0001C3
:100BF800855DD8A00CD0010E9F6F20EE98F000EE16
:100C080084F0080EDBCFEBFFE806FCE21200000ED2
:100C180001018D6F000E8C6F84C08EF185C08FF13D
:100C280084C090F185C091F1010E926F000E946F0F
:100C380021EE8CF000EE84F0080EDBCFEBFFE80627
:100C4800FCE212000001A151090D060EF326000E68
:100C5800F4228C0EF324D96E010EF420DA6EDF50E4
:100C6800D8A4EFD1A151D8B407D0FF0EA125936F16
:100C7800946BFF0E942304D0000E946F070E936FAD
:100C880093C060F094C061F0000E636F090E626F4C
:100C980033EC25F0020E00016027000E61238C0E54
:100CA8006025D96E010E6121DA6EDECF8DF0DDCFC1
:100CB8008EF0010E8D27000E8E23A151090D8C0E8A
:100CC800F324D96E010EF420DA6E8DC0DEFF8EC0DB
:100CD800DDFFA151090D8C0EF324D96E010EF4200D
:100CE800DA6EDECF8DF0DDCF8EF084518D27855101
:100CF8008E238D05300E8E59D8A0D1D0070EA1199C
:100D0800D8A4CDD001019251D8A4C9D00001A151D5
:100D1800090D040EF326000EF4228C0EF324D96E6E
:100D2800010EF420DA6E84C0DEFF85C0DDFFA1511C
:100D3800090D040EF326000EF4228C0EF324D96E4E
:100D4800010EF420DA6EDECF8DF0DDCF8EF0FF0ECF
:100D58008F6F2F0E906FA151090D8C0EF324D96E51
:100D6800010EF420DA6EDECF91F0DDCF92F0911F04
:100D7800921F914B922B8F51912790519223911F43
:100D8800921F914B922B8D5191278E519223A151F5
:100D9800090D020EF326000EF4228C0EF324D96EF0
:100DA800010EF420DA6E91C0DEFF92C0DDFF000E66
:100DB800966F070E966501D046D0A1519619D8B402
:100DC8003FD0A151090D8C0EF324D96E010EF420E9
:100DD800DA6E00EE72F0080EDBCFEBFFE806FCE2FD
:100DE8009651090D8C0EF324D96E010EF420DA6E9B
:100DF80000EE7BF0080EDBCFEBFFE806FCE229EC07
:100E080019F00009D8B41CD000019651090D060E3E
:100E1800F326000EF4228C0EF324D96E010EF42072
:100E2800DA6EDF50D8B40CD0010E9F6F20EE98F028
:100E380000EE84F0080EDBCFEBFFE806FCE21200C0
:100E48000001962BB6D7A151090D060EF326000E08
:100E5800F4228C0EF324D96E010EF420DA6E010E02
:100E6800DF6EA151090D080EF326000EF4228C0E38
:100E7800F324D96E010EF420DA6EA1C0DFFFA15170
:100E8800090D8C0EF324D96E010EF420DA6E00EEF3
:100E980084F0080EDBCFEBFFE806FCE21200010E3F
:100EA8000001956FA151090D8C0EF324D96E010E26
:100EB800F420DA6EDECF8DF0DDCF8EF084518D27F1
:100EC80085518E23A151090D020EF326000EF4223E
:100ED8008C0EF324D96E010EF420DA6E8DC0DEFF7D
:100EE8008EC0DDFF000E976F070E976501D03CD0CE
:100EF800A1519719D8B435D09751090D060EF3268C
:100F0800000EF4228C0EF324D96E010EF420DA6E52
:100F1800DF50D8B426D0A151090D8C0EF324D96E18
:100F2800010EF420DA6E00EE72F0080EDBCFEBFF54
:100F3800E806FCE29751090D8C0EF324D96E010ED8
:100F4800F420DA6E00EE7BF0080EDBCFEBFFE8064C
:100F5800FCE229EC19F00009D8B403D0000E000116
:100F6800956F0001972BC0D79551D8B46AD0A1517D
:100F7800090D060EF326000EF4228C0EF324D96E0A
:100F8800010EF420DA6E010EDF6EA151090D8C0EF0
:100F9800F324D96E010EF420DA6EDECF8DF0DDCFAA
:100FA8008EF084518D2785518E23A151090D020E93
:100FB800F326000EF4228C0EF324D96E010EF420D1
:100FC800DA6E8DC0DEFF8EC0DDFFA151090D070E60
:100FD800F326000EF4228C0EF324D96E010EF420B1
:100FE800DA6E000EDF6EA151090D040EF326000E15
:100FF800F4228C0EF324D96E010EF420DA6E84C02C
:10100800DEFF85C0DDFFA151090D080EF326000E95
:10101800F4228C0EF324D96E010EF420DA6EA1C0EE
:10102800DFFFA151090D8C0EF324D96E010EF420B7
:10103800DA6E00EE84F0080EDBCFEBFFE806FCE288
:101048001200A12B080EA119D8A40CD0010E9F6F75
:1010580020EE98F000EE84F0080EDBCFEBFFE806F8
:10106800FCE21200080E0001A165ECD51200000E8A
:1010780000019F6F160E9E6F20EE10F07751D92653
:101088007851DA22DECF97F0DDCF98F09E51972580
:10109800726F9F519821736F000E23EC1DF00001B1
:1010A80020EE10F07751D9267851DA22DECF97F06A
:1010B800DDCF98F09E519725726F9F519821736FDD
:1010C800010E23EC1DF00001A16FA06B20EE10F0C3
:1010D8007751D9267851DA22DECF97F0DDCF98F014
:1010E8009E519725726F9F519821736F010E23ECC3
:1010F8001DF00001996F9951A01320EE10F077515F
:10110800D9267851DA22DECF97F0DDCF98F09E51BC
:101118009725726F9F519821736F010E23EC1DF074
:101128000001A36FA26B20EE10F07751D9267851F9
:10113800DA22DECF97F0DDCF98F09E519725726FB7
:101148009F519821736F010E23EC1DF00001996FD8
:101158009951A21320EE10F07751D9267851DA224E
:10116800DECF97F0DDCF98F09E519725726F9F5193
:101178009821736F010E23EC1DF00001A46F20EE7F
:1011880010F07751D9267851DA22DECF97F0DDCFEB
:1011980098F09E519725726F9F519821736F010E99
:1011A80023EC1DF00001A56F20EE10F07751D92631
:1011B8007851DA22DECF97F0DDCF98F09E5197254F
:1011C800726F9F519821736F010E23EC1DF000017F
:1011D800A76FA66B20EE10F07751D9267851DA2246
:1011E800DECF97F0DDCF98F09E519725726F9F5113
:1011F8009821736F010E23EC1DF00001996F99512E
:10120800A613000E9A6F24D020EE10F07751D9263D
:101218007851DA22DECF97F0DDCF98F09E519725EE
:10122800726F9F519821736F010E23EC1DF000011E
:10123800996F9A51010D080EF326000EF422A00EA4
:10124800F324D96E000EF420DA6E99C0DFFF9A2BD2
:10125800A4519A5DD8A0D8D7000E9B6F24D020EE59
:1012680010F07751D9267851DA22DECF97F0DDCF0A
:1012780098F09E519725726F9F519821736F010EB8
:1012880023EC1DF00001996F9B51010D0E0EF32602
:10129800000EF422A00EF324D96E000EF420DA6EAC
:1012A80099C0DFFF9B2BA5519B5DD8A0D8D7000E16
:1012B8009C6F24D020EE10F07751D9267851DA228D
:1012C800DECF97F0DDCF98F09E519725726F9F5132
:1012D8009821736F010E23EC1DF00001996F9C514A
:1012E800010D120EF326000EF422A00EF324D96E7F
:1012F800000EF420DA6E99C0DFFF9C2BA4519C5D90
:10130800D8A0D8D7000E9D6F24D020EE10F07751CA
:10131800D9267851DA22DECF97F0DDCF98F09E51AA
:101328009725726F9F519821736F010E23EC1DF062
:101338000001996F9D51010D180EF326000EF4223D
:10134800A00EF324D96E000EF420DA6E99C0DFFFE8
:101358009D2BA5519D5DD8A0D8D720EE10F07751D0
:10136800D9267851DA22DECF97F0DDCF98F09E515A
:101378009725726F9F519821736F020E23EC1DF011
:10138800AE0E0001606F000E616FB0EC24F000013A
:10139800D8A002D0BC833CD0BC93AE0E606F000EC8
:1013A800616FB80E626F000E636FAFEC23F000013F
:1013B800D8A00DD0B20E606F000E616F98EC24F0CB
:1013C8000001D8A004D0A605A711D8B41FD0AE0E2E
:1013D800606F000E616FB80E626F000E636FAFEC46
:1013E80023F00001D8A014D0A80E606F000E616F22
:1013F800B20E626F000E636F8EEC23F00001D8A06E
:1014080007D0020EA619A711D8A402D0BC8101D01A
:10141800BC91A005A111D8A413D0080EA319A2113C
:10142800D8A40ED0A7510CE1030EA65DD8B008D001
:10143800060EA419D8A404D0040EA519D8B404D053
:10144800010EBF6F930E03D0000EBF6F000EBE6F6C
:10145800030EBD6F20EEA0F000EE77F01F0EDBCF7D
:10146800EBFFE806FCE21200000E0001656FFF0EBC
:10147800666F20EE01F06051D9266151DA22DF5003
:10148800676F6751696F686B6551681766516917AF
:1014980060C0D9FF61C0DAFFDF506A6F6B6B6851BB
:1014A8006A116C6F69516B116D6F20EE02F060511B
:1014B800D9266151DA22DFA003D0656B652B02D0F3
:1014C8000001656B6E516519FE0B65196E6F20EE94
:1014D80002F06051D9266151DA22DFA403D0656B8E
:1014E800652B02D00001656B65476E516519FD0BD0
:1014F80065196E6F20EE02F06051D9266151DA222B
:10150800DFA803D0656B652B02D00001656B6547CA
:1015180065476E516519FB0B65196E6F20EE02F079
:101528006051D9266151DA22DFAA03D0656B652B99
:1015380002D00001656B6547654765476E516519BF
:10154800F70B65196E6F20EE02F06051D9266151D4
:10155800DA22DFAC03D0656B652B02D00001656B26
:10156800653B6E516519EF0B65196E6F20EE02F041
:101578006051D9266151DA22DFAE03D0656B652B45
:1015880002D00001656B653B65476E516519DF0B3D
:1015980065196E6F20EE03F06051D9266151DA2289
:1015A800DFA003D0656B652B02D00001656B653B3E
:1015B800654765476E516519BF0B65196E6F20EE5B
:1015C80003F06051D9266151DA22DFA203D0656B9E
:1015D800652B02D00001656B653365336E51651963
:1015E8007F0B65196E6F20EE03F06051D9266151AB
:1015F800DA22DFA603D0656B652B02D00001656B8C
:1016080065476F516519FD0B65196F6F20EE03F083
:101618006051D9266151DA22DFA803D0656B652BAA
:1016280002D00001656B654765476F516519FB0B73
:1016380065196F6F20EE03F06051D9266151DA22E7
:10164800DFAA03D0656B652B02D00001656B654787
:10165800654765476F516519F70B65196F6F20EE80
:1016680003F06051D9266151DA22DFAC03D0656BF3
:10167800652B02D00001656B653B6F516519EF0B57
:1016880065196F6F20EE03F06051D9266151DA2297
:10169800DFAE03D0656B652B02D00001656B653B3F
:1016A80065476F516519DF0B65196F6F20EE04F000
:1016B8006051D9266151DA22DFA003D0656B652B12
:1016C80002D00001656B653B654765476F51651939
:1016D800BF0B65196F6F20EE04F06051D926615178
:1016E800DA22DFA203D0656B652B02D00001656B9F
:1016F800653365336F5165197F0B65196F6F20EE80
:1017080004F06051D9266151DA22DFA403D0656B59
:10171800652B02D00001656B70516519FE0B6519C8
:10172800706F20EE04F06051D9266151DA22DFA6ED
:1017380003D0656B652B02D00001656B654770515E
:101748006519FD0B6519706F20EE04F06051D926FC
:101758006151DA22DFA803D0656B652B02D0000146
:10176800656B6547654770516519FB0B6519706FA7
:1017780020EE6CF000EE60F0040EDBCFEBFFE80625
:10178800FCE21200000E00016E6F000E6F6F000E7B
:10179800706F000E716F20EE02F06051D926615112
:1017A800DA22DF50626F636BD89062376337D89064
:1017B8006237633720EE01F06051D9266151DA2291
:1017C800DF50646F6451666F656B60C0D9FF61C09C
:1017D800DAFFDF50676F686B0C0ED8906737683791
:1017E800E82EFBD76551671366516813625167137A
:1017F8006351681320EE03F06051D9266151DA2253
:10180800DF50696F69516713000E681367C06EF087
:1018180068C06FF0706B716B20EE04F06051D926D0
:101828006151DA22DECF62F0DDCF63F062516E27BC
:1018380063516F23000E7023000E712320EE06F013
:101848006051D9266151DA22DECF62F0DDCF63F034
:1018580062516E2763516F23000E7023000E7123AF
:1018680020EE09F06051D9266151DA22DECF62F00C
:10187800DDCF63F020EE08F06051D9266151DA22FD
:10188800DF50646F656B0D0ED89064376537E82EAE
:10189800FBD7625164136351651364516E27655118
:1018A8006F23000E7023000E712320EE0BF06051A1
:1018B800D9266151DA22DF50626F6251646F636B1F
:1018C80020EE0CF06051D9266151DA22DF50656FA5
:1018D80065516313000E641363516E2764516F23BF
:1018E800000E7023000E712320EE0FF06051D926F0
:1018F8006151DA22DF50626F6251646F636B20EED0
:1019080010F06051D9266151DA22DF50656F666B9D
:10191800635165136451661365516E2766516F23D1
:10192800000E7023000E712320EE11F06051D926AD
:101938006151DA22DF50626F6251646F636B20EE8F
:1019480012F06051D9266151DA22DF50656F666B5B
:10195800635165136451661365516E2766516F2391
:10196800000E7023000E712320EE13F06051D9266B
:101978006151DA22DF50626F6251646F636B20EE4F
:1019880014F06051D9266151DA22DF50656F666B19
:10199800635165136451661365516E2766516F2351
:1019A800000E7023000E712320EE15F06051D92629
:1019B8006151DA22DF50626F6251646F636B20EE0F
:1019C80016F06051D9266151DA22DF50656F666BD7
:1019D800635165136451661365516E2766516F2311
:1019E800000E7023000E71236EC062F06FC063F0AA
:1019F80070C064F071C065F0110E05D0D8906533E1
:101A0800643363336233E82EF9D70F0E6215666FBD
:101A1800000E6315676F000E6415686F000E65157C
:101A2800696FFF0E6E156A6FFF0E6F156B6F000EF4
:101A380070156C6F000E71156D6F66516A256E6FAB
:101A480067516B216F6F68516C21706F69516D21FF
:101A5800716F6EC062F06FC063F070C064F071C0E7
:101A680065F0621F631F641F651F62C06EF063C06C
:101A78006FF064C070F065C071F020EE0DF0605139
:101A8800D9266151DA226EC0DEFF6FC0DDFF120079
:101A9800C70E0001606F000E616F6FEC25F0000E3D
:101AA8000001D26F240ED16F20EEB9F010EED9F0FC
:101AB800050EDBCFE3FFE806FCE220EEF3F000EED4
:101AC8006FF0080EDBCFEBFFE806FCE2D7EC20F066
:101AD80020EED3F0050EEBCFDBFFE806FCE2080EA4
:101AE8000001E06F060EDF6FD10EA26F000EA36F2C
:101AF8009BEC1AF00001E851D8A41200080EE12569
:101B0800F36F000EE221F46FE3C0F5F0E4C0F6F0E5
:101B1800000EF86F1C0EF76FF3C061F0F4C062F0AE
:101B2800636B646BADEC19F061C098F062C099F01A
:101B380034EC22F0450E0001986F7E0E996F34EC5C
:101B480022F0F5C061F0F6C062F00001636B646BCF
:101B5800ADEC19F061C098F062C099F034EC22F055
:101B6800040E0001986F7D0E996F34EC22F020EE80
:101B7800F3F000EE6FF0080EDBCFEBFFE806FCE2B7
:101B88000001A8517DEC1FF020EEF3F000EE6FF09D
:101B9800080EDBCFEBFFE806FCE20001A7517DEC65
:101BA8001FF020EEF3F000EE6FF0080EDBCFEBFF36
:101BB800E806FCE20001AA517DEC1FF020EEF3F0EC
:101BC80000EE6FF0080EDBCFEBFFE806FCE2000149
:101BD800A9517DEC1FF020EEF3F000EE6FF0080E37
:101BE800DBCFEBFFE806FCE20001AB517DEC1FF018
:101BF80020EEF3F000EE6FF0080EDBCFEBFFE80607
:101C0800FCE20001AC517DEC1FF020EEF3F000EE99
:101C18006FF0080EDBCFEBFFE806FCE20001AE51E7
:101C28007DEC1FF020EEF3F000EE6FF0080EDBCF36
:101C3800EBFFE806FCE20001AD517DEC1FF0000E61
:101C48000001CD6F1AD020EEF3F000EE6FF0080E11
:101C5800DBCFEBFFE806FCE2CD51010D080EF326C1
:101C6800000EF422A70EF324D96E000EF420DA6ECB
:101C7800DF507DEC1FF00001CD2BAB51CD5DD8A01E
:101C8800E2D7000ECE6F1AD020EEF3F000EE6FF020
:101C9800080EDBCFEBFFE806FCE2CE51010D0E0E7D
:101CA800F326000EF422A70EF324D96E000EF420BA
:101CB800DA6EDF507DEC1FF00001CE2BAC51CE5D0B
:101CC800D8A0E2D7000ECF6F1AD020EEF3F000EEC6
:101CD8006FF0080EDBCFEBFFE806FCE2CF51010DF9
:101CE800120EF326000EF422A70EF324D96E000E6E
:101CF800F420DA6EDF507DEC1FF00001CF2BAB51E2
:101D0800CF5DD8A0E2D7000ED06F1AD020EEF3F046
:101D180000EE6FF0080EDBCFEBFFE806FCE2D051D7
:101D2800010D180EF326000EF422A70EF324D96E27
:101D3800000EF420DA6EDF507DEC1FF00001D02B8E
:101D4800AC51D05DD8A0E2D720EEE1F000EE72F001
:101D5800080EDBCFEBFFE806FCE247EC25F01200AB
:101D6800FC0ED316D3508F0B6009D36ED288F29E27
:101D7800F28AF0889F9A9D8AF28CD58ED58CD59A56
:101D8800D596D550F80B0509D56ECD80BD50F00B12
:101D98000B09BD6E1F0EBF6E400EBE6E9D84F28C89
:101DA800939C55EC26F014EC26F0680E01018A6F1E
:101DB800E40EE82EFED78A2FFCD700F0FC0E0001B7
:101DC800986F7F0E996F34EC22F0D0B615D0A30E21
:101DD8000001986F7C0E996F34EC22F0D60E00014A
:101DE800986F7C0E996F34EC22F0A30E0001986F67
:101DF8007C0E996F34EC22F0050E0001986F7E0E70
:101E0800996F34EC22F0520E0001986F7F0E996F93
:101E180034EC22F0460E0001986F7E0E996F34EC78
:101E280022F0920E0001986F7F0E996F34EC22F029
:101E3800DB0E0001986F7F0E996F34EC22F066EC90
:101E480020F07AC0E5F27BC0E6F27CC0E7F202013E
:101E5800E651E711D8B408D0E5C29AF0E6C29BF083
:101E6800E7C29CF065EC16F0D9EC22F06EC0E5F202
:101E78006FC0E6F270C0E7F20201E651E711D8A49C
:101E88000FD0A7EC25F060C098F061C099F034EC51
:101E980022F0460E0001986F7F0E996F34EC22F005
:101EA8001D0E0001986F7E0E996F34EC22F0F3EC52
:101EB8001FF0E9CFD9FFEACFDAFF00EE7AF0050E7E
:101EC800DBCFEBFFE806FCE2A5EC18F07AC098F04F
:101ED8007BC099F034EC22F0DB0E0001986F7F0E86
:101EE800996F34EC22F0A30E0001986F7C0E996F65
:101EF80034EC22F078EC21F0000E00016E6F000E39
:101F08006FEC1DF0000E00016E6F000E6FEC1DF0FF
:101F1800150E01018B6F4B0E8A6FBE0EE82EFED791
:101F28008A2FFCD78B2FFAD700F0010E00016E6FB5
:101F3800000E6FEC1DF0010E00016E6F000E6FECCD
:101F48001DF0000E0201DF6F000EE06F000EE16F62
:101F5800000EE26F0F015C9B938AC00E0201E86FCE
:101F6800A80EE96F000EEA6F040EEB6FC00EEC6F5F
:101F7800A80EED6F000EEE6F050EEF6FF28EF28C6D
:101F8800F3EC1FF0050EE926000EEA22EF500101DE
:101F98008A6F8A5100017A6F7B6B5DEC26F0040032
:101FA800000E0101866F030E876F37EC11F023EEE8
:101FB80000F000EE9AF00E0EDBCFEBFFE806FCE235
:101FC80084EC1CF003010051D8B409D08AEC26F047
:101FD80001018A6F8A510201E36FE46B05D0030E99
:101FE8000201E46FE80EE36FE3C235F0E4C236F0B5
:101FF800000E36BEFF0E376E386E0101F351D8B4AD
:10200800CED7000EF36FEB0E0001986F7D0E996F1F
:1020180034EC22F0010E0301156FC1D777C0D9FF48
:1020280078C0DAFFDECF72F0DDCF73F0000E23EC5C
:102038001DF077C0D9FF78C0DAFFDECF72F0DDCFB0
:1020480073F0010E23EC1DF00001916F91390F0B15
:102058000F0B926F91510F0B936F77C0D9FF78C018
:10206800DAFFDECF72F0DDCF73F0010E23EC1DF046
:102078000001916F91511F0B946F9145E846030B36
:10208800030B956F77C0D9FF78C0DAFFDECF72F007
:10209800DDCF73F0010E23EC1DF00001976F966BF6
:1020A80077C0D9FF78C0DAFFDECF72F0DDCF73F0EA
:1020B800010E23EC1DF000018E6F8E51961377C030
:1020C800D9FF78C0DAFFDECF72F0DDCF73F0010EF2
:1020D80023EC1DF00001996F986B77C0D9FF78C089
:1020E800DAFFDECF72F0DDCF73F0010E23EC1DF0C6
:1020F80000018E6F8E51981377C0D9FF78C0DAFF30
:10210800DECF72F0DDCF73F0010E23EC1DF000017D
:10211800916F9145E846030B030B9A6F91511F0B82
:102128009C6F9B6B77C0D9FF78C0DAFFDECF72F067
:10213800DDCF73F0010E23EC1DF000018E6F8E5180
:102148009B1377C0D9FF78C0DAFFDECF72F0DDCFFE
:1021580073F0010E23EC1DF000019D6F77C0D9FFCD
:1021680078C0DAFFDECF72F0DDCF73F0010E23EC1A
:102178001DF000019E6F77C0D9FF78C0DAFFDECF6F
:1021880072F0DDCF73F0010E23EC1DF00001A06F9B
:102198009F6B77C0D9FF78C0DAFFDECF72F0DDCF52
:1021A80073F0010E23EC1DF000018E6F8E519F130A
:1021B800000E8F6F030E8F6501D01DD077C0D9FF39
:1021C80078C0DAFFDECF72F0DDCF73F0010E23ECBA
:1021D8001DF000018E6F8F51010D0F0EF326000EBA
:1021E800F422920EF324D96E000EF420DA6E8EC01B
:1021F800DFFF8F2BDFD7000E906F030E906501D0A5
:102208001DD077C0D9FF78C0DAFFDECF72F0DDCFFE
:1022180073F0010E23EC1DF000018E6F9051010D3B
:10222800130EF326000EF422920EF324D96E000E3C
:10223800F420DA6E8EC0DFFF902BDFD777C0D9FF8E
:1022480078C0DAFFDECF72F0DDCF73F0020E23EC38
:102258001DF020EE92F000EE77F0160EDBCFEBFFCC
:10226800E806FCE21200FCEC16F0010120EE12F088
:102278008651D9268751DA22000178C0DEFF79C05D
:10228800DDFF010120EE12F08651D9268751DA22AE
:10229800DFA818D04CEC26F00009D8B413D086C1BA
:1022A80078F187C179F13FEC03F0010120EE0FF0DE
:1022B8008651D9268751DA2278C1DEFF79C1DEFF3F
:1022C8007AC1DEFF010120EE14F08651D92687512C
:1022D800DA22DF50D8B48AD020EE38F08651D926D9
:1022E8008751DA2200EE60F0410EDBCFEBFFE80603
:1022F800FCE2F8EC25F0010120EE0FF08651D9261A
:102308008751DA2260C0DEFF61C0DEFF62C0DEFFF7
:1023180020EE10F08651D9268751DA2220EE0FF0F0
:102328008651D9268751DA22030EDE18D8A43AD06E
:1023380020EE10F08651D9268751DA22920EDE1847
:1023480031E1DE04D8A42ED0940E0001986F7E0EE1
:10235800996F34EC22F0010120EE4BF08651D9261A
:102368008751DA22DECF67F0DECF68F0DECF69F082
:10237800DECF6AF055EC12F067C098F068C099F0AB
:1023880034EC22F0040E0001986F7D0E996F34EC46
:1023980022F0010120EE14F08651D9268751DA2265
:1023A800000EDF6E20EE0FF08651D9268751DA2213
:1023B800030EDE18D8A41AD020EE10F08651D926C4
:1023C8008751DA22DE50DE10D8A410D0B90E0001F1
:1023D800986F7E0E996F34EC22F0010120EE14F014
:1023E8008651D9268751DA22000EDF6E20EE12F0D0
:1023F8008651D9268751DA22DFA629D086C180F0F6
:1024080087C181F0B6EC1DF086C1D9FF87C1DAFF1C
:10241800DE04D8A40DD0000E00016E6F000E6FEC24
:102428001DF0020E00016E6F010E6FEC1DF00CD056
:10243800010E00016E6F000E6FEC1DF0010E000121
:102448006E6F010E6FEC1DF00B0E6BEC26F00101A8
:1024580020EE15F08651D9268751DA22DF50D8B4FC
:102468001200D4C14BF1D5C14CF1D6C14DF1D7C141
:102478004EF1EAEC25F04B0ED96E010EDA6E010E24
:10248800D926000EDA22DE50DE10D8A4120001018F
:1024980020EE15F08651D9268751DA22000EDF6E1C
:1024A8001200000E00017B6F000E7C6F030E7C652E
:1024B80001D0DFD07C51010D770EF324D96E000EC8
:1024C800F420DA6E7C51010D670EF324E16E000EE4
:1024D800F420E26EE7506B6F6B51606F616B000E1A
:1024E800636F640E626F5FEC22F000016051DF6E73
:1024F8007C51010D730EF324D96E000EF420DA6EB0
:102508007C51010D770EF324E16E000EF420E26E8B
:10251800E7506B6F6B51640DF3CF6CF0F4CF6DF037
:102528006C1F6D1F6C4B6D2B7C51010D670EF324D6
:10253800E16E000EF420E26EE7506E6F6E516C256E
:10254800606F000E6D21616F000E636F0A0E626F7F
:102558005FEC22F000016051DF6E7C51010D6F0EBF
:10256800F324D96E000EF420DA6E7C51010D670E4B
:10257800F324E16E000EF420E26EE7506B6F6B51AE
:10258800606F616B000E636F0A0E626F6CEC23F074
:1025980000016051DF6E7C51010D770EF324D96E76
:1025A800000EF420DA6EDF50D8B414D07B51010D40
:1025B800CF0EF324D96E020EF420DA6E7C51010D91
:1025C800770EF324E16E000EF420E26EE750300F30
:1025D800DF6E7B2B7C51010D730EF324D96E000E38
:1025E800F420DA6EDF50D8A40BD07C51010D770EA1
:1025F800F324D96E000EF420DA6EDF50D8B414D06C
:102608007B51010DCF0EF324D96E020EF420DA6E41
:102618007C51010D730EF324E16E000EF420E26E7E
:10262800E750300FDF6E7B2B7B51010DCF0EF3246B
:10263800D96E020EF420DA6E7C51010D6F0EF32470
:10264800E16E000EF420E26EE750300FDF6E7B2B58
:10265800030E7C19D8B40BD07B51010DCF0EF32497
:10266800D96E020EF420DA6E2E0EDF6E7B2B7C2BD9
:102678001DD77B51010DCF0EF324D96E020EF42025
:10268800DA6E000EDF6ECF0E676F020E686F1200F3
:10269800000120EE0EF0B551D926B651DA22DE50EF
:1026A80004E1080EDE18D8B407D0B5C072F0B6C081
:1026B80073F0D0EC23F01200000120EE10F0B551B9
:1026C800D926B651DA2210EEB9F0080EDBCFE3FFB7
:1026D800E806FCE220EE10F0B551D926B651DA2210
:1026E800DECFB7F0DDCFB8F0160EB725B96F000E04
:1026F800B821BA6FB90E776F000E786F12EC10F030
:1027080020EEC2F0160EEBCFDBFFE806FCE2CE0EA1
:102718000001986F7F0E996F34EC22F0D1C067F0FA
:10272800D2C068F0D3C069F0D4C06AF055EC12F09A
:1027380067C098F068C099F034EC22F0C60E00012A
:10274800986F7F0E996F34EC22F0D5C067F0D6C031
:1027580068F0D7C069F0D8C06AF055EC12F067C0CD
:1027680098F068C099F034EC22F0F60E0001986FEA
:102778007F0E996F34EC22F00001CE5126EC23F045
:1027880060C098F061C099F034EC22F0F60E0001B8
:10279800986F7F0E996F34EC22F0C6C079F0C7C0ED
:1027A8007AF000017B6B7C6B76EC00F079C098F0D6
:1027B8007AC099F034EC22F0F60E0001986F7F0E83
:1027C800996F34EC22F00001C251796F7A6B7B6B00
:1027D8007C6B76EC00F079C098F07AC099F034EC14
:1027E80022F0450E0001986F7E0E996F34EC22F0AE
:1027F8000001C351796F7A6B7B6B7C6B76EC00F0D0
:1028080079C098F07AC099F034EC22F0FA0E000101
:10281800986F7F0E996F34EC22F0C20E00019A6F08
:10282800000E9B6F0FEC1BF00001D8B006D0480ECD
:10283800986F7E0E996F34EC22F0B5C072F0B6C076
:1028480073F0D0EC23F01200000120EE0EF0FC51E2
:10285800D926FD51DA22060EDE1804E1080EDE182C
:10286800D8B407D0FCC072F0FDC073F0D0EC23F0F0
:102878001200FCC077F0FDC078F03BEC08F021EEC8
:1028880058F01F0EEBCFDBFFE806FCE201017651A2
:102898007711D8B40ED0FCC072F0FDC073F0D0EC44
:1028A80023F0070E0001986F7D0E996F34EC22F02B
:1028B8001200CE0E0001986F7F0E996F34EC22F053
:1028C80021EE60F000EE7AF0050EDBCFEBFFE806B4
:1028D800FCE2A5EC18F07AC098F07BC099F034ECD3
:1028E80022F0450E0001986F7E0E996F34EC22F0AD
:1028F80066C167F067C168F068C169F069C16AF0CC
:1029080055EC12F067C098F068C099F034EC22F0EA
:10291800CB0E0001986F7F0E996F34EC22F021EEF8
:102928006AF000EE7AF0050EDBCFEBFFE806FCE27A
:10293800A5EC18F07AC098F07BC099F034EC22F03E
:10294800450E0001986F7E0E996F34EC22F070C12D
:1029580067F071C168F072C169F073C16AF055EC33
:1029680012F067C098F068C099F034EC22F0FA0EC3
:102978000001986F7F0E996F34EC22F0010174A367
:1029880007D0750E0001986F7F0E996F34EC22F016
:10299800010174A107D00D0E0001986F7F0E996F89
:1029A80034EC22F021EE58F001EE00F01F0EDBCFE0
:1029B800EBFFE806FCE2FFEC14F021EE60F000EE1D
:1029C80064F0050EDBCFEBFFE806FCE266C16AF0B7
:1029D80067C16BF068C16CF069C16DF03AEC26F024
:1029E80060C06EF061C06FF062C070F063C071F0DB
:1029F80024EC1AF01200010106050711D8A41200F0
:102A080043EC26F060C034F161C035F162C036F1A4
:102A180063C037F1180E0001606F010E616F340E4C
:102A2800626F010E636FAFEC23F00001D8A01200B3
:102A3800F3EC1FF021EE20F0050EEBCFDBFFE806EC
:102A4800FCE221EE08F011EE26F0050EDBCFE3FFE5
:102A5800E806FCE243EC26F060C02CF161C02DF1E1
:102A680062C02EF163C02FF10EC130F10FC131F1F8
:102A780010C132F111C133F1060E01013C6F040E91
:102A88003D6F000E396F010E386F080E3B6F000E58
:102A98003A6F000E3F6F020E3E6F2CC146F12DC1FA
:102AA80047F12EC148F12FC149F121EE20F011EE76
:102AB80040F0050EDBCFE3FFE806FCE230C150F141
:102AC80031C151F132C152F133C153F121EE26F037
:102AD80011EE4AF0050EDBCFE3FFE806FCE221EE3B
:102AE80038F000EEA7F01F0EDBCFEBFFE806FCE2A4
:102AF8004CEC0DF0ED0E0001986F7E0E996F34ECE2
:102B080022F021EE4AF000EE7AF0050EDBCFEBFF63
:102B1800E806FCE2A5EC18F07AC098F07BC099F0C2
:102B280034EC22F0450E0001986F7E0E996F34EC5C
:102B380022F050C167F051C168F052C169F053C129
:102B48006AF055EC12F067C098F068C099F034EC60
:102B580022F0FA0E0001986F7F0E996F34EC22F084
:102B68001200030E0101486FA1D0440E0001606FEE
:102B7800010E616FDBEC25F03AEC26F060C03CF109
:102B880061C03DF162C03EF163C03FF109EC22F043
:102B98006CC06EF06DC06FF00B0E0001716FB80E57
:102BA800706F2DEC20F000016EC040F16FC041F154
:102BB8000101000E41BFFF0E426F436F010ED86F37
:102BC800010E4A6F910E496F12003CC134F13DC1AC
:102BD80035F13EC136F13FC137F1341F351F361F7D
:102BE800371F342B000E3523362337233AEC26F0D3
:102BF80001013451000160250101386F3551000190
:102C080061210101396F36510001622101013A6FDA
:102C180037510001632101013B6F4051385D41513B
:102C2800395942513A5943513B59D8A033D09B0E98
:102C38000001986F7F0E996F34EC22F040C179F053
:102C480041C17AF042C17BF043C17CF076EC00F0E0
:102C580079C098F07AC099F034EC22F0B20E0001F5
:102C6800986F7F0E996F34EC22F044C100F145C192
:102C780001F146C102F147C103F1FCC004F1FDC0F6
:102C880005F1FEC006F1FFC007F1D2EC1BF0020E01
:102C98000101D86F010E4A6F910E496F1200000EA4
:102CA800D86F000E4A6F000E496F1200D851000A03
:102CB800D8B45BD7010AD8B488D7030AD8A41200BD
:102CC800EED7A30E0001986F7F0E996F34EC22F0B7
:102CD80028D0DC0E0001986F7E0E996F34EC22F03C
:102CE80050D0750E0001986F7D0E996F34EC22F06C
:102CF80048D0810E0001986F7E0E996F34EC22F057
:102D080040D02B0E0001986F7F0E996F34EC22F0A3
:102D180038D01C0E0001986F7F0E996F34EC22F0AA
:102D280030D000019A51000AD8B4D3D7010AD8B4D8
:102D3800D8D7030AD8B4DDD7010AD8B4E2D7070A2E
:102D4800D8B4E7D71ED02E0E986F7D0E996F34EC4D
:102D580022F030D06C0E0001986F7C0E996F34EC25
:102D680022F028D0530E0001986F7D0E996F34EC35
:102D780022F0930E0001986F7D0E996F34EC22F0CB
:102D880019D020EE9BF0DECF9DF0DDCF9EF0000144
:102D98009E51010AD8A4EDD79D512D0AD8B4DAD78F
:102DA800030AD8B4D0D7A10AD8B4E3D71D0AD8B437
:102DB800D9D7DFD7890E0001986F7F0E996F34EC51
:102DC80022F09BC079F09CC07AF000017B6B7C6B91
:102DD80076EC00F079C098F07AC099F034EC22F0E3
:102DE800DA0E0001986F7F0E996F34EC22F0120012
:102DF80000EC23F06EC07DF06FC07EF000017EAD68
:102E080003D07A6B7A2B02D000017A6B7B517A1946
:102E1800FE0B7A197B6F7EAB03D07A6B7A2B02D0CC
:102E280000017A6B7A477B517A19FD0B7A197B6F0F
:102E38007EA903D07A6B7A2B02D000017A6B7A478D
:102E48007A477B517A19FB0B7A197B6F7EA703D0DF
:102E58007A6B7A2B02D000017A6B7A477A477A47E5
:102E68007B517A19F70B7A197B6F7DAD03D07A6B9A
:102E78007A2B02D000017A6B7A3B7B517A19EF0BDF
:102E88007A197B6F7DAB03D07A6B7A2B02D0000165
:102E98007A6B7A3B7A477B517A19DF0B7A197B6F09
:102EA8007DA703D07A6B7A2B02D000017A6B7A3B2C
:102EB8007A477A477B517A19BF0B7A197B6F7DA5C0
:102EC80003D07A6B7A2B02D000017A6B7A337A338B
:102ED8007B517A197F0B7A197B6F7DA303D07A6BAC
:102EE8007A2B02D000017A6B7C517A19FE0B7A1981
:102EF8007C6F7DA103D07A6B7A2B02D000017A6BAC
:102F08007A477C517A19FD0B7A197C6F7BC078F06F
:102F18007CC079F012000001766F000176511F0B1A
:102F2800776F010E786F000E796F000E7A6F000EC2
:102F38007B6F000E7C6F770E6A6F000E6B6F540EFE
:102F480062EC24F0780E00016A6F000E6B6F550E6C
:102F580062EC24F07F0E00016A6F000E6B6F520E58
:102F68007DEC24F000017F817F0E6A6F000E6B6F8D
:102F7800520E62EC24F0450EE82EFED700F07F0ECC
:102F880000016A6F000E6B6F6A0E7DEC24F0010E73
:102F980000017927000E7A237B237C237FA108D0A8
:102FA8007C517B1105E179290F0E7A59D8A0E7D712
:102FB8007C517B1140E179290F0E7A59D8B0120063
:102FC8007F0E6A6F000E6B6F520E7DEC24F00001CD
:102FD8007F917F0E6A6F000E6B6F520E62EC24F0C9
:102FE8007D0E00016A6F000E6B6F680E7DEC24F099
:102FF8007E0E00016A6F000E6B6F690E7DEC24F087
:10300800000E0001706FFF0E716F7E51736F726B4F
:1030180070517217715173177D51746F756B7251BE
:103028007413735175136EC0D9FF6FC0DAFF74C083
:10303800DEFF75C0DDFF1200000E0001726F4FC089
:1030480073F050C074F042C075F043C076F0010EC2
:10305800776F000E796F000E786F050E72615FD082
:10306800730E6A6F000E6B6F160E62EC24F0740E0E
:1030780000016A6F000E6B6F170E62EC24F0750E7C
:1030880000016A6F000E6B6F160E7DEC24F0760E51
:1030980000016A6F000E6B6F170E7DEC24F00001C3
:1030A80073517519D8A438D074517619D8A434D06E
:1030B800CA0E2EEC26F0420EE82EFED700D0750E72
:1030C80000016A6F000E6B6F160E7DEC24F0760E11
:1030D80000016A6F000E6B6F170E7DEC24F0000183
:1030E8007551D8A40DD07651D8A40AD0030E00018A
:1030F800716FA70EE82EFED7712FFCD700D005D030
:10310800010E0001796F2E0E786F77C06EF078C0CF
:103118006FF079C070F012000001722B0BD0010E15
:10312800796F2E0E786F77C06EF078C06FF079C027
:1031380070F0120077C06EF078C06FF079C070F050
:10314800120022EEB1F010EE81F0110EDBCFE3FF9A
:10315800E806FCE2000E0001976F000E966F000E65
:10316800956F96BF06D096516BE1060E955DD8B067
:1031780067D07A0E9525D96E000E9621DA6EDF504B
:10318800806F80390F0B0F0B936F7A0E9525D96ED0
:10319800000E9621DA6EDF500F0B946F300E9327D6
:1031A800300E9427390E93650CD09751010D810E7E
:1031B800F324D96E000EF420DA6E9351070FDF6EF8
:1031C8000AD09751010D810EF324D96E000EF42018
:1031D800DA6E93C0DFFF972B390E94650CD09751A8
:1031E800010D810EF324D96E000EF420DA6E94518D
:1031F800070FDF6E0AD09751010D810EF324D96EA7
:10320800000EF420DA6E94C0DFFF972B96BF06D02D
:1032180096510FE1050E955DD8B00BD09751010D71
:10322800810EF324D96E000EF420DA6E3A0EDF6EAA
:10323800972B954B962B96BF9CD7965101E195D726
:10324800810E7A6F000E7B6F120000017B5172199C
:1032580004E17C517319D8B429D07D51741904E163
:103268007E517519D8B422D072517D1904E1735179
:103278007E19D8B41BD07B51741904E17C5175199F
:10328800D8B414D07405300E7559D8B00FD0720563
:10329800300E7359D8B00AD07D05300E7E59D8B09B
:1032A80005D07B05300E7C59D8A002D0010E120043
:1032B8007451725D75517359D8B036D07D517B5DAC
:1032C8007E517C59D8B025D07B51725D7C517359A1
:1032D800D8B00AD074517B5D75517C59D8B002D0F2
:1032E800010E1200000E120020EE7BF000EE60F0DE
:1032F800080EDBCFEBFFE806FCE220EE72F000EEF2
:1033080069F0080EDBCFEBFFE806FCE22BEC1CF0C3
:103318001200000172517D5D73517E59D8B002D000
:10332800000E1200010E120020EE7BF000EE60F09D
:10333800080EDBCFEBFFE806FCE220EE72F000EEB1
:1033480069F0080EDBCFEBFFE806FCE22BEC1CF083
:103358001200000E0001696F6451631103E16205F8
:10336800D8A02FD06951010DD90EF324D96E010EC2
:10337800F420DA6E61C065F062C066F063C067F081
:1033880064C068F00D0E05D0D89068336733663393
:103398006533E82EF9D765510F0BCAEC25F0DF6EBF
:1033A8000001692B6951010DD90EF324D96E010E64
:1033B800F420DA6E62510F0BCAEC25F0DF6E0001C3
:1033C800692B6951010DD90EF324D96E010EF42031
:1033D800DA6E61C065F062C066F063C067F064C011
:1033E80068F0050E05D0D8906833673366336533C7
:1033F800E82EF9D765510F0BCAEC25F0DF6E0001F6
:10340800692B6951010DD90EF324D96E010EF420F0
:10341800DA6E61510F0BCAEC25F0DF6E0001692BE3
:103428006951010DD90EF324D96E010EF420DA6E1C
:10343800000EDF6E692BD90E616F010E626F1200EC
:10344800000E0001766F000E776F000E786F000E89
:10345800796F000E7A6F000E7B6F070E7B6501D0C7
:103468002ED07B510E0D0A0EF326000EF4220F0EFD
:10347800F324D96E020EF420DA6EDE50765DDE504B
:103488007759DE507859DE507959D8B016D07B512B
:103498000E0D0A0EF326000EF4220F0EF324D96E39
:1034A800020EF420DA6EDECF76F0DECF77F0DECFD4
:1034B80078F0DECF79F07BC07AF07B2BCED77A51CB
:1034C8000E0D0F0EF324D96E020EF420DA6E6AC0C8
:1034D800DEFF6BC0DEFF6CC0DEFF6DC0DEFF20EEDE
:1034E80064F07A510E0D040EF326000EF4220F0E2E
:1034F800F324E16E020EF420E26E050EDBCFE3FF4B
:10350800E806FCE27A510E0D0A0EF326000EF422AC
:103518000F0EF324D96E020EF420DA6E6EC0DEFFB1
:103528006FC0DEFF70C0DEFF71C0DEFF1200020E4A
:103538000001A46F000EA66F000EA56FA2C0D9FFF0
:10354800A3C0DAFFDECF84F0DDCF85F0D0EC05F044
:10355800000120EE10F0A251D926A351DA22080E5C
:10356800EBCFDBFFE806FCE220EE17F0A251D926EC
:10357800A351DA22DF50D8B407D0000EA46F000E92
:10358800A66F650EA56F120020EE16F0A251D9267F
:10359800A351DA22DF50D8A407D0000EA46F000E82
:1035A800A66FC70EA56F120020EE08F0A251D9260B
:1035B800A351DA2200EE6FF0050EDBCFEBFFE80631
:1035C800FCE220EE10F0A251D926A351DA2200EE37
:1035D80075F0080EDBCFEBFFE806FCE282EC1EF08C
:1035E800000120EE0EF0A251D926A351DA22DECF37
:1035F8006FF0DDCF70F020EE10F0A251D926A35164
:10360800DA2200EE71F0080EDBCFEBFFE806FCE2F1
:10361800B2EC22F012009AC0D9FF9BC0DAFF10EE7C
:103628009EF0160EDBCFE3FFE806FCE2000E000179
:10363800AC6F000EAB6F9E0E606F000E616FC6EC34
:103648000BF0000120EE0DF09A51D9269B51DA2299
:10365800DE50AB1906E1DE50AC19D8A402D0D880F0
:1036680012006A0E986F7F0E996F34EC22F0ABC08F
:1036780061F0ACC062F00001636B646BADEC19F0F3
:1036880061C098F062C099F034EC22F0AB0E0001F2
:10369800986F7F0E996F34EC22F0000120EE0DF048
:1036A8009A51D9269B51DA22DECF9CF0DDCF9DF0CE
:1036B8009CC061F09DC062F0636B646BADEC19F067
:1036C80061C098F062C099F034EC22F0FA0E000163
:1036D800986F7F0E996F34EC22F0D890120047C093
:1036E80011F0010E126E112A02D0D8901236112E46
:1036F800FCD71250FF0A8216000E806E020E476039
:1037080007D0010E4724136E146A000E142204D049
:10371800000E146E000E136E13C047F0E80E0F5C17
:10372800030E1058D8B01200000E156E020E156464
:1037380001D013D01550010D3D0EF324D96E000EA3
:10374800F420DA6E0FC008F010C009F015C00AF0B6
:1037580001EC1FF0DF6E152AE9D747C011F0010E02
:10376800126E112A02D0D8901236112EFCD71250A0
:1037780082124750010D3D0EF324D96E000EF4203D
:10378800DA6EDF50116E1150010DC30EF324D96E9D
:10379800020EF420DA6EDF50806E1200F3EC1FF098
:1037A80021EE08F0050EEBCFDBFFE806FCE243EC68
:1037B80026F060C000F161C001F162C002F163C08F
:1037C80003F10E0E0001606F010E616F82EC25F0AF
:1037D800060E0101186F040E196F000E156F010E09
:1037E800146F080E176F000E166F000E1B6F010E78
:1037F8001A6F00C122F101C123F102C124F103C1F2
:1038080025F121EE08F011EE1CF0050EDBCFE3FFE9
:10381800E806FCE204C12CF105C12DF106C12EF128
:1038280007C12FF121EE0EF011EE26F0050EDBCFC9
:10383800E3FFE806FCE221EE14F000EEA7F01F0E0D
:10384800DBCFEBFFE806FCE24CEC0DF012000001C8
:103858006951601904E16A516119D8B429D06B51D2
:10386800621904E16C516319D8B422D060516B1904
:1038780004E161516C19D8B41BD06951621904E193
:103888006A516319D8B414D06205300E6359D8B0A0
:103898000FD06005300E6159D8B00AD06B05300ED4
:1038A8006C59D8B005D06905300E6A59D8A002D035
:1038B800010E12006251605D63516159D8B0120067
:1038C8006B51695D6C516A59D8B010D06951605D0F
:1038D8006A516159D8B012006251695D63516A59E1
:1038E800D8B002D0010E1200000E120060516B5DBC
:1038F80061516C59D8B002D0000E1200010E1200AE
:103908000201005100019A19D8B441D09A51D8A4A3
:1039180007D0390E986F7F0E996F34EC22F00AD0D9
:1039280000019A05D8A406D06E0E986F7E0E996F86
:1039380034EC22F000019A05D8A429D09B51D8A4D0
:1039480007D05B0E986F7E0E996F34EC22F00AD088
:1039580000019B05D8A406D0340E986F7E0E996F8F
:1039680034EC22F000019C51D8A407D0B10E986F16
:103978007D0E996F34EC22F00AD000019C05D8A482
:1039880006D0CE0E986F7D0E996F34EC22F020EEA3
:103998009AF012EE00F00E0EDBCFE3FFE806FCE231
:1039A80012001F0E036E000E046E000E056E000E50
:1039B800066E81BA11D00350315C0450325805505C
:1039C800335806503458D8B00FD0010E3126000EA7
:1039D80032223322342208D0000E316E000E326EAD
:1039E800000E336E000E346E0350315C04503258B2
:1039F8000550335806503458D8A002D0010E01D0D3
:103A0800000E486E4850D8B411D04950D8A40ED0F2
:103A180003C031F004C032F005C033F006C034F002
:103A280001C0D9FF02C0DAFF010E05D001C0D9FFDD
:103A380002C0DAFF000EDF6E48C049F01200000134
:103A4800746F3CD072C06AF073C06BF00CEC24F059
:103A58002C0E0001756F8198750E606F000E616FF6
:103A6800ABEC21F0000E1200760E0001606F000E24
:103A7800616F0FEC21F0000176511200818864EC2F
:103A880026F0300E000163196211D8A407D0550E34
:103A98006F6FFE0E6E6F09EC25F00BD064EC26F00C
:103AA800FE0E000162256E6FFF0E63216F6F09EC39
:103AB80025F0CC0E2EEC26F0000E120000017451F9
:103AC800000AD8B4BFD7010AD8B4CED7030AD8B4ED
:103AD800D5D7000E120000016F6F700E00016A6FDB
:103AE800000E6B6F750E7DEC24F000016F05D8B4E5
:103AF8000BD015D0F00E701770812CD0F00E18D0A6
:103B0800F00E7017060E19D06E51000AD8B4F6D709
:103B1800010AD8B4EFD7030AD8B4F2D7EBD76F515C
:103B2800D8B40DD017D00F0E7017708913D00F0EA0
:103B3800701710D00F0E7017600E70130BD06E51E7
:103B4800000AD8B4F4D7010AD8B4EDD7030AD8B418
:103B5800F1D7E9D7700E6A6F000E6B6F750E62ECC5
:103B680024F01200820E00016A6F000E6B6F1B0EAC
:103B78007DEC24F0000182A106D080C0D9FF81C06D
:103B8800DAFF010E05D080C0D9FF81C0DAFF000E30
:103B9800DF6E830E6E6F000E6F6F1F0E8FEC17F0C7
:103BA800000183A708D020EE01F08051D926815169
:103BB800DA22010E07D020EE01F08051D92681517A
:103BC800DA22000EDF6E83A909D020EE02F08051C0
:103BD800D9268151DA22010EDF6E120020EE02F0A2
:103BE8008051D9268151DA22000EDF6E12000001C1
:103BF800706F080E000170611ED0710E6A6F000EA2
:103C08006B6F1C0E7DEC24F070C06EF0010E00018D
:103C18006F6F6E2B02D0D8906F376E2FFCD70001D4
:103C28006F51FF0A7117710E6A6F000E6B6F1C0ED1
:103C380062EC24F01200080E0001705F710E6A6FCA
:103C4800000E6B6F1D0E7DEC24F070C06EF0010E3F
:103C580000016F6F6E2B02D0D8906F376E2FFCD794
:103C680000016F51FF0A7117710E6A6F000E6B6FBA
:103C78001D0E62EC24F01200000E0001746F000E9D
:103C8800756F000E766F000E776F7051711172119B
:103C98007311D8B42AD0010E786F06D0D890703737
:103CA800713772377337782B73AFF8D7D89074376A
:103CB80075377637773770516C5D71516D59725120
:103CC8006E5973516F59D8A009D070516C5F7151FA
:103CD8006D5B72516E5B73516F5B7481D8907333F7
:103CE800723371337033782FE1D774C06CF075C0BC
:103CF8006DF076C06EF077C06FF0120075C06AF094
:103D080076C06BF0EEEC23F0000E0001866F050E16
:103D1800866501D014D08651010D6F0EF324D96E3B
:103D2800000EF420DA6E8651010D7E0EF324E16E4A
:103D3800000EF420E26EDFCFE7FF862BE8D72A0ECD
:103D4800846F8198840E606F000E616FABEC21F078
:103D5800000E0001856F050E856501D00DD08551D7
:103D6800010D7E0EF324606F000EF420616FABEC42
:103D780021F00001852BEFD781881200900EF66E96
:103D8800490EF76E000EF86E02EEB1F010EE2EF04E
:103D98000900F5CFEEFFE550E150FAE10E0EF66EA0
:103DA8004D0EF76E000EF86E00EE4BF010EE06F0BA
:103DB8000900F5CFEEFFE550E150FAE103EE00F01F
:103DC8007A0EEE6AE806FDE102EE00F0B10EEE6A48
:103DD800E806FDE101EE8CF0680EEE6AE806FDE10A
:103DE80000EE29F0220EEE6AE806FDE151905192AC
:103DF800000EF86E0001B4EF0EF008C001F009C023
:103E080002F0000E046E640E036E89EC22F001507D
:103E18000E6E0E50640DF31EF41EF34AF42A085079
:103E2800F324016E0950F420026E000E046E0A0E8F
:103E3800036E89EC22F001500D6E0D500A0DF3CF80
:103E48000BF00E50640DF3500B24000808240C6E80
:103E580008D00C5012000D5012000E501200000E27
:103E680012000A50000AD8B4F8D7010AD8B4F3D718
:103E7800030AD8B4EED7F3D779EC26F060C075F012
:103E880061C076F075C06AF076C06BF00CEC24F077
:103E98002C0E0001776F8198770E606F000E616FAE
:103EA800ABEC21F0780E0001606F000E616F0FEC33
:103EB80021F0790E0001606F000E616F0FEC21F0A8
:103EC8008188000E00016F6FFF0E706F7951726F5D
:103ED800716B6F517117705172177851736F746BE2
:103EE80071517311606F72517411616F7EEC26F01D
:103EF800120000017C6F40504110D8A410D06FC050
:103F08006AF070C06BF0EEEC23F02A0E00017D6FB2
:103F180081987D0E606F000E616FABEC21F07C0E16
:103F28000001606F000E616FABEC21F0FF0E000125
:103F3800786FFF0E796F20EE73F0DECF7AF0DDCF69
:103F48007BF078517A2779517B2340507A190AE11E
:103F580041507B19D8A406D08188000E416E000E0E
:103F6800406E1200404A412A1200020E00017125DB
:103F78006A6F000E72216B6F0CEC24F02C0E00019E
:103F8800766F8198760E606F000E616FABEC21F052
:103F9800000E0001776F050E776501D00DD07751BF
:103FA800010DED0EF324606F010EF420616F0FEC2C
:103FB80021F00001772BEFD78188ED0E606F010E9D
:103FC800616F38EC0AF0E9CFD9FFEACFDAFF00EEEB
:103FD80071F0040EDBCFEBFFE806FCE21200740E72
:103FE80000016A6F000E6B6F640E7DEC24F0750E95
:103FF80000016A6F000E6B6F650E7DEC24F0760E83
:1040080000016A6F000E6B6F620E7DEC24F0770E74
:1040180000016A6F000E6B6F630E7DEC24F0780E62
:1040280000016A6F000E6B6F600E7DEC24F0790E54
:1040380000016A6F000E6B6F610E7DEC24F020EEBC
:1040480074F000EE6EF0050EDBCFEBFFE806FCE245
:104058001200000E0001736F6FAF06D06E6D6F1FF8
:10406800D8B06F2B010E736F71AF04D0706D711FD4
:10407800D8B0712B70517111D8B418D0010E726F6D
:1040880004D0D89070377137722B71AFFAD770514E
:104098006E5D71516F59D8A004D070516E5F715127
:1040A8006F5BD89071337033722FF1D77351D8B4D6
:1040B80004D06E6D6F1FD8B06F2B6EC06EF06FC0DE
:1040C8006FF0120006EC26F020EC18F06EC07DF0C0
:1040D8006FC07EF070C07FF0D9EC22F06EC07DF02A
:1040E8006FC07EF070C07FF0300E00016F6F000E61
:1040F8006E6F1EEC25F0300E0001616F000E606FD0
:104108007EEC26F05F0E00016F6FFE0E6E6F09ECFD
:1041180025F083EC26F05BEC25F0010E00017D6FA5
:10412800000E7F6F000E7E6F7DC07AF07EC07BF040
:104138007FC07CF01200000E00017D6F000E7C6FC6
:10414800140E6F256A6F000E70216B6F0CEC24F053
:104158002C0E00017E6F81987E0E606F000E616FDD
:10416800ABEC21F0800E0001606F000E616F0FEC68
:1041780021F07F0E0001606F000E616F0FEC21F0DF
:1041880000018051796F786B7F517A6F7B6B785122
:104198007A117C6F79517B117D6F81887CC06FF0BB
:1041A8007DC070F012000E0E00016F256A6F000EC0
:1041B80070216B6F0CEC24F02C0E0001786F819845
:1041C800780E606F000E616FABEC21F0000E0001FD
:1041D800806F050E806501D013D07F0E606F000ED2
:1041E800616F0FEC21F000018051010D790EF3246D
:1041F800D96E000EF420DA6E7FC0DFFF802BE9D77E
:10420800818820EE79F000EE6FF0050EDBCFEBFF32
:10421800E806FCE21200000E0001666F000E676FF0
:10422800000E686F000E696F000EC96EC7B015D01A
:1042380066C062F067C063F068C064F069C065F08A
:10424800662B000E6723682369236551641105E115
:1042580062290F0E6359D8A0E9D76951681105E1A1
:1042680066290F0E6759D8A004D0818806EC26F07D
:10427800120060C0D9FF61C0DAFFC9CFDFFF1200AA
:1042880000016451651166116711D8B424D0010E7C
:10429800686F06D0D8906437653766376737682BFC
:1042A80067AFF8D76451605D6551615966516259CD
:1042B80067516359D8A008D06451605F6551615B4C
:1042C8006651625B6751635BD890673366336533C9
:1042D8006433682FE7D760C060F061C061F062C0E6
:1042E80062F063C063F012007C0E0001606F000E84
:1042F800616F82EC25F0820E0001606F000E616F25
:10430800DBEC25F0000E0001866F070E866501D0F4
:10431800120020EE7CF000EE64F0050EDBCFEBFF20
:10432800E806FCE282C06AF083C06BF084C06CF0DF
:1043380085C06DF0FF0E6E6FFF0E6F6FFF0E706F12
:10434800FF0E716F24EC1AF00001862BDED7000EE9
:104358000001666F000E676F000E686F000E696FD0
:1043680060C0D9FF61C0DAFFDF50C96EC7B015D091
:1043780066C062F067C063F068C064F069C065F049
:10438800662B000E6723682369236551641105E1D4
:1043980062290F0E6359D8A0E9D76951681105E160
:1043A80066290F0E6759D8A01200818806EC26F0FE
:1043B8001200000E0001686F000E696F000E6A6F30
:1043C800000E6B6F60A108D064516827655169239E
:1043D80066516A2367516B23D8906437653766370F
:1043E8006737D8906333623361336033605161114A
:1043F80062116311D8A4E6D768C060F069C061F0A3
:104408006AC062F06BC063F012004BC060F04CC031
:1044180061F04DC062F04EC063F06D0E0001646F34
:104428004E0E656FC60E666F410E676FDDEC21F0AC
:1044380060C04BF061C04CF062C04DF063C04EF0FC
:10444800390E4B26300E4C22000E4D22000E4E2205
:10445800FF0E4D1400016C6F7F0E4E146D6F12002D
:1044680016D098C0F6FF99C0F7FFF86A070EF764F0
:1044780003D00800F55005D0F6CFE9FFF7CFEAFFE3
:10448800EF50AD6E0001984B992BACA2FED798C0A7
:10449800F6FF99C0F7FFF86A070EF76403D0080023
:1044A800F55005D0F6CFE9FFF7CFEAFFEF50000946
:1044B800D8B41200D6D7000E0001666F000E656FE3
:1044C80062516311D8B41CD0010E646F04D0D89027
:1044D80062376337642B63AFFAD7D890653766378E
:1044E8006251605D63516159D8A005D06251605F27
:1044F8006351615B6581D89063336233642FEDD774
:1045080065C060F066C061F01200000E066E000E15
:10451800056E03500410D8B41CD0010E076E04D0E9
:10452800D89003360436072A04AEFAD7D890053651
:1045380006360350015C04500258D8A005D0035039
:10454800015E0450025A0580D89004320332072EC7
:10455800EDD705C001F006C002F01200060E0001FA
:1045680071256A6F000E72216B6FEEEC23F06FC03D
:104578007AF0000170517B6F2A0E7C6F81987C0E57
:10458800606F000E616FABEC21F07B0E0001606F75
:10459800000E616FABEC21F07A0E0001606F000E27
:1045A800616FABEC21F081881200010E0001726F7F
:1045B800000E746F000E736F000E716F710E6A6FCC
:1045C800000E6B6F740E7DEC24F000017139E84227
:1045D800070B070BE806D8A404D0000E746F000E72
:1045E80003D0010E746F2D0E736F72C06EF073C01E
:1045F8006FF074C070F01200770E00016A6F000E41
:104608006B6F1D0E7DEC24F0760E00016A6F000EB4
:104618006B6F1C0E7DEC24F0000E0001706FFF0E16
:10462800716F7751736F726B705172177151731785
:104638007651746F756B725174116E6F7351751179
:104648006F6F12000001626F15D0D50E0001606F08
:104658007F0E616F1200E40E606F7F0E616F1200B3
:10466800E80E606F7F0E616F1200CB0E606F7E0EDA
:10467800616F120000016251010AD8B4E6D7070A37
:10468800D8B4E9D7170AD8B4EBD7EFD710D0D00EE3
:104698000001606F7F0E616F1200EC0E606F7F0E7D
:1046A800616F1200A70E606F7E0E616F120060C00E
:1046B80062F061C063F000016351080AD8A4F2D720
:1046C8006251000AD8B4E3D7060AD8B4E6D7EAD7C5
:1046D800000162516311D8B418D0010E646F04D080
:1046E800D89062376337642B63AFFAD76251605D45
:1046F80063516159D8A004D06251605F6351615B16
:10470800D89063336233642FF1D760C060F061C022
:1047180061F01200000E0001666F050E666501D09B
:1047280018D06651010DF3506225D96EF4506321FB
:10473800DA6E6651010DF3506025E16EF450612187
:10474800E26EDE50E618D8B402D0D8901200662B7C
:10475800E4D7D8801200000E0001666F030E66656C
:1047680001D018D06651010DF3506225D96EF4506E
:104778006321DA6E6651010DF3506025E16EF45045
:104788006121E26EDE50E618D8B402D0D89012004B
:10479800662BE4D7D880120064EC26F0300E0001B6
:1047A80063196211D8A407D05F0E6F6FFE0E6E6F8B
:1047B80009EC25F00BD064EC26F0FE0E0001622512
:1047C8006E6FFF0E63216F6F09EC25F0CC0E2EEC97
:1047D80026F012006C0E00016C6F6AC06DF06B5110
:1047E8006E6F81986C0E606F000E616FABEC21F0FC
:1047F8006D0E0001606F000E616FABEC21F06E0E64
:104808000001606F000E616FABEC21F0818812002F
:10481800640E00016C6F6AC06DF06B516E6F819809
:104828006C0E606F000E616FABEC21F06D0E000135
:10483800606F000E616FABEC21F06E0E0001606FCF
:10484800000E616FABEC21F081881200000E0001B0
:10485800606F070E606501D013D06051090D060E18
:10486800F326000EF4228C0EF324D96E010EF420E8
:10487800DA6EDF50D8A402D0000E1200602BE9D700
:10488800010E1200000E0001606F070E606501D076
:1048980013D06051090D060EF326000EF4228C0E7B
:1048A800F324D96E010EF420DA6EDF50D8B402D0AA
:1048B800000E1200602BE9D7010E120000016C6F88
:1048C800220E00016D6F81986D0E606F000E616F92
:1048D800ABEC21F06C0E0001606F000E616FABEC69
:1048E80021F06AC060F06BC061F0ABEC21F0818808
:1048F800120000016C6F200E00016D6F81986D0E23
:10490800606F000E616FABEC21F06C0E0001606F00
:10491800000E616FABEC21F06AC060F06BC061F013
:104928000FEC21F081881200000E0001626F050E65
:10493800626501D00FD06251010DF3506025D96E28
:10494800F4506121DA6EDF50D8B402D0D89012004A
:10495800622BEDD7D8801200000E0001626F030EA3
:10496800626501D00FD06251010DF3506025D96EF8
:10497800F4506121DA6EDF50D8B402D0D89012001A
:10498800622BEDD7D88012003F3F3A3F3F3A3F3F76
:104998003A3F3F3A3F3F3A3F3F003F065B4F666D25
:1049A8007D077F6F00403F3F3F2E3F3F3F2E3F3FF9
:1049B8003F2E3F3F3F006EC070F000016F51716F96
:1049C800700E6A6F000E6B6F000E62EC24F0710EB1
:1049D80000016A6F000E6B6F010E62EC24F012008A
:1049E8006EC070F000016F51716F700E6A6F000E2B
:1049F8006B6F020E62EC24F0710E00016A6F000EFC
:104A08006B6F030E62EC24F012006EC070F00001B0
:104A18006F51716F700E6A6F000E6B6F060E62EC4D
:104A280024F0710E00016A6F000E6B6F070E62ECC6
:104A380024F012006EC070F000016F51716F700E9B
:104A48006A6F000E6B6F040E62EC24F0710E0001A9
:104A58006A6F000E6B6F050E62EC24F01200000105
:104A680060516203F3CF64F0F4CF65F060516303E3
:104A7800F350652761516203F350652764C060F005
:104A880065C061F0120072C06EF073C06FF0DFECA9
:104A980024F076C06EF077C06FF0F4EC24F0D40EFA
:104AA8002EEC26F000017A5195EC25F01200000E4C
:104AB80000016E6F6E0E6A6F000E6B6F6F0E7DECED
:104AC80024F000016E8B6E0E6A6F000E6B6F6F0E16
:104AD80062EC24F01200000E0001626F050E6265A0
:104AE80001D012006251010DF3506025D96EF450C7
:104AF8006121DA6EFF0EDF6E622BF0D7000E000127
:104B0800626F050E626501D012006251010DF3500B
:104B18006025D96EF4506121DA6E000EDF6E622BCB
:104B2800F0D70001606F00016051090D060EF326F1
:104B3800000EF4228C0EF324D96E010EF420DA6EE6
:104B4800000EDF6E1200610EF66E7C0EF76E20EE20
:104B580062F00A0E0900F5CFDEFFE806FBE2620EFE
:104B68000001606F000E616F12009AC079F09BC05F
:104B78007AF09CC07BF09DC07CF076EC00F079C0A8
:104B880098F07AC099F034EC22F012000001606FBE
:104B98000A0E0001606103D06051300F1200100E40
:104BA800606103D06051370F1200000E1200000E32
:104BB8000001626F030E626501D0120060C0D9FF68
:104BC80061C0DAFF000EDF6E622BF4D7040E01011C
:104BD8004F6F4BC1FCF04CC1FDF04DC1FEF04EC112
:104BE800FFF0B5EC15F01200030E0001A26F010EE4
:104BF800A46F910EA36FA2C060F0A3C061F0A4C01F
:104C080062F01200C69AC78C93800F015C91939250
:104C18005C9393965C9793985C998188C68A1200F6
:104C2800F80E8216F80E9416000E926E000E0F0102
:104C38005B6FF80E5D1780681200000E00016E6F42
:104C48006E0E6A6F000E6B6F1A0E7DEC24F0000179
:104C58006E51120000016A6F81986A0E0001606F40
:104C6800000E616FABEC21F08188120029C060F062
:104C78002AC061F02BC062F02CC063F01200D4C1CE
:104C880060F0D5C161F0D6C162F0D7C163F01200FF
:104C980021EC26F00009D8B402D0010E1200000E53
:104CA8001200AC8AAC98AB8EAC8CAC80030EAF6EA5
:104CB80012007AC04BF07BC04CF04D6A4E6A12006D
:104CC80079EC26F060C062F061C063F01200000168
:104CD800726F00017251FBEC1DF01200010E2926C3
:104CE800000E2A222B222C22120044C060F045C05C
:104CF80061F0120060C044F061C045F01200E80E97
:104D08002EEC26F0120001000000123421EC26F0EF
:024D1800120087
:107C600000454E433432344A36303000457468653E
:107C7000726E657420636F6E74726F6C6C657220C7
:107C80006861732072657475726E656420616E2020
:107C9000756E6B6E6F776E206465766963652049DB
:107CA000442E002D2D2D2D2D2D2D2D2D2D2D2D2D19
:107CB0002D2D2D2D2D2D2D2D2D2D2D2D2D2D2D2DF4
:107CC0002D2D2D2D2D2D2D2D2D2D2D2D2D2D2D2DE4
:107CD0002D2D2D0A0D00072A2A2A204352495449E6
:107CE00043414C204552524F523A20574154434849
:107CF000444F472043415553454420524553455432
:107D0000202A2A2A0A0D005B496E76616C6964207C
:107D1000415250204D657373616765207761732010
:107D20006469736361726465642E5D0D0A00457455
:107D30006865726E657420636F6E74726F6C6C65CB
:107D40007220697320756E726573706F6E736976D9
:107D5000652E004950206164647265737320636FFF
:107D6000756C64206E6F74206265207265736F6C31
:107D70007665642E002045544845524E45542043B4
:107D80004F4E54524F4C4C4552204D4F44554C454C
:107D90003A2000416E20756E6B6E6F776E206572B3
:107DA000726F7220686173206F6363757265642EF1
:107DB00000636F6E6E656374696F6E20697320482F
:107DC000616C66204475706C65782E0A0D00636FD7
:107DD0006E6E656374696F6E2069732046756C6C96
:107DE000204475706C65782E0A0D005365747469B3
:107DF0006E67204950763420416464726573732E37
:107E00002E2E0A0D004649524D57415245204255EB
:107E1000494C4420444154452049532000536F7538
:107E2000726365204D414320616464726573732001
:107E300069732000537065656420697320313030A8
:107E4000204D6270732C20005B494E56414C4944D2
:107E500020434845434B53554D5D00537065656461
:107E6000206973203130204D6270732C20004C69E2
:107E70006E6B2065737461626C69736865642E2033
:107E8000002045544845524E4554204D4F44554CD2
:107E9000453A2000436F756C64206E6F74207265E4
:107EA000736F6C76652000556E6B6E6F776E204534
:107EB0007468657254797065004950207061636B15
:107EC00065742073656E742E0A0D00556E6B6E6FAF
:107ED000776E2050726F746F636F6C00204D454D4C
:107EE0004F5259204D4F44554C453A20005B526546
:107EF000706C792073656E7420746F20005B537909
:107F00006D626F6C204572726F72735D005B4973B6
:107F1000477261747569746F75735D00204950769E
:107F200034204D4F44554C453A20002041525020BA
:107F30004D4F44554C453A20004C696E6B206C6F98
:107F400073742E0A0D002064657465637465642E75
:107F500020004D61722031322032303139005B42D5
:107F6000726F6164636173745D005B457870656313
:107F700074656420005B497350726F62655D005BDD
:107F8000556E69636173745D002028436F64653AC0
:107F9000200032323A34333A35350057616974651E
:107FA0006420005B4552524F525D002C20676F7475
:107FB0002000206D732E0A0D005B495076345D0061
:107FC0005B4152505D00202D3E20005D2D3E5B0048
:107FD000495076340049434D5000292E0A0D005D6A
:107FE0005B4C3D00544350005544500041525000FA
:0F7FF0002028002D3E005D5B00295D001200007F
:020000040020DA
:08000000FFFFFFFFFFFFFFFF00
:020000040030CA
:0E00000002285F2BFFD385FF0FC00FE00F40DB
:00000001FF
