:0400000074EF00F0A9
:100008005082FACF17F0FBCF18F0E9CF19F0EACFFA
:100018001AF0E1CF1BF0E2CF1CF0D9CF1DF0DACFF8
:100028001EF0F3CF1FF0F4CF20F0F6CF21F0F7CF7A
:1000380022F0F8CF23F0F5CF24F050C025F051C0BE
:1000480026F052C027F053C028F09EA412D09E94E8
:1000580081AC02D0010E01D0000EFF0A166E163ACE
:100068001646164681501618BF0B1618816EB4EC4A
:100078002BF0F2A40DD0F29431C00FF032C010F082
:10008800DFEC1FF0CA0E016E010E026EF0EC20F0DC
:10009800F0B2F09228C053F027C052F026C051F0B9
:1000A80025C050F024C0F5FF23C0F8FF22C0F7FF99
:1000B80021C0F6FF20C0F4FF1FC0F3FF1EC0DAFF07
:1000C8001DC0D9FF1CC0E2FF1BC0E1FF1AC0EAFF38
:1000D80019C0E9FF18C0FBFF17C0FAFF50921100C2
:1000E80097EF21F0020E0101826F000E846F000E5F
:1000F800836F8EEC2BF0010120EE1EF07851D9268B
:100108007951DA22000160C0DEFF61C0DEFF62C003
:10011800DEFF63C0DEFFA6EC2BF0010120EE10F03D
:100128007851D9267951DA22000162C0DEFF63C016
:10013800DDFF18EC24F0010120EE16F07851D926E5
:100148007951DA22010EDF6E20EE10F07851D926AF
:100158007951DA22DECF71F0DDCF72F091EC24F024
:10016800010120EE19F07851D9267951DA22040ECE
:10017800EBCFDBFFE806FCE220EE19F07851D92638
:100188007951DA2210EE14F07851E1267951E22201
:10019800DECFE6FFDDCFE5FF20EE14F07851D9265B
:1001A8007951DA22DECF7AF1DDCF7BF120EE10F043
:1001B8007851D9267951DA22DECF7CF1DDCF7DF175
:1001C8007A517C277B517D23600E7D5DD8A03BD082
:1001D800000E7A6F300E7B6F20EE14F07851D9261E
:1001E8007951DA22DECF7CF1DDCF7DF1FF0E7E6F13
:1001F8002F0E7F6F20EE10F07851D9267951DA2230
:10020800DECF80F1DDCF81F1801F811F804B812BF4
:100218007E5180277F518123801F811F804B812B36
:100228007C5180277D5181237A5180277B518123FE
:1002380020EE12F07851D9267951DA2280C1DEFFFA
:1002480081C1DDFF22D020EE14F07851D9267951F2
:10025800DA22DECF7AF1DDCF7BF120EE10F0785193
:10026800D9267951DA22DECF7CF1DDCF7DF17A51C2
:100278007C277B517D2320EE12F07851D9267951C5
:10028800DA227CC1DEFF7DC1DDFF20EE10F078515F
:10029800D9267951DA2200EE6FF0080EDBCFEBFF9A
:1002A800E806FCE278EC25F0010120EE0EF078512A
:1002B800D9267951DA2200016FC0DEFF70C0DDFF58
:1002C800C20E986F7F0E996F09EC27F035C084F045
:1002D80036C085F037C086F038C087F097EC29F033
:1002E80084C098F085C099F009EC27F0010E3526F6
:1002F800000E362237223822FA0E0001986F7F0E40
:10030800996F09EC27F0010120EE1BF07851D926EE
:100318007951DA22DFAE07D0550E0001986F7F0EB3
:10032800996F09EC27F0010120EE1DF07851D926CC
:100338007951DA22DFA407D0760E0001986F7F0E7C
:10034800996F09EC27F0010120EE1BF07851D926AE
:100358007951DA22DFBA07D0D90E0001986F7E0EE4
:10036800996F09EC27F0C20E0001986F7F0E996F04
:1003780009EC27F0010120EE1EF07851D9267951B9
:10038800DA22DECF84F0DECF85F0DECF86F0DECF56
:1003980087F097EC29F084C098F085C099F009ECB3
:1003A80027F0FA0E0001986F7F0E996F09EC27F07D
:1003B80097D0B90E0001986F7F0E996F09EC27F05E
:1003C80078C1FCF079C1FDF0C0EC14F0A0D0B20EF9
:1003D8000001986F7F0E996F09EC27F078C1B5F08E
:1003E80079C1B6F097EC15F092D0350E0001986FF0
:1003F8007E0E996F09EC27F0C20E0001986F7F0EF0
:10040800996F09EC27F0010120EE02F07851D92606
:100418007951DA2200EE7AF0050EDBCFEBFFE80621
:10042800FCE28DEC1DF07AC098F07BC099F009ECE5
:1004380027F0F30E0001986F7F0E996F09EC27F0F3
:10044800010120EE08F07851D9267951DA2200EE20
:100458007AF0050EDBCFEBFFE806FCE28DEC1DF031
:100468007AC098F07BC099F009EC27F0F60E0001ED
:10047800986F7F0E996F09EC27F0010120EE0EF0BE
:100488007851D9267951DA22DECF60F0DDCF61F0DC
:1004980049EC28F060C098F061C099F009EC27F0A9
:1004A800D80E0001986F7F0E996F09EC27F078C17C
:1004B800D9FF79C1DAFFDECF7AF1DDCF7BF17AC1DE
:1004C8009AF07BC19BF000019C6B9D6B1AEC2BF0A2
:1004D800F00E0001986F7F0E996F09EC27F017D086
:1004E800010120EE0EF07851D9267951DA22DECFBB
:1004F8007AF1DDCF7BF17B51080AD8A476D77A51FF
:10050800000AD8B464D7060AD8B453D76ED7C20E37
:100518000001986F7F0E996F09EC27F0010120EE1A
:1005280010F07851D9267951DA22DECF7AF1DDCF71
:100538007BF17AC184F07BC185F00001866B876B03
:1005480097EC29F084C098F085C099F009EC27F061
:100558001C0E0001986F7C0E996F09EC27F00101C1
:1005680020EE12F07851D9267951DA22DECF7AF1CD
:10057800DDCF7BF17AC184F07BC185F00001866B09
:10058800876B97EC29F084C098F085C099F009EC46
:1005980027F00B0E0001986F7D0E996F09EC27F07C
:1005A800010120EE14F07851D9267951DA22DECFF4
:1005B8007AF1DDCF7BF17AC184F07BC185F000014F
:1005C800866B876B97EC29F084C098F085C099F00A
:1005D80009EC27F0F90E0001986F7F0E996F09EC6E
:1005E80027F0CFEC28F0D40E0001986F7B0E996F9E
:1005F80009EC27F01200000E0001A16F845185114B
:10060800D8A40CD0010E9F6F20EE98F000EE84F075
:10061800080EDBCFEBFFE806FCE2120029EC29F01C
:10062800D8A00DD0010E00019F6F20EE98F000EECB
:1006380084F0080EDBCFEBFFE806FCE2120045EC85
:1006480029F0D8A038D2300E0001855DD8A00CD092
:10065800010E9F6F20EE98F000EE84F0080EDBCFBD
:10066800EBFFE806FCE21200000E0201016F000E2B
:10067800006F84C002F285C003F284C004F285C012
:1006880005F2010E066F000E086F22EE00F000EE74
:1006980084F0080EDBCFEBFFE806FCE21200000155
:1006A800A151090D060EF326000EF422000EF324C4
:1006B800D96E020EF420DA6EDF50D8A4EBD1A15126
:1006C800D8B407D0FF0EA125936F946BFF0E942327
:1006D80004D0000E946F070E936F93C060F094C01F
:1006E80061F0000E636F090E626F5FEC2AF0020E74
:1006F80000016027000E6123000E6025D96E020EEE
:100708006121DA6EDECF8DF0DDCF8EF0010E8D2700
:10071800000E8E23A151090D000EF324D96E020E8E
:10072800F420DA6E8DC0DEFF8EC0DDFFA151090D09
:10073800000EF324D96E020EF420DA6EDECF8DF0AF
:10074800DDCF8EF084518D2785518E238D05300E97
:100758008E59D8A0CFD0070EA119D8A4CBD00201AA
:100768000651D8A4C7D00001A151090D040EF326E3
:10077800000EF422000EF324D96E020EF420DA6E75
:1007880084C0DEFF85C0DDFFA151090D040EF326EC
:10079800000EF422000EF324D96E020EF420DA6E55
:1007A800DECF8DF0DDCF8EF0FF0E8F6F2F0E906FA6
:1007B800A151090D000EF324D96E020EF420DA6E51
:1007C800DECF91F0DDCF92F0911F921F914B922BCB
:1007D8008F51912790519223911F921F914B922BE9
:1007E8008D5191278E519223A151090D020EF326A6
:1007F800000EF422000EF324D96E020EF420DA6EF5
:1008080091C0DEFF92C0DDFF000E966F070E966561
:1008180001D044D0A1519619D8B43ED0A151090DA8
:10082800000EF324D96E020EF420DA6E00EE72F098
:10083800080EDBCFEBFFE806FCE29651090D000E2F
:10084800F324D96E020EF420DA6E00EE7BF0080E67
:10085800DBCFEBFFE806FCE279EC1CF00001D8A046
:100868001BD09651090D060EF326000EF422000E39
:10087800F324D96E020EF420DA6EDF50D8B40CD00F
:10088800010E9F6F20EE98F000EE84F0080EDBCF8B
:10089800EBFFE806FCE21200962BB8D7A151090D30
:1008A800060EF326000EF422000EF324D96E020E73
:1008B800F420DA6E010EDF6EA151090D080EF32641
:1008C800000EF422000EF324D96E020EF420DA6E24
:1008D800A1C0DFFFA151090D000EF324D96E020E4D
:1008E800F420DA6E00EE84F0080EDBCFEBFFE806AA
:1008F800FCE21200010E0001956FA151090D000ED6
:10090800F324D96E020EF420DA6EDECF8DF0DDCF3F
:100918008EF084518D2785518E23A151090D020E29
:10092800F326000EF422000EF324D96E020EF420F2
:10093800DA6E8DC0DEFF8EC0DDFF000E976F070EEA
:10094800976501D03AD0A1519719D8B434D09751AE
:10095800090D060EF326000EF422000EF324D96EBC
:10096800020EF420DA6EDF50D8B425D0A151090D5B
:10097800000EF324D96E020EF420DA6E00EE72F047
:10098800080EDBCFEBFFE806FCE29751090D000EDD
:10099800F324D96E020EF420DA6E00EE7BF0080E16
:1009A800DBCFEBFFE806FCE279EC1CF00001D8A0F5
:1009B80002D0000E956F972BC2D79551D8B46AD044
:1009C800A151090D060EF326000EF422000EF324A1
:1009D800D96E020EF420DA6E010EDF6EA151090DF8
:1009E800000EF324D96E020EF420DA6EDECF8DF0FD
:1009F800DDCF8EF084518D2785518E23A151090DAD
:100A0800020EF326000EF422000EF324D96E020E15
:100A1800F420DA6E8DC0DEFF8EC0DDFFA151090D16
:100A2800070EF326000EF422000EF324D96E020EF0
:100A3800F420DA6E000EDF6EA151090D040EF326C4
:100A4800000EF422000EF324D96E020EF420DA6EA2
:100A580084C0DEFF85C0DDFFA151090D080EF32615
:100A6800000EF422000EF324D96E020EF420DA6E82
:100A7800A1C0DFFFA151090D000EF324D96E020EAB
:100A8800F420DA6E00EE84F0080EDBCFEBFFE80608
:100A9800FCE21200A12B080EA119D8A40CD0010E5B
:100AA8009F6F20EE98F000EE84F0080EDBCFEBFF8E
:100AB800E806FCE21200080E0001A165F0D520EE60
:100AC80098F000EE84F0080EDBCFEBFFE806FCE2BE
:100AD8001200FC0ED316D3508F0B6009D36ED28848
:100AE800F29EF28AF0889F9A9D8AF28CD58ED58CD8
:100AF800D59AD596D550F80B0509D56ECD80BD5041
:100B0800F00B0B09BD6E1F0EBF6E400EBE6E9D84AE
:100B1800F28C939C97EC2BF039EC2BF0680E0101CA
:100B2800916FE40EE82EFED7912FFCD700F0FC0E53
:100B38000001986F7F0E996F09EC27F0D0B615D099
:100B4800850E0001986F7A0E996F09EC27F0B80EA0
:100B58000001986F7A0E996F09EC27F0850E000155
:100B6800986F7A0E996F09EC27F0F20E0001986FD2
:100B78007D0E996F09EC27F0490E0001986F7F0EE2
:100B8800996F09EC27F0EE0E0001986F7F0E996FB0
:100B980009EC27F0920E0001986F7F0E996F09EC0F
:100BA80027F0CF0E0001986F7F0E996F09EC27F0A0
:100BB800E7EC21F07AC0C9F37BC0CAF37CC0CBF361
:100BC8000301CA51CB11D8B408D0C9C39AF0CAC31B
:100BD8009BF0CBC39CF051EC1BF0D8EC27F06EC017
:100BE800C9F36FC0CAF370C0CBF30301CA51CB116C
:100BF800D8A40FD0E6EC2AF060C098F061C099F054
:100C080009EC27F03D0E0001986F7F0E996F09ECF3
:100C180027F00A0E0001986F7E0E996F09EC27F0F5
:100C280005EC25F0E9CFD9FFEACFDAFF00EE7AF03C
:100C3800050EDBCFEBFFE806FCE28DEC1DF07AC079
:100C480098F07BC099F009EC27F0CF0E0001986F5F
:100C58007F0E996F09EC27F0850E0001986F7A0EC8
:100C6800996F09EC27F0C1EC2BF0000E00016E6FB4
:100C7800000E86EC22F0000E00016E6F000E86EC6E
:100C880022F0150E0101926F4B0E916FBE0EE82EE9
:100C9800FED7912FFCD7922FFAD700F0010E000152
:100CA8006E6F000E86EC22F0010E00016E6F000ED2
:100CB80086EC22F0000E0301A26F000EA36F000E57
:100CC800A46F000EA56F0F015C9B938AC00E0201F2
:100CD800DA6FA80EDB6F000EDC6F010EDD6FC00E41
:100CE8000301CC6FA80ECD6F000ECE6F0A0ECF6F2A
:100CF800F28EF28C05EC25F0050EE926000EEA22AC
:100D0800EF500101916F915100017A6F7B6B9FEC5D
:100D18002BF0DEEC26F06CC06EF06DC06FF0000EAC
:100D28000001716F640E706F3FEC25F000016EC01A
:100D380084F06FC085F0000E85BFFF0E866F876F49
:100D480097EC29F084C098F085C099F009EC27F059
:100D58000400570E0101856F020E866FB3EC11F087
:100D680022EE5BF000EE9AF00E0EDBCFEBFFE8060A
:100D7800FCE246EC21F002015B51D8B405D0DDC29B
:100D8800C6F30301C76B05D0030E0301C76FE80E56
:100D9800C66FC6C331F0C7C332F0000E32BEFF0EB5
:100DA800336E346E0101CA51D8B4D2D7000ECA6F5F
:100DB800070E0001986F7F0E996F09EC27F073EC0E
:100DC8002BF060C073F061C074F062C075F063C04E
:100DD80076F0C9EC13F073C098F074C099F009EC80
:100DE80027F0D40E0001986F7B0E996F09EC27F05D
:100DF80002015B05D8A4ACD7CCC3ABF2CDC3ACF22F
:100E0800CEC3ADF2CFC3AEF273EC2BF060C0A7F245
:100E180061C0A8F262C0A9F263C0AAF2000E020182
:100E28009D6F780E9C6FA369040E986F980E000151
:100E3800606F020E616F44EC0BF022EE98F000EE4A
:100E480060F0160EDBCFEBFFE806FCE2A60E000111
:100E5800776F030E786FEBEC17F0980E0001A76F11
:100E6800020EA86FB6EC1AF0000E0301C86F36D058
:100E780002019951040D0301C8510101916F926B50
:100E8800F350915D9251800A936FF450800A935900
:100E9800D8B016D022EE98F000EE7EF0410EDBCFEF
:100EA800EBFFE806FCE20301C851010DA60EF3248E
:100EB800D96E030EF420DA6EDF504BEC2AF00CD01A
:100EC80022EE98F000EE7EF0410EDBCFEBFFE80655
:100ED800FCE2000E4BEC2AF00301C82BC8510101BB
:100EE800916F926B02019C510101915D02019D512C
:100EF80001019259D8A0BCD7EE0E0001986F7C0E64
:100F0800996F09EC27F0A7C273F0A8C274F0A9C2C0
:100F180075F0AAC276F0C9EC13F073C098F074C0EB
:100F280099F009EC27F0D30E0001986F7F0E996FA6
:100F380009EC27F0ABC273F0ACC274F0ADC275F027
:100F4800AEC276F0C9EC13F073C098F074C099F093
:100F580009EC27F0E90E0001986F7F0E996F09ECF4
:100F680027F0010E02015A6FF3D6000E00019C6FA4
:100F7800160E9B6F20EE10F07451D9267551DA22A7
:100F8800DECF94F0DDCF95F09B5194256F6F9C5187
:100F98009521706F000E83EC26F0000120EE10F012
:100FA8007451D9267551DA22DECF94F0DDCF95F051
:100FB8009B5194256F6F9C519521706F010E83ECA6
:100FC80026F000019E6F9D6B20EE10F07451D9261B
:100FD8007551DA22DECF94F0DDCF95F09B51942540
:100FE8006F6F9C519521706F010E83EC26F0000104
:100FF800966F96519D1320EE10F07451D9267551B5
:10100800DA22DECF94F0DDCF95F09B5194256F6FF7
:101018009C519521706F010E83EC26F00001A06FA2
:101028009F6B20EE10F07451D9267551DA22DECF6D
:1010380094F0DDCF95F09B5194256F6F9C519521CD
:10104800706F010E83EC26F00001966F96519F1386
:1010580020EE10F07451D9267551DA22DECF94F0C3
:10106800DDCF95F09B5194256F6F9C519521706F42
:10107800010E83EC26F00001A16F20EE10F07451F0
:10108800D9267551DA22DECF94F0DDCF95F09B5149
:1010980094256F6F9C519521706F010E83EC26F09B
:1010A8000001A26F20EE10F07451D9267551DA2292
:1010B800DECF94F0DDCF95F09B5194256F6F9C5156
:1010C8009521706F010E83EC26F00001A46FA36BCD
:1010D80020EE10F07451D9267551DA22DECF94F043
:1010E800DDCF95F09B5194256F6F9C519521706FC2
:1010F800010E83EC26F00001966F9651A313000EA3
:10110800976F24D020EE10F07451D9267551DA2249
:10111800DECF94F0DDCF95F09B5194256F6F9C51F5
:101128009521706F010E83EC26F00001966F9751A0
:10113800010D080EF326000EF4229D0EF324D96E3D
:10114800000EF420DA6E96C0DFFF972BA151975D51
:10115800D8A0D8D7000E986F24D020EE10F0745184
:10116800D9267551DA22DECF94F0DDCF95F09B5168
:1011780094256F6F9C519521706F010E83EC26F0BA
:101188000001966F9851010D0E0EF326000EF42201
:101198009D0EF324D96E000EF420DA6E96C0DFFFA0
:1011A800982BA251985DD8A0D8D7000E996F24D05B
:1011B80020EE10F07451D9267551DA22DECF94F062
:1011C800DDCF95F09B5194256F6F9C519521706FE1
:1011D800010E83EC26F00001966F9951010D120E55
:1011E800F326000EF4229D0EF324D96E000EF4208F
:1011F800DA6E96C0DFFF992BA151995DD8A0D8D798
:10120800000E9A6F24D020EE10F07451D926755133
:10121800DA22DECF94F0DDCF95F09B5194256F6FE5
:101228009C519521706F010E83EC26F00001966F9A
:101238009A51010D180EF326000EF4229D0EF32488
:10124800D96E000EF420DA6E96C0DFFF9A2BA251F9
:101258009A5DD8A0D8D720EE10F07451D9267551D0
:10126800DA22DECF94F0DDCF95F09B5194256F6F95
:101278009C519521706F020E83EC26F0AB0E000195
:10128800606F000E616FC8EC29F00001D8A002D091
:10129800B9833CD0B993AB0E606F000E616FB50E89
:1012A800626F000E636FAEEC28F00001D8A00DD07D
:1012B800AF0E606F000E616FB0EC29F00001D8A08E
:1012C80004D0A305A411D8B41FD0AB0E606F000ED4
:1012D800616FB50E626F000E636FAEEC28F000010F
:1012E800D8A014D0A50E606F000E616FAF0E626FAC
:1012F800000E636F8DEC28F00001D8A007D0020E15
:10130800A319A411D8A402D0B98101D0B9919D051F
:101318009E11D8A413D0080EA0199F11D8A40ED0DE
:10132800A4510CE1030EA35DD8B008D0060EA11994
:10133800D8A404D0040EA219D8B404D0010EBC6FEE
:10134800940E03D0000EBC6F000EBB6F030EBA6F75
:1013580020EE9DF000EE74F01F0EDBCFEBFFE806E9
:10136800FCE21200000E0001656FFF0E666F20EEB2
:1013780001F06051D9266151DA22DF50676F675159
:10138800696F686B655168176651691760C0D9FF46
:1013980061C0DAFFDF506A6F6B6B68516A116C6F5E
:1013A80069516B116D6F20EE02F06051D9266151C1
:1013B800DA22DFA003D0656B652B02D00001656BD4
:1013C8006E516519FE0B65196E6F20EE02F06051C3
:1013D800D9266151DA22DFA403D0656B652B02D0D0
:1013E8000001656B65476E516519FD0B65196E6FD8
:1013F80020EE02F06051D9266151DA22DFA803D02D
:10140800656B652B02D00001656B654765476E51BA
:101418006519FB0B65196E6F20EE02F06051D92635
:101428006151DA22DFAA03D0656B652B02D0000177
:10143800656B6547654765476E516519F70B651913
:101448006E6F20EE02F06051D9266151DA22DFACCE
:1014580003D0656B652B02D00001656B653B6E514F
:101468006519EF0B65196E6F20EE02F06051D926F1
:101478006151DA22DFAE03D0656B652B02D0000123
:10148800656B653B65476E516519DF0B65196E6FB6
:1014980020EE03F06051D9266151DA22DFA003D093
:1014A800656B652B02D00001656B653B6547654739
:1014B8006E516519BF0B65196E6F20EE03F0605110
:1014C800D9266151DA22DFA203D0656B652B02D0E1
:1014D8000001656B653365336E5165197F0B6519BE
:1014E8006E6F20EE03F06051D9266151DA22DFA633
:1014F80003D0656B652B02D00001656B65476F51A2
:101508006519FD0B65196F6F20EE03F06051D92640
:101518006151DA22DFA803D0656B652B02D0000188
:10152800656B654765476F516519FB0B65196F6FEB
:1015380020EE03F06051D9266151DA22DFAA03D0E8
:10154800656B652B02D00001656B6547654765478C
:101558006F516519F70B65196F6F20EE03F0605135
:10156800D9266151DA22DFAC03D0656B652B02D036
:101578000001656B653B6F516519EF0B65196F6F5E
:1015880020EE03F06051D9266151DA22DFAE03D094
:10159800656B652B02D00001656B653B65476F5134
:1015A8006519DF0B65196F6F20EE04F06051D926BD
:1015B8006151DA22DFA003D0656B652B02D00001F0
:1015C800656B653B654765476F516519BF0B6519C5
:1015D8006F6F20EE04F06051D9266151DA22DFA244
:1015E80003D0656B652B02D00001656B65336533ED
:1015F8006F5165197F0B65196F6F20EE04F060510C
:10160800D9266151DA22DFA403D0656B652B02D09D
:101618000001656B70516519FE0B6519706F20EE3E
:1016280004F06051D9266151DA22DFA603D0656B38
:10163800652B02D00001656B654770516519FD0B7C
:101648006519706F20EE04F06051D9266151DA22D5
:10165800DFA803D0656B652B02D00001656B654779
:10166800654770516519FB0B6519706F20EE6CF0BA
:1016780000EE60F0040EDBCFEBFFE806FCE21200A0
:10168800000E00016E6F000E6F6F000E706F000E7F
:10169800716F20EE02F06051D9266151DA22DF50D5
:1016A800626F636BD89062376337D890623763375D
:1016B80020EE01F06051D9266151DA22DF50646FC3
:1016C8006451666F656B60C0D9FF61C0DAFFDF5097
:1016D800676F686B0C0ED89067376837E82EFBD7B2
:1016E8006551671366516813625167136351681334
:1016F80020EE03F06051D9266151DA22DF50696F7C
:1017080069516713000E681367C06EF068C06FF008
:10171800706B716B20EE04F06051D9266151DA22AA
:10172800DECF62F0DDCF63F062516E2763516F2325
:10173800000E7023000E712320EE06F06051D926AA
:101748006151DA22DECF62F0DDCF63F062516E279D
:1017580063516F23000E7023000E712320EE09F0F1
:101768006051D9266151DA22DECF62F0DDCF63F015
:1017780020EE08F06051D9266151DA22DF50646FFB
:10178800656B0D0ED89064376537E82EFBD762512C
:1017980064136351651364516E2765516F23000EFE
:1017A8007023000E712320EE0BF06051D926615191
:1017B800DA22DF50626F6251646F636B20EE0CF0C7
:1017C8006051D9266151DA22DF50656F6551631384
:1017D800000E641363516E2764516F23000E70234B
:1017E800000E712320EE0FF06051D9266151DA22E4
:1017F800DF50626F6251646F636B20EE10F06051CE
:10180800D9266151DA22DF50656F666B6351651323
:101818006451661365516E2766516F23000E70235D
:10182800000E712320EE11F06051D9266151DA22A1
:10183800DF50626F6251646F636B20EE12F060518B
:10184800D9266151DA22DF50656F666B63516513E3
:101858006451661365516E2766516F23000E70231D
:10186800000E712320EE13F06051D9266151DA225F
:10187800DF50626F6251646F636B20EE14F0605149
:10188800D9266151DA22DF50656F666B63516513A3
:101898006451661365516E2766516F23000E7023DD
:1018A800000E712320EE15F06051D9266151DA221D
:1018B800DF50626F6251646F636B20EE16F0605107
:1018C800D9266151DA22DF50656F666B6351651363
:1018D8006451661365516E2766516F23000E70239D
:1018E800000E71236EC062F06FC063F070C064F0C8
:1018F80071C065F0110E05D0D89065336433633339
:101908006233E82EF9D70F0E6215666F000E631565
:10191800676F000E6415686F000E6515696FFF0E1E
:101928006E156A6FFF0E6F156B6F000E70156C6F7A
:10193800000E71156D6F66516A256E6F67516B21C8
:101948006F6F68516C21706F69516D21716F6EC036
:1019580062F06FC063F070C064F071C065F0621F20
:10196800631F641F651F62C06EF063C06FF064C0C0
:1019780070F065C071F020EE0DF06051D92661510C
:10198800DA226EC0DEFF6FC0DDFF1200030E010118
:101998004E6F3851D8A40FD0000EAB6F000EAC6F4D
:1019A800010E506F960E4F6F4EC134F14FC135F195
:1019B80050C136F1120034C167F035C168F036C144
:1019C80069F037C16AF0410E00016B6F010E6C6F50
:1019D80097EC20F00009D8B42AD1030E0101AB6FAF
:1019E80026D14A0E0001606F010E616F9BEC2AF050
:1019F8008EEC2BF060C042F161C043F162C044F14B
:101A080063C045F1DEEC26F06CC06EF06DC06FF07F
:101A1800030E0001716FE80E706F6BEC28F0000187
:101A28006EC046F16FC047F10101486B496B010E6A
:101A3800AB6F54D042C139F143C13AF144C13BF1D3
:101A480045C13CF1391F3A1F3B1F3C1F392B000E83
:101A58003A233B233C238EEC2BF001013951000142
:101A6800602501013D6F3A510001612101013E6F7E
:101A78003B510001622101013F6F3C51000163218C
:101A88000101406F46513D5D47513E5948513F590C
:101A980049514059D8A022D0020EAB6FE80E396FD9
:101AA800030E3A6FDEEC26F06CC06EF06DC06FF07E
:101AB800030E0001716FE80E706F6BEC28F00101E6
:101AC800395100016E2701013A5100016F236EC0A0
:101AD80046F16FC047F10101486B496B010E506F29
:101AE800910EA3D0AC51D8B432D042C139F143C120
:101AF8003AF144C13BF145C13CF1391F3A1F3B1F44
:101B08003C1F392B000E3A233B233C238EEC2BF051
:101B1800010139510001602501013D6F3A51000171
:101B2800612101013E6F3B510001622101013F6FBC
:101B38003C51000163210101406F3D51465D3E511A
:101B480047593F51485940514959D8B07ED08EEC39
:101B58002BF060C042F161C043F162C044F163C040
:101B680045F1030E0101AC6147D0D80E0001986F12
:101B78007D0E996F09EC27F034C173F035C174F00C
:101B880036C175F037C176F0C9EC13F073C098F020
:101B980074C099F009EC27F0310E0001986F7F0EA0
:101BA800996F09EC27F04AC173F04BC174F04CC12E
:101BB80075F04DC176F0C9EC13F073C098F074C09D
:101BC80099F009EC27F0E90E0001986F7F0E996FE4
:101BD80009EC27F04AC100F14BC101F14CC102F1F7
:101BE8004DC103F134C104F135C105F136C106F127
:101BF80037C107F137EC22F0020E0101AC6508D0BD
:101C0800000EAC6F000EAB6F010E506F930E0DD02F
:101C1800010E506F910E4F6FAC2B17D0000EAC6FAA
:101C2800000EAB6F010E506F950E4F6F0ED0010175
:101C3800AB51000AD8B4D5D6010AD8B4FBD6030AEA
:101C4800D8B450D7010AD8B4E9D74EC134F14FC13E
:101C580035F150C136F11200C70E0001606F000E59
:101C6800616FC1EC2AF020EEC7F010EED9F0050E36
:101C7800DBCFE3FFE806FCE2000E0001D26F240E82
:101C8800D16F20EEF3F000EE6FF0080EDBCFEBFF24
:101C9800E806FCE2B0EC25F020EED3F0050EEBCF21
:101CA800DBFFE806FCE2080E0001E06F060EDF6FBE
:101CB800D10EA26F000EA36F07EC1FF00001E851D0
:101CC800D8A41200080EE125F36F000EE221F46F8C
:101CD800E3C0F5F0E4C0F6F0000EF86F1C0EF76FE5
:101CE80020EEF3F000EE6FF0080EDBCFEBFFE80616
:101CF800FCE2A85155EC24F020EEF3F000EE6FF072
:101D0800080EDBCFEBFFE806FCE20001A75155EC1B
:101D180024F020EEF3F000EE6FF0080EDBCFEBFFBF
:101D2800E806FCE20001AA5155EC24F020EEF3F09D
:101D380000EE6FF0080EDBCFEBFFE806FCE20001D7
:101D4800A95155EC24F020EEF3F000EE6FF0080EE8
:101D5800DBCFEBFFE806FCE20001AB5155EC24F0C9
:101D680020EEF3F000EE6FF0080EDBCFEBFFE80695
:101D7800FCE20001AC5155EC24F020EEF3F000EE4B
:101D88006FF0080EDBCFEBFFE806FCE20001AE5176
:101D980055EC24F020EEF3F000EE6FF0080EDBCFE8
:101DA800EBFFE806FCE20001AD5155EC24F0000E13
:101DB8000001CD6F1AD020EEF3F000EE6FF0080EA0
:101DC800DBCFEBFFE806FCE2CD51010D080EF32650
:101DD800000EF422A70EF324D96E000EF420DA6E5A
:101DE800DF5055EC24F00001CD2BAB51CD5DD8A0D0
:101DF800E2D7000ECE6F1AD020EEF3F000EE6FF0AF
:101E0800080EDBCFEBFFE806FCE2CE51010D0E0E0B
:101E1800F326000EF422A70EF324D96E000EF42048
:101E2800DA6EDF5055EC24F00001CE2BAC51CE5DBC
:101E3800D8A0E2D7000ECF6F1AD020EEF3F000EE54
:101E48006FF0080EDBCFEBFFE806FCE2CF51010D87
:101E5800120EF326000EF422A70EF324D96E000EFC
:101E6800F420DA6EDF5055EC24F00001CF2BAB5193
:101E7800CF5DD8A0E2D7000ED06F1AD020EEF3F0D5
:101E880000EE6FF0080EDBCFEBFFE806FCE2D05166
:101E9800010D180EF326000EF422A70EF324D96EB6
:101EA800000EF420DA6EDF5055EC24F00001D02B40
:101EB800AC51D05DD8A0E2D720EEE1F000EE72F090
:101EC800080EDBCFEBFFE806FCE273EC2AF0120009
:101ED80074C0D9FF75C0DAFFDECF6FF0DDCF70F0C8
:101EE800000E83EC26F074C0D9FF75C0DAFFDECF90
:101EF8006FF0DDCF70F0010E83EC26F000018E6FDD
:101F08008E390F0B0F0B8F6F8E510F0B906F74C0A4
:101F1800D9FF75C0DAFFDECF6FF0DDCF70F0010EAC
:101F280083EC26F000018E6F8E511F0B916F8E454A
:101F3800E846030B030B926F74C0D9FF75C0DAFF34
:101F4800DECF6FF0DDCF70F0010E83EC26F00001DC
:101F5800946F936B74C0D9FF75C0DAFFDECF6FF052
:101F6800DDCF70F0010E83EC26F000018B6F8B51F2
:101F7800931374C0D9FF75C0DAFFDECF6FF0DDCFE1
:101F880070F0010E83EC26F00001966F956B74C01B
:101F9800D9FF75C0DAFFDECF6FF0DDCF70F0010E2C
:101FA80083EC26F000018B6F8B51951374C0D9FF19
:101FB80075C0DAFFDECF6FF0DDCF70F0010E83EC75
:101FC80026F000018E6F8E45E846030B030B976FD2
:101FD8008E511F0B996F986B74C0D9FF75C0DAFFCB
:101FE800DECF6FF0DDCF70F0010E83EC26F000013C
:101FF8008B6F8B51981374C0D9FF75C0DAFFDECF91
:102008006FF0DDCF70F0010E83EC26F000019A6FBF
:1020180074C0D9FF75C0DAFFDECF6FF0DDCF70F086
:10202800010E83EC26F000019B6F74C0D9FF75C0C8
:10203800DAFFDECF6FF0DDCF70F0010E83EC26F013
:1020480000019D6F9C6B74C0D9FF75C0DAFFDECFAD
:102058006FF0DDCF70F0010E83EC26F000018B6F7E
:102068008B519C13000E8C6F030E8C6501D01DD014
:1020780074C0D9FF75C0DAFFDECF6FF0DDCF70F026
:10208800010E83EC26F000018B6F8C51010D0F0EB1
:10209800F326000EF4228F0EF324D96E000EF420DE
:1020A800DA6E8BC0DFFF8C2BDFD7000E8D6F030E2F
:1020B8008D6501D01DD074C0D9FF75C0DAFFDECFA1
:1020C8006FF0DDCF70F0010E83EC26F000018B6F0E
:1020D8008D51010D130EF326000EF4228F0EF324FA
:1020E800D96E000EF420DA6E8BC0DFFF8D2BDFD7A0
:1020F80074C0D9FF75C0DAFFDECF6FF0DDCF70F0A6
:10210800020E83EC26F020EE8FF000EE74F0160E2F
:10211800DBCFEBFFE806FCE21200030E0001FD6FC7
:10212800010EFF6F910EFE6F01013851D8A410D037
:10213800000EAA6F000EA96F010E0001FF6F960E28
:10214800FE6FFDC034F1FEC035F1FFC036F112005C
:1021580034C167F035C168F036C169F037C16AF03B
:10216800FC0E00016B6F000E6C6F97EC20F00009FD
:10217800D8B4E0D0030E0101A96FDCD0010E000134
:10218800FF6F910EFE6F8EEC2BF060C0A0F161C066
:10219800A1F162C0A2F163C0A3F1010E0101A96F10
:1021A800D7D0010E0001FF6F910EFE6FA0C139F16B
:1021B800A1C13AF1A2C13BF1A3C13CF10101391F10
:1021C8003A1F3B1F3C1F392B000E3A233B233C236D
:1021D8008EEC2BF0010139510001602501013D6FA2
:1021E8003A510001612101013E6F3B51000162211A
:1021F80001013F6F3C51000163210101406F4051D3
:102208003F1106E1D10E3D5D070E3E59D8A0A0D082
:10221800020EA96F000EAA6F9BD0010E0001FF6F7E
:10222800910EFE6F0101AA51D8B431D0A0C139F185
:10223800A1C13AF1A2C13BF1A3C13CF1391F3A1F38
:102248003B1F3C1F392B000E3A233B233C238EECCB
:102258002BF0010139510001602501013D6F3A5110
:102268000001612101013E6F3B5100016221010122
:102278003F6F3C51000163210101406F40513F1104
:1022880006E1D10E3D5D070E3E59D8A03CD0E90EBF
:102298000001986F7A0E996F09EC27F034C173F03A
:1022A80035C174F036C175F037C176F0C9EC13F05A
:1022B80073C098F074C099F009EC27F0D40E0001AF
:1022C800986F7B0E996F09EC27F08EEC2BF060C0AD
:1022D800A0F161C0A1F162C0A2F163C0A3F134C151
:1022E80000F135C101F136C102F137C103F134C142
:1022F80004F135C105F136C106F137C107F137ECF4
:1023080022F00101AA2B010EAA6522D0000EAA6FA5
:10231800000EA96F000E0001FF6F000E09D0000E1D
:102328000101AA6F000EA96F010E0001FF6F950E43
:10233800FE6F0ED00101A951000AD8B41FD7010AB7
:10234800D8B42FD7030AD8B468D7010AD8B4E7D7C6
:10235800FDC034F1FEC035F1FFC036F112000AECC1
:102368001AF078C08CF179C08DF101018CA744D0A6
:10237800040E85250001806F000E010186210001F1
:10238800816FCDEC22F0010120EE04F08551D926B1
:102398008651DA22DE04D8A41ED0000E00016E6F2A
:1023A800000E86EC22F0020E00016E6F010E86EC24
:1023B80022F0010120EE83F08551D9268651DA22D8
:1023C800DECF60F0DECF61F0DECF62F0DECF63F00B
:1023D8005FEC2BF00ED0010E00016E6F000E86EC44
:1023E80022F0010E00016E6F010E86EC22F0CBEC9C
:1023F80024F00B0EADEC2BF001018CA90ED07CEC77
:102408002BF00009D8B409D0040E01018525786F96
:10241800000E8621796F76EC00F0010120EE03F0C2
:102428008551D9268651DA22DE04D8A433D0830E0A
:102438000001986F7A0E996F09EC27F0010120EEE0
:1024480041F08551D9268651DA2201EE34F0410E49
:10245800DBCFEBFFE806FCE2C0EC12F0340ED96EDD
:10246800010EDA6E010ED926000EDA22DE50DE10D9
:10247800D8A410D0140E0001986F7B0E996F09EC48
:1024880027F0010120EE03F08551D9268651DA2282
:10249800000EDF6E010120EE04F08551D926865129
:1024A800DA22DF506DEC16F051C189F152C18AF180
:1024B80053C18BF1010120EE04F08551D9268651D4
:1024C800DA22DF5058EC19F09AC08EF19BC08FF1D8
:1024D8009CC090F1040E01018E19D8A41200F50ECB
:1024E8008F1949E19005D8A41200B10E0001986F28
:1024F8007B0E996F09EC27F0010120EE86F08551DB
:10250800D9268651DA22DF2AFC0E0001986F7B0E4D
:10251800996F09EC27F0010120EE83F08551D92647
:102528008651DA22DECF73F0DECF74F0DECF75F09D
:10253800DECF76F0C9EC13F073C098F074C099F050
:1025480009EC27F0D40E0001986F7B0E996F09EC07
:1025580027F0010120EE83F08551D9268651DA2231
:10256800DECF60F0DECF61F0DECF62F0DECF63F069
:102578005FEC2BF012001200030E0001FD6F010E3C
:10258800FF6F910EFE6F47C167F048C168F049C1FF
:1025980069F04AC16AF0FC0E6B6F000E6C6F97EC25
:1025A80020F00009D8B478D00001FC51E0EC29F003
:1025B80021EE5CF0050EEBCFDBFFE806FCE2800EB7
:1025C8000001986F7F0E996F09EC27F047C173F0EF
:1025D80048C174F049C175F04AC176F0C9EC13F0EE
:1025E80073C098F074C099F009EC27F09B0E0001B5
:1025F800986F7F0E996F09EC27F021EE5CF000EEE2
:102608007AF0050EDBCFEBFFE806FCE28DEC1DF05F
:102618007AC098F07BC099F009EC27F0D40E00013D
:10262800986F7B0E996F09EC27F005EC25F021EEE9
:1026380056F0050EEBCFDBFFE806FCE221EE5CF07E
:1026480000EE6FF0050EDBCFEBFFE806FCE221EEB3
:1026580064F000EE75F0080EDBCFEBFFE806FCE255
:1026680099EC23F021EE64F000EE72F0080EDBCF57
:10267800EBFFE806FCE273EC2AF0000E0001FF6FA6
:10268800000EFE6F000E0101946F000E956F000E94
:10269800966F000E976F72D094C176F195C177F15D
:1026A80096C178F197C179F10101761F771F781FDC
:1026B800791F762B000E7723782379238EEC2BF065
:1026C800010176510001602501017A6F77510001FF
:1026D800612101017B6F78510001622101017C6F4A
:1026E80079510001632101017D6F7D517C110CE15D
:1026F800E90E7A5D030E7B59D8B006D09451951136
:1027080096119711D8A43AD0BD0E0001986F7D0E8E
:10271800996F09EC27F047C173F048C174F049C1BB
:1027280075F04AC176F0C9EC13F073C098F074C024
:1027380099F009EC27F0D40E0001986F7B0E996F81
:1027480009EC27F08EEC2BF060C094F161C095F194
:1027580062C096F163C097F147C100F148C101F129
:1027680049C102F14AC103F147C104F148C105F169
:1027780049C106F14AC107F137EC22F0FDC034F136
:10278800FEC035F1FFC036F11200000E0001876F60
:10279800000E886F030E886501D0DFD08851010DC7
:1027A800830EF324D96E000EF420DA6E8851010DE1
:1027B800730EF324E16E000EF420E26EE750776F9B
:1027C8007751606F616B000E636F640E626F5EEC31
:1027D80027F000016051DF6E8851010D7F0EF32450
:1027E800D96E000EF420DA6E8851010D830EF324A1
:1027F800E16E000EF420E26EE750776F7751640DBA
:10280800F3CF78F0F4CF79F0781F791F784B792BD4
:102818008851010D730EF324E16E000EF420E26E70
:10282800E7507A6F7A517825606F000E7921616FD1
:10283800000E636F0A0E626F5EEC27F000016051B4
:10284800DF6E8851010D7B0EF324D96E000EF42043
:10285800DA6E8851010D730EF324E16E000EF42038
:10286800E26EE750776F77516E6F6F6B000E716F86
:102878000A0E706F6BEC28F000016E51DF6E885104
:10288800010D830EF324D96E000EF420DA6EDF50AA
:10289800D8B414D08751010DF00EF324D96E020E6E
:1028A800F420DA6E8851010D830EF324E16E000ED8
:1028B800F420E26EE750300FDF6E872B8851010D50
:1028C8007F0EF324D96E000EF420DA6EDF50D8A400
:1028D8000BD08851010D830EF324D96E000EF4201D
:1028E800DA6EDF50D8B414D08751010DF00EF324FE
:1028F800D96E020EF420DA6E8851010D7F0EF32492
:10290800E16E000EF420E26EE750300FDF6E872B89
:102918008751010DF00EF324D96E020EF420DA6E01
:102928008851010D7B0EF324E16E000EF420E26E57
:10293800E750300FDF6E872B030E8819D8B40BD001
:102948008751010DF00EF324D96E020EF420DA6ED1
:102958002E0EDF6E872B882B1DD78751010DF00EA9
:10296800F324D96E020EF420DA6E000EDF6EF00E3C
:10297800736F020E746F1200000120EE0EF0FC510E
:10298800D926FD51DA22060EDE1804E1080EDE18FB
:10299800D8B407D0FCC072F0FDC073F0CFEC28F0BB
:1029A8001200FCC074F0FDC075F0B9EC07F021EE20
:1029B80058F01F0EEBCFDBFFE806FCE20101765171
:1029C8007711D8B40ED0FCC072F0FDC073F0CFEC14
:1029D80028F03C0E0001986F7B0E996F09EC27F0E8
:1029E8001200C20E0001986F7F0E996F09EC27F054
:1029F80021EE60F000EE7AF0050EDBCFEBFFE80683
:102A0800FCE28DEC1DF07AC098F07BC099F009ECDF
:102A180027F0320E0001986F7E0E996F09EC27F0AF
:102A280066C173F067C174F068C175F069C176F06A
:102A3800C9EC13F073C098F074C099F009EC27F052
:102A4800BF0E0001986F7F0E996F09EC27F021EEF9
:102A58006AF000EE7AF0050EDBCFEBFFE806FCE249
:102A68008DEC1DF07AC098F07BC099F009EC27F046
:102A7800320E0001986F7E0E996F09EC27F070C135
:102A880073F071C174F072C175F073C176F0C9EC5E
:102A980013F073C098F074C099F009EC27F0FA0E9F
:102AA8000001986F7F0E996F09EC27F0010174A35C
:102AB80007D06C0E0001986F7F0E996F09EC27F014
:102AC800010174A107D0E90E0001986F7E0E996F7D
:102AD80009EC27F021EE58F001EE00F01F0EDBCFD5
:102AE800EBFFE806FCE2A2EC18F021EE60F000EE45
:102AF8009AF0050EDBCFEBFFE806FCE266C1A0F01A
:102B080067C1A1F068C1A2F069C1A3F08EEC2BF0F7
:102B180060C0A4F061C0A5F062C0A6F063C0A7F0D1
:102B28002DEC17F01200000120EE0EF0B551D92659
:102B3800B651DA22DE5004E1080EDE18D8B407D008
:102B4800B5C072F0B6C073F0CFEC28F012000001E7
:102B580020EE10F0B551D926B651DA2210EEB9F0B0
:102B6800080EDBCFE3FFE806FCE220EE10F0B551DB
:102B7800D926B651DA22DECFB7F0DDCFB8F0160E7F
:102B8800B725B96F000EB821BA6FB90E746F000E71
:102B9800756F6CEC0FF020EEC2F0160EEBCFDBFF7A
:102BA800E806FCE2C20E0001986F7F0E996F09ECEF
:102BB80027F0D1C073F0D2C074F0D3C075F0D4C080
:102BC80076F0C9EC13F073C098F074C099F009EC72
:102BD80027F0D30E0001986F7F0E996F09EC27F04C
:102BE800D5C073F0D6C074F0D7C075F0D8C076F0F1
:102BF800C9EC13F073C098F074C099F009EC27F091
:102C0800F60E0001986F7F0E996F09EC27F000010E
:102C1800CE5125EC28F060C098F061C099F009EC1D
:102C280027F0F60E0001986F7F0E996F09EC27F0D8
:102C3800C6C084F0C7C085F00001866B876B97EC2F
:102C480029F084C098F085C099F009EC27F0F60EB9
:102C58000001986F7F0E996F09EC27F00001C251AF
:102C6800846F856B866B876B97EC29F084C098F02E
:102C780085C099F009EC27F0320E0001986F7E0E9E
:102C8800996F09EC27F00001C351846F856B866B3F
:102C9800876B97EC29F084C098F085C099F009EC0F
:102CA80027F0FA0E0001986F7F0E996F09EC27F054
:102CB800C20E00019A6F000E9B6F7BEC1FF00001A3
:102CC800D8B01200490E986F7E0E996F09EC27F064
:102CD80012000101566F010E0101C96F910EC86FF4
:102CE800030EC76FA8D085EC2BF060C09CF161C0C3
:102CF8009DF162C09EF163C09FF1C70E0001606F35
:102D0800010E616F69EC2BF00001D8A055D09CC171
:102D180034F19DC135F19EC136F19FC137F156C1DD
:102D280038F1CAEC0CF0340ED96E010EDA6E010ED1
:102D3800D926000EDA22DECF5BF1DDCF5CF123D09D
:102D4800680E0001986F7C0E996F09EC27F034D05B
:102D5800210E0001986F7C0E996F09EC27F0010E87
:102D68000101A86F29D0140E0001986F7A0E996F8F
:102D780009EC27F021D0450E0001986F7C0E996F61
:102D880009EC27F019D021EE5BF0DECF54F1DDCF4E
:102D980055F101015551010AD8A4EDD75451910AB2
:102DA800D8B40AD0020AD8B4D3D7060AD8B4C8D738
:102DB800030AD8B4D8D7DFD75BC1C8F15CC1C9F161
:102DC80041D09CC134F19DC135F19EC136F19FC1FE
:102DD80037F156C138F191EC10F034C157F135C1D3
:102DE80058F136C159F158C1C8F159C1C9F1950E08
:102DF8000101C8190DE1C905D8A40AD0630E000164
:102E0800986F7B0E996F09EC27F0000E0101A86FEF
:102E1800030E5719D8A416D058515911D8A412D056
:102E2800CD0E0001986F7C0E996F09EC27F0000E0B
:102E38000101A86F07D0A851000AD8B454D7010AD5
:102E4800D8B4BFD7C7C151F1C8C152F1C9C153F1F4
:102E58001200000E0001AC6F000EAD6F000EAE6FD9
:102E6800000EAF6F000EB06F000EB16F070EB165A8
:102E780001D02ED0B1510E0D0A0EF326000EF42209
:102E8800000EF324D96E030EF420DA6EDE50AC5D2A
:102E9800DE50AD59DE50AE59DE50AF59D8B016D01D
:102EA800B1510E0D0A0EF326000EF422000EF32483
:102EB800D96E030EF420DA6EDECFACF0DECFADF0C3
:102EC800DECFAEF0DECFAFF0B1C0B0F0B12BCED7D1
:102ED800B0510E0D000EF324D96E030EF420DA6EF5
:102EE800A0C0DEFFA1C0DEFFA2C0DEFFA3C0DEFFE0
:102EF80020EE9AF0B0510E0D040EF326000EF422C7
:102F0800000EF324E16E030EF420E26E050EDBCF13
:102F1800E3FFE806FCE2B0510E0D0A0EF326000EA0
:102F2800F422000EF324D96E030EF420DA6EA4C046
:102F3800DEFFA5C0DEFFA6C0DEFFA7C0DEFF9A0E3B
:102F4800606F000E616FB0EC29F00001D8A009D0C5
:102F5800A00E606F000E616FC8EC29F00001D8B0B8
:102F680012000E0E986F7D0E996F09EC27F0A0C025
:102F780073F0A1C074F0A2C075F0A3C076F0C9ECDC
:102F880013F073C098F074C099F009EC27F00B0E99
:102F98000001986F7D0E996F09EC27F020EE9AF0EA
:102FA80000EE7AF0050EDBCFEBFFE806FCE28DECD5
:102FB8001DF07AC098F07BC099F009EC27F0ED0E6F
:102FC8000001986F7F0E996F09EC27F0120000013D
:102FD8006039F00B611177C0D9FF78C0DAFFDF6E76
:102FE80020EE01F07751D9267851DA2263C079F0C2
:102FF800030E79176245E846FC0B7911DF6E20EE67
:1030080002F07751D9267851DA226551DF6E20EE29
:1030180003F07751D9267851DA2264C0DFFF20EE19
:1030280004F07751D9267851DA226751DF6E20EE05
:1030380005F07751D9267851DA2266C0DFFF20EEF5
:1030480006F07751D9267851DA2210EE69F0E6CFEA
:1030580079F0E5CF7AF07AC079F07A6B1F0E79179C
:103068006839E846E00B7911DF6E20EE07F07751FA
:10307800D9267851DA2269C0DFFF20EE08F07751AF
:10308800D9267851DA226BC0DFFF20EE09F077519C
:10309800D9267851DA226CC0DFFF20EE0AF077518A
:1030A800D9267851DA226E51DF6E20EE0BF0775177
:1030B800D9267851DA226DC0DFFF20EE0CF0775167
:1030C800D9267851DA226FC0DFFF20EE0DF0775154
:1030D800D9267851DA2270C0DFFF20EE0EF0775142
:1030E800D9267851DA2271C0DFFF20EE0FF0775130
:1030F800D9267851DA2272C0DFFF20EE10F077511E
:10310800D9267851DA2273C0DFFF20EE11F077510B
:10311800D9267851DA2274C0DFFF20EE12F07751F9
:10312800D9267851DA2275C0DFFF20EE13F07751E7
:10313800D9267851DA2276C0DFFF12000101060590
:103148000711D8A4120073EC2BF060C034F161C0F1
:1031580035F162C036F163C037F1180E0001606FB7
:10316800010E616F340E626F010E636FAEEC28F0D2
:103178000001D8A0120005EC25F021EE20F0050E84
:10318800EBCFDBFFE806FCE221EE08F011EE26F0BB
:10319800050EDBCFE3FFE806FCE273EC2BF060C022
:1031A8002CF161C02DF162C02EF163C02FF10EC168
:1031B80030F10FC131F110C132F111C133F1060EF6
:1031C80001013C6F040E3D6F000E396F010E386F20
:1031D800080E3B6F000E3A6F000E3F6F020E3E6FF7
:1031E8002CC146F12DC147F12EC148F12FC149F13B
:1031F80021EE20F011EE40F0050EDBCFE3FFE806EC
:10320800FCE230C150F131C151F132C152F133C148
:1032180053F121EE26F011EE4AF0050EDBCFE3FF65
:10322800E806FCE221EE38F000EEA7F01F0EDBCF37
:10323800EBFFE806FCE230EC0EF0C90E0001986FD7
:103248007E0E996F09EC27F021EE4AF000EE7AF035
:10325800050EDBCFEBFFE806FCE28DEC1DF07AC033
:1032680098F07BC099F009EC27F0320E0001986FB6
:103278007E0E996F09EC27F050C173F051C174F0BC
:1032880052C175F053C176F0C9EC13F073C098F0D1
:1032980074C099F009EC27F0FA0E0001986F7F0EC0
:1032A800996F09EC27F01200040E00019F6F000EC1
:1032B800A16F000EA06F3CC0D9FF3DC0DAFF030E1E
:1032C800DE18D8A498D04FB070D095D03CC0D9FFA4
:1032D8003DC0DAFFDECF9FF0DECFA0F0DDCFA1F05A
:1032E800AC0E986F7C0E996F09EC27F098C1A4F189
:1032F80099C1A5F19AC1A6F19BC1A7F14F909FC0B2
:103308009AF0A0C09BF0A1C09CF012003CC0D9FF6D
:103318003DC0DAFFDECF9FF0DECFA0F0DDCFA1F019
:103328009FC09AF0A0C09BF0A1C09CF01200010EB3
:103338000001A16FF50EA06FA20E986F7D0E996F18
:1033480009EC27F04F909FC09AF0A0C09BF0A1C055
:103358009CF012009FC09AF0A0C09BF0A1C09CF006
:1033680012003CC0D9FF3DC0DAFFDECF9FF0DECFB0
:10337800A0F0DDCFA1F04F909FC09AF0A0C09BF0C5
:10338800A1C09CF012004F903CC0D9FF3DC0DAFFAD
:10339800DECF9FF0DECFA0F0DDCFA1F09FC09AF086
:1033A800A0C09BF0A1C09CF0120020EE01F03C50A0
:1033B800D9263D50DA22DECF9DF0DDCF9EF09E511A
:1033C800000AD8B404D0010AD8B406D0DCD79D517D
:1033D800000AD8B47BD7D7D79D51910AD8B496D7CD
:1033E800020AD8B4B7D7060AD8B4A1D7030AD8B402
:1033F800B8D7650AC8D7020EA16F570EA06F9FC035
:103408009AF0A0C09BF0A1C09CF01200FFEC27F03E
:103418006EC080F06FC081F0000181AD03D07A6B7F
:103428007A2B02D000017A6B7E517A19FE0B7A1939
:103438007E6F81AB03D07A6B7A2B02D000017A6B56
:103448007A477E517A19FD0B7A197E6F81A903D0CC
:103458007A6B7A2B02D000017A6B7A477A477E51D1
:103468007A19FB0B7A197E6F81A703D07A6B7A2BB6
:1034780002D000017A6B7A477A477A477E517A19E7
:10348800F70B7A197E6F80AD03D07A6B7A2B02D056
:1034980000017A6B7A3B7E517A19EF0B7A197E6FAD
:1034A80080AB03D07A6B7A2B02D000017A6B7A3B1F
:1034B8007A477E517A19DF0B7A197E6F9EA803D05E
:1034C8007A6B7A2B02D000017A6B010E7B6F000EAB
:1034D8007C6F7A2B03D0D8907B377C377A2FFBD739
:1034E800000180517B1781517C177B517C11D8B426
:1034F80003D07D6B7D2B02D000017D6B7D3B7D472A
:103508007D477E517D19BF0B7D197E6F80A503D045
:103518007A6B7A2B02D000017A6B7A337A337E5138
:103528007A197F0B7A197E6F80A303D07A6B7A2B76
:1035380002D000017A6B7F517A19FE0B7A197F6FDE
:1035480080A103D07A6B7A2B02D000017A6B7A477C
:103558007F517A19FD0B7A197F6F7EC078F07FC092
:1035680079F01200000120EE04F0A751D926A851E5
:10357800DA22DECFA9F0DDCFAAF0080EA927000EC7
:10358800AA2320EE20F0A751D926A851DA22A9C0F3
:10359800DEFFAAC0DDFF20EE2EF0A751D926A851E4
:1035A800DA22000EDE6E080EDD6E200EA725A26F51
:1035B800000EA821A36F07EC1FF0000120EE36F0E3
:1035C800A751D926A851DA2210EE1DF0A751E126FD
:1035D800A851E222DFCFE7FF20EE37F0A751D92626
:1035E800A851DA2210EE1EF0A751E126A851E222D6
:1035F800DFCFE7FF20EE38F0A751D926A851DA220D
:1036080010EE1FF0A751E126A851E222DFCFE7FF15
:1036180020EE30F0A751D926A851DA22DECFA9F042
:10362800DDCFAAF0080EA927000EAA2320EE17F076
:10363800A751D926A851DA22A9C0DEFFAAC0DDFF0A
:1036480020EE32F0A751D926A851DA2210EE19F04F
:10365800A751E126A851E222DECFE6FFDDCFE5FF44
:10366800F80EA96FFF0EAA6F20EE34F0A751D926E5
:10367800A851DA22DECFABF0DDCFACF0A951AB27F1
:10368800AA51AC2320EE1BF0A751D926A851DA2263
:10369800ABC0DEFFACC0DDFF1200A30E0001986FC7
:1036A8007F0E996F09EC27F028D0B80E0001986FAB
:1036B8007E0E996F09EC27F050D02C0E0001986F00
:1036C8007D0E996F09EC27F048D0820E0001986FA3
:1036D8007E0E996F09EC27F040D0160E0001986F06
:1036E8007F0E996F09EC27F038D0F80E0001986F1B
:1036F8007E0E996F09EC27F030D000019A51000A2C
:10370800D8B4D3D7010AD8B4D8D7030AD8B4DDD7E8
:10371800010AD8B4E2D7070AD8B4E7D71ED0D70E23
:10372800986F7B0E996F09EC27F030D04E0E000190
:10373800986F7A0E996F09EC27F028D08A0E00014D
:10374800986F7C0E996F09EC27F04A0E0001986F6C
:103758007D0E996F09EC27F019D020EE9BF0DECF93
:103768009DF0DDCF9EF000019E51010AD8A4EDD74F
:103778009D512D0AD8B4DAD7030AD8B4D0D7A10AF4
:10378800D8B4E3D71C0AD8B4D9D7DFD7890E00013B
:10379800986F7F0E996F09EC27F09BC084F09CC04E
:1037A80085F00001866B876B97EC29F084C098F050
:1037B80085C099F009EC27F0CE0E0001986F7F0EB6
:1037C800996F09EC27F012000001766F000176511D
:1037D8001F0B776F010E786F000E796F000E7A6FEE
:1037E800000E7B6F000E7C6F770E6A6F000E6B6F9A
:1037F800540E61EC29F0780E00016A6F000E6B6FB1
:10380800550E61EC29F07F0E00016A6F000E6B6F98
:10381800520E7CEC29F000017F817F0E6A6F000E4A
:103828006B6F520E61EC29F0450EE82EFED700F0C2
:103838007F0E00016A6F000E6B6F6A0E7CEC29F038
:10384800010E00017927000E7A237B237C237FA1B8
:1038580008D07C517B1105E179290F0E7A59D8A03F
:10386800E7D77C517B1140E179290F0E7A59D8B0FE
:1038780012007F0E6A6F000E6B6F520E7CEC29F0FF
:1038880000017F917F0E6A6F000E6B6F520E61EC24
:1038980029F07D0E00016A6F000E6B6F680E7CECDC
:1038A80029F07E0E00016A6F000E6B6F690E7CECCA
:1038B80029F0000E0001706FFF0E716F7E51736F5B
:1038C800726B70517217715173177D51746F756BEC
:1038D80072517413735175136EC0D9FF6FC0DAFF3C
:1038E80074C0DEFF75C0DDFF120000017B51721944
:1038F80004E17C517319D8B429D07D51741904E1BD
:103908007E517519D8B422D072517D1904E17351D2
:103918007E19D8B41BD07B51741904E17C517519F8
:10392800D8B414D07405300E7559D8B00FD07205BC
:10393800300E7359D8B00AD07D05300E7E59D8B0F4
:1039480005D07B05300E7C59D8A002D0D880120053
:103958007451725D75517359D8B03BD07D517B5D00
:103968007E517C59D8B02BD07B51725D7C517359F4
:10397800D8B00AD074517B5D75517C59D8B002D04B
:10398800D8801200D890120020EE7BF000EE60F094
:10399800080EDBCFEBFFE806FCE220EE72F000EE4B
:1039A80069F0080EDBCFEBFFE806FCE23EEC20F006
:1039B8000001D8B002D0D8901200D88012007251FD
:1039C8007D5D73517E59D8B002D0D8901200D8804E
:1039D800120020EE7BF000EE60F0080EDBCFEBFF6C
:1039E800E806FCE220EE72F000EE69F0080EDBCF8C
:1039F800EBFFE806FCE23EEC20F00001D8B002D074
:103A0800D8901200D8801200000E0001726F4DC0CD
:103A180073F04EC074F040C075F041C076F0010EEE
:103A2800776F000E796F000E786F050E72615FD0A8
:103A3800730E6A6F000E6B6F160E61EC29F0740E30
:103A480000016A6F000E6B6F170E61EC29F0750E9E
:103A580000016A6F000E6B6F160E7CEC29F0760E73
:103A680000016A6F000E6B6F170E7CEC29F00001E5
:103A780073517519D8A438D074517619D8A434D094
:103A8800CA0E53EC2BF0420EE82EFED700D0750E6E
:103A980000016A6F000E6B6F160E7CEC29F0760E33
:103AA80000016A6F000E6B6F170E7CEC29F00001A5
:103AB8007551D8A40DD07651D8A40AD0030E0001B0
:103AC800716FA70EE82EFED7712FFCD700D005D056
:103AD800010E0001796F2E0E786F77C06EF078C0F6
:103AE8006FF079C070F012000001722B0BD0010E3C
:103AF800796F2E0E786F77C06EF078C06FF079C04E
:103B080070F0120077C06EF078C06FF079C070F076
:103B1800120022EEDEF010EE81F0110EDBCFE3FF93
:103B2800E806FCE2000E0001976F000E966F000E8B
:103B3800956F96BF06D096516BE1060E955DD8B08D
:103B480067D07A0E9525D96E000E9621DA6EDF5071
:103B5800806F80390F0B0F0B936F7A0E9525D96EF6
:103B6800000E9621DA6EDF500F0B946F300E9327FC
:103B7800300E9427390E93650CD09751010D810EA4
:103B8800F324D96E000EF420DA6E9351070FDF6E1E
:103B98000AD09751010D810EF324D96E000EF4203E
:103BA800DA6E93C0DFFF972B390E94650CD09751CE
:103BB800010D810EF324D96E000EF420DA6E9451B3
:103BC800070FDF6E0AD09751010D810EF324D96ECD
:103BD800000EF420DA6E94C0DFFF972B96BF06D054
:103BE80096510FE1050E955DD8B00BD09751010D98
:103BF800810EF324D96E000EF420DA6E3A0EDF6ED1
:103C0800972B954B962B96BF9CD7965101E195D74C
:103C1800810E7A6F000E7B6F12006FC075F070C056
:103C280076F071C077F072C078F075C060F076C039
:103C380061F077C062F078C063F073C064F074C05C
:103C480065F00001000E65BFFF0E666F676F57ECE9
:103C580023F060C075F061C076F062C077F063C091
:103C680078F000016D4B6E2B755176117711781134
:103C7800D8A4DBD76DC0D9FF6EC0DAFF000EDF6EA7
:103C88006D07D8A06E076FC060F070C061F071C09A
:103C980062F072C063F073C064F074C065F0000E27
:103CA80065BFFF0E666F676F1DEC26F0000160515F
:103CB800796F6FC060F070C061F071C062F072C05F
:103CC80063F073C064F074C065F0000E65BFFF0E4A
:103CD800666F676F57EC23F060C06FF061C070F0DB
:103CE80062C071F063C072F0090E0001796502D0FC
:103CF800070E7927300E79276DC0D9FF6EC0DAFF1D
:103D080079C0DFFF6D07D8A06E076F517011711170
:103D18007211D8B41200B7D7000E0001696F645150
:103D2800631103E16205D8A02FD06951010DAD0ED2
:103D3800F324D96E010EF420DA6E61C065F062C01A
:103D480066F063C067F064C068F00D0E05D0D890C7
:103D58006833673366336533E82EF9D765510F0B3F
:103D680009EC2BF0DF6E0001692B6951010DAD0ED6
:103D7800F324D96E010EF420DA6E62510F0B09ECB0
:103D88002BF0DF6E0001692B6951010DAD0EF32494
:103D9800D96E010EF420DA6E61C065F062C066F07B
:103DA80063C067F064C068F0050E05D0D89068332A
:103DB800673366336533E82EF9D765510F0B09EC85
:103DC8002BF0DF6E0001692B6951010DAD0EF32454
:103DD800D96E010EF420DA6E61510F0B09EC2BF04D
:103DE800DF6E0001692B6951010DAD0EF324D96E08
:103DF800010EF420DA6E000EDF6E692BAD0E616FD6
:103E0800010E626F1200020E0001A46F000EA66F71
:103E1800000EA56FA2C0D9FFA3C0DAFFDECF84F0E1
:103E2800DDCF85F0FFEC02F0000120EE10F0A2518A
:103E3800D926A351DA22080EEBCFDBFFE806FCE215
:103E480020EE17F0A251D926A351DA22DF50D8B4B8
:103E580007D0000EA46F000EA66F650EA56F1200A6
:103E680020EE16F0A251D926A351DA22DF50D8A4A9
:103E780007D0000EA46F000EA66FC70EA56F120024
:103E880020EE08F0A251D926A351DA2200EE6FF0F5
:103E9800050EDBCFEBFFE806FCE220EE10F0A251A6
:103EA800D926A351DA2200EE75F0080EDBCFEBFF1E
:103EB800E806FCE299EC23F0000120EE0EF0A25196
:103EC800D926A351DA22DECF6FF0DDCF70F020EED5
:103ED80010F0A251D926A351DA2200EE71F0080E93
:103EE800DBCFEBFFE806FCE2B1EC27F012009AC04A
:103EF800D9FF9BC0DAFF10EE9EF0160EDBCFE3FF72
:103F0800E806FCE2000E0001AC6F000EAB6F9E0EDF
:103F1800606F000E616F44EC0BF0000120EE0DF0B5
:103F28009A51D9269B51DA22DE50AB1906E1DE50B0
:103F3800AC19D8A402D0D8801200610E986F7F0EF9
:103F4800996F09EC27F0ABC061F0ACC062F00001DA
:103F5800636B646B90EC1EF061C098F062C099F0DE
:103F680009EC27F0AB0E0001986F7F0E996F09ECF2
:103F780027F0000120EE0DF09A51D9269B51DA2244
:103F8800DECF9CF0DDCF9DF09CC061F09DC062F05B
:103F9800636B646B90EC1EF061C098F062C099F09E
:103FA80009EC27F0FA0E0001986F7F0E996F09EC63
:103FB80027F0D890120045C011F0010E126E112A98
:103FC80002D0D8901236112EFCD71250FF0A821652
:103FD800000E806E020E456007D0010E4524136E58
:103FE800146A000E142204D0000E146E000E136E14
:103FF80013C045F0E80E0F5C030E1058D8B012003D
:10400800000E156E020E156401D013D01550010D67
:10401800390EF324D96E000EF420DA6E0FC008F0C2
:1040280010C009F015C00AF0D9EC23F0DF6E152A8C
:10403800E9D745C011F0010E126E112A02D0D890AE
:104048001236112EFCD7125082124550010D390E2E
:10405800F324D96E000EF420DA6EDF50116E115081
:10406800010DCB0EF324D96E010EF420DA6EDF5069
:10407800806E120000016951601904E16A516119EA
:10408800D8B429D06B51621904E16C516319D8B4C2
:1040980022D060516B1904E161516C19D8B41BD05E
:1040A8006951621904E16A516319D8B414D06205E0
:1040B800300E6359D8B00FD06005300E6159D8B0B2
:1040C8000AD06B05300E6C59D8B005D06905300E92
:1040D8006A59D8A002D0D88012006251605D63513D
:1040E8006159D8B01ED06B51695D6C516A59D8B00E
:1040F80010D06951605D6A516159D8B012D06251CF
:10410800695D63516A59D8B002D0D8801200D8903E
:10411800120060516B5D61516C59D8A0F8D7D880F6
:104128001200D8801200000E0001756F070E756529
:1041380001D050D075510E0D000EF324606F030EA0
:10414800F420616F670E626F000E636FAEEC28F0AB
:104158000001D8A03DD075510E0D0A0EF326000EB1
:10416800F422000EF324D96E030EF420DA6EDECFAB
:104178006DF0DECF6EF0DECF6FF0DECF70F06D1F2A
:104188006E1F6F1F701F6D2B000E6E236F23702321
:104198008EEC2BF000016D516025716F6E5161211D
:1041A800726F6F516221736F70516321746F745114
:1041B80073110EE1300E715D750E7259D8B008D0CA
:1041C8006BC0D9FF6CC0DAFF75C0DFFF010E1200AB
:1041D800752BACD7000E12001F0E076E000E086E6E
:1041E800000E096E000E0A6EFF0E036E030E046EBB
:1041F800000E056E000E066E81BA07D0010E2D2640
:10420800000E2E222F22302208D0000E2D6E000E16
:104218002E6E000E2F6E000E306E07502D5C08506B
:104228002E5809502F580A503058D8A002D0010EE5
:1042380001D0000E466E4650D8B411D04750D8A4CD
:104248000ED007C02DF008C02EF009C02FF00AC00C
:1042580030F001C0D9FF02C0DAFF010E05D001C05D
:10426800D9FF02C0DAFF000EDF6E2D50035C2E501E
:1042780004582F50055830500658D8A0FF0046C0A3
:1042880047F012000201485100019A19D8B441D0F0
:104298009A51D8A407D0240E986F7F0E996F09EC15
:1042A80027F00AD000019A05D8A406D06F0E986F9F
:1042B8007E0E996F09EC27F000019A05D8A429D041
:1042C8009B51D8A407D05C0E986F7E0E996F09ECAD
:1042D80027F00AD000019B05D8A406D0210E986FBC
:1042E8007E0E996F09EC27F000019C51D8A407D0E5
:1042F800680E986F7D0E996F09EC27F00AD00001BF
:104308009C05D8A406D0850E986F7D0E996F09EC90
:1043180027F020EE9AF012EE48F00E0EDBCFE3FF06
:10432800E806FCE21200F00EF66E550EF76E000E6F
:10433800F86E02EEDEF010EE22F00900F5CFEEFF87
:10434800E550E150FAE1760EF66E570EF76E000E64
:10435800F86E01EECBF010EE0CF00900F5CFEEFF91
:10436800E550E150FAE1A80EF66E570EF76E000E12
:10437800F86E00EE49F010EE06F00900F5CFEEFFFA
:10438800E550E150FAE103EE00F0A20EEE6AE8060D
:10439800FDE102EE00F0DE0EEE6AE806FDE101EE58
:1043A80094F0370EEE6AE806FDE14F6A00EE29F058
:1043B800200EEE6AE806FDE150905092000EF86E6D
:1043C80000016DEF05F02BEC2BF008EC1DF06EC032
:1043D8007DF06FC07EF070C07FF000017E517F11CC
:1043E800D8B407D07DC07AF07EC07BF07FC07CF067
:1043F8001200D8EC27F06EC07DF06FC07EF070C060
:104408007FF000017E517F11D8B407D07DC07AF0CB
:104418007EC07BF07FC07CF01200300E6F6F000E04
:104428006E6F36EC2AF0300E0001616F000E606F7F
:10443800CBEC2BF05F0E00016F6FFE0E6E6F21EC60
:104448002AF0D0EC2BF087EC2AF0010E00017D6FEA
:10445800000E7F6F000E7E6F7DC07AF07EC07BF00D
:104468007FC07CF0120005EC25F021EE08F0050E67
:10447800EBCFDBFFE806FCE20E0E0001606F010ED9
:10448800616FAEEC2AF0060E0101186F040E196F69
:10449800000E156F010E146F080E176F000E166FC1
:1044A800000E1B6F010E1A6F00C122F101C123F12A
:1044B80002C124F103C125F121EE08F011EE1CF030
:1044C800050EDBCFE3FFE806FCE204C12CF105C1D1
:1044D8002DF106C12EF107C12FF121EE0EF011EEDC
:1044E80026F0050EDBCFE3FFE806FCE221EE14F030
:1044F80000EEA7F01F0EDBCFEBFFE806FCE230EC86
:104508000EF0120000016F6F700E00016A6F000E4E
:104518006B6F750E7CEC29F000016F05D8B40BD0D9
:1045280015D0F00E701770812CD0F00E18D0F00E48
:104538007017060E19D06E51000AD8B4F6D7010AC2
:10454800D8B4EFD7030AD8B4F2D7EBD76F51D8B4A1
:104558000DD017D00F0E7017708913D00F0E70176B
:1045680010D00F0E7017600E70130BD06E51000A2A
:10457800D8B4F4D7010AD8B4EDD7030AD8B4F1D720
:10458800E9D7700E6A6F000E6B6F750E61EC29F03B
:104598001200820E00016A6F000E6B6F1B0E7CEC1E
:1045A80029F0000182A106D080C0D9FF81C0DAFFBE
:1045B800010E05D080C0D9FF81C0DAFF000EDF6E82
:1045C800830E6E6F000E6F6F1F0EE8EC1BF000017C
:1045D80083A708D020EE01F08051D9268151DA2234
:1045E800010E07D020EE01F08051D9268151DA2240
:1045F800000EDF6E83A909D020EE02F08051D92683
:104608008151DA22010EDF6E120020EE02F0805195
:10461800D9268151DA22000EDF6E12000001706F78
:10462800080E000170611ED0710E6A6F000E6B6F6C
:104638001C0E7CEC29F070C06EF0010E00016F6F4B
:104648006E2B02D0D8906F376E2FFCD700016F51B8
:10465800FF0A7117710E6A6F000E6B6F1C0E61EC0A
:1046680029F01200080E0001705F710E6A6F000ECB
:104678006B6F1D0E7CEC29F070C06EF0010E00010E
:104688006F6F6E2B02D0D8906F376E2FFCD700015A
:104698006F51FF0A7117710E6A6F000E6B6F1D0E56
:1046A80061EC29F01200000E0001686F000E696FBE
:1046B800000E6A6F000E6B6F645165116611671109
:1046C800D8B42AD0010E6C6F06D0D89064376537FD
:1046D800663767376C2B67AFF8D7D8906837693774
:1046E8006A376B376451605D65516159665162592B
:1046F80067516359D8A009D06451605F6551615B07
:104708006651625B6751635B6881D8906733663333
:10471800653364336C2FE1D768C060F069C061F01D
:104728006AC062F06BC063F0120075C06AF076C0B0
:104738006BF0EDEC28F0000E0001866F050E866523
:1047480001D014D08651010D6F0EF324D96E000EDE
:10475800F420DA6E8651010D7E0EF324E16E000E10
:10476800F420E26EDFCFE7FF862BE8D72A0E846FAE
:104778008198840E606F000E616F51EC26F0000E78
:104788000001856F050E856501D00DD08551010D9D
:104798007E0EF324606F000EF420616F51EC26F05A
:1047A8000001852BEFD78188120008C001F009C0ED
:1047B80002F0000E046E640E036E88EC27F00150C0
:1047C8000E6E0E50640DF31EF41EF34AF42A0850C0
:1047D800F324016E0950F420026E000E046E0A0ED6
:1047E800036E88EC27F001500D6E0D500A0DF3CFC3
:1047F8000BF00E50640DF3500B24000808240C6EC7
:1048080008D00C5012000D5012000E501200000E6D
:1048180012000A50000AD8B4F8D7010AD8B4F3D75E
:10482800030AD8B4EED7F3D7C6EC2BF060C075F006
:1048380061C076F075C06AF076C06BF00BEC29F0B9
:104848002C0E0001776F8198770E606F000E616FF4
:1048580051EC26F0780E0001606F000E616FE8ECF5
:1048680025F0790E0001606F000E616FE8EC25F00D
:104878008188000E00016F6FFF0E706F7951726FA3
:10488800716B6F517117705172177851736F746B28
:1048980071517311606F72517411616FCBEC2BF011
:1048A800120000017C6F3E503F10D8A410D06FC09A
:1048B8006AF070C06BF0EDEC28F02A0E00017D6FF5
:1048C80081987D0E606F000E616F51EC26F07C0EB2
:1048D8000001606F000E616F51EC26F0FF0E0001C1
:1048E800786FFF0E796F20EE73F0DECF7AF0DDCFB0
:1048F8007BF078517A2779517B233E507A190AE167
:104908003F507B19D8A406D08188000E3F6E000E58
:104918003E6E12003E4A3F2A1200020E0001712527
:104928006A6F000E72216B6F0BEC29F02C0E0001E0
:10493800766F8198760E606F000E616F51EC26F0ED
:10494800000E0001776F050E776501D00DD0775105
:10495800010DC10EF324606F010EF420616FE8ECC5
:1049680025F00001772BEFD78188C10E606F010E0B
:10497800616FB6EC09F0E9CFD9FFEACFDAFF00EEB4
:1049880071F0040EDBCFEBFFE806FCE21200B20E7A
:104998000001606F000E616FAEEC2AF0B80E0001E6
:1049A800606F000E616F9BEC2AF0000E0001BC6F77
:1049B800070EBC6501D01ED020EEB2F000EE9AF0D2
:1049C800050EDBCFEBFFE806FCE2B8C0A0F0B9C0EB
:1049D800A1F0BAC0A2F0BBC0A3F0FF0EA46FFF0EF7
:1049E800A56FFF0EA66FFF0EA76F2DEC17F0000145
:1049F800BC2BDED78A0E986F7B0E996F09EC27F0D7
:104A08001200740E00016A6F000E6B6F640E7CEC6E
:104A180029F0750E00016A6F000E6B6F650E7CEC55
:104A280029F0760E00016A6F000E6B6F620E7CEC47
:104A380029F0770E00016A6F000E6B6F630E7CEC35
:104A480029F0780E00016A6F000E6B6F600E7CEC27
:104A580029F0790E00016A6F000E6B6F610E7CEC15
:104A680029F020EE74F000EE6EF0050EDBCFEBFFC0
:104A7800E806FCE21200000E0001736F6FAF06D06B
:104A88006E6D6F1FD8B06F2B010E736F71AF04D0AE
:104A9800706D711FD8B0712B70517111D8B418D0C6
:104AA800010E726F04D0D89070377137722B71AFC6
:104AB800FAD770516E5D71516F59D8A004D07051FA
:104AC8006E5F71516F5BD89071337033722FF1D76D
:104AD8007351D8B404D06E6D6F1FD8B06F2B6EC0F1
:104AE8006EF06FC06FF01200000E00017D6F000EB7
:104AF8007C6F140E6F256A6F000E70216B6F0BECC4
:104B080029F02C0E00017E6F81987E0E606F000EDA
:104B1800616F51EC26F0800E0001606F000E616F2E
:104B2800E8EC25F07F0E0001606F000E616FE8EC85
:104B380025F000018051796F786B7F517A6F7B6B1C
:104B480078517A117C6F79517B117D6F81887CC097
:104B58006FF07DC070F012000E0E00016F256A6FB5
:104B6800000E70216B6F0BEC29F02C0E0001786F92
:104B78008198780E606F000E616F51EC26F0000E80
:104B88000001806F050E806501D013D07F0E606F25
:104B9800000E616FE8EC25F000018051010D790EDF
:104BA800F324D96E000EF420DA6E7FC0DFFF802B6D
:104BB800E9D7818820EE79F000EE6FF0050EDBCFA3
:104BC800EBFFE806FCE21200000E0001666F000E23
:104BD800676F000E686F000E696F000EC96EC7B070
:104BE80015D066C062F067C063F068C064F069C041
:104BF80065F0662B000E67236823692365516411ED
:104C080005E162290F0E6359D8A0E9D769516811E7
:104C180005E166290F0E6759D8A004D081882BECCE
:104C28002BF0120060C0D9FF61C0DAFFC9CFDFFFE7
:104C3800120000016451651166116711D8B424D0BF
:104C4800010E686F06D0D8906437653766376737C6
:104C5800682B67AFF8D76451605D6551615966513B
:104C6800625967516359D8A008D06451605F655193
:104C7800615B6651625B6751635BD89067336633EB
:104C880065336433682FE7D760C060F061C061F0B6
:104C980062C062F063C063F01200000E0001666F2C
:104CA800000E676F000E686F000E696F60C0D9FF55
:104CB80061C0DAFFDF50C96EC7B015D066C062F0B8
:104CC80067C063F068C064F069C065F0662B000EC9
:104CD8006723682369236551641105E162290F0E72
:104CE8006359D8A0E9D76951681105E166290F0E03
:104CF8006759D8A0120081882BEC2BF01200000114
:104D0800716F1FD06FC06AF070C06BF00BEC29F0A8
:104D18002C0E0001726F8198720E606F000E616F29
:104D280051EC26F0000E1200730E0001606F000EA9
:104D3800616FE8EC25F00001735112008188000EC4
:104D4800120000017151000AD8B4DCD7010AD8B4A6
:104D5800EBD7030AD8B4F2D7000E1200000E0001F8
:104D6800686F000E696F000E6A6F000E6B6F60A1AE
:104D780008D0645168276551692366516A236751D1
:104D88006B23D8906437653766376737D8906333B5
:104D98006233613360336051611162116311D8A4C9
:104DA800E6D768C060F069C061F06AC062F06BC0A5
:104DB80063F0120049C060F04AC061F04BC062F075
:104DC8004CC063F06D0E0001646F4E0E656FC60E29
:104DD800666F410E676FB2EC26F060C049F061C0A3
:104DE8004AF062C04BF063C04CF0390E4926300ED1
:104DF8004A22000E4B22000E4C22FF0E4B140001DB
:104E08006C6F7F0E4C146D6F120016D098C0F6FFB1
:104E180099C0F7FFF86A070EF76403D00800F55049
:104E280005D0F6CFE9FFF7CFEAFFEF50AD6E0001EE
:104E3800984B992BACA2FED798C0F6FF99C0F7FF04
:104E4800F86A070EF76403D00800F55005D0F6CFCE
:104E5800E9FFF7CFEAFFEF500009D8B41200D6D720
:104E68007AC082F07BC083F000017FAF10D07AC097
:104E7800D9FF7BC0DAFF2D0EDF6E7A4B7B2B7F1FAD
:104E88007E1F7D1F7C6D000E7D237E237F237AC0CD
:104E98006DF07BC06EF07CC06FF07DC070F07EC09E
:104EA80071F07FC072F080C073F081C074F011ECB3
:104EB8001EF01200000E0001666F000E656F625151
:104EC8006311D8B41CD0010E646F04D0D890623737
:104ED8006337642B63AFFAD7D8906537663762516A
:104EE800605D63516159D8A005D06251605F63511C
:104EF800615B6581D89063336233642FEDD765C0F9
:104F080060F066C061F01200000E066E000E056EBD
:104F180003500410D8B41CD0010E076E04D0D890EA
:104F280003360436072A04AEFAD7D8900536063673
:104F38000350015C04500258D8A005D00350015E0C
:104F48000450025A0580D89004320332072EEDD758
:104F580005C001F006C002F01200060E000171251E
:104F68006A6F000E72216B6FEDEC28F06FC07AF05B
:104F7800000170517B6F2A0E7C6F81987C0E606FE8
:104F8800000E616F51EC26F07B0E0001606F000E81
:104F9800616F51EC26F07A0E0001606F000E616FB0
:104FA80051EC26F081881200010E0001726F000E8C
:104FB800746F000E736F000E716F710E6A6F000EC2
:104FC8006B6F740E7CEC29F000017139E842070B15
:104FD800070BE806D8A404D0000E746F000E03D0A7
:104FE800010E746F2D0E736F72C06EF073C06FF088
:104FF80074C070F01200760E00016A6F000E6B6FBD
:105008001C0E7CEC29F0770E00016A6F000E6B6FA6
:105018001D0E7CEC29F0000E0001706FFF0E716F01
:105028007751736F726B7051721771517317765194
:10503800746F756B725174116E6F735175116F6F58
:1050480012000001626F15D0C90E0001606F7F0E5B
:10505800616F1200DD0E606F7F0E616F1200E10E4E
:10506800606F7F0E616F1200A70E606F7E0E616F1A
:10507800120000016251010AD8B4E6D7070AD8B471
:10508800E9D7170AD8B4EBD7EFD710D0C40E000170
:10509800606F7F0E616F1200E50E606F7F0E616FAB
:1050A8001200950E606F7E0E616F120060C062F094
:1050B80061C063F000016351080AD8A4F2D76251B5
:1050C800000AD8B4E3D7060AD8B4E6D7EAD700016D
:1050D80070517111D8B418D0010E726F04D0D890E5
:1050E80070377137722B71AFFAD770516E5D71518D
:1050F8006F59D8A004D070516E5F71516F5BD89012
:1051080071337033722FF1D76EC06EF06FC06FF0CD
:105118001200000E0001666F050E666501D018D0FA
:105128006651010DF3506225D96EF4506321DA6E91
:105138006651010DF3506025E16EF4506121E26E75
:10514800DE50E618D8B402D0D8901200662BE4D707
:10515800D8801200000E0001666F030E666501D04C
:1051680018D06651010DF3506225D96EF4506321B1
:10517800DA6E6651010DF3506025E16EF45061213D
:10518800E26EDE50E618D8B402D0D8901200662B32
:10519800E4D7D8801200A6EC2BF0300E000163197A
:1051A8006211D8A407D05F0E6F6FFE0E6E6F21ECF0
:1051B8002AF00BD0A6EC2BF0FE0E000162256E6FD4
:1051C800FF0E63216F6F21EC2AF0CC0E53EC2BF00D
:1051D80012006C0E00016C6F6AC06DF06B516E6F3F
:1051E80081986C0E606F000E616F51EC26F06D0EA9
:1051F8000001606F000E616F51EC26F06E0E000129
:10520800606F000E616F51EC26F081881200640E09
:1052180000016C6F6AC06DF06B516E6F81986C0EF7
:10522800606F000E616F51EC26F06D0E0001606F2B
:10523800000E616F51EC26F06E0E0001606F000EDB
:10524800616F51EC26F081881200000E0001606F3A
:10525800070E606501D013D06051090D060EF326C4
:10526800000EF422000EF324D96E020EF420DA6E3A
:10527800DF50D8A402D0D8901200602BE9D7D8808C
:105288001200000E0001606F070E606501D013D098
:105298006051090D060EF326000EF422000EF324C9
:1052A800D96E020EF420DA6EDF50D8B402D0D8904E
:1052B8001200602BE9D7D880120000016C6F220E13
:1052C80000016D6F81986D0E606F000E616F51EC7B
:1052D80026F06C0E0001606F000E616F51EC26F035
:1052E8006AC060F06BC061F051EC26F08188120052
:1052F80000016C6F200E00016D6F81986D0E606F5C
:10530800000E616F51EC26F06C0E0001606F000E0C
:10531800616F51EC26F06AC060F06BC061F0E8EC98
:1053280025F081881200B70E00017A6F010E7B6F9D
:1053380084C07CF085C07DF086C07EF087C07FF099
:10534800000E816F0A0E806F34EC27F0B70E000153
:10535800846F010E856F1200000E0001626F050E4A
:10536800626501D00FD06251010DF3506025D96EEE
:10537800F4506121DA6EDF50D8B402D0D890120010
:10538800622BEDD7D8801200000E0001626F030E69
:10539800626501D00FD06251010DF3506025D96EBE
:1053A800F4506121DA6EDF50D8B402D0D8901200E0
:1053B800622BEDD7D88012000001676F000167519A
:1053C8000E0D040EF326000EF422000EF324D96EFF
:1053D800030EF420DA6E00EE60F0050EDBCFEBFF73
:1053E800E806FCE212006EC070F000016F51716FA8
:1053F800700E6A6F000E6B6F000E61EC29F0710E73
:1054080000016A6F000E6B6F010E61EC29F012004B
:105418006EC070F000016F51716F700E6A6F000EF0
:105428006B6F020E61EC29F0710E00016A6F000EBD
:105438006B6F030E61EC29F012006EC070F0000172
:105448006F51716F700E6A6F000E6B6F060E61EC14
:1054580029F0710E00016A6F000E6B6F070E61EC88
:1054680029F012006EC070F000016F51716F700E5C
:105478006A6F000E6B6F040E61EC29F0710E00016B
:105488006A6F000E6B6F050E61EC29F012000001C7
:10549800C26F82C0C0F083C0C1F020EE95F000EE6C
:1054A8006FF0080EDBCFEBFFE806FCE20001C2510B
:1054B80055EC24F01200000160516203F3CF64F050
:1054C800F4CF65F060516303F350652761516203BF
:1054D800F350652764C060F065C061F0120072C0C7
:1054E8006EF073C06FF0F7EC29F076C06EF077C0FD
:1054F8006FF00CEC2AF0D40E53EC2BF000017A512B
:10550800D4EC2AF01200000E00016E6F6E0E6A6F66
:10551800000E6B6F6F0E7CEC29F000016E8B6E0E27
:105528006A6F000E6B6F6F0E61EC29F01200000EAF
:105538000001626F030E626501D012006251010D15
:10554800F3506025D96EF4506121DA6E000EDF6EDB
:10555800622BF0D7000E0001626F050E626501D064
:1055680012006251010DF3506025D96EF45061218B
:10557800DA6E000EDF6E622BF0D7000E0001626F4C
:10558800050E626501D012006251010DF3506025CD
:10559800D96EF4506121DA6EFF0EDF6E622BF0D700
:1055A8000001606F00016051090D060EF326000E20
:1055B800F422000EF324D96E020EF420DA6E000EE7
:1055C800DF6E1200090EF66E7A0EF76E20EE62F0AC
:1055D8000A0E0900F5CFDEFFE806FBE2620E0001C5
:1055E800606F000E616F12003F3F3A3F3F3A3F3F06
:1055F8003A3F3F3A3F3F3A3F3F003F3F3F2E3F3F12
:105608003F2E3F3F3F2E3F3F3F000001606F0A0E95
:105618000001606103D06051300F1200100E60610C
:1056280003D06051370F1200000E12009AC084F0A8
:105638009BC085F09CC086F09DC087F097EC29F050
:1056480084C098F085C099F009EC27F01200C69A3A
:10565800C78C93800F015C9193925C9393965C97AF
:1056680093985C998188C68A1200F80E8216F80E03
:105678009416000E926E000E0F015B6FF80E5D1708
:1056880080681200000E00016E6F6E0E6A6F000EC9
:105698006B6F1A0E7CEC29F000016E5112000001AC
:1056A8006A6F81986A0E0001606F000E616F51EC9D
:1056B80026F08188120060C098F161C099F162C03B
:1056C8009AF163C09BF14F80120060C03CF061C04A
:1056D8003DF04FB002D0D8901200D8801200A4C17B
:1056E80060F0A5C161F0A6C162F0A7C163F0120025
:1056F80046EC2BF00009D8B402D0010E1200000EBF
:10570800120098C160F099C161F09AC162F09BC122
:1057180063F0120029C060F02AC061F02BC062F06B
:105728002CC063F01200AC8AAC98AB8EAC8CAC8009
:10573800030EAF6E12007AC049F07BC04AF04B6A84
:105748004C6A1200C6EC2BF060C062F061C063F0D6
:1057580012000001726F0001725112EC23F0120066
:10576800010E2926000E2A222B222C2212003F0687
:105778005B4F666D7D077F6F0040CBEC24F0D7EC64
:105788002BF0120042C060F043C061F0120060C00C
:1057980042F061C043F01200E80E53EC2BF0120007
:0A57A8000100000012344F901200BF
:107A080000454E433432344A363030005B415250E0
:107A18005D3A204F7065726174696F6E207761738B
:107A280020696E746572727570746564206265632E
:107A380061757365206C696E6B20776173206C6F5C
:107A480073742E0A0D0045746865726E6574206340
:107A58006F6E74726F6C6C657220686173207265EA
:107A68007475726E656420616E20756E6B6E6F77CB
:107A78006E206465766963652049442E002D2D2D9E
:107A88002D2D2D2D2D2D2D2D2D2D2D2D2D2D2D2D1E
:107A98002D2D2D2D2D2D2D2D2D2D2D2D2D2D2D2D0E
:107AA8002D2D2D2D2D2D2D2D2D2D2D2D2D0A0D006E
:107AB800072A2A2A20435249544943414C20455217
:107AC800524F523A205741544348444F472043416C
:107AD80055534544205245534554202A2A2A0A0D15
:107AE800005B4152505D3A2053656E64696E6720B1
:107AF800477261747569746F7573204152502072B2
:107B080065717565737420666F7220005B495076E5
:107B1800345D3A205061636B65742077617320731C
:107B2800656E74207375636365737366756C6C79C1
:107B38002E0A0D005B496E76616C696420415250D3
:107B4800204D65737361676520776173206469737D
:107B58006361726465642E5D0D0A005B4152505D7D
:107B68003A20436F6E666C69637420647572696E3F
:107B78006720616E6E6F756E63656D656E742E0A33
:107B88000D005B4152505D3A205461626C6520776C
:107B980061732072657365742073756363657373AD
:107BA80066756C6C792E0A0D005B495076345D3A27
:107BB800204164647265737320636F6E666C6963D9
:107BC800742064657465637465642E200A0D00452D
:107BD800746865726E657420636F6E74726F6C6C16
:107BE800657220697320756E726573706F6E736944
:107BF80076652E005B495076345D3A20536574747F
:107C0800696E67204950763420537263204164645A
:107C18007265737320746F20005B4152505D3A2087
:107C28004E6F626F647920616E7377657265642048
:107C3800746F2070726F6265732E0A0D005B41527B
:107C4800505D3A20416E20756E6B6E6F776E2065C1
:107C580072726F72206F6363757265642E0A0D000D
:107C68005B4152505D3A20436F6E666C69637420C5
:107C7800647572696E672070726F62696E672E0A2A
:107C88000D004950206164647265737320636F75D9
:107C98006C64206E6F74206265207265736F6C76F9
:107CA80065642E005B495076345D3A20415250207D
:107CB80070726F6365737320636F6D706C65746544
:107CC800642E0A0D005B4152505D3A20416C6C20D5
:107CD800616E6E6F756E63656D656E747320736526
:107CE8006E742E0A0D005B495076345D3A204120AF
:107CF8007061636B65742077617320707265706161
:107D08007265642028005B4152505D3A204E6577C9
:107D180020656E747279206372656174656420668B
:107D28006F7220002045544845524E455420434F19
