:0400000062EF00F0BB
:100008004D82FACF16F0FBCF17F0E9CF18F0EACF00
:1000180019F0E1CF1AF0E2CF1BF0D9CF1CF0DACFFC
:100028001DF0F3CF1EF0F4CF1FF0F6CF20F0F7CF7E
:1000380021F0F8CF22F0F5CF23F04DC024F04EC0C8
:1000480025F04FC026F050C027F0F2A40FD0F2944C
:1000580073EC25F034C00FF035C010F0C3EC1BF082
:10006800E00E016E010E026E71EC1DF0F0B2F0921E
:1000780027C050F026C04FF025C04EF024C04DF0E8
:1000880023C0F5FF22C0F8FF21C0F7FF20C0F6FF0C
:100098001FC0F4FF1EC0F3FF1DC0DAFF1CC0D9FF4C
:1000A8001BC0E2FF1AC0E1FF19C0EAFF18C0E9FF50
:1000B80017C0FBFF16C0FAFF4D921100BDEF1DF0EF
:1000C800000E0001A16F84518511D8A40CD0010E37
:1000D8009F6F20EE98F000EE84F0080EDBCFEBFF68
:1000E800E806FCE21200F4EC23F00009D8B40DD0C5
:1000F800010E00019F6F20EE98F000EE84F0080ECC
:10010800DBCFEBFFE806FCE2120010EC24F000095C
:10011800D8B43CD2300E0001855DD8A00CD0010EB9
:100128009F6F20EE98F000EE84F0080EDBCFEBFF17
:10013800E806FCE21200000E0201016F000E006FDB
:1001480084C002F285C003F284C004F285C005F2BF
:10015800010E066F000E086F22EE00F000EE84F02C
:10016800080EDBCFEBFFE806FCE212000001A1510C
:10017800090D060EF326000EF422000EF324D96EA4
:10018800020EF420DA6EDF50D8A4EFD1A151D8B412
:1001980007D0FF0EA125936F946BFF0E942304D014
:1001A800000E946F070E936F93C060F094C061F0D7
:1001B800000E636F090E626F11EC25F0020E00014C
:1001C8006027000E6123000E6025D96E020E6121A2
:1001D800DA6EDECF8DF0DDCF8EF0010E8D27000EAA
:1001E8008E23A151090D000EF324D96E020EF420BE
:1001F800DA6E8DC0DEFF8EC0DDFFA151090D000E45
:10020800F324D96E020EF420DA6EDECF8DF0DDCF46
:100218008EF084518D2785518E238D05300E8E5991
:10022800D8A0D1D0070EA119D8A4CDD0020106516B
:10023800D8A4C9D00001A151090D040EF326000E5F
:10024800F422000EF324D96E020EF420DA6E84C074
:10025800DEFF85C0DDFFA151090D040EF326000E57
:10026800F422000EF324D96E020EF420DA6EDECFEB
:100278008DF0DDCF8EF0FF0E8F6F2F0E906FA15196
:10028800090D000EF324D96E020EF420DA6EDECFCB
:1002980091F0DDCF92F0911F921F914B922B8F51CD
:1002A800912790519223911F921F914B922B8D5120
:1002B80091278E519223A151090D020EF326000EAB
:1002C800F422000EF324D96E020EF420DA6E91C0E7
:1002D800DEFF92C0DDFF000E966F070E966501D017
:1002E80046D0A1519619D8B43FD0A151090D000E9E
:1002F800F324D96E020EF420DA6E00EE72F0080EC6
:10030800DBCFEBFFE806FCE29651090D000EF32463
:10031800D96E020EF420DA6E00EE7BF0080EDBCF09
:10032800EBFFE806FCE218EC19F00009D8B41CD081
:1003380000019651090D060EF326000EF422000E58
:10034800F324D96E020EF420DA6EDF50D8B40CD044
:10035800010E9F6F20EE98F000EE84F0080EDBCFC0
:10036800EBFFE806FCE212000001962BB6D7A1517C
:10037800090D060EF326000EF422000EF324D96EA2
:10038800020EF420DA6E010EDF6EA151090D080E7F
:10039800F326000EF422000EF324D96E020EF42088
:1003A800DA6EA1C0DFFFA151090D000EF324D96E4A
:1003B800020EF420DA6E00EE84F0080EDBCFEBFFBD
:1003C800E806FCE21200010E0001956FA151090D2B
:1003D800000EF324D96E020EF420DA6EDECF8DF013
:1003E800DDCF8EF084518D2785518E23A151090DC3
:1003F800020EF326000EF422000EF324D96E020E2C
:10040800F420DA6E8DC0DEFF8EC0DDFF000E976F20
:10041800070E976501D03CD0A1519719D8B435D0B3
:100428009751090D060EF326000EF422000EF32450
:10043800D96E020EF420DA6EDF50D8B426D0A1515E
:10044800090D000EF324D96E020EF420DA6E00EEC8
:1004580072F0080EDBCFEBFFE806FCE29751090DBE
:10046800000EF324D96E020EF420DA6E00EE7BF053
:10047800080EDBCFEBFFE806FCE218EC19F00009E8
:10048800D8B403D0000E0001956F0001972BC0D798
:100498009551D8B46AD0A151090D060EF326000E65
:1004A800F422000EF324D96E020EF420DA6E010E47
:1004B800DF6EA151090D000EF324D96E020EF4204F
:1004C800DA6EDECF8DF0DDCF8EF084518D27855129
:1004D8008E23A151090D020EF326000EF422000E00
:1004E800F324D96E020EF420DA6E8DC0DEFF8EC0C2
:1004F800DDFFA151090D070EF326000EF422000EB0
:10050800F324D96E020EF420DA6E000EDF6EA151CC
:10051800090D040EF326000EF422000EF324D96E02
:10052800020EF420DA6E84C0DEFF85C0DDFFA15123
:10053800090D080EF326000EF422000EF324D96EDE
:10054800020EF420DA6EA1C0DFFFA151090D000EE2
:10055800F324D96E020EF420DA6E00EE84F0080E51
:10056800DBCFEBFFE806FCE21200A12B080EA11975
:10057800D8A40CD0010E9F6F20EE98F000EE84F006
:10058800080EDBCFEBFFE806FCE21200080E0001C4
:10059800A165ECD51200020E0001FC6F000EFE6F83
:1005A800000EFD6F61EC26F0010120EE10F078518D
:1005B800D9267951DA22000162C0DEFF63C0DDFF6F
:1005C8009AEC1FF0010120EE16F07851D9267951E6
:1005D800DA22010EDF6E20EE10F07851D92679511B
:1005E800DA22DECF71F0DDCF72F013EC20F00101DA
:1005F80020EE19F07851D9267951DA22040EEBCF82
:10060800DBFFE806FCE220EE19F07851D926795193
:10061800DA2210EE14F07851E1267951E222DECF89
:10062800E6FFDDCFE5FF20EE14F07851D9267951A9
:10063800DA22DECF7BF1DDCF7CF120EE10F07851AD
:10064800D9267951DA22DECF7DF1DDCF7EF17B51DB
:100658007D277C517E23600E7E5DD8A03BD0000EA6
:100668007B6F300E7C6F20EE14F07851D9267951CB
:10067800DA22DECF7DF1DDCF7EF1FF0E7F6F2F0E08
:10068800806F20EE10F07851D9267951DA22DECF2A
:1006980081F1DDCF82F1811F821F814B822B7F5137
:1006A800812780518223811F821F814B822B7D519C
:1006B80081277E5182237B5181277C51822320EE22
:1006C80012F07851D9267951DA2281C1DEFF82C130
:1006D800DDFF22D020EE14F07851D9267951DA22A4
:1006E800DECF7BF1DDCF7CF120EE10F07851D926FA
:1006F8007951DA22DECF7DF1DDCF7EF17B517D2786
:100708007C517E2320EE12F07851D9267951DA22D5
:100718007DC1DEFF7EC1DDFF20EE10F07851D926C5
:100728007951DA2200EE6FF0080EDBCFEBFFE80616
:10073800FCE2C0EC20F0010120EE0EF07851D92641
:100748007951DA2200016FC0DEFF70C0DDFFD00EE4
:10075800986F7F0E996FFEEC21F0C1C173F0C2C192
:1007680074F0C3C175F0C4C176F013EC0CF073C01B
:1007780098F074C099F0FEEC21F0010E0101C12738
:10078800000EC223C323C423FC0E0001986F7F0E02
:10079800996FFEEC21F0010120EE1BF07851D9266B
:1007A8007951DA22DFAE07D06F0E0001986F7F0E05
:1007B800996FFEEC21F0010120EE1DF07851D92649
:1007C8007951DA22DFA407D0900E0001986F7F0ECE
:1007D800996FFEEC21F0010120EE1BF07851D9262B
:1007E8007951DA22DFBA9ED0FE0E0001986F7E0E94
:1007F800996FFEEC21F096D0C20E0001986F7F0E23
:10080800996FFEEC21F078C1F8F079C1F9F096EC17
:1008180012F0AAD0BB0E0001986F7F0E996FFEEC04
:1008280021F078C1B5F079C1B6F0BAEC11F09CD0DE
:10083800D00E0001986F7F0E996FFEEC21F0010138
:1008480020EE02F07851D9267951DA2200EE7AF0BA
:10085800050EDBCFEBFFE806FCE294EC18F07AC05B
:1008680098F07BC099F0FEEC21F0F50E0001986F2E
:100878007F0E996FFEEC21F0010120EE08F078510F
:10088800D9267951DA2200EE7AF0050EDBCFEBFF9C
:10089800E806FCE294EC18F07AC098F07BC099F076
:1008A800FEEC21F0F80E0001986F7F0E996FFEECB8
:1008B80021F0010120EE0EF07851D9267951DA2283
:1008C800DECF60F0DDCF61F014EC23F060C098F06B
:1008D80061C099F0FEEC21F0E10E0001986F7F0EE7
:1008E800996FFEEC21F078C1D9FF79C1DAFFDECF2C
:1008F8007BF1DDCF7CF17BC19AF07CC19BF00001DC
:100908009C6B9D6BBBEC25F0FC0E0001986F7F0E75
:10091800996FFEEC21F078C172F079C173F09AEC0E
:1009280023F022D0010120EE0EF07851D92679511A
:10093800DA22DECF7BF1DDCF7CF17C51080AD8B416
:1009480004D0800AD8B40CD073D77B51000AD8B42D
:1009580061D7060AD8B450D7440AD8B405D068D7A6
:100968007B51080AD8A464D7D00E0001986F7F0E77
:10097800996FFEEC21F0010120EE10F07851D92694
:100988007951DA22DECF7BF1DDCF7CF17BC173F0C8
:100998007CC174F00001756B766B13EC0CF073C0BE
:1009A80098F074C099F0FEEC21F0E90E0001986F00
:1009B8007E0E996FFEEC21F0010120EE12F07851C5
:1009C800D9267951DA22DECF7BF1DDCF7CF17BC1EC
:1009D80073F07CC174F00001756B766B13EC0CF04E
:1009E80073C098F074C099F0FEEC21F0F20E00018B
:1009F800986F7F0E996FFEEC21F0010120EE14F044
:100A08007851D9267951DA22DECF7BF1DDCF7CF11E
:100A18007BC173F07CC174F00001756B766B13ECCD
:100A28000CF073C098F074C099F0FEEC21F0FB0E46
:100A38000001986F7F0E996FFEEC21F0830E000184
:100A4800986F7C0E996FFEEC21F01200000E0001E9
:100A58009F6F160E9E6F20EE10F07751D9267851B1
:100A6800DA22DECF97F0DDCF98F09E519725726F8E
:100A78009F519821736F000E25EC1DF0000120EEA8
:100A880010F07751D9267851DA22DECF97F0DDCFF2
:100A980098F09E519725726F9F519821736F010EA0
:100AA80025EC1DF00001A16FA06B20EE10F077512E
:100AB800D9267851DA22DECF97F0DDCF98F09E5113
:100AC8009725726F9F519821736F010E25EC1DF0C9
:100AD8000001996F9951A01320EE10F07751D92693
:100AE8007851DA22DECF97F0DDCF98F09E51972526
:100AF800726F9F519821736F010E25EC1DF0000154
:100B0800A36FA26B20EE10F07751D9267851DA2224
:100B1800DECF97F0DDCF98F09E519725726F9F51E9
:100B28009821736F010E25EC1DF00001996F995102
:100B3800A21320EE10F07751D9267851DA22DECFB1
:100B480097F0DDCF98F09E519725726F9F519821AD
:100B5800736F010E25EC1DF00001A46F20EE10F05C
:100B68007751D9267851DA22DECF97F0DDCF98F089
:100B78009E519725726F9F519821736F010E25EC36
:100B88001DF00001A56F20EE10F07751D92678519D
:100B9800DA22DECF97F0DDCF98F09E519725726F5D
:100BA8009F519821736F010E25EC1DF00001A76F6E
:100BB800A66B20EE10F07751D9267851DA22DECFD5
:100BC80097F0DDCF98F09E519725726F9F5198212D
:100BD800736F010E25EC1DF00001996F9951A61352
:100BE800000E9A6F24D020EE10F07751D926785154
:100BF800DA22DECF97F0DDCF98F09E519725726FFD
:100C08009F519821736F010E25EC1DF00001996F1B
:100C18009A51010D080EF326000EF422A00EF324BB
:100C2800D96E000EF420DA6E99C0DFFF9A2BA4511A
:100C38009A5DD8A0D8D7000E9B6F24D020EE10F074
:100C48007751D9267851DA22DECF97F0DDCF98F0A8
:100C58009E519725726F9F519821736F010E25EC55
:100C68001DF00001996F9B51010D0E0EF326000E29
:100C7800F422A00EF324D96E000EF420DA6E99C087
:100C8800DFFF9B2BA5519B5DD8A0D8D7000E9C6F8A
:100C980024D020EE10F07751D9267851DA22DECF11
:100CA80097F0DDCF98F09E519725726F9F5198214C
:100CB800736F010E25EC1DF00001996F9C51010D19
:100CC800120EF326000EF422A00EF324D96E000EA5
:100CD800F420DA6E99C0DFFF9C2BA4519C5DD8A04C
:100CE800D8D7000E9D6F24D020EE10F07751D9266A
:100CF8007851DA22DECF97F0DDCF98F09E51972514
:100D0800726F9F519821736F010E25EC1DF0000141
:100D1800996F9D51010D180EF326000EF422A00EB6
:100D2800F324D96E000EF420DA6E99C0DFFF9D2BF4
:100D3800A5519D5DD8A0D8D720EE10F07751D926BF
:100D48007851DA22DECF97F0DDCF98F09E519725C3
:100D5800726F9F519821736F020E25EC1DF0AE0E35
:100D68000001606F000E616F7AEC24F00001D8A0DA
:100D780002D0BC833CD0BC93AE0E606F000E616F96
:100D8800B80E626F000E636F79EC23F00001D8A0F3
:100D98000DD0B20E606F000E616F62EC24F000019E
:100DA800D8A004D0A605A711D8B41FD0AE0E606F86
:100DB800000E616FB80E626F000E636F79EC23F05E
:100DC8000001D8A014D0A80E606F000E616FB20E9B
:100DD800626F000E636F58EC23F00001D8A007D0B3
:100DE800020EA619A711D8A402D0BC8101D0BC91CB
:100DF800A005A111D8A413D0080EA319A211D8A434
:100E08000ED0A7510CE1030EA65DD8B008D0060E8F
:100E1800A419D8A404D0040EA519D8B404D0010E7E
:100E2800BF6F930E03D0000EBF6F000EBE6F030E90
:100E3800BD6F20EEA0F000EE77F01F0EDBCFEBFFCA
:100E4800E806FCE21200FC0ED316D3508F0B6009A3
:100E5800D36ED288F29EF28AF0889F9A9D8AF28C8D
:100E6800D58ED58CD59AD596D550F80B0509D56E63
:100E780059EC26F006EC26F0680E0101886FE40EA6
:100E8800E82EFED7882FFCD700F0E20E0001986FFD
:100E98007D0E996FFEEC21F0630E0001986F7F0EB6
:100EA800996FFEEC21F0380E0001986F7E0E996F55
:100EB800FEEC21F0A30E0001986F7F0E996FFEECF7
:100EC80021F0830E0001986F7C0E996FFEEC21F0E3
:100ED800AD0E0001986F7C0E996FFEEC21F087EC47
:100EE80020F0A6C0B2F1A7C0B3F1A8C0B4F10101C7
:100EF800B351B411D8B408D0B2C19AF0B3C19BF0C1
:100F0800B4C19CF0D9EC16F0A3EC22F06EC0B2F19B
:100F18006FC0B3F170C0B4F10101B351B411D8A4DA
:100F28000FD098EC25F060C098F061C099F0FEEC05
:100F380021F0570E0001986F7F0E996FFEEC21F09B
:100F4800110E0001986F7E0E996FFEEC21F0CCEC2B
:100F580025F00101886F885100019A6F9B6B9C6B8B
:100F68009D6BBBEC25F0DD0E0001986F7F0E996F2D
:100F7800FEEC21F0FA0E0001986F7D0E996FFEECE1
:100F880021F04DEC20F0E9CFD9FFEACFDAFF00EEEF
:100F98007AF0050EDBCFEBFFE806FCE294EC18F0E4
:100FA8007AC098F07BC099F0FEEC21F0DD0E0001CC
:100FB800986F7F0E996FFEEC21F0AD0E0001986FCF
:100FC8007D0E996FFEEC21F0530E0001986F7C0E98
:100FD800996FFEEC21F099EC21F0000E00016E6F84
:100FE800000E08EC1EF0000E00016E6F000E08ECFB
:100FF8001EF0150E0101896F4B0E886FBE0EE82E8C
:10100800FED7882FFCD7892FFAD700F0010E0001F0
:101018006E6F000E08EC1EF0010E00016E6F000EE0
:1010280008EC1EF0000E01018B6F000E8C6F000E95
:101038008D6F000E8E6F0F015C9B938A800E0201EC
:10104800606F1F0E616F120E626F1B0E636F6A0E68
:10105800646F2F0E656FC00E0101B96FA80EBA6FCD
:10106800000EBB6F040EBC6FC00EB56FA80EB66F36
:10107800000EB76F050EB86FB9C160F0BAC161F064
:10108800BBC162F0BCC163F035EC26F0F28EF28C85
:101098000400570E0101846F020E856FCEEC10F02C
:1010A80022EE57F000EE9AF00E0EDBCFEBFFE806CB
:1010B800FCE2D4EC1CF002015751D8B408D07DEC06
:1010C80026F00101886F8851AF6FB06B05D0030E11
:1010D8000101B06FE80EAF6FAFC134F0B0C135F0A9
:1010E800000E35BEFF0E366E376EE051D8B4D0D73D
:1010F800000EE06F02015705D8A4CAD7B5C19DF20A
:10110800B6C19EF2B7C19FF2B8C1A0F2B9C199F2B7
:10111800BAC19AF2BBC19BF2BCC19CF2000E8F6FA0
:10112800780E8E6F9569040E8A6F8A0E0001606FC3
:10113800020E616F8DEC0AF022EE8AF000EE60F08C
:10114800160EDBCFEBFFE806FCE28F0E0001776F8F
:10115800010E786F32EC14F08A0E0001A76F020EB0
:10116800A86F3EEC16F0000E0101B16F34D00201F9
:101178008B51040D0101B151886F896BF350885D63
:101188008951800A8A6FF450800A8A59D8B015D0DC
:1011980022EE8AF000EE7EF03D0EDBCFEBFFE80694
:1011A800FCE2B151010D8F0EF324D96E010EF4202B
:1011B800DA6EDF50FDEC24F00CD022EE8AF000EE5F
:1011C8007EF03D0EDBCFEBFFE806FCE2000EFDEC07
:1011D80024F00101B12BB151886F896B02018E5146
:1011E8000101885D02018F5101018959D8A0BFD73B
:1011F80002016B814DD7000E0001656FFF0E666F0F
:1012080020EE01F06051D9266151DA22DF50676F74
:101218006751696F686B655168176651691760C0D7
:10122800D9FF61C0DAFFDF506A6F6B6B68516A11D2
:101238006C6F69516B116D6F20EE02F06051D92609
:101248006151DA22DFA003D0656B652B02D0000163
:10125800656B6E516519FE0B65196E6F20EE02F015
:101268006051D9266151DA22DFA403D0656B652B62
:1012780002D00001656B65476E516519FD0B651954
:101288006E6F20EE02F06051D9266151DA22DFA894
:1012980003D0656B652B02D00001656B6547654718
:1012A8006E516519FB0B65196E6F20EE02F06051E7
:1012B800D9266151DA22DFAA03D0656B652B02D0EB
:1012C8000001656B6547654765476E516519F70B02
:1012D80065196E6F20EE02F06051D9266151DA224D
:1012E800DFAC03D0656B652B02D00001656B653BF5
:1012F8006E516519EF0B65196E6F20EE02F06051A3
:10130800D9266151DA22DFAE03D0656B652B02D096
:101318000001656B653B65476E516519DF0B651903
:101328006E6F20EE03F06051D9266151DA22DFA0FA
:1013380003D0656B652B02D00001656B653B654783
:1013480065476E516519BF0B65196E6F20EE03F086
:101358006051D9266151DA22DFA203D0656B652B73
:1013680002D00001656B653365336E5165197F0BDB
:1013780065196E6F20EE03F06051D9266151DA22AB
:10138800DFA603D0656B652B02D00001656B65474E
:101398006F516519FD0B65196F6F20EE03F06051F1
:1013A800D9266151DA22DFA803D0656B652B02D0FC
:1013B8000001656B654765476F516519FB0B65193A
:1013C8006F6F20EE03F06051D9266151DA22DFAA4F
:1013D80003D0656B652B02D00001656B65476547D7
:1013E80065476F516519F70B65196F6F20EE03F0AC
:1013F8006051D9266151DA22DFAC03D0656B652BC9
:1014080002D00001656B653B6F516519EF0B6519DB
:101418006F6F20EE03F06051D9266151DA22DFAEFA
:1014280003D0656B652B02D00001656B653B654792
:101438006F516519DF0B65196F6F20EE04F060516D
:10144800D9266151DA22DFA003D0656B652B02D063
:101458000001656B653B654765476F516519BF0BB3
:1014680065196F6F20EE04F06051D9266151DA22B8
:10147800DFA203D0656B652B02D00001656B653375
:1014880065336F5165197F0B65196F6F20EE04F096
:101498006051D9266151DA22DFA403D0656B652B30
:1014A80002D00001656B70516519FE0B6519706FEC
:1014B80020EE04F06051D9266151DA22DFA603D06C
:1014C800656B652B02D00001656B65477051651926
:1014D800FD0B6519706F20EE04F06051D92661513B
:1014E800DA22DFA803D0656B652B02D00001656B9B
:1014F8006547654770516519FB0B6519706F20EEDC
:101508006CF000EE60F0040EDBCFEBFFE806FCE2C7
:101518001200000E00016E6F000E6F6F000E706FEC
:10152800000E716F20EE02F06051D9266151DA2267
:10153800DF50626F636BD89062376337D890623739
:10154800633720EE01F06051D9266151DA22DF506D
:10155800646F6451666F656B60C0D9FF61C0DAFF64
:10156800DF50676F686B0C0ED89067376837E82EC6
:10157800FBD765516713665168136251671363514E
:10158800681320EE03F06051D9266151DA22DF504A
:10159800696F69516713000E681367C06EF068C001
:1015A8006FF0706B716B20EE04F06051D9266151B9
:1015B800DA22DECF62F0DDCF63F062516E2763512D
:1015C8006F23000E7023000E712320EE06F0605189
:1015D800D9266151DA22DECF62F0DDCF63F06251A5
:1015E8006E2763516F23000E7023000E712320EEC7
:1015F80009F06051D9266151DA22DECF62F0DDCFE1
:1016080063F020EE08F06051D9266151DA22DF50EC
:10161800646F656B0D0ED89064376537E82EFBD77D
:10162800625164136351651364516E2765516F23CA
:10163800000E7023000E712320EE0BF06051D926A6
:101648006151DA22DF50626F6251646F636B20EE82
:101658000CF06051D9266151DA22DF50656F65516F
:101668006313000E641363516E2764516F23000ED9
:101678007023000E712320EE0FF06051D9266151BE
:10168800DA22DF50626F6251646F636B20EE10F0F4
:101698006051D9266151DA22DF50656F666B63515C
:1016A80065136451661365516E2766516F23000EEA
:1016B8007023000E712320EE11F06051D92661517C
:1016C800DA22DF50626F6251646F636B20EE12F0B2
:1016D8006051D9266151DA22DF50656F666B63511C
:1016E80065136451661365516E2766516F23000EAA
:1016F8007023000E712320EE13F06051D92661513A
:10170800DA22DF50626F6251646F636B20EE14F06F
:101718006051D9266151DA22DF50656F666B6351DB
:1017280065136451661365516E2766516F23000E69
:101738007023000E712320EE15F06051D9266151F7
:10174800DA22DF50626F6251646F636B20EE16F02D
:101758006051D9266151DA22DF50656F666B63519B
:1017680065136451661365516E2766516F23000E29
:101778007023000E71236EC062F06FC063F070C0FA
:1017880064F071C065F0110E05D0D89065336433EC
:1017980063336233E82EF9D70F0E6215666F000EB9
:1017A8006315676F000E6415686F000E6515696F25
:1017B800FF0E6E156A6FFF0E6F156B6F000E7015BA
:1017C8006C6F000E71156D6F66516A256E6F6751EB
:1017D8006B216F6F68516C21706F69516D21716F4A
:1017E8006EC062F06FC063F070C064F071C065F0E5
:1017F800621F631F641F651F62C06EF063C06FF0D5
:1018080064C070F065C071F020EE0DF06051D9260B
:101818006151DA226EC0DEFF6FC0DDFF1200000EDC
:101828000001866F73C066F074C067F075C068F019
:1018380076C069F0100E6A6F270E6B6F000E6C6F22
:10184800000E6D6FD9EC1EF000016651856F85C0E2
:1018580060F0616B270E636F100E626F11EC25F05C
:1018680000016051776F6151786F796B7A6B771FE0
:10187800781F791F7A1F772B000E782379237A2314
:1018880073517725666F74517821676F7551792187
:10189800686F76517A21696FE80E6A6F030E6B6F75
:1018A800000E6C6F000E6D6FD9EC1EF000016651D2
:1018B800846F85C060F0616B270E636F100E626FD6
:1018C80011EC25F060C077F061C078F084C060F05A
:1018D8000001616B030E636FE80E626F11EC25F077
:1018E800000177516025796F785161217A6F7B6BA0
:1018F800D8B07B2B7C6B791F7A1F7B1F7C1F792BC1
:10190800000E7A237B237C2373517925666F7451EB
:101918007A21676F75517B21686F76517C21696FD9
:10192800640E6A6F000E6B6F000E6C6F000E6D6FA9
:10193800D9EC1EF000016651836F85C060F0616BC1
:10194800270E636F100E626F11EC25F060C077F000
:1019580061C078F084C060F00001616B030E636FB2
:10196800E80E626F11EC25F0000177516025796F60
:10197800785161217A6F7B6BD8B07B2B7C6B83515C
:10198800640DF35079257D6FF4507A217E6F000E37
:101998007B217F6F000E7C21806F7D1F7E1F7F1F44
:1019A800801F7D2B000E7E237F23802373517D258E
:1019B800666F74517E21676F75517F21686F76510C
:1019C8008021696F0A0E6A6F000E6B6F000E6C6FD4
:1019D800000E6D6FD9EC1EF000016651816F73C067
:1019E80060F074C061F075C062F076C063F00A0EF2
:1019F800646F000E656F000E666F000E676F65EC12
:101A080021F000016051826F7651751106E1100EC8
:101A1800735D270E7459D8A00CD08651010DD00ED5
:101A2800F324D96E010EF420DA6E8551300FDF6E83
:101A3800862B7651751106E1E80E735D030E745915
:101A4800D8A00CD08651010DD00EF324D96E010E0A
:101A5800F420DA6E8451300FDF6E862B76517511C3
:101A6800741104E1640E735DD8A00CD08651010D89
:101A7800D00EF324D96E010EF420DA6E8351300FA4
:101A8800DF6E862B76517511741104E10A0E735DB1
:101A9800D8A00CD08651010DD00EF324D96E010EBA
:101AA800F420DA6E8151300FDF6E862B8651010DDE
:101AB800D00EF324D96E010EF420DA6E8251300F65
:101AC800DF6E862B8651010DD00EF324D96E010EE0
:101AD800F420DA6E000EDF6E862BD00E736F010EC7
:101AE800746F1200C70E0001606F000E616F4DEC3D
:101AF80025F0000E0001D26F240ED16F20EEB9F050
:101B080010EED9F0050EDBCFE3FFE806FCE220EE8D
:101B1800EFF000EE6FF0080EDBCFEBFFE806FCE21B
:101B2800F8EC20F020EED3F0050EEBCFDBFFE80653
:101B3800FCE2080E0001E06F060EDF6FD10EA26F07
:101B4800000EA36F8AEC1AF00001E851D8A4120025
:101B5800080EE125EF6F000EE221F06FE3C0F1F00F
:101B6800E4C0F2F0000EF46F1C0EF36F20EEEFF0FD
:101B780000EE6FF0080EDBCFEBFFE806FCE2A851A1
:101B8800D7EC1FF020EEEFF000EE6FF0080EDBCF81
:101B9800EBFFE806FCE20001A751D7EC1FF020EEAE
:101BA800EFF000EE6FF0080EDBCFEBFFE806FCE28B
:101BB8000001AA51D7EC1FF020EEEFF000EE6FF015
:101BC800080EDBCFEBFFE806FCE20001A951D7ECD9
:101BD8001FF020EEEFF000EE6FF0080EDBCFEBFF0A
:101BE800E806FCE20001AB51D7EC1FF020EEEFF065
:101BF80000EE6FF0080EDBCFEBFFE806FCE2000119
:101C0800AC51D7EC1FF020EEEFF000EE6FF0080EAD
:101C1800DBCFEBFFE806FCE20001AE51D7EC1FF08A
:101C280020EEEFF000EE6FF0080EDBCFEBFFE806DA
:101C3800FCE20001AD51D7EC1FF0000E0001CD6FA2
:101C48001AD020EEEFF000EE6FF0080EDBCFEBFFBE
:101C5800E806FCE2CD51010D080EF326000EF42231
:101C6800A70EF324D96E000EF420DA6EDF50D7ECFD
:101C78001FF00001CD2BAB51CD5DD8A0E2D7000EEF
:101C8800CE6F1AD020EEEFF000EE6FF0080EDBCF2B
:101C9800EBFFE806FCE2CE51010D0E0EF326000E16
:101CA800F422A70EF324D96E000EF420DA6EDF506A
:101CB800D7EC1FF00001CE2BAC51CE5DD8A0E2D7F7
:101CC800000ECF6F1AD020EEEFF000EE6FF0080E86
:101CD800DBCFEBFFE806FCE2CF51010D120EF32635
:101CE800000EF422A70EF324D96E000EF420DA6E4B
:101CF800DF50D7EC1FF00001CF2BAB51CF5DD8A040
:101D0800E2D7000ED06F1AD020EEEFF000EE6FF0A1
:101D1800080EDBCFEBFFE806FCE2D051010D180EF0
:101D2800F326000EF422A70EF324D96E000EF42039
:101D3800DA6EDF50D7EC1FF00001D02BAC51D05D2C
:101D4800D8A0E2D720EEE1F000EE72F0080EDBCF6B
:101D5800EBFFE806FCE225EC25F0120077C0D9FF7E
:101D680078C0DAFFDECF72F0DDCF73F0000E25EC1D
:101D78001DF077C0D9FF78C0DAFFDECF72F0DDCF73
:101D880073F0010E25EC1DF00001916F91390F0BD6
:101D98000F0B926F91510F0B936F77C0D9FF78C0DB
:101DA800DAFFDECF72F0DDCF73F0010E25EC1DF007
:101DB8000001916F91511F0B946F9145E846030BF9
:101DC800030B956F77C0D9FF78C0DAFFDECF72F0CA
:101DD800DDCF73F0010E25EC1DF00001976F966BB7
:101DE80077C0D9FF78C0DAFFDECF72F0DDCF73F0AD
:101DF800010E25EC1DF000018E6F8E51961377C0F1
:101E0800D9FF78C0DAFFDECF72F0DDCF73F0010EB4
:101E180025EC1DF00001996F986B77C0D9FF78C049
:101E2800DAFFDECF72F0DDCF73F0010E25EC1DF086
:101E380000018E6F8E51981377C0D9FF78C0DAFFF2
:101E4800DECF72F0DDCF73F0010E25EC1DF000013E
:101E5800916F9145E846030B030B9A6F91511F0B45
:101E68009C6F9B6B77C0D9FF78C0DAFFDECF72F02A
:101E7800DDCF73F0010E25EC1DF000018E6F8E5141
:101E88009B1377C0D9FF78C0DAFFDECF72F0DDCFC1
:101E980073F0010E25EC1DF000019D6F77C0D9FF8E
:101EA80078C0DAFFDECF72F0DDCF73F0010E25ECDB
:101EB8001DF000019E6F77C0D9FF78C0DAFFDECF32
:101EC80072F0DDCF73F0010E25EC1DF00001A06F5C
:101ED8009F6B77C0D9FF78C0DAFFDECF72F0DDCF15
:101EE80073F0010E25EC1DF000018E6F8E519F13CB
:101EF800000E8F6F030E8F6501D01DD077C0D9FFFC
:101F080078C0DAFFDECF72F0DDCF73F0010E25EC7A
:101F18001DF000018E6F8F51010D0F0EF326000E7C
:101F2800F422920EF324D96E000EF420DA6E8EC0DD
:101F3800DFFF8F2BDFD7000E906F030E906501D067
:101F48001DD077C0D9FF78C0DAFFDECF72F0DDCFC1
:101F580073F0010E25EC1DF000018E6F9051010DFC
:101F6800130EF326000EF422920EF324D96E000EFF
:101F7800F420DA6E8EC0DFFF902BDFD777C0D9FF51
:101F880078C0DAFFDECF72F0DDCF73F0020E25ECF9
:101F98001DF020EE92F000EE77F0160EDBCFEBFF8F
:101FA800E806FCE21200000E00017B6F000E7C6F59
:101FB800030E7C6501D0DFD07C51010D770EF32430
:101FC800D96E000EF420DA6E7C51010D670EF324F1
:101FD800E16E000EF420E26EE7506B6F6B51606F9C
:101FE800616B000E636F640E626F29EC22F00001D2
:101FF8006051DF6E7C51010D730EF324D96E000E13
:10200800F420DA6E7C51010D770EF324E16E000E98
:10201800F420E26EE7506B6F6B51640DF3CF6CF0F8
:10202800F4CF6DF06C1F6D1F6C4B6D2B7C51010D47
:10203800670EF324E16E000EF420E26EE7506E6F37
:102048006E516C25606F000E6D21616F000E636F1D
:102058000A0E626F29EC22F000016051DF6E7C519C
:10206800010D6F0EF324D96E000EF420DA6E7C5148
:10207800010D670EF324E16E000EF420E26EE750C6
:102088006B6F6B51606F616B000E636F0A0E626F4E
:1020980036EC23F000016051DF6E7C51010D770EA4
:1020A800F324D96E000EF420DA6EDF50D8B414D0C1
:1020B8007B51010DED0EF324D96E010EF420DA6E7A
:1020C8007C51010D770EF324E16E000EF420E26ED0
:1020D800E750300FDF6E7B2B7C51010D730EF3241C
:1020E800D96E000EF420DA6EDF50D8A40BD07C51E4
:1020F800010D770EF324D96E000EF420DA6EDF504E
:10210800D8B414D07B51010DED0EF324D96E010E15
:10211800F420DA6E7C51010D730EF324E16E000E8B
:10212800F420E26EE750300FDF6E7B2B7B51010D00
:10213800ED0EF324D96E010EF420DA6E7C51010DF8
:102148006F0EF324E16E000EF420E26EE750300FBC
:10215800DF6E7B2B030E7C19D8B40BD07B51010D9D
:10216800ED0EF324D96E010EF420DA6E2E0EDF6E1A
:102178007B2B7C2B1DD77B51010DED0EF324D96EE3
:10218800010EF420DA6E000EDF6EED0E676F010EA1
:10219800686F120070EC17F0010120EE12F0845104
:1021A800D9268551DA22000178C0DEFF79C0DDFF2B
:1021B800010120EE12F08451D9268551DA22DFA8D8
:1021C80018D050EC26F00009D8B413D084C178F1A7
:1021D80085C179F1CFEC02F0010120EE0FF08451B6
:1021E800D9268551DA2278C1DEFF79C1DEFF7AC1AE
:1021F800DEFF010120EE14F08451D9268551DA2240
:10220800DFA082D020EE33F08451D9268551DA221E
:1022180001EE34F03D0EDBCFEBFFE806FCE26DEC9F
:1022280013F0010120EE0FF08451D9268551DA22EE
:1022380034C1DEFF35C1DEFF36C1DEFF20EE0FF010
:102248008451D9268551DA22030EDE18D8A439D054
:1022580020EE10F08451D9268551DA22920EDE182C
:1022680030E1DE04D8A42DD0860E0001986F7E0ED2
:10227800996FFEEC21F0010120EE46F08451D92639
:102288008551DA22DECF67F0DECF68F0DECF69F065
:10229800DECF6AF0D7EC0FF067C098F068C099F00D
:1022A800FEEC21F0830E0001986F7C0E996FFEEC16
:1022B80021F0010120EE14F08451D9268551DA224B
:1022C800DF9020EE0FF08451D9268551DA22030ED3
:1022D800DE18D8A419D020EE10F08451D9268551E3
:1022E800DA22DE50DE10D8A40FD0EE0E0001986F6F
:1022F8007E0E996FFEEC21F0010120EE14F084515E
:10230800D9268551DA22DF9020EE12F08451D926A1
:102318008551DA22DFA6120084C180F085C181F0E0
:102328004FEC1EF084C1D9FF85C1DAFFDE04D8A4C2
:102338000DD0000E00016E6F000E08EC1EF0020EAC
:1023480000016E6F010E08EC1EF00CD0010E0001AA
:102358006E6F000E08EC1EF0010E00016E6F010E8C
:1023680008EC1EF00B0E68EC26F01200000120EEBF
:102378000EF0B551D926B651DA22DE5004E1080E26
:10238800DE18D8B407D0B5C072F0B6C073F09AECB6
:1023980023F01200000120EE10F0B551D926B651F5
:1023A800DA2210EEB9F0080EDBCFE3FFE806FCE214
:1023B80020EE10F0B551D926B651DA22DECFB7F0AB
:1023C800DDCFB8F0160EB725B96F000EB821BA6F79
:1023D800B90E776F000E786FB2EC0EF020EEC2F0F7
:1023E800160EEBCFDBFFE806FCE2D00E0001986F7B
:1023F8007F0E996FFEEC21F0D1C067F0D2C068F073
:10240800D3C069F0D4C06AF0D7EC0FF067C098F079
:1024180068C099F0FEEC21F0C80E0001986F7F0E9D
:10242800996FFEEC21F0D5C067F0D6C068F0D7C030
:1024380069F0D8C06AF0D7EC0FF067C098F068C0B0
:1024480099F0FEEC21F0F80E0001986F7F0E996F5D
:10245800FEEC21F00001CE51F0EC22F060C098F0C3
:1024680061C099F0FEEC21F0F80E0001986F7F0E24
:10247800996FFEEC21F0C6C073F0C7C074F000017C
:10248800756B766B13EC0CF073C098F074C099F010
:10249800FEEC21F0F80E0001986F7F0E996FFEECAC
:1024A80021F00001C251736F746B756B766B13EC7E
:1024B8000CF073C098F074C099F0FEEC21F0370E60
:1024C8000001986F7E0E996FFEEC21F00001C35158
:1024D800736F746B756B766B13EC0CF073C098F0BC
:1024E80074C099F0FEEC21F0FC0E0001986F7F0E8D
:1024F800996FFEEC21F0C20E00019A6F000E9B6FDF
:10250800FEEC1AF00001D8B006D03A0E986F7E0E95
:10251800996FFEEC21F0B5C072F0B6C073F09AEC7A
:1025280023F01200000120EE0EF0F851D926F951DF
:10253800DA22060EDE1804E1080EDE18D8B407D039
:10254800F8C072F0F9C073F09AEC23F01200F8C0EA
:1025580077F0F9C078F02AEC05F021EE58F01F0E5C
:10256800EBCFDBFFE806FCE2010176517711D8B426
:102578000ED0F8C072F0F9C073F09AEC23F0860E12
:102588000001986F7C0E996FFEEC21F01200D00EBE
:102598000001986F7F0E996FFEEC21F021EE60F03C
:1025A80000EE7AF0050EDBCFEBFFE806FCE294ECD8
:1025B80018F07AC098F07BC099F0FEEC21F0370E45
:1025C8000001986F7E0E996FFEEC21F066C167F0EE
:1025D80067C168F068C169F069C16AF0D7EC0FF0AB
:1025E80067C098F068C099F0FEEC21F0CD0E0001AC
:1025F800986F7F0E996FFEEC21F021EE6AF000EEE5
:102608007AF0050EDBCFEBFFE806FCE294EC18F05D
:102618007AC098F07BC099F0FEEC21F0370E0001EB
:10262800986F7E0E996FFEEC21F070C167F071C152
:1026380068F072C169F073C16AF0D7EC0FF067C037
:1026480098F068C099F0FEEC21F0FC0E0001986F3C
:102658007F0E996FFEEC21F0010174A307D0860E5E
:102668000001986F7F0E996FFEEC21F0010174A1B3
:1026780007D01E0E0001986F7F0E996FFEEC21F0B7
:1026880021EE58F001EE00F01F0EDBCFEBFFE8065D
:10269800FCE2E9EC14F021EE60F000EE64F0050EC7
:1026A800DBCFEBFFE806FCE266C16AF067C16BF0BE
:1026B80068C16CF069C16DF03EEC26F060C06EF048
:1026C80061C06FF062C070F063C071F013EC1AF073
:1026D8001200030E0101816F030E7E6F020E7F6FE1
:1026E80047C167F048C168F049C169F04AC16AF05A
:1026F800800E00016B6F010E6C6F22EC1CF000095C
:10270800D8B43FD00101805192EC24F021EE5CF066
:10271800050EEBCFDBFFE806FCE24DEC20F021EEE6
:1027280056F0050EEBCFDBFFE806FCE221EE5CF08D
:1027380000EE6FF0050EDBCFEBFFE806FCE221EEC2
:1027480064F000EE75F0080EDBCFEBFFE806FCE264
:102758001BEC1FF021EE64F000EE72F0080EDBCFE8
:10276800EBFFE806FCE225EC25F0000E0101836F83
:10277800000E826F81C134F182C135F183C136F117
:1027880012007FC172F10101736B746B756BBDC16F
:1027980076F1BEC177F1BFC178F1C0C179F1761F7A
:1027A800771F781F791F762B000E772378237923DC
:1027B8003EEC26F0010176510001602501017A6F97
:1027C80077510001612101017B6F7851000162217D
:1027D80001017C6F79510001632101017D6F725104
:1027E8007A5D73517B5974517C5975517D59D8A0C4
:1027F80029D03EEC26F060C0BDF161C0BEF162C0D8
:10280800BFF163C0C0F101017E51C55DD8B00CD0E5
:10281800C52B47C1F8F048C1F9F049C1FAF04AC1DF
:10282800FBF062EC1BF00ED0000E0101C56F010E2B
:10283800836F920E826F81C134F182C135F183C1F9
:1028480036F11200010E0101836F910E826F81C172
:1028580034F182C135F183C136F1120000016039CB
:10286800F00B611177C0D9FF78C0DAFFDF6E20EE78
:1028780001F07751D9267851DA2263C079F0030E36
:1028880079176245E846FC0B7911DF6E20EE02F0FD
:102898007751D9267851DA226551DF6E20EE03F0A0
:1028A8007751D9267851DA2264C0DFFF20EE04F090
:1028B8007751D9267851DA226751DF6E20EE05F07C
:1028C8007751D9267851DA2266C0DFFF20EE06F06C
:1028D8007751D9267851DA2210EE69F0E6CF79F0EF
:1028E800E5CF7AF07AC079F07A6B1F0E79176839DC
:1028F800E846E00B7911DF6E20EE07F07751D92614
:102908007851DA2269C0DFFF20EE08F07751D92626
:102918007851DA226BC0DFFF20EE09F07751D92613
:102928007851DA226CC0DFFF20EE0AF07751D92601
:102938007851DA226E51DF6E20EE0BF07751D926EE
:102948007851DA226DC0DFFF20EE0CF07751D926DE
:102958007851DA226FC0DFFF20EE0DF07751D926CB
:102968007851DA2270C0DFFF20EE0EF07751D926B9
:102978007851DA2271C0DFFF20EE0FF07751D926A7
:102988007851DA2272C0DFFF20EE10F07751D92695
:102998007851DA2273C0DFFF20EE11F07751D92683
:1029A8007851DA2274C0DFFF20EE12F07751D92671
:1029B8007851DA2275C0DFFF20EE13F07751D9265F
:1029C8007851DA2276C0DFFF1200010106050711EF
:1029D800D8A4120047EC26F060C034F161C035F18C
:1029E80062C036F163C037F1180E0001606F010E46
:1029F800616F340E626F010E636F79EC23F0000192
:102A0800D8A012004DEC20F021EE20F0050EEBCFFF
:102A1800DBFFE806FCE221EE08F011EE26F0050ED9
:102A2800DBCFE3FFE806FCE247EC26F060C02CF1C0
:102A380061C02DF162C02EF163C02FF10EC130F1DB
:102A48000FC131F110C132F111C133F1060E01018C
:102A58003C6F040E3D6F000E396F010E386F080E83
:102A68003B6F000E3A6F000E3F6F020E3E6F2CC197
:102A780046F12DC147F12EC148F12FC149F121EE90
:102A880020F011EE40F0050EDBCFE3FFE806FCE294
:102A980030C150F131C151F132C152F133C153F15A
:102AA80021EE26F011EE4AF0050EDBCFE3FFE80633
:102AB800FCE221EE38F000EEA7F01F0EDBCFEBFFB3
:102AC800E806FCE276EC0DF0DE0E0001986F7E0E53
:102AD800996FFEEC21F021EE4AF000EE7AF0050E37
:102AE800DBCFEBFFE806FCE294EC18F07AC098F034
:102AF8007BC099F0FEEC21F0370E0001986F7E0E36
:102B0800996FFEEC21F050C167F051C168F052C1D5
:102B180069F053C16AF0D7EC0FF067C098F068C04D
:102B280099F0FEEC21F0FC0E0001986F7F0E996F72
:102B3800FEEC21F01200000E00019E6F4BC09FF0CA
:102B48004CC0A0F043C0A1F044C0A2F0010EA36F96
:102B5800000EA56F000EA46F050E9E6172D09F0E29
:102B68006A6F000E6B6F160E2CEC24F0A00E00019D
:102B78006A6F000E6B6F170E2CEC24F0A10E00018B
:102B88006A6F000E6B6F160E47EC24F0A20E000160
:102B98006A6F000E6B6F170E47EC24F000019F510F
:102BA800A119D8A44BD0A051A219D8A447D0900EEF
:102BB800986F7D0E996FFEEC21F0CA0E20EC26F07E
:102BC800420EE82EFED700D0A10E00016A6F000E5B
:102BD8006B6F160E47EC24F0A20E00016A6F000E10
:102BE8006B6F170E47EC24F00001A151D8A413D045
:102BF800A251D8A410D0CD0E986F7E0E996FFEEC1E
:102C080021F0030E00019D6FA70EE82EFED79D2F21
:102C1800FCD700D00CD00E0E0001986F7F0E996F74
:102C2800FEEC21F0010E0001A56F2E0EA46FA3C0CB
:102C38009AF0A4C09BF0A5C09CF0120000019E2B46
:102C480012D0C90E986F7D0E996FFEEC21F0010E1F
:102C58000001A56F2E0EA46FA3C09AF0A4C09BF02C
:102C6800A5C09CF01200A3C09AF0A4C09BF0A5C018
:102C78009CF01200000120EE04F0A751D926A851BB
:102C8800DA22DECFA9F0DDCFAAF0080EA927000EC0
:102C9800AA2320EE20F0A751D926A851DA22A9C0EC
:102CA800DEFFAAC0DDFF20EE2EF0A751D926A851DD
:102CB800DA22000EDE6E080EDD6E200EA725A26F4A
:102CC800000EA821A36F8AEC1AF0000120EE36F05E
:102CD800A751D926A851DA2210EE1DF0A751E126F6
:102CE800A851E222DFCFE7FF20EE37F0A751D9261F
:102CF800A851DA2210EE1EF0A751E126A851E222CF
:102D0800DFCFE7FF20EE38F0A751D926A851DA2205
:102D180010EE1FF0A751E126A851E222DFCFE7FF0E
:102D280020EE30F0A751D926A851DA22DECFA9F03B
:102D3800DDCFAAF0080EA927000EAA2320EE17F06F
:102D4800A751D926A851DA22A9C0DEFFAAC0DDFF03
:102D580020EE32F0A751D926A851DA2210EE19F048
:102D6800A751E126A851E222DECFE6FFDDCFE5FF3D
:102D7800F80EA96FFF0EAA6F20EE34F0A751D926DE
:102D8800A851DA22DECFABF0DDCFACF0A951AB27EA
:102D9800AA51AC2320EE1BF0A751D926A851DA225C
:102DA800ABC0DEFFACC0DDFF1200AC0E0001986FB7
:102DB8007F0E996FFEEC21F028D0BC0E0001986FB1
:102DC8007E0E996FFEEC21F050D01A0E0001986F1C
:102DD8007D0E996FFEEC21F048D0730E0001986FBC
:102DE8007E0E996FFEEC21F040D03C0E0001986FEA
:102DF8007F0E996FFEEC21F038D02D0E0001986FF0
:102E08007F0E996FFEEC21F030D000019A51000A34
:102E1800D8B4D3D7010AD8B4D8D7030AD8B4DDD7E1
:102E2800010AD8B4E2D7070AD8B4E7D71ED0D30E20
:102E3800986F7C0E996FFEEC21F030D01C0E0001CB
:102E4800986F7C0E996FFEEC21F028D0F80E0001E7
:102E5800986F7C0E996FFEEC21F0380E0001986F88
:102E68007D0E996FFEEC21F019D020EE9BF0DECF9D
:102E78009DF0DDCF9EF000019E51010AD8A4EDD748
:102E88009D512D0AD8B4DAD7030AD8B4D0D7A10AED
:102E9800D8B4E3D71D0AD8B4D9D7DFD79A0E000122
:102EA800986F7F0E996FFEEC21F09BC073F09CC069
:102EB80074F00001756B766B13EC0CF073C098F02E
:102EC80074C099F0FEEC21F0DC0E0001986F7F0EC3
:102ED800996FFEEC21F01200CAEC22F06EC07DF072
:102EE8006FC07EF000017EAD03D07A6B7A2B02D0E2
:102EF80000017A6B7B517A19FE0B7A197B6F7EABD6
:102F080003D07A6B7A2B02D000017A6B7A477B5117
:102F18007A19FD0B7A197B6F7EA903D07A6B7A2B0D
:102F280002D000017A6B7A477A477B517A19FB0BFA
:102F38007A197B6F7EA703D07A6B7A2B02D00001B7
:102F48007A6B7A477A477A477B517A19F70B7A195D
:102F58007B6F7DAD03D07A6B7A2B02D000017A6B40
:102F68007A3B7B517A19EF0B7A197B6F7DAB03D0D3
:102F78007A6B7A2B02D000017A6B7A3B7A477B51C5
:102F88007A19DF0B7A197B6F7DA703D07A6B7A2BBE
:102F980002D000017A6B7A3B7A477A477B517A19DB
:102FA800BF0B7A197B6F7DA503D07A6B7A2B02D081
:102FB80000017A6B7A337A337B517A197F0B7A194D
:102FC8007B6F7DA303D07A6B7A2B02D000017A6BDA
:102FD8007C517A19FE0B7A197C6F7DA103D07A6B2C
:102FE8007A2B02D000017A6B7A477C517A19FD0B53
:102FF8007A197C6F7BC078F07CC079F012000001F0
:10300800766F000176511F0B776F010E786F000EF7
:10301800796F000E7A6F000E7B6F000E7C6F770E53
:103028006A6F000E6B6F540E2CEC24F0780E0001C2
:103038006A6F000E6B6F550E2CEC24F07F0E0001AA
:103048006A6F000E6B6F520E47EC24F000017F810F
:103058007F0E6A6F000E6B6F520E2CEC24F0450E3B
:10306800E82EFED700F07F0E00016A6F000E6B6F2E
:103078006A0E47EC24F0010E00017927000E7A232E
:103088007B237C237FA108D07C517B1105E1792922
:103098000F0E7A59D8A0E7D77C517B1140E17929E6
:1030A8000F0E7A59D8B012007F0E6A6F000E6B6F40
:1030B800520E47EC24F000017F917F0E6A6F000EDC
:1030C8006B6F520E2CEC24F07D0E00016A6F000E1F
:1030D8006B6F680E47EC24F07E0E00016A6F000EDD
:1030E8006B6F690E47EC24F0000E0001706FFF0E45
:1030F800716F7E51736F726B7051721771517317C4
:103108007D51746F756B72517413735175136EC062
:10311800D9FF6FC0DAFF74C0DEFF75C0DDFF120093
:1031280022EEC8F010EE81F0110EDBCFE3FFE806C7
:10313800FCE2000E0001976F000E966F000E956F6F
:1031480096BF06D096516BE1060E955DD8B067D054
:103158007A0E9525D96E000E9621DA6EDF50806FB3
:1031680080390F0B0F0B936F7A0E9525D96E000ED1
:103178009621DA6EDF500F0B946F300E9327300EC6
:103188009427390E93650CD09751010D810EF324C5
:10319800D96E000EF420DA6E9351070FDF6E0AD055
:1031A8009751010D810EF324D96E000EF420DA6ECA
:1031B80093C0DFFF972B390E94650CD09751010D02
:1031C800810EF324D96E000EF420DA6E9451070FA5
:1031D800DF6E0AD09751010D810EF324D96E000ECF
:1031E800F420DA6E94C0DFFF972B96BF06D0965175
:1031F8000FE1050E955DD8B00BD09751010D810EEA
:10320800F324D96E000EF420DA6E3A0EDF6E972B97
:10321800954B962B96BF9CD7965101E195D7810E79
:103228007A6F000E7B6F120000017B51721904E166
:103238007C517319D8B429D07D51741904E17E5199
:103248007519D8B422D072517D1904E173517E19D1
:10325800D8B41BD07B51741904E17C517519D8B4CA
:1032680014D07405300E7559D8B00FD07205300ED1
:103278007359D8B00AD07D05300E7E59D8B005D024
:103288007B05300E7C59D8A002D0010E1200745173
:10329800725D75517359D8B036D07D517B5D7E51C2
:1032A8007C59D8B025D07B51725D7C517359D8B008
:1032B8000AD074517B5D75517C59D8B002D0010E8B
:1032C8001200000E120020EE7BF000EE60F0080EF7
:1032D800DBCFEBFFE806FCE220EE72F000EE69F0CF
:1032E800080EDBCFEBFFE806FCE27BEC1CF01200DB
:1032F800000172517D5D73517E59D8B002D0000E25
:103308001200010E120020EE7BF000EE60F0080EB5
:10331800DBCFEBFFE806FCE220EE72F000EE69F08E
:10332800080EDBCFEBFFE806FCE27BEC1CF012009A
:10333800000E0001696F6451631103E16205D8A0B2
:103348002FD06951010DC60EF324D96E010EF42059
:10335800DA6E61C065F062C066F063C067F064C091
:1033680068F00D0E05D0D89068336733663365333F
:10337800E82EF9D765510F0BAAEC25F0DF6E000196
:10338800692B6951010DC60EF324D96E010EF42084
:10339800DA6E62510F0BAAEC25F0DF6E0001692B83
:1033A8006951010DC60EF324D96E010EF420DA6EB0
:1033B80061C065F062C066F063C067F064C068F021
:1033C800050E05D0D8906833673366336533E82E29
:1033D800F9D765510F0BAAEC25F0DF6E0001692BB8
:1033E8006951010DC60EF324D96E010EF420DA6E70
:1033F80061510F0BAAEC25F0DF6E0001692B6951B2
:10340800010DC60EF324D96E010EF420DA6E000EFB
:10341800DF6E692BC60E616F010E626F1200000E1F
:103428000001766F000E776F000E786F000E796FCF
:10343800000E7A6F000E7B6F070E7B6501D02ED0D1
:103448007B510E0D0A0EF326000EF422000EF32413
:10345800D96E030EF420DA6EDE50765DDE507759B1
:10346800DE507859DE507959D8B016D07B510E0D00
:103478000A0EF326000EF422000EF324D96E030E72
:10348800F420DA6EDECF76F0DECF77F0DECF78F09C
:10349800DECF79F07BC07AF07B2BCED77A510E0D38
:1034A800000EF324D96E030EF420DA6E6AC0DEFF34
:1034B8006BC0DEFF6CC0DEFF6DC0DEFF20EE64F087
:1034C8007A510E0D040EF326000EF422000EF3249A
:1034D800E16E030EF420E26E050EDBCFE3FFE80693
:1034E800FCE27A510E0D0A0EF326000EF422000EAD
:1034F800F324D96E030EF420DA6E6EC0DEFF6FC0BF
:10350800DEFF70C0DEFF71C0DEFF1200020E000198
:10351800A46F000EA66F000EA56FA2C0D9FFA3C0AE
:10352800DAFFDECF84F0DDCF85F064EC00F0000137
:1035380020EE10F0A251D926A351DA22080EEBCFC3
:10354800DBFFE806FCE220EE17F0A251D926A351D2
:10355800DA22DF50D8B407D0000EA46F000EA66F91
:10356800650EA56F120020EE16F0A251D926A351C0
:10357800DA22DF50D8A407D0000EA46F000EA66F81
:10358800C70EA56F120020EE08F0A251D926A3514C
:10359800DA2200EE6FF0050EDBCFEBFFE806FCE267
:1035A80020EE10F0A251D926A351DA2200EE75F0D0
:1035B800080EDBCFEBFFE806FCE21BEC1FF0000176
:1035C80020EE0EF0A251D926A351DA22DECF6FF0F9
:1035D800DDCF70F020EE10F0A251D926A351DA22E7
:1035E80000EE71F0080EDBCFEBFFE806FCE27CECA6
:1035F80022F012009AC0D9FF9BC0DAFF10EE9EF0AD
:10360800160EDBCFE3FFE806FCE2000E0001AC6F0C
:10361800000EAB6F9E0E606F000E616F8DEC0AF0AE
:10362800000120EE0DF09A51D9269B51DA22DE5086
:10363800AB1906E1DE50AC19D8A402D0D88012002C
:103648007B0E986F7F0E996FFEEC21F0ABC061F096
:10365800ACC062F00001636B646B9CEC19F061C054
:1036680098F062C099F0FEEC21F0B40E0001986F5A
:103678007F0E996FFEEC21F0000120EE0DF09A51BB
:10368800D9269B51DA22DECF9CF0DDCF9DF09CC07D
:1036980061F09DC062F0636B646B9CEC19F061C0D3
:1036A80098F062C099F0FEEC21F0FC0E0001986FD2
:1036B8007F0E996FFEEC21F0D89012004DEC20F0AF
:1036C80021EE00F0050EEBCFDBFFE806FCE20E0E64
:1036D8000001606F010E616F4DEC25F047EC26F09C
:1036E80060C006F161C007F162C008F163C009F16A
:1036F800F8C00AF1F9C00BF1FAC00CF1FBC00DF1EA
:10370800060E0101186F040E196F000E156F010ED9
:10371800146F080E176F000E166F000E1B6F010E48
:103728001A6F06C122F107C123F108C124F109C1AA
:1037380025F121EE00F011EE1CF0050EDBCFE3FFC2
:10374800E806FCE20AC12CF10BC12DF10CC12EF1E7
:103758000DC12FF121EE0EF011EE26F0050EDBCF94
:10376800E3FFE806FCE221EE14F000EEA7F01F0EDE
:10377800DBCFEBFFE806FCE276EC0DF0120047C069
:1037880011F0010E126E112A02D0D8901236112EA5
:10379800FCD71250FF0A8216000E806E020E476098
:1037A80007D0010E4724136E146A000E142204D0A9
:1037B800000E146E000E136E13C047F0E80E0F5C77
:1037C800030E1058D8B01200000E156E020E1564C4
:1037D80001D013D01550010D3C0EF324D96E000E04
:1037E800F420DA6E0FC008F010C009F015C00AF016
:1037F8005BEC1FF0DF6E152AE9D747C011F0010E08
:10380800126E112A02D0D8901236112EFCD71250FF
:1038180082124750010D3C0EF324D96E000EF4209D
:10382800DA6EDF50116E1150010DE10EF324D96EDE
:10383800010EF420DA6EDF50806E1200000E0001D7
:10384800756F070E756501D050D075510E0D000EBD
:10385800F324606F030EF420616F670E626F000E31
:10386800636F79EC23F00001D8A03DD075510E0D9F
:103878000A0EF326000EF422000EF324D96E030E6E
:10388800F420DA6EDECF6DF0DECF6EF0DECF6FF0B3
:10389800DECF70F06D1F6E1F6F1F701F6D2B000E37
:1038A8006E236F2370233EEC26F000016D516025D6
:1038B800716F6E516121726F6F516221736F705118
:1038C8006321746F745173110EE12C0E715D010E3A
:1038D8007259D8B008D06BC0D9FF6CC0DAFF75C078
:1038E800DFFF010E1200752BACD7000E120000018D
:1038F8006951601904E16A516119D8B429D06B5132
:10390800621904E16C516319D8B422D060516B1963
:1039180004E161516C19D8B41BD06951621904E1F2
:103928006A516319D8B414D06205300E6359D8B0FF
:103938000FD06005300E6159D8B00AD06B05300E33
:103948006C59D8B005D06905300E6A59D8A002D094
:10395800010E12006251605D63516159D8B01200C6
:103968006B51695D6C516A59D8B010D06951605D6E
:103978006A516159D8B012006251695D63516A5940
:10398800D8B002D0010E1200000E120060516B5D1B
:1039980061516C59D8B002D0000E1200010E12000D
:1039A8000201485100019A19D8B441D09A51D8A4BB
:1039B80007D04A0E986F7F0E996FFEEC21F00AD05F
:1039C80000019A05D8A406D0600E986F7E0E996FF4
:1039D800FEEC21F000019A05D8A429D09B51D8A467
:1039E80007D04D0E986F7E0E996FFEEC21F00AD02D
:1039F80000019B05D8A406D0260E986F7E0E996FFD
:103A0800FEEC21F000019C51D8A407D0560E986F07
:103A18007D0E996FFEEC21F00AD000019C05D8A418
:103A280006D0730E986F7D0E996FFEEC21F020EE94
:103A38009AF012EE48F00E0EDBCFE3FFE806FCE248
:103A480012000001746F3CD072C06AF073C06BF052
:103A5800D6EC23F02C0E0001756F8198750E606FFF
:103A6800000E616FCCEC21F0000E1200760E000102
:103A7800606F000E616F30EC21F00001765112008A
:103A8800818861EC26F0300E000163196211D8A418
:103A980007D0550E6F6FFE0E6E6FD3EC24F00BD06F
:103AA80061EC26F0FE0E000162256E6FFF0E6321A9
:103AB8006F6FD3EC24F0CC0E20EC26F0000E120031
:103AC80000017451000AD8B4BFD7010AD8B4CED7C0
:103AD800030AD8B4D5D7000E12001F0E036E000ECD
:103AE800046E000E056E000E066E81BA0FD03350BC
:103AF800321014E13028FF0E3158D8B00FD0010E23
:103B08003026000E31223222332208D0000E306EC9
:103B1800000E316E000E326E000E336E0350305CB4
:103B2800045031580550325806503358D8A002D0A6
:103B3800010E01D0000E486E4850D8B411D049503B
:103B4800D8A40ED003C030F004C031F005C032F064
:103B580006C033F001C0D9FF02C0DAFF010E05D05C
:103B680001C0D9FF02C0DAFF000EDF6E48C049F07D
:103B78001200580EF66E4C0EF76E000EF86E02EE3E
:103B8800C8F010EE12F00900F5CFEEFFE550E15055
:103B9800FAE1D40EF66E4B0EF76E000EF86E01EEDB
:103BA800E1F010EE1CF00900F5CFEEFFE550E15012
:103BB800FAE1000EF66E4D0EF76E000EF86E090073
:103BC800F5CF4BF00900F5CF4CF003EE00F0A20E54
:103BD800EE6AE806FDE102EE00F0C80EEE6AE806BD
:103BE800FDE101EEBDF0240EEE6AE806FDE100EE0F
:103BF80028F0230EEE6AE806FDE14D904D92000E86
:103C0800F86E000127EF07F000016F6F700E0001DA
:103C18006A6F000E6B6F750E47EC24F000016F059C
:103C2800D8B40BD015D0F00E701770812CD0F00ED0
:103C380018D0F00E7017060E19D06E51000AD8B4BD
:103C4800F6D7010AD8B4EFD7030AD8B4F2D7EBD71E
:103C58006F51D8B40DD017D00F0E7017708913D0CC
:103C68000F0E701710D00F0E7017600E70130BD058
:103C78006E51000AD8B4F4D7010AD8B4EDD7030AB4
:103C8800D8B4F1D7E9D7700E6A6F000E6B6F750E56
:103C98002CEC24F01200820E00016A6F000E6B6F8C
:103CA8001B0E47EC24F0000182A106D080C0D9FF8A
:103CB80081C0DAFF010E05D080C0D9FF81C0DAFFCC
:103CC800000EDF6E830E6E6F000E6F6F1F0E03EC1B
:103CD80018F0000183A708D020EE01F08051D92602
:103CE8008151DA22010E07D020EE01F08051D92649
:103CF8008151DA22000EDF6E83A909D020EE02F08E
:103D08008051D9268151DA22010EDF6E120020EE91
:103D180002F08051D9268151DA22000EDF6E12009E
:103D28000001706F080E000170611ED0710E6A6F7D
:103D3800000E6B6F1C0E47EC24F070C06EF0010E85
:103D480000016F6F6E2B02D0D8906F376E2FFCD7A3
:103D580000016F51FF0A7117710E6A6F000E6B6FC9
:103D68001C0E2CEC24F01200080E0001705F710E7E
:103D78006A6F000E6B6F1D0E47EC24F070C06EF07A
:103D8800010E00016F6F6E2B02D0D8906F376E2F27
:103D9800FCD700016F51FF0A7117710E6A6F000E90
:103DA8006B6F1D0E2CEC24F01200000E00016E6FDC
:103DB800000E6F6F000E706F000E716F6A516B11FD
:103DC8006C116D11D8B42AD0010E726F06D0D8903C
:103DD8006A376B376C376D37722B6DAFF8D7D89061
:103DE8006E376F37703771376A51665D6B51675937
:103DF8006C5168596D516959D8A009D06A51665FEC
:103E08006B51675B6C51685B6D51695B6E81D890D3
:103E18006D336C336B336A33722FE1D76EC066F043
:103E28006FC067F070C068F071C069F0120075C0AB
:103E38006AF076C06BF0B8EC23F0000E0001866FD4
:103E4800050E866501D014D08651010D6F0EF3243E
:103E5800D96E000EF420DA6E8651010D7E0EF32421
:103E6800E16E000EF420E26EDFCFE7FF862BE8D785
:103E78002A0E846F8198840E606F000E616FCCECFF
:103E880021F0000E0001856F050E856501D00DD06B
:103E98008551010D7E0EF324606F000EF420616FD2
:103EA800CCEC21F00001852BEFD78188120008C0E7
:103EB80001F009C002F0000E046E640E036E53ECAC
:103EC80022F001500E6E0E50640DF31EF41EF34ADC
:103ED800F42A0850F324016E0950F420026E000EF3
:103EE800046E0A0E036E53EC22F001500D6E0D5055
:103EF8000A0DF3CF0BF00E50640DF3500B2400089D
:103F080008240C6E08D00C5012000D5012000E50F0
:103F18001200000E12000A50000AD8B4F8D7010A9D
:103F2800D8B4F3D7030AD8B4EED7F3D76FEC26F09A
:103F380060C075F061C076F075C06AF076C06BF04D
:103F4800D6EC23F02C0E0001776F8198770E606F06
:103F5800000E616FCCEC21F0780E0001606F000E4E
:103F6800616F30EC21F0790E0001606F000E616F17
:103F780030EC21F08188000E00016F6FFF0E706F2A
:103F88007951726F716B6F51711770517217785147
:103F9800736F746B71517311606F72517411616F2B
:103FA80074EC26F0120000017C6F41504210D8A436
:103FB80010D06FC06AF070C06BF0B8EC23F02A0E16
:103FC80000017D6F81987D0E606F000E616FCCECF3
:103FD80021F07C0E0001606F000E616FCCEC21F0C7
:103FE800FF0E0001786FFF0E796F20EE73F0DECFC1
:103FF8007AF0DDCF7BF078517A2779517B234150D5
:104008007A190AE142507B19D8A406D08188000E9B
:10401800426E000E416E1200414A422A1200020E00
:10402800000171256A6F000E72216B6FD6EC23F0C8
:104038002C0E0001766F8198760E606F000E616F0E
:10404800CCEC21F0000E0001776F050E776501D0EA
:104058000DD07751010DDA0EF324606F010EF420B4
:10406800616F30EC21F00001772BEFD78188DA0EF1
:10407800606F010E616FFFEC08F0E9CFD9FFEACF5E
:10408800DAFF00EE71F0040EDBCFEBFFE806FCE28E
:104098001200740E00016A6F000E6B6F640E47EC1D
:1040A80024F0750E00016A6F000E6B6F650E47EC09
:1040B80024F0760E00016A6F000E6B6F620E47ECFB
:1040C80024F0770E00016A6F000E6B6F630E47ECE9
:1040D80024F0780E00016A6F000E6B6F600E47ECDB
:1040E80024F0790E00016A6F000E6B6F610E47ECC9
:1040F80024F020EE74F000EE6EF0050EDBCFEBFF3F
:10410800E806FCE21200F8EC25F09FEC15F09AC0E6
:10411800A9F09BC0AAF09CC0ABF0A3EC22F06EC043
:10412800A9F06FC0AAF070C0ABF0300E00016F6F3D
:10413800000E6E6FE8EC24F0300E0001616F000E87
:10414800606F74EC26F05F0E00016F6FFE0E6E6FED
:10415800D3EC24F079EC26F039EC25F0010E0001BF
:10416800A96F000EAB6F000EAA6FA9C0A6F0AAC077
:10417800A7F0ABC0A8F01200000E00017D6F000E82
:104188007C6F140E6F256A6F000E70216B6FD6EC72
:1041980023F02C0E00017E6F81987E0E606F000E5A
:1041A800616FCCEC21F0800E0001606F000E616F32
:1041B80030EC21F07F0E0001606F000E616F30EC73
:1041C80021F000018051796F786B7F517A6F7B6B9A
:1041D80078517A117C6F79517B117D6F81887CC011
:1041E8006FF07DC070F012000E0E00016F256A6F2F
:1041F800000E70216B6FD6EC23F02C0E0001786F47
:104208008198780E606F000E616FCCEC21F0000E83
:104218000001806F050E806501D013D07F0E606F9E
:10422800000E616F30EC21F000018051010D790E14
:10423800F324D96E000EF420DA6E7FC0DFFF802BE6
:10424800E9D7818820EE79F000EE6FF0050EDBCF1C
:10425800EBFFE806FCE21200000E0001666F000E9C
:10426800676F000E686F000E696F000EC96EC7B0E9
:1042780015D066C062F067C063F068C064F069C0BA
:1042880065F0662B000E6723682369236551641166
:1042980005E162290F0E6359D8A0E9D76951681161
:1042A80005E166290F0E6759D8A004D08188F8EC7B
:1042B80025F0120060C0D9FF61C0DAFFC9CFDFFF67
:1042C800120000016451651166116711D8B424D039
:1042D800010E686F06D0D890643765376637673740
:1042E800682B67AFF8D76451605D655161596651B5
:1042F800625967516359D8A008D06451605F65510D
:10430800615B6651625B6751635BD8906733663364
:1043180065336433682FE7D760C060F061C061F02F
:1043280062C062F063C063F012007C0E0001606F2F
:10433800000E616F60EC25F0820E0001606F000EC8
:10434800616FDBEC25F0000E0001866F070E8665B5
:1043580001D0120020EE7CF000EE64F0050EDBCFF9
:10436800EBFFE806FCE282C06AF083C06BF084C011
:104378006CF085C06DF0FF0E6E6FFF0E6F6FFF0E55
:10438800706FFF0E716F13EC1AF00001862BDED7E9
:10439800000E0001666F000E676F000E686F000E5A
:1043A800696F60C0D9FF61C0DAFFDF50C96EC7B05E
:1043B80015D066C062F067C063F068C064F069C079
:1043C80065F0662B000E6723682369236551641125
:1043D80005E162290F0E6359D8A0E9D76951681120
:1043E80005E166290F0E6759D8A012008188F8ECFC
:1043F80025F0120016D098C0F6FF99C0F7FFF86AAA
:10440800070EF76403D00800F55005D0F6CFE9FF92
:10441800F7CFEAFFEF50AD6E0001984B992BACA295
:10442800FED798C0F6FF99C0F7FFF86A070EF76441
:1044380003D00800F55005D0F6CFE9FFF7CFEAFF23
:10444800EF500009D8B41200D6D7000E0001666FED
:10445800000E656F62516311D8B41CD0010E646FF1
:1044680004D0D89062376337642B63AFFAD7D890FB
:10447800653766376251605D63516159D8A005D0D0
:104488006251605F6351615B6581D89063336233C9
:10449800642FEDD765C060F066C061F01200000EB1
:1044A800066E000E056E03500410D8B41CD0010E21
:1044B800076E04D0D89003360436072A04AEFAD71C
:1044C800D890053606360350015C04500258D8A02F
:1044D80005D00350015E0450025A0580D89004327A
:1044E8000332072EEDD705C001F006C002F0120016
:1044F800060E000171256A6F000E72216B6FB8EC11
:1045080023F06FC07AF0000170517B6F2A0E7C6F28
:1045180081987C0E606F000E616FCCEC21F07B0EF1
:104528000001606F000E616FCCEC21F07A0E000183
:10453800606F000E616FCCEC21F081881200010ED3
:104548000001726F000E746F000E736F000E716FB2
:10455800710E6A6F000E6B6F740E47EC24F0000149
:104568007139E842070B070BE806D8A404D0000EFF
:10457800746F000E03D0010E746F2D0E736F72C02E
:104588006EF073C06FF074C070F01200770E000107
:104598006A6F000E6B6F1D0E47EC24F0760E00015B
:1045A8006A6F000E6B6F1C0E47EC24F0000E0001C2
:1045B800706FFF0E716F7751736F726B7051721756
:1045C800715173177651746F756B725174116E6FE8
:1045D800735175116F6F12000001626F15D0D70EFD
:1045E8000001606F7F0E616F1200E60E606F7F0E34
:1045F800616F1200EA0E606F7F0E616F1200AB0EE2
:10460800606F7E0E616F120000016251010AD8B41A
:10461800E6D7070AD8B4E9D7170AD8B4EBD7EFD743
:1046280010D0D20E0001606F7F0E616F1200EE0E87
:10463800606F7F0E616F1200990E606F7E0E616F62
:10464800120060C062F061C063F000016351080AA3
:10465800D8A4F2D76251000AD8B4E3D7060AD8B46E
:10466800E6D7EAD7000162516311D8B418D0010E19
:10467800646F04D0D89062376337642B63AFFAD77E
:104688006251605D63516159D8A004D06251605F86
:104698006351615BD89063336233642FF1D760C094
:1046A80060F061C061F01200000E0001666F050E37
:1046B800666501D018D06651010DF3506225D96E98
:1046C800F4506321DA6E6651010DF3506025E16EF6
:1046D800F4506121E26EDE50E618D8B402D0D890CA
:1046E8001200662BE4D7D8801200000E0001666F16
:1046F800030E666501D018D06651010DF35062258E
:10470800D96EF4506321DA6E6651010DF3506025BD
:10471800E16EF4506121E26EDE50E618D8B402D0A2
:10472800D8901200662BE4D7D880120061EC26F0EE
:10473800300E000163196211D8A407D05F0E6F6FA5
:10474800FE0E6E6FD3EC24F00BD061EC26F0FE0E5B
:10475800000162256E6FFF0E63216F6FD3EC24F0AA
:10476800CC0E20EC26F012006C0E00016C6F6AC0B3
:104778006DF06B516E6F81986C0E606F000E616FFB
:10478800CCEC21F06D0E0001606F000E616FCCEC77
:1047980021F06E0E0001606F000E616FCCEC21F00D
:1047A80081881200640E00016C6F6AC06DF06B5155
:1047B8006E6F81986C0E606F000E616FCCEC21F00B
:1047C8006D0E0001606F000E616FCCEC21F06E0E73
:1047D8000001606F000E616FCCEC21F0818812003F
:1047E800000E0001606F070E606501D013D06051A4
:1047F800090D060EF326000EF422000EF324D96EDE
:10480800020EF420DA6EDF50D8A402D0000E120097
:10481800602BE9D7010E1200000E0001606F070E31
:10482800606501D013D06051090D060EF326000E05
:10483800F422000EF324D96E020EF420DA6EDF5053
:10484800D8B402D0000E1200602BE9D7010E120076
:1048580000016C6F220E00016D6F81986D0E606F04
:10486800000E616FCCEC21F06C0E0001606F000E41
:10487800616FCCEC21F06AC060F06BC061F0CCECE9
:1048880021F08188120000016C6F200E00016D6F0D
:1048980081986D0E606F000E616FCCEC21F06C0E8C
:1048A8000001606F000E616FCCEC21F06AC060F00F
:1048B8006BC061F030EC21F081881200000E00011D
:1048C800626F050E626501D00FD06251010DF35081
:1048D8006025D96EF4506121DA6EDF50D8B402D069
:1048E800D8901200622BEDD7D8801200000E00017C
:1048F800626F030E626501D00FD06251010DF35053
:104908006025D96EF4506121DA6EDF50D8B402D038
:10491800D8901200622BEDD7D88012000001676F83
:10492800000167510E0D040EF326000EF422000E4E
:10493800F324D96E030EF420DA6E00EE60F0050E53
:10494800DBCFEBFFE806FCE212006EC070F000015E
:104958006F51716F700E6A6F000E6B6F000E2CEC4A
:1049680024F0710E00016A6F000E6B6F010E2CECC3
:1049780024F012006EC070F000016F51716F700E5C
:104988006A6F000E6B6F020E2CEC24F0710E0001A2
:104998006A6F000E6B6F030E2CEC24F012006EC0D1
:1049A80070F000016F51716F700E6A6F000E6B6FBF
:1049B800060E2CEC24F0710E00016A6F000E6B6F6E
:1049C800070E2CEC24F012006EC070F000016F513D
:1049D800716F700E6A6F000E6B6F040E2CEC24F072
:1049E800710E00016A6F000E6B6F050E2CEC24F03F
:1049F80012000001BE6F82C0BCF083C0BDF020EE83
:104A080095F000EE6FF0080EDBCFEBFFE806FCE256
:104A18000001BE51D7EC1FF0120000016051620383
:104A2800F3CF64F0F4CF65F060516303F35065276A
:104A380061516203F350652764C060F065C061F09E
:104A4800120072C06EF073C06FF0A9EC24F076C04B
:104A58006EF077C06FF0BEEC24F0D40E20EC26F098
:104A680000017A5186EC25F01200000E00016E6FED
:104A78006E0E6A6F000E6B6F6F0E47EC24F000012C
:104A88006E8B6E0E6A6F000E6B6F6F0E2CEC24F03F
:104A98001200000E0001626F050E626501D012005F
:104AA8006251010DF3506025D96EF4506121DA6E20
:104AB800FF0EDF6E622BF0D7000E0001626F050E4D
:104AC800626501D012006251010DF3506025D96E64
:104AD800F4506121DA6E000EDF6E622BF0D7F30E10
:104AE8003F184010D8A40BD0000E406E000E3F6E49
:104AF800010E3826000E39223A223B2212003F4A84
:104B0800402A12000001606F00016051090D060E75
:104B1800F326000EF422000EF324D96E020EF420C0
:104B2800DA6E000EDF6E1200110EF66E7C0EF76E56
:104B380020EE62F00A0E0900F5CFDEFFE806FBE280
:104B4800620E0001606F000E616F12000001606F5D
:104B58000A0E0001606103D06051300F1200100E80
:104B6800606103D06051370F1200000E12009AC026
:104B780073F09BC074F09CC075F09DC076F013EC88
:104B88000CF073C098F074C099F0FEEC21F012009C
:104B9800000E00016E6F6E0E6A6F000E6B6F740E62
:104BA80047EC24F01F0E00016E176E511200000E24
:104BB8000001626F030E626501D0120060C0D9FF68
:104BC80061C0DAFF000EDF6E622BF4D73F065B4F41
:104BD800666D7D077F6F00403F3F3F2E3F3F3F2E72
:104BE8003F3F3F2E3F3F3F00C69AC78C93800F013F
:104BF8005C9193925C9393965C9793985C99818867
:104C0800C68A1200F80E8216F80E9416000E926EDE
:104C1800000E0F015B6FF80E5D1780681200000E22
:104C280000016E6F6E0E6A6F000E6B6F1A0E47EC06
:104C380024F000016E51120000016A6F81986A0E1B
:104C48000001606F000E616FCCEC21F081881200CA
:104C58003F3F3A3F3F3A3F3F3A3F3F3A3F3F3A3F75
:104C68003F0060C02CF061C02DF062C02EF063C020
:104C78002FF0120038C060F039C061F03AC062F01D
:104C88003BC063F012002CC060F02DC061F02EC054
:104C980062F02FC063F0120013EC26F00009D8B4BC
:104CA80002D0010E1200000E1200AC8AAC98AB8E36
:104CB800AC8CAC80030EAF6E12006FEC26F060C0B7
:104CC80062F061C063F012000001726F000172515E
:104CD80094EC1EF0120045C060F046C061F012006E
:104CE80060C045F061C046F01200E80E20EC26F0E6
:0A4CF800120013EC26F01200123433
:107C100000454E433432344A36303000457468658E
:107C2000726E657420636F6E74726F6C6C65722017
:107C30006861732072657475726E656420616E2070
:107C4000756E6B6E6F776E2064657669636520492B
:107C5000442E002D2D2D2D2D2D2D2D2D2D2D2D2D69
:107C60002D2D2D2D2D2D2D2D2D2D2D2D2D2D2D2D44
:107C70002D2D2D2D2D2D2D2D2D2D2D2D2D2D2D2D34
:107C80002D2D2D0A0D005B496E76616C69642041D3
:107C90005250204D6573736167652077617320646E
:107CA00069736361726465642E5D0D0A00496E69D3
:107CB0007469616C6973696E672045746865726E7A
:107CC000657420436F6E74726F6C6C65722E2E2E0D
:107CD0000A0D0045746865726E657420636F6E747A
:107CE000726F6C6C657220697320756E726573704B
:107CF0006F6E736976652E00495020616464726509
:107D0000737320636F756C64206E6F7420626520DE
:107D10007265736F6C7665642E0020455448455239
:107D20004E455420434F4E54524F4C4C4552204DDB
:107D30004F44554C453A2000416E20756E6B6E6F76
:107D4000776E206572726F7220686173206F636353
:107D5000757265642E00636F6E6E656374696F6E15
:107D60002069732048616C66204475706C65782EBC
:107D70000A0D00636F6E6E656374696F6E206973C0
:107D80002046756C6C204475706C65782E0A0D0069
:107D900057726974696E67203078313233342073DA
:107DA00075636365737366756C2E0A0D00496E69A1
:107DB0007469616C69736174696F6E20636F6D7053
:107DC0006C657465642E0A0D0057726974696E677C
:107DD00020307831323334206661696C65642E0A54
:107DE0000D004649524D57415245204255494C4499
:107DF00020444154452049532000536F75726365F8
:107E0000204D41432061646472657373206973205F
:107E10000053696C69636F6E207265766973696F70
:107E20006E2069732000537065656420697320318A
:107E30003030204D6270732C20005B494E56414C0F
:107E4000494420434845434B53554D5D00537065AD
:107E50006564206973203130204D6270732C2000DE
:107E60004C696E6B2065737461626C6973686564DC
:107E70002E20002045544845524E4554204D4F4435
:107E8000554C453A2000436F756C64206E6F74202A
:107E90007265736F6C76652000556E6B6E6F776ED2
:107EA0002045746865725479706500556E6B6E6F0D
:107EB000776E2050726F746F636F6C00204D454D6C
:107EC0004F5259204D4F44554C453A20005265734E
:107ED000657420737563636573732E0A0D005B52BE
:107EE00065706C792073656E7420746F2000495042
:107EF000207061636B65742073656E742E005B5334
:107F0000796D626F6C204572726F72735D0052659D
:107F1000736574206661696C65642E0A0D005B49A7
:107F200073477261747569746F75735D0020495091
:107F30007634204D4F44554C453A20002041525054
:107F4000204D4F44554C453A20004C696E6B206CD7
:107F50006F73742E0A0D0020646574656374656424
:107F60002E20004D61722030312032303139005BDB
:107F700042726F6164636173745D005B4578706524
:107F80006374656420005B497350726F62655D00C5
:107F90005B556E69636173745D002028436F64658F
:107FA0003A200032333A32313A3037005B45525290
:107FB0004F525D002C20676F7420005B495076346F
:107FC0005D005B4152505D00202D3E20005D2D3E46
:107FD0005B00495076340049434D5000292E0A0D6C
:107FE000005D5B4C3D0054435000554450004152ED
:0F7FF00050002028002D3E005D5B00295D000041
:020000040020DA
:08000000FFFFFFFFFFFFFFFF00
:020000040030CA
:0E00000002285F3FFFD385FF0FC00FE00F40C7
:00000001FF
