:0400000057EF00F0C6
:100008002B002B002B002B002B002B002B002B0090
:100018002B002B002B002B002B002B002B002B0080
:100028002B002B002B002B002B002B002B002B0070
:100038002B002B002B002B002B002B002B00F75C38
:100048002B002B002B00B75D2B002B002B002B0067
:100058002B002B002B002B002B002B002B002B0040
:100068002B002B002B002B002B002B002B002B0030
:100078002B002B002B002B002B002B002B002B0020
:100088002B002B002B002B002B002B002B002B0010
:100098002B002B002B002B002B002B002B002B0000
:0A00A8002B002B00C000BDEFB0F0EC
:10FBBA0000454E433432344A363030000A0D2A2A80
:10FBCA002A20435249544943414C204552524F52EC
:10FBDA003A20525820425546204F56464C2043411F
:10FBEA00555345442053595354454D205245534586
:10FBFA0054202A2A2A0A0D000A0D2A2A2A204352A8
:10FC0A0049544943414C204552524F523A20535489
:10FC1A0041434B20554E4452464C2043415553458F
:10FC2A0044205245534554202A2A2A0A0D000A0D17
:10FC3A002A2A2A20435249544943414C20455252C8
:10FC4A004F523A20535441434B204F5652464C2070
:10FC5A00434155534544205245534554202A2A2AA4
:10FC6A000A0D000A0D2A2A2A2043524954494341BF
:10FC7A004C204552524F523A2042524F574E2D4F26
:10FC8A005554204341555345442052455345542029
:10FC9A002A2A2A0A0D002D2D2D2D2D2D2D2D2D2D03
:10FCAA002D2D2D2D2D2D2D2D2D2D2D2D2D2D2D2D7A
:10FCBA002D2D2D2D2D2D2D2D2D2D2D2D2D2D2D2D6A
:10FCCA002D2D2D2D2D2D2D000A0D2A2A2A204352A5
:10FCDA0049544943414C204552524F523A205741C8
:10FCEA00544348444F4720434155534544205245C5
:10FCFA00534554202A2A2A0A0D005B495076345D5E
:10FD0A003A204164647265737320636F6E666C692E
:10FD1A0063742064657465637465642E0A0D005B00
:10FD2A00495076345D3A2053657474696E67204988
:10FD3A005076342053726320416464726573732071
:10FD4A00746F20005B416D206C697374656E696E17
:10FD5A0067206F6E207468697320706F72745D001B
:10FD6A005B495076345D3A204661696C656420745B
:10FD7A006F207265736F6C766520005B5443505D2B
:10FD8A003A204C697374656E696E67206F6E2050F5
:10FD9A006F727420000A0D4649524D574152452050
:10FDAA004255494C4420444154452049532000506F
:10FDBA006172616D2050726F626C656D3A204261AA
:10FDCA0064204865616465720044657374696E6194
:10FDDA0074696F6E20756E726561636861626C65C5
:10FDEA0000526F7574657220416476657274697326
:10FDFA00656D656E740052656D61696E696E672026
:10FE0A004C656E6774682069732000526F7574655B
:10FE1A007220536F6C696369746174696F6E004C08
:10FE2A00696E6B2065737461626C69736865642EB0
:10FE3A002000556E6B6E6F776E204574686572543C
:10FE4A0079706500556E6B6E6F776E2050726F74A5
:10FE5A006F636F6C005265646972656374204D65E7
:10FE6A0073736167650054696D657374616D7020A1
:10FE7A005265706C79005B53796D626F6C204572C4
:10FE8A00726F72735D005B53594E205265636569E8
:10FE9A007665645D0054696D6520457863656564BF
:10FEAA00656400536F75726365205175656E63688A
:10FEBA00001B5B3130333B33303B31306D004C69D2
:10FECA006E6B206C6F73742E0A0D004563686F2089
:10FEDA0052657175657374001B5B34313B31303B7D
:10FEEA0031306D001B5B34343B31303B31306D00B7
:10FEFA001B5B34353B31303B31306D001B5B343298
:10FF0A003B33303B31306D001B5B34363B33303B87
:10FF1A0031306D002064657465637465642E200059
:10FF2A004D61792032302032303139005B42726FB4
:10FF3A006164636173745D001B5B39343B343B312C
:10FF4A00306D004563686F205265706C79005469A2
:10FF5A006D657374616D70005B556E69636173746E
:10FF6A005D0032303A35363A323500202853657111
:10FF7A003D20005B4554485D3A20005D5B53657146
:10FF8A003D005B4543455D005B5552475D005B5054
:10FF9A0053485D005B41434B5D005B46494E5D0043
:10FFAA005B53594E5D005B4357525D005B5253549D
:10FFBA005D005B4E535D00495076340049434D5015
:10FFCA00001B5B306D00202D3E20005D5B4C3D0028
:10FFDA00290A0D0054435000554450004152500024
:10FFEA00070A0D002920002028005D20002D3E0070
:06FFFA005D5B0012000037
:020000040001F9
:100000006000A8F025F06000ACF026F0000E47EC90
:10001000B6F06000A8F025F06000ACF026F0010E0C
:1000200047ECB6F00001606F6051626F616B600079
:10003000CFF0D9FF6000D3F0DAFF600087F1DEFF78
:1000400060008BF1DDFF6000A8F025F06000ACF0EF
:1000500026F0010E47ECB6F00001606F60516000C1
:10006000CFF0D9FF6000D3F0DAFFDE12000EDD1210
:100070006000A8F025F06000ACF026F0010E47EC1F
:10008000B6F00001606F6051626F616B20EE02F0AC
:100090003350D9263450DA22600087F1DEFF600049
:1000A0008BF1DDFF6000A8F025F06000ACF026F0D9
:1000B000010E47ECB6F00001606F616B20EE02F0BC
:1000C0003350D9263450DA226051DE126151DD12EC
:1000D0006000A8F025F06000ACF026F0010E47ECBF
:1000E000B6F00001606F600080F161F0626B636BDD
:1000F000646B600084F164F0636B626B616B20EE93
:1001000004F03350D9263450DA22600087F1DEFF44
:1001100060008BF1DEFF60008FF1DEFF600093F185
:10012000DEFF6000A8F025F06000ACF026F0010EC4
:1001300047ECB6F00001606F600080F161F0626B27
:10014000636B646B600088F164F0600084F163F0BD
:10015000626B616B20EE04F03350D9263450DA2202
:100160006151DE126251DE126351DE126451DE1201
:100170006000A8F025F06000ACF026F0010E47EC1E
:10018000B6F00001606F600080F161F0626B636B3C
:10019000646B60008CF164F0600088F163F06000D3
:1001A00084F162F0616B20EE04F03350D9263450B4
:1001B000DA226151DE126251DE126351DE126451A5
:1001C000DE126000A8F025F06000ACF026F0010E11
:1001D00047ECB6F00001606F600080F161F0626B87
:1001E000636B646B20EE04F03350D9263450DA226E
:1001F0006151DE126251DE126351DE126451DE1271
:100200006000A8F025F06000ACF026F0010E47EC8D
:10021000B6F00001606F600080F161F0626B636BAB
:10022000646B600084F164F0636B626B616B20EE61
:1002300008F03350D9263450DA22600087F1DEFF0F
:1002400060008BF1DEFF60008FF1DEFF600093F154
:10025000DEFF6000A8F025F06000ACF026F0010E93
:1002600047ECB6F00001606F600080F161F0626BF6
:10027000636B646B600088F164F0600084F163F08C
:10028000626B616B20EE08F03350D9263450DA22CD
:100290006151DE126251DE126351DE126451DE12D0
:1002A0006000A8F025F06000ACF026F0010E47ECED
:1002B000B6F00001606F600080F161F0626B636B0B
:1002C000646B60008CF164F0600088F163F06000A2
:1002D00084F162F0616B20EE08F03350D92634507F
:1002E000DA226151DE126251DE126351DE12645174
:1002F000DE126000A8F025F06000ACF026F0010EE0
:1003000047ECB6F00001606F600080F161F0626B55
:10031000636B646B20EE08F03350D9263450DA2238
:100320006151DE126251DE126351DE126451DE123F
:100330006000A8F025F06000ACF026F0010E47EC5C
:10034000B6F0356E20EE0CF03350D9263450DA2258
:1003500035380F0B0F0BDF6E6000D4F060F0010E2C
:100360000001601720EE0DF03350D9263450DA2208
:10037000DF506019FE0B6019DF6E6000A8F025F0F9
:100380006000ACF026F0010E47ECB6F0356E35AEED
:1003900004D00001606B602B02D00001606B20EE86
:1003A0000DF03350D9263450DA226047DF506019FF
:1003B000FD0B6019DF6E35AC03D0606B602B02D093
:1003C0000001606B20EE0DF03350D9263450DA2254
:1003D00060476047DF506019FB0B6019DF6E35AA7C
:1003E00003D0606B602B02D00001606B20EE0DF03B
:1003F0003350D9263450DA22604760476047DF50D7
:100400006019F70B6019DF6E35A803D0606B602BA5
:1004100002D00001606B20EE0DF03350D92634502D
:10042000DA22603BDF506019EF0B6019DF6E35A6F2
:1004300003D0606B602B02D00001606B20EE0DF0EA
:100440003350D9263450DA22603B6047DF506019C0
:10045000DF0B6019DF6E35A403D0606B602B02D018
:100460000001606B20EE0DF03350D9263450DA22B3
:10047000603B60476047DF506019BF0B6019DF6E5B
:1004800035A203D0606B602B02D00001606B20EEC0
:100490000DF03350D9263450DA2260336033DF5008
:1004A00060197F0B6019DF6E35A003D0606B602B85
:1004B00002D00001606B20EE0EF03350D92634508C
:1004C000DA22DF506019FE0B6019DF6E6000A8F0C1
:1004D00025F06000ACF026F0010E47ECB6F000010C
:1004E000606F6051626F616B20EE0FF03350D92660
:1004F0003450DA22600087F1DEFF60008BF1DDFF0F
:100500006000A8F025F06000ACF026F0010E47EC8A
:10051000B6F00001606F616B20EE0FF03350D9260A
:100520003450DA226051DE126151DD126000A8F011
:1005300025F06000ACF026F0010E47ECB6F00001AB
:10054000606F6051626F616B20EE11F03350D926FD
:100550003450DA22600087F1DEFF60008BF1DDFFAE
:100560006000A8F025F06000ACF026F0010E47EC2A
:10057000B6F00001606F616B20EE11F03350D926A8
:100580003450DA226051DE126151DD126000A8F0B1
:1005900025F06000ACF026F0010E47ECB6F000014B
:1005A000606F6051626F616B20EE13F03350D9269B
:1005B0003450DA22600087F1DEFF60008BF1DDFF4E
:1005C0006000A8F025F06000ACF026F0010E47ECCA
:1005D000B6F00001606F616B20EE13F03350D92646
:1005E0003450DA226051DE126151DD126000A8F051
:1005F00025F06000ACF026F0020E47ECB6F01200D9
:10060000E7ECA3F06000B8F098F26000BCF099F25B
:10061000020198A745D0220E0101F7250001606F65
:10062000000E0101F8210001616F58ECB1F00101E9
:1006300020EE22F0F751D926F851DA22DE04D8A4B0
:1006400020D0000E246E000E70ECB2F0020E246E6C
:10065000010E70ECB2F0010120EE77F0F751D926CF
:10066000F851DA226F0078FF16F06F0078FF17F06C
:100670006F0078FF18F06F0078FF19F0DDECBAF02A
:100680000CD0010E246E000E70ECB2F0010E246E40
:10069000010E70ECB2F00CECB1F00B0EA9ECBBF05B
:1006A000020198A90DD064ECBBF00009D8B408D0C1
:1006B0006000DCF7F2F16000E0F7F3F145EC88F060
:1006C000020199A335D0000E67ECB0F0EA0E0001EC
:1006D0006D6FFF0E6E6F44ECB5F0000E2EECBBF0AC
:1006E000600058F06DF060005CF06EF044ECB5F026
:1006F000C60E00016D6FFB0E6E6F44ECB5F0000E80
:100700002EECBBF0600058F06DF060005CF06EF015
:1007100044ECB5F077ECBBF0EB0E00016D6FFF0E13
:100720006E6F44ECB5F0B7ECBBF003ECAFF0FF003C
:10073000010120EE34F0F751D926F851DA22DE0417
:10074000D8B45FD168D120EE39F0F751D926F851ED
:10075000DA22A4ECBBF0DE50165CDE501758D8B09D
:1007600002D0010EC7D0020E0101FF6F20EE35F05E
:10077000F751D926F851DA2210EE48F3410E6F00F6
:100780006FFFE3FFE806FBE246D120EE35F0F751BC
:10079000D926F851DA2210EE48F3410E6F006FFFB0
:1007A000E3FFE806FBE2FD51D8A409D0A4ECBBF0BE
:1007B000600058F07CF360005CF07DF319D0A4EC8D
:1007C000BBF00101FE51F96FFA6B1650F95D17503D
:1007D000FA59D8A009D0A4ECBBF0600058F07CF323
:1007E00060005CF07DF304D0FEC17CF303017D6BFF
:1007F00003017C5178257A6F7D5179217B6F7C5183
:1008000000084C250101FE6F7AC3C0F27BC3C1F220
:100810006000E0FD32F06000E4FD33F0346A356AD8
:100820000A0E366EA5ECB8F06000C8F06DF06000FE
:10083000CCF06EF044ECB5F0D00E00016D6FFF0E01
:100840006E6F44ECB5F06000E8FD32F06000ECFD46
:1008500033F0346A356A0A0E366EA5ECB8F06000E3
:10086000C8F06DF06000CCF06EF044ECB5F0F10E25
:1008700000016D6FFF0E6E6F44ECB5F06000F0FD8F
:1008800032F06000F4FD33F0346A356A0A0E366ED9
:10089000A5ECB8F06000C8F06DF06000CCF06EF030
:1008A00044ECB5F0EE0E00016D6FFF0E6E6F44EC80
:1008B000B5F0000E00016D6FFE0E6E6F44ECB5F0EA
:1008C0000101FE51326E336A346A356A0A0E366EA1
:1008D000A5ECB8F06000C8F06DF06000CCF06EF0F0
:1008E00044ECB5F0EB0E00016D6FFF0E6E6F44EC43
:1008F000B5F0020E01012BD020EE35F0F751D926CC
:10090000F851DA2200EE2CF1410E6F006FFFEBFF81
:10091000E806FBE270ECA1F06000B0F49AF260002F
:10092000B4F49BF26000B8F49CF20101FD2B030EBD
:1009300002019A19D8B447D06ED0010120EE34F0EC
:10094000F751D926F851DA22000EDF6E000EFF6F44
:1009500062D0000E67ECB0F06A0E00016D6FFD0E04
:100960006E6F44ECB5F0010120EE48F0F751D92646
:10097000F851DA226F0078FF66F06F0078FF67F0B9
:100980006F0078FF68F06F0078FF69F06AECA8F0FC
:10099000600098F16DF060009CF16EF044ECB5F0F1
:1009A00077ECBBF0EB0E00016D6FFF0E6E6F44EC49
:1009B000B5F0010120EE34F0F751D926F851DA22D2
:1009C000000EDF6E28D020EE9BF26F0078FFF9F169
:1009D0006F0074FFFAF10101FA51000AD8B404D093
:1009E000010AD8B406D017D0F951000AD8B4A5D757
:1009F00012D0F951910AD8B40ED0050AD8B4A9D7AB
:100A00000AD0FF51000AD8B49ED6010AD8B4BDD688
:100A1000030AD8B471D7010120EE22F0F751D9268C
:100A2000F851DA22DF50EDECA5F06000F0F495F219
:100A30006000F4F496F26000F8F497F2010120EE01
:100A400022F0F751D926F851DA22DF5047ECA2F014
:100A5000600058F09AF260005CF09BF2600060F079
:100A60009CF2040E02019A19D8A41200F50E9B19EB
:100A70006AE19C05D8A41200000E67ECB0F0040EE9
:100A800000016D6FFD0E6E6F44ECB5F077ECBBF0BE
:100A90009CECB7F0010120EE77F0F751D926F85120
:100AA000DA226000ABF0DEFF6000AFF0DEFF600036
:100AB000B3F0DEFF6000B7F0DEFF000E67ECB0F0D1
:100AC000290E00016D6FFD0E6E6F44ECB5F0010153
:100AD00020EE77F0F751D926F851DA226F0078FF2F
:100AE00066F06F0078FF67F06F0078FF68F06F00C6
:100AF00078FF69F06AECA8F0600098F16DF0600092
:100B00009CF16EF044ECB5F0EB0E00016D6FFF0E42
:100B10006E6F44ECB5F077ECBBF0010120EE77F09E
:100B2000F751D926F851DA226F0078FF16F06F00DE
:100B300078FF17F06F0078FF18F06F0078FF19F05A
:100B4000DDECBAF012001200000E0001866F2A5090
:100B50002B10D8A40DD0010E846F20EE7DF000EE96
:100B60002AF0080E6F006FFFEBFFE806FBE21200B1
:100B700015ECB9F00009D8B40ED0010E0001846F55
:100B800020EE7DF000EE2AF0080E6F006FFFEBFF05
:100B9000E806FBE2120030ECB9F00009D8B466D2E6
:100BA000300E2B5CD8A00ED0010E0001846F20EE19
:100BB0007DF000EE2AF0080E6F006FFFEBFFE806F5
:100BC000FBE21200000E0301016F000E006F6000D7
:100BD000A8F002F36000ACF003F36000A8F004F3A7
:100BE0006000ACF005F3010E066F000E086F20EEFA
:100BF00000F300EE2AF0080E6F006FFFEBFFE8062F
:100C0000FBE2120000018651090D060EF326000ECC
:100C1000F422000EF324D96E030EF420DA6EDF50B6
:100C2000D8A412D28651D8B407D0FF0E8625786F8B
:100C3000796BFF0E792304D0000E796F070E786F61
:100C40006000E0F124F06000E4F125F0000E276E72
:100C5000090E266E94ECB9F0020E2426000E252211
:100C6000000E2424D96E030E2520DA6E6F0078FF63
:100C700072F06F0074FF73F0010E00017227000E16
:100C800073238651090D000EF324D96E030EF42050
:100C9000DA6E6000CBF1DEFF6000CFF1DDFF865140
:100CA000090D000EF324D96E030EF420DA6E6F00E6
:100CB00078FF72F06F0074FF73F02A5072272B5088
:100CC00073237205300E7359D8A0DED0070E861933
:100CD000D8A4DAD003010651D8A4D6D00001865199
:100CE000090D040EF326000EF422000EF324D96E33
:100CF000030EF420DA6E6000ABF0DEFF6000AFF0B0
:100D0000DDFF8651090D040EF326000EF422000EBD
:100D1000F324D96E030EF420DA6E6F0078FF72F0C0
:100D20006F0074FF73F0FF0E746F2F0E756F865196
:100D3000090D000EF324D96E030EF420DA6E6F0055
:100D400078FF76F06F0074FF77F0761F771F764B91
:100D5000772B7451762775517723761F771F764B43
:100D6000772B72517627735177238651090D020E26
:100D7000F326000EF422000EF324D96E030EF420A5
:100D8000DA6E6000DBF1DEFF6000DFF1DDFF000EF8
:100D90007B6F070E7B6501D049D086517B19D8B493
:100DA00042D08651090D000EF324D96E030EF420B3
:100DB000DA6E00EE60F0080E6F006FFFEBFFE806E2
:100DC000FBE27B51090D000EF324D96E030EF420D3
:100DD000DA6E00EE69F0080E6F006FFFEBFFE806B9
:100DE000FBE2BAECAAF00009D8B41DD000017B5197
:100DF000090D060EF326000EF422000EF324D96E20
:100E0000030EF420DA6EDF50D8B40DD0010E846FDB
:100E100020EE7DF000EE2AF0080E6F006FFFEBFF72
:100E2000E806FBE2120000017B2BB3D78651090DC7
:100E3000060EF326000EF422000EF324D96E030EE4
:100E4000F420DA6E010EDF6E8651090D080EF326CE
:100E5000000EF422000EF324D96E030EF420DA6E95
:100E600060001BF2DFFF8651090D000EF324D96EDE
:100E7000030EF420DA6E00EE2AF0080E6F006FFF0A
:100E8000EBFFE806FBE21200010E00017A6F8651CB
:100E9000090D000EF324D96E030EF420DA6E6F00F4
:100EA00078FF72F06F0074FF73F02A5072272B5096
:100EB00073238651090D020EF326000EF422000E54
:100EC000F324D96E030EF420DA6E6000CBF1DEFF5E
:100ED0006000CFF1DDFF000E7C6F070E7C6501D056
:100EE0003ED086517C19D8B437D07C51090D060EFE
:100EF000F326000EF422000EF324D96E030EF42024
:100F0000DA6EDF50D8B428D08651090D000EF324D4
:100F1000D96E030EF420DA6E00EE60F0080E6F005A
:100F20006FFFEBFFE806FBE27C51090D000EF32496
:100F3000D96E030EF420DA6E00EE69F0080E6F0031
:100F40006FFFEBFFE806FBE2BAECAAF00009D8B4A9
:100F500003D0000E00017A6F00017C2BBED77A51BE
:100F6000D8B472D08651090D060EF326000EF42275
:100F7000000EF324D96E030EF420DA6E010EDF6E3C
:100F80008651090D000EF324D96E030EF420DA6E9B
:100F90006F0078FF72F06F0074FF73F02A507227B1
:100FA0002B5073238651090D020EF326000EF422F6
:100FB000000EF324D96E030EF420DA6E6000CBF13C
:100FC000DEFF6000CFF1DDFF8651090D070EF3262D
:100FD000000EF422000EF324D96E030EF420DA6E14
:100FE000000EDF6E8651090D040EF326000EF4226A
:100FF000000EF324D96E030EF420DA6E6000ABF01D
:10100000DEFF6000AFF0DDFF8651090D080EF3260C
:10101000000EF422000EF324D96E030EF420DA6ED3
:1010200060001BF2DFFF8651090D000EF324D96E1C
:10103000030EF420DA6E00EE2AF0080E6F006FFF48
:10104000EBFFE806FBE21200862B080E8619D8A4F7
:101050000DD0010E846F20EE7DF000EE2AF0080E18
:101060006F006FFFEBFFE806FBE21200080E0001C5
:101070008665C8D520EE7DF000EE2AF0080E6F00E0
:101080006FFFEBFFE806FBE21200020E0101F46FB6
:10109000000EF66F000EF56F15ECBBF0010120EEAF
:1010A0001EF0F251D926F351DA2260005BF0DEFF28
:1010B00060005FF0DEFF600063F0DEFF600067F05D
:1010C000DEFF5BECBBF0010120EE10F0F251D926FF
:1010D000F351DA22600063F0DEFF600067F0DDFFAD
:1010E00036ECB3F0010120EE16F0F251D926F3519F
:1010F000DA22010EDF6E20EE10F0F251D926F35104
:10110000DA226F0078FF27F06F0074FF28F0F0EC10
:10111000B3F0010120EE19F0F251D926F351DA2291
:10112000040E6F00AFFFDBFFE806FBE220EE19F0D4
:10113000F251D926F351DA2210EE14F0F251E126E1
:10114000F351E2226F007BFFE6FF6F0077FFE5FFC0
:1011500020EE14F0F251D926F351DA226F0078FF15
:101160008DF26F0074FF8EF220EE10F0F251D9264E
:10117000F351DA226F0078FF8FF26F0074FF90F264
:1011800002018D518F278E519023600E905DD8A063
:1011900046D0000E8D6F300E8E6F010120EE14F0E0
:1011A000F251D926F351DA226F0078FF8FF26F00E7
:1011B00074FF90F2FF0E0201916F2F0E926F0101EA
:1011C00020EE10F0F251D926F351DA226F0078FFA9
:1011D00093F26F0074FF94F20201931F941F934BDC
:1011E000942B9151932792519423931F941F934BC7
:1011F000942B8F519327905194238D5193278E5187
:101200009423010120EE12F0F251D926F351DA2293
:1012100060004FFADEFF600053FADDFF2BD00101C2
:1012200020EE14F0F251D926F351DA226F0078FF44
:101230008DF26F0074FF8EF220EE10F0F251D9267D
:10124000F351DA226F0078FF8FF26F0074FF90F293
:1012500002018D518F278E519023010120EE12F053
:10126000F251D926F351DA2260003FFADEFF600026
:1012700043FADDFF20EE10F0F251D926F351DA22C5
:1012800000EE25F0080E6F006FFFEBFFE806FBE2B3
:101290000DECB5F0010120EE0EF0F251D926F3511C
:1012A000DA22600097F0DEFF60009BF0DDFFFB0EAE
:1012B00000016D6FFF0E6E6F44ECB5F06000DCFA5C
:1012C00032F06000E0FA33F06000E4FA34F06000DD
:1012D000E8FA35F00A0E366EA5ECB8F06000C8F0FA
:1012E0006DF06000CCF06EF044ECB5F0010E020140
:1012F000B727000EB823B923BA23900E00016D6FF3
:10130000FF0E6E6F44ECB5F0010120EE1BF0F251C0
:10131000D926F351DA22DFAE07D0360E00016D6F09
:10132000FF0E6E6F44ECB5F0010120EE1DF0F2519E
:10133000D926F351DA22DFA407D0620E00016D6FC7
:10134000FF0E6E6F44ECB5F0010120EE1BF0F25180
:10135000D926F351DA22DFBA09D1000E67ECB0F0DA
:10136000800E00016D6FFE0E6E6F44ECB5F077ECF1
:10137000BBF0FCD0020E67ECB0F0FB0E00016D6F0D
:10138000FF0E6E6F44ECB5F0080E176E060E166E6B
:1013900007ECB8F0600058F06DF060005CF06EF0A3
:1013A00044ECB5F0900E00016D6FFF0E6E6F44ECD3
:1013B000B5F077ECBBF06000C8F738F16000CCF70F
:1013C00039F146ECACF0ECD0040E67ECB0F0FB0E5B
:1013D00000016D6FFF0E6E6F44ECB5F0080E176ED6
:1013E000000E166E07ECB8F0600058F06DF060006B
:1013F0005CF06EF044ECB5F0900E00016D6FFF0EE6
:101400006E6F44ECB5F077ECBBF06000C8F7F0F01D
:101410006000CCF7F1F00FEC98F0C2D0000E67EC52
:10142000B0F0FB0E00016D6FFF0E6E6F44ECB5F077
:10143000FF0E176E166807ECB8F0600058F06DF0FC
:1014400060005CF06EF044ECB5F0FA0E00016D6FD8
:10145000FF0E6E6F44ECB5F0010120EE02F0F25188
:10146000D926F351DA2200EE66F0050E6F006FFF09
:10147000EBFFE806FBE2B7ECAFF0600098F16DF02F
:1014800060009CF16EF044ECB5F0F70E00016D6F5A
:10149000FF0E6E6F44ECB5F0010120EE08F0F25142
:1014A000D926F351DA2200EE66F0050E6F006FFFC9
:1014B000EBFFE806FBE2B7ECAFF0600098F16DF0EF
:1014C00060009CF16EF044ECB5F0FA0E00016D6F17
:1014D000FF0E6E6F44ECB5F0010120EE0EF0F251FC
:1014E000D926F351DA226F0078FF16F06F0074FFEF
:1014F00017F007ECB8F0600058F06DF060005CF099
:101500006EF044ECB5F0D50E00016D6FFF0E6E6FFE
:1015100044ECB5F06000CBF7D9FF6000CFF7DAFFFD
:101520006F0078FF8DF26F0074FF8EF2600034FA66
:1015300032F0600038FA33F0346A356A0A0E366EDB
:10154000A5ECB8F06000C8F06DF06000CCF06EF073
:1015500044ECB5F0F40E00016D6FFF0E6E6F44ECBD
:10156000B5F077ECBBF0C1ECB8F01AD0010120EE79
:101570000EF0F251D926F351DA226F0078FF8DF286
:101580006F0074FF8EF202018E51080AD8A446D76C
:101590008D51000AD8B418D7060AD8B4EBD63ED776
:1015A000EB0E00016D6FFF0E6E6F44ECB5F0120094
:1015B000000E0001716F000E726F000E736F000E4F
:1015C000746F285060009CF02FF0306A6000BCF00F
:1015D00030F02F6A2F12000E30122F50712730502A
:1015E0007223000E7323000E74232A506000A4F0AF
:1015F0002FF0306A6000BCF030F02F6A2F12000E1E
:1016000030122F50712730507223000E7323000EBA
:1016100074232C506000ACF02FF0306A6000BCF0F6
:1016200030F02F6A2F12000E30122F5071273050D9
:101630007223000E7323000E74232E506000B4F04A
:101640002FF0306A6000BCF030F02F6A2F12000ECD
:1016500030122F50712730507223000E7323000E6A
:10166000742324507127000E722373237423140EE5
:101670007127000E72237323742360005BF0D9FF7F
:1016800060005FF0DAFF6F0078FF2FF06F0074FFEB
:1016900030F02F50712730507223000E7323000E4C
:1016A000742320EE02F01650D9261750DA226F006C
:1016B00078FF2FF06F0074FF30F02F5071273050FB
:1016C0007223000E7323000E742320EE04F01650D4
:1016D000D9261750DA22FF0EDE142F6EFF0EDE140D
:1016E000306E000EDE14316E000EDE14326E2F509E
:1016F000712730507223315073233250742320EEFF
:1017000004F01650D9261750DA22000EDE142F6E80
:10171000000EDE14306EFF0EDE14316EFF0EDE148E
:10172000326E110E05D0D8903232313230322F3233
:10173000E82EF9D72F50712730507223000E7323F3
:10174000000E742320EE08F01650D9261750DA2226
:10175000FF0EDE142F6EFF0EDE14306E000EDE1450
:10176000316E000EDE14326E2F507127305072230E
:10177000315073233250742320EE08F01650D926CE
:101780001750DA22000EDE142F6E000EDE14306EBB
:10179000FF0EDE14316EFF0EDE14326E110E05D018
:1017A000D8903232313230322F32E82EF9D72F50E2
:1017B000712730507223000E7323000E742320EE25
:1017C0000DF01650D9261750DA22DFBE04D0000ED5
:1017D000626F000E03D0000E626F020E616F20EE8A
:1017E0000DF01650D9261750DA22DFBC04D0000EB7
:1017F000646F000E03D0000E646F040E636F20EE62
:101800000DF01650D9261750DA22DFBA04D0000E98
:10181000666F000E03D0000E666F080E656F20EE37
:101820000DF01650D9261750DA22DFB804D0000E7A
:10183000686F000E03D0000E686F100E676F20EE09
:101840000DF01650D9261750DA22DFB604D0000E5C
:101850006A6F000E03D0000E6A6F200E696F20EED3
:101860000DF01650D9261750DA22DFB404D0000E3E
:101870006C6F000E03D0000E6C6F400E6B6F20EE8D
:101880000DF01650D9261750DA22DFB204D0000E20
:101890006E6F000E03D0000E6E6F800E6D6F20EE27
:1018A0000DF01650D9261750DA22DFB002D0000E04
:1018B00001D0010E706F000E6F6F20EE0CF016500D
:1018C000D9261750DA22DF500F0B2F6E306A0C0E1C
:1018D000D8902F363036E82EFBD720EE0EF016507B
:1018E000D9261750DA22DFA003D0316A312A01D07D
:1018F000316A31502F12000E301200016F512F1239
:10190000705130126D512F126E5130126B512F12D7
:101910006C51301269512F126A51301267512F12D7
:101920006851301265512F126651301263512F12D7
:101930006451301261512F12625130122F507127B1
:1019400030507223000E7323000E742320EE0FF02C
:101950001650D9261750DA226F0078FF2FF06F004B
:1019600074FF30F02F50712730507223000E732314
:10197000000E742320EE13F01650D9261750DA22E9
:101980006F0078FF2FF06F0074FF30F02F50712739
:1019900030507223000E7323000E7423000E711555
:1019A0002F6E000E7215306EFF0E7315316EFF0E26
:1019B0007415326E110E05D0D89032323132303279
:1019C0002F32E82EF9D72F50606FFF0E7117FF0EE0
:1019D0007217000E7317000E741760517127000EF6
:1019E000722373237423745103E17305D8A025D0A7
:1019F000000E71152F6E000E7215306EFF0E7315EE
:101A0000316EFF0E7415326E110E05D0D890323241
:101A1000313230322F32E82EF9D72F507127305023
:101A200072233150732332507423FF0E7117FF0E4F
:101A30007217000E7317000E7417711D2F6E721D32
:101A4000306E20EE11F01650D9261750DA226000C1
:101A5000BFF0DEFF6000C3F0DDFF12003901DF518F
:101A6000F00B0609DF6FDD8D3F01D29F3901938FA7
:101A7000938783973F01B88FB899B9511F0B6009BD
:101A8000B96FB991B993B995B997B851F00B0509E8
:101A9000B86FB2817E51F00B0B097E6F1F0E7D6F08
:101AA000400E7C6F390194873F01C39D3AECBBF037
:101AB000CEECBAF0680E02019D6FE40EE82EFED760
:101AC0009D2FFCD700F0FD0E00016D6FFF0E6E6FB5
:101AD00044ECB5F03F01F0B929D0000E67ECB0F04E
:101AE000EA0E00016D6FFF0E6E6F44ECB5F0000E54
:101AF0002EECBBF0600058F06DF060005CF06EF012
:101B000044ECB5F0D20E00016D6FFC0E6E6F44EC2C
:101B1000B5F0000E2EECBBF0600058F06DF06000E8
:101B20005CF06EF044ECB5F077ECBBF03F01F0B147
:101B300029D0000E67ECB0F0EA0E00016D6FFF0EC9
:101B40006E6F44ECB5F0000E2EECBBF0600058F068
:101B50006DF060005CF06EF044ECB5F06D0E0001CD
:101B60006D6FFC0E6E6F44ECB5F0000E2EECBBF00A
:101B7000600058F06DF060005CF06EF044ECB5F081
:101B800077ECBBF03F01F0BF29D0000E67ECB0F05E
:101B9000EA0E00016D6FFF0E6E6F44ECB5F0000EA3
:101BA0002EECBBF0600058F06DF060005CF06EF061
:101BB00044ECB5F0380E00016D6FFC0E6E6F44EC16
:101BC000B5F0000E2EECBBF0600058F06DF0600038
:101BD0005CF06EF044ECB5F077ECBBF03F01F0BD8B
:101BE00029D0000E67ECB0F0EA0E00016D6FFF0E19
:101BF0006E6F44ECB5F0000E2EECBBF0600058F0B8
:101C00006DF060005CF06EF044ECB5F0020E000187
:101C10006D6FFC0E6E6F44ECB5F0000E2EECBBF059
:101C2000600058F06DF060005CF06EF044ECB5F0D0
:101C300077ECBBF09F0E00016D6FFD0E6E6F44ECF4
:101C4000B5F02A0E00016D6FFF0E6E6F44ECB5F01B
:101C5000EF0E00016D6FFF0E6E6F44ECB5F06C0E71
:101C600000016D6FFF0E6E6F44ECB5F0250E0001A4
:101C70006D6FFD0E6E6F44ECB5F003ECAFF06000DD
:101C8000C0F006F66000C4F007F66000C8F008F681
:101C9000060107510811D8B40BD0610018F816F0EE
:101CA00061001CF817F0610020F818F0B6ECBBF0EA
:101CB0004EECB7F0600090F006F6600094F007F686
:101CC000600098F008F6060107510811D8A411D059
:101CD00053ECBAF0600058F06DF060005CF06EF00C
:101CE00044ECB5F01E0E00016D6FFF0E6E6F44ECFC
:101CF000B5F0000E2EECBBF0600058F06DF0600007
:101D00005CF06EF044ECB5F0EB0E00016D6FFF0E71
:101D10006E6F44ECB5F08FECBBF0000E246E000E3D
:101D200070ECB2F0000E246E000E70ECB2F0150EE6
:101D300002019E6F4B0E9D6FBE0EE82EFED79D2FAB
:101D4000FCD79E2FFAD700F0010E246E000E70EC27
:101D5000B2F0010E246E000E70ECB2F0000E06011F
:101D6000006F000E016F000E026F000E036F3A014C
:101D7000509B3F01C38BA90E0601116FFE0E126F1F
:101D80006C0E136F870E146F3F01D28FB1ECB5F05C
:101D9000050EE926000EEA22EF5002019D6F9D51CB
:101DA000306E316A51ECBBF09CECB7F06000A8F0EB
:101DB00077F46000ACF078F46000B0F079F4600083
:101DC000B4F07AF4000E06011E6F010E1D6FE6ECF2
:101DD000B5F0600088F021F660008CF022F6060174
:101DE000236B246B150E00016F6F060E706FCEEC27
:101DF000A7F0000E06010A6F010E096FC20E0C6FEC
:101E0000020E0B6F000E0E6F6C0E0D6F0400000EB5
:101E10000101F76F040EF86F00EC83F021EE22F061
:101E200000EE6FF00E0E6F006FFFEBFFE806FBE2B7
:101E300075ECB6F004012251D8B406D0600010FB56
:101E400004F60601056B05D0030E0601056FE80ECA
:101E5000046F610010F8B3F2610014F8B4F20201EB
:101E6000B56BB66BC551D8B421D004012205D8A4F6
:101E70001DD03451D8A41AD00201C42B21EE09F28E
:101E800000EEA2F0070E6F006FFFEBFFE806FBE22B
:101E9000610044F8AAF0610048F8ABF061004CF82A
:101EA000ACF0610050F8ADF079ECA0F00201DB512C
:101EB000D8B4ACD7000EDB6F000EC46FC551D8A4E8
:101EC00002D0010E01D0000EC56FA0D7000E000198
:101ED000856F160E846F20EE10F06051D926615187
:101EE000DA226F0078FF2AF06F0074FF2BF0845124
:101EF0002A24256E85512B20266E000E47ECB6F065
:101F0000000120EE10F06051D9266151DA226F00F5
:101F100078FF2AF06F0074FF2BF084512A24256E7D
:101F200085512B20266E010E47ECB6F00001876F1D
:101F3000866B20EE10F06051D9266151DA226F00D5
:101F400078FF2AF06F0074FF2BF084512A24256E4D
:101F500085512B20266E010E47ECB6F02C6E2C50CE
:101F60000001861320EE10F06051D9266151DA226B
:101F70006F0078FF2AF06F0074FF2BF084512A2441
:101F8000256E85512B20266E010E47ECB6F0000120
:101F9000896F886B20EE10F06051D9266151DA22EA
:101FA0006F0078FF2AF06F0074FF2BF084512A2411
:101FB000256E85512B20266E010E47ECB6F02C6E57
:101FC0002C500001881320EE10F06051D926615189
:101FD000DA226F0078FF2AF06F0074FF2BF0845133
:101FE0002A24256E85512B20266E010E47ECB6F073
:101FF00000018A6F20EE10F06051D9266151DA227B
:102000006F0078FF2AF06F0074FF2BF084512A24B0
:10201000256E85512B20266E010E47ECB6F000018F
:102020008B6F20EE10F06051D9266151DA226F00DB
:1020300078FF2AF06F0074FF2BF084512A24256E5C
:1020400085512B20266E010E47ECB6F000018D6FF6
:102050008C6B20EE10F06051D9266151DA226F00AE
:1020600078FF2AF06F0074FF2BF084512A24256E2C
:1020700085512B20266E010E47ECB6F02C6E2C50AD
:1020800000018C13000E806F27D020EE10F06051FD
:10209000D9266151DA226F0078FF2AF06F0074FFB1
:1020A0002BF084512A24256E85512B20266E010E9B
:1020B00047ECB6F02C6E00018051010D080EF3269E
:1020C000000EF422860EF324D96E000EF420DA6E90
:1020D0006000B3F0DFFF802B8A51805DD8A0D5D798
:1020E000000E816F27D020EE10F06051D92661518B
:1020F000DA226F0078FF2AF06F0074FF2BF0845112
:102100002A24256E85512B20266E010E47ECB6F051
:102110002C6E00018151010D0E0EF326000EF422EB
:10212000860EF324D96E000EF420DA6E6000B3F050
:10213000DFFF812B8B51815DD8A0D5D7000E826F38
:1021400027D020EE10F06051D9266151DA226F00BD
:1021500078FF2AF06F0074FF2BF084512A24256E3B
:1021600085512B20266E010E47ECB6F02C6E000137
:102170008251010D120EF326000EF422860EF32476
:10218000D96E000EF420DA6E6000B3F0DFFF822B10
:102190008A51825DD8A0D5D7000E836F27D020EE5C
:1021A00010F06051D9266151DA226F0078FF2AF0D1
:1021B0006F0074FF2BF084512A24256E85512B204B
:1021C000266E010E47ECB6F02C6E00018351010D16
:1021D000180EF326000EF422860EF324D96E000E9C
:1021E000F420DA6E6000B3F0DFFF832B8B51835D48
:1021F000D8A0D5D720EE10F06051D9266151DA224F
:102200006F0078FF2AF06F0074FF2BF084512A24AE
:10221000256E85512B20266E020E47ECB6F0940EEB
:10222000166E000E176E7DECB9F00009D8B403D01D
:102230000001A28340D00001A293940E166E000EFE
:10224000176E9E0E186E000E196E49ECB8F000095C
:10225000D8B40ED0980E166E000E176E66ECB9F05C
:102260000009D8B405D000018C058D11D8B420D058
:10227000940E166E000E176E9E0E186E000E196EDE
:1022800049ECB8F00009D8B415D08E0E166E000EC9
:10229000176E980E186E000E196E29ECB8F0000932
:1022A000D8B408D0020E00018C198D11D8A402D028
:1022B000A28102D00001A29186058711D8A413D073
:1022C000080E89198811D8A40ED08D510CE1030E87
:1022D0008C5DD8B008D0060E8A19D8A404D0040E9C
:1022E0008B19D8B404D0010EA56F950E03D0000E43
:1022F000A56F000EA46F030EA36F20EE86F000EE14
:1023000060F01F0E6F006FFFEBFFE806FBE21200AC
:10231000050E0101716F000E726F000E736F000EDB
:10232000786F000E7A6F000E796F060E7C6F0001D9
:1023300020EE04F0A251D926A351DA226F0078FFD3
:1023400083F16F0078FF84F16F0078FF85F16F00F3
:1023500078FF86F1FBECBAF0600058F07FF1600086
:102360005CF080F1600060F081F1600064F082F167
:10237000000E0101756F280E746F7B69040E706F7B
:10238000700E166E010E176E8CEC93F020EE70F14D
:1023900000EE16F0160E6F006FFFEBFFE806FBE293
:1023A000000E2D6E010E2E6E1DECA3F0700E0001BE
:1023B0008A6F010E8B6F97ECA4F0050E0101BE6FC2
:1023C000000120EE0AF0A251D926A351DA226F00B3
:1023D00078FFB4F16F0074FFB5F120EE08F0A25160
:1023E000D926A351DA226F0078FFB2F16F0074FF93
:1023F000B3F1010EA4250101BA6F000E0001A52161
:102400000101BB6F000E0001A6210101BC6F000E8F
:102410000001A7210101BD6F7B0EB66F000EB76FE3
:10242000000EB86F000EB96F000EC66F000EC56FBC
:10243000000EC26F140EC16FBF89BF8FBF91BF93D3
:10244000BF95BF97BF9BBF9DC091B20E166E010E88
:10245000176E20EE70F100EE18F0160E6F006FFF91
:10246000EBFFE806FBE2D8EC8AF0FB0E00016D6F93
:10247000FF0E6E6F44ECB5F06000C8F632F06000FD
:10248000CCF633F0346A356A0A0E366EA5ECB8F035
:102490006000C8F06DF06000CCF06EF044ECB5F078
:1024A000D00E00016D6FFF0E6E6F44ECB5F0600052
:1024B000D0F632F06000D4F633F0346A356A0A0E92
:1024C000366EA5ECB8F06000C8F06DF06000CCF09E
:1024D0006EF044ECB5F0900E00016D6FFF0E6E6F64
:1024E00044ECB5F00101B351206F6000C8F621F152
:1024F000B551226F6000D0F623F120EEB6F1000E48
:10250000DE140001A86F000EDE14A96F000EDE14A9
:10251000AA6FFF0EDE14AB6F190E05D0D890AB3347
:10252000AA33A933A833E82EF9D7A8510101246FA3
:102530006000E0F625F16000DCF626F16000D8F6D8
:1025400027F120EEBAF1000EDE140001A86F000E94
:10255000DE14A96F000EDE14AA6FFF0EDE14AB6F3F
:10256000190E05D0D890AB33AA33A933A833E82E7F
:10257000F9D7A8510101286F6000F0F629F1600039
:10258000ECF62AF16000E8F62BF1BFA104D00001BF
:10259000A86BA82B02D00001A86B0101BE39F00B7B
:1025A0000001A81101012C6FBFBF04D0000E616FA4
:1025B000000E03D0000E616F020E606FBFBD04D02D
:1025C000000E636F000E03D0000E636F040E626F87
:1025D000BFBB04D0000E656F000E03D0000E656F08
:1025E000080E646FBFB904D0000E676F000E03D0F1
:1025F000000E676F100E666FBFB704D0000E696FD4
:10260000000E03D0000E696F200E686FBFB304D0B8
:10261000000E6B6F000E03D0000E6B6F400E6A6FE2
:10262000BFB304D0000E6D6F000E03D0000E6D6FAF
:10263000800E6C6FC0A102D0010E01D0000E6C1193
:102640006A11681166116411621160112D6FC25117
:102650002E6F600004F72FF1C451306F60000CF74B
:1026600031F1C651326F600014F733F1000E6F6F15
:10267000000E6E6F3DD07151040DF3506E5DF4503D
:102680006F59D8B014D020EE70F100EE60F0410E1A
:102690006F006FFFEBFFE806FBE2000E6E25D96EC0
:1026A000010E6F21DA6EDF50ECECBAF01ED020EE96
:1026B00070F100EE60F0410E6F006FFFEBFFE80677
:1026C000FBE201017151040DF31EF41EF34AF42ADA
:1026D0006E51F3266F51F422200EF324D96E010EB1
:1026E000F420DA6EDF50ECECBAF001016E4B6F2B88
:1026F00074516E5D75516F59D8A0BDD720EE70F141
:1027000011EE35F0410E6F006FFFE3FFE806FBE2CC
:10271000010E0401346F1200000E216E000E226EB5
:10272000000E236E000E246E000E206E20EE02F0CE
:102730001650D9261750DA22DF50186E196AD89031
:1027400018361936D8901836193620EE01F0165082
:10275000D9261750DA22DF501A6E1A501C6E1B6AE7
:1027600060005BF0D9FF60005FF0DAFFDF501D6EA4
:102770001E6A0C0ED8901D361E36E82EFBD71B5055
:102780001D121C501E1218501D1219501E1220EE40
:1027900003F01650D9261750DA22DF501F6E1F5053
:1027A0001D12000E1E12600074F021F0600078F01F
:1027B00022F0236A246A20EE04F01650D92617501E
:1027C000DA226F0078FF18F06F0074FF19F01850CC
:1027D000212619502222000E2322000E242220EE50
:1027E00006F01650D9261750DA226F0078FF18F03D
:1027F0006F0074FF19F01850212619502222000E84
:102800002322000E242220EE09F01650D92617505C
:10281000DA226F0078FF18F06F0074FF19F020EED5
:1028200008F01650D9261750DA22DF501A6E1B6AAC
:102830000D0ED8901A361B36E82EFBD718501A12F8
:1028400019501B121A5021261B502222000E23223F
:10285000000E242220EE0BF01650D9261750DA2253
:10286000DF50186E18501A6E196A20EE0CF01650D0
:10287000D9261750DA22DF501B6E1B501912000E9A
:102880001A12195021261A502222000E2322000E5D
:10289000242220EE0FF01650D9261750DA22DF50EE
:1028A000186E18501A6E196A20EE10F01650D926BC
:1028B0001750DA22DF501B6E1C6A19501B121A5077
:1028C0001C121B5021261C502222000E2322000E17
:1028D000242220EE11F01650D9261750DA22DF50AC
:1028E000186E18501A6E196A20EE12F01650D9267A
:1028F0001750DA22DF501B6E1C6A19501B121A5037
:102900001C121B5021261C502222000E2322000ED6
:10291000242220EE13F01650D9261750DA22DF5069
:10292000186E18501A6E196A20EE14F01650D92637
:102930001750DA22DF501B6E1C6A19501B121A50F6
:102940001C121B5021261C502222000E2322000E96
:10295000242220EE15F01650D9261750DA22DF5027
:10296000186E18501A6E196A20EE16F01650D926F5
:102970001750DA22DF501B6E1C6A19501B121A50B6
:102980001C121B5021261C502222000E2322000E56
:102990002422000E2114186E000E2214196EFF0E50
:1029A00023141A6EFF0E24141B6E110E05D0D8903E
:1029B0001B321A3219321832E82EF9D71850206E0D
:1029C000FF0E2116FF0E2216000E2316000E2416EF
:1029D00020502126000E222223222422245003E10B
:1029E0002304D8A025D0000E2114186E000E221446
:1029F000196EFF0E23141A6EFF0E24141B6E110E97
:102A000005D0D8901B321A3219321832E82EF9D775
:102A100018502126195022221A5023221B502422FA
:102A2000FF0E2116FF0E2216000E2316000E24168E
:102A3000211C186E221C196E20EE0DF01650D9269E
:102A40001750DA22600063F0DEFF600067F0DDFF00
:102A50001200000E1B6EFF0E1C6E20EE01F01650D1
:102A6000D9261750DA22DF501D6E1D501F6E1E6AC8
:102A70001B501E161C501F1660005BF0D9FF600033
:102A80005FF0DAFFDF50206E216A1E502010226EA8
:102A90001F502110236E20EE02F01650D926175039
:102AA000DA22DFA003D01B6A1B2A01D01B6A245044
:102AB0001B18FE0B1B18246E20EE02F01650D926B0
:102AC0001750DA22DFA403D01B6A1B2A01D01B6A2D
:102AD0001B4624501B18FD0B1B18246E20EE02F021
:102AE0001650D9261750DA22DFA803D01B6A1B2AFA
:102AF00001D01B6A1B461B4624501B18FB0B1B18DE
:102B0000246E20EE02F01650D9261750DA22DFAAE2
:102B100003D01B6A1B2A01D01B6A1B461B461B469F
:102B200024501B18F70B1B18246E20EE02F01650D1
:102B3000D9261750DA22DFAC03D01B6A1B2A01D03A
:102B40001B6A1B3A24501B18EF0B1B18246E20EE37
:102B500002F01650D9261750DA22DFAE03D01B6AD6
:102B60001B2A01D01B6A1B3A1B4624501B18DF0B83
:102B70001B18246E20EE03F01650D9261750DA22C7
:102B8000DFA003D01B6A1B2A01D01B6A1B3A1B461D
:102B90001B4624501B18BF0B1B18246E20EE03F09D
:102BA0001650D9261750DA22DFA203D01B6A1B2A3F
:102BB00001D01B6A1B321B3224501B187F0B1B18C1
:102BC000246E20EE03F01650D9261750DA22DFA625
:102BD00003D01B6A1B2A01D01B6A1B4625501B18F9
:102BE000FD0B1B18256E20EE03F01650D92617504A
:102BF000DA22DFA803D01B6A1B2A01D01B6A1B46FE
:102C00001B4625501B18FB0B1B18256E20EE03F0EE
:102C10001650D9261750DA22DFAA03D01B6A1B2AC6
:102C200001D01B6A1B461B461B4625501B18F70B81
:102C30001B18256E20EE03F01650D9261750DA2205
:102C4000DFAC03D01B6A1B2A01D01B6A1B3A25503C
:102C50001B18EF0B1B18256E20EE03F01650D9261B
:102C60001750DA22DFAE03D01B6A1B2A01D01B6A81
:102C70001B3A1B4625501B18DF0B1B18256E20EE38
:102C800004F01650D9261750DA22DFA003D01B6AB1
:102C90001B2A01D01B6A1B3A1B461B4625501B18DA
:102CA000BF0B1B18256E20EE04F01650D9261750C6
:102CB000DA22DFA203D01B6A1B2A01D01B6A1B3257
:102CC0001B3225501B187F0B1B18256E20EE04F0BD
:102CD0001650D9261750DA22DFA403D01B6A1B2A0C
:102CE00001D01B6A26501B18FE0B1B18266E20EE07
:102CF00004F01650D9261750DA22DFA603D01B6A3B
:102D00001B2A01D01B6A1B4626501B18FD0B1B18E3
:102D1000266E20EE04F01650D9261750DA22DFA8CE
:102D200003D01B6A1B2A01D01B6A1B461B46265078
:102D30001B18FB0B1B18266E20EE22F000EE16F07F
:102D4000040E6F006FFFEBFFE806FBE2120060006D
:102D500083F1D9FF600087F1DAFF6F0078FF25F07B
:102D60006F0074FF26F0000E47ECB6F0600083F1B0
:102D7000D9FF600087F1DAFF6F0078FF25F06F0060
:102D800074FF26F0010E47ECB6F00001796F793937
:102D90000F0B0F0B7A6F79510F0B7B6F600083F174
:102DA000D9FF600087F1DAFF6F0078FF25F06F0030
:102DB00074FF26F0010E47ECB6F00001796F7951EF
:102DC0001F0B7C6F7945E846030B030B7D6F60009A
:102DD00083F1D9FF600087F1DAFF6F0078FF25F0FB
:102DE0006F0074FF26F0010E47ECB6F000017F6F14
:102DF0007E6B600083F1D9FF600087F1DAFF6F001E
:102E000078FF25F06F0074FF26F0010E47ECB6F056
:102E10002A6E2A5000017E13600083F1D9FF600002
:102E200087F1DAFF6F0078FF25F06F0074FF26F05E
:102E3000010E47ECB6F00001816F806B600083F1FA
:102E4000D9FF600087F1DAFF6F0078FF25F06F008F
:102E500074FF26F0010E47ECB6F02A6E2A500001EE
:102E60008013600083F1D9FF600087F1DAFF6F0003
:102E700078FF25F06F0074FF26F0010E47ECB6F0E6
:102E80000001796F7939E842070B070B826F79519E
:102E90001F0B846F836B600083F1D9FF600087F1A3
:102EA000DAFF6F0078FF25F06F0074FF26F0010E47
:102EB00047ECB6F02A6E2A5000018313600083F1BC
:102EC000D9FF600087F1DAFF6F0078FF25F06F000F
:102ED00074FF26F0010E47ECB6F00001856F60002C
:102EE00083F1D9FF600087F1DAFF6F0078FF25F0EA
:102EF0006F0074FF26F0010E47ECB6F00001866FFC
:102F0000600083F1D9FF600087F1DAFF6F0078FF7E
:102F100025F06F0074FF26F0010E47ECB6F00001BB
:102F2000886F876B600083F1D9FF600087F1DAFF5B
:102F30006F0078FF25F06F0074FF26F0010E47EC5C
:102F4000B6F02A6E2A5000018713000E776F030E29
:102F5000776501D022D0600083F1D9FF600087F14E
:102F6000DAFF6F0078FF25F06F0074FF26F0010E86
:102F700047ECB6F02A6E00017751010D0F0EF326D3
:102F8000000EF4227A0EF324D96E000EF420DA6ECD
:102F90006000ABF0DFFF772BDAD7000E786F030EFF
:102FA000786501D022D0600083F1D9FF600087F1FD
:102FB000DAFF6F0078FF25F06F0074FF26F0010E36
:102FC00047ECB6F02A6E00017851010D130EF3267E
:102FD000000EF4227A0EF324D96E000EF420DA6E7D
:102FE0006000ABF0DFFF782BDAD7600083F1D9FF08
:102FF000600087F1DAFF6F0078FF25F06F0074FF43
:1030000026F0020E47ECB6F020EE7AF000EE60F00B
:10301000160E6F006FFFEBFFE806FBE212000001E7
:1030200020EE0EF0F051D926F151DA22DE5004E103
:10303000080EDE18D8B409D06000C0F328F0600094
:10304000C4F329F0C1ECB8F01200000120EE10F03A
:10305000F051D926F151DA2210EEE9F1080E6F0095
:103060006FFFE3FFE806FBE220EE10F0F051D926F7
:10307000F151DA226F0078FFF2F06F0074FFF3F085
:10308000160EF2250101E96F000E0001F321010186
:10309000EA6FE90E0001606F010E616FA7EC96F018
:1030A00020EEC9F1160E6F00AFFFDBFFE806FBE272
:1030B0000101CA51040D6F00CCFFEDF16F00D0FF8C
:1030C000EEF1E951ED250001F26F0101EA51EE2127
:1030D0000001F36F600EF35DD8A026D0FF0EF26FF3
:1030E0005F0EF36F6000A4F7F4F06000A8F7F5F04E
:1030F000F41FF51FF44BF52BF251F427F351F52390
:10310000F41FF51FF44BF52B0101ED510001F427DD
:103110000101EE510001F523FF0EF4250101EB6FD3
:10312000FF0E0001F52111D00101E951ED2500014B
:10313000F26F0101EA51EE210001F36FFF0EF2255B
:103140000101EB6FFF0E0001F3210101EC6F010E95
:10315000EB25E06F000EEC21E16F000120EE12F094
:10316000F051D926F151DA226F0078FFE2F16F00B9
:1031700074FFE3F10101E251E05DE351E159D8A0B0
:1031800019D0600080F7F2F0600084F7F3F00001DE
:10319000F21FF31FF24BF32B0101E2510001F22762
:1031A0000101E3510001F323FF0EF2250101C76F76
:1031B0005F0E12D0600080F7F2F0600084F7F3F049
:1031C0000001F21FF31FF24BF32B0101E25100014A
:1031D000F2250101C76FE3510001F3210101C86F1E
:1031E00060001CF7E4F1600020F7E5F1C90E256EE0
:1031F000010E266EF8ECB6F00009D8A408D06000E5
:10320000C0F328F06000C4F329F0C1ECB8F0040E5C
:103210000101C919D8B408D06000C0F328F06000DB
:10322000C4F329F0C1ECB8F00101D451D8A408D0FE
:103230006000C0F328F06000C4F329F0C1ECB8F0DE
:103240000101CD51CE11D8A437D06000C0F328F0D1
:103250006000C4F329F0C1ECB8F02ED020EEC9F123
:1032600000EECEF0160E6F006FFFEBFFE806FBE2FC
:1032700020EEE0F100EEE5F0080E6F006FFFEBFFCF
:10328000E806FBE29BECA9F020D020EEC9F100EEAD
:10329000B0F0160E6F006FFFEBFFE806FBE220EECA
:1032A000E0F100EEC7F0080E6F006FFFEBFFE806DD
:1032B000FBE213EC9CF009D00101D551010AD8B40E
:1032C000CDD7070AD8B4E1D7170A6000C0F328F0B9
:1032D0006000C4F329F0C1ECB8F01200030E010144
:1032E000396F0001EB51D8A413D0000E436E000ECD
:1032F0000101FC6F010E3B6F970E3A6F6000E4F422
:10330000E7F06000E8F4E8F06000ECF4E9F01200A7
:1033100060009CF31DF06000A0F31EF06000A4F3B9
:103320001FF06000A8F320F02C0E216E010E226E1B
:1033300049ECAEF00009D8B412D1030E436E0FD1A0
:103340002D0E166E010E176E79ECBAF015ECBBF06F
:10335000600058F031F160005CF032F1600060F024
:1033600033F1600064F034F1E6ECB5F0600088F011
:1033700024F060008CF025F0030E276EE80E266E18
:10338000E4ECB7F0600090F035F1600094F036F1B5
:103390000101376B386B010E436E010E5BD060008C
:1033A000C4F4ECF06000C8F4EDF06000CCF4EEF092
:1033B0006000D0F4EFF00001EC1FED1FEE1FEF1FD7
:1033C000EC2B000EED23EE23EF2315ECBBF00001F8
:1033D000EC511624F06FED511720F16FEE511820CB
:1033E000F26FEF511920F36F010135510001F05DCB
:1033F000010136510001F159010137510001F25923
:10340000010138510001F359D8A022D0020E436EB9
:10341000E80EEC6F030EED6FE6ECB5F0600088F09F
:1034200024F060008CF025F0030E276EE80E266E67
:10343000E4ECB7F00001EC512426ED5125226000A8
:1034400090F035F1600094F036F10101376B386B84
:10345000010E01013B6F910E80D00101FC51D8B4E7
:1034600036D06000C4F4ECF06000C8F4EDF0600009
:10347000CCF4EEF06000D0F4EFF00001EC1FED1F93
:10348000EE1FEF1FEC2B000EED23EE23EF2315ECC8
:10349000BBF00001EC511624F06FED511720F16FD5
:1034A000EE511820F26FEF511920F36FF051010126
:1034B000355D0001F151010136590001F251010160
:1034C00037590001F35101013859D8B055D015ECE6
:1034D000BBF0600058F031F160005CF032F1600048
:1034E00060F033F1600064F034F1030E0101FC611F
:1034F0001AD06000B4F4DFF06000B8F4E0F06000CF
:10350000BCF4E1F06000C0F4E2F060009CF3E3F092
:103510006000A0F3E4F06000A4F3E5F06000A8F31D
:10352000E6F05DECAFF0020E0101FC6508D0000E84
:10353000FC6F000E436E010E3B6F930E0ED0010E1A
:103540003B6F910E3A6FFC2B17D0000E0101FC6F00
:10355000000E436E010E3B6F960E3A6F0DD0435036
:10356000000AD8B4EDD6010AD8B419D7030AD8B4E2
:1035700074D7010AD8B4E9D76000E4F4E7F060003A
:10358000E8F4E8F06000ECF4E9F01200AA0E166E20
:10359000000E176E9DECBAF020EEAAF010EEBCF013
:1035A000050E6F006FFFE3FFE806FBE2000E00016F
:1035B000B56F240EB46F20EED6F000EE25F0080EA5
:1035C0006F006FFFEBFFE806FBE29EECB4F020EE2D
:1035D000B6F0050E6F00AFFFDBFFE806FBE2080E5A
:1035E0000001C36F060EC26FB40E346E000E356E4E
:1035F000C8ECABF00001CB51D8A41200080EC425D2
:10360000D66F000EC521D76F600018F3D8F06000A8
:103610001CF3D9F0000EDB6F1C0EDA6F20EED6F033
:1036200000EE25F0080E6F006FFFEBFFE806FBE2EF
:103630008B5175ECB3F020EED6F000EE25F0080EBD
:103640006F006FFFEBFFE806FBE200018A5175ECAB
:10365000B3F020EED6F000EE25F0080E6F006FFFFD
:10366000EBFFE806FBE200018D5175ECB3F020EEB4
:10367000D6F000EE25F0080E6F006FFFEBFFE806B6
:10368000FBE200018C5175ECB3F020EED6F000EEB9
:1036900025F0080E6F006FFFEBFFE806FBE200016C
:1036A0008E5175ECB3F020EED6F000EE25F0080E4A
:1036B0006F006FFFEBFFE806FBE200018F5175EC36
:1036C000B3F020EED6F000EE25F0080E6F006FFF8D
:1036D000EBFFE806FBE20001915175ECB3F020EE40
:1036E000D6F000EE25F0080E6F006FFFEBFFE80646
:1036F000FBE20001905175ECB3F0000E0001B06FD9
:103700001BD020EED6F000EE25F0080E6F006FFF04
:10371000EBFFE806FBE2B051010D080EF326000EA8
:10372000F4228A0EF324D96E000EF420DA6EDF50F4
:1037300075ECB3F00001B02B8E51B05DD8A0E1D78D
:10374000000EB16F1BD020EED6F000EE25F0080E73
:103750006F006FFFEBFFE806FBE2B151010D0E0EAB
:10376000F326000EF4228A0EF324D96E000EF42004
:10377000DA6EDF5075ECB3F00001B12B8F51B15D03
:10378000D8A0E1D7000EB26F1BD020EED6F000EE2D
:1037900025F0080E6F006FFFEBFFE806FBE2B25169
:1037A000010D120EF326000EF4228A0EF324D96EB8
:1037B000000EF420DA6EDF5075ECB3F00001B22B8E
:1037C0008E51B25DD8A0E1D7000EB36F1BD020EEB2
:1037D000D6F000EE25F0080E6F006FFFEBFFE80655
:1037E000FBE2B351010D180EF326000EF4228A0EEF
:1037F000F324D96E000EF420DA6EDF5075ECB3F0CE
:103800000001B32B8F51B35DD8A0E1D720EEC4F0F7
:1038100000EE28F0080E6F006FFFEBFFE806FBE2FA
:10382000ABECB9F0120020EEC7F000EE2AF0080E63
:103830006F006FFFEBFFE806FBE2D30E336E000E66
:10384000346E00EC80F0FB0E00016D6FFF0E6E6FAA
:1038500044ECB5F060004CF332F0600050F333F00C
:10386000346A356A0A0E366EA5ECB8F06000C8F00E
:103870006DF06000CCF06EF044ECB5F0D00E0001BD
:103880006D6FFF0E6E6F44ECB5F0600054F332F0D4
:10389000600058F333F0346A356A0A0E366EA5ECD0
:1038A000B8F06000C8F06DF06000CCF06EF044EC51
:1038B000B5F0850E00016D6FFF0E6E6F44ECB5F034
:1038C00060005CF332F0600060F333F0600064F39A
:1038D00034F0600068F335F00A0E366EA5ECB8F0EF
:1038E0006000C8F06DF06000CCF06EF044ECB5F014
:1038F000900E00016D6FFF0E6E6F44ECB5F000018D
:10390000E0A106D0BC0E6D6FFF0E6E6F44ECB5F0FB
:103910000001E0A306D0B00E6D6FFF0E6E6F44EC99
:10392000B5F00001E0A506D08C0E6D6FFF0E6E6F36
:1039300044ECB5F00001E0A706D0920E6D6FFF0ECB
:103940006E6F44ECB5F00001E0A906D09E0E6D6FDD
:10395000FF0E6E6F44ECB5F00001E0AB06D0980EA0
:103960006D6FFF0E6E6F44ECB5F00001E0AD06D058
:10397000B60E6D6FFF0E6E6F44ECB5F00001E0AF58
:1039800006D0AA0E6D6FFF0E6E6F44ECB5F000010D
:10399000E1A106D0A40E6D6FFF0E6E6F44ECB5F082
:1039A000000E0001D26F0B0ED26501D01200D25171
:1039B000110D080EF326000EF422000EF324D96E2A
:1039C000050EF420DA6EDE50D51955E1DE50D61919
:1039D000D8A451D0D251110D100EF326000EF422AE
:1039E000000EF324D96E050EF420DA6EDF50D8A451
:1039F00042D04E0E6D6FFD0E6E6F44ECB5F020EEB2
:103A0000BFF00001D251110D040EF326000EF42276
:103A1000000EF324E16E050EF420E26E6F007BFFD2
:103A2000E6FF6F007BFFE6FF6F007BFFE6FF6F00A6
:103A30007BFFE6FFD251110D0A0EF326000EF42291
:103A4000000EF324D96E050EF420DA6E60004FF3F9
:103A5000DEFF600053F3DDFFD251110D000EF324A1
:103A6000AC6F050EF420AD6FD30EAE6F000EAF6FCE
:103A7000A7ECAEF012000001D22B95D7050E010184
:103A80006E6F000E6F6F000E706F000E756F000E80
:103A9000776F000E766F010E796F6000C4F280F1CF
:103AA0006000C8F281F16000CCF282F16000D0F2D7
:103AB00083F1FBECBAF0600058F07CF160005CF040
:103AC0007DF1600060F07EF1600064F07FF16000E5
:103AD00098F271F160009CF272F101017869040EB4
:103AE0006D6F6D0E166E010E176E8CEC93F020EE5E
:103AF0006DF100EE16F0160E6F006FFFEBFFE8069B
:103B0000FBE2400E2D6E010E2E6E1DECA3F0000E9A
:103B10000101656F000E666F6000F4F269F16000EC
:103B2000F8F26AF16000FCF26BF1600000F36CF1F6
:103B30006000ECF267F16000F0F268F1000E166EC2
:103B4000010E176E20EE65F100EE18F0070E6F0003
:103B50006FFFEBFFE806FBE2EBECADF0080E0001B7
:103B6000C125256E000EC221266E000E47ECB6F070
:103B7000080E0101626F19D0080E0001C125256EE3
:103B8000000EC221266E010E47ECB6F00001CA6F8E
:103B900001016251010D000EF324D96E010EF420D3
:103BA000DA6E60002BF3DFFF622B040E0001C525E7
:103BB000CA6F000EC621CB6F010162510001CC6FAC
:103BC000CD6BCA51CC5DCB51CD59D8A0D5D7080EFD
:103BD000C125256E000EC221266E020E47ECB6F0FE
:103BE000000E166E010E176E600014F318F06000E0
:103BF00018F319F031ECA7F0600058F060F16000A4
:103C00005CF061F101016151026F600080F503F128
:103C10006D0E00018A6F010E8B6F97ECA4F0000E01
:103C20000101646F000E636F3DD06E51040DF350BF
:103C3000635DF4506459D8B014D020EE6DF100EEFD
:103C400060F0410E6F006FFFEBFFE806FBE2400EF5
:103C50006325D96E010E6421DA6EDF50ECECBAF008
:103C60001ED020EE6DF100EE60F0410E6F006FFF90
:103C7000EBFFE806FBE201016E51040DF31EF41E9A
:103C8000F34AF42A6351F3266451F422000EF3241C
:103C9000D96E010EF420DA6EDF50ECECBAF00101BF
:103CA000634B642B7151635D72516459D8A0BDD7C9
:103CB00020EE6DF111EE35F0410E6F006FFFE3FF66
:103CC000E806FBE2010E0401346F1200030E00014E
:103CD000F56F010EF76F910EF66FEB51D8A414D06B
:103CE000000E0101FB6F000E426E010E0001F76F26
:103CF000970EF66F6000D4F3E7F06000D8F3E8F0B9
:103D00006000DCF3E9F0120060009CF31DF060003D
:103D1000A0F31EF06000A4F31FF06000A8F320F0F1
:103D2000F40E216E000E226E49ECAEF00009D8B4FC
:103D3000CAD0030E426EC7D0010E0001F76F910E7C
:103D4000F66F15ECBBF0600058F0ABF260005CF071
:103D5000ACF2600060F0ADF2600064F0AEF2010E13
:103D6000426EBED0010E0001F76F910EF66F60003B
:103D7000ACFAECF06000B0FAEDF06000B4FAEEF0EE
:103D80006000B8FAEFF0EC1FED1FEE1FEF1FEC2BF9
:103D9000000EED23EE23EF2315ECBBF00001EC51F8
:103DA0001624F06FED511720F16FEE511820F26FCD
:103DB000EF511920F36FF351F21106E1D10EF05DCE
:103DC000070EF159D8A08CD0020E426E000E0101F0
:103DD000FB6F86D0010E0001F76F910EF66F0101A7
:103DE000FB51D8B42ED06000ACFAECF06000B0FA11
:103DF000EDF06000B4FAEEF06000B8FAEFF0000108
:103E0000EC1FED1FEE1FEF1FEC2B000EED23EE233A
:103E1000EF2315ECBBF00001EC511624F06FED51CF
:103E20001720F16FEE511820F26FEF511920F36F48
:103E3000F351F21106E1D10EF05D070EF159D8A051
:103E40002AD015ECBBF0600058F0ABF260005CF0DB
:103E5000ACF2600060F0ADF2600064F0AEF26000C1
:103E60009CF3DFF06000A0F3E0F06000A4F3E1F069
:103E70006000A8F3E2F060009CF3E3F06000A0F3C0
:103E8000E4F06000A4F3E5F06000A8F3E6F05DEC78
:103E9000AFF00101FB2B010E0101FB6521D0000EEB
:103EA000FB6F000E426E000E0001F76F000E09D08E
:103EB000000E0101FB6F000E426E010E0001F76F54
:103EC000960EF66F0DD04250000AD8B435D7010ACD
:103ED000D8B448D7030AD8B47DD7010AD8B4E8D7F4
:103EE0006000D4F3E7F06000D8F3E8F06000DCF3A2
:103EF000E9F012006000A8F025F06000ACF026F0B8
:103F0000000E47ECB6F06000A8F025F06000ACF0C1
:103F100026F0010E47ECB6F06000CFF0D9FF60004C
:103F2000D3F0DAFFDF6E6000A8F025F06000ACF09F
:103F300026F0010E47ECB6F00001606F20EE01F0B4
:103F40003350D9263450DA22600083F1DFFF60005D
:103F5000A8F025F06000ACF026F0010E47ECB6F0BA
:103F60000001606F6051626F616B20EE02F03350B0
:103F7000D9263450DA22600087F1DEFF60008BF131
:103F8000DDFF6000A8F025F06000ACF026F0010E27
:103F900047ECB6F00001606F616B20EE02F0335029
:103FA000D9263450DA226051DE126151DD126000F0
:103FB000A8F025F06000ACF026F0010E47ECB6F05A
:103FC0000001606F600080F161F0626B636B646B95
:103FD000600084F164F0636B626B616B20EE04F04F
:103FE0003350D9263450DA22600087F1DEFF6000BA
:103FF0008BF1DEFF60008FF1DEFF600093F1DEFFEA
:104000006000A8F025F06000ACF026F0010E47EC4F
:10401000B6F00001606F600080F161F0626B636B6D
:10402000646B600088F164F0600084F163F0626B9F
:10403000616B20EE04F03350D9263450DA226151FE
:10404000DE126251DE126351DE126451DE12600034
:10405000A8F025F06000ACF026F0010E47ECB6F0B9
:104060000001606F600080F161F0626B636B646BF4
:1040700060008CF164F0600088F163F0600084F10E
:1040800062F0616B20EE04F03350D9263450DA220E
:104090006151DE126251DE126351DE126451DE1292
:1040A0006000A8F025F06000ACF026F0010E47ECAF
:1040B000B6F00001606F600080F161F0626B636BCD
:1040C000646B20EE04F03350D9263450DA2261516B
:1040D000DE126251DE126351DE126451DE126000A4
:1040E000A8F025F06000ACF026F0020E47ECB6F028
:1040F0001200050E0101656F000E666F000E676FFE
:10410000000E6C6F000E6E6F000E6D6F110E706FF3
:104110006000A8F277F16000ACF278F16000B0F2D4
:1041200079F16000B4F27AF1FBECBAF0600058F07B
:1041300073F160005CF074F1600060F075F1600094
:1041400064F076F1140E0001A6250101686F000EDF
:104150000001A7210101696F6F69040E646F640E8D
:10416000166E010E176E8CEC93F020EE64F100EEEB
:1041700016F0160E6F006FFFEBFFE806FBE2400E35
:104180002D6E010E2E6E1DECA3F0640E00018A6FE1
:10419000010E8B6F97ECA4F0000E0001A96F000ECA
:1041A000A86FA3510101006F600088F201F10001C6
:1041B000A5510101026F600090F203F10001A751C7
:1041C0000101046F600098F205F10001A95101019D
:1041D000066F6000A0F207F16000F4F060F1616B1F
:1041E0003D2A000E636F000E626F66D06551040DAC
:1041F000F350625DF4506359D8B014D020EE64F1EE
:1042000000EE60F0410E6F006FFFEBFFE806FBE28F
:10421000400E6225D96E010E6321DA6EDF50ECECA0
:10422000BAF047D0010165510001AE6FAF6BD89075
:10423000AE37AF37D890AE37AF37080EAE27000E87
:10424000AF23AE510101625D0001AF51010163591D
:10425000D8B01ED020EE64F100EE60F0410E6F0089
:104260006FFFEBFFE806FBE26551040DF31EF41E41
:10427000F34AF42A6251F3266351F422000EF32428
:10428000D96E010EF420DA6EDF50ECECBAF011D0EA
:1042900020EE64F100EE60F0410E6F006FFFEBFF67
:1042A000E806FBE201016051ECECBAF00101604B61
:1042B000612B0101624B632B6851625D6951635947
:1042C000D8A094D720EE64F111EE35F0410E6F00C6
:1042D0006FFFE3FFE806FBE2010E0401346F1200FA
:1042E000030E0001F06F010EF26F910EF16F60008E
:1042F000FCF41DF0600000F51EF0600004F51FF0F6
:10430000600008F520F0EF0E216E000E226E49ECE1
:10431000AEF00009D8B449D00001EF51C2ECB9F0B9
:1043200020EE54F1050E6F00AFFFDBFFE806FBE265
:10433000B1ECB5F020EE4EF1050E6F00AFFFDBFFE4
:10434000E806FBE220EE54F100EE25F0050E6F00CA
:104350006FFFEBFFE806FBE220EE5CF100EE2BF0D6
:10436000080E6F006FFFEBFFE806FBE22BECB2F0EC
:1043700020EE5CF100EE28F0080E6F006FFFEBFFFF
:10438000E806FBE2ABECB9F0000E0001F26F000EA4
:10439000F16F000E0201A36F000EA46F000EA56F57
:1043A000000EA66F000E3E6E68D060008CFAE7F03B
:1043B000600090FAE8F0600094FAE9F0600098FA82
:1043C000EAF00001E71FE81FE91FEA1FE72B000ED4
:1043D000E823E923EA2315ECBBF00001E75116249A
:1043E000EB6FE8511720EC6FE9511820ED6FEA519F
:1043F0001920EE6FEE51ED110DE1D10EEB5D070EC0
:10440000EC59D8B007D00201A351A411A511A611EF
:10441000D8A433D03E2A15ECBBF0600058F0A3F2CC
:1044200060005CF0A4F2600060F0A5F2600064F04F
:10443000A6F26000ECF4DFF06000F0F4E0F0600061
:10444000F4F4E1F06000F8F4E2F06000FCF4E3F072
:10445000600000F5E4F0600004F5E5F0600008F5A8
:10446000E6F05DECAFF0020E3E6407D0000E3E6E4B
:10447000010E0001F26F940EF16F6000C0F32CF199
:104480006000C4F32DF16000C8F32EF11200040E99
:104490001B6E000E1D6E000E1C6E6000DFF0D9FF5B
:1044A0006000E3F0DAFF030EDE18D8A4B8D03F5066
:1044B000D8A48DD0B4D06000DFF0D9FF6000E3F065
:1044C000DAFF6F0078FF1BF06F0078FF1CF06F00C1
:1044D00074FF1DF0CCC2D4F2CDC2D5F2CEC2D6F25A
:1044E000CFC2D7F2000E3F6E60006CF016F0600095
:1044F00070F017F0600074F018F012006000DFF048
:10450000D9FF6000E3F0DAFF6F0078FF1BF06F0067
:1045100078FF1CF06F0074FF1DF060006CF016F067
:10452000600070F017F0600074F018F01200010ED7
:104530001D6EF50E1C6E000E3F6E60006CF016F0E6
:10454000600070F017F0600074F018F01200600066
:104550006CF016F0600070F017F0600074F018F066
:1045600012006000DFF0D9FF6000E3F0DAFF6F00B7
:1045700078FF1BF06F0078FF1CF06F0074FF1DF0D8
:10458000000E3F6E60006CF016F0600070F017F0E7
:10459000600074F018F01200000E3F6E6000DFF053
:1045A000D9FF6000E3F0DAFF6F0078FF1BF06F00C7
:1045B00078FF1CF06F0074FF1DF060006CF016F0C7
:1045C000600070F017F0600074F018F0120020EE38
:1045D00001F03750D9263850DA226F0078FF19F0F1
:1045E0006F0074FF1AF01A50000AD8B404D0010A00
:1045F000D8B406D0D1D71950000AD8B45CD7CCD7DC
:104600001950910AD8B47AD7020AD8B4A0D7050AAB
:10461000D8B48DD7010AD8B4A4D7640ABDD7020E86
:104620001D6E570E1C6E60006CF016F0600070F08E
:1046300017F0600074F018F012001638F00B171025
:104640006000B7F0D9FF6000BBF0DAFFDF6E20EE4C
:1046500001F02D50D9262E50DA22600064F02FF0A0
:10466000030E2F161844E846FC0B2F10DF6E20EEC9
:1046700002F02D50D9262E50DA221B50DF6E20EE8C
:1046800003F02D50D9262E50DA2260006BF0DFFFA8
:1046900020EE04F02D50D9262E50DA221D50DF6E68
:1046A00020EE05F02D50D9262E50DA22600073F04E
:1046B000DFFF20EE06F02D50D9262E50DA2210EE24
:1046C0001FF06F0098FF2FF06F0094FF30F0600034
:1046D000C0F02FF0306A1F0E2F161E38E846E00B90
:1046E0002F10DF6E20EE07F02D50D9262E50DA2243
:1046F00060007FF0DFFF20EE08F02D50D9262E500D
:10470000DA22600087F0DFFF20EE09F02D50D92675
:104710002E50DA2260008BF0DFFF20EE0AF02D50E1
:10472000D9262E50DA222450DF6E20EE0BF02D50C9
:10473000D9262E50DA2260008FF0DFFF20EE0CF039
:104740002D50D9262E50DA22600097F0DFFF20EEA0
:104750000DF02D50D9262E50DA2260009BF0DFFF9D
:1047600020EE0EF02D50D9262E50DA2260009FF058
:10477000DFFF20EE0FF02D50D9262E50DA226000F8
:10478000A3F0DFFF20EE10F02D50D9262E50DA22B4
:104790006000A7F0DFFF20EE11F02D50D9262E503B
:1047A000DA226000ABF0DFFF20EE12F02D50D926A8
:1047B0002E50DA226000AFF0DFFF20EE13F02D5014
:1047C000D9262E50DA226000B3F0DFFF1200C1ECD0
:1047D000B7F0600090F062F0600094F063F00001C8
:1047E00063AD03D0306A302A01D0306A00016051D5
:1047F0003018FE0B3018606F63AB03D0306A302A7C
:1048000001D0306A3046000160513018FD0B30187D
:10481000606F63A903D0306A302A01D0306A304615
:104820003046000160513018FB0B3018606F63A7F1
:1048300003D0306A302A01D0306A304630463046E4
:10484000000160513018F70B3018606F62AD03D073
:10485000306A302A01D0306A303A00016051301895
:10486000EF0B3018606F62AB03D0306A302A01D092
:10487000306A303A3046000160513018DF0B301892
:10488000606F3901A1A903D0306A302A01D0306AA3
:10489000010E316E000E326E302A03D0D8903136C0
:1048A0003236302EFBD70001625131166351321679
:1048B00031503210D8B403D0336A332A01D0336A6E
:1048C000333A33463346000160513318BF0B331877
:1048D000606F62A503D0306A302A01D0306A30326E
:1048E00030320001605130187F0B3018606F62A3C6
:1048F00003D0306A302A01D0306A0001615130188B
:10490000FE0B3018616F62A103D0306A302A01D0EB
:10491000306A3046000161513018FD0B3018616F6C
:10492000600080F12EF0600084F12FF01200000191
:1049300020EE04F08A51D9268B51DA226F0078FFDD
:104940008CF06F0074FF8DF0080E8C27000E8D2305
:1049500020EE20F08A51D9268B51DA22600033F202
:10496000DEFF600037F2DDFF20EE2EF08A51D926FF
:104970008B51DA22000EDE6E080EDD6E200E8A25C7
:10498000346E000E8B21356EC8ECABF0000120EECA
:1049900036F08A51D9268B51DA2210EE1DF08A5159
:1049A000E1268B51E2226F007FFFE7FF20EE37F018
:1049B0008A51D9268B51DA2210EE1EF08A51E12657
:1049C0008B51E2226F007FFFE7FF20EE38F08A5123
:1049D000D9268B51DA2210EE1FF08A51E1268B5135
:1049E000E2226F007FFFE7FF20EE30F08A51D926E8
:1049F0008B51DA226F0078FF8CF06F0074FF8DF01E
:104A0000080E8C27000E8D2320EE17F08A51D92630
:104A10008B51DA22600033F2DEFF600037F2DDFFF7
:104A200020EE32F08A51D9268B51DA2210EE19F09D
:104A30008A51E1268B51E2226F007BFFE6FF6F0077
:104A400077FFE5FFF80E8C6FFF0E8D6F20EE34F0D0
:104A50008A51D9268B51DA226F0078FF8EF06F00D1
:104A600074FF8FF08C518E278D518F2320EE1BF019
:104A70008A51D9268B51DA2260003BF2DEFF6000BA
:104A80003FF2DDFF12002F68306831683268000E97
:104A9000336E000E346E070E346401D05DD0345096
:104AA0000E0D0A0EF326000EF4227C0EF324D96EAE
:104AB000040EF420DA6EDE502F5CDE503058DE50EB
:104AC0003158DE503258D8A01BD034500E0D0A0E8B
:104AD000F326000EF4227C0EF324D96E040EF4208B
:104AE000DA6E6F0078FF2FF06F0078FF30F06F0004
:104AF00078FF31F06F0078FF32F06000D0F033F0D3
:104B000034500E0D040EF326000EF4227C0EF32416
:104B1000166E040EF420176E1D0E186E000E196E20
:104B200029ECB8F00009D8B415D034500E0D7C0E25
:104B3000F324166E040EF420176E230E186E000E6A
:104B4000196E49ECB8F00009D8B404D06000D0F078
:104B500033F002D0342A9FD733500E0D7C0EF3244D
:104B6000D96E040EF420DA6E60008FF0DEFF600074
:104B700093F0DEFF600097F0DEFF60009BF0DEFF49
:104B800020EE1DF033500E0D040EF326000EF4221D
:104B90007C0EF324E16E040EF420E26E050E6F002D
:104BA0006FFFE3FFE806FBE233500E0D0A0EF3261B
:104BB000000EF4227C0EF324D96E040EF420DA6E7B
:104BC00060009FF0DEFF6000A3F0DEFF6000A7F052
:104BD000DEFF6000ABF0DEFF120001013F6F010E4F
:104BE0004A6E910E496E030E486E8CD008ECBBF0F5
:104BF000600058F0A7F260005CF0A8F2600060F07E
:104C0000A9F2600064F0AAF2480E166E000E176E4C
:104C10007FECBBF00009D8B43AD060009CFAE7F012
:104C20006000A0FAE8F06000A4FAE9F06000A8FAD9
:104C3000EAF06000FCF4EBF06EEC99F0E70ED96E50
:104C4000000EDA6E010ED926000EDA226F0078FF10
:104C500044F16F0074FF45F103D0010E406E17D090
:104C600020EE44F16F0078FFF8F06F0074FFF9F068
:104C70000001F951010AD8A40AD0F851910AD8B418
:104C800006D0020AD8B4E9D7050AD8A4010A600000
:104C900010F549F0600014F54AF03BD060009CFA32
:104CA000E7F06000A0FAE8F06000A4FAE9F0600024
:104CB000A8FAEAF06000FCF4EBF066EC9EF060000D
:104CC0009CF340F16000A0F341F16000A4F342F1D5
:104CD000600004F549F0600008F54AF0960E4918A6
:104CE00005E14A04D8A402D0000E406E030E010173
:104CF0004019D8A40ED041514211D8A40AD0000EB8
:104D0000406E07D04050000AD8B470D7010AD8B41A
:104D1000C5D7600020F13CF1600024F13DF1600056
:104D200028F13EF11200600094F02BF0600098F042
:104D30002CF060009CF02DF06000A0F02EF06000E0
:104D4000ACF016F06000B0F017F06000B4F018F0AE
:104D50006000B8F019F06000A4F01AF06000A8F04C
:104D60001BF0000E1BBEFF0E1C6E1D6EE6ECB1F0BC
:104D7000600058F02BF060005CF02CF0600060F0F8
:104D80002DF0600064F02EF0234A242A2B502C10C2
:104D90002D102E10D8A4D3D760008FF0D9FF60005B
:104DA00093F0DAFF000EDF6E2306D8A02406600021
:104DB00094F016F0600098F017F060009CF018F086
:104DC0006000A0F019F06000A4F01AF06000A8F0F4
:104DD0001BF0000E1BBEFF0E1C6E1D6ED6ECB4F059
:104DE00016502F6E600094F016F0600098F017F0E7
:104DF00060009CF018F06000A0F019F06000A4F0D2
:104E00001AF06000A8F01BF0000E1BBEFF0E1C6E17
:104E10001D6EE6ECB1F0600058F025F060005CF02B
:104E200026F0600060F027F0600064F028F0090EC2
:104E30002F6402D0070E2F26300E2F2660008FF031
:104E4000D9FF600093F0DAFF6000BFF0DFFF2306B8
:104E5000D8A024062550261027102810D8B41200F8
:104E6000A6D7040E1826000E1922000E236E000E7F
:104E7000246E000E256E000E266E000E226E000EB1
:104E8000216E2DD0000E206E000E1F6E60005BF0B4
:104E9000D9FF60005FF0DAFFDF50206E1F6A164A0C
:104EA000172A60005BF0D9FF60005FF0DAFFDF5087
:104EB0001A6E1A501F12164A172A21042210D8A45B
:104EC00004D0000E206E000E1F6E1F5023262050AF
:104ED0002422000E2522000E2622214A222AD890C2
:104EE00019301B6E18301A6E1A50215C1B50225854
:104EF000D8A0C8D7000E23141A6E000E24141B6EFF
:104F0000FF0E25141C6EFF0E26141D6E110E05D00B
:104F1000D8901D321C321B321A32E82EF9D71A50A3
:104F20001E6EFF0E2316FF0E2416000E2516000E11
:104F300026161E502326000E242225222622265025
:104F400003E12504D8A025D0000E23141A6E000E0C
:104F500024141B6EFF0E25141C6EFF0E26141D6EEE
:104F6000110E05D0D8901D321C321B321A32E82E99
:104F7000F9D71A5023261B5024221C5025221D50DD
:104F80002622FF0E2316FF0E2416000E2516000EF5
:104F90002616231C166E241C176E1200000120EE2C
:104FA00010F06F51D9267051DA22000EDF6EE6EC58
:104FB000B5F0600088F024F060008CF025F0E6EC9D
:104FC000B5F0600088F026F060008CF027F094ECDB
:104FD000B9F0600090F071F0600094F072F0000E93
:104FE000000172BFFF0E736F746F20EE0CF06F51F3
:104FF000D9267051DA226000C7F1DEFF6000CBF1E4
:10500000DEFF6000CFF1DEFF6000D3F1DEFF600065
:10501000BFF1D9FF6000C3F1DAFF11EE00F1100E0D
:105020006F006FFFE3FFE806FBE2850E6D6FFD0E7C
:105030006E6F44ECB5F0000120EE08F06F51D926F8
:105040007051DA226F0078FF71F06F0074FF72F018
:105050006000C4F132F06000C8F133F0346A356AA0
:105060000A0E366EA5ECB8F06000C8F06DF0600076
:10507000CCF06EF044ECB5F0750E00016D6FFF0ED4
:105080006E6F44ECB5F0000120EE0CF06F51D926A4
:105090007051DA226F0078FF32F06F0078FF33F042
:1050A0006F0078FF34F06F0078FF35F00A0E366E2F
:1050B000A5ECB8F06000C8F06DF06000CCF06EF0C8
:1050C00044ECB5F0DA0E00016D6FFF0E6E6F44EC2C
:1050D000B5F01200000E00016B6F000E6A6F000E3B
:1050E0006C6F030E6C6501D07FD0D00E606F020E26
:1050F000616F6C51010D660EF324D96E000EF42021
:10510000DA6EDF50346E3450626F636B000E656F81
:105110000A0E646FA1ECB6F000016C51010D660E31
:10512000F324D96E000EF420DA6E630EDF6415D01E
:105130006A51010DD00EF324D96E020EF420DA6EFE
:105140006B51010D990EF324E16E030EF420E26E13
:105150006F007FFFE7FF6A2B6B2B6C51010D660E12
:10516000F324D96E000EF420DA6E090EDF6415D038
:105170006A51010DD00EF324D96E020EF420DA6EBE
:105180006B51010D990EF324E16E030EF420E26ED3
:105190006F007FFFE7FF6A2B6B2B6A51010DD00E6A
:1051A000F324D96E020EF420DA6E6B51010D990EC4
:1051B000F324E16E030EF420E26E6F007FFFE7FF41
:1051C0006A2B6B2B000E6A6F030E6C610BD06B5158
:1051D000010D990EF324D96E030EF420DA6E2E0E13
:1051E000DF6E6B2B6C2B7DD76B51010D990EF32469
:1051F000D96E030EF420DA6E000EDF6E990E666F24
:10520000030E676F12000001E505E611D8A4120035
:10521000FBECBAF0600058F014F160005CF015F19E
:10522000600060F016F1600064F017F1F70E166E82
:10523000000E176E140E186E010E196E49ECB8F0C0
:105240000009D8B41200B1ECB5F020EE00F1050E63
:105250006F00AFFFDBFFE806FBE220EEE7F010EEA9
:1052600006F1050E6F006FFFE3FFE806FBE2FBECC3
:10527000BAF0600058F00CF160005CF00DF16000D5
:1052800060F00EF1600064F00FF16000B4F310F113
:105290006000B8F311F16000BCF312F16000C0F3DC
:1052A00013F1060E01011C6F040E1D6F000E196F25
:1052B000010E186F080E1B6F000E1A6F000E1F6F85
:1052C000020E1E6F600030F426F1600034F427F106
:1052D000600038F428F160003CF429F120EE00F180
:1052E00010EE20F1050E6F006FFFE3FFE806FBE212
:1052F000600040F430F1600044F431F1600048F4A3
:1053000032F160004CF433F120EE06F110EE2AF198
:10531000050E6F006FFFE3FFE806FBE220EE18F1D9
:1053200000EE8AF01F0E6F006FFFEBFFE806FBE256
:10533000C6EC9AF01200050E0201806F8169826945
:105340000001EA5104E1810EE95DD8A008D0590EB0
:10535000EE6F020EEF6F6000B8F380F2120020EEE5
:10536000E5F000EE2AF0080E6F006FFFEBFFE80695
:10537000FBE2850E336E020E346E7AEC9FF0600015
:1053800094F325F0600098F326F0000E47ECB6F099
:10539000000E0201846F000E836F17D0600094F33B
:1053A00025F0600098F326F0010E47ECB6F00001FE
:1053B000EE6F000E02018325D96E020E8421DA6E93
:1053C0006000BBF3DFFF834B842B040E0001E92553
:1053D000EE6F000EEA21EF6FEE510201835D0001D6
:1053E000EF5102018459D8A0D9D7600094F325F079
:1053F000600098F326F0020E47ECB6F0000E166E31
:10540000020E176E6000A4F318F06000A8F319F004
:1054100031ECA7F0080E02018519D8A4120020EE85
:10542000CEF000EEA2F0160E6F006FFFEBFFE80665
:10543000FBE220EE85F200EEB9F0070E6F006FFF81
:10544000EBFFE806FBE220EEE5F000EEC1F0080E0F
:105450006F006FFFEBFFE806FBE23EEC9DF01200F1
:105460002C6E2C501F0B2D6E010E2E6E000E2F6E0B
:10547000000E306E000E316E000E326E2D0E206E5C
:10548000000E216E540EF9ECB8F02E0E206E000EB8
:10549000216E550EF9ECB8F0350E206E000E216E1F
:1054A000520EDDECB8F03580350E206E000E216E08
:1054B000520EF9ECB8F0450EE82EFED700F0350E8E
:1054C000206E000E216E6A0EDDECB8F0010E2F2664
:1054D000000E30223122322235A008D03250311055
:1054E00005E12F280F0E3058D8A0E9D732503110DF
:1054F00040E12F280F0E3058D8B01200350E206E24
:10550000000E216E520EDDECB8F03590350E206E97
:10551000000E216E520EF9ECB8F0330E206E000E24
:10552000216E680EDDECB8F0340E206E000E216E98
:10553000690EDDECB8F0000E266EFF0E276E3450BB
:10554000296E286A265028162750291633502A6EAD
:105550002B6A28502A1229502B12600093F0D9FF91
:10556000600097F0DAFF6000ABF0DEFF6000AFF0A4
:10557000DDFF120000016951601904E16A516119EF
:10558000D8B429D06B51621904E16C516319D8B4B5
:1055900022D060516B1904E161516C19D8B41BD051
:1055A0006951621904E16A516319D8B414D06205D3
:1055B000300E6359D8B00FD06005300E6159D8B0A5
:1055C0000AD06B05300E6C59D8B005D06905300E85
:1055D0006A59D8A002D0010E12006251605D635179
