:0400000074EF00F0A9
:100008004F82FACF17F0FBCF18F0E9CF19F0EACFFB
:100018001AF0E1CF1BF0E2CF1CF0D9CF1DF0DACFF8
:100028001EF0F3CF1FF0F4CF20F0F6CF21F0F7CF7A
:1000380022F0F8CF23F0F5CF24F04FC025F050C0C0
:1000480026F051C027F052C028F09EA412D09E94EA
:1000580081AC02D0010E01D0000EFF0A166E163ACE
:100068001646164681501618BF0B1618816E68EC96
:1000780027F0F2A40DD0F29435C00FF036C010F07E
:1000880036EC1CF0B50E016E010E026EF1EC1DF09F
:10009800F0B2F09228C052F027C051F026C050F0BC
:1000A80025C04FF024C0F5FF23C0F8FF22C0F7FF9A
:1000B80021C0F6FF20C0F4FF1FC0F3FF1EC0DAFF07
:1000C8001DC0D9FF1CC0E2FF1BC0E1FF1AC0EAFF38
:1000D80019C0E9FF18C0FBFF17C0FAFF4F921100C3
:1000E8008BEF1EF0020E0101836F000E856F000E6C
:1000F800846F2FEC27F0010120EE1EF07851D926ED
:100108007951DA22000160C0DEFF61C0DEFF62C003
:10011800DEFF63C0DEFF5AEC27F0010120EE10F08D
:100128007851D9267951DA22000162C0DEFF63C016
:10013800DDFFA5EC20F0010120EE16F07851D9265C
:100148007951DA22010EDF6E20EE10F07851D926AF
:100158007951DA22DECF71F0DDCF72F01EEC21F09A
:10016800010120EE19F07851D9267951DA22040ECE
:10017800EBCFDBFFE806FCE220EE19F07851D92638
:100188007951DA2210EE14F07851E1267951E22201
:10019800DECFE6FFDDCFE5FF20EE14F07851D9265B
:1001A8007951DA22DECF7BF1DDCF7CF120EE10F041
:1001B8007851D9267951DA22DECF7DF1DDCF7EF173
:1001C8007B517D277C517E23600E7E5DD8A03BD07D
:1001D800000E7B6F300E7C6F20EE14F07851D9261C
:1001E8007951DA22DECF7DF1DDCF7EF1FF0E7F6F10
:1001F8002F0E806F20EE10F07851D9267951DA222F
:10020800DECF81F1DDCF82F1811F821F814B822BEE
:100218007F51812780518223811F821F814B822B2E
:100228007D5181277E5182237B5181277C518223F6
:1002380020EE12F07851D9267951DA2281C1DEFFF9
:1002480082C1DDFF22D020EE14F07851D9267951F1
:10025800DA22DECF7BF1DDCF7CF120EE10F0785191
:10026800D9267951DA22DECF7DF1DDCF7EF17B51BF
:100278007D277C517E2320EE12F07851D9267951C2
:10028800DA227DC1DEFF7EC1DDFF20EE10F078515D
:10029800D9267951DA2200EE6FF0080EDBCFEBFF9A
:1002A800E806FCE2CBEC21F0010120EE0EF07851DB
:1002B800D9267951DA2200016FC0DEFF70C0DDFF58
:1002C800CE0E986F7F0E996F09EC23F039C073F04A
:1002D8003AC074F03BC075F03CC076F021EC0EF0EB
:1002E80073C098F074C099F009EC23F0010E392618
:1002F800000E3A223B223C22FA0E0001986F7F0E34
:10030800996F09EC23F0010120EE1BF07851D926F2
:100318007951DA22DFAE07D0650E0001986F7F0EA3
:10032800996F09EC23F0010120EE1DF07851D926D0
:100338007951DA22DFA407D0860E0001986F7F0E6C
:10034800996F09EC23F0010120EE1BF07851D926B2
:100358007951DA22DFBA07D0F80E0001986F7E0EC5
:10036800996F09EC23F0CE0E0001986F7F0E996FFC
:1003780009EC23F0010120EE1EF07851D9267951BD
:10038800DA22DECF73F0DECF74F0DECF75F0DECF89
:1003980076F021EC0EF073C098F074C099F009EC77
:1003A80023F0FA0E0001986F7F0E996F09EC23F085
:1003B80096D0C00E0001986F7F0E996F09EC23F05C
:1003C80078C1FCF079C1FDF049EC14F0AAD0B90E5F
:1003D8000001986F7F0E996F09EC23F078C1B5F092
:1003E80079C1B6F095EC12F09CD0CE0E0001986F52
:1003F8007F0E996F09EC23F0010120EE02F078518D
:10040800D9267951DA2200EE7AF0050EDBCFEBFF20
:10041800E806FCE268EC19F07AC098F07BC099F025
:1004280009EC23F0F30E0001986F7F0E996F09EC29
:1004380023F0010120EE08F07851D9267951DA220B
:1004480000EE7AF0050EDBCFEBFFE806FCE268EC85
:1004580019F07AC098F07BC099F009EC23F0F60EF9
:100468000001986F7F0E996F09EC23F0010120EECF
:100478000EF07851D9267951DA22DECF60F0DDCF3F
:1004880061F01FEC24F060C098F061C099F009ECAD
:1004980023F0DF0E0001986F7F0E996F09EC23F0AF
:1004A80078C1D9FF79C1DAFFDECF7BF1DDCF7CF1EE
:1004B8007BC19AF07CC19BF000019C6B9D6BA2EC08
:1004C80026F0FA0E0001986F7F0E996F09EC23F061
:1004D80078C172F079C173F0A5EC24F022D0010143
:1004E80020EE0EF07851D9267951DA22DECF7BF151
:1004F800DDCF7CF17C51080AD8B404D0800AD8B486
:100508000CD073D77B51000AD8B461D7060AD8B487
:1005180050D7440AD8B405D068D77B51080AD8A464
:1005280064D7CE0E0001986F7F0E996F09EC23F007
:10053800010120EE10F07851D9267951DA22DECF68
:100548007BF1DDCF7CF17BC173F07CC174F00001DD
:10055800756B766B21EC0EF073C098F074C099F04F
:1005680009EC23F0F30E0001986F7E0E996F09ECE9
:1005780023F0010120EE12F07851D9267951DA22C0
:10058800DECF7BF1DDCF7CF17BC173F07CC174F0F1
:100598000001756B766B21EC0EF073C098F074C097
:1005A80099F009EC23F0F00E0001986F7F0E996F17
:1005B80009EC23F0010120EE14F07851D926795185
:1005C800DA22DECF7BF1DDCF7CF17BC173F07CC119
:1005D80074F00001756B766B21EC0EF073C098F027
:1005E80074C099F009EC23F0F90E0001986F7F0EA2
:1005F800996F09EC23F0C20E0001986F7C0E996F79
:1006080009EC23F01200000E0001A16F845185113E
:10061800D8A40CD0010E9F6F20EE98F000EE84F065
:10062800080EDBCFEBFFE806FCE21200FFEC24F03B
:100638000009D8B40DD0010E00019F6F20EE98F08C
:1006480000EE84F0080EDBCFEBFFE806FCE21200B8
:100658001BEC25F00009D8B43CD2300E0001855DB2
:10066800D8A00CD0010E9F6F20EE98F000EE84F019
:10067800080EDBCFEBFFE806FCE21200000E0201D9
:10068800016F000E006F84C002F285C003F284C0BF
:1006980004F285C005F2010E066F000E086F22EE07
:1006A80000F000EE84F0080EDBCFEBFFE806FCE27A
:1006B80012000001A151090D060EF326000EF422C6
:1006C800000EF324D96E020EF420DA6EDF50D8A49F
:1006D800EFD1A151D8B407D0FF0EA125936F946B29
:1006E800FF0E942304D0000E946F070E936F93C0EF
:1006F80060F094C061F0000E636F090E626F1CEC2D
:1007080026F0020E00016027000E6123000E60250E
:10071800D96E020E6121DA6EDECF8DF0DDCF8EF05C
:10072800010E8D27000E8E23A151090D000EF32412
:10073800D96E020EF420DA6E8DC0DEFF8EC0DDFFAA
:10074800A151090D000EF324D96E020EF420DA6EC1
:10075800DECF8DF0DDCF8EF084518D2785518E232D
:100768008D05300E8E59D8A0D1D0070EA119D8A466
:10077800CDD002010651D8A4C9D00001A151090D5C
:10078800040EF326000EF422000EF324D96E020E96
:10079800F420DA6E84C0DEFF85C0DDFFA151090DAB
:1007A800040EF326000EF422000EF324D96E020E76
:1007B800F420DA6EDECF8DF0DDCF8EF0FF0E8F6F76
:1007C8002F0E906FA151090D000EF324D96E020E61
:1007D800F420DA6EDECF91F0DDCF92F0911F921FF8
:1007E800914B922B8F51912790519223911F921FD9
:1007F800914B922B8D5191278E519223A151090D26
:10080800020EF326000EF422000EF324D96E020E17
:10081800F420DA6E91C0DEFF92C0DDFF000E966F05
:10082800070E966501D046D0A1519619D8B43FD08D
:10083800A151090D000EF324D96E020EF420DA6ED0
:1008480000EE72F0080EDBCFEBFFE806FCE29651F3
:10085800090D000EF324D96E020EF420DA6E00EEB4
:100868007BF0080EDBCFEBFFE806FCE2ECEC19F0BE
:100878000009D8B41CD000019651090D060EF326C4
:10088800000EF422000EF324D96E020EF420DA6E64
:10089800DF50D8B40CD0010E9F6F20EE98F000EE18
:1008A80084F0080EDBCFEBFFE806FCE21200000143
:1008B800962BB6D7A151090D060EF326000EF42289
:1008C800000EF324D96E020EF420DA6E010EDF6EEC
:1008D800A151090D080EF326000EF422000EF32490
:1008E800D96E020EF420DA6EA1C0DFFFA151090D06
:1008F800000EF324D96E020EF420DA6E00EE84F0B6
:10090800080EDBCFEBFFE806FCE21200010E000147
:10091800956FA151090D000EF324D96E020EF42033
:10092800DA6EDECF8DF0DDCF8EF084518D278551C4
:100938008E23A151090D020EF326000EF422000E9B
:10094800F324D96E020EF420DA6E8DC0DEFF8EC05D
:10095800DDFF000E976F070E976501D03CD0A151BF
:100968009719D8B435D09751090D060EF326000E05
:10097800F422000EF324D96E020EF420DA6EDF5052
:10098800D8B426D0A151090D000EF324D96E020E59
:10099800F420DA6E00EE72F0080EDBCFEBFFE8060B
:1009A800FCE29751090D000EF324D96E020EF420D3
:1009B800DA6E00EE7BF0080EDBCFEBFFE806FCE218
:1009C800ECEC19F00009D8B403D0000E0001956FC3
:1009D8000001972BC0D79551D8B46AD0A151090D01
:1009E800060EF326000EF422000EF324D96E020E32
:1009F800F420DA6E010EDF6EA151090D000EF3240A
:100A0800D96E020EF420DA6EDECF8DF0DDCF8EF0D7
:100A180084518D2785518E23A151090D020EF3268D
:100A2800000EF422000EF324D96E020EF420DA6EC2
:100A38008DC0DEFF8EC0DDFFA151090D070EF32624
:100A4800000EF422000EF324D96E020EF420DA6EA2
:100A5800000EDF6EA151090D040EF326000EF422DC
:100A6800000EF324D96E020EF420DA6E84C0DEFF85
:100A780085C0DDFFA151090D080EF326000EF422F2
:100A8800000EF324D96E020EF420DA6EA1C0DFFF47
:100A9800A151090D000EF324D96E020EF420DA6E6E
:100AA80000EE84F0080EDBCFEBFFE806FCE2120054
:100AB800A12B080EA119D8A40CD0010E9F6F20EE0F
:100AC80098F000EE84F0080EDBCFEBFFE806FCE2BE
:100AD8001200080E0001A165ECD51200FC0ED31619
:100AE800D3508F0B6009D36ED288F29EF28AF088B9
:100AF8009F9A9D8AF28CD58ED58CD59AD596D5504D
:100B0800F80B0509D56ECD80BD50F00B0B09BD6EF5
:100B18001F0EBF6E400EBE6E9D84F28C939C52ECED
:100B280027F000EC27F0680E01018F6FE40EE82E25
:100B3800FED78F2FFCD700F0FC0E0001986F7F0EB8
:100B4800996F09EC23F0D0B615D0610E0001986FAB
:100B58007C0E996F09EC23F0940E0001986F7C0EBF
:100B6800996F09EC23F0610E0001986F7C0E996F64
:100B780009EC23F0EB0E0001986F7D0E996F09ECDC
:100B880023F0590E0001986F7F0E996F09EC23F03E
:100B9800410E0001986F7E0E996F09EC23F0990EB3
:100BA8000001986F7F0E996F09EC23F0C20E0001C7
:100BB800986F7C0E996F09EC23F0EC0E0001986F8A
:100BC8007C0E996F09EC23F092EC21F07AC0C9F3FE
:100BD8007BC0CAF37CC0CBF30301CA51CB11D8B494
:100BE80008D0C9C39AF0CAC39BF0CBC39CF028ECC9
:100BF80017F0AEEC23F06EC0C9F36FC0CAF370C033
:100C0800CBF30301CA51CB11D8A40FD090EC26F036
:100C180060C098F061C099F009EC23F04D0E000116
:100C2800986F7F0E996F09EC23F01A0E0001986FE8
:100C38007E0E996F09EC23F0D4EC26F001018F6F3A
:100C48008F5100019A6F9B6B9C6B9D6BA2EC26F0F9
:100C5800DB0E0001986F7F0E996F09EC23F0030EED
:100C68000001986F7E0E996F09EC23F058EC21F083
:100C7800E9CFD9FFEACFDAFF00EE7AF0050EDBCF35
:100C8800EBFFE806FCE268EC19F07AC098F07BC04C
:100C980099F009EC23F0DB0E0001986F7F0E996F35
:100CA80009EC23F0CF0E0001986F7D0E996F09ECC7
:100CB80023F0610E0001986F7C0E996F09EC23F008
:100CC800A4EC22F0000E00016E6F000ED6EC1EF0B0
:100CD800000E00016E6F000ED6EC1EF0150E01011D
:100CE800906F4B0E8F6FBE0EE82EFED78F2FFCD75E
:100CF800902FFAD700F0010E00016E6F000ED6ECAF
:100D08001EF0010E00016E6F000ED6EC1EF0000EF4
:100D18000301A26F000EA36F000EA46F000EA56F53
:100D28000F015C9B938AC00E0301D06FA80ED16F90
:100D3800000ED26F040ED36FC00ECC6FA80ECD6F0D
:100D4800000ECE6F050ECF6FD0C376F0D1C377F00B
:100D5800D2C378F0D3C379F068EC20F0F28EF28C2D
:100D680058EC21F0050EE926000EEA22EF500101A9
:100D78008F6F8F5100017A6F7B6B4AEC27F004006C
:100D8800570E01018B6F020E8C6FA0EC11F022EE52
:100D980057F000EE9AF00E0EDBCFEBFFE806FCE210
:100DA800A0EC1DF002015751D8B409D07DEC27F012
:100DB80001018F6F8F510301C66FC76B05D0030EFA
:100DC8000301C76FE80EC66FC6C335F0C7C336F058
:100DD800000E36BEFF0E376E386E0101B551D8B41D
:100DE800CED7000EB56F02015705D8A4C8D7CCC31B
:100DF800A1F2CDC3A2F2CEC3A3F2CFC3A4F2D0C353
:100E08009DF2D1C39EF2D2C39FF2D3C3A0F2000ECB
:100E1800936F780E926F9969040E8E6F8E0E000193
:100E2800606F020E616F33EC0BF022EE8EF000EE75
:100E380060F0160EDBCFEBFFE806FCE2A60E000121
:100E4800776F030E786F20EC15F08E0E0001A76FF8
:100E5800020EA86F8DEC16F0000E0301C86F36D095
:100E680002018F51040D0301C85101018F6F906B6E
:100E7800F3508F5D9051800A916FF450800A915918
:100E8800D8B016D022EE8EF000EE7EF0410EDBCF09
:100E9800EBFFE806FCE20301C851010DA60EF3249E
:100EA800D96E030EF420DA6EDF5008EC26F00CD071
:100EB80022EE8EF000EE7EF0410EDBCFEBFFE8066F
:100EC800FCE2000E08EC26F00301C82BC851010112
:100ED8008F6F906B0201925101018F5D0201935156
:100EE80001019059D8A0BCD7010E02016B6FA5C2B1
:100EF80061F0A6C262F00001636B646B70EC1AF0DB
:100F080061C098F062C099F009EC23F0400E00012E
:100F1800986F7E0E996F09EC23F0A7C261F0A8C202
:100F280062F00001636B646B70EC1AF061C098F0BA
:100F380062C099F009EC23F0C20E0001986F7C0E94
:100F4800996F09EC23F01BD7000E00019F6F160E56
:100F58009E6F20EE10F07751D9267851DA22DECF35
:100F680097F0DDCF98F09E519725726F9F51982189
:100F7800736F000E3FEC1EF0000120EE10F0775169
:100F8800D9267851DA22DECF97F0DDCF98F09E513E
:100F98009725726F9F519821736F010E3FEC1EF0D9
:100FA8000001A16FA06B20EE10F07751D92678517F
:100FB800DA22DECF97F0DDCF98F09E519725726F39
:100FC8009F519821736F010E3FEC1EF00001996F3D
:100FD8009951A01320EE10F07751D9267851DA22D2
:100FE800DECF97F0DDCF98F09E519725726F9F5115
:100FF8009821736F010E3FEC1EF00001A36FA26BE6
:1010080020EE10F07751D9267851DA22DECF97F00A
:10101800DDCF98F09E519725726F9F519821736F7D
:10102800010E3FEC1EF00001996F9951A21320EEBA
:1010380010F07751D9267851DA22DECF97F0DDCF3C
:1010480098F09E519725726F9F519821736F010EEA
:101058003FEC1EF00001A46F20EE10F07751D92666
:101068007851DA22DECF97F0DDCF98F09E519725A0
:10107800726F9F519821736F010E3FEC1EF00001B3
:10108800A56F20EE10F07751D9267851DA22DECFFD
:1010980097F0DDCF98F09E519725726F9F51982158
:1010A800736F010E3FEC1EF00001A76FA66B20EED8
:1010B80010F07751D9267851DA22DECF97F0DDCFBC
:1010C80098F09E519725726F9F519821736F010E6A
:1010D8003FEC1EF00001996F9951A613000E9A6F0C
:1010E80024D020EE10F07751D9267851DA22DECFBD
:1010F80097F0DDCF98F09E519725726F9F519821F8
:10110800736F010E3FEC1EF00001996F9A51010DAB
:10111800080EF326000EF422A00EF324D96E000E5A
:10112800F420DA6E99C0DFFF9A2BA4519A5DD8A0FB
:10113800D8D7000E9B6F24D020EE10F07751D92617
:101148007851DA22DECF97F0DDCF98F09E519725BF
:10115800726F9F519821736F010E3FEC1EF00001D2
:10116800996F9B51010D0E0EF326000EF422A00E6E
:10117800F324D96E000EF420DA6E99C0DFFF9B2BA2
:10118800A5519B5DD8A0D8D7000E9C6F24D020EE27
:1011980010F07751D9267851DA22DECF97F0DDCFDB
:1011A80098F09E519725726F9F519821736F010E89
:1011B8003FEC1EF00001996F9C51010D120EF326B1
:1011C800000EF422A00EF324D96E000EF420DA6E7D
:1011D80099C0DFFF9C2BA4519C5DD8A0D8D7000EE6
:1011E8009D6F24D020EE10F07751D9267851DA225D
:1011F800DECF97F0DDCF98F09E519725726F9F5103
:101208009821736F010E3FEC1EF00001996F9D51FC
:10121800010D180EF326000EF422A00EF324D96E49
:10122800000EF420DA6E99C0DFFF9D2BA5519D5D5D
:10123800D8A0D8D720EE10F07751D9267851DA22E5
:10124800DECF97F0DDCF98F09E519725726F9F51B2
:101258009821736F020E3FEC1EF0AE0E0001606F16
:10126800000E616F85EC25F00001D8A002D0BC8388
:101278003CD0BC93AE0E606F000E616FB80E626F0B
:10128800000E636F84EC24F00001D8A00DD0B20EDC
:10129800606F000E616F6DEC25F00001D8A004D0DE
:1012A800A605A711D8B41FD0AE0E606F000E616FEF
:1012B800B80E626F000E636F84EC24F00001D8A0B2
:1012C80014D0A80E606F000E616FB20E626F000E30
:1012D800636F63EC24F00001D8A007D0020EA619B2
:1012E800A711D8A402D0BC8101D0BC91A005A1113E
:1012F800D8A413D0080EA319A211D8A40ED0A751B0
:101308000CE1030EA65DD8B008D0060EA419D8A427
:1013180004D0040EA519D8B404D0010EBF6F930EE3
:1013280003D0000EBF6F000EBE6F030EBD6F20EE20
:10133800A0F000EE77F01F0EDBCFEBFFE806FCE233
:101348001200000E0001656FFF0E666F20EE01F0BF
:101358006051D9266151DA22DF50676F6751696F92
:10136800686B655168176651691760C0D9FF61C01D
:10137800DAFFDF506A6F6B6B68516A116C6F6951E5
:101388006B116D6F20EE02F06051D9266151DA229F
:10139800DFA003D0656B652B02D00001656B6E5131
:1013A8006519FE0B65196E6F20EE02F06051D926A3
:1013B8006151DA22DFA403D0656B652B02D00001EE
:1013C800656B65476E516519FD0B65196E6F20EEEB
:1013D80002F06051D9266151DA22DFA803D0656B8B
:1013E800652B02D00001656B654765476E5165192D
:1013F800FB0B65196E6F20EE02F06051D926615122
:10140800DA22DFAA03D0656B652B02D00001656B79
:101418006547654765476E516519F70B65196E6F26
:1014280020EE02F06051D9266151DA22DFAC03D0F8
:10143800656B652B02D00001656B653B6E516519C4
:10144800EF0B65196E6F20EE02F06051D9266151DD
:10145800DA22DFAE03D0656B652B02D00001656B25
:10146800653B65476E516519DF0B65196E6F20EE98
:1014780003F06051D9266151DA22DFA003D0656BF1
:10148800652B02D00001656B653B654765476E516A
:101498006519BF0B65196E6F20EE03F06051D926F0
:1014A8006151DA22DFA203D0656B652B02D00001FF
:1014B800656B653365336E5165197F0B65196E6F02
:1014C80020EE03F06051D9266151DA22DFA603D05D
:1014D800656B652B02D00001656B65476F51651917
:1014E800FD0B65196F6F20EE03F06051D92661512D
:1014F800DA22DFA803D0656B652B02D00001656B8B
:10150800654765476F516519FB0B65196F6F20EECD
:1015180003F06051D9266151DA22DFAA03D0656B46
:10152800652B02D00001656B6547654765476F51BC
:101538006519F70B65196F6F20EE03F06051D92616
:101548006151DA22DFAC03D0656B652B02D0000154
:10155800656B653B6F516519EF0B65196F6F20EE71
:1015680003F06051D9266151DA22DFAE03D0656BF2
:10157800652B02D00001656B653B65476F516519A6
:10158800DF0B65196F6F20EE04F06051D9266151A9
:10159800DA22DFA003D0656B652B02D00001656BF2
:1015A800653B654765476F516519BF0B65196F6FD7
:1015B80020EE04F06051D9266151DA22DFA203D06F
:1015C800656B652B02D00001656B653365336F5120
:1015D80065197F0B65196F6F20EE04F06051D926ED
:1015E8006151DA22DFA403D0656B652B02D00001BC
:1015F800656B70516519FE0B6519706F20EE04F06C
:101608006051D9266151DA22DFA603D0656B652BBC
:1016180002D00001656B654770516519FD0B6519AE
:10162800706F20EE04F06051D9266151DA22DFA8EC
:1016380003D0656B652B02D00001656B6547654774
:1016480070516519FB0B6519706F20EE6CF000EE98
:1016580060F0040EDBCFEBFFE806FCE21200000EA0
:1016680000016E6F000E6F6F000E706F000E716FCD
:1016780020EE02F06051D9266151DA22DF50626F04
:10168800636BD89062376337D8906237633720EE40
:1016980001F06051D9266151DA22DF50646F64513C
:1016A800666F656B60C0D9FF61C0DAFFDF50676F96
:1016B800686B0C0ED89067376837E82EFBD76551F2
:1016C800671366516813625167136351681320EEFC
:1016D80003F06051D9266151DA22DF50696F6951F0
:1016E8006713000E681367C06EF068C06FF0706B08
:1016F800716B20EE04F06051D9266151DA22DECFF9
:1017080062F0DDCF63F062516E2763516F23000EE4
:101718007023000E712320EE06F06051D926615126
:10172800DA22DECF62F0DDCF63F062516E276351BB
:101738006F23000E7023000E712320EE09F0605114
:10174800D9266151DA22DECF62F0DDCF63F020EED8
:1017580008F06051D9266151DA22DF50646F656B59
:101768000D0ED89064376537E82EFBD762516413A5
:101778006351651364516E2765516F23000E702302
:10178800000E712320EE0BF06051D9266151DA2248
:10179800DF50626F6251646F636B20EE0CF0605132
:1017A800D9266151DA22DF50656F65516313000E47
:1017B800641363516E2764516F23000E7023000E6B
:1017C800712320EE0FF06051D9266151DA22DF50E3
:1017D800626F6251646F636B20EE10F06051D9261E
:1017E8006151DA22DF50656F666B6351651364518E
:1017F800661365516E2766516F23000E7023000E25
:10180800712320EE11F06051D9266151DA22DF50A0
:10181800626F6251646F636B20EE12F06051D926DB
:101828006151DA22DF50656F666B6351651364514D
:10183800661365516E2766516F23000E7023000EE4
:10184800712320EE13F06051D9266151DA22DF505E
:10185800626F6251646F636B20EE14F06051D92699
:101868006151DA22DF50656F666B6351651364510D
:10187800661365516E2766516F23000E7023000EA4
:10188800712320EE15F06051D9266151DA22DF501C
:10189800626F6251646F636B20EE16F06051D92657
:1018A8006151DA22DF50656F666B635165136451CD
:1018B800661365516E2766516F23000E7023000E64
:1018C80071236EC062F06FC063F070C064F071C0C5
:1018D80065F0110E05D0D8906533643363336233F5
:1018E800E82EF9D70F0E6215666F000E6315676F45
:1018F800000E6415686F000E6515696FFF0E6E1592
:101908006A6FFF0E6F156B6F000E70156C6F000E0F
:1019180071156D6F66516A256E6F67516B216F6F18
:1019280068516C21706F69516D21716F6EC062F0E2
:101938006FC063F070C064F071C065F0621F631F10
:10194800641F651F62C06EF063C06FF064C070F002
:1019580065C071F020EE0DF06051D9266151DA2290
:101968006EC0DEFF6FC0DDFF1200C70E0001606FA2
:10197800000E616F58EC26F0000E0001D26F240EA5
:10198800D16F20EEB9F010EED9F0050EDBCFE3FFF2
:10199800E806FCE220EEF3F000EE6FF0080EDBCF75
:1019A800EBFFE806FCE203EC22F020EED3F0050E94
:1019B800EBCFDBFFE806FCE2080E0001E06F060E45
:1019C800DF6FD10EA26F000EA36F5EEC1BF000015B
:1019D800E851D8A41200080EE125F36F000EE221A9
:1019E800F46FE3C0F5F0E4C0F6F0000EF86F1C0EDB
:1019F800F76FF3C061F0F4C062F0636B646B70EC76
:101A08001AF061C098F062C099F009EC23F0400E1A
:101A18000001986F7E0E996F09EC23F0F5C061F014
:101A2800F6C062F00001636B646B70EC1AF061C081
:101A380098F062C099F009EC23F0C20E0001986F8B
:101A48007C0E996F09EC23F020EEF3F000EE6FF0B6
:101A5800080EDBCFEBFFE806FCE20001A851E2EC40
:101A680020F020EEF3F000EE6FF0080EDBCFEBFF76
:101A7800E806FCE20001A751E2EC20F020EEF3F0CA
:101A880000EE6FF0080EDBCFEBFFE806FCE200018A
:101A9800AA51E2EC20F020EEF3F000EE6FF0080E11
:101AA800DBCFEBFFE806FCE20001A951E2EC20F0F5
:101AB80020EEF3F000EE6FF0080EDBCFEBFFE80648
:101AC800FCE20001AB51E2EC20F020EEF3F000EE76
:101AD8006FF0080EDBCFEBFFE806FCE20001AC512B
:101AE800E2EC20F020EEF3F000EE6FF0080EDBCF12
:101AF800EBFFE806FCE20001AE51E2EC20F020EE3C
:101B0800F3F000EE6FF0080EDBCFEBFFE806FCE227
:101B18000001AD51E2EC20F0000E0001CD6F1AD0AB
:101B280020EEF3F000EE6FF0080EDBCFEBFFE806D7
:101B3800FCE2CD51010D080EF326000EF422A70E8B
:101B4800F324D96E000EF420DA6EDF50E2EC20F0B8
:101B58000001CD2BAB51CD5DD8A0E2D7000ECE6FE2
:101B68001AD020EEF3F000EE6FF0080EDBCFEBFF9B
:101B7800E806FCE2CE51010D0E0EF326000EF4220B
:101B8800A70EF324D96E000EF420DA6EDF50E2ECD3
:101B980020F00001CE2BAC51CE5DD8A0E2D7000ECC
:101BA800CF6F1AD020EEF3F000EE6FF0080EDBCF07
:101BB800EBFFE806FCE2CF51010D120EF326000EF2
:101BC800F422A70EF324D96E000EF420DA6EDF504B
:101BD800E2EC20F00001CF2BAB51CF5DD8A0E2D7CB
:101BE800000ED06F1AD020EEF3F000EE6FF0080E62
:101BF800DBCFEBFFE806FCE2D051010D180EF3260F
:101C0800000EF422A70EF324D96E000EF420DA6E2B
:101C1800DF50E2EC20F00001D02BAC51D05DD8A011
:101C2800E2D720EEE1F000EE72F0080EDBCFEBFF1A
:101C3800E806FCE230EC26F01200000E0001866F88
:101C480073C066F074C067F075C068F076C069F05C
:101C5800100E6A6F270E6B6F000E6C6F000E6D6FA3
:101C6800A7EC1FF000016651856F85C060F0616BBD
:101C7800270E636F100E626F1CEC26F00001605196
:101C8800776F6151786F796B7A6B771F781F791F3F
:101C98007A1F772B000E782379237A2373517725BF
:101CA800666F74517821676F75517921686F765125
:101CB8007A21696FE80E6A6F030E6B6F000E6C6F06
:101CC800000E6D6FA7EC1FF000016651846F85C090
:101CD80060F0616B270E636F100E626F1CEC26F0CC
:101CE80060C077F061C078F084C060F00001616B7B
:101CF800030E636FE80E626F1CEC26F0000177514B
:101D08006025796F785161217A6F7B6BD8B07B2B16
:101D18007C6B791F7A1F7B1F7C1F792B000E7A231F
:101D28007B237C2373517925666F74517A21676F01
:101D380075517B21686F76517C21696F640E6A6FDB
:101D4800000E6B6F000E6C6F000E6D6FA7EC1FF02E
:101D580000016651836F85C060F0616B270E636F69
:101D6800100E626F1CEC26F060C077F061C078F04E
:101D780084C060F00001616B030E636FE80E626F50
:101D88001CEC26F0000177516025796F78516121AC
:101D98007A6F7B6BD8B07B2B7C6B8351640DF350CF
:101DA80079257D6FF4507A217E6F000E7B217F6F3D
:101DB800000E7C21806F7D1F7E1F7F1F801F7D2B63
:101DC800000E7E237F23802373517D25666F745117
:101DD8007E21676F75517F21686F76518021696F09
:101DE8000A0E6A6F000E6B6F000E6C6F000E6D6F3F
:101DF800A7EC1FF000016651816F73C060F074C0DA
:101E080061F075C062F076C063F00A0E646F000E70
:101E1800656F000E666F000E676F70EC22F00001B0
:101E28006051826F7651751106E1100E735D270EB1
:101E38007459D8A00CD08651010DA50EF324D96E83
:101E4800010EF420DA6E8551300FDF6E862B765145
:101E5800751106E1E80E735D030E7459D8A00CD015
:101E68008651010DA50EF324D96E010EF420DA6E09
:101E78008451300FDF6E862B76517511741104E191
:101E8800640E735DD8A00CD08651010DA50EF32405
:101E9800D96E010EF420DA6E8351300FDF6E862B77
:101EA80076517511741104E10A0E735DD8A00CD037
:101EB8008651010DA50EF324D96E010EF420DA6EB9
:101EC8008151300FDF6E862B8651010DA50EF3244C
:101ED800D96E010EF420DA6E8251300FDF6E862B38
:101EE8008651010DA50EF324D96E010EF420DA6E89
:101EF800000EDF6E862BA50E736F010E746F120035
:101F080077C0D9FF78C0DAFFDECF72F0DDCF73F08B
:101F1800000E3FEC1EF077C0D9FF78C0DAFFDECFA5
:101F280072F0DDCF73F0010E3FEC1EF00001916FEF
:101F380091390F0B0F0B926F91510F0B936F77C065
:101F4800D9FF78C0DAFFDECF72F0DDCF73F0010E73
:101F58003FEC1EF00001916F91511F0B946F91455A
:101F6800E846030B030B956F77C0D9FF78C0DAFFFB
:101F7800DECF72F0DDCF73F0010E3FEC1EF00001F2
:101F8800976F966B77C0D9FF78C0DAFFDECF72F013
:101F9800DDCF73F0010E3FEC1EF000018E6F8E5105
:101FA800961377C0D9FF78C0DAFFDECF72F0DDCFA5
:101FB80073F0010E3FEC1EF00001996F986B77C02B
:101FC800D9FF78C0DAFFDECF72F0DDCF73F0010EF3
:101FD8003FEC1EF000018E6F8E51981377C0D9FF29
:101FE80078C0DAFFDECF72F0DDCF73F0010E3FEC80
:101FF8001EF00001916F9145E846030B030B9A6FA1
:1020080091511F0B9C6F9B6B77C0D9FF78C0DAFF8B
:10201800DECF72F0DDCF73F0010E3FEC1EF0000151
:102028008E6F8E519B1377C0D9FF78C0DAFFDECF51
:1020380072F0DDCF73F0010E3FEC1EF000019D6FD2
:1020480077C0D9FF78C0DAFFDECF72F0DDCF73F04A
:10205800010E3FEC1EF000019E6F77C0D9FF78C0DB
:10206800DAFFDECF72F0DDCF73F0010E3FEC1EF029
:102078000001A06F9F6B77C0D9FF78C0DAFFDECF71
:1020880072F0DDCF73F0010E3FEC1EF000018E6F91
:102098008E519F13000E8F6F030E8F6501D01DD0D8
:1020A80077C0D9FF78C0DAFFDECF72F0DDCF73F0EA
:1020B800010E3FEC1EF000018E6F8F51010D0F0EC7
:1020C800F326000EF422920EF324D96E000EF420AB
:1020D800DA6E8EC0DFFF8F2BDFD7000E906F030EF6
:1020E800906501D01DD077C0D9FF78C0DAFFDECF68
:1020F80072F0DDCF73F0010E3FEC1EF000018E6F21
:102108009051010D130EF326000EF422920EF324C3
:10211800D96E000EF420DA6E8EC0DFFF902BDFD769
:1021280077C0D9FF78C0DAFFDECF72F0DDCF73F069
:10213800020E3FEC1EF020EE92F000EE77F0160E45
:10214800DBCFEBFFE806FCE21200000E00017B6F1C
:10215800000E7C6F030E7C6501D0DFD07C51010D31
:10216800770EF324D96E000EF420DA6E7C51010D3F
:10217800670EF324E16E000EF420E26EE7506B6FF9
:102188006B51606F616B000E636F640E626F34ECAD
:1021980023F000016051DF6E7C51010D730EF324B2
:1021A800D96E000EF420DA6E7C51010D770EF324FF
:1021B800E16E000EF420E26EE7506B6F6B51640D18
:1021C800F3CF6CF0F4CF6DF06C1F6D1F6C4B6D2B63
:1021D8007C51010D670EF324E16E000EF420E26ECF
:1021E800E7506E6F6E516C25606F000E6D21616F48
:1021F800000E636F0A0E626F34EC23F00001605129
:10220800DF6E7C51010D6F0EF324D96E000EF420A1
:10221800DA6E7C51010D670EF324E16E000EF42096
:10222800E26EE7506B6F6B51606F616B000E636F0E
:102238000A0E626F41EC24F000016051DF6E7C51A0
:10224800010D770EF324D96E000EF420DA6EDF50FC
:10225800D8B414D07B51010DC60EF324D96E010EEB
:10226800F420DA6E7C51010D770EF324E16E000E36
:10227800F420E26EE750300FDF6E7B2B7C51010DAE
:10228800730EF324D96E000EF420DA6EDF50D8A452
:102298000BD07C51010D770EF324D96E000EF4207B
:1022A800DA6EDF50D8B414D07B51010DC60EF3247A
:1022B800D96E010EF420DA6E7C51010D730EF324F1
:1022C800E16E000EF420E26EE750300FDF6E7B2BDC
:1022D8007B51010DC60EF324D96E010EF420DA6E7F
:1022E8007C51010D6F0EF324E16E000EF420E26EB6
:1022F800E750300FDF6E7B2B030E7C19D8B40BD060
:102308007B51010DC60EF324D96E010EF420DA6E4E
:102318002E0EDF6E7B2B7C2B1DD77B51010DC60E3D
:10232800F324D96E010EF420DA6E000EDF6EC60EAD
:10233800676F010E686F1200BFEC17F0010120EE05
:1023480012F08B51D9268C51DA22000178C0DEFFB9
:1023580079C0DDFF010120EE12F08B51D9268C5196
:10236800DA22DFA818D041EC27F00009D8B413D03E
:102378008BC178F18CC179F176EC00F0010120EE87
:102388000FF08B51D9268C51DA2278C1DEFF79C142
:10239800DEFF7AC1DEFF010120EE14F08B51D92651
:1023A8008C51DA22DF50D8B48AD020EE37F08B5126
:1023B800D9268C51DA2201EE34F0410EDBCFEBFF47
:1023C800E806FCE271EC13F0010120EE0FF08B51EE
:1023D800D9268C51DA2234C1DEFF35C1DEFF36C181
:1023E800DEFF20EE10F08B51D9268C51DA2220EE38
:1023F8000FF08B51D9268C51DA22030EDE18D8A49F
:102408003AD020EE10F08B51D9268C51DA22920E58
:10241800DE1831E1DE04D8A42ED08F0E0001986FAB
:102428007E0E996F09EC23F0010120EE4AF08B51E2
:10243800D9268C51DA22DECF67F0DECF68F0DECF06
:1024480069F0DECF6AF0A9EC10F067C098F068C0B8
:1024580099F009EC23F0C20E0001986F7C0E996F79
:1024680009EC23F0010120EE14F08B51D9268C5190
:10247800DA22000EDF6E20EE0FF08B51D9268C5138
:10248800DA22030EDE18D8A41AD020EE10F08B51F1
:10249800D9268C51DA22DE50DE10D8A410D0B40E22
:1024A8000001986F7E0E996F09EC23F0010120EE70
:1024B80014F08B51D9268C51DA22000EDF6E20EEF3
:1024C80012F08B51D9268C51DA22DFA612008BC16B
:1024D80080F08CC181F01DEC1FF08BC1D9FF8CC13D
:1024E800DAFFDE04D8A40DD0000E00016E6F000ED6
:1024F800D6EC1EF0020E00016E6F010ED6EC1EF037
:102508000CD0010E00016E6F000ED6EC1EF0010E0D
:1025180000016E6F010ED6EC1EF00B0E61EC27F079
:102528001200000120EE0EF0B551D926B651DA227C
:10253800DE5004E1080EDE18D8B407D0B5C072F03A
:10254800B6C073F0A5EC24F01200000120EE10F0E4
:10255800B551D926B651DA2210EEB9F0080EDBCF04
:10256800E3FFE806FCE220EE10F0B551D926B6519B
:10257800DA22DECFB7F0DDCFB8F0160EB725B96F87
:10258800000EB821BA6FB90E776F000E786F84EC21
:102598000FF020EEC2F0160EEBCFDBFFE806FCE2F0
:1025A800CE0E0001986F7F0E996F09EC23F0D1C011
:1025B80067F0D2C068F0D3C069F0D4C06AF0A9EC63
:1025C80010F067C098F068C099F009EC23F0C60EC7
:1025D8000001986F7F0E996F09EC23F0D5C067F062
:1025E800D6C068F0D7C069F0D8C06AF0A9EC10F07E
:1025F80067C098F068C099F009EC23F0F60E000166
:10260800986F7F0E996F09EC23F00001CE51FBEC17
:1026180023F060C098F061C099F009EC23F0F60E41
:102628000001986F7F0E996F09EC23F0C6C073F014
:10263800C7C074F00001756B766B21EC0EF073C0A7
:1026480098F074C099F009EC23F0F60E0001986F29
:102658007F0E996F09EC23F00001C251736F746B00
:10266800756B766B21EC0EF073C098F074C099F01E
:1026780009EC23F0400E0001986F7E0E996F09EC6B
:1026880023F00001C351736F746B756B766B21EC8B
:102698000EF073C098F074C099F009EC23F0FA0EAC
:1026A8000001986F7F0E996F09EC23F0C20E0001AC
:1026B8009A6F000E9B6FD2EC1BF00001D8B006D0C9
:1026C800430E986F7E0E996F09EC23F0B5C072F037
:1026D800B6C073F0A5EC24F01200030E0101886F58
:1026E800030E866FD00E7E6F070E7F6F000E806F11
:1026F800000E816F47C167F048C168F049C169F0B1
:102708004AC16AF0870E00016B6F010E6C6FEEEC28
:102718001CF00009D8B43FD0010187519DEC25F089
:1027280021EE5CF0050EEBCFDBFFE806FCE258EC8F
:1027380021F021EE56F0050EEBCFDBFFE806FCE2B8
:1027480021EE5CF000EE6FF0050EDBCFEBFFE80644
:10275800FCE221EE64F000EE75F0080EDBCFEBFF33
:10276800E806FCE2E9EC1FF021EE64F000EE72F0FE
:10277800080EDBCFEBFFE806FCE230EC26F0000E9B
:1027880001018A6F000E896F88C134F189C135F162
:102798008AC136F1120092C176F193C177F194C1E2
:1027A80078F195C179F10101761F771F781F791F9C
:1027B800762B000E7723782379232FEC27F001015D
:1027C80076510001602501017A6F7751000161217E
:1027D80001017B6F78510001622101017C6F795101
:1027E8000001632101017D6F7E517A5D7F517B5924
:1027F80080517C5981517D59D8A03BD02FEC27F0CE
:1028080060C092F161C093F162C094F163C095F128
:10281800010186519A5DD8B01ED09A2B38EC27F06A
:1028280060C082F161C083F162C084F163C085F148
:1028380082C100F183C101F184C102F185C103F1B4
:1028480047C104F148C105F149C106F14AC107F180
:1028580095EC1CF00ED0000E01019A6F010E8A6FE4
:10286800920E896F88C134F189C135F18AC136F178
:102878001200010E01018A6F910E896F88C134F12F
:1028880089C135F18AC136F11200000120EE0EF03F
:10289800FC51D926FD51DA22060EDE1804E1080E95
:1028A800DE18D8B407D0FCC072F0FDC073F0A5ECF8
:1028B80024F01200FCC077F0FDC078F0A8EC07F017
:1028C80021EE58F01F0EEBCFDBFFE806FCE201011A
:1028D80076517711D8B40ED0FCC072F0FDC073F0F9
:1028E800A5EC24F0C50E0001986F7C0E996F09ECD9
:1028F80023F01200CE0E0001986F7F0E996F09EC3D
:1029080023F021EE60F000EE7AF0050EDBCFEBFF4E
:10291800E806FCE268EC19F07AC098F07BC099F000
:1029280009EC23F0400E0001986F7E0E996F09ECB8
:1029380023F066C167F067C168F068C169F069C1D2
:102948006AF0A9EC10F067C098F068C099F009EC3B
:1029580023F0CB0E0001986F7F0E996F09EC23F0DE
:1029680021EE6AF000EE7AF0050EDBCFEBFFE80609
:10297800FCE268EC19F07AC098F07BC099F009EC99
:1029880023F0400E0001986F7E0E996F09EC23F03A
:1029980070C167F071C168F072C169F073C16AF003
:1029A800A9EC10F067C098F068C099F009EC23F022
:1029B800FA0E0001986F7F0E996F09EC23F0010160
:1029C80074A307D07C0E0001986F7F0E996F09ECF5
:1029D80023F0010174A107D0080E0001986F7F0E43
:1029E800996F09EC23F021EE58F001EE00F01F0E6C
:1029F800DBCFEBFFE806FCE2D7EC15F021EE60F048
:102A080000EE64F0050EDBCFEBFFE806FCE266C1E2
:102A18006AF067C16BF068C16CF069C16DF02FECAA
:102A280027F060C06EF061C06FF062C070F063C0E4
:102A380071F0E7EC1AF0120000016039F00B611137
:102A480077C0D9FF78C0DAFFDF6E20EE01F077514A
:102A5800D9267851DA2263C079F0030E79176245D6
:102A6800E846FC0B7911DF6E20EE02F07751D9268B
:102A78007851DA226551DF6E20EE03F07751D926BE
:102A88007851DA2264C0DFFF20EE04F07751D926AE
:102A98007851DA226751DF6E20EE05F07751D9269A
:102AA8007851DA2266C0DFFF20EE06F07751D9268A
:102AB8007851DA2210EE69F0E6CF79F0E5CF7AF0B6
:102AC8007AC079F07A6B1F0E79176839E846E00BFF
:102AD8007911DF6E20EE07F07751D9267851DA2286
:102AE80069C0DFFF20EE08F07751D9267851DA2245
:102AF8006BC0DFFF20EE09F07751D9267851DA2232
:102B08006CC0DFFF20EE0AF07751D9267851DA221F
:102B18006E51DF6E20EE0BF07751D9267851DA220C
:102B28006DC0DFFF20EE0CF07751D9267851DA22FC
:102B38006FC0DFFF20EE0DF07751D9267851DA22E9
:102B480070C0DFFF20EE0EF07751D9267851DA22D7
:102B580071C0DFFF20EE0FF07751D9267851DA22C5
:102B680072C0DFFF20EE10F07751D9267851DA22B3
:102B780073C0DFFF20EE11F07751D9267851DA22A1
:102B880074C0DFFF20EE12F07751D9267851DA228F
:102B980075C0DFFF20EE13F07751D9267851DA227D
:102BA80076C0DFFF1200010106050711D8A4120044
:102BB80038EC27F060C034F161C035F162C036F1FD
:102BC80063C037F1180E0001606F010E616F340E9B
:102BD800626F010E636F84EC24F00001D8A012002C
:102BE80058EC21F021EE20F0050EEBCFDBFFE806D4
:102BF800FCE221EE08F011EE26F0050EDBCFE3FF34
:102C0800E806FCE238EC27F060C02CF161C02DF139
:102C180062C02EF163C02FF10EC130F10FC131F146
:102C280010C132F111C133F1060E01013C6F040EDF
:102C38003D6F000E396F010E386F080E3B6F000EA6
:102C48003A6F000E3F6F020E3E6F2CC146F12DC148
:102C580047F12EC148F12FC149F121EE20F011EEC4
:102C680040F0050EDBCFE3FFE806FCE230C150F18F
:102C780031C151F132C152F133C153F121EE26F085
:102C880011EE4AF0050EDBCFE3FFE806FCE221EE89
:102C980038F000EEA7F01F0EDBCFEBFFE806FCE2F2
:102CA800B9EC0CF0E80E0001986F7E0E996F09ECF4
:102CB80023F021EE4AF000EE7AF0050EDBCFEBFFB1
:102CC800E806FCE268EC19F07AC098F07BC099F04D
:102CD80009EC23F0400E0001986F7E0E996F09EC05
:102CE80023F050C167F051C168F052C169F053C177
:102CF8006AF0A9EC10F067C098F068C099F009EC88
:102D080023F0FA0E0001986F7F0E996F09EC23F0FB
:102D18001200000120EE04F0A751D926A851DA22AA
:102D2800DECFA9F0DDCFAAF0080EA927000EAA234E
:102D380020EE20F0A751D926A851DA22A9C0DEFF3B
:102D4800AAC0DDFF20EE2EF0A751D926A851DA221D
:102D5800000EDE6E080EDD6E200EA725A26F000E97
:102D6800A821A36F5EEC1BF0000120EE36F0A751FE
:102D7800D926A851DA2210EE1DF0A751E126A85154
:102D8800E222DFCFE7FF20EE37F0A751D926A8517E
:102D9800DA2210EE1EF0A751E126A851E222DFCF79
:102DA800E7FF20EE38F0A751D926A851DA2210EE15
:102DB8001FF0A751E126A851E222DFCFE7FF20EE5E
:102DC80030F0A751D926A851DA22DECFA9F0DDCFFD
:102DD800AAF0080EA927000EAA2320EE17F0A75183
:102DE800D926A851DA22A9C0DEFFAAC0DDFF20EE4D
:102DF80032F0A751D926A851DA2210EE19F0A751BE
:102E0800E126A851E222DECFE6FFDDCFE5FFF80E8E
:102E1800A96FFF0EAA6F20EE34F0A751D926A8514A
:102E2800DA22DECFABF0DDCFACF0A951AB27AA5147
:102E3800AC2320EE1BF0A751D926A851DA22ABC04B
:102E4800DEFFACC0DDFF1200AA0E0001986F7F0EF6
:102E5800996F09EC23F028D0D70E0001986F7E0EE9
:102E6800996F09EC23F050D0590E0001986F7D0E30
:102E7800996F09EC23F048D07C0E0001986F7E0E04
:102E8800996F09EC23F040D0260E0001986F7F0E51
:102E9800996F09EC23F038D0170E0001986F7F0E58
:102EA800996F09EC23F030D000019A51000AD8B488
:102EB800D3D7010AD8B4D8D7030AD8B4DDD7010AC2
:102EC800D8B4E2D7070AD8B4E7D71ED0120E986F45
:102ED8007D0E996F09EC23F030D02A0E0001986F0F
:102EE8007C0E996F09EC23F028D0370E0001986FFB
:102EF8007D0E996F09EC23F0770E0001986F7D0E17
:102F0800996F09EC23F019D020EE9BF0DECF9DF0ED
:102F1800DDCF9EF000019E51010AD8A4EDD79D5146
:102F28002D0AD8B4DAD7030AD8B4D0D7A10AD8B4AE
:102F3800E3D71D0AD8B4D9D7DFD7900E0001986F10
:102F48007F0E996F09EC23F09BC073F09CC074F05E
:102F58000001756B766B21EC0EF073C098F074C0AD
:102F680099F009EC23F0DA0E0001986F7F0E996F43
:102F780009EC23F01200D5EC23F06EC07DF06FC091
:102F88007EF000017EAD03D07A6B7A2B02D000016F
:102F98007A6B7B517A19FE0B7A197B6F7EAB03D063
:102FA8007A6B7A2B02D000017A6B7A477B517A19B7
:102FB800FD0B7A197B6F7EA903D07A6B7A2B02D02E
:102FC80000017A6B7A477A477B517A19FB0B7A1999
:102FD8007B6F7EA703D07A6B7A2B02D000017A6BC5
:102FE8007A477A477A477B517A19F70B7A197B6FB8
:102FF8007DAD03D07A6B7A2B02D000017A6B7A3BD5
:103008007B517A19EF0B7A197B6F7DAB03D07A6B02
:103018007A2B02D000017A6B7A3B7A477B517A1976
:10302800DF0B7A197B6F7DA703D07A6B7A2B02D0DE
:1030380000017A6B7A3B7A477A477B517A19BF0B42
:103048007A197B6F7DA503D07A6B7A2B02D00001A9
:103058007A6B7A337A337B517A197F0B7A197B6FC3
:103068007DA303D07A6B7A2B02D000017A6B7C5156
:103078007A19FE0B7A197C6F7DA103D07A6B7A2BB3
:1030880002D000017A6B7A477C517A19FD0B7A19C4
:103098007C6F7BC078F07CC079F012000001766FFD
:1030A800000176511F0B776F010E786F000E796F54
:1030B800000E7A6F000E7B6F000E7C6F770E6A6FC2
:1030C800000E6B6F540E37EC25F0780E00016A6F16
:1030D800000E6B6F550E37EC25F07F0E00016A6FFE
:1030E800000E6B6F520E52EC25F000017F817F0EAF
:1030F8006A6F000E6B6F520E37EC25F0450EE82E06
:10310800FED700F07F0E00016A6F000E6B6F6A0E2B
:1031180052EC25F0010E00017927000E7A237B235B
:103128007C237FA108D07C517B1105E179290F0E02
:103138007A59D8A0E7D77C517B1140E179290F0E45
:103148007A59D8B012007F0E6A6F000E6B6F520E5C
:1031580052EC25F000017F917F0E6A6F000E6B6FB5
:10316800520E37EC25F07D0E00016A6F000E6B6F72
:10317800680E52EC25F07E0E00016A6F000E6B6F30
:10318800690E52EC25F0000E0001706FFF0E716F92
:103198007E51736F726B70517217715173177D5135
:1031A800746F756B72517413735175136EC0D9FFB8
:1031B8006FC0DAFF74C0DEFF75C0DDFF1200000EBD
:1031C8000001726F4DC073F04EC074F042C075F0CC
:1031D80043C076F0010E776F000E796F000E786F9E
:1031E800050E72615FD0730E6A6F000E6B6F160E5C
:1031F80037EC25F0740E00016A6F000E6B6F170E26
:1032080037EC25F0750E00016A6F000E6B6F160E15
:1032180052EC25F0760E00016A6F000E6B6F170EE8
:1032280052EC25F0000173517519D8A438D07451A7
:103238007619D8A434D0CA0E1AEC27F0420EE82E1C
:10324800FED700D0750E00016A6F000E6B6F160E68
:1032580052EC25F0760E00016A6F000E6B6F170EA8
:1032680052EC25F000017551D8A40DD07651D8A4A0
:103278000AD0030E0001716FA70EE82EFED7712F3A
:10328800FCD700D005D0010E0001796F2E0E786FA3
:1032980077C06EF078C06FF079C070F0120000014E
:1032A800722B0BD0010E796F2E0E786F77C06EF0EF
:1032B80078C06FF079C070F0120077C06EF078C0F7
:1032C8006FF079C070F0120022EED0F010EE81F0AD
:1032D800110EDBCFE3FFE806FCE2000E0001976F5A
:1032E800000E966F000E956F96BF06D096516BE153
:1032F800060E955DD8B067D07A0E9525D96E000E6A
:103308009621DA6EDF50806F80390F0B0F0B936FA9
:103318007A0E9525D96E000E9621DA6EDF500F0BC6
:10332800946F300E9327300E9427390E93650CD086
:103338009751010D810EF324D96E000EF420DA6E38
:103348009351070FDF6E0AD09751010D810EF324B8
:10335800D96E000EF420DA6E93C0DFFF972B390E7A
:1033680094650CD09751010D810EF324D96E000E8F
:10337800F420DA6E9451070FDF6E0AD09751010DD1
:10338800810EF324D96E000EF420DA6E94C0DFFFAC
:10339800972B96BF06D096510FE1050E955DD8B0D4
:1033A8000BD09751010D810EF324D96E000EF42035
:1033B800DA6E3A0EDF6E972B954B962B96BF9CD7FD
:1033C800965101E195D7810E7A6F000E7B6F12003E
:1033D80000017B51721904E17C517319D8B429D0CA
:1033E8007D51741904E17E517519D8B422D07251F7
:1033F8007D1904E173517E19D8B41BD07B5174191F
:1034080004E17C517519D8B414D07405300E75597F
:10341800D8B00FD07205300E7359D8B00AD07D05D8
:10342800300E7E59D8B005D07B05300E7C59D8A017
:1034380002D0010E12007451725D75517359D8B0E3
:1034480036D07D517B5D7E517C59D8B025D07B51DB
:10345800725D7C517359D8B00AD074517B5D755137
:103468007C59D8B002D0010E1200000E120020EED6
:103478007BF000EE60F0080EDBCFEBFFE806FCE225
:1034880020EE72F000EE69F0080EDBCFEBFFE806E5
:10349800FCE247EC1DF01200000172517D5D735192
:1034A8007E59D8B002D0000E1200010E120020EE94
:1034B8007BF000EE60F0080EDBCFEBFFE806FCE2E5
:1034C80020EE72F000EE69F0080EDBCFEBFFE806A5
:1034D800FCE247EC1DF01200000E0001696F645118
:1034E800631103E16205D8A02FD06951010D9B0E2D
:1034F800F324D96E010EF420DA6E61C065F062C063
:1035080066F063C067F064C068F00D0E05D0D8900F
:103518006833673366336533E82EF9D765510F0B87
:10352800B3EC26F0DF6E0001692B6951010D9B0E8B
:10353800F324D96E010EF420DA6E62510F0BB3EC4E
:1035480026F0DF6E0001692B6951010D9B0EF324F3
:10355800D96E010EF420DA6E61C065F062C066F0C3
:1035680063C067F064C068F0050E05D0D890683372
:10357800673366336533E82EF9D765510F0BB3EC23
:1035880026F0DF6E0001692B6951010D9B0EF324B3
:10359800D96E010EF420DA6E61510F0BB3EC26F0F0
:1035A800DF6E0001692B6951010D9B0EF324D96E62
:1035B800010EF420DA6E000EDF6E692B9B0E616F30
:1035C800010E626F1200000E0001766F000E776F19
:1035D800000E786F000E796F000E7A6F000E7B6F09
:1035E800070E7B6501D02ED07B510E0D0A0EF326F7
:1035F800000EF422000EF324D96E030EF420DA6EC6
:10360800DE50765DDE507759DE507859DE507959B4
:10361800D8B016D07B510E0D0A0EF326000EF422F8
:10362800000EF324D96E030EF420DA6EDECF76F0A6
:10363800DECF77F0DECF78F0DECF79F07BC07AF09E
:103648007B2BCED77A510E0D000EF324D96E030EC4
:10365800F420DA6E6AC0DEFF6BC0DEFF6CC0DEFFEE
:103668006DC0DEFF20EE64F07A510E0D040EF326D5
:10367800000EF422000EF324E16E030EF420E26E35
:10368800050EDBCFE3FFE806FCE27A510E0D0A0EC9
:10369800F326000EF422000EF324D96E030EF42054
:1036A800DA6E6EC0DEFF6FC0DEFF70C0DEFF71C075
:1036B800DEFF1200020E0001A46F000EA66F000EBE
:1036C800A56FA2C0D9FFA3C0DAFFDECF84F0DDCF9B
:1036D80085F007EC03F0000120EE10F0A251D92686
:1036E800A351DA22080EEBCFDBFFE806FCE220EE5E
:1036F80017F0A251D926A351DA22DF50D8B407D047
:10370800000EA46F000EA66F650EA56F120020EEC6
:1037180016F0A251D926A351DA22DF50D8A407D037
:10372800000EA46F000EA66FC70EA56F120020EE44
:1037380008F0A251D926A351DA2200EE6FF0050E47
:10374800DBCFEBFFE806FCE220EE10F0A251D92611
:10375800A351DA2200EE75F0080EDBCFEBFFE80686
:10376800FCE2E9EC1FF0000120EE0EF0A251D92690
:10377800A351DA22DECF6FF0DDCF70F020EE10F02B
:10378800A251D926A351DA2200EE71F0080EDBCF40
:10379800EBFFE806FCE287EC23F012009AC0D9FFA1
:1037A8009BC0DAFF10EE9EF0160EDBCFE3FFE806B3
:1037B800FCE2000E0001AC6F000EAB6F9E0E606F56
:1037C800000E616F33EC0BF0000120EE0DF09A5102
:1037D800D9269B51DA22DE50AB1906E1DE50AC192E
:1037E800D8A402D0D8801200710E986F7F0E996FFE
:1037F80009EC23F0ABC061F0ACC062F00001636B70
:10380800646B70EC1AF061C098F062C099F009EC32
:1038180023F0B20E0001986F7F0E996F09EC23F028
:10382800000120EE0DF09A51D9269B51DA22DECF05
:103838009CF0DDCF9DF09CC061F09DC062F0636B91
:10384800646B70EC1AF061C098F062C099F009ECF2
:1038580023F0FA0E0001986F7F0E996F09EC23F0A0
:10386800D890120049C011F0010E126E112A02D030
:10387800D8901236112EFCD71250FF0A8216000E6D
:10388800806E020E496007D0010E4924136E146A37
:10389800000E142204D0000E146E000E136E13C016
:1038A80049F0E80E0F5C030E1058D8B01200000E55
:1038B800156E020E156401D013D01550010D3D0E82
:1038C800F324D96E000EF420DA6E0FC008F010C091
:1038D80009F015C00AF029EC20F0DF6E152AE9D7A7
:1038E80049C011F0010E126E112A02D0D89012367A
:1038F800112EFCD7125082124950010D3D0EF324AF
:10390800D96E000EF420DA6EDF50116E1150010DE1
:10391800B60EF324D96E010EF420DA6EDF50806EF5
:10392800120058EC21F021EE08F0050EEBCFDBFF7A
:10393800E806FCE238EC27F060C000F161C001F154
:1039480062C002F163C003F10E0E0001606F010E48
:10395800616F6BEC26F0060E0101186F040E196FEB
:10396800000E156F010E146F080E176F000E166FFC
:10397800000E1B6F010E1A6F00C122F101C123F165
:1039880002C124F103C125F121EE08F011EE1CF06B
:10399800050EDBCFE3FFE806FCE204C12CF105C10C
:1039A8002DF106C12EF107C12FF121EE0EF011EE17
:1039B80026F0050EDBCFE3FFE806FCE221EE14F06B
:1039C80000EEA7F01F0EDBCFEBFFE806FCE2B9EC38
:1039D8000CF01200000E0001756F070E756501D01E
:1039E80050D075510E0D000EF324606F030EF420B5
:1039F800616F670E626F000E636F84EC24F0000144
:103A0800D8A03DD075510E0D0A0EF326000EF422F3
:103A1800000EF324D96E030EF420DA6EDECF6DF0BB
:103A2800DECF6EF0DECF6FF0DECF70F06D1F6E1F51
:103A38006F1F701F6D2B000E6E236F2370232FECEA
:103A480027F000016D516025716F6E516121726F11
:103A58006F516221736F70516321746F74517311C8
:103A68000EE1300E715D750E7259D8B008D06BC07A
:103A7800D9FF6CC0DAFF75C0DFFF010E1200752B8D
:103A8800ACD7000E120000016951601904E16A51B7
:103A98006119D8B429D06B51621904E16C516319CA
:103AA800D8B422D060516B1904E161516C19D8B4B3
:103AB8001BD06951621904E16A516319D8B414D052
:103AC8006205300E6359D8B00FD06005300E6159C9
:103AD800D8B00AD06B05300E6C59D8B005D069053E
:103AE800300E6A59D8A002D0010E12006251605DF2
:103AF80063516159D8B012006B51695D6C516A59B4
:103B0800D8B010D06951605D6A516159D8B01200BF
:103B18006251695D63516A59D8B002D0010E120032
:103B2800000E120060516B5D61516C59D8B002D023
:103B3800000E1200010E12000201485100019A19EC
:103B4800D8B441D09A51D8A407D0340E986F7F0EBC
:103B5800996F09EC23F00AD000019A05D8A406D081
:103B6800690E986F7E0E996F09EC23F000019A0593
:103B7800D8A429D09B51D8A407D0560E986F7E0E92
:103B8800996F09EC23F00AD000019B05D8A406D050
:103B98002F0E986F7E0E996F09EC23F000019C514F
:103BA800D8A407D0950E986F7D0E996F09EC23F075
:103BB8000AD000019C05D8A406D0B20E986F7D0EDD
:103BC800996F09EC23F020EE9AF012EE48F00E0EF1
:103BD800DBCFE3FFE806FCE21200FF0E036E0F0ED8
:103BE800046E000E056E000E066E81BA11D00350E9
:103BF800315C045032580550335806503458D8B008
:103C08000FD0010E3126000E32223322342208D082
:103C1800000E316E000E326E000E336E000E346EE2
:103C28000350315C0450325805503358065034580C
:103C3800D8A002D0010E01D0000E4A6E4A50D8B466
:103C480011D04B50D8A40ED003C031F004C032F0CC
:103C580005C033F006C034F001C0D9FF02C0DAFF56
:103C6800010E05D001C0D9FF02C0DAFF000EDF6ED9
:103C78004AC04BF012000001746F3CD072C06AF069
:103C880073C06BF0E1EC24F02C0E0001756F819885
:103C9800750E606F000E616FD7EC22F0000E1200F7
:103CA800760E0001606F000E616F3BEC22F00001A0
:103CB8007651120081885AEC27F0300E0001631902
:103CC8006211D8A407D0550E6F6FFE0E6E6FDEEC32
:103CD80025F00BD05AEC27F0FE0E000162256E6F1E
:103CE800FF0E63216F6FDEEC25F0CC0E1AEC27F087
:103CF800000E120000017451000AD8B4BFD7010A9F
:103D0800D8B4CED7030AD8B4D5D7000E12004C0EBB
:103D1800F66E4E0EF76E000EF86E02EED0F010EE54
:103D280012F00900F5CFEEFFE550E150FAE1880EF8
:103D3800F66E4D0EF76E000EF86E01EEB6F010EE50
:103D480020F00900F5CFEEFFE550E150FAE1000E52
:103D5800F66E4F0EF76E000EF86E0900F5CF4DF0B7
:103D68000900F5CF4EF003EE00F0A20EEE6AE80669
:103D7800FDE102EE00F0D00EEE6AE806FDE101EE8C
:103D880092F0240EEE6AE806FDE100EE29F0240E1A
:103D9800EE6AE806FDE14F904F92000EF86E0001C2
:103DA80072EF05F000016F6F700E00016A6F000E70
:103DB8006B6F750E52EC25F000016F05D8B40BD06F
:103DC80015D0F00E701770812CD0F00E18D0F00EB0
:103DD8007017060E19D06E51000AD8B4F6D7010A2A
:103DE800D8B4EFD7030AD8B4F2D7EBD76F51D8B409
:103DF8000DD017D00F0E7017708913D00F0E7017D3
:103E080010D00F0E7017600E70130BD06E51000A91
:103E1800D8B4F4D7010AD8B4EDD7030AD8B4F1D787
:103E2800E9D7700E6A6F000E6B6F750E37EC25F0D0
:103E38001200820E00016A6F000E6B6F1B0E52ECAF
:103E480025F0000182A106D080C0D9FF81C0DAFF29
:103E5800010E05D080C0D9FF81C0DAFF000EDF6EE9
:103E6800830E6E6F000E6F6F1F0E52EC18F000017C
:103E780083A708D020EE01F08051D9268151DA229B
:103E8800010E07D020EE01F08051D9268151DA22A7
:103E9800000EDF6E83A909D020EE02F08051D926EA
:103EA8008151DA22010EDF6E120020EE02F08051FD
:103EB800D9268151DA22000EDF6E12000001706FE0
:103EC800080E000170611ED0710E6A6F000E6B6FD4
:103ED8001C0E52EC25F070C06EF0010E00016F6FE1
:103EE8006E2B02D0D8906F376E2FFCD700016F5120
:103EF800FF0A7117710E6A6F000E6B6F1C0E37EC9C
:103F080025F01200080E0001705F710E6A6F000E36
:103F18006B6F1D0E52EC25F070C06EF0010E0001A3
:103F28006F6F6E2B02D0D8906F376E2FFCD70001C1
:103F38006F51FF0A7117710E6A6F000E6B6F1D0EBD
:103F480037EC25F01200000E00016E6F000E6F6F47
:103F5800000E706F000E716F6A516B116C116D114C
:103F6800D8B42AD0010E726F06D0D8906A376B3752
:103F78006C376D37722B6DAFF8D7D8906E376F37B7
:103F8800703771376A51665D6B5167596C51685962
:103F98006D516959D8A009D06A51665F6B51675B4A
:103FA8006C51685B6D51695B6E81D8906D336C3371
:103FB8006B336A33722FE1D76EC066F06FC067F05B
:103FC80070C068F071C069F0120075C06AF076C000
:103FD8006BF0C3EC24F0000E0001866F050E8665B9
:103FE80001D014D08651010D6F0EF324D96E000E46
:103FF800F420DA6E8651010D7E0EF324E16E000E78
:10400800F420E26EDFCFE7FF862BE8D72A0E846F15
:104018008198840E606F000E616FD7EC22F0000E5D
:104028000001856F050E856501D00DD08551010D04
:104038007E0EF324606F000EF420616FD7EC22F03F
:104048000001852BEFD78188120008C001F009C054
:1040580002F0000E046E640E036E5EEC23F0015055
:104068000E6E0E50640DF31EF41EF34AF42A085027
:10407800F324016E0950F420026E000E046E0A0E3D
:10408800036E5EEC23F001500D6E0D500A0DF3CF58
:104098000BF00E50640DF3500B24000808240C6E2E
:1040A80008D00C5012000D5012000E501200000ED5
:1040B80012000A50000AD8B4F8D7010AD8B4F3D7C6
:1040C800030AD8B4EED7F3D7030E00017A6F010EB6
:1040D8007B6F040E7D6F2DD076C067F077C068F0D7
:1040E80078C069F079C06AF07C0E00016B6F000E31
:1040F8006C6FEEEC1CF00009D8B40FD04650D8A471
:1041080006D0010E00017F6FF50E7E6F1200010EC2
:1041180000017F6FF60E7E6F1200010E476E1200CF
:1041280076C02DF077C02EF078C02FF079C030F02F
:1041380012004750000AD8B4CFD7010AD8A41200F9
:10414800EFD76FEC27F060C075F061C076F075C0EE
:104158006AF076C06BF0E1EC24F02C0E0001776F6A
:104168008198770E606F000E616FD7EC22F0780EA1
:104178000001606F000E616F3BEC22F0790E0001C8
:10418800606F000E616F3BEC22F08188000E000129
:104198006F6FFF0E706F7951726F716B6F5171177E
:1041A800705172177851736F746B71517311606F1E
:1041B80072517411616F74EC27F0120000017C6F6A
:1041C80040504110D8A410D06FC06AF070C06BF096
:1041D800C3EC24F02A0E00017D6F81987D0E606F7C
:1041E800000E616FD7EC22F07C0E0001606F000EAC
:1041F800616FD7EC22F0FF0E0001786FFF0E796F28
:1042080020EE73F0DECF7AF0DDCF7BF078517A279D
:1042180079517B2340507A190AE141507B19D8A47F
:1042280006D08188000E416E000E406E1200404A92
:10423800412A1200020E000171256A6F000E7221D8
:104248006B6FE1EC24F02C0E0001766F8198760EEE
:10425800606F000E616FD7EC22F0000E0001776FDF
:10426800050E776501D00DD07751010DAF0EF324FF
:10427800606F010EF420616F3BEC22F00001772B98
:10428800EFD78188AF0E606F010E616FA5EC09F062
:10429800E9CFD9FFEACFDAFF00EE71F0040EDBCFE9
:1042A800EBFFE806FCE21200740E00016A6F000ED4
:1042B8006B6F640E52EC25F0750E00016A6F000EEC
:1042C8006B6F650E52EC25F0760E00016A6F000EDA
:1042D8006B6F620E52EC25F0770E00016A6F000ECC
:1042E8006B6F630E52EC25F0780E00016A6F000EBA
:1042F8006B6F600E52EC25F0790E00016A6F000EAC
:104308006B6F610E52EC25F020EE74F000EE6EF04B
:10431800050EDBCFEBFFE806FCE21200F2EC26F01C
:10432800E3EC18F06EC07DF06FC07EF070C07FF0D7
:10433800AEEC23F06EC07DF06FC07EF070C07FF0F1
:10434800300E00016F6F000E6E6FF3EC25F0300E2B
:104358000001616F000E606F74EC27F05F0E0001C2
:104368006F6FFE0E6E6FDEEC25F079EC27F044ECF3
:1043780026F0010E00017D6F000E7F6F000E7E6F2C
:104388007DC07AF07EC07BF07FC07CF01200000E0A
:1043980000017D6F000E7C6F140E6F256A6F000E92
:1043A80070216B6FE1EC24F02C0E00017E6F819878
:1043B8007E0E606F000E616FD7EC22F0800E000158
:1043C800606F000E616F3BEC22F07F0E0001606FA2
:1043D800000E616F3BEC22F000018051796F786B21
:1043E8007F517A6F7B6B78517A117C6F79517B1191
:1043F8007D6F81887CC06FF07DC070F012000E0E5A
:1044080000016F256A6F000E70216B6FE1EC24F0DC
:104418002C0E0001786F8198780E606F000E616F26
:10442800D7EC22F0000E0001806F050E806501D0E8
:1044380013D07F0E606F000E616F3BEC22F000011D
:104448008051010D790EF324D96E000EF420DA6E36
:104458007FC0DFFF802BE9D7818820EE79F000EE5E
:104468006FF0050EDBCFEBFFE806FCE21200000E52
:104478000001666F000E676F000E686F000E696FAF
:10448800000EC96EC7B015D066C062F067C063F091
:1044980068C064F069C065F0662B000E6723682366
:1044A80069236551641105E162290F0E6359D8A08B
:1044B800E9D76951681105E166290F0E6759D8A037
:1044C80004D08188F2EC26F0120060C0D9FF61C0E8
:1044D800DAFFC9CFDFFF12000001645165116611D0
:1044E8006711D8B424D0010E686F06D0D89064370D
:1044F800653766376737682B67AFF8D76451605DF3
:10450800655161596651625967516359D8A008D0FD
:104518006451605F6551615B6651625B6751635BC3
:10452800D8906733663365336433682FE7D760C044
:1045380060F061C061F062C062F063C063F01200B5
:104548007C0E0001606F000E616F6BEC26F0820E2E
:104558000001606F000E616FE3EC26F0000E0001B1
:10456800866F070E866501D0120020EE7CF000EE03
:1045780064F0050EDBCFEBFFE806FCE282C06AF0D0
:1045880083C06BF084C06CF085C06DF0FF0E6E6F59
:10459800FF0E6F6FFF0E706FFF0E716FE7EC1AF072
:1045A8000001862BDED7000E0001666F000E676FD4
:1045B800000E686F000E696F60C0D9FF61C0DAFF36
:1045C800DF50C96EC7B015D066C062F067C063F02F
:1045D80068C064F069C065F0662B000E6723682325
:1045E80069236551641105E162290F0E6359D8A04A
:1045F800E9D76951681105E166290F0E6759D8A0F6
:1046080012008188F2EC26F0120016D098C0F6FF4E
:1046180099C0F7FFF86A070EF76403D00800F55051
:1046280005D0F6CFE9FFF7CFEAFFEF50AD6E0001F6
:10463800984B992BACA2FED798C0F6FF99C0F7FF0C
:10464800F86A070EF76403D00800F55005D0F6CFD6
:10465800E9FFF7CFEAFFEF500009D8B41200D6D728
:10466800000E0001666F000E656F62516311D8B4C9
:104678001CD0010E646F04D0D89062376337642B66
:1046880063AFFAD7D890653766376251605D63517A
:104698006159D8A005D06251605F6351615B658143
:1046A800D89063336233642FEDD765C060F066C07D
:1046B80061F01200000E066E000E056E0350041025
:1046C800D8B41CD0010E076E04D0D8900336043637
:1046D800072A04AEFAD7D890053606360350015C8F
:1046E80004500258D8A005D00350015E0450025A65
:1046F8000580D89004320332072EEDD705C001F0AB
:1047080006C002F01200060E000171256A6F000E45
:1047180072216B6FC3EC24F06FC07AF00001705106
:104728007B6F2A0E7C6F81987C0E606F000E616F24
:10473800D7EC22F07B0E0001606F000E616FD7ECA2
:1047480022F07A0E0001606F000E616FD7EC22F044
:1047580081881200010E0001726F000E746F000E46
:10476800736F000E716F710E6A6F000E6B6F740EAF
:1047780052EC25F000017139E842070B070BE806F7
:10478800D8A404D0000E746F000E03D0010E746F0D
:104798002D0E736F72C06EF073C06FF074C070F03E
:1047A8001200770E00016A6F000E6B6F1D0E52EC3F
:1047B80025F0760E00016A6F000E6B6F1C0E52EC2E
:1047C80025F0000E0001706FFF0E716F7751736F47
:1047D800726B70517217715173177651746F756BD4
:1047E800725174116E6F735175116F6F1200000161
:1047F800626F15D0D50E0001606F7F0E616F1200D9
:10480800E40E606F7F0E616F1200E80E606F7F0E1E
:10481800616F1200C60E606F7E0E616F120000019C
:104828006251010AD8B4E6D7070AD8B4E9D7170AFB
:10483800D8B4EBD7EFD710D0D00E0001606F7F0E41
:10484800616F1200EC0E606F7F0E616F1200A20E96
:10485800606F7E0E616F120060C062F061C063F02D
:1048680000016351080AD8A4F2D76251000AD8B4EB
:10487800E3D7060AD8B4E6D7EAD700016251631134
:10488800D8B418D0010E646F04D0D890623763375B
:10489800642B63AFFAD76251605D63516159D8A048
:1048A80004D06251605F6351615BD89063336233B7
:1048B800642FF1D760C060F061C061F01200000E93
:1048C8000001666F050E666501D018D06651010DAE
:1048D800F3506225D96EF4506321DA6E6651010DEA
:1048E800F3506025E16EF4506121E26EDE50E61867
:1048F800D8B402D0D8901200662BE4D7D880120022
:10490800000E0001666F030E666501D018D066516F
:10491800010DF3506225D96EF4506321DA6E6651A9
:10492800010DF3506025E16EF4506121E26EDE5016
:10493800E618D8B402D0D8901200662BE4D7D880F5
:1049480012005AEC27F0300E000163196211D8A446
:1049580007D05F0E6F6FFE0E6E6FDEEC25F00BD08A
:104968005AEC27F0FE0E000162256E6FFF0E6321E0
:104978006F6FDEEC25F0CC0E1AEC27F012006C0EEF
:1049880000016C6F6AC06DF06B516E6F81986C0E90
:10499800606F000E616FD7EC22F06D0E0001606F42
:1049A800000E616FD7EC22F06E0E0001606F000EF2
:1049B800616FD7EC22F081881200640E00016C6FE1
:1049C8006AC06DF06B516E6F81986C0E606F000E4F
:1049D800616FD7EC22F06D0E0001606F000E616F01
:1049E800D7EC22F06E0E0001606F000E616FD7ECFD
:1049F80022F081881200000E0001606F070E6065CA
:104A080001D013D06051090D060EF326000EF422D2
:104A1800000EF324D96E020EF420DA6EDF50D8A40B
:104A280002D0000E1200602BE9D7010E1200000E12
:104A38000001606F070E606501D013D06051090D49
:104A4800060EF326000EF422000EF324D96E020E91
:104A5800F420DA6EDF50D8B402D0000E1200602BBA
:104A6800E9D7010E120000016C6F220E00016D6F74
:104A780081986D0E606F000E616FD7EC22F06C0E9E
:104A88000001606F000E616FD7EC22F06AC060F021
:104A98006BC061F0D7EC22F08188120000016C6FC6
:104AA800200E00016D6F81986D0E606F000E616FB2
:104AB800D7EC22F06C0E0001606F000E616FD7EC2E
:104AC80022F06AC060F06BC061F03BEC22F0818894
:104AD8001200000E0001626F050E626501D00FD052
:104AE8006251010DF3506025D96EF4506121DA6EE0
:104AF800DF50D8B402D0D8901200622BEDD7D880FE
:104B08001200000E0001626F030E626501D00FD023
:104B18006251010DF3506025D96EF4506121DA6EAF
:104B2800DF50D8B402D0D8901200622BEDD7D880CD
:104B380012000001676F000167510E0D040EF32685
:104B4800000EF422000EF324D96E030EF420DA6E60
:104B580000EE60F0050EDBCFEBFFE806FCE212008A
:104B68006EC070F000016F51716F700E6A6F000EA9
:104B78006B6F000E37EC25F0710E00016A6F000EA6
:104B88006B6F010E37EC25F012006EC070F000015B
:104B98006F51716F700E6A6F000E6B6F020E37ECFB
:104BA80025F0710E00016A6F000E6B6F030E37EC73
:104BB80025F012006EC070F000016F51716F700E19
:104BC8006A6F000E6B6F060E37EC25F0710E000150
:104BD8006A6F000E6B6F070E37EC25F012006EC07F
:104BE80070F000016F51716F700E6A6F000E6B6F7D
:104BF800040E37EC25F0710E00016A6F000E6B6F22
:104C0800050E37EC25F012000001C26F82C0C0F01B
:104C180083C0C1F020EE95F000EE6FF0080EDBCFF8
:104C2800EBFFE806FCE20001C251E2EC20F01200C2
:104C3800000160516203F3CF64F0F4CF65F0605176
:104C48006303F350652761516203F350652764C01D
:104C580060F065C061F0120072C06EF073C06FF052
:104C6800B4EC25F076C06EF077C06FF0C9EC25F093
:104C7800D40E1AEC27F000017A517EEC26F01200CF
:104C8800000E00016E6F6E0E6A6F000E6B6F6F0E76
:104C980052EC25F000016E8B6E0E6A6F000E6B6F82
:104CA8006F0E37EC25F01200000E0001626F050E42
:104CB800626501D012006251010DF3506025D96E72
:104CC800F4506121DA6EFF0EDF6E622BF0D7000E12
:104CD8000001626F050E626501D012006251010D7C
:104CE800F3506025D96EF4506121DA6E000EDF6E44
:104CF800622BF0D70001606F00016051090D060EAC
:104D0800F326000EF422000EF324D96E020EF420CE
:104D1800DA6E000EDF6E12001F0EF66E7C0EF76E56
:104D280020EE62F00A0E0900F5CFDEFFE806FBE28E
:104D3800620E0001606F000E616F12009AC073F07E
:104D48009BC074F09CC075F09DC076F021EC0EF00D
:104D580073C098F074C099F009EC23F012000001B8
:104D6800606F0A0E0001606103D06051300F1200BD
:104D7800100E606103D06051370F1200000E120050
:104D88003F065B4F666D7D077F6F004001000000A6
:104D98003F3F3F2E3F3F3F2E3F3F3F2E3F3F3F008D
:104DA800000E00016E6F6E0E6A6F000E6B6F740E50
:104DB80052EC25F01F0E00016E176E511200000E06
:104DC8000001626F030E626501D0120060C0D9FF56
:104DD80061C0DAFF000EDF6E622BF4D7C69AC78C6B
:104DE80093800F015C9193925C9393965C97939850
:104DF8005C998188C68A1200F80E8216F80E9416FD
:104E0800000E926E000E0F015B6FF80E5D17806842
:104E18001200000E00016E6F6E0E6A6F000E6B6F4F
:104E28001A0E52EC25F000016E51120000016A6F53
:104E380081986A0E0001606F000E616FD7EC22F056
:104E4800818812003F3F3A3F3F3A3F3F3A3F3F3A5F
:104E58003F3F3A3F3F0029C060F02AC061F02BC0B5
:104E680062F02CC063F012002DC060F02EC061F01B
:104E78002FC062F030C063F012000DEC27F000097B
:104E8800D8B402D0010E1200000E12007AC0C2F18E
:104E98007BC0C3F10101C46BC56B1200AC8AAC982E
:104EA800AB8EAC8CAC80030EAF6E12006FEC27F0AB
:104EB80060C062F061C063F012000001726F00010F
:104EC800725162EC1FF01200010E2926000E2A22F0
:104ED8002B222C22120044C060F045C061F0120061
:104EE80060C044F061C045F01200E80E1AEC27F0EB
:0A4EF80012000DEC27F01200123436
:107C1E0000454E433432344A363030004574686580
:107C2E00726E657420636F6E74726F6C6C65722009
:107C3E006861732072657475726E656420616E2062
:107C4E00756E6B6E6F776E2064657669636520491D
:107C5E00442E002D2D2D2D2D2D2D2D2D2D2D2D2D5B
:107C6E002D2D2D2D2D2D2D2D2D2D2D2D2D2D2D2D36
:107C7E002D2D2D2D2D2D2D2D2D2D2D2D2D2D2D2D26
:107C8E002D2D2D0A0D00072A2A2A20435249544928
:107C9E0043414C204552524F523A2057415443488B
:107CAE00444F472043415553454420524553455474
:107CBE00202A2A2A0A0D005B496E76616C696420BF
:107CCE00415250204D657373616765207761732053
:107CDE006469736361726465642E5D0D0A00496E9A
:107CEE00697469616C6973696E6720457468657241
:107CFE006E657420436F6E74726F6C6C65722E2E8F
:107D0E002E0A0D0045746865726E657420636F6E81
:107D1E0074726F6C6C657220697320756E72657308
:107D2E00706F6E736976652E0049502061646472BF
:107D3E0065737320636F756C64206E6F742062655B
:107D4E00207265736F6C7665642E0020455448452D
:107D5E00524E455420434F4E54524F4C4C45522098
:107D6E004D4F44554C453A2000416E20756E6B6E5A
:107D7E006F776E206572726F7220686173206F6309
:107D8E0063757265642E00636F6E6E656374696FE2
:107D9E006E2069732048616C66204475706C65783E
:107DAE002E0A0D00636F6E6E656374696F6E2069C7
:107DBE00732046756C6C204475706C65782E0A0DB8
:107DCE0000496E697469616C69736174696F6E20C4
:107DDE00636F6D706C657465642E0A0D00464952B2
:107DEE004D57415245204255494C4420444154453B
:107DFE002049532000536F75726365204D41432017
:107E0E0061646472657373206973200053696C69D1
:107E1E00636F6E207265766973696F6E2069732069
:107E2E0000537065656420697320313030204D62D7
:107E3E0070732C20005B494E56414C4944204348F8
:107E4E0045434B53554D5D00537065656420697312
:107E5E00203130204D6270732C20004C696E6B20E7
:107E6E0065737461626C69736865642E20002045C9
:107E7E00544845524E4554204D4F44554C453A209A
:107E8E0000436F756C64206E6F74207265736F6C37
:107E9E0076652000556E6B6E6F776E204574686543
:107EAE007254797065004950207061636B6574205F
:107EBE0073656E742E0A0D00556E6B6E6F776E20A5
:107ECE0050726F746F636F6C00204D454D4F525959
:107EDE00204D4F44554C453A20005B5265706C79ED
:107EEE002073656E7420746F20005B53796D626F22
:107EFE006C204572726F72735D005B4973477261DD
:107F0E00747569746F75735D002049507634204D19
:107F1E004F44554C453A200020415250204D4F447D
:107F2E00554C453A20004C696E6B206C6F73742E65
:107F3E000A0D00207365636F6E64732E0A0D0020A8
:107F4E0064657465637465642E20004D6172203023
:107F5E00372032303139005B42726F616463617376
:107F6E00745D005B457870656374656420005B49E1
:107F7E007350726F62655D005B556E6963617374F9
:107F8E005D002028436F64653A200032303A313468
:107F9E003A33300057616974656420005B45525274
:107FAE004F525D002C20676F7420005B4950763471
:107FBE005D005B4152505D00202D3E20005D2D3E48
:107FCE005B00495076340049434D5000292E0A0D6E
:107FDE00005D5B4C3D0054435000554450004152EF
:107FEE0050002028002D3E005D5B00295D00120030
:017FFE000082
:020000040020DA
:08000000FFFFFFFFFFFFFFFF00
:020000040030CA
:0E00000002285F2BFFD385FF0FC00FE00F40DB
:00000001FF
