:0400000074EF00F0A9
:100008005082FACF17F0FBCF18F0E9CF19F0EACFFA
:100018001AF0E1CF1BF0E2CF1CF0D9CF1DF0DACFF8
:100028001EF0F3CF1FF0F4CF20F0F6CF21F0F7CF7A
:1000380022F0F8CF23F0F5CF24F050C025F051C0BE
:1000480026F052C027F053C028F09EA412D09E94E8
:1000580081AC02D0010E01D0000EFF0A166E163ACE
:100068001646164681501618BF0B1618816E1AECE4
:1000780026F0F2A40DD0F29431C00FF032C010F087
:100088004FEC1AF0F40E016E010E026E17EC1CF024
:10009800F0B2F09228C053F027C052F026C051F0B9
:1000A80025C050F024C0F5FF23C0F8FF22C0F7FF99
:1000B80021C0F6FF20C0F4FF1FC0F3FF1EC0DAFF07
:1000C8001DC0D9FF1CC0E2FF1BC0E1FF1AC0EAFF38
:1000D80019C0E9FF18C0FBFF17C0FAFF50921100C2
:1000E800D1EF1DF0020E0101836F000E856F000E27
:1000F800846FF4EC25F0010120EE1EF07851D9262A
:100108007951DA22000160C0DEFF61C0DEFF62C003
:10011800DEFF63C0DEFF0CEC26F0010120EE10F0DC
:100128007851D9267951DA22000162C0DEFF63C016
:10013800DDFF90EC1EF0010120EE16F07851D92673
:100148007951DA22010EDF6E20EE10F07851D926AF
:100158007951DA22DECF71F0DDCF72F009EC1FF0B1
:10016800010120EE19F07851D9267951DA22040ECE
:10017800EBCFDBFFE806FCE220EE19F07851D92638
:100188007951DA2210EE14F07851E1267951E22201
:10019800DECFE6FFDDCFE5FF20EE14F07851D9265B
:1001A8007951DA22DECF7BF1DDCF7CF120EE10F041
:1001B8007851D9267951DA22DECF7DF1DDCF7EF173
:1001C8007B517D277C517E23600E7E5DD8A03BD07D
:1001D800000E7B6F300E7C6F20EE14F07851D9261C
:1001E8007951DA22DECF7DF1DDCF7EF1FF0E7F6F10
:1001F8002F0E806F20EE10F07851D9267951DA222F
:10020800DECF81F1DDCF82F1811F821F814B822BEE
:100218007F51812780518223811F821F814B822B2E
:100228007D5181277E5182237B5181277C518223F6
:1002380020EE12F07851D9267951DA2281C1DEFFF9
:1002480082C1DDFF22D020EE14F07851D9267951F1
:10025800DA22DECF7BF1DDCF7CF120EE10F0785191
:10026800D9267951DA22DECF7DF1DDCF7EF17B51BF
:100278007D277C517E2320EE12F07851D9267951C2
:10028800DA227DC1DEFF7EC1DDFF20EE10F078515D
:10029800D9267951DA2200EE6FF0080EDBCFEBFF9A
:1002A800E806FCE2B6EC1FF0010120EE0EF07851F2
:1002B800D9267951DA2200016FC0DEFF70C0DDFF58
:1002C800CB0E986F7F0E996F7AEC21F035C084F0D1
:1002D80036C085F037C086F038C087F030EC24F09F
:1002E80084C098F085C099F07AEC21F0010E35268B
:1002F800000E362237223822FB0E0001986F7F0E3F
:10030800996F7AEC21F0010120EE1BF07851D92683
:100318007951DA22DFAE07D0580E0001986F7F0EB0
:10032800996F7AEC21F0010120EE1DF07851D92661
:100338007951DA22DFA407D0840E0001986F7F0E6E
:10034800996F7AEC21F0010120EE1BF07851D92643
:100358007951DA22DFBA07D0EA0E0001986F7E0ED3
:10036800996F7AEC21F0CB0E0001986F7F0E996F90
:100378007AEC21F0010120EE1EF07851D92679514E
:10038800DA22DECF84F0DECF85F0DECF86F0DECF56
:1003980087F030EC24F084C098F085C099F07AECAE
:1003A80021F0FB0E0001986F7F0E996F7AEC21F017
:1003B80097D0BD0E0001986F7F0E996F7AEC21F0EF
:1003C80078C1FCF079C1FDF004EC11F0A0D0B60EB4
:1003D8000001986F7F0E996F7AEC21F078C1B5F023
:1003E80079C1B6F0DBEC11F092D0460E0001986F9F
:1003F8007E0E996F7AEC21F0CB0E0001986F7F0E7C
:10040800996F7AEC21F0010120EE02F07851D9269B
:100418007951DA2200EE7AF0050EDBCFEBFFE80621
:10042800FCE219EC17F07AC098F07BC099F07AECEE
:1004380021F0F40E0001986F7F0E996F7AEC21F08D
:10044800010120EE08F07851D9267951DA2200EE20
:100458007AF0050EDBCFEBFFE806FCE219EC17F0AB
:100468007AC098F07BC099F07AEC21F0F70E000181
:10047800986F7F0E996F7AEC21F0010120EE0EF053
:100488007851D9267951DA22DECF60F0DDCF61F0DC
:10049800E2EC22F060C098F061C099F07AEC21F0AB
:1004A800DC0E0001986F7F0E996F7AEC21F078C10D
:1004B800D9FF79C1DAFFDECF7BF1DDCF7CF17BC1DB
:1004C8009AF07CC19BF000019C6B9D6B7BEC25F046
:1004D800F10E0001986F7F0E996F7AEC21F017D01A
:1004E800010120EE0EF07851D9267951DA22DECFBB
:1004F8007BF1DDCF7CF17C51080AD8A476D77B51FB
:10050800000AD8B464D7060AD8B453D76ED7CB0E2E
:100518000001986F7F0E996F7AEC21F0010120EEAF
:1005280010F07851D9267951DA22DECF7BF1DDCF70
:100538007CF17BC184F07CC185F00001866B876B00
:1005480030EC24F084C098F085C099F07AEC21F062
:10055800E50E0001986F7E0E996F7AEC21F001018B
:1005680020EE12F07851D9267951DA22DECF7BF1CC
:10057800DDCF7CF17BC184F07CC185F00001866B06
:10058800876B30EC24F084C098F085C099F07AEC41
:1005980021F0860E0001986F7B0E996F7AEC21F09E
:1005A800010120EE14F07851D9267951DA22DECFF4
:1005B8007BF1DDCF7CF17BC184F07CC185F000014B
:1005C800866B876B30EC24F084C098F085C099F076
:1005D8007AEC21F0FA0E0001986F7F0E996F7AEC91
:1005E80021F078C172F079C173F068EC23F06C0ED9
:1005F8000001986F7C0E996F7AEC21F083C178F135
:1006080084C179F185C17AF11200000E0001A16F51
:1006180084518511D8A40CD0010E9F6F20EE98F05C
:1006280000EE84F0080EDBCFEBFFE806FCE21200D8
:10063800C2EC23F0D8A00DD0010E00019F6F20EE70
:1006480098F000EE84F0080EDBCFEBFFE806FCE242
:100658001200DEEC23F0D8A038D2300E0001855D00
:10066800D8A00CD0010E9F6F20EE98F000EE84F019
:10067800080EDBCFEBFFE806FCE21200000E0101DA
:100688008C6F000E8B6F84C08DF185C08EF184C095
:100698008FF185C090F1010E916F000E936F21EEDE
:1006A8008BF000EE84F0080EDBCFEBFFE806FCE2EF
:1006B80012000001A151090D060EF326000EF422C6
:1006C8008B0EF324D96E010EF420DA6EDF50D8A415
:1006D800EBD1A151D8B407D0FF0EA125936F946B2D
:1006E800FF0E942304D0000E946F070E936F93C0EF
:1006F80060F094C061F0000E636F090E626FE4EC65
:1007080024F0020E00016027000E61238B0E602585
:10071800D96E010E6121DA6EDECF8DF0DDCF8EF05D
:10072800010E8D27000E8E23A151090D8B0EF32487
:10073800D96E010EF420DA6E8DC0DEFF8EC0DDFFAB
:10074800A151090D8B0EF324D96E010EF420DA6E37
:10075800DECF8DF0DDCF8EF084518D2785518E232D
:100768008D05300E8E59D8A0CFD0070EA119D8A468
:10077800CBD001019151D8A4C7D00001A151090DD6
:10078800040EF326000EF4228B0EF324D96E010E0C
:10079800F420DA6E84C0DEFF85C0DDFFA151090DAB
:1007A800040EF326000EF4228B0EF324D96E010EEC
:1007B800F420DA6EDECF8DF0DDCF8EF0FF0E8F6F76
:1007C8002F0E906FA151090D8B0EF324D96E010ED7
:1007D800F420DA6EDECF91F0DDCF92F0911F921FF8
:1007E800914B922B8F51912790519223911F921FD9
:1007F800914B922B8D5191278E519223A151090D26
:10080800020EF326000EF4228B0EF324D96E010E8D
:10081800F420DA6E91C0DEFF92C0DDFF000E966F05
:10082800070E966501D044D0A1519619D8B43ED090
:10083800A151090D8B0EF324D96E010EF420DA6E46
:1008480000EE72F0080EDBCFEBFFE806FCE29651F3
:10085800090D8B0EF324D96E010EF420DA6E00EE2A
:100868007BF0080EDBCFEBFFE806FCE205EC16F0A8
:100878000001D8A01BD09651090D060EF326000ED4
:10088800F4228B0EF324D96E010EF420DA6EDF50B9
:10089800D8B40CD0010E9F6F20EE98F000EE84F0D3
:1008A800080EDBCFEBFFE806FCE21200962BB8D768
:1008B800A151090D060EF326000EF4228B0EF32427
:1008C800D96E010EF420DA6E010EDF6EA151090D0A
:1008D800080EF326000EF4228B0EF324D96E010EB7
:1008E800F420DA6EA1C0DFFFA151090D8B0EF324AD
:1008F800D96E010EF420DA6E00EE84F0080EDBCF1C
:10090800EBFFE806FCE21200010E0001956FA15111
:10091800090D8B0EF324D96E010EF420DA6EDECFAA
:100928008DF0DDCF8EF084518D2785518E23A15116
:10093800090D020EF326000EF4228B0EF324D96E55
:10094800010EF420DA6E8DC0DEFF8EC0DDFF000ED2
:10095800976F070E976501D03AD0A1519719D8B46F
:1009680034D09751090D060EF326000EF4228B0E93
:10097800F324D96E010EF420DA6EDF50D8B425D0F6
:10098800A151090D8B0EF324D96E010EF420DA6EF5
:1009980000EE72F0080EDBCFEBFFE806FCE29751A1
:1009A800090D8B0EF324D96E010EF420DA6E00EED9
:1009B8007BF0080EDBCFEBFFE806FCE205EC16F057
:1009C8000001D8A002D0000E956F972BC2D7955181
:1009D800D8B46AD0A151090D060EF326000EF422F0
:1009E8008B0EF324D96E010EF420DA6E010EDF6E41
:1009F800A151090D8B0EF324D96E010EF420DA6E85
:100A0800DECF8DF0DDCF8EF084518D2785518E237A
:100A1800A151090D020EF326000EF4228B0EF324C9
:100A2800D96E010EF420DA6E8DC0DEFF8EC0DDFFB8
:100A3800A151090D070EF326000EF4228B0EF324A4
:100A4800D96E010EF420DA6E000EDF6EA151090D89
:100A5800040EF326000EF4228B0EF324D96E010E39
:100A6800F420DA6E84C0DEFF85C0DDFFA151090DD8
:100A7800080EF326000EF4228B0EF324D96E010E15
:100A8800F420DA6EA1C0DFFFA151090D8B0EF3240B
:100A9800D96E010EF420DA6E00EE84F0080EDBCF7A
:100AA800EBFFE806FCE21200A12B080EA119D8A45E
:100AB8000CD0010E9F6F20EE98F000EE84F0080E27
:100AC800DBCFEBFFE806FCE21200080E0001A1658F
:100AD800F0D520EE98F000EE84F0080EDBCFEBFFA7
:100AE800E806FCE21200000E00019C6F160E9B6FD8
:100AF80020EE10F07451D9267551DA22DECF94F029
:100B0800DDCF95F09B5194256F6F9C519521706FA7
:100B1800000EF4EC20F0000120EE10F07451D926FC
:100B28007551DA22DECF94F0DDCF95F09B519425F4
:100B38006F6F9C519521706F010EF4EC20F000014D
:100B48009E6F9D6B20EE10F07451D9267551DA22F4
:100B5800DECF94F0DDCF95F09B5194256F6F9C51BB
:100B68009521706F010EF4EC20F00001966F9651FC
:100B78009D1320EE10F07451D9267551DA22DECF7C
:100B880094F0DDCF95F09B5194256F6F9C51952182
:100B9800706F010EF4EC20F00001A06F9F6B20EE47
:100BA80010F07451D9267551DA22DECF94F0DDCFDA
:100BB80095F09B5194256F6F9C519521706F010E94
:100BC800F4EC20F00001966F96519F1320EE10F080
:100BD8007451D9267551DA22DECF94F0DDCF95F025
:100BE8009B5194256F6F9C519521706F010EF4EC09
:100BF80020F00001A16F20EE10F07451D926755134
:100C0800DA22DECF94F0DDCF95F09B5194256F6FFB
:100C18009C519521706F010EF4EC20F00001A26F39
:100C280020EE10F07451D9267551DA22DECF94F0F7
:100C3800DDCF95F09B5194256F6F9C519521706F76
:100C4800010EF4EC20F00001A46FA36B20EE10F06D
:100C58007451D9267551DA22DECF94F0DDCF95F0A4
:100C68009B5194256F6F9C519521706F010EF4EC88
:100C780020F00001966F9651A313000E976F24D0B1
:100C880020EE10F07451D9267551DA22DECF94F097
:100C9800DDCF95F09B5194256F6F9C519521706F16
:100CA800010EF4EC20F00001966F9751010D080E2B
:100CB800F326000EF4229D0EF324D96E000EF420C4
:100CC800DA6E96C0DFFF972BA151975DD8A0D8D7D1
:100CD800000E986F24D020EE10F07451D92675516B
:100CE800DA22DECF94F0DDCF95F09B5194256F6F1B
:100CF8009C519521706F010EF4EC20F00001966F65
:100D08009851010D0E0EF326000EF4229D0EF324C9
:100D1800D96E000EF420DA6E96C0DFFF982BA25130
:100D2800985DD8A0D8D7000E996F24D020EE10F087
:100D38007451D9267551DA22DECF94F0DDCF95F0C3
:100D48009B5194256F6F9C519521706F010EF4ECA7
:100D580020F00001966F9951010D120EF326000E36
:100D6800F4229D0EF324D96E000EF420DA6E96C09C
:100D7800DFFF992BA151995DD8A0D8D7000E9A6FA3
:100D880024D020EE10F07451D9267551DA22DECF26
:100D980094F0DDCF95F09B5194256F6F9C51952170
:100DA800706F010EF4EC20F00001966F9A51010D5E
:100DB800180EF326000EF4229D0EF324D96E000EB1
:100DC800F420DA6E96C0DFFF9A2BA2519A5DD8A064
:100DD800D8D720EE10F07451D9267551DA22DECF1B
:100DE80094F0DDCF95F09B5194256F6F9C51952120
:100DF800706F020EF4EC20F0AB0E0001606F000E75
:100E0800616F61EC24F00001D8A002D0B9833CD016
:100E1800B993AB0E606F000E616FB50E626F000E76
:100E2800636F47EC23F00001D8A00DD0AF0E606FC0
:100E3800000E616F49EC24F00001D8A004D0A3058E
:100E4800A411D8B41FD0AB0E606F000E616FB50E41
:100E5800626F000E636F47EC23F00001D8A014D036
:100E6800A50E606F000E616FAF0E626F000E636FAC
:100E780026EC23F00001D8A007D0020EA319A41174
:100E8800D8A402D0B98101D0B9919D059E11D8A4EA
:100E980013D0080EA0199F11D8A40ED0A4510CE1AC
:100EA800030EA35DD8B008D0060EA119D8A404D0AB
:100EB800040EA219D8B404D0010EBC6F930E03D04F
:100EC800000EBC6F000EBB6F030EBA6F20EE9DF0D4
:100ED80000EE74F01F0EDBCFEBFFE806FCE2120019
:100EE800030E0101496FFCC067F0FDC068F0FEC049
:100EF80069F0FFC06AF03C0E00016B6F010E6C6F69
:100F0800BEEC1BF00009D8B49AD1110E0001986FFD
:100F18007D0E996F7AEC21F0FCC073F0FDC074F07F
:100F2800FEC075F0FFC076F00DEC10F073C098F0BD
:100F380074C099F07AEC21F0D80E0001986F7F0EFA
:100F4800996F7AEC21F0030E0101DF6F78D1A50EBD
:100F58000001986F7D0E996F7AEC21F0410E000127
:100F6800606F010E616F8CEC25F0F4EC25F060C029
:100F78003DF161C03EF162C03FF163C040F14FEC0A
:100F880021F06CC06EF06DC06FF0030E0001716F40
:100F9800E80E706F04EC23F000016EC045F16FC0DD
:100FA80046F10101476B486B010EDF6F010E4B6F75
:100FB800910E4A6FF30E0001986F7C0E996F7AECD0
:100FC80021F04BD13DC134F13EC135F13FC136F17D
:100FD80040C137F10101341F351F361F371F342B2D
:100FE800000E352336233723F4EC25F00101345164
:100FF800000160250101386F3551000161210101AF
:10100800396F36510001622101013A6F37510001F1
:10101800632101013B6F4551385D465139594751AC
:101028003A5948513B59D8A05FD0260E0001986F15
:101038007F0E996F7AEC21F045C184F046C185F0A6
:1010480047C186F048C187F030EC24F084C098F09E
:1010580085C099F07AEC21F0AF0E0001986F7F0EF1
:10106800996F7AEC21F0020E0101DF6FE80E346F00
:10107800030E356F4FEC21F06CC06EF06DC06FF051
:10108800030E0001716FE80E706F04EC23F001018C
:10109800345100016E270101355100016F236EC0E4
:1010A80045F16FC046F10101476B486B890E00019D
:1010B800986F7B0E996F7AEC21F045C184F046C198
:1010C80085F047C186F048C187F030EC24F084C031
:1010D80098F085C099F07AEC21F0AF0E0001986F76
:1010E8007F0E996F7AEC21F0010E01014B6F910E82
:1010F800A4D0E051D8B432D03DC134F13EC135F16D
:101108003FC136F140C137F1341F351F361F371F35
:10111800342B000E352336233723F4EC25F0010158
:101128003451000160250101386F355100016121FA
:101138000101396F36510001622101013A6F3751BF
:101148000001632101013B6F3851455D3951465912
:101158003A5147593B514859D8B07FD0F4EC25F063
:1011680060C03DF161C03EF162C03FF163C040F133
:10117800030E0101E06148D041C100F142C101F113
:1011880043C102F144C103F1FCC004F1FDC005F103
:10119800FEC006F1FFC007F10CEC1BF01D0E0001AC
:1011A800986F7E0E996F7AEC21F00101E0510001F1
:1011B800846F856B866B876B30EC24F084C098F065
:1011C80085C099F07AEC21F06F0E0001986F7F0EC0
:1011D800996F7AEC21F0E2EC25F060C073F061C001
:1011E80074F062C075F063C076F00DEC10F073C057
:1011F80098F074C099F07AEC21F0E10E0001986F34
:101208007F0E996F7AEC21F0020E0101E06508D09B
:10121800000EE06F000EDF6F010E4B6F920E0DD0C7
:10122800010E4B6F910E4A6FE02B17D0000EE06F46
:10123800000EDF6F010E4B6F940E4A6F0ED0010146
:10124800DF51000AD8B483D6010AD8B4BBD6030A42
:10125800D8B44FD7010AD8B4E9D749C1FCF04AC17C
:10126800FDF04BC1FEF01200000E0001656FFF0E8D
:10127800666F20EE01F06051D9266151DA22DF5005
:10128800676F6751696F686B6551681766516917B1
:1012980060C0D9FF61C0DAFFDF506A6F6B6B6851BD
:1012A8006A116C6F69516B116D6F20EE02F060511D
:1012B800D9266151DA22DFA003D0656B652B02D0F5
:1012C8000001656B6E516519FE0B65196E6F20EE96
:1012D80002F06051D9266151DA22DFA403D0656B90
:1012E800652B02D00001656B65476E516519FD0BD2
:1012F80065196E6F20EE02F06051D9266151DA222D
:10130800DFA803D0656B652B02D00001656B6547CC
:1013180065476E516519FB0B65196E6F20EE02F07B
:101328006051D9266151DA22DFAA03D0656B652B9B
:1013380002D00001656B6547654765476E516519C1
:10134800F70B65196E6F20EE02F06051D9266151D6
:10135800DA22DFAC03D0656B652B02D00001656B28
:10136800653B6E516519EF0B65196E6F20EE02F043
:101378006051D9266151DA22DFAE03D0656B652B47
:1013880002D00001656B653B65476E516519DF0B3F
:1013980065196E6F20EE03F06051D9266151DA228B
:1013A800DFA003D0656B652B02D00001656B653B40
:1013B800654765476E516519BF0B65196E6F20EE5D
:1013C80003F06051D9266151DA22DFA203D0656BA0
:1013D800652B02D00001656B653365336E51651965
:1013E8007F0B65196E6F20EE03F06051D9266151AD
:1013F800DA22DFA603D0656B652B02D00001656B8E
:1014080065476F516519FD0B65196F6F20EE03F085
:101418006051D9266151DA22DFA803D0656B652BAC
:1014280002D00001656B654765476F516519FB0B75
:1014380065196F6F20EE03F06051D9266151DA22E9
:10144800DFAA03D0656B652B02D00001656B654789
:10145800654765476F516519F70B65196F6F20EE82
:1014680003F06051D9266151DA22DFAC03D0656BF5
:10147800652B02D00001656B653B6F516519EF0B59
:1014880065196F6F20EE03F06051D9266151DA2299
:10149800DFAE03D0656B652B02D00001656B653B41
:1014A80065476F516519DF0B65196F6F20EE04F002
:1014B8006051D9266151DA22DFA003D0656B652B14
:1014C80002D00001656B653B654765476F5165193B
:1014D800BF0B65196F6F20EE04F06051D92661517A
:1014E800DA22DFA203D0656B652B02D00001656BA1
:1014F800653365336F5165197F0B65196F6F20EE82
:1015080004F06051D9266151DA22DFA403D0656B5B
:10151800652B02D00001656B70516519FE0B6519CA
:10152800706F20EE04F06051D9266151DA22DFA6EF
:1015380003D0656B652B02D00001656B6547705160
:101548006519FD0B6519706F20EE04F06051D926FE
:101558006151DA22DFA803D0656B652B02D0000148
:10156800656B6547654770516519FB0B6519706FA9
:1015780020EE6CF000EE60F0040EDBCFEBFFE80627
:10158800FCE21200000E00016E6F000E6F6F000E7D
:10159800706F000E716F20EE02F06051D926615114
:1015A800DA22DF50626F636BD89062376337D89066
:1015B8006237633720EE01F06051D9266151DA2293
:1015C800DF50646F6451666F656B60C0D9FF61C09E
:1015D800DAFFDF50676F686B0C0ED8906737683793
:1015E800E82EFBD76551671366516813625167137C
:1015F8006351681320EE03F06051D9266151DA2255
:10160800DF50696F69516713000E681367C06EF089
:1016180068C06FF0706B716B20EE04F06051D926D2
:101628006151DA22DECF62F0DDCF63F062516E27BE
:1016380063516F23000E7023000E712320EE06F015
:101648006051D9266151DA22DECF62F0DDCF63F036
:1016580062516E2763516F23000E7023000E7123B1
:1016680020EE09F06051D9266151DA22DECF62F00E
:10167800DDCF63F020EE08F06051D9266151DA22FF
:10168800DF50646F656B0D0ED89064376537E82EB0
:10169800FBD7625164136351651364516E2765511A
:1016A8006F23000E7023000E712320EE0BF06051A3
:1016B800D9266151DA22DF50626F6251646F636B21
:1016C80020EE0CF06051D9266151DA22DF50656FA7
:1016D80065516313000E641363516E2764516F23C1
:1016E800000E7023000E712320EE0FF06051D926F2
:1016F8006151DA22DF50626F6251646F636B20EED2
:1017080010F06051D9266151DA22DF50656F666B9F
:10171800635165136451661365516E2766516F23D3
:10172800000E7023000E712320EE11F06051D926AF
:101738006151DA22DF50626F6251646F636B20EE91
:1017480012F06051D9266151DA22DF50656F666B5D
:10175800635165136451661365516E2766516F2393
:10176800000E7023000E712320EE13F06051D9266D
:101778006151DA22DF50626F6251646F636B20EE51
:1017880014F06051D9266151DA22DF50656F666B1B
:10179800635165136451661365516E2766516F2353
:1017A800000E7023000E712320EE15F06051D9262B
:1017B8006151DA22DF50626F6251646F636B20EE11
:1017C80016F06051D9266151DA22DF50656F666BD9
:1017D800635165136451661365516E2766516F2313
:1017E800000E7023000E71236EC062F06FC063F0AC
:1017F80070C064F071C065F0110E05D0D8906533E3
:10180800643363336233E82EF9D70F0E6215666FBF
:10181800000E6315676F000E6415686F000E65157E
:10182800696FFF0E6E156A6FFF0E6F156B6F000EF6
:1018380070156C6F000E71156D6F66516A256E6FAD
:1018480067516B216F6F68516C21706F69516D2101
:10185800716F6EC062F06FC063F070C064F071C0E9
:1018680065F0621F631F641F651F62C06EF063C06E
:101878006FF064C070F065C071F020EE0DF060513B
:10188800D9266151DA226EC0DEFF6FC0DDFF12007B
:10189800FC0ED316D3508F0B6009D36ED288F29EFC
:1018A800F28AF0889F9A9D8AF28CD58ED58CD59A2B
:1018B800D596D550F80B0509D56ECD80BD50F00BE7
:1018C8000B09BD6E1F0EBF6E400EBE6E9D84F28C5E
:1018D800939CFDEC25F0A9EC25F0680E0101896FB9
:1018E800E40EE82EFED7892FFCD700F0FD0E00018C
:1018F800986F7F0E996F7AEC21F0D0B615D0CE0E86
:101908000001986F7A0E996F7AEC21F0010E0001B0
:10191800986F7B0E996F7AEC21F0CE0E0001986FCC
:101928007A0E996F7AEC21F0D70E0001986F7D0E30
:10193800996F7AEC21F04C0E0001986F7F0E996F29
:101948007AEC21F0440E0001986F7E0E996F7AECC4
:1019580021F0970E0001986F7F0E996F7AEC21F0B5
:10196800D80E0001986F7F0E996F7AEC21F07DEC0C
:101978001FF07AC0EFF27BC0F0F27CC0F1F20201F6
:10198800F051F111D8B408D0EFC29AF0F0C29BF030
:10199800F1C29CF0DDEC14F071EC22F06EC0EFF2B5
:1019A8006FC0F0F270C0F1F20201F051F111D8A449
:1019B8000FD058EC25F060C098F061C099F07AEC2F
:1019C80021F0400E0001986F7F0E996F7AEC21F09C
:1019D800060E0001986F7E0E996F7AEC21F043ECA9
:1019E8001FF0E9CFD9FFEACFDAFF00EE7AF0050E53
:1019F800DBCFEBFFE806FCE219EC17F07AC098F0B1
:101A08007BC099F07AEC21F0D80E0001986F7F0E18
:101A1800996F7AEC21F0CE0E0001986F7A0E996FCB
:101A28007AEC21F021EC26F0000E00016E6F000E1A
:101A3800BEEC1CF0000E00016E6F000EBEEC1CF038
:101A4800150E01018A6F4B0E896FBE0EE82EFED768
:101A5800892FFCD78A2FFAD700F0010E00016E6F8C
:101A6800000EBEEC1CF0010E00016E6F000EBEEC05
:101A78001CF0000E0201E96F000EEA6F000EEB6F1A
:101A8800000EEC6F0F015C9B938AC00E0201F66F8B
:101A9800A80EF76F000EF86F010EF96FC00EF26F07
:101AA800A80EF36F000EF46F040EF56FF28EF28C31
:101AB80043EC1FF0050EE926000EEA22EF50010163
:101AC800896F895100017A6F7B6B05EC26F0040061
:101AD800000E0101866F030E876F7EEC19F023EE6E
:101AE80000F000EE9AF00E0EDBCFEBFFE806FCE20A
:101AF8006DEC1CF003010051D8B409D037EC26F086
:101B08000101896F89510201ED6FEE6B05D0030E5B
:101B18000201EE6FE80EED6FEDC231F0EEC232F069
:101B2800000E32BEFF0E336E346E0101F451D8B48C
:101B3800CED7000EF46FF6C29AF0F7C29BF0F8C247
:101B48009CF0F9C29DF022EC22F00201F92BBFD7DC
:101B5800C70E0001606F000E616F33EC25F020EEB8
:101B6800C7F010EED9F0050EDBCFE3FFE806FCE284
:101B7800000E0001D26F240ED16F20EEF3F000EEBC
:101B88006FF0080EDBCFEBFFE806FCE2EEEC1FF08F
:101B980020EED3F0050EEBCFDBFFE806FCE2080EE3
:101BA8000001E06F060EDF6FD10EA26F000EA36F6B
:101BB8000AEC19F00001E851D8A41200080EE1253A
:101BC800F36F000EE221F46FE3C0F5F0E4C0F6F025
:101BD800000EF86F1C0EF76F20EEF3F000EE6FF0BA
:101BE800080EDBCFEBFFE806FCE2A851CDEC1EF0B7
:101BF80020EEF3F000EE6FF0080EDBCFEBFFE80607
:101C0800FCE20001A751CDEC1EF020EEF3F000EE4F
:101C18006FF0080EDBCFEBFFE806FCE20001AA51EB
:101C2800CDEC1EF020EEF3F000EE6FF0080EDBCFE7
:101C3800EBFFE806FCE20001A951CDEC1EF020EE16
:101C4800F3F000EE6FF0080EDBCFEBFFE806FCE2E6
:101C58000001AB51CDEC1EF020EEF3F000EE6FF07A
:101C6800080EDBCFEBFFE806FCE20001AC51CDEC3F
:101C78001EF020EEF3F000EE6FF0080EDBCFEBFF66
:101C8800E806FCE20001AE51CDEC1EF020EEF3F0C8
:101C980000EE6FF0080EDBCFEBFFE806FCE2000178
:101CA800AD51CDEC1EF0000E0001CD6F1AD020EE24
:101CB800F3F000EE6FF0080EDBCFEBFFE806FCE276
:101CC800CD51010D080EF326000EF422A70EF324C1
:101CD800D96E000EF420DA6EDF50CDEC1EF0000154
:101CE800CD2BAB51CD5DD8A0E2D7000ECE6F1AD068
:101CF80020EEF3F000EE6FF0080EDBCFEBFFE80606
:101D0800FCE2CE51010D0E0EF326000EF422A70EB2
:101D1800F324D96E000EF420DA6EDF50CDEC1EF0FD
:101D28000001CE2BAC51CE5DD8A0E2D7000ECF6F0C
:101D38001AD020EEF3F000EE6FF0080EDBCFEBFFC9
:101D4800E806FCE2CF51010D120EF326000EF42234
:101D5800A70EF324D96E000EF420DA6EDF50CDEC16
:101D68001EF00001CF2BAB51CF5DD8A0E2D7000EFB
:101D7800D06F1AD020EEF3F000EE6FF0080EDBCF34
:101D8800EBFFE806FCE2D051010D180EF326000E19
:101D9800F422A70EF324D96E000EF420DA6EDF5079
:101DA800CDEC1EF00001D02BAC51D05DD8A0E2D70D
:101DB80020EEE1F000EE72F0080EDBCFEBFFE80654
:101DC800FCE2F8EC24F0120074C0D9FF75C0DAFF09
:101DD800DECF6FF0DDCF70F0000EF4EC20F074C0B1
:101DE800D9FF75C0DAFFDECF6FF0DDCF70F0010EDE
:101DF800F4EC20F000018E6F8E390F0B0F0B8F6FF4
:101E08008E510F0B906F74C0D9FF75C0DAFFDECF0B
:101E18006FF0DDCF70F0010EF4EC20F000018E6F52
:101E28008E511F0B916F8E45E846030B030B926F83
:101E380074C0D9FF75C0DAFFDECF6FF0DDCF70F068
:101E4800010EF4EC20F00001946F936B74C0D9FF7D
:101E580075C0DAFFDECF6FF0DDCF70F0010EF4EC65
:101E680020F000018B6F8B51931374C0D9FF75C09C
:101E7800DAFFDECF6FF0DDCF70F0010EF4EC20F06A
:101E88000001966F956B74C0D9FF75C0DAFFDECF7D
:101E98006FF0DDCF70F0010EF4EC20F000018B6FD5
:101EA8008B51951374C0D9FF75C0DAFFDECF6FF080
:101EB800DDCF70F0010EF4EC20F000018E6F8E453E
:101EC800E846030B030B976F8E511F0B996F986BA6
:101ED80074C0D9FF75C0DAFFDECF6FF0DDCF70F0C8
:101EE800010EF4EC20F000018B6F8B51981374C035
:101EF800D9FF75C0DAFFDECF6FF0DDCF70F0010ECD
:101F0800F4EC20F000019A6F74C0D9FF75C0DAFFB5
:101F1800DECF6FF0DDCF70F0010EF4EC20F00001A1
:101F28009B6F74C0D9FF75C0DAFFDECF6FF0DDCFCD
:101F380070F0010EF4EC20F000019D6F9C6B74C0F2
:101F4800D9FF75C0DAFFDECF6FF0DDCF70F0010E7C
:101F5800F4EC20F000018B6F8B519C13000E8C6FFA
:101F6800030E8C6501D01DD074C0D9FF75C0DAFF8F
:101F7800DECF6FF0DDCF70F0010EF4EC20F0000141
:101F88008B6F8C51010D0F0EF326000EF4228F0E6D
:101F9800F324D96E000EF420DA6E8BC0DFFF8C2B91
:101FA800DFD7000E8D6F030E8D6501D01DD074C074
:101FB800D9FF75C0DAFFDECF6FF0DDCF70F0010E0C
:101FC800F4EC20F000018B6F8D51010D130EF326F8
:101FD800000EF4228F0EF324D96E000EF420DA6E70
:101FE8008BC0DFFF8D2BDFD774C0D9FF75C0DAFF38
:101FF800DECF6FF0DDCF70F0020EF4EC20F020EEB3
:102008008FF000EE74F0160EDBCFEBFFE806FCE273
:102018001200000E0001876F000E886F030E88659E
:1020280001D0DFD08851010D830EF324D96E000E44
:10203800F420DA6E8851010D730EF324E16E000E60
:10204800F420E26EE750776F7751606F616B000E96
:10205800636F640E626FA5EC21F000016051DF6EC2
:102068008851010D7F0EF324D96E000EF420DA6E2C
:102078008851010D830EF324E16E000EF420E26E08
:10208800E750776F7751640DF3CF78F0F4CF79F09C
:10209800781F791F784B792B8851010D730EF32423
:1020A800E16E000EF420E26EE7507A6F7A517825DF
:1020B800606F000E7921616F000E636F0A0E626F08
:1020C800A5EC21F000016051DF6E8851010D7B0EF7
:1020D800F324D96E000EF420DA6E8851010D730EC8
:1020E800F324E16E000EF420E26EE750776F77512B
:1020F8006E6F6F6B000E716F0A0E706F04EC23F039
:1021080000016E51DF6E8851010D830EF324D96EE4
:10211800000EF420DA6EDF50D8B414D08751010DC8
:10212800D90EF324D96E020EF420DA6E8851010D0F
:10213800830EF324E16E000EF420E26EE750300FB8
:10214800DF6E872B8851010D7F0EF324D96E000EA8
:10215800F420DA6EDF50D8A40BD08851010D830E1D
:10216800F324D96E000EF420DA6EDF50D8B414D000
:102178008751010DD90EF324D96E020EF420DA6EC0
:102188008851010D7F0EF324E16E000EF420E26EFB
:10219800E750300FDF6E872B8751010DD90EF324DE
:1021A800D96E020EF420DA6E8851010D7B0EF324ED
:1021B800E16E000EF420E26EE750300FDF6E872BE1
:1021C800030E8819D8B40BD08751010DD90EF3240A
:1021D800D96E020EF420DA6E2E0EDF6E872B882B56
:1021E8001DD78751010DD90EF324D96E020EF420A4
:1021F800DA6E000EDF6ED90E736F020E746F120066
:10220800000120EE0EF0FC51D926FD51DA22060E0F
:10221800DE1804E1080EDE18D8B407D0FCC072F04E
:10222800FDC073F068EC23F01200FCC074F0FDC030
:1022380075F077EC05F021EE58F01F0EEBCFDBFFC1
:10224800E806FCE2010176517711D8B40ED0FCC043
:1022580072F0FDC073F068EC23F0D90E0001986F9E
:102268007B0E996F7AEC21F01200CB0E0001986F6B
:102278007F0E996F7AEC21F021EE60F000EE7AF093
:10228800050EDBCFEBFFE806FCE219EC17F07AC08D
:1022980098F07BC099F07AEC21F0430E0001986F1A
:1022A8007E0E996F7AEC21F066C173F067C174F005
:1022B80068C175F069C176F00DEC10F073C098F044
:1022C80074C099F07AEC21F0C80E0001986F7F0E67
:1022D800996F7AEC21F021EE6AF000EE7AF0050EA3
:1022E800DBCFEBFFE806FCE219EC17F07AC098F0B8
:1022F8007BC099F07AEC21F0430E0001986F7E0EB6
:10230800996F7AEC21F070C173F071C174F072C1E9
:1023180075F073C176F00DEC10F073C098F074C0CE
:1023280099F07AEC21F0FB0E0001986F7F0E996FFF
:102338007AEC21F0010174A307D07A0E0001986F9E
:102348007F0E996F7AEC21F0010174A107D0FA0E83
:102358000001986F7E0E996F7AEC21F021EE58F00B
:1023680001EE00F01F0EDBCFEBFFE806FCE27BEC92
:1023780013F021EE60F000EE64F0050EDBCFEBFF0A
:10238800E806FCE266C16AF067C16BF068C16CF0F0
:1023980069C16DF0F4EC25F060C06EF061C06FF0BB
:1023A80062C070F063C071F093EC18F01200000185
:1023B80020EE0EF0B551D926B651DA22DE5004E1EE
:1023C800080EDE18D8B407D0B5C072F0B6C073F0E6
:1023D80068EC23F01200000120EE10F0B551D92668
:1023E800B651DA2210EEB9F0080EDBCFE3FFE806AB
:1023F800FCE220EE10F0B551D926B651DA22DECF34
:10240800B7F0DDCFB8F0160EB725B96F000EB821BA
:10241800BA6FB90E746F000E756FE8EC0EF020EE0F
:10242800C2F0160EEBCFDBFFE806FCE2CB0E000194
:10243800986F7F0E996F7AEC21F0D1C073F0D2C0FB
:1024480074F0D3C075F0D4C076F00DEC10F073C002
:1024580098F074C099F07AEC21F0C30E0001986FDF
:102468007F0E996F7AEC21F0D5C073F0D6C074F066
:10247800D7C075F0D8C076F00DEC10F073C098F0A6
:1024880074C099F07AEC21F0F70E0001986F7F0E76
:10249800996F7AEC21F00001CE51BEEC22F060C0B9
:1024A80098F061C099F07AEC21F0F70E0001986F6E
:1024B8007F0E996F7AEC21F0C6C084F0C7C085F012
:1024C8000001866B876B30EC24F084C098F085C0DF
:1024D80099F07AEC21F0F70E0001986F7F0E996F52
:1024E8007AEC21F00001C251846F856B866B876B93
:1024F80030EC24F084C098F085C099F07AEC21F093
:10250800430E0001986F7E0E996F7AEC21F000015E
:10251800C351846F856B866B876B30EC24F084C065
:1025280098F085C099F07AEC21F0FB0E0001986FC5
:102538007F0E996F7AEC21F0C20E00019A6F000E9F
:102548009B6FEBEC19F00001D8B012005A0E986F8F
:102558007E0E996F7AEC21F01200040E00019C6F38
:10256800000E9E6F000E9D6F3CC0D9FF3DC0DAFF84
:10257800030EDE18D8A4B6D04FB090D0B3D03CC06C
:10258800D9FF3DC0DAFFDECF9CF0DECF9DF0DDCF76
:102598009EF012003CC0D9FF3DC0DAFFDECF9CF0B0
:1025A800DECF9DF0DDCF9EF012006F0E986F7C0E8F
:1025B800996F7AEC21F04F901C0E0001986F7A0EFB
:1025C800996F7AEC21F01200000E00019E6F000E48
:1025D8009D6F320E986F7B0E996F7AEC21F0D50EB5
:1025E8000001986F7C0E996F7AEC21F0EF0E0001D4
:1025F800986F7D0E996F7AEC21F0DBC173F0DCC126
:1026080074F0DDC175F0DEC176F00DEC10F073C02A
:1026180098F074C099F07AEC21F0D7C1DBF1D8C1F9
:10262800DCF1D9C1DDF1DAC1DEF1000E0001986FED
:102638007C0E996F7AEC21F0DBC173F0DCC174F089
:10264800DDC175F0DEC176F00DEC10F073C098F0C6
:1026580074C099F07AEC21F0D70E0001986F7F0EC4
:10266800996F7AEC21F04F905C0E0001986F7A0E0A
:10267800996F7AEC21F012003CC0D9FF3DC0DAFF17
:10268800DECF9CF0DECF9DF0DDCF9EF0B20E0001D4
:10269800986F7B0E996F7AEC21F0120020EE01F012
:1026A8003C50D9263D50DA22DECF9AF0DDCF9BF0A0
:1026B80000019B51000AD8B404D0010AD8B406D04E
:1026C800DBD79A51000AD8B45AD7D6D79A51910A6B
:1026D800D8B460D7030AD8B477D7060AD8B465D770
:1026E800670ACAD7020E9E6F570E9D6F120001012E
:1026F80006050711D8A41200EBEC25F060C034F1F0
:1027080061C035F162C036F163C037F1180E0001BF
:10271800606F010E616F340E626F010E636F47ECDC
:1027280023F00001D8A0120043EC1FF021EE20F0A6
:10273800050EEBCFDBFFE806FCE221EE08F011EE18
:1027480026F0050EDBCFE3FFE806FCE2EBEC25F014
:1027580060C02CF161C02DF162C02EF163C02FF171
:102768000EC130F10FC131F110C132F111C133F195
:10277800060E01013C6F040E3D6F000E396F010E0D
:10278800386F080E3B6F000E3A6F000E3F6F020E57
:102798003E6F2CC146F12DC147F12EC148F12FC122
:1027A80049F121EE20F011EE40F0050EDBCFE3FFFA
:1027B800E806FCE230C150F131C151F132C152F1A9
:1027C80033C153F121EE26F011EE4AF0050EDBCFAE
:1027D800E3FFE806FCE221EE38F000EEA7F01F0E5A
:1027E800DBCFEBFFE806FCE2ACEC0DF0DA0E000103
:1027F800986F7E0E996F7AEC21F021EE4AF000EE88
:102808007AF0050EDBCFEBFFE806FCE219EC17F0D7
:102818007AC098F07BC099F07AEC21F0430E000161
:10282800986F7E0E996F7AEC21F050C173F051C108
:1028380074F052C175F053C176F00DEC10F073C00E
:1028480098F074C099F07AEC21F0FB0E0001986FB3
:102858007F0E996F7AEC21F0120098EC22F06EC08E
:1028680080F06FC081F0000181AD03D07A6B7A2BC4
:1028780002D000017A6B7E517A19FE0B7A197E6FAD
:1028880081AB03D07A6B7A2B02D000017A6B7A473E
:102898007E517A19FD0B7A197E6F81A903D07A6B64
:1028A8007A2B02D000017A6B7A477A477E517A19DF
:1028B800FB0B7A197E6F81A703D07A6B7A2B02D033
:1028C80000017A6B7A477A477A477E517A19F70B73
:1028D8007A197E6F80AD03D07A6B7A2B02D0000113
:1028E8007A6B7A3B7E517A19EF0B7A197E6F80AB3F
:1028F80003D07A6B7A2B02D000017A6B7A3B7A4745
:102908007E517A19DF0B7A197E6F9EA803D07A6BF5
:102918007A2B02D000017A6B010E7B6F000E7C6F60
:102928007A2B03D0D8907B377C377A2FFBD70001DE
:1029380080517B1781517C177B517C11D8B403D00F
:102948007D6B7D2B02D000017D6B7D3B7D477D47F4
:102958007E517D19BF0B7D197E6F80A503D07A6BE0
:102968007A2B02D000017A6B7A337A337E517A1946
:102978007F0B7A197E6F80A303D07A6B7A2B02D0F3
:1029880000017A6B7F517A19FE0B7A197F6F80A14B
:1029980003D07A6B7A2B02D000017A6B7A477F5189
:1029A8007A19FD0B7A197F6F7EC078F07FC079F0B5
:1029B8001200A00E0001986F7F0E996F7AEC21F03B
:1029C80028D0C90E0001986F7E0E996F7AEC21F01D
:1029D80050D02F0E0001986F7D0E996F7AEC21F080
:1029E80048D0930E0001986F7E0E996F7AEC21F013
:1029F80040D0180E0001986F7F0E996F7AEC21F085
:102A080038D0090E0001986F7F0E996F7AEC21F08B
:102A180030D000019A51000AD8B4D3D7010AD8B4EB
:102A2800D8D7030AD8B4DDD7010AD8B4E2D7070A41
:102A3800D8B4E7D71ED0260E986F7C0E996F7AEC23
:102A480021F030D0970E0001986F7A0E996F7AECCA
:102A580021F028D0920E0001986F7C0E996F7AECC5
:102A680021F04D0E0001986F7D0E996F7AEC21F0E0
:102A780019D020EE9BF0DECF9DF0DDCF9EF0000157
:102A88009E51010AD8A4EDD79D512D0AD8B4DAD7A2
:102A9800030AD8B4D0D7A10AD8B4E3D71D0AD8B44A
:102AA800D9D7DFD78E0E0001986F7F0E996F7AEC19
:102AB80021F09BC084F09CC085F00001866B876B79
:102AC80030EC24F084C098F085C099F07AEC21F0BD
:102AD800D70E0001986F7F0E996F7AEC21F01200E3
:102AE8000001766F000176511F0B776F010E786F2A
:102AF800000E796F000E7A6F000E7B6F000E7C6FF0
:102B0800770E6A6F000E6B6F540EFAEC23F0780E96
:102B180000016A6F000E6B6F550EFAEC23F07F0E02
:102B280000016A6F000E6B6F520E15EC24F0000165
:102B38007F817F0E6A6F000E6B6F520EFAEC23F0E6
:102B4800450EE82EFED700F07F0E00016A6F000EDA
:102B58006B6F6A0E15EC24F0010E00017927000E48
:102B68007A237B237C237FA108D07C517B1105E14C
:102B780079290F0E7A59D8A0E7D77C517B1140E10B
:102B880079290F0E7A59D8B012007F0E6A6F000E9D
:102B98006B6F520E15EC24F000017F917F0E6A6F67
:102BA800000E6B6F520EFAEC23F07D0E00016A6F77
:102BB800000E6B6F680E15EC24F07E0E00016A6F34
:102BC800000E6B6F690E15EC24F0000E0001706F9B
:102BD800FF0E716F7E51736F726B70517217715166
:102BE80073177D51746F756B72517413735175132C
:102BF8006EC0D9FF6FC0DAFF74C0DEFF75C0DDFF9D
:102C0800120000017B51721904E17C517319D8B488
:102C180029D07D51741904E17E517519D8B422D098
:102C280072517D1904E173517E19D8B41BD07B51C0
:102C3800741904E17C517519D8B414D07405300E98
:102C48007559D8B00FD07205300E7359D8B00AD064
:102C58007D05300E7E59D8B005D07B05300E7C59E5
:102C6800D8A002D0D88012007451725D7551735982
:102C7800D8B03BD07D517B5D7E517C59D8B02BD0EC
:102C88007B51725D7C517359D8B00AD074517B5D09
:102C980075517C59D8B002D0D8801200D890120053
:102CA80020EE7BF000EE60F0080EDBCFEBFFE806CD
:102CB800FCE220EE72F000EE69F0080EDBCFEBFFCD
:102CC800E806FCE265EC1BF00001D8B002D0D89011
:102CD8001200D880120072517D5D73517E59D8B0B0
:102CE80002D0D8901200D880120020EE7BF000EEBF
:102CF80060F0080EDBCFEBFFE806FCE220EE72F096
:102D080000EE69F0080EDBCFEBFFE806FCE265ECAD
:102D18001BF00001D8B002D0D8901200D880120061
:102D2800000E0001726F4DC073F04EC074F040C0C9
:102D380075F041C076F0010E776F000E796F000EC6
:102D4800786F050E72615FD0730E6A6F000E6B6F3D
:102D5800160EFAEC23F0740E00016A6F000E6B6F0A
:102D6800170EFAEC23F0750E00016A6F000E6B6FF8
:102D7800160E15EC24F0760E00016A6F000E6B6FCC
:102D8800170E15EC24F0000173517519D8A438D02A
:102D980074517619D8A434D0CA0EC3EC25F0420E6B
:102DA800E82EFED700D0750E00016A6F000E6B6F1B
:102DB800160E15EC24F0760E00016A6F000E6B6F8C
:102DC800170E15EC24F000017551D8A40DD07651DA
:102DD800D8A40AD0030E0001716FA70EE82EFED703
:102DE800712FFCD700D005D0010E0001796F2E0E8F
:102DF800786F77C06EF078C06FF079C070F012000D
:102E08000001722B0BD0010E796F2E0E786F77C0F0
:102E18006EF078C06FF079C070F0120077C06EF075
:102E280078C06FF079C070F0120022EEBBF010EE9F
:102E380081F0110EDBCFE3FFE806FCE2000E000193
:102E4800976F000E966F000E956F96BF06D096513D
:102E58006BE1060E955DD8B067D07A0E9525D96ED0
:102E6800000E9621DA6EDF50806F80390F0B0F0B42
:102E7800936F7A0E9525D96E000E9621DA6EDF5083
:102E88000F0B946F300E9327300E9427390E9365ED
:102E98000CD09751010D810EF324D96E000EF42049
:102EA800DA6E9351070FDF6E0AD09751010D810E2C
:102EB800F324D96E000EF420DA6E93C0DFFF972B4F
:102EC800390E94650CD09751010D810EF324D96EFB
:102ED800000EF420DA6E9451070FDF6E0AD0975176
:102EE800010D810EF324D96E000EF420DA6E94C021
:102EF800DFFF972B96BF06D096510FE1050E955D23
:102F0800D8B00BD09751010D810EF324D96E000E65
:102F1800F420DA6E3A0EDF6E972B954B962B96BF00
:102F28009CD7965101E195D7810E7A6F000E7B6F81
:102F380012006FC075F070C076F071C077F072C083
:102F480078F075C060F076C061F077C062F078C044
:102F580063F073C064F074C065F00001000E65BFD3
:102F6800FF0E666F676F8FEC1DF060C075F061C073
:102F780076F062C077F063C078F000016D4B6E2B7D
:102F88007551761177117811D8A4DBD76DC0D9FFA8
:102F98006EC0DAFF000EDF6E6D07D8A06E076FC037
:102FA80060F070C061F071C062F072C063F073C00D
:102FB80064F074C065F0000E65BFFF0E666F676F42
:102FC8005BEC20F000016051796F6FC060F070C059
:102FD80061F071C062F072C063F073C064F074C0D5
:102FE80065F0000E65BFFF0E666F676F8FEC1DF012
:102FF80060C06FF061C070F062C071F063C072F0C1
:10300800090E0001796502D0070E7927300E79275D
:103018006DC0D9FF6EC0DAFF79C0DFFF6D07D8A099
:103028006E076F51701171117211D8B41200B7D7B1
:10303800000E0001696F6451631103E16205D8A0B5
:103048002FD06951010DE10EF324D96E010EF42041
:10305800DA6E61C065F062C066F063C067F064C094
:1030680068F00D0E05D0D890683367336633653342
:10307800E82EF9D765510F0B6AEC25F0DF6E0001D9
:10308800692B6951010DE10EF324D96E010EF4206C
:10309800DA6E62510F0B6AEC25F0DF6E0001692BC6
:1030A8006951010DE10EF324D96E010EF420DA6E98
:1030B80061C065F062C066F063C067F064C068F024
:1030C800050E05D0D8906833673366336533E82E2C
:1030D800F9D765510F0B6AEC25F0DF6E0001692BFB
:1030E8006951010DE10EF324D96E010EF420DA6E58
:1030F80061510F0B6AEC25F0DF6E0001692B6951F5
:10310800010DE10EF324D96E010EF420DA6E000EE3
:10311800DF6E692BE10E616F010E626F1200000E07
:103128000001766F000E776F000E786F000E796FD2
:10313800000E7A6F000E7B6F070E7B6501D02ED0D4
:103148007B510E0D0A0EF326000EF4220F0EF32407
:10315800D96E020EF420DA6EDE50765DDE507759B5
:10316800DE507859DE507959D8B016D07B510E0D03
:103178000A0EF326000EF4220F0EF324D96E020E67
:10318800F420DA6EDECF76F0DECF77F0DECF78F09F
:10319800DECF79F07BC07AF07B2BCED77A510E0D3B
:1031A8000F0EF324D96E020EF420DA6E6AC0DEFF29
:1031B8006BC0DEFF6CC0DEFF6DC0DEFF20EE64F08A
:1031C8007A510E0D040EF326000EF4220F0EF3248E
:1031D800E16E020EF420E26E050EDBCFE3FFE80697
:1031E800FCE27A510E0D0A0EF326000EF4220F0EA1
:1031F800F324D96E020EF420DA6E6EC0DEFF6FC0C3
:10320800DEFF70C0DEFF71C0DEFF1200020E00019B
:10321800A46F000EA66F000EA56FA2C0D9FFA3C0B1
:10322800DAFFDECF84F0DDCF85F009EC03F0000192
:1032380020EE10F0A251D926A351DA22080EEBCFC6
:10324800DBFFE806FCE220EE17F0A251D926A351D5
:10325800DA22DF50D8B407D0000EA46F000EA66F94
:10326800650EA56F120020EE16F0A251D926A351C3
:10327800DA22DF50D8A407D0000EA46F000EA66F84
:10328800C70EA56F120020EE08F0A251D926A3514F
:10329800DA2200EE6FF0050EDBCFEBFFE806FCE26A
:1032A80020EE10F0A251D926A351DA2200EE75F0D3
:1032B800080EDBCFEBFFE806FCE211EC1EF0000184
:1032C80020EE0EF0A251D926A351DA22DECF6FF0FC
:1032D800DDCF70F020EE10F0A251D926A351DA22EA
:1032E80000EE71F0080EDBCFEBFFE806FCE24AECDB
:1032F80022F0120031EC14F0010120EE12F0865198
:10330800D9268751DA22000178C0DEFF79C0DDFFB7
:10331800010120EE12F08651D9268751DA22DFA664
:1033280029D086C180F087C181F005EC1DF086C1E7
:10333800D9FF87C1DAFFDE04D8A40DD0000E000142
:103348006E6F000EBEEC1CF0020E00016E6F010ED7
:10335800BEEC1CF00CD0010E00016E6F000EBEEC2E
:103368001CF0010E00016E6F010EBEEC1CF00B0E7E
:1033780013EC26F0010120EE12F08651D926875170
:10338800DA22DFA818D0D9EC25F00009D8B413D078
:1033980086C178F187C179F176EC00F0010120EE61
:1033A8000FF08651D9268751DA2278C1DEFF79C11C
:1033B800DEFF7AC1DEFF010120EE14F08651D92626
:1033C8008751DA22AEEC1AF0B1EC12F012009AC072
:1033D800D9FF9BC0DAFF10EE9EF0160EDBCFE3FF9D
:1033E800E806FCE2000E0001AC6F000EAB6F9E0E0B
:1033F800606F000E616FC6EC0AF0000120EE0DF060
:103408009A51D9269B51DA22DE50AB1906E1DE50DB
:10341800AC19D8A402D0D8801200640E986F7F0E21
:10342800996F7AEC21F0ABC061F0ACC062F000019A
:10343800636B646B1CEC18F061C098F062C099F083
:103448007AEC21F0A80E0001986F7F0E996F7AEC44
:1034580021F0000120EE0DF09A51D9269B51DA2275
:10346800DECF9CF0DDCF9DF09CC061F09DC062F086
:10347800636B646B1CEC18F061C098F062C099F043
:103488007AEC21F0FB0E0001986F7F0E996F7AECB1
:1034980021F0D890120045C011F0010E126E112AC9
:1034A80002D0D8901236112EFCD71250FF0A82167D
:1034B800000E806E020E456007D0010E4524136E83
:1034C800146A000E142204D0000E146E000E136E3F
:1034D80013C045F0E80E0F5C030E1058D8B0120068
:1034E800000E156E020E156401D013D01550010D93
:1034F800390EF324D96E000EF420DA6E0FC008F0EE
:1035080010C009F015C00AF051EC1EF0DF6E152A44
:10351800E9D745C011F0010E126E112A02D0D890D9
:103528001236112EFCD7125082124550010D390E59
:10353800F324D96E000EF420DA6EDF50116E1150AC
:10354800010DCD0EF324D96E020EF420DA6EDF5091
:10355800806E12000101F269F369030EF16FE2EC6B
:1035680025F060C04EF161C04FF162C050F163C0F8
:1035780051F1F10E0001606F010E616FCFEC25F083
:103588000001D8A012004EC1FCF04FC1FDF050C19F
:10359800FEF051C1FFF074EC07F0FC0ED96E000E7E
:1035A800DA6E010ED926000EDA22DECFF2F1DDCF77
:1035B800F3F118D04B0E0001986F7C0E996F7AECDE
:1035C80021F01200BF0E0001986F7D0E996F7AEC02
:1035D80021F01200B40E0001986F7C0E996F7AECFE
:1035E80021F0120021EEF2F0DECF4CF1DDCF4DF1EB
:1035F80001014D51010AD8A4EDD74C51910AD8B414
:103608001200030AD8B4DED7060AD8B4D3D7E2D753
:1036180043EC1FF021EE08F0050EEBCFDBFFE806C8
:10362800FCE2EBEC25F060C000F161C001F162C082
:1036380002F163C003F10E0E0001606F010E616FAD
:1036480020EC25F0060E0101186F040E196F000E0C
:10365800156F010E146F080E176F000E166F000E0F
:103668001B6F010E1A6F00C122F101C123F102C1C3
:1036780024F103C125F121EE08F011EE1CF0050E2E
:10368800DBCFE3FFE806FCE204C12CF105C12DF114
:1036980006C12EF107C12FF121EE0EF011EE26F032
:1036A800050EDBCFE3FFE806FCE221EE14F000EEA6
:1036B800A7F01F0EDBCFEBFFE806FCE2ACEC0DF049
:1036C800120000016951601904E16A516119D8B406
:1036D80029D06B51621904E16C516319D8B422D016
:1036E80060516B1904E161516C19D8B41BD0695150
:1036F800621904E16A516319D8B414D06205300E16
:103708006359D8B00FD06005300E6159D8B00AD0CF
:103718006B05300E6C59D8B005D06905300E6A5962
:10372800D8A002D0D88012006251605D63516159FF
:10373800D8B01ED06B51695D6C516A59D8B010D0A1
:103748006951605D6A516159D8B012D06251695DA2
:1037580063516A59D8B002D0D8801200D8901200AC
:1037680060516B5D61516C59D8A0F8D7D8801200B0
:10377800D8801200000E0001756F070E756501D024
:1037880050D075510E0D0F0EF324606F020EF42009
:10379800616F670E626F000E636F47EC23F00001E4
:1037A800D8A03DD075510E0D0A0EF326000EF42256
:1037B8000F0EF324D96E020EF420DA6EDECF6DF010
:1037C800DECF6EF0DECF6FF0DECF70F06D1F6E1FB4
:1037D8006F1F701F6D2B000E6E236F237023F4EC88
:1037E80025F000016D516025716F6E516121726F76
:1037F8006F516221736F70516321746F745173112B
:103808000EE1300E715D750E7259D8B008D06BC0DC
:10381800D9FF6CC0DAFF75C0DFFF010E1200752BEF
:10382800ACD7000E12001F0E076E000E086E000EB9
:10383800096E000E0A6EFF0E036E0F0E046E000E68
:10384800056E000E066E81BA07D0010E2D26000EF9
:103858002E222F22302208D0000E2D6E000E2E6E42
:10386800000E2F6E000E306E07502D5C08502E583B
:1038780009502F580A503058D8A002D0010E01D054
:10388800000E466E4650D8B411D04750D8A40ED07A
:1038980007C02DF008C02EF009C02FF00AC030F084
:1038A80001C0D9FF02C0DAFF010E05D001C0D9FF5F
:1038B80002C0DAFF000EDF6E2D50035C2E50045854
:1038C8002F50055830500658D8A0FF0046C047F082
:1038D80012000201005100019A19D8B441D09A513E
:1038E800D8A407D0330E986F7F0E996F7AEC21F029
:1038F8000AD000019A05D8A406D0800E986F7E0ED3
:10390800996F7AEC21F000019A05D8A429D09B512F
:10391800D8A407D06D0E986F7E0E996F7AEC21F0BF
:103928000AD000019B05D8A406D0320E986F7E0EEF
:10393800996F7AEC21F000019C51D8A407D06B0E46
:10394800986F7D0E996F7AEC21F00AD000019C05E2
:10395800D8A406D0880E986F7D0E996F7AEC21F066
:1039680020EE9AF012EE00F00E0EDBCFE3FFE80631
:10397800FCE2120000016F6F700E00016A6F000E0A
:103988006B6F750E15EC24F000016F05D8B40BD0E1
:1039980015D0F00E701770812CD0F00E18D0F00EE4
:1039A8007017060E19D06E51000AD8B4F6D7010A5E
:1039B800D8B4EFD7030AD8B4F2D7EBD76F51D8B43D
:1039C8000DD017D00F0E7017708913D00F0E701707
:1039D80010D00F0E7017600E70130BD06E51000AC6
:1039E800D8B4F4D7010AD8B4EDD7030AD8B4F1D7BC
:1039F800E9D7700E6A6F000E6B6F750EFAEC23F044
:103A08001200820E00016A6F000E6B6F1B0E15EC20
:103A180024F0000182A106D080C0D9FF81C0DAFF5E
:103A2800010E05D080C0D9FF81C0DAFF000EDF6E1D
:103A3800830E6E6F000E6F6F1F0E74EC15F0000191
:103A480083A708D020EE01F08051D9268151DA22CF
:103A5800010E07D020EE01F08051D9268151DA22DB
:103A6800000EDF6E83A909D020EE02F08051D9261E
:103A78008151DA22010EDF6E120020EE02F0805131
:103A8800D9268151DA22000EDF6E12000001706F14
:103A9800080E000170611ED0710E6A6F000E6B6F08
:103AA8001C0E15EC24F070C06EF0010E00016F6F53
:103AB8006E2B02D0D8906F376E2FFCD700016F5154
:103AC800FF0A7117710E6A6F000E6B6F1C0EFAEC0D
:103AD80023F01200080E0001705F710E6A6F000E6D
:103AE8006B6F1D0E15EC24F070C06EF0010E000116
:103AF8006F6F6E2B02D0D8906F376E2FFCD70001F6
:103B08006F51FF0A7117710E6A6F000E6B6F1D0EF1
:103B1800FAEC23F01200000E0001686F000E696FC6
:103B2800000E6A6F000E6B6F6451651166116711A4
:103B3800D8B42AD0010E6C6F06D0D8906437653798
:103B4800663767376C2B67AFF8D7D890683769370F
:103B58006A376B376451605D6551615966516259C6
:103B680067516359D8A009D06451605F6551615BA2
:103B78006651625B6751635B6881D89067336633CF
:103B8800653364336C2FE1D768C060F069C061F0B9
:103B98006AC062F06BC063F01200F20EF66E480E57
:103BA800F76E000EF86E02EEBBF010EE2EF0090074
:103BB800F5CFEEFFE550E150FAE1680EF66E4C0ED7
:103BC800F76E000EF86E00EE49F010EE06F00900F0
:103BD800F5CFEEFFE550E150FAE103EE00F0790E83
:103BE800EE6AE806FDE102EE00F0BB0EEE6AE806BA
:103BF800FDE101EE8BF06A0EEE6AE806FDE14F6A20
:103C080000EE29F0200EEE6AE806FDE15090509291
:103C1800000EF86E00014CEF0CF075C06AF076C02B
:103C28006BF086EC23F0000E0001866F050E8665AA
:103C380001D014D08651010D6F0EF324D96E000EF9
:103C4800F420DA6E8651010D7E0EF324E16E000E2B
:103C5800F420E26EDFCFE7FF862BE8D72A0E846FC9
:103C68008198840E606F000E616FC2EC20F0000E28
:103C78000001856F050E856501D00DD08551010DB8
:103C88007E0EF324606F000EF420616FC2EC20F00A
:103C98000001852BEFD78188120008C001F009C008
:103CA80002F0000E046E640E036EF9EC21F0015070
:103CB8000E6E0E50640DF31EF41EF34AF42A0850DB
:103CC800F324016E0950F420026E000E046E0A0EF1
:103CD800036EF9EC21F001500D6E0D500A0DF3CF73
:103CE8000BF00E50640DF3500B24000808240C6EE2
:103CF80008D00C5012000D5012000E501200000E89
:103D080012000A50000AD8B4F8D7010AD8B4F3D779
:103D1800030AD8B4EED7F3D726EC26F060C075F0C6
:103D280061C076F075C06AF076C06BF0A4EC23F041
:103D38002C0E0001776F8198770E606F000E616F0F
:103D4800C2EC20F0780E0001606F000E616F26EC67
:103D580020F0790E0001606F000E616F26EC20F0F4
:103D68008188000E00016F6FFF0E706F7951726FBE
:103D7800716B6F517117705172177851736F746B43
:103D880071517311606F72517411616F2BEC26F0D1
:103D9800120000017C6F3E503F10D8A410D06FC0B5
:103DA8006AF070C06BF086EC23F02A0E00017D6F7C
:103DB80081987D0E606F000E616FC2EC20F07C0E62
:103DC8000001606F000E616FC2EC20F0FF0E000171
:103DD800786FFF0E796F20EE73F0DECF7AF0DDCFCB
:103DE8007BF078517A2779517B233E507A190AE182
:103DF8003F507B19D8A406D08188000E3F6E000E74
:103E08003E6E12003E4A3F2A1200020E0001712542
:103E18006A6F000E72216B6FA4EC23F02C0E000168
:103E2800766F8198760E606F000E616FC2EC20F09D
:103E3800000E0001776F050E776501D00DD0775120
:103E4800010DEB0EF324606F010EF420616F26EC78
:103E580020F00001772BEFD78188EB0E606F010E01
:103E6800616F38EC09F0E9CFD9FFEACFDAFF00EE4D
:103E780071F0040EDBCFEBFFE806FCE21200740ED3
:103E880000016A6F000E6B6F640E15EC24F0750E5E
:103E980000016A6F000E6B6F650E15EC24F0760E4C
:103EA80000016A6F000E6B6F620E15EC24F0770E3E
:103EB80000016A6F000E6B6F630E15EC24F0780E2C
:103EC80000016A6F000E6B6F600E15EC24F0790E1E
:103ED80000016A6F000E6B6F610E15EC24F020EE86
:103EE80074F000EE6EF0050EDBCFEBFFE806FCE2A7
:103EF80012009BEC25F094EC16F06EC07DF06FC0BC
:103F08007EF070C07FF071EC22F06EC07DF06FC063
:103F18007EF070C07FF0300E00016F6F000E6E6F84
:103F2800CFEC24F0300E0001616F000E606F2BECB7
:103F380026F05F0E00016F6FFE0E6E6FBAEC24F074
:103F480030EC26F00CEC25F0010E00017D6F000E20
:103F58007F6F000E7E6F7DC07AF07EC07BF07FC0E1
:103F68007CF01200000E00017D6F000E7C6F140EB5
:103F78006F256A6F000E70216B6FA4EC23F02C0E76
:103F880000017E6F81987E0E606F000E616FC2EC3B
:103F980020F0800E0001606F000E616F26EC20F0AB
:103FA8007F0E0001606F000E616F26EC20F00001AB
:103FB8008051796F786B7F517A6F7B6B78517A116A
:103FC8007C6F79517B117D6F81887CC06FF07DC0DB
:103FD80070F012000E0E00016F256A6F000E70213E
:103FE8006B6FA4EC23F02C0E0001786F8198780E8B
:103FF800606F000E616FC2EC20F0000E0001806F50
:10400800050E806501D013D07F0E606F000E616FC2
:1040180026EC20F000018051010D790EF324D96EB1
:10402800000EF420DA6E7FC0DFFF802BE9D781888D
:1040380020EE79F000EE6FF0050EDBCFEBFFE8061F
:10404800FCE21200000E0001666F000E676F000EA2
:10405800686F000E696F000EC96EC7B015D066C0D4
:1040680062F067C063F068C064F069C065F0662BF1
:10407800000E6723682369236551641105E16229ED
:104088000F0E6359D8A0E9D76951681105E166296F
:104098000F0E6759D8A004D081889BEC25F0120038
:1040A80060C0D9FF61C0DAFFC9CFDFFF120000018D
:1040B8006451651166116711D8B424D0010E686F78
:1040C80006D0D8906437653766376737682B67AF8F
:1040D800F8D76451605D65516159665162596751FD
:1040E8006359D8A008D06451605F6551615B66511F
:1040F800625B6751635BD8906733663365336433BB
:10410800682FE7D760C060F061C061F062C062F0FC
:1041180063C063F012007C0E0001606F000E616FD7
:1041280020EC25F0820E0001606F000E616F8CECB0
:1041380025F0000E0001866F070E866501D012007B
:1041480020EE7CF000EE64F0050EDBCFEBFFE80616
:10415800FCE282C06AF083C06BF084C06CF085C05A
:104168006DF0FF0E6E6FFF0E6F6FFF0E706FFF0E1C
:10417800716F93EC18F00001862BDED7000E00015A
:10418800666F000E676F000E686F000E696F60C083
:10419800D9FF61C0DAFFDF50C96EC7B015D066C05D
:1041A80062F067C063F068C064F069C065F0662BB0
:1041B800000E6723682369236551641105E16229AC
:1041C8000F0E6359D8A0E9D76951681105E166292E
:1041D8000F0E6759D8A0120081889BEC25F01200B9
:1041E8000001716F1FD06FC06AF070C06BF0A4EC53
:1041F80023F02C0E0001726F8198720E606F000E12
:10420800616FC2EC20F0000E1200730E0001606FA7
:10421800000E616F26EC20F00001735112008188B6
:10422800000E120000017151000AD8B4DCD7010A4F
:10423800D8B4EBD7030AD8B4F2D7000E1200000E98
:104248000001686F000E696F000E6A6F000E6B6FD9
:1042580060A108D0645168276551692366516A23B3
:1042680067516B23D8906437653766376737D890BE
:1042780063336233613360336051611162116311DA
:10428800D8A4E6D768C060F069C061F06AC062F07F
:104298006BC063F0120049C060F04AC061F04BC0C7
:1042A80062F04CC063F06D0E0001646F4E0E656FD6
:1042B800C60E666F410E676F23EC21F060C049F0AF
:1042C80061C04AF062C04BF063C04CF0390E492619
:1042D800300E4A22000E4B22000E4C22FF0E4B14C9
:1042E80000016C6F7F0E4C146D6F120016D098C0D1
:1042F800F6FF99C0F7FFF86A070EF76403D00800C5
:10430800F55005D0F6CFE9FFF7CFEAFFEF50AD6ED5
:104318000001984B992BACA2FED798C0F6FF99C024
:10432800F7FFF86A070EF76403D00800F55005D0C8
:10433800F6CFE9FFF7CFEAFFEF500009D8B4120033
:10434800D6D7000E0001666F000E656F62516311CB
:10435800D8B41CD0010E646F04D0D890623763378C
:10436800642B63AFFAD7D890653766376251605DC2
:1043780063516159D8A005D06251605F6351615B98
:104388006581D89063336233642FEDD765C060F0E0
:1043980066C061F012007AC082F07BC083F0000131
:1043A8007FAF10D07AC0D9FF7BC0DAFF2D0EDF6E49
:1043B8007A4B7B2B7F1F7E1F7D1F7C6D000E7D231C
:1043C8007E237F237AC06DF07BC06EF07CC06FF0D7
:1043D8007DC070F07EC071F07FC072F080C073F055
:1043E80081C074F09DEC17F01200000E066E000EEE
:1043F800056E03500410D8B41CD0010E076E04D00B
:10440800D89003360436072A04AEFAD7D890053672
:1044180006360350015C04500258D8A005D003505A
:10442800015E0450025A0580D89004320332072EE8
:10443800EDD705C001F006C002F012005F0E0001C2
:10444800986F7B0E996F7AEC21F09AC073F09BC03D
:1044580074F09CC075F09DC076F00DEC10F073C040
:1044680098F074C099F07AEC21F0D70E0001986F9B
:104478007F0E996F7AEC21F09AC0D7F19BC0D8F1E2
:104488009CC0D9F19DC0DAF14F801200060E0001E0
:1044980071256A6F000E72216B6F86EC23F06FC076
:1044A8007AF0000170517B6F2A0E7C6F81987C0E28
:1044B800606F000E616FC2EC20F07B0E0001606F30
:1044C800000E616FC2EC20F07A0E0001606F000EE2
:1044D800616FC2EC20F081881200010E0001726F3A
:1044E800000E746F000E736F000E716F710E6A6F9D
:1044F800000E6B6F740E15EC24F000017139E84260
:10450800070B070BE806D8A404D0000E746F000E42
:1045180003D0010E746F2D0E736F72C06EF073C0EE
:104528006FF074C070F01200760E00016A6F000E12
:104538006B6F1C0E15EC24F0770E00016A6F000EED
:104548006B6F1D0E15EC24F0000E0001706FFF0E4E
:10455800716F7751736F726B705172177151731756
:104568007651746F756B725174116E6F735175114A
:104578006F6F12000001626F15D0D20E0001606FDC
:104588007F0E616F1200E50E606F7F0E616F120083
:10459800E90E606F7F0E616F1200B80E606F7E0EBD
:1045A800616F120000016251010AD8B4E6D7070A08
:1045B800D8B4E9D7170AD8B4EBD7EFD710D0CD0EB7
:1045C8000001606F7F0E616F1200ED0E606F7F0E4D
:1045D800616F1200A60E606F7E0E616F120060C0E0
:1045E80062F061C063F000016351080AD8A4F2D7F1
:1045F8006251000AD8B4E3D7060AD8B4E6D7EAD796
:10460800000170517111D8B418D0010E726F04D026
:10461800D89070377137722B71AFFAD770516E5DC1
:1046280071516F59D8A004D070516E5F71516F5B92
:10463800D89071337033722FF1D76EC06EF06FC09F
:104648006FF01200000E0001666F050E666501D05E
:1046580018D06651010DF3506225D96EF4506321CC
:10466800DA6E6651010DF3506025E16EF450612158
:10467800E26EDE50E618D8B402D0D8901200662B4D
:10468800E4D7D8801200000E0001666F030E66653D
:1046980001D018D06651010DF3506225D96EF4503F
:1046A8006321DA6E6651010DF3506025E16EF45016
:1046B8006121E26EDE50E618D8B402D0D89012001C
:1046C800662BE4D7D88012000CEC26F0300E0001DF
:1046D80063196211D8A407D05F0E6F6FFE0E6E6F5C
:1046E800BAEC24F00BD00CEC26F0FE0E000162258B
:1046F8006E6FFF0E63216F6FBAEC24F0CC0EC3EC23
:1047080025F012006C0E00016C6F6AC06DF06B51E1
:104718006E6F81986C0E606F000E616FC2EC20F0B6
:104728006D0E0001606F000E616FC2EC20F06E0E1E
:104738000001606F000E616FC2EC20F081881200EA
:10474800640E00016C6F6AC06DF06B516E6F8198DA
:104758006C0E606F000E616FC2EC20F06D0E0001F0
:10476800606F000E616FC2EC20F06E0E0001606F8A
:10477800000E616FC2EC20F081881200000E00016B
:10478800606F070E606501D013D06051090D060EE9
:10479800F326000EF4228B0EF324D96E010EF420BA
:1047A800DA6EDF50D8A402D0D8901200602BE9D777
:1047B800D8801200000E0001606F070E606501D0FE
:1047C80013D06051090D060EF326000EF4228B0E4D
:1047D800F324D96E010EF420DA6EDF50D8B402D07B
:1047E800D8901200602BE9D7D880120000016C6FB6
:1047F800220E00016D6F81986D0E606F000E616F63
:10480800C2EC20F06C0E0001606F000E616FC2EC0C
:1048180020F06AC060F06BC061F0C2EC20F08188C3
:10482800120000016C6F200E00016D6F81986D0EF3
:10483800606F000E616FC2EC20F06C0E0001606FBB
:10484800000E616FC2EC20F06AC060F06BC061F0CE
:1048580026EC20F081881200B10E00017A6F020E5A
:104868007B6F84C07CF085C07DF086C07EF087C0F9
:104878007FF0000E816F0A0E806FCFEC21F0B10E31
:104888000001846F020E856F1200000E0001626F36
:10489800050E626501D00FD06251010DF3506025FD
:1048A800D96EF4506121DA6EDF50D8B402D0D890B6
:1048B8001200622BEDD7D8801200000E0001626F43
:1048C800030E626501D00FD06251010DF3506025CF
:1048D800D96EF4506121DA6EDF50D8B402D0D89086
:1048E8001200622BEDD7D88012003F3F3A3F3F3A83
:1048F8003F3F3A3F3F3A3F3F3A3F3F003F065B4F1B
:10490800666D7D077F6F00403F3F3F2E3F3F3F2E44
:104918003F3F3F2E3F3F3F006EC070F000016F5198
:10492800716F700E6A6F000E6B6F000EFAEC23F059
:10493800710E00016A6F000E6B6F010EFAEC23F026
:1049480012006EC070F000016F51716F700E6A6FC7
:10495800000E6B6F020EFAEC23F0710E00016A6F05
:10496800000E6B6F030EFAEC23F012006EC070F0AD
:1049780000016F51716F700E6A6F000E6B6F060E3B
:10498800FAEC23F0710E00016A6F000E6B6F070ED0
:10499800FAEC23F012006EC070F000016F51716FD5
:1049A800700E6A6F000E6B6F040EFAEC23F0710E36
:1049B80000016A6F000E6B6F050EFAEC23F012000F
:1049C800000160516203F3CF64F0F4CF65F06051E9
:1049D8006303F350652761516203F350652764C090
:1049E80060F065C061F0120072C06EF073C06FF0C5
:1049F80090EC24F076C06EF077C06FF0A5EC24F050
:104A0800D40EC3EC25F000017A5146EC25F01200D3
:104A1800000E00016E6F6E0E6A6F000E6B6F6F0EE8
:104A280015EC24F000016E8B6E0E6A6F000E6B6F32
:104A38006F0EFAEC23F01200000E0001626F050EF3
:104A4800626501D012006251010DF3506025D96EE4
:104A5800F4506121DA6E000EDF6E622BF0D7000E83
:104A68000001626F050E626501D012006251010DEE
:104A7800F3506025D96EF4506121DA6EFF0EDF6EB7
:104A8800622BF0D70001606F00016051090D060E1E
:104A9800F326000EF4228B0EF324D96E010EF420B7
:104AA800DA6E000EDF6E1200110EF66E7A0EF76ED9
:104AB80020EE62F00A0E0900F5CFDEFFE806FBE201
:104AC800620E0001606F000E616F12000001606FDE
:104AD8000A0E0001606103D06051300F1200100E01
:104AE800606103D06051370F1200000E12009AC0A7
:104AF80084F09BC085F09CC086F09DC087F030ECA8
:104B080024F084C098F085C099F07AEC21F0120066
:104B1800000E0001626F030E626501D0120060C0D2
:104B2800D9FF61C0DAFF000EDF6E622BF4D7C69A98
:104B3800C78C93800F015C9193925C9393965C97DA
:104B480093985C998188C68A1200F80E8216F80E2E
:104B58009416000E926E000E0F015B6FF80E5D1733
:104B680080681200000E00016E6F6E0E6A6F000EF4
:104B78006B6F1A0E15EC24F000016E511200000143
:104B88006A6F81986A0E0001606F000E616FC2EC57
:104B980020F08188120060C03CF061C03DF04FB049
:104BA80002D0D8901200D8801200B6EC25F0000987
:104BB800D8B402D0010E1200000E1200D7C160F066
:104BC800D8C161F0D9C162F0DAC163F01200DBC16B
:104BD80060F0DCC161F0DDC162F0DEC163F012009B
:104BE80029C060F02AC061F02BC062F02CC063F0CD
:104BF8001200AC8AAC98AB8EAC8CAC80030EAF6E56
:104C080012007AC049F07BC04AF04B6A4C6A120025
:104C180026EC26F060C062F061C063F0120000016B
:104C2800726F000172514AEC1DF01200010E292624
:104C3800000E2A222B222C2212008FEC20F03AECB4
:104C480026F0120042C060F043C061F0120060C05C
:104C580042F061C043F01200E80EC3EC25F01200E8
:104C6800010000001234B6EC25F012004F9012003B
:107A100000454E433432344A3630300049507634D3
:107A20003A20466C616720776173207265736574D4
:107A30002062656361757365206164647265737348
:107A4000206368616E67652077617320756E73755A
:107A5000636365737366756C2E0A0D004950763446
:107A60003A20466C61672077617320726573657494
:107A70002062656361757365206164647265737308
:107A8000206368616E676520697320636F6D706C39
:107A90006574652E0A0D0045746865726E65742004
:107AA000636F6E74726F6C6C6572206861732072A4
:107AB000657475726E656420616E20756E6B6E6F95
:107AC000776E206465766963652049442E002D2D0C
:107AD0002D2D2D2D2D2D2D2D2D2D2D2D2D2D2D2DD6
:107AE0002D2D2D2D2D2D2D2D2D2D2D2D2D2D2D2DC6
:107AF0002D2D2D2D2D2D2D2D2D2D2D2D2D2D0A0DF9
:107B000000072A2A2A20435249544943414C204520
:107B100052524F523A205741544348444F47204312
:107B20004155534544205245534554202A2A2A0A98
:107B30000D00495076343A204152502073656E74DE
:107B4000206D6178696D756D206E756D626572204E
:107B50006F662072657175657374732E0A0D004926
:107B60005076343A205265717565737420666F7271
:107B7000206E657720495020736F757263652061B0
:107B80006464726573732028004152503A20576133
:107B90006974696E672074696D65206265747765C4
:107BA000656E207468652070726F626573206973FA
:107BB0002000495076343A20415250207265747545
:107BC000726E656420616E20756E6B6E6F776E20CD
:107BD0006572726F722E0A0D005B496E76616C6978
:107BE0006420415250204D65737361676520776151
:107BF00073206469736361726465642E5D0D0A00AD
:107C0000207761732073657420746F207468652019
:107C10007072656C696D696E6172792061646472FD
:107C200065737320280045746865726E65742063FF
:107C30006F6E74726F6C6C657220697320756E72F2
:107C40006573706F6E736976652E004152503A20ED
:107C500049507634206164647265737320616C727C
:107C60006561647920696E20757365210A0D00498C
:107C70005076343A204164647265737320697320CE
:107C8000616C726561647920696E207573652E0A76
:107C90000D004950206164647265737320636F75D1
:107CA0006C64206E6F74206265207265736F6C76F1
:107CB00065642E004152503A20416E20756E6B6E05
:107CC0006F776E206572726F72206F636375726575
:107CD000642E0A0D00495076343A204152502072E9
:107CE000657475726E656420737563636573732E56
:107CF0000A0D004152503A2057616974696E67203D
:107D0000746F2073656E642070726F62652E0A0D49
:107D1000004152503A20466F756E642061207661B2
:107D20006C696420656E74727920666F7220002021
:107D300045544845524E455420434F4E54524F4CA3
:107D40004C4552204D4F44554C453A2000416E2041
:107D5000756E6B6E6F776E206572726F72206861E0
:107D600073206F6363757265642E00636F6E6E655A
:107D70006374696F6E2069732048616C6620447576
:107D8000706C65782E0A0D00636F6E6E65637469A2
:107D90006F6E2069732046756C6C204475706C653D
:107DA000782E0A0D004152503A205072657061726F
:107DB000696E672070726F62652E2E2E0A0D00416B
:107DC00052503A204E6F626F647920616E7377650E
:107DD0007265642E0A0D004649524D5741524520A6
:107DE0004255494C442044415445204953200049C0
:107DF0005076343A204F6C642049502053726320EF
:107E0000416464722000536F75726365204D414375
:107E1000206164647265737320697320004152505D
:107E20003A2053656E64696E672070726F626520D8
:107E30002300537065656420697320313030204D14
:107E40006270732C20005B556E6B6E6F776E2045F1
:107E500074686572547970655D005B494E56414C9B
:107E6000494420434845434B53554D5D005370658D
:107E70006564206973203130204D6270732C2000BE
:107E80004C696E6B2065737461626C6973686564BC
:107E90002E20002045544845524E4554204D4F4415
:107EA000554C453A2000556E6B6E6F776E204574C9
:107EB0006865725479706500556E6B6E6F776E20D1
:107EC00050726F746F636F6C00204D454D4F525967
:107ED000204D4F44554C453A20005B5265706C79FB
:107EE0002073656E7420746F20005B53796D626F30
:107EF0006C204572726F72735D005B4973477261EB
:107F0000747569746F75735D002049507634204D27
:107F10004F44554C453A200020415250204D4F448B
:107F2000554C453A20004152503A205761697465DA
:107F30006420004C696E6B206C6F73742E0A0D0008
:107F40002064657465637465642E20004D61722041
:107F500031372032303139005B42726F61646361C6
:107F600073745D005B457870656374656420003AE6
:107F70002057686F2068617320005B497350726FEF
:107F800062655D005B556E69636173745D002028F6
:107F9000436F64653A200031353A30393A3539005B
:107FA0005B4552524F525D002C20676F74200020B9
:107FB0006D732E0A0D005B495076345D005B4152B3
:107FC000505D00202D3E20005D2D3E5B0049507627
:107FD000340049434D5000292E0A0D005D5B4C3D95
:107FE000003F0A0D00544350005544500041525088
:107FF000005D20002D3E005D5B00295D0012000049
:020000040020DA
:08000000FFFFFFFFFFFFFFFF00
:020000040030CA
:0E00000002285F2BFFD385FF0FC00FE00F40DB
:00000001FF
