:0400000074EF00F0A9
:100008005182FACF17F0FBCF18F0E9CF19F0EACFF9
:100018001AF0E1CF1BF0E2CF1CF0D9CF1DF0DACFF8
:100028001EF0F3CF1FF0F4CF20F0F6CF21F0F7CF7A
:1000380022F0F8CF23F0F5CF24F051C025F052C0BC
:1000480026F053C027F054C028F09EA412D09E94E6
:1000580081AC02D0010E01D0000EFF0A166E163ACE
:100068001646164681501618BF0B1618816E28ECD6
:1000780031F0F2A40DD0F29439C00FF03AC010F06C
:10008800CCEC24F08A0E016E020E026E34EC26F0DF
:10009800F0B2F09228C054F027C053F026C052F0B6
:1000A80025C051F024C0F5FF23C0F8FF22C0F7FF98
:1000B80021C0F6FF20C0F4FF1FC0F3FF1EC0DAFF07
:1000C8001DC0D9FF1CC0E2FF1BC0E1FF1AC0EAFF38
:1000D80019C0E9FF18C0FBFF17C0FAFF51921100C1
:1000E8004BEF28F093EC1EF078C0D1F279C0D2F231
:1000F8000201D1A744D0220ECA250001806F000E4C
:100108000201CB210001816FC1EC27F0020120EE32
:1001180022F0CA51D926CB51DA22DE04D8A41ED047
:10012800000E00016E6F000E7AEC27F0020E00013F
:100138006E6F010E7AEC27F0020120EE77F0CA51BB
:10014800D926CB51DA22DECF60F0DECF61F0DECFE8
:1001580062F0DECF63F0D2EC30F00ED0010E000179
:100168006E6F000E7AEC27F0010E00016E6F010E23
:100178007AEC27F001EC2AF00B0E21EC31F00201A9
:10018800D1A90BD0EFEC30F00009D8B406D0CAC220
:10019800FCF1CBC2FDF169EC05F00201D2A336D027
:1001A800170E0001986F7F0E996F42EC2CF0FD0E30
:1001B8000001986F7F0E996F42EC2CF0DE0E000163
:1001C800986F780E996F42EC2CF0560E0001986FDC
:1001D800790E996F42EC2CF0900E0001986F790E11
:1001E800996F42EC2CF0D70E0001986F7F0E996F33
:1001F80042EC2CF0DD0E0001986F7F0E996F42ECF7
:100208002CF04BEC31F0DBEC26F0FF00020120EE85
:1002180034F0CA51D926CB51DA22DE04D8B447D1FA
:1002280050D120EE39F0CA51D926CB51DA222FEC21
:1002380031F0DE500001605DDE506159D8B002D067
:10024800010EB4D0020E0201676F20EE35F0CA51DC
:10025800D926CB51DA2213EE00F0410EDBCFE3FFB3
:10026800E806FCE22ED120EE35F0CA51D926CB5152
:10027800DA2213EE00F0410EDBCFE3FFE806FCE2E2
:100288006651D8A407D02FEC31F060C034F361C0B8
:1002980035F31CD02FEC31F00101FE510201CC6F77
:1002A800CD6B000160510201CC5D0001615102017A
:1002B800CD59D8A007D02FEC31F060C034F361C01D
:1002C80035F304D0FEC134F30301356B0301345117
:1002D8003025326F35513121336F345100080425F0
:1002E8000101FE6F32C362F233C363F230C384F09C
:1002F80031C385F00001866B876B11EC2FF084C049
:1003080098F085C099F042EC2CF0CD0E0001986F62
:100318007F0E996F42EC2CF032C384F033C385F022
:100328000001866B876B11EC2FF084C098F085C0B4
:1003380099F042EC2CF0EF0E0001986F7F0E996F48
:1003480042EC2CF034C384F035C385F00001866B91
:10035800876B11EC2FF084C098F085C099F042ECBF
:100368002CF0EC0E0001986F7F0E996F42EC2CF088
:10037800770E0001986F7D0E996F42EC2CF0010109
:10038800FE510001846F856B866B876B11EC2FF033
:1003980084C098F085C099F042EC2CF0DD0E000185
:1003A800986F7F0E996F42EC2CF0020E020125D057
:1003B80020EE35F0CA51D926CB51DA2201EE34F0BD
:1003C800410EDBCFEBFFE806FCE2B3EC1BF034C1D7
:1003D800D3F235C1D4F236C1D5F20201662B030E31
:1003E800D319D8B449D06DD020EE34F0CA51D926EB
:1003F800CB51DA22000EDF6E000E676F62D0170E47
:100408000001986F7F0E996F42EC2CF0B50E000139
:10041800986F7C0E996F42EC2CF0020120EE48F0A8
:10042800CA51D926CB51DA22DECF73F0DECF74F071
:10043800DECF75F0DECF76F096EC16F073C098F04C
:1004480074C099F042EC2CF0D70E0001986F7F0E23
:10045800996F42EC2CF0DD0E0001986F7F0E996FBA
:1004680042EC2CF0020120EE34F0CA51D926CB51CF
:10047800DA22000EDF6E25D022EED4F0DECFCCF2E9
:10048800DDCFCDF2CD51000AD8B404D0010AD8B4DA
:1004980006D017D0CC51000AD8B4A6D712D0CC5168
:1004A800910AD8B40ED0050AD8B4A9D70AD0675192
:1004B800000AD8B4B6D6010AD8B4D5D6030AD8B437
:1004C80077D720EE22F0CA51D926CB51DA22DF5055
:1004D80074EC1CF051C1CEF252C1CFF253C1D0F22C
:1004E800020120EE22F0CA51D926CB51DA22DF5080
:1004F8003FEC1FF060C0D3F261C0D4F262C0D5F205
:10050800040E0201D319D8A41200F50ED4196EE115
:10051800D505D8A41200170E0001986F7F0E996FA9
:1005280042EC2CF02B0E0001986F7B0E996F42EC79
:100538002CF0D70E0001986F7F0E996F42EC2CF0CB
:1005480086EC2DF0020120EE77F0CA51D926CB5166
:10055800DA22000174C0DEFF75C0DEFF76C0DEFF60
:1005680077C0DEFF170E986F7F0E996F42EC2CF064
:10057800500E0001986F7B0E996F42EC2CF002012F
:1005880020EE77F0CA51D926CB51DA22DECF73F0AC
:10059800DECF74F0DECF75F0DECF76F096EC16F095
:1005A80073C098F074C099F042EC2CF0DD0E000195
:1005B800986F7F0E996F42EC2CF0D70E0001986F60
:1005C8007F0E996F42EC2CF0020120EE77F0CA51B1
:1005D800D926CB51DA22DECF60F0DECF61F0DECF54
:1005E80062F0DECF63F0D2EC30F012001200000EA1
:1005F8000001A16F84518511D8A40CD0010E9F6F02
:1006080020EE98F000EE84F0080EDBCFEBFFE80652
:10061800FCE2120089EC2EF0D8A00DD0010E0001EA
:100628009F6F20EE98F000EE84F0080EDBCFEBFF12
:10063800E806FCE21200A5EC2EF0D8A038D2300E65
:100648000001855DD8A00CD0010E9F6F20EE98F0B8
:1006580000EE84F0080EDBCFEBFFE806FCE21200A8
:10066800000E0201016F000E006F84C002F285C007
:1006780003F284C004F285C005F2010E066F000E75
:10068800086F22EE00F000EE84F0080EDBCFEBFFDF
:10069800E806FCE212000001A151090D060EF3263E
:1006A800000EF422000EF324D96E020EF420DA6E46
:1006B800DF50D8A4EBD1A151D8B407D0FF0EA125A3
:1006C800936F946BFF0E942304D0000E946F070E63
:1006D800936F93C060F094C061F0000E636F090ED1
:1006E800626FD9EC2FF0020E00016027000E612323
:1006F800000E6025D96E020E6121DA6EDECF8DF014
:10070800DDCF8EF0010E8D27000E8E23A151090D2D
:10071800000EF324D96E020EF420DA6E8DC0DEFFCF
:100728008EC0DDFFA151090D000EF324D96E020E13
:10073800F420DA6EDECF8DF0DDCF8EF084518D2778
:1007480085518E238D05300E8E59D8A0CFD0070E37
:10075800A119D8A4CBD002010651D8A4C7D0000152
:10076800A151090D040EF326000EF422000EF32405
:10077800D96E020EF420DA6E84C0DEFF85C0DDFF7C
:10078800A151090D040EF326000EF422000EF324E5
:10079800D96E020EF420DA6EDECF8DF0DDCF8EF04A
:1007A800FF0E8F6F2F0E906FA151090D000EF324CD
:1007B800D96E020EF420DA6EDECF91F0DDCF92F022
:1007C800911F921F914B922B8F51912790519223F9
:1007D800911F921F914B922B8D5191278E519223ED
:1007E800A151090D020EF326000EF422000EF32487
:1007F800D96E020EF420DA6E91C0DEFF92C0DDFFE2
:10080800000E966F070E966501D044D0A151961937
:10081800D8B43ED0A151090D000EF324D96E020EB2
:10082800F420DA6E00EE72F0080EDBCFEBFFE8067C
:10083800FCE29651090D000EF324D96E020EF42045
:10084800DA6E00EE7BF0080EDBCFEBFFE806FCE289
:1008580041EC22F00001D8A01BD09651090D060EDC
:10086800F326000EF422000EF324D96E020EF420B3
:10087800DA6EDF50D8B40CD0010E9F6F20EE98F0DE
:1008880000EE84F0080EDBCFEBFFE806FCE2120076
:10089800962BB8D7A151090D060EF326000EF422A7
:1008A800000EF324D96E020EF420DA6E010EDF6E0C
:1008B800A151090D080EF326000EF422000EF324B0
:1008C800D96E020EF420DA6EA1C0DFFFA151090D26
:1008D800000EF324D96E020EF420DA6E00EE84F0D6
:1008E800080EDBCFEBFFE806FCE21200010E000168
:1008F800956FA151090D000EF324D96E020EF42054
:10090800DA6EDECF8DF0DDCF8EF084518D278551E4
:100918008E23A151090D020EF326000EF422000EBB
:10092800F324D96E020EF420DA6E8DC0DEFF8EC07D
:10093800DDFF000E976F070E976501D03AD0A151E1
:100948009719D8B434D09751090D060EF326000E26
:10095800F422000EF324D96E020EF420DA6EDF5072
:10096800D8B425D0A151090D000EF324D96E020E7A
:10097800F420DA6E00EE72F0080EDBCFEBFFE8062B
:10098800FCE29751090D000EF324D96E020EF420F3
:10099800DA6E00EE7BF0080EDBCFEBFFE806FCE238
:1009A80041EC22F00001D8A002D0000E956F972BE1
:1009B800C2D79551D8B46AD0A151090D060EF326B5
:1009C800000EF422000EF324D96E020EF420DA6E23
:1009D800010EDF6EA151090D000EF324D96E020E2F
:1009E800F420DA6EDECF8DF0DDCF8EF084518D27C6
:1009F80085518E23A151090D020EF326000EF42213
:100A0800000EF324D96E020EF420DA6E8DC0DEFFDC
:100A18008EC0DDFFA151090D070EF326000EF4224A
:100A2800000EF324D96E020EF420DA6E000EDF6E8B
:100A3800A151090D040EF326000EF422000EF32432
:100A4800D96E020EF420DA6E84C0DEFF85C0DDFFA9
:100A5800A151090D080EF326000EF422000EF3240E
:100A6800D96E020EF420DA6EA1C0DFFFA151090D84
:100A7800000EF324D96E020EF420DA6E00EE84F034
:100A8800080EDBCFEBFFE806FCE21200A12B080EF4
:100A9800A119D8A40CD0010E9F6F20EE98F000EE9B
:100AA80084F0080EDBCFEBFFE806FCE21200080E2C
:100AB8000001A165F0D520EE98F000EE84F0080E54
:100AC800DBCFEBFFE806FCE21200020E0201C76F63
:100AD800000EC96F000EC86F01EC31F0010120EE65
:100AE8001EF0FC51D926FD51DA22000160C0DEFF5C
:100AF80061C0DEFF62C0DEFF63C0DEFF1AEC31F0CA
:100B0800010120EE10F0FC51D926FD51DA22000136
:100B180062C0DEFF63C0DDFF4EEC29F0010120EE6C
:100B280016F0FC51D926FD51DA22010EDF6E20EEB7
:100B380010F0FC51D926FD51DA22DECF71F0DDCF5D
:100B480072F0C7EC29F0010120EE19F0FC51D9260A
:100B5800FD51DA22040EEBCFDBFFE806FCE220EEC3
:100B680019F0FC51D926FD51DA2210EE14F0FC518F
:100B7800E126FD51E222DECFE6FFDDCFE5FF20EEE4
:100B880014F0FC51D926FD51DA22DECFBFF2DDCFB9
:100B9800C0F220EE10F0FC51D926FD51DA22DECF4A
:100BA800C1F2DDCFC2F20201BF51C127C051C22339
:100BB800600EC25DD8A040D0000EBF6F300EC06F6F
:100BC800010120EE14F0FC51D926FD51DA22DECFC6
:100BD800C1F2DDCFC2F2FF0E0201C36F2F0EC46F48
:100BE800010120EE10F0FC51D926FD51DA22DECFAA
:100BF800C5F2DDCFC6F20201C51FC61FC54BC62B05
:100C0800C351C527C451C623C51FC61FC54BC62B14
:100C1800C151C527C251C623BF51C527C051C623DC
:100C2800010120EE12F0FC51D926FD51DA22C5C28D
:100C3800DEFFC6C2DDFF25D0010120EE14F0FC5115
:100C4800D926FD51DA22DECFBFF2DDCFC0F220EE89
:100C580010F0FC51D926FD51DA22DECFC1F2DDCFEA
:100C6800C2F20201BF51C127C051C223010120EEC7
:100C780012F0FC51D926FD51DA22C1C2DEFFC2C2F0
:100C8800DDFF20EE10F0FC51D926FD51DA2200EEEE
:100C98006FF0080EDBCFEBFFE806FCE2AEEC2AF0C3
:100CA800010120EE0EF0FC51D926FD51DA22000197
:100CB8006FC0DEFF70C0DDFFBC0E986F7F0E996FAE
:100CC80042EC2CF05BC284F05CC285F05DC286F019
:100CD8005EC287F011EC2FF084C098F085C099F0BF
:100CE80042EC2CF0010E02015B27000E5C235D2311
:100CF8005E23AC0E0001986F7F0E996F42EC2CF0CA
:100D0800010120EE1BF0FC51D926FD51DA22DFAE9D
:100D180007D0230E0001986F7F0E996F42EC2CF0DC
:100D2800010120EE1DF0FC51D926FD51DA22DFA485
:100D380007D07C0E0001986F7F0E996F42EC2CF063
:100D4800010120EE1BF0FC51D926FD51DA22DFBA51
:100D5800D9D05D0E0001986F7F0E996F42EC2CF090
:100D6800660E0001986F7E0E996F42EC2CF0D70E3C
:100D78000001986F7F0E996F42EC2CF0C3D02F0EB4
:100D88000001986F7F0E996F42EC2CF0AE0E0001B7
:100D9800986F7F0E996F42EC2CF0D70E0001986F78
:100DA8007F0E996F42EC2CF0FCC1FCF0FDC1FDF008
:100DB8008DEC17F0BFD03B0E0001986F7F0E996F36
:100DC80042EC2CF0A70E0001986F7F0E996F42EC51
:100DD8002CF0D70E0001986F7F0E996F42EC2CF023
:100DE800FCC1CFF1FDC1D0F12BEC13F0A3D05D0E07
:100DF8000001986F7F0E996F42EC2CF0B40E000141
:100E0800986F7D0E996F42EC2CF0BC0E0001986F24
:100E18007F0E996F42EC2CF0010120EE02F0FC519C
:100E2800D926FD51DA2200EE7AF0050EDBCFEBFF72
:100E3800E806FCE255EC23F07AC098F07BC099F004
:100E480042EC2CF0F50E0001986F7F0E996F42EC82
:100E58002CF0010120EE08F0FC51D926FD51DA22D0
:100E680000EE7AF0050EDBCFEBFFE806FCE255EC6E
:100E780023F07AC098F07BC099F042EC2CF0F80E81
:100E88000001986F7F0E996F42EC2CF0010120EE63
:100E98000EF0FC51D926FD51DA22DECF60F0DDCF0D
:100EA80061F0A9EC2DF060C098F061C099F042ECB7
:100EB8002CF0D20E0001986F7F0E996F42EC2CF047
:100EC800FCC1D9FFFDC1DAFFDECFBFF2DDCFC0F232
:100ED800BFC29AF0C0C29BF000019C6B9D6B5EEC98
:100EE80030F0F20E0001986F7F0E996F42EC2CF0F3
:100EF800D70E0001986F7F0E996F42EC2CF02FEC03
:100F08002EF018D0010120EE0EF0FC51D926FD512B
:100F1800DA22DECFBFF2DDCFC0F20201C051080AEB
:100F2800D8A465D7BF51000AD8B445D7060AD8B4A3
:100F380026D75DD7DD0E0001986F7F0E996F42ECC2
:100F48002CF01200000E00016B6F000E6C6F000E8B
:100F58006D6F000E6E6F000E6A6F20EE02F060512A
:100F6800D9266151DA22DF50626F636BD8906237FD
:100F78006337D8906237633720EE01F06051D92685
:100F88006151DA22DF50646F6451666F656B60C02F
:100F9800D9FF61C0DAFFDF50676F686B0C0ED8901D
:100FA80067376837E82EFBD76551671366516813B2
:100FB800625167136351681320EE03F06051D9261C
:100FC8006151DA22DF50696F69516713000E6813A7
:100FD80067C06BF068C06CF06D6B6E6B6E5103E1AF
:100FE8006D05D8A012D0FF0E6B156B6FFF0E6C1538
:100FF8006C6F000E6D156D6F000E6E156E6F010E25
:101008006B27000E6C236D236E2320EE04F06051D5
:10101800D9266151DA22DECF62F0DDCF63F062516A
:101028006B2763516C23000E6D23000E6E236E51E7
:1010380003E16D05D8A012D0FF0E6B156B6FFF0E84
:101048006C156C6F000E6D156D6F000E6E156E6F62
:10105800010E6B27000E6C236D236E2320EE06F025
:101068006051D9266151DA22DECF62F0DDCF63F01C
:1010780062516B2763516C23000E6D23000E6E23A3
:101088006E5103E16D05D8A012D0FF0E6B156B6F82
:10109800FF0E6C156C6F000E6D156D6F000E6E15E2
:1010A8006E6F010E6B27000E6C236D236E2320EEEE
:1010B80009F06051D9266151DA22DECF62F0DDCF26
:1010C80063F020EE08F06051D9266151DA22DF5032
:1010D800646F656B0D0ED89064376537E82EFBD7C3
:1010E800625164136351651364516B2765516C2316
:1010F800000E6D23000E6E236E5103E16D05D8A01E
:1011080012D0FF0E6B156B6FFF0E6C156C6F000E17
:101118006D156D6F000E6E156E6F010E6B27000E4C
:101128006C236D236E2320EE0BF06051D92661519C
:10113800DA22DF50626F6251646F636B20EE0CF04D
:101148006051D9266151DA22DF50656F655163130A
:10115800000E641363516B2764516C23000E6D23DA
:10116800000E6E236E5103E16D05D8A012D0FF0E5C
:101178006B156B6FFF0E6C156C6F000E6D156D6F38
:10118800000E6E156E6F010E6B27000E6C236D231B
:101198006E2320EE0FF06051D9266151DA22DF501C
:1011A800626F6251646F636B20EE10F06051D92654
:1011B8006151DA22DF50656F666B635165136451C4
:1011C800661365516B2766516C23000E6D23000E64
:1011D8006E236E5103E16D05D8A012D0FF0E6B157A
:1011E8006B6FFF0E6C156C6F000E6D156D6F000E3A
:1011F8006E156E6F010E6B27000E6C236D236E2328
:1012080020EE11F06051D9266151DA22DF50626F69
:101218006251646F636B20EE12F06051D926615100
:10122800DA22DF50656F666B63516513645166138C
:1012380065516B2766516C23000E6D23000E6E23DB
:101248006E5103E16D05D8A012D0FF0E6B156B6FC0
:10125800FF0E6C156C6F000E6D156D6F000E6E1520
:101268006E6F010E6B27000E6C236D236E2320EE2C
:1012780013F06051D9266151DA22DF50626F625152
:10128800646F636B20EE14F06051D9266151DA2245
:10129800DF50656F666B6351651364516613655162
:1012A8006B2766516C23000E6D23000E6E236E5162
:1012B80003E16D05D8A012D0FF0E6B156B6FFF0E02
:1012C8006C156C6F000E6D156D6F000E6E156E6FE0
:1012D800010E6B27000E6C236D236E2320EE15F094
:1012E8006051D9266151DA22DF50626F6251646F12
:1012F800636B20EE16F06051D9266151DA22DF5077
:10130800656F666B635165136451661365516B278E
:1013180066516C23000E6D23000E6E236E5103E19F
:101328006D05D8A012D0FF0E6B156B6FFF0E6C15F4
:101338006C6F000E6D156D6F000E6E156E6F010EE1
:101348006B27000E6C236D236E23FF0E6B156B6FDE
:10135800FF0E6C156C6F000E6D156D6F000E6E151F
:101368006E6F6BC062F06CC063F06DC064F06EC0ED
:1013780065F0621F631F641F651F62C06BF063C066
:101388006CF064C06DF065C06EF020EE0DF0605139
:10139800D9266151DA226BC0DEFF6CC0DDFF120076
:1013A800000E00019C6F160E9B6F20EE10F074511A
:1013B800D9267551DA22DECF94F0DDCF95F09B5116
:1013C80094256F6F9C519521706F000EB9EC2BF02E
:1013D800000120EE10F07451D9267551DA22DECFC3
:1013E80094F0DDCF95F09B5194256F6F9C5195211A
:1013F800706F010EB9EC2BF000019E6F9D6B20EE13
:1014080010F07451D9267551DA22DECF94F0DDCF71
:1014180095F09B5194256F6F9C519521706F010E2B
:10142800B9EC2BF00001966F96519D1320EE10F049
:101438007451D9267551DA22DECF94F0DDCF95F0BC
:101448009B5194256F6F9C519521706F010EB9ECDB
:101458002BF00001A06F9F6B20EE10F07451D9267D
:101468007551DA22DECF94F0DDCF95F09B519425AB
:101478006F6F9C519521706F010EB9EC2BF0000134
:10148800966F96519F1320EE10F07451D92675511E
:10149800DA22DECF94F0DDCF95F09B5194256F6F63
:1014A8009C519521706F010EB9EC2BF00001A16FD2
:1014B80020EE10F07451D9267551DA22DECF94F05F
:1014C800DDCF95F09B5194256F6F9C519521706FDE
:1014D800010EB9EC2BF00001A26F20EE10F0745150
:1014E800D9267551DA22DECF94F0DDCF95F09B51E5
:1014F80094256F6F9C519521706F010EB9EC2BF0FC
:101508000001A46FA36B20EE10F07451D926755119
:10151800DA22DECF94F0DDCF95F09B5194256F6FE2
:101528009C519521706F010EB9EC2BF00001966F5C
:101538009651A313000E976F24D020EE10F074512B
:10154800D9267551DA22DECF94F0DDCF95F09B5184
:1015580094256F6F9C519521706F010EB9EC2BF09B
:101568000001966F9751010D080EF326000EF42224
:101578009D0EF324D96E000EF420DA6E96C0DFFFBC
:10158800972BA151975DD8A0D8D7000E986F24D07B
:1015980020EE10F07451D9267551DA22DECF94F07E
:1015A800DDCF95F09B5194256F6F9C519521706FFD
:1015B800010EB9EC2BF00001966F9851010D0E0E3B
:1015C800F326000EF4229D0EF324D96E000EF420AB
:1015D800DA6E96C0DFFF982BA251985DD8A0D8D7B5
:1015E800000E996F24D020EE10F07451D926755151
:1015F800DA22DECF94F0DDCF95F09B5194256F6F02
:101608009C519521706F010EB9EC2BF00001966F7B
:101618009951010D120EF326000EF4229D0EF324AB
:10162800D96E000EF420DA6E96C0DFFF992BA15117
:10163800995DD8A0D8D7000E9A6F24D020EE10F06C
:101648007451D9267551DA22DECF94F0DDCF95F0AA
:101658009B5194256F6F9C519521706F010EB9ECC9
:101668002BF00001966F9A51010D180EF326000E0B
:10167800F4229D0EF324D96E000EF420DA6E96C083
:10168800DFFF9A2BA2519A5DD8A0D8D720EE10F090
:101698007451D9267551DA22DECF94F0DDCF95F05A
:1016A8009B5194256F6F9C519521706F020EB9EC78
:1016B8002BF0AB0E0001606F000E616F42EC2FF053
:1016C8000001D8A002D0B9833CD0B993AB0E606FAB
:1016D800000E616FB50E626F000E636F0EEC2EF098
:1016E8000001D8A00DD0AF0E606F000E616F2AEC1C
:1016F8002FF00001D8A004D0A305A411D8B41FD09E
:10170800AB0E606F000E616FB50E626F000E636FF7
:101718000EEC2EF00001D8A014D0A50E606F000EBC
:10172800616FAF0E626F000E636FEDEC2DF000017C
:10173800D8A007D0020EA319A411D8A402D0B98149
:1017480001D0B9919D059E11D8A413D0080EA019F7
:101758009F11D8A40ED0A4510CE1030EA35DD8B0FC
:1017680008D0060EA119D8A404D0040EA219D8B422
:1017780004D0010EBC6F950E03D0000EBC6F000E96
:10178800BB6F030EBA6F20EE9DF000EE74F01F0ED3
:10179800DBCFEBFFE806FCE21200FC0ED316D350B9
:1017A8008F0B6009D36ED288F29EF28AF0889F9AD6
:1017B8009D8AF28CD58ED58CD59AD596D550F80BB6
:1017C8000509D56ECD80BD50F00B0B09BD6E1F0EFF
:1017D800BF6E400EBE6E9D84F28C939C12EC31F06D
:1017E800ACEC30F0680E0201D66FE40EE82EFED79E
:1017F800D62FFCD700F0FB0E0001986F7F0E996F73
:1018080042EC2CF0D0B62AD0170E0001986F7F0E4C
:10181800996F42EC2CF0FD0E0001986F7F0E996FC6
:1018280042EC2CF0010E0001986F7A0E996F42EC91
:101838002CF0360E0001986F7A0E996F42EC2CF05E
:10184800990E0001986F790E996F42EC2CF0D70E23
:101858000001986F7F0E996F42EC2CF0040E000186
:10186800986F7D0E996F42EC2CF00B0E0001986F6B
:101878007F0E996F42EC2CF0ED0E0001986F7F0EF1
:10188800996F42EC2CF08F0E0001986F7F0E996FC4
:1018980042EC2CF0C90E0001986F7F0E996F42EC54
:1018A8002CF0DBEC26F07AC096F47BC097F47CC071
:1018B80098F4040197519811D8B408D096C49AF0B6
:1018C80097C49BF098C49CF019EC21F012EC2DF011
:1018D8006EC096F46FC097F470C098F404019751E5
:1018E8009811D8A40FD04CEC30F060C098F061C0CB
:1018F80099F042EC2CF0FF0E0001986F7E0E996F64
:1019080042EC2CF0360E0001986F7D0E996F42EC78
:101918002CF03BEC2AF0E9CFD9FFEACFDAFF00EE52
:101928007AF0050EDBCFEBFFE806FCE255EC23F07E
:101938007AC098F07BC099F042EC2CF0C90E0001F7
:10194800986F7F0E996F42EC2CF0030E0001986F90
:101958007A0E996F42EC2CF035EC31F0000E000154
:101968006E6F000E7AEC27F0000E00016E6F000E0D
:101978007AEC27F0150E0201D76F4B0ED66FBE0E0C
:10198800E82EFED7D62FFCD7D72FFAD700F0010EB6
:1019980000016E6F000E7AEC27F0010E00016E6FE9
:1019A800000E7AEC27F0000E0401706F000E716FC4
:1019B800000E726F000E736F0F015C9B938AA90E65
:1019C80004019B6FFE0E9C6F6C0E9D6F870E9E6FC1
:1019D800F28EF28C3BEC2AF0050EE926000EEA2284
:1019E800EF500201D66FD65100017A6F7B6B0AEC7B
:1019F80031F086EC2DF074C0B9F375C0BAF376C037
:101A0800BBF377C0BCF30400420E0201CA6F030E99
:101A1800CB6F76EC00F023EE64F000EE9AF00E0E39
:101A2800DBCFEBFFE806FCE28AEC26F00301645109
:101A3800D8B409D048EC31F00201D66FD651040170
:101A4800946F956B05D0030E0401956FE80E946FA3
:101A580094C439F095C43AF0000E3ABEFF0E3B6EBE
:101A68003C6E02018A51D8B4CED7000E8A6F0301AA
:101A78006405D8A4C8D7050E786F110E836F9BC470
:101A88008AF39CC48BF39DC48CF39EC48DF3E6EC5F
:101A980030F060C086F361C087F362C088F363C02A
:101AA80089F3050E03017C6FDC0E7B6F8269040EDF
:101AB800776F770E0001606F030E616FA6EC07F079
:101AC80023EE77F000EE60F0160EDBCFEBFFE806B2
:101AD800FCE2740E0001776F040E786F30EC1DF095
:101AE800770E0001A76F030EA86FE4EC1FF0000E3D
:101AF80004019A6F000E996F2ED003017851040DDE
:101B0800F3500401995DF4509A59D8B013D023EEDC
:101B180077F000EE7EF0410EDBCFEBFFE806FCE24B
:101B2800740E9925D96E040E9A21DA6EDF507FEC77
:101B380030F00ED023EE77F000EE7EF0410EDBCFD2
:101B4800EBFFE806FCE204019951EC0F7FEC30F062
:101B58000401994B9A2B03017B510401995D030100
:101B68007C5104019A59D8A0C8D7010E0301766F99
:101B78004AD7000E0001656FFF0E666F20EE01F078
:101B88006051D9266151DA22DF50676F6751696F5A
:101B9800686B655168176651691760C0D9FF61C0E5
:101BA800DAFFDF506A6F6B6B68516A116C6F6951AD
:101BB8006B116D6F20EE02F06051D9266151DA2267
:101BC800DFA003D0656B652B02D00001656B6E51F9
:101BD8006519FE0B65196E6F20EE02F06051D9266B
:101BE8006151DA22DFA403D0656B652B02D00001B6
:101BF800656B65476E516519FD0B65196E6F20EEB3
:101C080002F06051D9266151DA22DFA803D0656B52
:101C1800652B02D00001656B654765476E516519F4
:101C2800FB0B65196E6F20EE02F06051D9266151E9
:101C3800DA22DFAA03D0656B652B02D00001656B41
:101C48006547654765476E516519F70B65196E6FEE
:101C580020EE02F06051D9266151DA22DFAC03D0C0
:101C6800656B652B02D00001656B653B6E5165198C
:101C7800EF0B65196E6F20EE02F06051D9266151A5
:101C8800DA22DFAE03D0656B652B02D00001656BED
:101C9800653B65476E516519DF0B65196E6F20EE60
:101CA80003F06051D9266151DA22DFA003D0656BB9
:101CB800652B02D00001656B653B654765476E5132
:101CC8006519BF0B65196E6F20EE03F06051D926B8
:101CD8006151DA22DFA203D0656B652B02D00001C7
:101CE800656B653365336E5165197F0B65196E6FCA
:101CF80020EE03F06051D9266151DA22DFA603D025
:101D0800656B652B02D00001656B65476F516519DE
:101D1800FD0B65196F6F20EE03F06051D9266151F4
:101D2800DA22DFA803D0656B652B02D00001656B52
:101D3800654765476F516519FB0B65196F6F20EE95
:101D480003F06051D9266151DA22DFAA03D0656B0E
:101D5800652B02D00001656B6547654765476F5184
:101D68006519F70B65196F6F20EE03F06051D926DE
:101D78006151DA22DFAC03D0656B652B02D000011C
:101D8800656B653B6F516519EF0B65196F6F20EE39
:101D980003F06051D9266151DA22DFAE03D0656BBA
:101DA800652B02D00001656B653B65476F5165196E
:101DB800DF0B65196F6F20EE04F06051D926615171
:101DC800DA22DFA003D0656B652B02D00001656BBA
:101DD800653B654765476F516519BF0B65196F6F9F
:101DE80020EE04F06051D9266151DA22DFA203D037
:101DF800656B652B02D00001656B653365336F51E8
:101E080065197F0B65196F6F20EE04F06051D926B4
:101E18006151DA22DFA403D0656B652B02D0000183
:101E2800656B70516519FE0B6519706F20EE04F033
:101E38006051D9266151DA22DFA603D0656B652B84
:101E480002D00001656B654770516519FD0B651976
:101E5800706F20EE04F06051D9266151DA22DFA8B4
:101E680003D0656B652B02D00001656B654765473C
:101E780070516519FB0B6519706F20EE6CF000EE60
:101E880060F0040EDBCFEBFFE806FCE21200030E65
:101E980001014E6F3851D8A40FD0000E476E000EC6
:101EA800486E010E506F970E4F6F4EC134F14FC1FF
:101EB80035F150C136F1120034C167F035C168F010
:101EC80036C169F037C16AF0410E00016B6F010E2F
:101ED8006C6F84EC25F00009D8B42CD1030E476E42
:101EE80029D14A0E0001606F010E616F01EC30F0DC
:101EF80001EC31F060C042F161C043F162C044F1CD
:101F080063C045F1E8EC2BF06CC06EF06DC06FF06B
:101F1800030E0001716FE80E706FCBEC2DF000011D
:101F28006EC046F16FC047F10101486B496B010E65
:101F3800476E55D042C139F143C13AF144C13BF132
:101F480045C13CF10101391F3A1F3B1F3C1F392B8A
:101F5800000E3A233B233C2301EC31F001013951B7
:101F68000001602501013D6F3A5100016121010125
:101F78003E6F3B510001622101013F6F3C5100015E
:101F880063210101406F46513D5D47513E5948511B
:101F98003F5949514059D8A022D0020E476EE80E49
:101FA800396F030E3A6FE8EC2BF06CC06EF06DC021
:101FB8006FF0030E0001716FE80E706FCBEC2DF01F
:101FC8000101395100016E2701013A5100016F23C7
:101FD8006EC046F16FC047F10101486B496B010EB5
:101FE800506F910EA5D04850D8B433D042C139F1C2
:101FF80043C13AF144C13BF145C13CF10101391FEC
:102008003A1F3B1F3C1F392B000E3A233B233C232E
:1020180001EC31F0010139510001602501013D6FEA
:102028003A510001612101013E6F3B5100016221DB
:1020380001013F6F3C51000163210101406F3D5197
:10204800465D3E5147593F51485940514959D8B0CA
:102058007ED001EC31F060C042F161C043F162C052
:1020680044F163C045F1030E486047D0EA0E000111
:10207800986F7C0E996F42EC2CF034C173F035C127
:1020880074F036C175F037C176F096EC16F073C06F
:1020980098F074C099F042EC2CF0F30E0001986FA0
:1020A8007E0E996F42EC2CF04AC173F04BC174F06C
:1020B8004CC175F04DC176F096EC16F073C098F0EF
:1020C80074C099F042EC2CF0DC0E0001986F7F0E82
:1020D800996F42EC2CF04AC100F14BC101F14CC19F
:1020E80002F14DC103F134C104F135C105F136C126
:1020F80006F137C107F12BEC27F0020E486409D02E
:10210800000E486E000E476E010E0101506F930ECF
:102118000FD0010E0101506F910E4F6F482A17D052
:10212800000E486E000E476E010E0101506F960EAC
:102138004F6F0DD04750000AD8B4D3D6010AD8B48F
:10214800F9D6030AD8B44FD7010AD8B4E9D74EC193
:1021580034F14FC135F150C136F11200050E0101BD
:102168006E6F000E6F6F000E706F000E756F000EB1
:10217800776F000E766F010E796FD0C080F1D1C0F5
:1021880081F1D2C082F1D3C083F1E6EC30F060C0B7
:102198007CF161C07DF162C07EF163C07FF1C5C092
:1021A80071F1C6C072F101017869040E6D6F6D0E90
:1021B8000001606F010E616FA6EC07F021EE6DF073
:1021C80000EE60F0160EDBCFEBFFE806FCE2400EF7
:1021D8000001776F010E786F30EC1DF0000E0101E1
:1021E800656F000E666FDCC069F1DDC06AF1DEC0A4
:1021F8006BF1DFC06CF1DAC067F1DBC068F1000E8B
:102208000001606F010E616F21EE65F000EE62F073
:10221800070EDBCFEBFFE806FCE2DDEC25F0080E4D
:102228000001E0256F6F000EE121706F000EB9EC20
:102238002BF0080E0101626F18D0080E0001E0258E
:102248006F6F000EE121706F010EB9EC2BF00001E9
:10225800E96F01016251010D000EF324D96E010EE0
:10226800F420DA6EE9C0DFFF622B040E0001E425DA
:10227800E96F000EE521EA6F010162510001EB6F81
:10228800EC6BE951EB5DEA51EC59D8A0D6D7080EB2
:10229800E0256F6F000EE121706F020EB9EC2BF094
:1022A800000E0001606F010E616FE4C062F0E5C0CE
:1022B80063F07FEC20F060C060F161C061F1010162
:1022C8006151026F60C103F16D0E0001A76F010E2D
:1022D800A86FE4EC1FF0000E0101646F000E636F3D
:1022E8003BD06E51040DF350635DF4506459D8B07F
:1022F80013D021EE6DF000EE7EF0410EDBCFEBFF48
:10230800E806FCE2400E6325D96E010E6421DA6E00
:10231800DF507FEC30F01DD021EE6DF000EE7EF046
:10232800410EDBCFEBFFE806FCE201016E51040D24
:10233800F31EF41EF34AF42A6351F3266451F4227F
:10234800000EF324D96E010EF420DA6EDF507FEC14
:1023580030F00101634B642B7151635D7251645914
:10236800D8A0BFD7E70E0001986F7E0E996F42EC98
:102378002CF04D0E0001986F7D0E996F42EC2CF0F9
:10238800D0C073F0D1C074F0D2C075F0D3C076F06D
:1023980096EC16F073C098F074C099F042EC2CF0EB
:1023A800AC0E0001986F7F0E996F42EC2CF0D70E9F
:1023B8000001986F7F0E996F42EC2CF021EE6DF0C2
:1023C80013EE77F0410EDBCFE3FFE806FCE2010EE7
:1023D8000301766F1200C70E0001606F000E616F77
:1023E80027EC30F020EEC7F010EED9F0050EDBCF69
:1023F800E3FFE806FCE2000E0001D26F240ED16F65
:1024080020EEF3F000EE6FF0080EDBCFEBFFE806EE
:10241800FCE2E6EC2AF020EED3F0050EEBCFDBFF72
:10242800E806FCE2080E0001E06F060EDF6FD10E31
:10243800A26F000EA36F58EC24F00001E851D8A455
:102448001200080EE125F36F000EE221F46FE3C0DD
:10245800F5F0E4C0F6F0000EF86F1C0EF76F20EEF2
:10246800F3F000EE6FF0080EDBCFEBFFE806FCE2BE
:10247800A8518BEC29F020EEF3F000EE6FF0080E77
:10248800DBCFEBFFE806FCE20001A7518BEC29F05B
:1024980020EEF3F000EE6FF0080EDBCFEBFFE8065E
:1024A800FCE20001AA518BEC29F020EEF3F000EEDB
:1024B8006FF0080EDBCFEBFFE806FCE20001A95144
:1024C8008BEC29F020EEF3F000EE6FF0080EDBCF76
:1024D800EBFFE806FCE20001AB518BEC29F020EEA3
:1024E800F3F000EE6FF0080EDBCFEBFFE806FCE23E
:1024F8000001AC518BEC29F020EEF3F000EE6FF008
:10250800080EDBCFEBFFE806FCE20001AE518BECD6
:1025180029F020EEF3F000EE6FF0080EDBCFEBFFB2
:10252800E806FCE20001AD518BEC29F0000E000139
:10253800CD6F1AD020EEF3F000EE6FF0080EDBCF6F
:10254800EBFFE806FCE2CD51010D080EF326000E64
:10255800F422A70EF324D96E000EF420DA6EDF50B1
:102568008BEC29F00001CD2BAB51CD5DD8A0E2D783
:10257800000ECE6F1AD020EEF3F000EE6FF0080ECA
:10258800DBCFEBFFE806FCE2CE51010D0E0EF32681
:10259800000EF422A70EF324D96E000EF420DA6E92
:1025A800DF508BEC29F00001CE2BAC51CE5DD8A0CA
:1025B800E2D7000ECF6F1AD020EEF3F000EE6FF0E6
:1025C800080EDBCFEBFFE806FCE2CF51010D120E3F
:1025D800F326000EF422A70EF324D96E000EF42081
:1025E800DA6EDF508BEC29F00001CF2BAB51CF5DB9
:1025F800D8A0E2D7000ED06F1AD020EEF3F000EE8C
:102608006FF0080EDBCFEBFFE806FCE2D051010DBE
:10261800180EF326000EF422A70EF324D96E000E2E
:10262800F420DA6EDF508BEC29F00001D02BAC518E
:10263800D05DD8A0E2D720EEE1F000EE72F0080EEF
:10264800DBCFEBFFE806FCE2EDEC2FF01200010116
:1026580020EE0EF0CF51D926D051DA22DE5004E117
:10266800080EDE18D8B407D0CFC172F0D0C173F00D
:102678002FEC2EF01200010120EE10F0CF51D926D8
:10268800D051DA2211EEF3F0080EDBCFE3FFE806B3
:10269800FCE220EE10F0CF51D926D051DA22DECF5D
:1026A800F9F0DDCFFAF0160E0001F9250101F36FFC
:1026B800000E0001FA210101F46FF30E0001746F9E
:1026C800010E756F54EC14F021EED3F0160EEBCF1B
:1026D800DBFFE806FCE20101D451040DF3CFF7F16A
:1026E800F4CFF8F1F351F7250001F96F0101F45126
:1026F800F8210001FA6F600EFA5DD8A024D0FF0E11
:10270800F96F5F0EFA6FF3C1FBF0F4C1FCF0FB1F29
:10271800FC1FFB4BFC2BF951FB27FA51FC23FB1F39
:10272800FC1FFB4BFC2B0101F7510001FB270101AA
:10273800F8510001FC23FF0EFB250101F56FFF0E88
:102748000001FC2111D00101F351F7250001F96FB7
:102758000101F451F8210001FA6FFF0EF92501017A
:10276800F56FFF0E0001FA210101F66F010EF52544
:10277800EA6F000EF621EB6F20EE12F0CF51D9264A
:10278800D051DA22DECFECF1DDCFEDF1EC51EA5D8C
:10279800ED51EB59D8A017D0EAC1F9F0EBC1FAF026
:1027A8000001F91FFA1FF94BFA2B0101EC51000146
:1027B800F9270101ED510001FA23FF0EF925010166
:1027C800D16F5F0E10D0EAC1F9F0EBC1FAF0000149
:1027D800F91FFA1FF94BFA2B0101EC510001F925F9
:1027E8000101D16FED510001FA210101D26FD1C170
:1027F800EEF1D2C1EFF1D30E00016F6F010E706FD1
:10280800EAEC2CF00001D8B006D0CFC172F0D0C1EC
:1028180073F02FEC2EF0040E0101D319D8B406D0B2
:10282800CFC172F0D0C173F02FEC2EF00101DE5150
:10283800D8A406D0CFC172F0D0C173F02FEC2EF01F
:102848000101D751D811D8A41CD0CFC172F0D0C182
:1028580073F02FEC2EF015D021EED3F001EEAFF08F
:10286800160EDBCFEBFFE806FCE221EEEAF001EE04
:10287800C6F0080EDBCFEBFFE806FCE256EC19F0D9
:1028880008D00101DF51010AD8B4E6D7070AD8A455
:10289800170ACFC172F0D0C173F02FEC2EF01200DE
:1028A80074C0D9FF75C0DAFFDECF6FF0DDCF70F0EE
:1028B800000EB9EC2BF074C0D9FF75C0DAFFDECF7B
:1028C8006FF0DDCF70F0010EB9EC2BF000018E6FC8
:1028D8008E390F0B0F0B8F6F8E510F0B906F74C0CB
:1028E800D9FF75C0DAFFDECF6FF0DDCF70F0010ED3
:1028F800B9EC2BF000018E6F8E511F0B916F8E4536
:10290800E846030B030B926F74C0D9FF75C0DAFF5A
:10291800DECF6FF0DDCF70F0010EB9EC2BF00001C7
:10292800946F936B74C0D9FF75C0DAFFDECF6FF078
:10293800DDCF70F0010EB9EC2BF000018B6F8B51DD
:10294800931374C0D9FF75C0DAFFDECF6FF0DDCF07
:1029580070F0010EB9EC2BF00001966F956B74C006
:10296800D9FF75C0DAFFDECF6FF0DDCF70F0010E52
:10297800B9EC2BF000018B6F8B51951374C0D9FF04
:1029880075C0DAFFDECF6FF0DDCF70F0010EB9EC65
:102998002BF000018E6F8E39E842070B070B976FFB
:1029A8008E511F0B996F986B74C0D9FF75C0DAFFF1
:1029B800DECF6FF0DDCF70F0010EB9EC2BF0000127
:1029C8008B6F8B51981374C0D9FF75C0DAFFDECFB7
:1029D8006FF0DDCF70F0010EB9EC2BF000019A6FAB
:1029E80074C0D9FF75C0DAFFDECF6FF0DDCF70F0AD
:1029F800010EB9EC2BF000019B6F74C0D9FF75C0B4
:102A0800DAFFDECF6FF0DDCF70F0010EB9EC2BF0FE
:102A180000019D6F9C6B74C0D9FF75C0DAFFDECFD3
:102A28006FF0DDCF70F0010EB9EC2BF000018B6F69
:102A38008B519C13000E8C6F030E8C6501D01DD03A
:102A480074C0D9FF75C0DAFFDECF6FF0DDCF70F04C
:102A5800010EB9EC2BF000018B6F8C51010D0F0E9C
:102A6800F326000EF4228F0EF324D96E000EF42004
:102A7800DA6E8BC0DFFF8C2BDFD7000E8D6F030E55
:102A88008D6501D01DD074C0D9FF75C0DAFFDECFC7
:102A98006FF0DDCF70F0010EB9EC2BF000018B6FF9
:102AA8008D51010D130EF326000EF4228F0EF32420
:102AB800D96E000EF420DA6E8BC0DFFF8D2BDFD7C6
:102AC80074C0D9FF75C0DAFFDECF6FF0DDCF70F0CC
:102AD800020EB9EC2BF020EE8FF000EE74F0160E1B
:102AE800DBCFEBFFE806FCE21200030E0001FD6FEE
:102AF800010EFF6F910EFE6F01013851D8A410D05E
:102B0800000E466E000E456E010E0001FF6F970E17
:102B1800FE6FFDC034F1FEC035F1FFC036F1120082
:102B280034C167F035C168F036C169F037C16AF061
:102B3800FC0E00016B6F000E6C6F84EC25F0000931
:102B4800D8B4DCD0030E456ED9D0010E0001FF6F5A
:102B5800910EFE6F01EC31F060C031F061C032F0CF
:102B680062C033F063C034F0010E456ED4D0010E5C
:102B78000001FF6F910EFE6F31C039F132C03AF19A
:102B880033C03BF134C03CF10101391F3A1F3B1FF0
:102B98003C1F392B000E3A233B233C2301EC31F038
:102BA800010139510001602501013D6F3A510001D1
:102BB800612101013E6F3B510001622101013F6F1C
:102BC8003C51000163210101406F40513F1106E172
:102BD800D10E3D5D070E3E59D8A09DD0020E456E20
:102BE800000E466E98D0010E0001FF6F910EFE6F29
:102BF8004650D8B432D031C039F132C03AF133C07E
:102C08003BF134C03CF10101391F3A1F3B1F3C1F07
:102C1800392B000E3A233B233C2301EC31F0010110
:102C280039510001602501013D6F3A5100016121D0
:102C380001013E6F3B510001622101013F6F3C5190
:102C4800000163210101406F40513F1106E1D10E9F
:102C58003D5D070E3E59D8A03BD0660E0001986F27
:102C68007A0E996F42EC2CF034C173F035C174F0D0
:102C780036C175F037C176F096EC16F073C098F04F
:102C880074C099F042EC2CF0DD0E0001986F7F0EB5
:102C9800996F42EC2CF001EC31F060C031F061C06A
:102CA80032F062C033F063C034F034C100F135C192
:102CB80001F136C102F137C103F134C104F135C164
:102CC80005F136C106F137C107F12BEC27F0462A8A
:102CD800010E466420D0000E466E000E456E000EB2
:102CE8000001FF6F000E08D0000E466E000E456E04
:102CF800010E0001FF6F960EFE6F0DD04550000AC1
:102D0800D8B423D7010AD8B432D7030AD8B46BD7BA
:102D1800010AD8B4E9D7FDC034F1FEC035F1FFC0CF
:102D280036F11200000E0001876F000E886F030E47
:102D3800886501D0DFD08851010D830EF324D96E48
:102D4800000EF420DA6E8851010D730EF324E16E43
:102D5800000EF420E26EE750776F7751606F616B79
:102D6800000E636F640E626F97EC2CF000016051E7
:102D7800DF6E8851010D7F0EF324D96E000EF4200A
:102D8800DA6E8851010D830EF324E16E000EF420F3
:102D9800E26EE750776F7751640DF3CF78F0F4CF98
:102DA80079F0781F791F784B792B8851010D730EB4
:102DB800F324E16E000EF420E26EE7507A6F7A5148
:102DC8007825606F000E7921616F000E636F0A0E1F
:102DD800626F97EC2CF000016051DF6E8851010D95
:102DE8007B0EF324D96E000EF420DA6E8851010DA3
:102DF800730EF324E16E000EF420E26EE750776F55
:102E080077516E6F6F6B000E716F0A0E706FCBEC9F
:102E18002DF000016E51DF6E8851010D830EF324F1
:102E2800D96E000EF420DA6EDF50D8B414D0875172
:102E3800010DAF0EF324D96E020EF420DA6E88511C
:102E4800010D830EF324E16E000EF420E26EE750CC
:102E5800300FDF6E872B8851010D7F0EF324D96E5A
:102E6800000EF420DA6EDF50D8A40BD08851010D83
:102E7800830EF324D96E000EF420DA6EDF50D8B436
:102E880014D08751010DAF0EF324D96E020EF42031
:102E9800DA6E8851010D7F0EF324E16E000EF420E6
:102EA800E26EE750300FDF6E872B8751010DAF0EB2
:102EB800F324D96E020EF420DA6E8851010D7B0ED0
:102EC800F324E16E000EF420E26EE750300FDF6E5F
:102ED800872B030E8819D8B40BD08751010DAF0E7C
:102EE800F324D96E020EF420DA6E2E0EDF6E872BD5
:102EF800882B1DD78751010DAF0EF324D96E020E12
:102F0800F420DA6E000EDF6EAF0E736F020E746F70
:102F18001200000120EE0EF0FC51D926FD51DA22F4
:102F2800060EDE1804E1080EDE18D8B407D0FCC07F
:102F380072F0FDC073F02FEC2EF01200FCC074F09C
:102F4800FDC075F0D4EC09F021EE58F01F0EEBCF60
:102F5800DBFFE806FCE2010176517711D8B40ED008
:102F6800FCC072F0FDC073F02FEC2EF0910E000142
:102F7800986F7A0E996F42EC2CF01200BC0E00018B
:102F8800986F7F0E996F42EC2CF021EE60F000EE06
:102F98007AF0050EDBCFEBFFE806FCE255EC23F0F8
:102FA8007AC098F07BC099F042EC2CF0B10E000189
:102FB800986F7D0E996F42EC2CF066C173F067C173
:102FC80074F068C175F069C176F096EC16F073C0BC
:102FD80098F074C099F042EC2CF0B90E0001986F8B
:102FE8007F0E996F42EC2CF021EE6AF000EE7AF039
:102FF800050EDBCFEBFFE806FCE255EC23F07AC0C8
:1030080098F07BC099F042EC2CF0B10E0001986F5B
:103018007D0E996F42EC2CF070C173F071C174F0A1
:1030280072C175F073C176F096EC16F073C098F023
:1030380074C099F042EC2CF0AC0E0001986F7F0E32
:10304800996F42EC2CF0520E0001986F7F0E996F29
:1030580042EC2CF0010174A307D0720E0001986FA6
:103068007F0E996F42EC2CF0010174A107D0850EF8
:103078000001986F7E0E996F42EC2CF0D70E00017C
:10308800986F7F0E996F42EC2CF021EE58F001EE0C
:1030980000F01F0EDBCFEBFFE806FCE2EFEC1AF0C6
:1030A800660E0001606F010E616F42EC2FF00001A7
:1030B800D8B01DD021EE60F000EE9AF0050EDBCFFF
:1030C800EBFFE806FCE266C1A0F067C1A1F068C1A9
:1030D800A2F069C1A3F001EC31F060C0A4F061C0B6
:1030E800A5F062C0A6F063C0A7F023EC1AF02FEC9D
:1030F8002EF0120074C06FF075C070F0000EB9ECBD
:103108002BF074C06FF075C070F0010EB9EC2BF0A5
:103118007DC0D9FF7EC0DAFFDF6E74C06FF075C066
:1031280070F0010EB9EC2BF000017F6F20EE01F07A
:103138007D51D9267E51DA227FC0DFFF74C06FF03F
:1031480075C070F0010EB9EC2BF000017F6F7F5154
:10315800816F806B20EE02F07D51D9267E51DA22F4
:1031680080C0DEFF81C0DDFF74C06FF075C070F0F5
:10317800010EB9EC2BF000017F6F806B20EE02F09E
:103188007D51D9267E51DA227F51DE128051DD121F
:1031980074C06FF075C070F0010EB9EC2BF000012F
:1031A8007F6F7FC080F0816B826B836B80C083F000
:1031B800826B816B806B20EE04F07D51D9267E51A5
:1031C800DA2280C0DEFF81C0DEFF82C0DEFF83C05E
:1031D800DEFF74C06FF075C070F0010EB9EC2BF013
:1031E80000017F6F7FC080F0816B826B836B81C031
:1031F80083F080C082F0816B806B20EE04F07D51FB
:10320800D9267E51DA228051DE128151DE12825196
:10321800DE128351DE1274C06FF075C070F0010EBB
:10322800B9EC2BF000017F6F7FC080F0816B826B5F
:10323800836B82C083F081C082F080C081F0806B94
:1032480020EE04F07D51D9267E51DA228051DE121B
:103258008151DE128251DE128351DE1274C06FF08A
:1032680075C070F0010EB9EC2BF000017F6F7FC0C4
:1032780080F0816B826B836B20EE04F07D51D92640
:103288007E51DA228051DE128151DE128251DE1225
:103298008351DE1274C06FF075C070F0020EB9EC85
:1032A8002BF0120021EEC6F000EE74F0080EDBCF12
:1032B800EBFFE806FCE2F10E00017D6F000E7E6F69
:1032C8007EEC18F0E70E0001986F7E0E996F42ECC5
:1032D8002CF0BC0E0001986F7F0E996F42EC2CF019
:1032E8000001F151020D9F0EF324D96E040EF42053
:1032F800DA6EDECF98F0DDCF99F042EC2CF0AC0E10
:103308000001986F7F0E996F42EC2CF0D70E0001E8
:10331800986F7F0E996F42EC2CF021EEC6F000EE0C
:1033280074F0080EDBCFEBFFE806FCE2E7EC1DF0DB
:103338000001F351741904E1F4517519D8B414D08B
:10334800170E986F7F0E996F42EC2CF0760E0001E5
:10335800986F7E0E996F42EC2CF0D70E0001986F93
:103368007F0E996F42EC2CF0080E0001F119D8A4D9
:103378001200B40E986F7F0E996F42EC2CF020EE7D
:10338800F5F0000EDE140001ED6F000EDE14EE6F96
:10339800FF0EDE14EF6FFF0EDE14F06FEFC084F047
:1033A800F0C085F0866B876B11EC2FF084C098F025
:1033B80085C099F042EC2CF0A00E0001986F7F0EAA
:1033C800996F42EC2CF020EEF5F0FF0EDE140001B0
:1033D800846FFF0EDE14856F000EDE14866F000EFC
:1033E800DE14876F11EC2FF084C098F085C099F037
:1033F80042EC2CF0AC0E0001986F7F0E996F42ECF6
:103408002CF021EEAFF000EEC1F0160EDBCFEBFF93
:10341800E806FCE220EEF1F000EED8F0070EDBCF74
:10342800EBFFE806FCE221EEC6F000EEE0F0080E45
:10343800DBCFEBFFE806FCE2B2EC10F01200000E66
:103448000001AC6F000EAD6F000EAE6F000EAF6FD7
:10345800000EB06F000EB16F070EB16501D02ED00F
:10346800B1510E0D0A0EF326000EF422000EF324BD
:10347800D96E040EF420DA6EDE50AC5DDE50AD5924
:10348800DE50AE59DE50AF59D8B016D0B1510E0D3E
:103498000A0EF326000EF422000EF324D96E040E51
:1034A800F420DA6EDECFACF0DECFADF0DECFAEF0DA
:1034B800DECFAFF0B1C0B0F0B12BCED7B0510E0D0A
:1034C800000EF324D96E040EF420DA6EA0C0DEFFDD
:1034D800A1C0DEFFA2C0DEFFA3C0DEFF20EE9AF08F
:1034E800B0510E0D040EF326000EF422000EF32444
:1034F800E16E040EF420E26E050EDBCFE3FFE80672
:10350800FCE2B0510E0D0A0EF326000EF422000E56
:10351800F324D96E040EF420DA6EA4C0DEFFA5C031
:10352800DEFFA6C0DEFFA7C0DEFF9A0E606F000EAA
:10353800616F2AEC2FF00001D8A009D0A00E606FAF
:10354800000E616F42EC2FF00001D8B012002F0E70
:10355800986F7F0E996F42EC2CF0210E0001986F46
:103568007C0E996F42EC2CF0A0C073F0A1C074F0EF
:10357800A2C075F0A3C076F096EC16F073C098F070
:1035880074C099F042EC2CF0EF0E0001986F7F0E9A
:10359800996F42EC2CF020EE9AF000EE7AF0050ECE
:1035A800DBCFEBFFE806FCE255EC23F07AC098F09D
:1035B8007BC099F042EC2CF0EC0E0001986F7F0E66
:1035C800996F42EC2CF0D70E0001986F7F0E996F1F
:1035D80042EC2CF01200010106050711D8A41200D4
:1035E800E6EC30F060C034F161C035F162C036F10C
:1035F80063C037F1180E0001606F010E616F340E61
:10360800626F010E636F0EEC2EF00001D8A012005D
:103618003BEC2AF021EE20F0050EEBCFDBFFE806AD
:10362800FCE221EE08F011EE26F0050EDBCFE3FFF9
:10363800E806FCE2E6EC30F060C02CF161C02DF148
:1036480062C02EF163C02FF10EC130F10FC131F10C
:1036580010C132F111C133F1060E01013C6F040EA5
:103668003D6F000E396F010E386F080E3B6F000E6C
:103678003A6F000E3F6F020E3E6F2CC146F12DC10E
:1036880047F12EC148F12FC149F121EE20F011EE8A
:1036980040F0050EDBCFE3FFE806FCE230C150F155
:1036A80031C151F132C152F133C153F121EE26F04B
:1036B80011EE4AF0050EDBCFE3FFE806FCE221EE4F
:1036C80038F000EEA7F01F0EDBCFEBFFE806FCE2B8
:1036D800EFEC11F02F0E0001986F7F0E996F42ECFE
:1036E8002CF0560E0001986F7E0E996F42EC2CF06C
:1036F80021EE4AF000EE7AF0050EDBCFEBFFE8068C
:10370800FCE255EC23F07AC098F07BC099F042ECCB
:103718002CF0B10E0001986F7D0E996F42EC2CF0E1
:1037280050C173F051C174F052C175F053C176F0B5
:1037380096EC16F073C098F074C099F042EC2CF037
:10374800AC0E0001986F7F0E996F42EC2CF0D70EEB
:103758000001986F7F0E996F42EC2CF01200030E57
:103768000001FD6F010EFF6F910EFE6F47C167F0FC
:1037780048C168F049C169F04AC16AF0FC0E6B6F34
:10378800000E6C6F84EC25F00009D8B443D000011A
:10379800FC515AEC2FF021EE5CF0050EEBCFDBFF6D
:1037A800E806FCE23BEC2AF021EE56F0050EEBCFE2
:1037B800DBFFE806FCE221EE5CF000EE6FF0050EA0
:1037C800DBCFEBFFE806FCE221EE64F000EE75F0DB
:1037D800080EDBCFEBFFE806FCE2CFEC28F021EE89
:1037E80064F000EE72F0080EDBCFEBFFE806FCE2B7
:1037F800EDEC2FF0000E0001FF6F000EFE6F000EC3
:103808002D6E000E2E6E000E2F6E000E306E000E06
:10381800436E5FD02DC076F12EC077F12FC078F1BE
:1038280030C079F10101761F771F781F791F762B39
:10383800000E77237823792301EC31F001017651CA
:103848000001602501017A6F7751000161210101B2
:103858007B6F78510001622101017C6F7951000171
:10386800632101017D6F7D517C110CE1D10E7A5DE0
:10387800070E7B59D8B006D02D502E102F103010BF
:10388800D8A427D0432A01EC31F060C02DF061C0E4
:103898002EF062C02FF063C030F043C100F144C184
:1038A80001F145C102F146C103F147C104F148C124
:1038B80005F149C106F14AC107F12BEC27F0020EC8
:1038C800436407D0000E436E010E0001FF6F940E93
:1038D800FE6FFDC034F1FEC035F1FFC036F11200B5
:1038E8000101566F010E4F6E910E4E6E030E4D6E16
:1038F800A5D0F8EC30F060C057F261C058F262C051
:1039080059F263C05AF24D0E0001606F000E616FEC
:10391800DCEC30F00001D8A054D057C234F158C2C2
:1039280035F159C236F15AC237F156C138F14BEC6C
:103938000FF0340ED96E010EDA6E010ED926000E84
:10394800DA22DECF5BF1DDCF5CF122D0BC0E0001C4
:10395800986F7B0E996F42EC2CF033D0750E0001F6
:10396800986F7B0E996F42EC2CF0010E446E29D0B3
:103978001C0E0001986F790E996F42EC2CF021D043
:10398800990E0001986F7B0E996F42EC2CF019D0BC
:1039980021EE5BF0DECF54F1DDCF55F10101555139
:1039A800010AD8A4EDD75451910AD8B40AD0020A12
:1039B800D8B4D4D7050AD8B4C9D7010AD8B4D8D747
:1039C800DFD75BC14EF05CC14FF03FD057C234F136
:1039D80058C235F159C236F15AC237F156C138F1D9
:1039E80079EC15F034C157F135C158F136C159F1A8
:1039F80058C14EF059C14FF0960E4E180CE14F04C5
:103A0800D8A409D0B80E0001986F7A0E996F42ECCD
:103A18002CF0000E446E030E01015719D8A415D0DE
:103A280058515911D8A411D0000E0001986F7C0E7E
:103A3800996F42EC2CF0000E446E07D04450000AF7
:103A4800D8B457D7010AD8B4C1D74DC051F14EC028
:103A580052F14FC053F1120000016039F00B6111AF
:103A680077C0D9FF78C0DAFFDF6E20EE01F077511A
:103A7800D9267851DA2263C079F0030E79176245A6
:103A8800E846FC0B7911DF6E20EE02F07751D9265B
:103A98007851DA226551DF6E20EE03F07751D9268E
:103AA8007851DA2264C0DFFF20EE04F07751D9267E
:103AB8007851DA226751DF6E20EE05F07751D9266A
:103AC8007851DA2266C0DFFF20EE06F07751D9265A
:103AD8007851DA2210EE69F0E6CF79F0E5CF7AF086
:103AE8007AC079F07A6B1F0E79176839E846E00BCF
:103AF8007911DF6E20EE07F07751D9267851DA2256
:103B080069C0DFFF20EE08F07751D9267851DA2214
:103B18006BC0DFFF20EE09F07751D9267851DA2201
:103B28006CC0DFFF20EE0AF07751D9267851DA22EF
:103B38006E51DF6E20EE0BF07751D9267851DA22DC
:103B48006DC0DFFF20EE0CF07751D9267851DA22CC
:103B58006FC0DFFF20EE0DF07751D9267851DA22B9
:103B680070C0DFFF20EE0EF07751D9267851DA22A7
:103B780071C0DFFF20EE0FF07751D9267851DA2295
:103B880072C0DFFF20EE10F07751D9267851DA2283
:103B980073C0DFFF20EE11F07751D9267851DA2271
:103BA80074C0DFFF20EE12F07751D9267851DA225F
:103BB80075C0DFFF20EE13F07751D9267851DA224D
:103BC80076C0DFFF1200040E00017827000E79236B
:103BD800000E866F000E876F000E886F000E896FCB
:103BE80074C06FF075C070F0000EB9EC2BF0000EC9
:103BF8000001856F000E846F2BD0000E836F000EBE
:103C0800826F74C06FF075C070F0010EB9EC2BF0C4
:103C18000001836F826B74C06FF075C070F0010E85
:103C2800B9EC2BF000017D6F7D518213840585115D
:103C3800D8A404D0000E836F000E826F82518627AD
:103C480083518723000E8823000E8923844B852BFC
:103C5800D89079317E6F78317D6F7D51845D7E514A
:103C68008559D8A0CAD774C06FF075C070F0020E1D
:103C7800B9EC2BF0000E000186157D6F000E87153C
:103C88007E6FFF0E88157F6FFF0E8915806F110EEE
:103C980005D0D89080337F337E337D33E82EF9D733
:103CA8007D51816FFF0E8617FF0E8717000E88174C
:103CB800000E891781518627000E872388238923C0
:103CC800895103E18805D8A025D0000E86157D6F9F
:103CD800000E87157E6FFF0E88157F6FFF0E891502
:103CE800806F110E05D0D89080337F337E337D33BB
:103CF800E82EF9D77D5186277E5187237F51882367
:103D080080518923FF0E8617FF0E8717000E88172C
:103D1800000E8917861D746F871D756F120060EC81
:103D28002DF06EC080F06FC081F0000181AD03D02E
:103D38007A6B7A2B02D000017A6B7E517A19FE0BCE
:103D48007A197E6F81AB03D07A6B7A2B02D000018F
:103D58007A6B7A477E517A19FD0B7A197E6F81A9A1
:103D680003D07A6B7A2B02D000017A6B7A477A47B4
:103D78007E517A19FB0B7A197E6F81A703D07A6B73
:103D88007A2B02D000017A6B7A477A477A477E51BC
:103D98007A19F70B7A197E6F80AD03D07A6B7A2B7C
:103DA80002D000017A6B7A3B7E517A19EF0B7A19AF
:103DB8007E6F80AB03D07A6B7A2B02D000017A6BCE
:103DC8007A3B7A477E517A19DF0B7A197E6F9EA863
:103DD80003D07A6B7A2B02D000017A6B010E7B6FCD
:103DE800000E7C6F7A2B03D0D8907B377C377A2FE4
:103DF800FBD7000180517B1781517C177B517C11C7
:103E0800D8B403D07D6B7D2B02D000017D6B7D3B48
:103E18007D477D477E517D19BF0B7D197E6F80A53B
:103E280003D07A6B7A2B02D000017A6B7A337A331B
:103E38007E517A197F0B7A197E6F80A303D07A6B33
:103E48007A2B02D000017A6B7F517A19FE0B7A190E
:103E58007F6F80A103D07A6B7A2B02D000017A6B36
:103E68007A477F517A19FD0B7A197F6F7EC078F0F7
:103E78007FC079F01200040E0001656F000E676FB5
:103E8800000E666F3DC0D9FF3EC0DAFF030EDE1894
:103E9800D8A48BD050B063D088D03DC0D9FF3EC0E5
:103EA800DAFFDECF65F0DECF66F0DDCF67F082C2E5
:103EB80086F283C287F284C288F285C289F2509062
:103EC80065C060F066C061F067C062F012003DC076
:103ED800D9FF3EC0DAFFDECF65F0DECF66F0DDCF7A
:103EE80067F065C060F066C061F067C062F01200FC
:103EF800010E676FF50E666F509065C060F066C082
:103F080061F067C062F0120065C060F066C061F0E1
:103F180067C062F012003DC0D9FF3EC0DAFFDECFB5
:103F280065F0DECF66F0DDCF67F0509065C060F0D9
:103F380066C061F067C062F0120050903DC0D9FFC2
:103F48003EC0DAFFDECF65F0DECF66F0DDCF67F08A
:103F580065C060F066C061F067C062F0120020EED4
:103F680001F03D50D9263E50DA22DECF63F0DDCF96
:103F780064F06451000AD8B404D0010AD8B406D059
:103F8800DCD76351000AD8B488D7D7D76351910AD0
:103F9800D8B49DD7020AD8B4B7D7050AD8B4A8D7D9
:103FA800010AD8B4B8D7640AC8D7020E676F570E8B
:103FB800666F65C060F066C061F067C062F01200AD
:103FC800000120EE04F0A751D926A851DA22DECF4D
:103FD800A9F0DDCFAAF0080EA927000EAA2320EE2B
:103FE80020F0A751D926A851DA22A9C0DEFFAAC01D
:103FF800DDFF20EE2EF0A751D926A851DA22000EB7
:10400800DE6E080EDD6E200EA725A26F000EA82119
:10401800A36F58EC24F0000120EE36F0A751D92602
:10402800A851DA2210EE1DF0A751E126A851E2228C
:10403800DFCFE7FF20EE37F0A751D926A851DA22C3
:1040480010EE1EF0A751E126A851E222DFCFE7FFCC
:1040580020EE38F0A751D926A851DA2210EE1FF029
:10406800A751E126A851E222DFCFE7FF20EE30F08A
:10407800A751D926A851DA22DECFA9F0DDCFAAF0C0
:10408800080EA927000EAA2320EE17F0A751D9265B
:10409800A851DA22A9C0DEFFAAC0DDFF20EE32F067
:1040A800A751D926A851DA2210EE19F0A751E12616
:1040B800A851E222DECFE6FFDDCFE5FFF80EA96FBB
:1040C800FF0EAA6F20EE34F0A751D926A851DA22A4
:1040D800DECFABF0DDCFACF0A951AB27AA51AC23B2
:1040E80020EE1BF0A751D926A851DA22ABC0DEFF7B
:1040F800ACC0DDFF1200040E00016227000E63232E
:10410800000E6D6F000E6E6F000E6F6F000E706FF9
:10411800000E6C6F000E6B6F29D0000E6A6F000ED8
:10412800696F60C0D9FF61C0DAFFDF506A6F696BE1
:10413800604B612B60C0D9FF61C0DAFFDF50646F4C
:1041480064516913604B612B6B056C11D8A404D0C2
:10415800000E6A6F000E696F69516D276A516E23F0
:10416800000E6F23000E70236B4B6C2BD8906331BD
:10417800656F6231646F64516B5D65516C59D8A08D
:10418800CCD7000E6D15646F000E6E15656FFF0EAF
:104198006F15666FFF0E7015676F110E05D0D890FA
:1041A8006733663365336433E82EF9D76451686F33
:1041B800FF0E6D17FF0E6E17000E6F17000E7017AB
:1041C80068516D27000E6E236F237023705103E131
:1041D8006F05D8A025D0000E6D15646F000E6E1502
:1041E800656FFF0E6F15666FFF0E7015676F110E06
:1041F80005D0D8906733663365336433E82EF9D732
:1042080064516D2765516E2366516F236751702382
:10421800FF0E6D17FF0E6E17000E6F17000E70174A
:104228006D1D606F6E1D616F1200980E0001986F12
:104238007F0E996F42EC2CF028D0350E0001986F54
:104248007E0E996F42EC2CF050D03F0E0001986F13
:104258007C0E996F42EC2CF048D0EE0E0001986F5E
:104268007D0E996F42EC2CF040D0BF0E0001986F84
:104278007E0E996F42EC2CF038D0940E0001986FA6
:104288007E0E996F42EC2CF030D000019A51000A52
:10429800D8B4D3D7010AD8B4D8D7030AD8B4DDD74D
:1042A800010AD8B4E2D7070AD8B4E7D71ED0060E59
:1042B800986F7B0E996F42EC2CF030D0CA0E00013B
:1042C800986F790E996F42EC2CF028D0DE0E000121
:1042D800986F7B0E996F42EC2CF05D0E0001986F81
:1042E8007C0E996F42EC2CF019D020EE9BF0DECFBB
:1042F8009DF0DDCF9EF000019E51010AD8A4EDD7B4
:104308009D512D0AD8B4DAD7030AD8B4D0D7A10A58
:10431800D8B4E3D71C0AD8B4D9D7DFD7860E0001A2
:10432800986F7F0E996F42EC2CF09BC084F09CC074
:1043380085F00001866B876B11EC2FF084C098F034
:1043480085C099F042EC2CF0C80E0001986F7F0EE2
:10435800996F42EC2CF012000001766F0001765143
:104368001F0B776F010E786F000E796F000E7A6F52
:10437800000E7B6F000E7C6F770E6A6F000E6B6FFE
:10438800540EC1EC2EF0780E00016A6F000E6B6FB0
:10439800550EC1EC2EF07F0E00016A6F000E6B6F98
:1043A800520EDCEC2EF000017F817F0E6A6F000E4A
:1043B8006B6F520EC1EC2EF0450EE82EFED700F0C2
:1043C8007F0E00016A6F000E6B6F6A0EDCEC2EF038
:1043D800010E00017927000E7A237B237C237FA11D
:1043E80008D07C517B1105E179290F0E7A59D8A0A4
:1043F800E7D77C517B1140E179290F0E7A59D8B063
:1044080012007F0E6A6F000E6B6F520EDCEC2EF0FE
:1044180000017F917F0E6A6F000E6B6F520EC1EC28
:104428002EF07D0E00016A6F000E6B6F680EDCECDB
:104438002EF07E0E00016A6F000E6B6F690EDCECC9
:104448002EF0000E0001706FFF0E716F7E51736FBA
:10445800726B70517217715173177D51746F756B50
:1044680072517413735175136EC0D9FF6FC0DAFFA0
:1044780074C0DEFF75C0DDFF120000017B517219A8
:1044880004E17C517319D8B429D07D51741904E121
:104498007E517519D8B422D072517D1904E1735137
:1044A8007E19D8B41BD07B51741904E17C5175195D
:1044B800D8B414D07405300E7559D8B00FD0720521
:1044C800300E7359D8B00AD07D05300E7E59D8B059
:1044D80005D07B05300E7C59D8A002D0D8801200B8
:1044E8007451725D75517359D8B03BD07D517B5D65
:1044F8007E517C59D8B02BD07B51725D7C51735959
:10450800D8B00AD074517B5D75517C59D8B002D0AF
:10451800D8801200D890120020EE7BF000EE60F0F8
:10452800080EDBCFEBFFE806FCE220EE72F000EEAF
:1045380069F0080EDBCFEBFFE806FCE22BEC25F078
:104548000001D8B002D0D8901200D8801200725161
:104558007D5D73517E59D8B002D0D8901200D880B2
:10456800120020EE7BF000EE60F0080EDBCFEBFFD0
:10457800E806FCE220EE72F000EE69F0080EDBCFF0
:10458800EBFFE806FCE22BEC25F00001D8B002D0E6
:10459800D8901200D8801200000E0001726FADC2D0
:1045A80073F0AEC274F064C275F065C276F0010EA5
:1045B800776F000E796F000E786F050E72615FD00D
:1045C800730E6A6F000E6B6F160EC1EC2EF0740E30
:1045D80000016A6F000E6B6F170EC1EC2EF0750E9E
:1045E80000016A6F000E6B6F160EDCEC2EF0760E73
:1045F80000016A6F000E6B6F170EDCEC2EF00001E5
:1046080073517519D8A438D074517619D8A434D0F8
:10461800CA0EC6EC30F0420EE82EFED700D0750E5A
:1046280000016A6F000E6B6F160EDCEC2EF0760E32
:1046380000016A6F000E6B6F170EDCEC2EF00001A4
:104648007551D8A40DD07651D8A40AD0030E000114
:10465800716FA70EE82EFED7712FFCD700D005D0BA
:10466800010E0001796F2E0E786F77C06EF078C05A
:104678006FF079C070F012000001722B0BD0010EA0
:10468800796F2E0E786F77C06EF078C06FF079C0B2
:1046980070F0120077C06EF078C06FF079C070F0DB
:1046A800120022EE8BF010EE81F0110EDBCFE3FF4B
:1046B800E806FCE2000E0001976F000E966F000EF0
:1046C800956F96BF06D096516BE1060E955DD8B0F2
:1046D80067D07A0E9525D96E000E9621DA6EDF50D6
:1046E800806F80390F0B0F0B936F7A0E9525D96E5B
:1046F800000E9621DA6EDF500F0B946F300E932761
:10470800300E9427390E93650CD09751010D810E08
:10471800F324D96E000EF420DA6E9351070FDF6E82
:104728000AD09751010D810EF324D96E000EF420A2
:10473800DA6E93C0DFFF972B390E94650CD0975132
:10474800010D810EF324D96E000EF420DA6E945117
:10475800070FDF6E0AD09751010D810EF324D96E31
:10476800000EF420DA6E94C0DFFF972B96BF06D0B8
:1047780096510FE1050E955DD8B00BD09751010DFC
:10478800810EF324D96E000EF420DA6E3A0EDF6E35
:10479800972B954B962B96BF9CD7965101E195D7B1
:1047A800810E7A6F000E7B6F12006FC075F070C0BB
:1047B80076F071C077F072C078F075C060F076C09E
:1047C80061F077C062F078C063F073C064F074C0C1
:1047D80065F00001000E65BFFF0E666F676F8DEC18
:1047E80028F060C075F061C076F062C077F063C0F1
:1047F80078F000016D4B6E2B755176117711781199
:10480800D8A4DBD76DC0D9FF6EC0DAFF000EDF6E0B
:104818006D07D8A06E076FC060F070C061F071C0FE
:1048280062F072C063F073C064F074C065F0000E8B
:1048380065BFFF0E666F676F53EC2BF00001605188
:10484800796F6FC060F070C061F071C062F072C0C3
:1048580063F073C064F074C065F0000E65BFFF0EAE
:10486800666F676F8DEC28F060C06FF061C070F004
:1048780062C071F063C072F0090E0001796502D060
:10488800070E7927300E79276DC0D9FF6EC0DAFF81
:1048980079C0DFFF6D07D8A06E076F5170117111D5
:1048A8007211D8B41200B7D7020E0001A46F000E1F
:1048B800A66F000EA56FA2C0D9FFA3C0DAFFDECF96
:1048C80084F0DDCF85F0FBEC02F0000120EE10F063
:1048D800A251D926A351DA22080EEBCFDBFFE80656
:1048E800FCE220EE17F0A251D926A351DA22DF50BC
:1048F800D8B407D0000EA46F000EA66F650EA56F82
:10490800120020EE16F0A251D926A351DA22DF5068
:10491800D8A407D0000EA46F000EA66FC70EA56F0F
:10492800120020EE08F0A251D926A351DA2200EE97
:104938006FF0050EDBCFEBFFE806FCE220EE10F08F
:10494800A251D926A351DA2200EE75F0080EDBCF6A
:10495800EBFFE806FCE2CFEC28F0000120EE0EF0B9
:10496800A251D926A351DA22DECF6FF0DDCF70F045
:1049780020EE10F0A251D926A351DA2200EE71F0F0
:10498800080EDBCFEBFFE806FCE239EC2DF0120055
:1049980049C011F0010E126E112A02D0D8901236B9
:1049A800112EFCD71250FF0A8216000E806E020EDE
:1049B800496007D0010E4924136E146A000E1422B0
:1049C80004D0000E146E000E136E13C049F0E80EEA
:1049D8000F5C030E1058D8B01200000E156E020EB0
:1049E800156401D013D01550010D5F0EF324D96E54
:1049F800020EF420DA6E0FC008F010C009F015C0DE
:104A08000AF00FEC29F0DF6E152AE9D749C011F03A
:104A1800010E126E112A02D0D8901236112EFCD730
:104A2800125082124950010D5F0EF324D96E020E06
:104A3800F420DA6EDF50116E1150010D9D0EF32433
:104A4800D96E020EF420DA6EDF50806E120000017B
:104A58006951601904E16A516119D8B429D06B51C0
:104A6800621904E16C516319D8B422D060516B19F2
:104A780004E161516C19D8B41BD06951621904E181
:104A88006A516319D8B414D06205300E6359D8B08E
:104A98000FD06005300E6159D8B00AD06B05300EC2
:104AA8006C59D8B005D06905300E6A59D8A002D023
:104AB800D88012006251605D63516159D8B01ED030
:104AC8006B51695D6C516A59D8B010D06951605DFD
:104AD8006A516159D8B012D06251695D63516A59FF
:104AE800D8B002D0D8801200D890120060516B5D07
:104AF80061516C59D8A0F8D7D8801200D88012001C
:104B0800000E0001756F070E756501D050D0755104
:104B18000E0D000EF324606F040EF420616F670E13
:104B2800626F000E636F0EEC2EF00001D8A03DD02E
:104B380075510E0D0A0EF326000EF422000EF32412
:104B4800D96E040EF420DA6EDECF6DF0DECF6EF093
:104B5800DECF6FF0DECF70F06D1F6E1F6F1F701FFE
:104B68006D2B000E6E236F23702301EC31F00001D2
:104B78006D516025716F6E516121726F6F516221A5
:104B8800736F70516321746F745173110EE1300E9D
:104B9800715D750E7259D8B008D06BC0D9FF6CC062
:104BA800DAFF75C0DFFF010E1200752BACD7000EBF
:104BB800120060C0D9FF61C0DAFF62C0DFFF0001E8
:104BC80020EE01F06051D9266151DA2263C0DFFF7F
:104BD80020EE02F06051D9266151DA226551DF6E6C
:104BE80020EE03F06051D9266151DA2264C0DFFF5C
:104BF80020EE04F06051D9266151DA2210EE66F0F9
:104C0800000EE6146A6F000EE6146B6F000EE614D1
:104C18006C6FFF0EE6146D6F190E05D0D8906D33CA
:104C28006C336B336A33E82EF9D76A51DF6E20EEA6
:104C380005F06051D9266151DA2268C0DFFF20EE05
:104C480006F06051D9266151DA2267C0DFFF20EEF5
:104C580007F06051D9266151DA2266C0DFFF1200E1
:104C68001F0E076E000E086E000E096E000E0A6E0B
:104C7800FF0E036E030E046E000E056E000E066E28
:104C880081BA07D0010E3526000E36223722382287
:104C980008D0000E356E000E366E000E376E000E10
:104CA800386E0750355C08503658095037580A5046
:104CB8003858D8A002D0010E01D0000E4A6E4A50D2
:104CC800D8B411D04B50D8A40ED007C035F008C0C6
:104CD80036F009C037F00AC038F001C0D9FF02C069
:104CE800DAFF010E05D001C0D9FF02C0DAFF000EBD
:104CF800DF6E3550035C365004583750055838502D
:104D08000658D8A0FF004AC04BF0120002014851D3
:104D180000019A19D8B441D09A51D8A407D0DA0E14
:104D2800986F7E0E996F42EC2CF00AD000019A051C
:104D3800D8A406D0DB0E986F7D0E996F42EC2CF04C
:104D480000019A05D8A429D09B51D8A407D0C80E31
:104D5800986F7D0E996F42EC2CF00AD000019B05EC
:104D6800D8A406D0A00E986F7D0E996F42EC2CF057
:104D780000019C51D8A407D07B0E986F7C0E996FC8
:104D880042EC2CF00AD000019C05D8A406D0980E5D
:104D9800986F7C0E996F42EC2CF020EE9AF012EE90
:104DA80048F00E0EDBCFE3FFE806FCE212009EECB3
:104DB80030F0D0EC22F06EC07DF06FC07EF070C095
:104DC8007FF000017E517F11D8B407D07DC07AF002
:104DD8007EC07BF07FC07CF0120012EC2DF06EC01C
:104DE8007DF06FC07EF070C07FF000017E517F11B2
:104DF800D8B407D07DC07AF07EC07BF07FC07CF04D
:104E08001200300E6F6F000E6E6F86EC2FF0300EB2
:104E18000001616F000E606F3FEC31F05F0E000122
:104E28006F6FFE0E6E6F71EC2FF044EC31F0C5EC35
:104E38002FF0010E00017D6F000E7F6F000E7E6F58
:104E48007DC07AF07EC07BF07FC07CF012003BEC26
:104E58002AF021EE08F0050EEBCFDBFFE806FCE2B6
:104E68000E0E0001606F010E616F14EC30F0060E3B
:104E78000101186F040E196F000E156F010E146FE3
:104E8800080E176F000E166F000E1B6F010E1A6FBB
:104E980000C122F101C123F102C124F103C125F1AE
:104EA80021EE08F011EE1CF0050EDBCFE3FFE8065B
:104EB800FCE204C12CF105C12DF106C12EF107C198
:104EC8002FF121EE0EF011EE26F0050EDBCFE3FFF9
:104ED800E806FCE221EE14F000EEA7F01F0EDBCF8F
:104EE800EBFFE806FCE2EFEC11F0120000016F6F37
:104EF800700E00016A6F000E6B6F750EDCEC2EF001
:104F080000016F05D8B40BD015D0F00E7017708162
:104F18002CD0F00E18D0F00E7017060E19D06E5166
:104F2800000AD8B4F6D7010AD8B4EFD7030AD8B420
:104F3800F2D7EBD76F51D8B40DD017D00F0E70172A
:104F4800708913D00F0E701710D00F0E7017600EE7
:104F580070130BD06E51000AD8B4F4D7010AD8B434
:104F6800EDD7030AD8B4F1D7E9D7700E6A6F000EEF
:104F78006B6F750EC1EC2EF01200820E00016A6F85
:104F8800000E6B6F1B0EDCEC2EF0000182A106D028
:104F980080C0D9FF81C0DAFF010E05D080C0D9FFDB
:104FA80081C0DAFF000EDF6E830E6E6F000E6F6F2A
:104FB8001F0EB0EC21F0000183A708D020EE01F00D
:104FC8008051D9268151DA22010E07D020EE01F056
:104FD8008051D9268151DA22000EDF6E83A909D0CB
:104FE80020EE02F08051D9268151DA22010EDF6EBF
:104FF800120020EE02F08051D9268151DA22000EEB
:10500800DF6E12000001706F080E000170611ED083
:10501800710E6A6F000E6B6F1C0EDCEC2EF070C008
:105028006EF0010E00016F6F6E2B02D0D8906F37B3
:105038006E2FFCD700016F51FF0A7117710E6A6F4E
:10504800000E6B6F1C0EC1EC2EF01200080E000152
:10505800705F710E6A6F000E6B6F1D0EDCEC2EF028
:1050680070C06EF0010E00016F6F6E2B02D0D890E9
:105078006F376E2FFCD700016F51FF0A7117710E41
:105088006A6F000E6B6F1D0EC1EC2EF012001E0E23
:10509800F66E610EF76E000EF86E04EE9FF010EEDD
:1050A8001EF00900F5CFEEFFE550E150FAE1EE0EF3
:1050B800F66E5D0EF76E000EF86E02EE8BF010EED7
:1050C80034F00900F5CFEEFFE550E150FAE104EEC7
:1050D80000F0700EEE6AE806FDE103EE00F0EF0E58
:1050E800EE6AE806FDE102EE00F08B0EEE6AE806D5
:1050F800FDE10101FE6B506A00EE29F0270EEE6A11
:10510800E806FDE151905192000EF86E0001D1EFD2
:105118000BF0000E0001686F000E696F000E6A6FD9
:10512800000E6B6F6451651166116711D8B42AD0EF
:10513800010E6C6F06D0D8906437653766376737CD
:105148006C2B67AFF8D7D890683769376A376B37F1
:105158006451605D6551615966516259675163597F
:10516800D8A009D06451605F6551615B6651625B8C
:105178006751635B6881D8906733663365336433FE
:105188006C2FE1D768C060F069C061F06AC062F056
:105198006BC063F0120075C06AF076C06BF04DEC1E
:1051A8002EF0000E0001866F050E866501D014D022
:1051B8008651010D6F0EF324D96E000EF420DA6EBD
:1051C8008651010D7E0EF324E16E000EF420E26E8E
:1051D800DFCFE7FF862BE8D72A0E846F8198840EED
:1051E800606F000E616F87EC2BF0000E0001856F79
:1051F800050E856501D00DD08551010D7E0EF32475
:10520800606F000EF420616F87EC2BF00001852B96
:10521800EFD78188120008C001F009C002F0000E23
:10522800046E640E036EC1EC2CF001500E6E0E502D
:10523800640DF31EF41EF34AF42A0850F324016E99
:105248000950F420026E000E046E0A0E036EC1ECC3
:105258002CF001500D6E0D500A0DF3CF0BF00E50CF
:10526800640DF3500B24000808240C6E08D00C5071
:1052780012000D5012000E501200000E12000A50BB
:10528800000AD8B4F8D7010AD8B4F3D7030AD8B4B7
:10529800EED7F3D73AEC31F060C075F061C076F024
:1052A80075C06AF076C06BF06BEC2EF02C0E000126
:1052B800776F8198770E606F000E616F87EC2BF027
:1052C800780E0001606F000E616F1EEC2BF0790EF6
:1052D8000001606F000E616F1EEC2BF08188000EDC
:1052E80000016F6FFF0E706F7951726F716B6F51A4
:1052F8007117705172177851736F746B7151731104
:10530800606F72517411616F3FEC31F0120000014F
:105318007C6F3F504010D8A410D06FC06AF070C0A6
:105328006BF04DEC2EF02A0E00017D6F81987D0EFA
:10533800606F000E616F87EC2BF07C0E0001606FD0
:10534800000E616F87EC2BF0FF0E0001786FFF0EE7
:10535800796F20EE73F0DECF7AF0DDCF7BF07851F5
:105368007A2779517B233F507A190AE140507B19FB
:10537800D8A406D08188000E406E000E3F6E120041
:105388003F4A402A1200020E000171256A6F000E82
:1053980072216B6F6BEC2EF02C0E0001766F8198EA
:1053A800760E606F000E616F87EC2BF0000E000127
:1053B800776F050E776501D00DD07751010D7C0E02
:1053C800F324606F020EF420616F1EEC2BF00001D5
:1053D800772BEFD781887C0E606F020E616FBDEC72
:1053E8000DF0E9CFD9FFEACFDAFF00EE71F0040E35
:1053F800DBCFEBFFE806FCE21200B20E0001606FA3
:10540800000E616F14EC30F0B80E0001606F000EF2
:10541800616F01EC30F0000E0001BC6F070EBC6537
:1054280001D01ED020EEB2F000EE9AF0050EDBCFD0
:10543800EBFFE806FCE2B8C0A0F0B9C0A1F0BAC022
:10544800A2F0BBC0A3F0FF0EA46FFF0EA56FFF0E66
:10545800A66FFF0EA76F23EC1AF00001BC2BDED756
:10546800DF0E986F7A0E996F42EC2CF01200740ED2
:1054780000016A6F000E6B6F640EDCEC2EF0750E87
:1054880000016A6F000E6B6F650EDCEC2EF0760E75
:1054980000016A6F000E6B6F620EDCEC2EF0770E67
:1054A80000016A6F000E6B6F630EDCEC2EF0780E55
:1054B80000016A6F000E6B6F600EDCEC2EF0790E47
:1054C80000016A6F000E6B6F610EDCEC2EF020EEAF
:1054D80074F000EE6EF0050EDBCFEBFFE806FCE2A1
:1054E8001200000E0001736F6FAF06D06E6D6F1F54
:1054F800D8B06F2B010E736F71AF04D0706D711F30
:10550800D8B0712B70517111D8B418D0010E726FC8
:1055180004D0D89070377137722B71AFFAD77051A9
:105528006E5D71516F59D8A004D070516E5F715182
:105538006F5BD89071337033722FF1D77351D8B431
:1055480004D06E6D6F1FD8B06F2B6EC06EF06FC039
:105558006FF01200000E00017D6F000E7C6F140EBC
:105568006F256A6F000E70216B6F6BEC2EF02C0E9E
:1055780000017E6F81987E0E606F000E616F87EC70
:105588002BF0800E0001606F000E616F1EEC2BF097
:105598007F0E0001606F000E616F1EEC2BF00001A2
:1055A8008051796F786B7F517A6F7B6B78517A1164
:1055B8007C6F79517B117D6F81887CC06FF07DC0D5
:1055C80070F012000E0E00016F256A6F000E702138
:1055D8006B6F6BEC2EF02C0E0001786F8198780EB3
:1055E800606F000E616F87EC2BF0000E0001806F7A
:1055F800050E806501D013D07F0E606F000E616FBD
:105608001EEC2BF000018051010D790EF324D96EA8
:10561800000EF420DA6E7FC0DFFF802BE9D7818887
:1056280020EE79F000EE6FF0050EDBCFEBFFE80619
:10563800FCE21200000E0001666F000E676F000E9C
:10564800686F000E696F000EC96EC7B015D066C0CE
:1056580062F067C063F068C064F069C065F0662BEB
:10566800000E6723682369236551641105E16229E7
:105678000F0E6359D8A0E9D76951681105E1662969
:105688000F0E6759D8A004D081889EEC30F0120024
:1056980060C0D9FF61C0DAFFC9CFDFFF1200000187
:1056A8006451651166116711D8B424D0010E686F72
:1056B80006D0D8906437653766376737682B67AF89
:1056C800F8D76451605D65516159665162596751F7
:1056D8006359D8A008D06451605F6551615B665119
:1056E800625B6751635BD8906733663365336433B5
:1056F800682FE7D760C060F061C061F062C062F0F7
:1057080063C063F01200000E0001666F000E676F41
:10571800000E686F000E696F60C0D9FF61C0DAFFC4
:10572800DF50C96EC7B015D066C062F067C063F0BD
:1057380068C064F069C065F0662B000E67236823B3
:1057480069236551641105E162290F0E6359D8A0D8
:10575800E9D76951681105E166290F0E6759D8A084
:10576800120081889EEC30F012000001716F1FD08A
:105778006FC06AF070C06BF06BEC2EF02C0E00015D
:10578800726F8198720E606F000E616F87EC2BF05C
:10579800000E1200730E0001606F000E616F1EECA8
:1057A8002BF00001735112008188000E12000001D5
:1057B8007151000AD8B4DCD7010AD8B4EBD7030A70
:1057C800D8B4F2D7000E1200A9C260F0AAC261F0E4
:1057D800ABC262F0ACC263F06D0E0001646F4E0E96
:1057E800656FC60E666F410E676F16EC2CF060C0D1
:1057F800A9F261C0AAF262C0ABF263C0ACF2390E82
:105808000201A927300EAA23000EAB23000EAC23F9
:10581800FF0EAB1500016C6F7F0E0201AC15000185
:105828006D6F1200000E0001686F000E696F000EA8
:105838006A6F000E6B6F60A108D0645168276551CC
:10584800692366516A2367516B23D890643765379B
:1058580066376737D890633362336133603360519A
:10586800611162116311D8A4E6D768C060F069C0FD
:1058780061F06AC062F06BC063F0120016D098C085
:10588800F6FF99C0F7FFF86A070EF76403D008001F
:10589800F55005D0F6CFE9FFF7CFEAFFEF50AD6E30
:1058A8000001984B992BACA2FED798C0F6FF99C07F
:1058B800F7FFF86A070EF76403D00800F55005D023
:1058C800F6CFE9FFF7CFEAFFEF500009D8B412008E
:1058D800D6D77AC082F07BC083F000017FAF10D0AA
:1058E8007AC0D9FF7BC0DAFF2D0EDF6E7A4B7B2B97
:1058F8007F1F7E1F7D1F7C6D000E7D237E237F23EF
:105908007AC06DF07BC06EF07CC06FF07DC070F027
:105918007EC071F07FC072F080C073F081C074F0F7
:10592800D9EC23F01200000E0001666F000E656FBF
:1059380062516311D8B41CD0010E646F04D0D890A2
:1059480062376337642B63AFFAD7D8906537663709
:105958006251605D63516159D8A005D06251605FA2
:105968006351615B6581D89063336233642FEDD7EF
:1059780065C060F066C061F01200000E066E000E91
:10598800056E03500410D8B41CD0010E076E04D065
:10599800D89003360436072A04AEFAD7D8900536CD
:1059A80006360350015C04500258D8A005D00350B5
:1059B800015E0450025A0580D89004320332072E43
:1059C800EDD705C001F006C002F012006FC0D9FF84
:1059D80070C0DAFF10EE73F0160EDBCFE3FFE806B7
:1059E800FCE2000E0001816F000E806F730E606F85
:1059F800000E616FA6EC07F0000120EE0DF06F516C
:105A0800D9267051DA22DE50801906E1DE5081195C
:105A1800D8A402D0D8801200D8901200010E00013C
:105A2800726F000E746F000E736F000E716F710E3F
:105A38006A6F000E6B6F740EDCEC2EF0000171398A
:105A4800E842070B070BE806D8A404D0000E746FD1
:105A5800000E03D0010E746F2D0E736F72C06EF0BE
:105A680073C06FF074C070F01200060E000171254B
:105A78006A6F000E72216B6F4DEC2EF06FC07AF0DA
:105A8800000170517B6F2A0E7C6F81987C0E606FCD
:105A9800000E616F87EC2BF07B0E0001606F000E2B
:105AA800616F87EC2BF07A0E0001606F000E616F5A
:105AB80087EC2BF081881200760E00016A6F000EC9
:105AC8006B6F1C0EDCEC2EF0770E00016A6F000E77
:105AD8006B6F1D0EDCEC2EF0000E0001706FFF0ED8
