:0400000074EF00F0A9
:100008004F82FACF17F0FBCF18F0E9CF19F0EACFFB
:100018001AF0E1CF1BF0E2CF1CF0D9CF1DF0DACFF8
:100028001EF0F3CF1FF0F4CF20F0F6CF21F0F7CF7A
:1000380022F0F8CF23F0F5CF24F04FC025F050C0C0
:1000480026F051C027F052C028F09EA412D09E94EA
:1000580081AC02D0010E01D0000EFF0A166E163ACE
:100068001646164681501618BF0B1618816E0BECF3
:100078002CF0F2A40DD0F29431C00FF032C010F081
:100088000DEC20F0F90E016E010E026E1EEC21F04F
:10009800F0B2F09228C052F027C051F026C050F0BC
:1000A80025C04FF024C0F5FF23C0F8FF22C0F7FF9A
:1000B80021C0F6FF20C0F4FF1FC0F3FF1EC0DAFF07
:1000C8001DC0D9FF1CC0E2FF1BC0E1FF1AC0EAFF38
:1000D80019C0E9FF18C0FBFF17C0FAFF4F921100C3
:1000E80077EF23F0020E0101826F000E846F000E7D
:1000F800836FE5EC2BF0010120EE1EF07851D92634
:100108007951DA22000160C0DEFF61C0DEFF62C003
:10011800DEFF63C0DEFFFDEC2BF0010120EE10F0E6
:100128007851D9267951DA22000162C0DEFF63C016
:10013800DDFF36EC24F0010120EE16F07851D926C7
:100148007951DA22010EDF6E20EE10F07851D926AF
:100158007951DA22DECF71F0DDCF72F0AFEC24F006
:10016800010120EE19F07851D9267951DA22040ECE
:10017800EBCFDBFFE806FCE220EE19F07851D92638
:100188007951DA2210EE14F07851E1267951E22201
:10019800DECFE6FFDDCFE5FF20EE14F07851D9265B
:1001A8007951DA22DECF7AF1DDCF7BF120EE10F043
:1001B8007851D9267951DA22DECF7CF1DDCF7DF175
:1001C8007A517C277B517D23600E7D5DD8A03BD082
:1001D800000E7A6F300E7B6F20EE14F07851D9261E
:1001E8007951DA22DECF7CF1DDCF7DF1FF0E7E6F13
:1001F8002F0E7F6F20EE10F07851D9267951DA2230
:10020800DECF80F1DDCF81F1801F811F804B812BF4
:100218007E5180277F518123801F811F804B812B36
:100228007C5180277D5181237A5180277B518123FE
:1002380020EE12F07851D9267951DA2280C1DEFFFA
:1002480081C1DDFF22D020EE14F07851D9267951F2
:10025800DA22DECF7AF1DDCF7BF120EE10F0785193
:10026800D9267951DA22DECF7CF1DDCF7DF17A51C2
:100278007C277B517D2320EE12F07851D9267951C5
:10028800DA227CC1DEFF7DC1DDFF20EE10F078515F
:10029800D9267951DA2200EE6FF0080EDBCFEBFF9A
:1002A800E806FCE296EC25F0010120EE0EF078510C
:1002B800D9267951DA2200016FC0DEFF70C0DDFF58
:1002C800C30E986F7F0E996F27EC27F035C084F026
:1002D80036C085F037C086F038C087F0D8EC29F0F2
:1002E80084C098F085C099F027EC27F0010E3526D8
:1002F800000E362237223822FB0E0001986F7F0E3F
:10030800996F27EC27F0010120EE1BF07851D926D0
:100318007951DA22DFAE07D0560E0001986F7F0EB2
:10032800996F27EC27F0010120EE1DF07851D926AE
:100338007951DA22DFA407D0770E0001986F7F0E7B
:10034800996F27EC27F0010120EE1BF07851D92690
:100358007951DA22DFBA07D0DA0E0001986F7E0EE3
:10036800996F27EC27F0C30E0001986F7F0E996FE5
:1003780027EC27F0010120EE1EF07851D92679519B
:10038800DA22DECF84F0DECF85F0DECF86F0DECF56
:1003980087F0D8EC29F084C098F085C099F027EC54
:1003A80027F0FB0E0001986F7F0E996F27EC27F05E
:1003B80097D0BA0E0001986F7F0E996F27EC27F03F
:1003C80078C1FCF079C1FDF0EAEC14F0A0D0B30ECE
:1003D8000001986F7F0E996F27EC27F078C1B5F070
:1003E80079C1B6F0CBEC15F092D0360E0001986FBB
:1003F8007E0E996F27EC27F0C30E0001986F7F0ED1
:10040800996F27EC27F0010120EE02F07851D926E8
:100418007951DA2200EE7AF0050EDBCFEBFFE80621
:10042800FCE2BBEC1DF07AC098F07BC099F027EC99
:1004380027F0F40E0001986F7F0E996F27EC27F0D4
:10044800010120EE08F07851D9267951DA2200EE20
:100458007AF0050EDBCFEBFFE806FCE2BBEC1DF003
:100468007AC098F07BC099F027EC27F0F70E0001CE
:10047800986F7F0E996F27EC27F0010120EE0EF0A0
:100488007851D9267951DA22DECF60F0DDCF61F0DC
:100498008AEC28F060C098F061C099F027EC27F04A
:1004A800D90E0001986F7F0E996F27EC27F078C15D
:1004B800D9FF79C1DAFFDECF7AF1DDCF7BF17AC1DE
:1004C8009AF07BC19BF000019C6B9D6B61EC2BF05B
:1004D800F10E0001986F7F0E996F27EC27F017D067
:1004E800010120EE0EF07851D9267951DA22DECFBB
:1004F8007AF1DDCF7BF17B51080AD8A476D77A51FF
:10050800000AD8B464D7060AD8B453D76ED7C30E36
:100518000001986F7F0E996F27EC27F0010120EEFC
:1005280010F07851D9267951DA22DECF7AF1DDCF71
:100538007BF17AC184F07BC185F00001866B876B03
:10054800D8EC29F084C098F085C099F027EC27F002
:100558001D0E0001986F7C0E996F27EC27F00101A2
:1005680020EE12F07851D9267951DA22DECF7AF1CD
:10057800DDCF7BF17AC184F07BC185F00001866B09
:10058800876BD8EC29F084C098F085C099F027ECE7
:1005980027F00C0E0001986F7D0E996F27EC27F05D
:1005A800010120EE14F07851D9267951DA22DECFF4
:1005B8007AF1DDCF7BF17AC184F07BC185F000014F
:1005C800866B876BD8EC29F084C098F085C099F0C9
:1005D80027EC27F0FA0E0001986F7F0E996F27EC31
:1005E80027F010EC29F0EB0E0001986F7F0E996F41
:1005F80027EC27F01200000E0001A16F845185112D
:10060800D8A40CD0010E9F6F20EE98F000EE84F075
:10061800080EDBCFEBFFE806FCE212006AEC29F0DB
:10062800D8A00DD0010E00019F6F20EE98F000EECB
:1006380084F0080EDBCFEBFFE806FCE2120086EC44
:1006480029F0D8A038D2300E0001855DD8A00CD092
:10065800010E9F6F20EE98F000EE84F0080EDBCFBD
:10066800EBFFE806FCE21200000E0201016F000E2B
:10067800006F84C002F285C003F284C004F285C012
:1006880005F2010E066F000E086F22EE00F000EE74
:1006980084F0080EDBCFEBFFE806FCE21200000155
:1006A800A151090D060EF326000EF422000EF324C4
:1006B800D96E020EF420DA6EDF50D8A4EBD1A15126
:1006C800D8B407D0FF0EA125936F946BFF0E942327
:1006D80004D0000E946F070E936F93C060F094C01F
:1006E80061F0000E636F090E626FB7EC2AF0020E1C
:1006F80000016027000E6123000E6025D96E020EEE
:100708006121DA6EDECF8DF0DDCF8EF0010E8D2700
:10071800000E8E23A151090D000EF324D96E020E8E
:10072800F420DA6E8DC0DEFF8EC0DDFFA151090D09
:10073800000EF324D96E020EF420DA6EDECF8DF0AF
:10074800DDCF8EF084518D2785518E238D05300E97
:100758008E59D8A0CFD0070EA119D8A4CBD00201AA
:100768000651D8A4C7D00001A151090D040EF326E3
:10077800000EF422000EF324D96E020EF420DA6E75
:1007880084C0DEFF85C0DDFFA151090D040EF326EC
:10079800000EF422000EF324D96E020EF420DA6E55
:1007A800DECF8DF0DDCF8EF0FF0E8F6F2F0E906FA6
:1007B800A151090D000EF324D96E020EF420DA6E51
:1007C800DECF91F0DDCF92F0911F921F914B922BCB
:1007D8008F51912790519223911F921F914B922BE9
:1007E8008D5191278E519223A151090D020EF326A6
:1007F800000EF422000EF324D96E020EF420DA6EF5
:1008080091C0DEFF92C0DDFF000E966F070E966561
:1008180001D044D0A1519619D8B43ED0A151090DA8
:10082800000EF324D96E020EF420DA6E00EE72F098
:10083800080EDBCFEBFFE806FCE29651090D000E2F
:10084800F324D96E020EF420DA6E00EE7BF0080E67
:10085800DBCFEBFFE806FCE2A7EC1CF00001D8A018
:100868001BD09651090D060EF326000EF422000E39
:10087800F324D96E020EF420DA6EDF50D8B40CD00F
:10088800010E9F6F20EE98F000EE84F0080EDBCF8B
:10089800EBFFE806FCE21200962BB8D7A151090D30
:1008A800060EF326000EF422000EF324D96E020E73
:1008B800F420DA6E010EDF6EA151090D080EF32641
:1008C800000EF422000EF324D96E020EF420DA6E24
:1008D800A1C0DFFFA151090D000EF324D96E020E4D
:1008E800F420DA6E00EE84F0080EDBCFEBFFE806AA
:1008F800FCE21200010E0001956FA151090D000ED6
:10090800F324D96E020EF420DA6EDECF8DF0DDCF3F
:100918008EF084518D2785518E23A151090D020E29
:10092800F326000EF422000EF324D96E020EF420F2
:10093800DA6E8DC0DEFF8EC0DDFF000E976F070EEA
:10094800976501D03AD0A1519719D8B434D09751AE
:10095800090D060EF326000EF422000EF324D96EBC
:10096800020EF420DA6EDF50D8B425D0A151090D5B
:10097800000EF324D96E020EF420DA6E00EE72F047
:10098800080EDBCFEBFFE806FCE29751090D000EDD
:10099800F324D96E020EF420DA6E00EE7BF0080E16
:1009A800DBCFEBFFE806FCE2A7EC1CF00001D8A0C7
:1009B80002D0000E956F972BC2D79551D8B46AD044
:1009C800A151090D060EF326000EF422000EF324A1
:1009D800D96E020EF420DA6E010EDF6EA151090DF8
:1009E800000EF324D96E020EF420DA6EDECF8DF0FD
:1009F800DDCF8EF084518D2785518E23A151090DAD
:100A0800020EF326000EF422000EF324D96E020E15
:100A1800F420DA6E8DC0DEFF8EC0DDFFA151090D16
:100A2800070EF326000EF422000EF324D96E020EF0
:100A3800F420DA6E000EDF6EA151090D040EF326C4
:100A4800000EF422000EF324D96E020EF420DA6EA2
:100A580084C0DEFF85C0DDFFA151090D080EF32615
:100A6800000EF422000EF324D96E020EF420DA6E82
:100A7800A1C0DFFFA151090D000EF324D96E020EAB
:100A8800F420DA6E00EE84F0080EDBCFEBFFE80608
:100A9800FCE21200A12B080EA119D8A40CD0010E5B
:100AA8009F6F20EE98F000EE84F0080EDBCFEBFF8E
:100AB800E806FCE21200080E0001A165F0D520EE60
:100AC80098F000EE84F0080EDBCFEBFFE806FCE2BE
:100AD8001200FC0ED316D3508F0B6009D36ED28848
:100AE800F29EF28AF0889F9A9D8AF28CD58ED58CD8
:100AF800D59AD596D550F80B0509D56ECD80BD5041
:100B0800F00B0B09BD6E1F0EBF6E400EBE6E9D84AE
:100B1800F28C939CEEEC2BF090EC2BF0680E01011C
:100B2800916FE40EE82EFED7912FFCD700F0FD0E52
:100B38000001986F7F0E996F27EC27F0D0B615D07B
:100B4800870E0001986F7A0E996F27EC27F0BA0E7E
:100B58000001986F7A0E996F27EC27F0870E000135
:100B6800986F7A0E996F27EC27F0F30E0001986FB3
:100B78007D0E996F27EC27F04A0E0001986F7F0EC3
:100B8800996F27EC27F0EF0E0001986F7F0E996F91
:100B980027EC27F0930E0001986F7F0E996F27ECD2
:100BA80027F0D00E0001986F7F0E996F27EC27F081
:100BB800C5EC21F07AC0BBF17BC0BCF17CC0BDF1B3
:100BC8000101BC51BD11D8B408D0BBC19AF0BCC159
:100BD8009BF0BDC19CF07FEC1BF0F6EC27F06EC0DB
:100BE800BBF16FC0BCF170C0BDF10101BC51BD11BA
:100BF800D8A40FD03EEC2BF060C098F061C099F0FB
:100C080027EC27F03E0E0001986F7F0E996F27ECB6
:100C180027F00B0E0001986F7E0E996F27EC27F0D6
:100C280023EC25F0E9CFD9FFEACFDAFF00EE7AF01E
:100C3800050EDBCFEBFFE806FCE2BBEC1DF07AC04B
:100C480098F07BC099F027EC27F0D00E0001986F40
:100C58007F0E996F27EC27F0870E0001986F7A0EA8
:100C6800996F27EC27F012EC2CF0000E00016E6F44
:100C7800000E64EC22F0000E00016E6F000E64ECB2
:100C880022F0150E0101926F4B0E916FBE0EE82EE9
:100C9800FED7912FFCD7922FFAD700F0010E000152
:100CA8006E6F000E64EC22F0010E00016E6F000EF4
:100CB80064EC22F0000E0101946F000E956F000E97
:100CC800966F000E976F0F015C9B938AA90E010126
:100CD800BE6FFE0EBF6F6C0EC06F870EC16FF28EB7
:100CE800F28C23EC25F0050EE926000EEA22EF50DF
:100CF8000101916F915100017A6F7B6BF6EC2BF03B
:100D080067EC28F074C0CEF275C0CFF276C0D0F28E
:100D180077C0D1F20400570E0101856F020E866F6D
:100D28000EEC0EF022EE79F000EE9AF00E0EDBCF0C
:100D3800EBFFE806FCE274EC21F002017951D8B42B
:100D480005D0D1C2B8F10101B96B05D0030E01017C
:100D5800B96FE80EB86FB8C131F0B9C132F0000E02
:100D680032BEFF0E336E346EF951D8B4D3D7000EAD
:100D7800F96F080E0001986F7F0E996F27EC27F026
:100D8800CAEC2BF060C073F061C074F062C075F0FB
:100D980063C076F0F3EC13F073C098F074C099F068
:100DA80027EC27F0EB0E0001986F7F0E996F27EC68
:100DB80027F002017905D8A4ADD7BEC19FF2BFC103
:100DC800A0F2C0C1A1F2C1C1A2F2CAEC2BF060C06E
:100DD8009BF261C09CF262C09DF263C09EF2000E5D
:100DE8000201916F780E906F9769040E8C6F8C0ECC
:100DF8000001606F020E616F22EC0BF022EE8CF0A6
:100E080000EE60F0160EDBCFEBFFE806FCE2980E72
:100E18000001776F010E786F1FEC18F08C0E00013F
:100E2800A76F020EA86FE4EC1AF0000E0101BA6F6A
:100E380034D002018D51040D0101BA51916F926BAA
:100E4800F350915D9251800A936FF450800A935940
:100E5800D8B015D022EE8CF000EE7EF0410EDBCF3C
:100E6800EBFFE806FCE2BA51010D980EF324D96EA7
:100E7800010EF420DA6EDF50A3EC2AF00CD022EE3B
:100E88008CF000EE7EF0410EDBCFEBFFE806FCE2D3
:100E9800000EA3EC2AF00101BA2BBA51916F926BA4
:100EA800020190510101915D020191510101925994
:100EB800D8A0BFD7EF0E0001986F7C0E996F27EC72
:100EC80027F09BC273F09CC274F09DC275F09EC25D
:100ED80076F0F3EC13F073C098F074C099F027EC37
:100EE80027F0D40E0001986F7F0E996F27EC27F03A
:100EF8009FC273F0A0C274F0A1C275F0A2C276F0CE
:100F0800F3EC13F073C098F074C099F027EC27F055
:100F1800EA0E0001986F7F0E996F27EC27F0010EFB
:100F280002018B6FF7D6000E00019C6F160E9B6FA7
:100F380020EE10F07451D9267551DA22DECF94F0E4
:100F4800DDCF95F09B5194256F6F9C519521706F63
:100F5800000EA1EC26F0000120EE10F07451D92605
:100F68007551DA22DECF94F0DDCF95F09B519425B0
:100F78006F6F9C519521706F010EA1EC26F0000156
:100F88009E6F9D6B20EE10F07451D9267551DA22B0
:100F9800DECF94F0DDCF95F09B5194256F6F9C5177
:100FA8009521706F010EA1EC26F00001966F965105
:100FB8009D1320EE10F07451D9267551DA22DECF38
:100FC80094F0DDCF95F09B5194256F6F9C5195213E
:100FD800706F010EA1EC26F00001A06F9F6B20EE50
:100FE80010F07451D9267551DA22DECF94F0DDCF96
:100FF80095F09B5194256F6F9C519521706F010E50
:10100800A1EC26F00001966F96519F1320EE10F088
:101018007451D9267551DA22DECF94F0DDCF95F0E0
:101028009B5194256F6F9C519521706F010EA1EC17
:1010380026F00001A16F20EE10F07451D9267551E9
:10104800DA22DECF94F0DDCF95F09B5194256F6FB7
:101058009C519521706F010EA1EC26F00001A26F42
:1010680020EE10F07451D9267551DA22DECF94F0B3
:10107800DDCF95F09B5194256F6F9C519521706F32
:10108800010EA1EC26F00001A46FA36B20EE10F076
:101098007451D9267551DA22DECF94F0DDCF95F060
:1010A8009B5194256F6F9C519521706F010EA1EC97
:1010B80026F00001966F9651A313000E976F24D067
:1010C80020EE10F07451D9267551DA22DECF94F053
:1010D800DDCF95F09B5194256F6F9C519521706FD2
:1010E800010EA1EC26F00001966F9751010D080E34
:1010F800F326000EF4229D0EF324D96E000EF42080
:10110800DA6E96C0DFFF972BA151975DD8A0D8D78C
:10111800000E986F24D020EE10F07451D926755126
:10112800DA22DECF94F0DDCF95F09B5194256F6FD6
:101138009C519521706F010EA1EC26F00001966F6D
:101148009851010D0E0EF326000EF4229D0EF32485
:10115800D96E000EF420DA6E96C0DFFF982BA251EC
:10116800985DD8A0D8D7000E996F24D020EE10F043
:101178007451D9267551DA22DECF94F0DDCF95F07F
:101188009B5194256F6F9C519521706F010EA1ECB6
:1011980026F00001966F9951010D120EF326000EEC
:1011A800F4229D0EF324D96E000EF420DA6E96C058
:1011B800DFFF992BA151995DD8A0D8D7000E9A6F5F
:1011C80024D020EE10F07451D9267551DA22DECFE2
:1011D80094F0DDCF95F09B5194256F6F9C5195212C
:1011E800706F010EA1EC26F00001966F9A51010D67
:1011F800180EF326000EF4229D0EF324D96E000E6D
:10120800F420DA6E96C0DFFF9A2BA2519A5DD8A01F
:10121800D8D720EE10F07451D9267551DA22DECFD6
:1012280094F0DDCF95F09B5194256F6F9C519521DB
:10123800706F020EA1EC26F0AB0E0001606F000E7D
:10124800616F09EC2AF00001D8A002D0B9833CD024
:10125800B993AB0E606F000E616FB50E626F000E32
:10126800636FEFEC28F00001D8A00DD0AF0E606FCF
:10127800000E616FF1EC29F00001D8A004D0A3059D
:10128800A411D8B41FD0AB0E606F000E616FB50EFD
:10129800626F000E636FEFEC28F00001D8A014D045
:1012A800A50E606F000E616FAF0E626F000E636F68
:1012B800CEEC28F00001D8A007D0020EA319A41183
:1012C800D8A402D0B98101D0B9919D059E11D8A4A6
:1012D80013D0080EA0199F11D8A40ED0A4510CE168
:1012E800030EA35DD8B008D0060EA119D8A404D067
:1012F800040EA219D8B404D0010EBC6F950E03D009
:10130800000EBC6F000EBB6F030EBA6F20EE9DF08F
:1013180000EE74F01F0EDBCFEBFFE806FCE21200D4
:10132800000E0001656FFF0E666F20EE01F0605140
:10133800D9266151DA22DF50676F6751696F686B90
:10134800655168176651691760C0D9FF61C0DAFF37
:10135800DF506A6F6B6B68516A116C6F69516B1162
:101368006D6F20EE02F06051D9266151DA22DFA0BC
:1013780003D0656B652B02D00001656B6E51651952
:10138800FE0B65196E6F20EE02F06051D92661518F
:10139800DA22DFA403D0656B652B02D00001656BF0
:1013A80065476E516519FD0B65196E6F20EE02F0E9
:1013B8006051D9266151DA22DFA803D0656B652B0D
:1013C80002D00001656B654765476E516519FB0BD7
:1013D80065196E6F20EE02F06051D9266151DA224C
:1013E800DFAA03D0656B652B02D00001656B6547EA
:1013F800654765476E516519F70B65196E6F20EEE5
:1014080002F06051D9266151DA22DFAC03D0656B56
:10141800652B02D00001656B653B6E516519EF0BBA
:1014280065196E6F20EE02F06051D9266151DA22FB
:10143800DFAE03D0656B652B02D00001656B653BA1
:1014480065476E516519DF0B65196E6F20EE03F065
:101458006051D9266151DA22DFA003D0656B652B74
:1014680002D00001656B653B654765476E5165199C
:10147800BF0B65196E6F20EE03F06051D9266151DC
:10148800DA22DFA203D0656B652B02D00001656B01
:10149800653365336E5165197F0B65196E6F20EEE4
:1014A80003F06051D9266151DA22DFA603D0656BBB
:1014B800652B02D00001656B65476F516519FD0BFF
:1014C80065196F6F20EE03F06051D9266151DA2259
:1014D800DFA803D0656B652B02D00001656B6547FB
:1014E80065476F516519FB0B65196F6F20EE03F0A7
:1014F8006051D9266151DA22DFAA03D0656B652BCA
:1015080002D00001656B6547654765476F516519EE
:10151800F70B65196F6F20EE03F06051D926615102
:10152800DA22DFAC03D0656B652B02D00001656B56
:10153800653B6F516519EF0B65196F6F20EE03F06E
:101548006051D9266151DA22DFAE03D0656B652B75
:1015580002D00001656B653B65476F516519DF0B6C
:1015680065196F6F20EE04F06051D9266151DA22B7
:10157800DFA003D0656B652B02D00001656B653B6E
:10158800654765476F516519BF0B65196F6F20EE89
:1015980004F06051D9266151DA22DFA203D0656BCD
:1015A800652B02D00001656B653365336F51651992
:1015B8007F0B65196F6F20EE04F06051D9266151D9
:1015C800DA22DFA403D0656B652B02D00001656BBE
:1015D80070516519FE0B6519706F20EE04F06051AB
:1015E800D9266151DA22DFA603D0656B652B02D0BC
:1015F8000001656B654770516519FD0B6519706FC2
:1016080020EE04F06051D9266151DA22DFA803D018
:10161800656B652B02D00001656B654765477051A6
:101628006519FB0B6519706F20EE6CF000EE60F029
:10163800040EDBCFEBFFE806FCE21200000E00010F
:101648006E6F000E6F6F000E706F000E716F20EEE0
:1016580002F06051D9266151DA22DF50626F636B64
:10166800D89062376337D8906237633720EE01F03D
:101678006051D9266151DA22DF50646F6451666F78
:10168800656B60C0D9FF61C0DAFFDF50676F686BB8
:101698000C0ED89067376837E82EFBD7655167136B
:1016A80066516813625167136351681320EE03F0A3
:1016B8006051D9266151DA22DF50696F6951671389
:1016C800000E681367C06EF068C06FF0706B716BC6
:1016D80020EE04F06051D9266151DA22DECF62F0A3
:1016E800DDCF63F062516E2763516F23000E7023C4
:1016F800000E712320EE06F06051D9266151DA22DE
:10170800DECF62F0DDCF63F062516E2763516F2345
:10171800000E7023000E712320EE09F06051D926C7
:101728006151DA22DECF62F0DDCF63F020EE08F0FF
:101738006051D9266151DA22DF50646F656B0D0E56
:10174800D89064376537E82EFBD76251641363512C
:10175800651364516E2765516F23000E7023000EC8
:10176800712320EE0BF06051D9266151DA22DF5047
:10177800626F6251646F636B20EE0CF06051D92682
:101788006151DA22DF50656F65516313000E6413EF
:1017980063516E2764516F23000E7023000E71236E
:1017A80020EE0FF06051D9266151DA22DF50626FC6
:1017B8006251646F636B20EE10F06051D92661515D
:1017C800DA22DF50656F666B6351651364516613E7
:1017D80065516E2766516F23000E7023000E71232A
:1017E80020EE11F06051D9266151DA22DF50626F84
:1017F8006251646F636B20EE12F06051D92661511B
:10180800DA22DF50656F666B6351651364516613A6
:1018180065516E2766516F23000E7023000E7123E9
:1018280020EE13F06051D9266151DA22DF50626F41
:101838006251646F636B20EE14F06051D9266151D8
:10184800DA22DF50656F666B635165136451661366
:1018580065516E2766516F23000E7023000E7123A9
:1018680020EE15F06051D9266151DA22DF50626FFF
:101878006251646F636B20EE16F06051D926615196
:10188800DA22DF50656F666B635165136451661326
:1018980065516E2766516F23000E7023000E712369
:1018A8006EC062F06FC063F070C064F071C065F024
:1018B800110E05D0D8906533643363336233E82E54
:1018C800F9D70F0E6215666F000E6315676F000E6D
:1018D8006415686F000E6515696FFF0E6E156A6FE7
:1018E800FF0E6F156B6F000E70156C6F000E711583
:1018F8006D6F66516A256E6F67516B216F6F685106
:101908006C21706F69516D21716F6EC062F06FC08C
:1019180063F070C064F071C065F0621F631F641FDC
:10192800651F62C06EF063C06FF064C070F065C080
:1019380071F020EE0DF06051D9266151DA226EC0A7
:10194800DEFF6FC0DDFF1200030E01014E6F38513C
:10195800D8A40FD0000ED26F000ED36F010E506FB7
:10196800970E4F6F4EC134F14FC135F150C136F16A
:10197800120034C167F035C168F036C169F037C16B
:101988006AF0410E00016B6F010E6C6FC5EC20F020
:101998000009D8B42AD1030E0101D26F26D14A0E0C
:1019A8000001606F010E616FF3EC2AF0E5EC2BF09B
:1019B80060C042F161C043F162C044F163C045F1C7
:1019C800FCEC26F06CC06EF06DC06FF0030E0001E9
:1019D800716FE80E706FACEC28F000016EC046F134
:1019E8006FC047F10101486B496B010ED26F54D0AB
:1019F80042C139F143C13AF144C13BF145C13CF11F
:101A0800391F3A1F3B1F3C1F392B000E3A233B233B
:101A18003C23E5EC2BF0010139510001602501015F
:101A28003D6F3A510001612101013E6F3B510001B8
:101A3800622101013F6F3C51000163210101406FA8
:101A480046513D5D47513E5948513F5949514059CA
:101A5800D8A022D0020ED26FE80E396F030E3A6F6B
:101A6800FCEC26F06CC06EF06DC06FF0030E000148
:101A7800716FE80E706FACEC28F00101395100016C
:101A88006E2701013A5100016F236EC046F16FC005
:101A980047F10101486B496B010E506F910EA3D0BD
:101AA800D351D8B432D042C139F143C13AF144C11B
:101AB8003BF145C13CF1391F3A1F3B1F3C1F392BF5
:101AC800000E3A233B233C23E5EC2BF0010139516E
:101AD8000001602501013D6F3A51000161210101BA
:101AE8003E6F3B510001622101013F6F3C510001F3
:101AF80063210101406F3D51465D3E5147593F51B9
:101B0800485940514959D8B07ED0E5EC2BF060C017
:101B180042F161C043F162C044F163C045F1030E74
:101B28000101D36147D0D90E0001986F7D0E996FDE
:101B380027EC27F034C173F035C174F036C175F065
:101B480037C176F0F3EC13F073C098F074C099F0D5
:101B580027EC27F0320E0001986F7F0E996F27EC63
:101B680027F04AC173F04BC174F04CC175F04DC1F8
:101B780076F0F3EC13F073C098F074C099F027EC8A
:101B880027F0EA0E0001986F7F0E996F27EC27F077
:101B98004AC100F14BC101F14CC102F14DC103F141
:101BA80034C104F135C105F136C106F137C107F179
:101BB80015EC22F0020E0101D36508D0000ED36F98
:101BC800000ED26F010E506F930E0DD0010E506FA4
:101BD800910E4F6FD32B17D0000ED36F000ED26F1C
:101BE800010E506F960E4F6F0ED00101D251000AB0
:101BF800D8B4D5D6010AD8B4FBD6030AD8B450D77E
:101C0800010AD8B4E9D74EC134F14FC135F150C1FA
:101C180036F1120038EC1AF078C08CF179C08DF1E9
:101C280001018CA744D0220E85250001806F000E8B
:101C3800010186210001816FABEC22F0010120EE49
:101C480022F08551D9268651DA22DE04D8A41ED086
:101C5800000E00016E6F000E64EC22F0020E00010F
:101C68006E6F010E64EC22F0010120EE77F08551D1
:101C7800D9268651DA22DECF60F0DECF61F0DECFE2
:101C880062F0DECF63F0B6EC2BF00ED0010E00014F
:101C98006E6F000E64EC22F0010E00016E6F010EF3
:101CA80064EC22F0E9EC24F00B0E04EC2CF00101BA
:101CB8008CA90BD0D3EC2BF00009D8B406D085C181
:101CC80078F186C179F176EC00F0010120EE34F06C
:101CD8008551D9268651DA22DE04D8A46CD020EEAC
:101CE80035F08551D9268651DA2201EE34F0410EBD
:101CF800DBCFEBFFE806FCE2DCEC12F034C18EF13E
:101D080035C18FF136C190F1030E01018E19D8B497
:101D180038D051D0160E0001986F7B0E996F27ECC2
:101D280027F025D0BE0E0001986F7D0E996F27EC25
:101D380027F0010120EE48F08551D9268651DA2294
:101D4800DECF73F0DECF74F0DECF75F0DECF76F045
:101D5800F3EC13F073C098F074C099F027EC27F0F7
:101D6800EB0E0001986F7F0E996F27EC27F00101A9
:101D780020EE34F08551D9268651DA22000EDF6E26
:101D88001AD021EE8FF0DECF87F1DDCF88F18851B0
:101D9800000AD8B404D0010AD8B406D00CD08751B0
:101DA800000AD8B4B7D707D08751910AD8B403D05E
:101DB800050AD8B4B7D720EE22F08551D926865126
:101DC800DA22DF50A1EC16F051C189F152C18AF133
:101DD80053C18BF1010120EE22F08551D92686519D
:101DE800DA22DF508CEC19F09AC08EF19BC08FF18B
:101DF8009CC090F1040E01018E19D8A41200F50EB2
:101E08008F1952E19005D8A41200D80E0001986FDE
:101E18007B0E996F27EC27F067EC28F0010120EE84
:101E280077F08551D9268651DA22000174C0DEFF89
:101E380075C0DEFF76C0DEFF77C0DEFFFD0E986F4F
:101E48007B0E996F27EC27F0010120EE77F0855182
:101E5800D9268651DA22DECF73F0DECF74F0DECFDA
:101E680075F0DECF76F0F3EC13F073C098F074C021
:101E780099F027EC27F0EB0E0001986F7F0E996F11
:101E880027EC27F0010120EE77F08551D9268651FD
:101E9800DA22DECF60F0DECF61F0DECF62F0DECF97
:101EA80063F0B6EC2BF012001200C70E0001606F51
:101EB800000E616F19EC2BF020EEC7F010EED9F090
:101EC800050EDBCFE3FFE806FCE2000E0001D26F4F
:101ED800240ED16F20EEF3F000EE6FF0080EDBCF8A
:101EE800EBFFE806FCE2CEEC25F020EED3F0050E81
:101EF800EBCFDBFFE806FCE2080E0001E06F060E00
:101F0800DF6FD10EA26F000EA36F35EC1FF000013A
:101F1800E851D8A41200080EE125F36F000EE22163
:101F2800F46FE3C0F5F0E4C0F6F0000EF86F1C0E95
:101F3800F76F20EEF3F000EE6FF0080EDBCFEBFF4B
:101F4800E806FCE2A85173EC24F020EEF3F000EE72
:101F58006FF0080EDBCFEBFFE806FCE20001A751AB
:101F680073EC24F020EEF3F000EE6FF0080EDBCFF8
:101F7800EBFFE806FCE20001AA5173EC24F020EE26
:101F8800F3F000EE6FF0080EDBCFEBFFE806FCE2A3
:101F98000001A95173EC24F020EEF3F000EE6FF08D
:101FA800080EDBCFEBFFE806FCE20001AB5173EC57
:101FB80024F020EEF3F000EE6FF0080EDBCFEBFF1D
:101FC800E806FCE20001AC5173EC24F020EEF3F0DB
:101FD80000EE6FF0080EDBCFEBFFE806FCE2000135
:101FE800AE5173EC24F020EEF3F000EE6FF0080E23
:101FF800DBCFEBFFE806FCE20001AD5173EC24F007
:10200800000E0001CD6F1AD020EEF3F000EE6FF055
:10201800080EDBCFEBFFE806FCE2CD51010D080E00
:10202800F326000EF422A70EF324D96E000EF42036
:10203800DA6EDF5073EC24F00001CD2BAB51CD5D8F
:10204800D8A0E2D7000ECE6F1AD020EEF3F000EE43
:102058006FF0080EDBCFEBFFE806FCE2CE51010D76
:102068000E0EF326000EF422A70EF324D96E000EEE
:10207800F420DA6EDF5073EC24F00001CE2BAC5163
:10208800CE5DD8A0E2D7000ECF6F1AD020EEF3F0C5
:1020980000EE6FF0080EDBCFEBFFE806FCE2CF5155
:1020A800010D120EF326000EF422A70EF324D96EAA
:1020B800000EF420DA6EDF5073EC24F00001CF2B11
:1020C800AB51CF5DD8A0E2D7000ED06F1AD020EE6A
:1020D800F3F000EE6FF0080EDBCFEBFFE806FCE252
:1020E800D051010D180EF326000EF422A70EF3248A
:1020F800D96E000EF420DA6EDF5073EC24F0000184
:10210800D02BAC51D05DD8A0E2D720EEE1F000EEA4
:1021180072F0080EDBCFEBFFE806FCE2CBEC2AF00E
:10212800120074C0D9FF75C0DAFFDECF6FF0DDCFC3
:1021380070F0000EA1EC26F074C0D9FF75C0DAFF6C
:10214800DECF6FF0DDCF70F0010EA1EC26F00001BC
:102158008E6F8E390F0B0F0B8F6F8E510F0B906F89
:1021680074C0D9FF75C0DAFFDECF6FF0DDCF70F035
:10217800010EA1EC26F000018E6F8E511F0B916F9E
:102188008E45E846030B030B926F74C0D9FF75C0E8
:10219800DAFFDECF6FF0DDCF70F0010EA1EC26F094
:1021A8000001946F936B74C0D9FF75C0DAFFDECF5E
:1021B8006FF0DDCF70F0010EA1EC26F000018B6FFF
:1021C8008B51931374C0D9FF75C0DAFFDECF6FF05F
:1021D800DDCF70F0010EA1EC26F00001966F956B33
:1021E80074C0D9FF75C0DAFFDECF6FF0DDCF70F0B5
:1021F800010EA1EC26F000018B6F8B51951374C072
:10220800D9FF75C0DAFFDECF6FF0DDCF70F0010EB9
:10221800A1EC26F000018E6F8E45E846030B030BF8
:10222800976F8E511F0B996F986B74C0D9FF75C04B
:10223800DAFFDECF6FF0DDCF70F0010EA1EC26F0F3
:1022480000018B6F8B51981374C0D9FF75C0DAFFEA
:10225800DECF6FF0DDCF70F0010EA1EC26F00001AB
:102268009A6F74C0D9FF75C0DAFFDECF6FF0DDCF8B
:1022780070F0010EA1EC26F000019B6F74C0D9FF2D
:1022880075C0DAFFDECF6FF0DDCF70F0010EA1EC84
:1022980026F000019D6F9C6B74C0D9FF75C0DAFFF2
:1022A800DECF6FF0DDCF70F0010EA1EC26F000015B
:1022B8008B6F8B519C13000E8C6F030E8C6501D0B5
:1022C8001DD074C0D9FF75C0DAFFDECF6FF0DDCF47
:1022D80070F0010EA1EC26F000018B6F8C51010DFE
:1022E8000F0EF326000EF4228F0EF324D96E000E83
:1022F800F420DA6E8BC0DFFF8C2BDFD7000E8D6FDA
:10230800030E8D6501D01DD074C0D9FF75C0DAFFEA
:10231800DECF6FF0DDCF70F0010EA1EC26F00001EA
:102328008B6F8D51010D130EF326000EF4228F0EC4
:10233800F324D96E000EF420DA6E8BC0DFFF8D2BEC
:10234800DFD774C0D9FF75C0DAFFDECF6FF0DDCFFD
:1023580070F0020EA1EC26F020EE8FF000EE74F083
:10236800160EDBCFEBFFE806FCE21200030E0001BD
:10237800FD6F010EFF6F910EFE6F01013851D8A459
:1023880010D0000ED16F000ED06F010E0001FF6F4C
:10239800970EFE6FFDC034F1FEC035F1FFC036F177
:1023A800120034C167F035C168F036C169F037C131
:1023B8006AF0FC0E00016B6F000E6C6FC5EC20F02C
:1023C8000009D8B4E0D0030E0101D06FDCD0010EB3
:1023D8000001FF6F910EFE6FE5EC2BF060C0CAF1B3
:1023E80061C0CBF162C0CCF163C0CDF1010E010137
:1023F800D06FD7D0010E0001FF6F910EFE6FCAC1DA
:1024080039F1CBC13AF1CCC13BF1CDC13CF101016D
:10241800391F3A1F3B1F3C1F392B000E3A233B2321
:102428003C23E5EC2BF00101395100016025010145
:102438003D6F3A510001612101013E6F3B5100019E
:10244800622101013F6F3C51000163210101406F8E
:1024580040513F1106E1D10E3D5D070E3E59D8A00F
:10246800A0D0020ED06F000ED16F9BD0010E0001DC
:10247800FF6F910EFE6F0101D151D8B431D0CAC19E
:1024880039F1CBC13AF1CCC13BF1CDC13CF1391F97
:102498003A1F3B1F3C1F392B000E3A233B233C239A
:1024A800E5EC2BF0010139510001602501013D6F78
:1024B8003A510001612101013E6F3B510001622147
:1024C80001013F6F3C51000163210101406F405100
:1024D8003F1106E1D10E3D5D070E3E59D8A03CD014
:1024E800EB0E0001986F7A0E996F27EC27F034C134
:1024F80073F035C174F036C175F037C176F0F3EC7E
:1025080013F073C098F074C099F027EC27F0EB0E25
:102518000001986F7F0E996F27EC27F0E5EC2BF000
:1025280060C0CAF161C0CBF162C0CCF163C0CDF12B
:1025380034C100F135C101F136C102F137C103F1EF
:1025480034C104F135C105F136C106F137C107F1CF
:1025580015EC22F00101D12B010ED16522D0000E1D
:10256800D16F000ED06F000E0001FF6F000E09D072
:10257800000E0101D16F000ED06F010E0001FF6F38
:10258800960EFE6F0ED00101D051000AD8B41FD7A5
:10259800010AD8B42FD7030AD8B468D7010AD8B427
:1025A800E7D7FDC034F1FEC035F1FFC036F11200A7
:1025B800030E0001FD6F010EFF6F910EFE6F47C104
:1025C80067F048C168F049C169F04AC16AF0FC0E79
:1025D8006B6F000E6C6FC5EC20F00009D8B47AD090
:1025E8000001FC5138EC2AF021EE5CF0050EEBCF2F
:1025F800DBFFE806FCE2810E0001986F7F0E996F01
:1026080027EC27F047C173F048C174F049C175F051
:102618004AC176F0F3EC13F073C098F074C099F0E7
:1026280027EC27F09C0E0001986F7F0E996F27EC1E
:1026380027F021EE5CF000EE7AF0050EDBCFEBFF21
:10264800E806FCE2BBEC1DF07AC098F07BC099F07C
:1026580027EC27F0EB0E0001986F7F0E996F27EC9F
:1026680027F023EC25F021EE56F0050EEBCFDBFF2B
:10267800E806FCE221EE5CF000EE6FF0050EDBCF21
:10268800EBFFE806FCE221EE64F000EE75F0080EC0
:10269800DBCFEBFFE806FCE2B7EC23F021EE64F0B9
:1026A80000EE72F0080EDBCFEBFFE806FCE2CBECA5
:1026B8002AF0000E0001FF6F000EFE6F000E0101F0
:1026C800C26F000EC36F000EC46F000EC56F000E00
:1026D800CE6F7ED0C2C176F1C3C177F1C4C178F1A3
:1026E800C5C179F10101761F771F781F791F762BF5
:1026F800000E772378237923E5EC2BF0010176513E
:102708000001602501017A6F775100016121010103
:102718007B6F78510001622101017C6F79510001C2
:10272800632101017D6F7D517C110CE1D10E7A5D31
:10273800070E7B59D8B006D0C251C311C411C511B8
:10274800D8A446D0CE2BA30E0001986F7D0E996FAA
:1027580027EC27F047C173F048C174F049C175F000
:102768004AC176F0F3EC13F073C098F074C099F096
:1027780027EC27F0EB0E0001986F7F0E996F27EC7E
:1027880027F0E5EC2BF060C0C2F161C0C3F162C074
:10279800C4F163C0C5F143C100F144C101F145C1B1
:1027A80002F146C103F147C104F148C105F149C12D
:1027B80006F14AC107F115EC22F0020E0101CE65BF
:1027C80007D0000ECE6F010E0001FF6F940EFE6F52
:1027D800FDC034F1FEC035F1FFC036F11200000E25
:1027E8000001876F000E886F030E886501D0DFD067
:1027F8008851010D830EF324D96E000EF420DA6E91
:102808008851010D730EF324E16E000EF420E26E80
:10281800E750776F7751606F616B000E636F640EDE
:10282800626F7CEC27F000016051DF6E8851010D6A
:102838007F0EF324D96E000EF420DA6E8851010D54
:10284800830EF324E16E000EF420E26EE750776FFA
:102858007751640DF3CF78F0F4CF79F0781F791FB2
:10286800784B792B8851010D730EF324E16E000E1D
:10287800F420E26EE7507A6F7A517825606F000E87
:102888007921616F000E636F0A0E626F7CEC27F08E
:1028980000016051DF6E8851010D7B0EF324D96E63
:1028A800000EF420DA6E8851010D730EF324E16EE8
:1028B800000EF420E26EE750776F77516E6F6F6B02
:1028C800000E716F0A0E706FACEC28F000016E51AB
:1028D800DF6E8851010D830EF324D96E000EF420AB
:1028E800DA6EDF50D8B414D08751010DF00EF324FE
:1028F800D96E020EF420DA6E8851010D830EF3248E
:10290800E16E000EF420E26EE750300FDF6E872B89
:102918008851010D7F0EF324D96E000EF420DA6E73
:10292800DF50D8A40BD08851010D830EF324D96E43
:10293800000EF420DA6EDF50D8B414D08751010DA0
:10294800F00EF324D96E020EF420DA6E8851010DD0
:102958007F0EF324E16E000EF420E26EE750300F94
:10296800DF6E872B8751010DF00EF324D96E020E0E
:10297800F420DA6E8851010D7B0EF324E16E000E0F
:10298800F420E26EE750300FDF6E872B030E8819B4
:10299800D8B40BD08751010DF00EF324D96E020E76
:1029A800F420DA6E2E0EDF6E872B882B1DD7875109
:1029B800010DF00EF324D96E020EF420DA6E000E2B
:1029C800DF6EF00E736F020E746F1200000120EEBE
:1029D8000EF0FC51D926FD51DA22060EDE1804E16C
:1029E800080EDE18D8B407D0FCC072F0FDC073F032
:1029F80010EC29F01200FCC074F0FDC075F097ECE3
:102A080007F021EE58F01F0EEBCFDBFFE806FCE2E3
:102A1800010176517711D8B40ED0FCC072F0FDC018
:102A280073F010EC29F03E0E0001986F7B0E996F41
:102A380027EC27F01200C30E0001986F7F0E996FE4
:102A480027EC27F021EE60F000EE7AF0050EDBCFE0
:102A5800EBFFE806FCE2BBEC1DF07AC098F07BC007
:102A680099F027EC27F0330E0001986F7E0E996FCE
:102A780027EC27F066C173F067C174F068C175F080
:102A880069C176F0F3EC13F073C098F074C099F054
:102A980027EC27F0C00E0001986F7F0E996F27EC86
:102AA80027F021EE6AF000EE7AF0050EDBCFEBFF9F
:102AB800E806FCE2BBEC1DF07AC098F07BC099F008
:102AC80027EC27F0330E0001986F7E0E996F27ECE4
:102AD80027F070C173F071C174F072C175F073C1E1
:102AE80076F0F3EC13F073C098F074C099F027EC0B
:102AF80027F0FB0E0001986F7F0E996F27EC27F0E7
:102B0800010174A307D06D0E0001986F7F0E996FB5
:102B180027EC27F0010174A107D0EA0E0001986F95
:102B28007E0E996F27EC27F021EE58F001EE00F0A9
:102B38001F0EDBCFEBFFE806FCE2D6EC18F0660EC2
:102B48000001606F010E616F09EC2AF00001D8B036
:102B5800120021EE60F000EE9AF0050EDBCFEBFFDD
:102B6800E806FCE266C1A0F067C1A1F068C1A2F066
:102B780069C1A3F0E5EC2BF060C0A4F061C0A5F03A
:102B880062C0A6F063C0A7F061EC17F01200000164
:102B980020EE0EF0B551D926B651DA22DE5004E106
:102BA800080EDE18D8B407D0B5C072F0B6C073F0FE
:102BB80010EC29F01200000120EE10F0B551D926D2
:102BC800B651DA2210EEB9F0080EDBCFE3FFE806C3
:102BD800FCE220EE10F0B551D926B651DA22DECF4C
:102BE800B7F0DDCFB8F0160EB725B96F000EB821D3
:102BF800BA6FB90E746F000E756F95EC10F020EE79
:102C0800C2F0160EEBCFDBFFE806FCE2C30E0001B4
:102C1800986F7F0E996F27EC27F0D1C073F0D2C060
:102C280074F0D3C075F0D4C076F0F3EC13F073C031
:102C380098F074C099F027EC27F0D40E0001986F33
:102C48007F0E996F27EC27F0D5C073F0D6C074F0CB
:102C5800D7C075F0D8C076F0F3EC13F073C098F0D5
:102C680074C099F027EC27F0F70E0001986F7F0EDB
:102C7800996F27EC27F00001CE5143EC28F060C093
:102C880098F061C099F027EC27F0F70E0001986FD3
:102C98007F0E996F27EC27F0C6C084F0C7C085F077
:102CA8000001866B876BD8EC29F084C098F085C04A
:102CB80099F027EC27F0F70E0001986F7F0E996FB7
:102CC80027EC27F00001C251846F856B866B876BF8
:102CD800D8EC29F084C098F085C099F027EC27F04B
:102CE800330E0001986F7E0E996F27EC27F00001D4
:102CF800C351846F856B866B876BD8EC29F084C0D1
:102D080098F085C099F027EC27F0FB0E0001986F2A
:102D18007F0E996F27EC27F0C20E00019A6F000E04
:102D28009B6FA9EC1FF00001D8B012004A0E986FF3
:102D38007E0E996F27EC27F012000101566F010EE5
:102D48000101F86F910EF76F030EF66FA8D0DCEC57
:102D58002BF060C0C6F161C0C7F162C0C8F163C0A2
:102D6800C9F1F60E0001606F010E616FC0EC2BF027
:102D78000001D8A055D0C6C134F1C7C135F1C8C1CA
:102D880036F1C9C137F156C138F1A8EC0CF0340E50
:102D9800D96E010EDA6E010ED926000EDA22DECFC8
:102DA8005BF1DDCF5CF123D0690E0001986F7C0EDA
:102DB800996F27EC27F034D0220E0001986F7C0E13
:102DC800996F27EC27F0010E0101CF6F29D0160E5D
:102DD8000001986F7A0E996F27EC27F021D0460EE4
:102DE8000001986F7C0E996F27EC27F019D021EE1F
:102DF8005BF0DECF54F1DDCF55F101015551010AE9
:102E0800D8A4EDD75451910AD8B40AD0020AD8B43C
:102E1800D3D7050AD8B4C8D7010AD8B4D8D7DFD7CA
:102E28005BC1F7F15CC1F8F141D0C6C134F1C7C14B
:102E380035F1C8C136F1C9C137F156C138F1BAEC1C
:102E480011F034C157F135C158F136C159F158C1A3
:102E5800F7F159C1F8F1960E0101F7190DE1F805DE
:102E6800D8A40AD0650E0001986F7B0E996F27ECE5
:102E780027F0000E0101CF6F030E5719D8A416D002
:102E880058515911D8A412D0CE0E0001986F7C0E5B
:102E9800996F27EC27F0000E0101CF6F07D0CF51B3
:102EA800000AD8B454D7010AD8B4BFD7F6C151F133
:102EB800F7C152F1F8C153F11200000E0001AC6FD6
:102EC800000EAD6F000EAE6F000EAF6F000EB06F4C
:102ED800000EB16F070EB16501D02ED0B1510E0DA5
:102EE8000A0EF326000EF422000EF324D96E030E08
:102EF800F420DA6EDE50AC5DDE50AD59DE50AE59CE
:102F0800DE50AF59D8B016D0B1510E0D0A0EF326C7
:102F1800000EF422000EF324D96E030EF420DA6EAC
:102F2800DECFACF0DECFADF0DECFAEF0DECFAFF06F
:102F3800B1C0B0F0B12BCED7B0510E0D000EF324B6
:102F4800D96E030EF420DA6EA0C0DEFFA1C0DEFF4A
:102F5800A2C0DEFFA3C0DEFF20EE9AF0B0510E0D36
:102F6800040EF326000EF422000EF324E16E030E85
:102F7800F420E26E050EDBCFE3FFE806FCE2B05179
:102F88000E0D0A0EF326000EF422000EF324D96E5D
:102F9800030EF420DA6EA4C0DEFFA5C0DEFFA6C0D3
:102FA800DEFFA7C0DEFF9A0E606F000E616FF1ECC6
:102FB80029F00001D8A009D0A00E606F000E616F43
:102FC80009EC2AF00001D8B012000F0E986F7D0EA0
:102FD800996F27EC27F0A0C073F0A1C074F0A2C0CD
:102FE80075F0A3C076F0F3EC13F073C098F074C0DA
:102FF80099F027EC27F00C0E0001986F7D0E996F61
:1030080027EC27F020EE9AF000EE7AF0050EDBCFE1
:10301800EBFFE806FCE2BBEC1DF07AC098F07BC041
:1030280099F027EC27F0EE0E0001986F7F0E996F4C
:1030380027EC27F0120000016039F00B611177C00E
:10304800D9FF78C0DAFFDF6E20EE01F07751D9267C
:103058007851DA2263C079F0030E79176245E846A1
:10306800FC0B7911DF6E20EE02F07751D9267851EA
:10307800DA226551DF6E20EE03F07751D9267851B8
:10308800DA2264C0DFFF20EE04F07751D9267851A8
:10309800DA226751DF6E20EE05F07751D926785194
:1030A800DA2266C0DFFF20EE06F07751D926785184
:1030B800DA2210EE69F0E6CF79F0E5CF7AF07AC03F
:1030C80079F07A6B1F0E79176839E846E00B7911A9
:1030D800DF6E20EE07F07751D9267851DA2269C0E1
:1030E800DFFF20EE08F07751D9267851DA226BC03D
:1030F800DFFF20EE09F07751D9267851DA226CC02B
:10310800DFFF20EE0AF07751D9267851DA226E5186
:10311800DF6E20EE0BF07751D9267851DA226DC098
:10312800DFFF20EE0CF07751D9267851DA226FC0F4
:10313800DFFF20EE0DF07751D9267851DA2270C0E2
:10314800DFFF20EE0EF07751D9267851DA2271C0D0
:10315800DFFF20EE0FF07751D9267851DA2272C0BE
:10316800DFFF20EE10F07751D9267851DA2273C0AC
:10317800DFFF20EE11F07751D9267851DA2274C09A
:10318800DFFF20EE12F07751D9267851DA2275C088
:10319800DFFF20EE13F07751D9267851DA2276C076
:1031A800DFFF1200010106050711D8A41200CAECBE
:1031B8002BF060C034F161C035F162C036F163C0F4
:1031C80037F1180E0001606F010E616F340E626FE7
:1031D800010E636FEFEC28F00001D8A0120023EC79
:1031E80025F021EE20F0050EEBCFDBFFE806FCE230
:1031F80021EE08F011EE26F0050EDBCFE3FFE8061E
:10320800FCE2CAEC2BF060C02CF161C02DF162C069
:103218002EF163C02FF10EC130F10FC131F110C191
:1032280032F111C133F1060E01013C6F040E3D6FFE
:10323800000E396F010E386F080E3B6F000E3A6FA3
:10324800000E3F6F020E3E6F2CC146F12DC147F1B3
:103258002EC148F12FC149F121EE20F011EE40F0C6
:10326800050EDBCFE3FFE806FCE230C150F131C1C7
:1032780051F132C152F133C153F121EE26F011EE72
:103288004AF0050EDBCFE3FFE806FCE221EE38F05A
:1032980000EEA7F01F0EDBCFEBFFE806FCE259ECCF
:1032A8000FF0CA0E0001986F7E0E996F27EC27F079
:1032B80021EE4AF000EE7AF0050EDBCFEBFFE806D0
:1032C800FCE2BBEC1DF07AC098F07BC099F027ECCB
:1032D80027F0330E0001986F7E0E996F27EC27F0C8
:1032E80050C173F051C174F052C175F053C176F0FA
:1032F800F3EC13F073C098F074C099F027EC27F042
:10330800FB0E0001986F7F0E996F27EC27F01200D3
:10331800040E00019F6F000EA16F000EA06F3CC04D
:10332800D9FF3DC0DAFF030EDE18D8A492D04EB004
:103338006AD08FD03CC0D9FF3DC0DAFFDECF9FF006
:10334800DECFA0F0DDCFA1F0AD0E986F7C0E996FA7
:1033580027EC27F0EEC1F2F1EFC1F3F1F0C1F4F17F
:10336800F1C1F5F14E909FC09AF0A0C09BF0A1C0AA
:103378009CF012003CC0D9FF3DC0DAFFDECF9FF0C1
:10338800DECFA0F0DDCFA1F09FC09AF0A0C09BF0E7
:10339800A1C09CF01200010E0001A16FF50EA06FF4
:1033A8004E909FC09AF0A0C09BF0A1C09CF0120064
:1033B8009FC09AF0A0C09BF0A1C09CF012003CC036
:1033C800D9FF3DC0DAFFDECF9FF0DECFA0F0DDCF22
:1033D800A1F04E909FC09AF0A0C09BF0A1C09CF0B5
:1033E80012004E903CC0D9FF3DC0DAFFDECF9FF0FF
:1033F800DECFA0F0DDCFA1F09FC09AF0A0C09BF077
:10340800A1C09CF0120020EE01F03C50D9263D509E
:10341800DA22DECF9DF0DDCF9EF09E51000AD8B4AF
:1034280004D0010AD8B406D0DCD79D51000AD8B41C
:1034380081D7D7D79D51910AD8B49CD7020AD8B45E
:10344800B7D7050AD8B4A7D7010AD8B4B8D7640A39
:10345800C8D7020EA16F570EA06F9FC09AF0A0C0E8
:103468009BF0A1C09CF012001DEC28F06EC080F00B
:103478006FC081F0000181AD03D07A6B7A2B02D046
:1034880000017A6B7E517A19FE0B7A197E6F81AB37
:1034980003D07A6B7A2B02D000017A6B7A477E517F
:1034A8007A19FD0B7A197E6F81A903D07A6B7A2B72
:1034B80002D000017A6B7A477A477E517A19FB0B62
:1034C8007A197E6F81A703D07A6B7A2B02D000011C
:1034D8007A6B7A477A477A477E517A19F70B7A19C5
:1034E8007E6F80AD03D07A6B7A2B02D000017A6BA5
:1034F8007A3B7E517A19EF0B7A197E6F80AB03D035
:103508007A6B7A2B02D000017A6B7A3B7A477E512C
:103518007A19DF0B7A197E6F9EA803D07A6B7A2B03
:1035280002D000017A6B010E7B6F000E7C6F7A2B44
:1035380003D0D8907B377C377A2FFBD70001805196
:103548007B1781517C177B517C11D8B403D07D6BDC
:103558007D2B02D000017D6B7D3B7D477D477E51F1
:103568007D19BF0B7D197E6F80A503D07A6B7A2BEE
:1035780002D000017A6B7A337A337E517A197F0B45
:103588007A197E6F80A303D07A6B7A2B02D0000160
:103598007A6B7F517A19FE0B7A197F6F80A103D05D
:1035A8007A6B7A2B02D000017A6B7A477F517A19AD
:1035B800FD0B7A197F6F7EC078F07FC079F012001A
:1035C800000120EE04F0A751D926A851DA22DECF57
:1035D800A9F0DDCFAAF0080EA927000EAA2320EE35
:1035E80020F0A751D926A851DA22A9C0DEFFAAC027
:1035F800DDFF20EE2EF0A751D926A851DA22000EC1
:10360800DE6E080EDD6E200EA725A26F000EA82123
:10361800A36F35EC1FF0000120EE36F0A751D92634
:10362800A851DA2210EE1DF0A751E126A851E22296
:10363800DFCFE7FF20EE37F0A751D926A851DA22CD
:1036480010EE1EF0A751E126A851E222DFCFE7FFD6
:1036580020EE38F0A751D926A851DA2210EE1FF033
:10366800A751E126A851E222DFCFE7FF20EE30F094
:10367800A751D926A851DA22DECFA9F0DDCFAAF0CA
:10368800080EA927000EAA2320EE17F0A751D92665
:10369800A851DA22A9C0DEFFAAC0DDFF20EE32F071
:1036A800A751D926A851DA2210EE19F0A751E12620
:1036B800A851E222DECFE6FFDDCFE5FFF80EA96FC5
:1036C800FF0EAA6F20EE34F0A751D926A851DA22AE
:1036D800DECFABF0DDCFACF0A951AB27AA51AC23BC
:1036E80020EE1BF0A751D926A851DA22ABC0DEFF85
:1036F800ACC0DDFF1200A40E0001986F7F0E996F19
:1037080027EC27F028D0B90E0001986F7E0E996F2C
:1037180027EC27F050D02D0E0001986F7D0E996F81
:1037280027EC27F048D0830E0001986F7E0E996F22
:1037380027EC27F040D0170E0001986F7F0E996F85
:1037480027EC27F038D0F90E0001986F7E0E996F9C
:1037580027EC27F030D000019A51000AD8B4D3D70B
:10376800010AD8B4D8D7030AD8B4DDD7010AD8B427
:10377800E2D7070AD8B4E7D71ED0B30E986F7B0EEE
:10378800996F27EC27F030D0500E0001986F7A0E11
:10379800996F27EC27F028D08B0E0001986F7C0ECC
:1037A800996F27EC27F04B0E0001986F7D0E996FEB
:1037B80027EC27F019D020EE9BF0DECF9DF0DDCF6F
:1037C8009EF000019E51010AD8A4EDD79D512D0A03
:1037D800D8B4DAD7030AD8B4D0D7A10AD8B4E3D773
:1037E8001C0AD8B4D9D7DFD78A0E0001986F7F0E8C
:1037F800996F27EC27F09BC084F09CC085F00001EE
:10380800866B876BD8EC29F084C098F085C099F056
:1038180027EC27F0CF0E0001986F7F0E996F27ECE9
:1038280027F012000001766F000176511F0B776FA9
:10383800010E786F000E796F000E7A6F000E7B6FA5
:10384800000E7C6F770E6A6F000E6B6F540EA2EC41
:1038580029F0780E00016A6F000E6B6F550EA2EC0E
:1038680029F07F0E00016A6F000E6B6F520EBDECDF
:1038780029F000017F817F0E6A6F000E6B6F520E78
:10388800A2EC29F0450EE82EFED700F07F0E0001CD
:103898006A6F000E6B6F6A0EBDEC29F0010E000115
:1038A8007927000E7A237B237C237FA108D07C51C3
:1038B8007B1105E179290F0E7A59D8A0E7D77C51F9
:1038C8007B1140E179290F0E7A59D8B012007F0E8A
:1038D8006A6F000E6B6F520EBDEC29F000017F91EC
:1038E8007F0E6A6F000E6B6F520EA2EC29F07D0EF0
:1038F80000016A6F000E6B6F680EBDEC29F07E0E3A
:1039080000016A6F000E6B6F690EBDEC29F0000EA6
:103918000001706FFF0E716F7E51736F726B705183
:103928007217715173177D51746F756B72517413DF
:10393800735175136EC0D9FF6FC0DAFF74C0DEFF14
:1039480075C0DDFF120000017B51721904E17C5142
:103958007319D8B429D07D51741904E17E517519B1
:10396800D8B422D072517D1904E173517E19D8B4AC
:103978001BD07B51741904E17C517519D8B414D04B
:103988007405300E7559D8B00FD07205300E7359C2
:10399800D8B00AD07D05300E7E59D8B005D07B0549
:1039A800300E7C59D8A002D0D88012007451725DB4
:1039B80075517359D8B03BD07D517B5D7E517C5990
:1039C800D8B02BD07B51725D7C517359D8B00AD0D6
:1039D80074517B5D75517C59D8B002D0D8801200E3
:1039E800D890120020EE7BF000EE60F0080EDBCFDE
:1039F800EBFFE806FCE220EE72F000EE69F0080E3C
:103A0800DBCFEBFFE806FCE26CEC20F00001D8B05D
:103A180002D0D8901200D880120072517D5D735187
:103A28007E59D8B002D0D8901200D880120020EE6B
:103A38007BF000EE60F0080EDBCFEBFFE806FCE25F
:103A480020EE72F000EE69F0080EDBCFEBFFE8061F
:103A5800FCE26CEC20F00001D8B002D0D890120043
:103A6800D8801200000E0001726F4CC073F04DC078
:103A780074F040C075F041C076F0010E776F000E0B
:103A8800796F000E786F050E72615FD0730E6A6FE2
:103A9800000E6B6F160EA2EC29F0740E00016A6F0F
:103AA800000E6B6F170EA2EC29F0750E00016A6FFD
:103AB800000E6B6F160EBDEC29F0760E00016A6FD2
:103AC800000E6B6F170EBDEC29F0000173517519CC
:103AD800D8A438D074517619D8A434D0CA0EAAEC18
:103AE8002BF0420EE82EFED700D0750E00016A6F4B
:103AF800000E6B6F160EBDEC29F0760E00016A6F92
:103B0800000E6B6F170EBDEC29F000017551D8A49B
:103B18000DD07651D8A40AD0030E0001716FA70EFC
:103B2800E82EFED7712FFCD700D005D0010E00017A
:103B3800796F2E0E786F77C06EF078C06FF079C00D
:103B480070F012000001722B0BD0010E796F2E0E4F
:103B5800786F77C06EF078C06FF079C070F012009F
:103B680077C06EF078C06FF079C070F0120022EE66
:103B7800D2F010EE81F0110EDBCFE3FFE806FCE295
:103B8800000E0001976F000E966F000E956F96BF9E
:103B980006D096516BE1060E955DD8B067D07A0EC7
:103BA8009525D96E000E9621DA6EDF50806F803928
:103BB8000F0B0F0B936F7A0E9525D96E000E962179
:103BC800DA6EDF500F0B946F300E9327300E942768
:103BD800390E93650CD09751010D810EF324D96EDF
:103BE800000EF420DA6E9351070FDF6E0AD097515A
:103BF800010D810EF324D96E000EF420DA6E93C005
:103C0800DFFF972B390E94650CD09751010D810E6B
:103C1800F324D96E000EF420DA6E9451070FDF6E8C
:103C28000AD09751010D810EF324D96E000EF420AD
:103C3800DA6E94C0DFFF972B96BF06D096510FE13E
:103C4800050E955DD8B00BD09751010D810EF32468
:103C5800D96E000EF420DA6E3A0EDF6E972B954B74
:103C6800962B96BF9CD7965101E195D7810E7A6F16
:103C7800000E7B6F12006FC075F070C076F071C0D7
:103C880077F072C078F075C060F076C061F077C0E8
:103C980062F078C063F073C064F074C065F000012E
:103CA800000E65BFFF0E666F676F35EC23F060C0CE
:103CB80075F061C076F062C077F063C078F00001FB
:103CC8006D4B6E2B7551761177117811D8A4DBD70F
:103CD8006DC0D9FF6EC0DAFF000EDF6E6D07D8A089
:103CE8006E076FC060F070C061F071C062F072C0A2
:103CF80063F073C064F074C065F0000E65BFFF0E1A
:103D0800666F676F3BEC26F000016051796F6FC0FA
:103D180060F070C061F071C062F072C063F073C08F
:103D280064F074C065F0000E65BFFF0E666F676FC4
:103D380035EC23F060C06FF061C070F062C071F0C4
:103D480063C072F0090E0001796502D0070E792769
:103D5800300E79276DC0D9FF6EC0DAFF79C0DFFF5A
:103D68006D07D8A06E076F51701171117211D8B418
:103D78001200B7D7000E0001696F6451631103E1A7
:103D88006205D8A02FD06951010DD40EF324D96E45
:103D9800010EF420DA6E61C065F062C066F063C09F
:103DA80067F064C068F00D0E05D0D89068336733AB
:103DB80066336533E82EF9D765510F0B50EC2BF0BD
:103DC800DF6E0001692B6951010DD40EF324D96E01
:103DD800010EF420DA6E62510F0B50EC2BF0DF6EFF
:103DE8000001692B6951010DD40EF324D96E010E1F
:103DF800F420DA6E61C065F062C066F063C067F0F7
:103E080064C068F0050E05D0D89068336733663310
:103E18006533E82EF9D765510F0B50EC2BF0DF6EA8
:103E28000001692B6951010DD40EF324D96E010EDE
:103E3800F420DA6E61510F0B50EC2BF0DF6E0001AD
:103E4800692B6951010DD40EF324D96E010EF420AB
:103E5800DA6E000EDF6E692BD40E616F010E626F91
:103E68001200020E0001A46F000EA66F000EA56FCF
:103E7800A2C0D9FFA3C0DAFFDECF84F0DDCF85F082
:103E8800FFEC02F0000120EE10F0A251D926A35158
:103E9800DA22080EEBCFDBFFE806FCE220EE17F093
:103EA800A251D926A351DA22DF50D8B407D0000E88
:103EB800A46F000EA66F650EA56F120020EE16F017
:103EC800A251D926A351DA22DF50D8A407D0000E78
:103ED800A46F000EA66FC70EA56F120020EE08F0A3
:103EE800A251D926A351DA2200EE6FF0050EDBCFDE
:103EF800EBFFE806FCE220EE10F0A251D926A35110
:103F0800DA2200EE75F0080EDBCFEBFFE806FCE2E4
:103F1800B7EC23F0000120EE0EF0A251D926A351F0
:103F2800DA22DECF6FF0DDCF70F020EE10F0A25174
:103F3800D926A351DA2200EE71F0080EDBCFEBFF91
:103F4800E806FCE2CFEC27F012009AC0D9FF9BC02C
:103F5800DAFF10EE9EF0160EDBCFE3FFE806FCE278
:103F6800000E0001AC6F000EAB6F9E0E606F000E6E
:103F7800616F22EC0BF0000120EE0DF09A51D9266A
:103F88009B51DA22DE50AB1906E1DE50AC19D8A4F9
:103F980002D0D8801200620E986F7F0E996F27ECBE
:103FA80027F0ABC061F0ACC062F00001636B646BDA
:103FB800BEEC1EF061C098F062C099F027EC27F0C3
:103FC800AC0E0001986F7F0E996F27EC27F0000167
:103FD80020EE0DF09A51D9269B51DA22DECF9CF0C3
:103FE800DDCF9DF09CC061F09DC062F0636B646B97
:103FF800BEEC1EF061C098F062C099F027EC27F083
:10400800FB0E0001986F7F0E996F27EC27F0D89070
:10401800120044C011F0010E126E112A02D0D8907D
:104028001236112EFCD71250FF0A8216000E806E2F
:10403800020E446007D0010E4424136E146A000E69
:10404800142204D0000E146E000E136E13C044F038
:10405800E80E0F5C030E1058D8B01200000E156E53
:10406800020E156401D013D01550010D390EF3243A
:10407800D96E000EF420DA6E0FC008F010C009F0F7
:1040880015C00AF0F7EC23F0DF6E152AE9D744C013
:1040980011F0010E126E112A02D0D8901236112E8C
:1040A800FCD7125082124450010D390EF324D96EF8
:1040B800000EF420DA6EDF50116E1150010DE40E7F
:1040C800F324D96E020EF420DA6EDF50806E1200EF
:1040D80000016951601904E16A516119D8B429D005
:1040E8006B51621904E16C516319D8B422D0605144
:1040F8006B1904E161516C19D8B41BD0695162196C
:1041080004E16A516319D8B414D06205300E6359BA
:10411800D8B00FD06005300E6159D8B00AD06B0501
:10412800300E6C59D8B005D06905300E6A59D8A040
:1041380002D0D88012006251605D63516159D8B0D5
:104148001ED06B51695D6C516A59D8B010D0695155
:10415800605D6A516159D8B012D06251695D63518E
:104168006A59D8B002D0D8801200D8901200605195
:104178006B5D61516C59D8A0F8D7D8801200D880EF
:104188001200000E0001756F070E756501D050D042
:1041980075510E0D000EF324606F030EF420616F4D
:1041A800670E626F000E636FEFEC28F00001D8A075
:1041B8003DD075510E0D0A0EF326000EF422000EA6
:1041C800F324D96E030EF420DA6EDECF6DF0DECF65
:1041D8006EF0DECF6FF0DECF70F06D1F6E1F6F1FB9
:1041E800701F6D2B000E6E236F237023E5EC2BF0F0
:1041F80000016D516025716F6E516121726F6F51B1
:104208006221736F70516321746F745173110EE1E1
:10421800300E715D750E7259D8B008D06BC0D9FFD9
:104228006CC0DAFF75C0DFFF010E1200752BACD72A
:10423800000E12001F0E076E000E086E000E096EAB
:10424800000E0A6EFF0E036E030E046E000E056E5E
:10425800000E066E81BA07D0010E2D26000E2E2202
:104268002F22302208D0000E2D6E000E2E6E000E6A
:104278002F6E000E306E07502D5C08502E580950D6
:104288002F580A503058D8A002D0010E01D0000E85
:10429800456E4550D8B411D04650D8A40ED007C0AA
:1042A8002DF008C02EF009C02FF00AC030F001C070
:1042B800D9FF02C0DAFF010E05D001C0D9FF02C044
:1042C800DAFF000EDF6E2D50035C2E5004582F507D
:1042D800055830500658D8A0FF0045C046F01200D7
:1042E8000201485100019A19D8B441D09A51D8A472
:1042F80007D0250E986F7F0E996F27EC27F00AD00C
:1043080000019A05D8A406D0700E986F7E0E996F9A
:1043180027EC27F000019A05D8A429D09B51D8A4EE
:1043280007D05D0E986F7E0E996F27EC27F00AD0A4
:1043380000019B05D8A406D0220E986F7E0E996FB7
:1043480027EC27F000019C51D8A407D0690E986F7C
:104358007D0E996F27EC27F00AD000019C05D8A4A0
:1043680006D0860E986F7D0E996F27EC27F020EE09
:104378009AF012EE48F00E0EDBCFE3FFE806FCE2FF
:10438800120082EC2BF036EC1DF06EC07DF06FC091
:104398007EF070C07FF000017E517F11D8B407D045
:1043A8007DC07AF07EC07BF07FC07CF01200F6EC16
:1043B80027F06EC07DF06FC07EF070C07FF0000106
:1043C8007E517F11D8B407D07DC07AF07EC07BF0D3
:1043D8007FC07CF01200300E6F6F000E6E6F8EEC97
:1043E8002AF0300E0001616F000E606F1CEC2CF09B
:1043F8005F0E00016F6FFE0E6E6F79EC2AF021ECF4
:104408002CF0DFEC2AF0010E00017D6F000E7F6FAB
:10441800000E7E6F7DC07AF07EC07BF07FC07CF09E
:10442800120023EC25F021EE08F0050EEBCFDBFFA0
:10443800E806FCE20E0E0001606F010E616F06ECEB
:104448002BF0060E0101186F040E196F000E156F80
:10445800010E146F080E176F000E166F000E1B6FFB
:10446800010E1A6F00C122F101C123F102C124F12A
:1044780003C125F121EE08F011EE1CF0050EDBCF8B
:10448800E3FFE806FCE204C12CF105C12DF106C1E9
:104498002EF107C12FF121EE0EF011EE26F0050ED8
:1044A800DBCFE3FFE806FCE221EE14F000EEA7F014
:1044B8001F0EDBCFEBFFE806FCE259EC0FF0120011
:1044C80000016F6F700E00016A6F000E6B6F750E42
:1044D800BDEC29F000016F05D8B40BD015D0F00E53
:1044E800701770812CD0F00E18D0F00E7017060ED1
:1044F80019D06E51000AD8B4F6D7010AD8B4EFD74C
:10450800030AD8B4F2D7EBD76F51D8B40DD017D06F
:104518000F0E7017708913D00F0E701710D00F0E72
:104528007017600E70130BD06E51000AD8B4F4D710
:10453800010AD8B4EDD7030AD8B4F1D7E9D7700E79
:104548006A6F000E6B6F750EA2EC29F01200820ED6
:1045580000016A6F000E6B6F1B0EBDEC29F00001A5
:1045680082A106D080C0D9FF81C0DAFF010E05D034
:1045780080C0D9FF81C0DAFF000EDF6E830E6E6F38
:10458800000E6F6F1F0E16EC1CF0000183A708D0F9
:1045980020EE01F08051D9268151DA22010E07D090
:1045A80020EE01F08051D9268151DA22000EDF6E0B
:1045B80083A909D020EE02F08051D9268151DA2250
:1045C800010EDF6E120020EE02F08051D9268151D3
:1045D800DA22000EDF6E12000001706F080E000173
:1045E80070611ED0710E6A6F000E6B6F1C0EBDECF1
:1045F80029F070C06EF0010E00016F6F6E2B02D0B3
:10460800D8906F376E2FFCD700016F51FF0A7117D2
:10461800710E6A6F000E6B6F1C0EA2EC29F012006F
:10462800080E0001705F710E6A6F000E6B6F1D0E31
:10463800BDEC29F070C06EF0010E00016F6F6E2B9B
:1046480002D0D8906F376E2FFCD700016F51FF0A48
:104658007117710E6A6F000E6B6F1D0EA2EC29F0B8
:104668001200000E0001686F000E696F000E6A6F7D
:10467800000E6B6F6451651166116711D8B42AD0AA
:10468800010E6C6F06D0D890643765376637673788
:104698006C2B67AFF8D7D890683769376A376B37AC
:1046A8006451605D6551615966516259675163593A
:1046B800D8A009D06451605F6551615B6651625B47
:1046C8006751635B6881D8906733663365336433B9
:1046D8006C2FE1D768C060F069C061F06AC062F011
:1046E8006BC063F01200420EF66E540EF76E000EA9
:1046F800F86E02EED2F010EE2EF00900F5CFEEFFC4
:10470800E550E150FAE14A0EF66E580EF76E000ECB
:10471800F86E00EE48F010EE06F00900F5CFEEFF57
:10472800E550E150FAE103EE00F0A20EEE6AE80669
:10473800FDE102EE00F0D20EEE6AE806FDE101EEC0
:10474800C2F0380EEE6AE806FDE14E6A00EE29F086
:104758001F0EEE6AE806FDE14F904F92000EF86ECC
:1047680000016DEF05F075C06AF076C06BF02EECB5
:1047780029F0000E0001866F050E866501D014D061
:104788008651010D6F0EF324D96E000EF420DA6EF7
:104798008651010D7E0EF324E16E000EF420E26EC8
:1047A800DFCFE7FF862BE8D72A0E846F8198840E27
:1047B800606F000E616F6FEC26F0000E0001856FD0
:1047C800050E856501D00DD08551010D7E0EF324AF
:1047D800606F000EF420616F6FEC26F00001852BEE
:1047E800EFD78188120008C001F009C002F0000E5E
:1047F800046E640E036EA6EC27F001500E6E0E5088
:10480800640DF31EF41EF34AF42A0850F324016ED3
:104818000950F420026E000E046E0A0E036EA6EC18
:1048280027F001500D6E0D500A0DF3CF0BF00E500E
:10483800640DF3500B24000808240C6E08D00C50AB
:1048480012000D5012000E501200000E12000A50F5
:10485800000AD8B4F8D7010AD8B4F3D7030AD8B4F1
:10486800EED7F3D717EC2CF060C075F061C076F086
:1048780075C06AF076C06BF04CEC29F02C0E000184
:10488800776F8198770E606F000E616F6FEC26F07E
:10489800780E0001606F000E616F06EC26F0790E4D
:1048A8000001606F000E616F06EC26F08188000E33
:1048B80000016F6FFF0E706F7951726F716B6F51DE
:1048C8007117705172177851736F746B715173113E
:1048D800606F72517411616F1CEC2CF012000001B2
:1048E8007C6F3E503F10D8A410D06FC06AF070C0E3
:1048F8006BF02EEC29F02A0E00017D6F81987D0E59
:10490800606F000E616F6FEC26F07C0E0001606F27
:10491800000E616F6FEC26F0FF0E0001786FFF0E3E
:10492800796F20EE73F0DECF7AF0DDCF7BF078512F
:104938007A2779517B233E507A190AE13F507B1937
:10494800D8A406D08188000E3F6E000E3E6E12007D
:104958003E4A3F2A1200020E000171256A6F000EBE
:1049680072216B6F4CEC29F02C0E0001766F819848
:10497800760E606F000E616F6FEC26F0000E00017E
:10498800776F050E776501D00DD07751010DE80ED0
:10499800F324606F010EF420616F06EC26F000012D
:1049A800772BEFD78188E80E606F010E616F94EC6A
:1049B80009F0E9CFD9FFEACFDAFF00EE71F0040E73
:1049C800DBCFEBFFE806FCE21200B20E0001606FDD
:1049D800000E616F06EC2BF0B80E0001606F000E40
:1049E800616FF3EC2AF0000E0001BC6F070EBC6586
:1049F80001D01ED020EEB2F000EE9AF0050EDBCF0B
:104A0800EBFFE806FCE2B8C0A0F0B9C0A1F0BAC05C
:104A1800A2F0BBC0A3F0FF0EA46FFF0EA56FFF0EA0
:104A2800A66FFF0EA76F61EC17F00001BC2BDED755
:104A38008C0E986F7B0E996F27EC27F01200740E7E
:104A480000016A6F000E6B6F640EBDEC29F0750EE5
:104A580000016A6F000E6B6F650EBDEC29F0760ED3
:104A680000016A6F000E6B6F620EBDEC29F0770EC5
:104A780000016A6F000E6B6F630EBDEC29F0780EB3
:104A880000016A6F000E6B6F600EBDEC29F0790EA5
:104A980000016A6F000E6B6F610EBDEC29F020EE0D
:104AA80074F000EE6EF0050EDBCFEBFFE806FCE2DB
:104AB8001200000E0001736F6FAF06D06E6D6F1F8E
:104AC800D8B06F2B010E736F71AF04D0706D711F6A
:104AD800D8B0712B70517111D8B418D0010E726F03
:104AE80004D0D89070377137722B71AFFAD77051E4
:104AF8006E5D71516F59D8A004D070516E5F7151BD
:104B08006F5BD89071337033722FF1D77351D8B46B
:104B180004D06E6D6F1FD8B06F2B6EC06EF06FC073
:104B28006FF01200000E00017D6F000E7C6F140EF6
:104B38006F256A6F000E70216B6F4CEC29F02C0EFC
:104B480000017E6F81987E0E606F000E616F6FECC2
:104B580026F0800E0001606F000E616F06EC26F0F3
:104B68007F0E0001606F000E616F06EC26F00001F9
:104B78008051796F786B7F517A6F7B6B78517A119E
:104B88007C6F79517B117D6F81887CC06FF07DC00F
:104B980070F012000E0E00016F256A6F000E702172
:104BA8006B6F4CEC29F02C0E0001786F8198780E11
:104BB800606F000E616F6FEC26F0000E0001806FD1
:104BC800050E806501D013D07F0E606F000E616FF7
:104BD80006EC26F000018051010D790EF324D96E00
:104BE800000EF420DA6E7FC0DFFF802BE9D78188C2
:104BF80020EE79F000EE6FF0050EDBCFEBFFE80654
:104C0800FCE21200000E0001666F000E676F000ED6
:104C1800686F000E696F000EC96EC7B015D066C008
:104C280062F067C063F068C064F069C065F0662B25
:104C3800000E6723682369236551641105E1622921
:104C48000F0E6359D8A0E9D76951681105E16629A3
:104C58000F0E6759D8A004D0818882EC2BF012007F
:104C680060C0D9FF61C0DAFFC9CFDFFF12000001C1
:104C78006451651166116711D8B424D0010E686FAC
:104C880006D0D8906437653766376737682B67AFC3
:104C9800F8D76451605D6551615966516259675131
:104CA8006359D8A008D06451605F6551615B665153
:104CB800625B6751635BD8906733663365336433EF
:104CC800682FE7D760C060F061C061F062C062F031
:104CD80063C063F01200000E0001666F000E676F7C
:104CE800000E686F000E696F60C0D9FF61C0DAFFFF
:104CF800DF50C96EC7B015D066C062F067C063F0F8
:104D080068C064F069C065F0662B000E67236823ED
:104D180069236551641105E162290F0E6359D8A012
:104D2800E9D76951681105E166290F0E6759D8A0BE
:104D38001200818882EC2BF012000001716F1FD0E5
:104D48006FC06AF070C06BF04CEC29F02C0E0001BB
:104D5800726F8198720E606F000E616F6FEC26F0B3
:104D6800000E1200730E0001606F000E616F06ECFA
:104D780026F00001735112008188000E1200000114
:104D88007151000AD8B4DCD7010AD8B4EBD7030AAA
:104D9800D8B4F2D7000E1200000E0001686F000EA2
:104DA800696F000E6A6F000E6B6F60A108D06451C6
:104DB80068276551692366516A2367516B23D89028
:104DC8006437653766376737D89063336233613342
:104DD80060336051611162116311D8A4E6D768C0CD
:104DE80060F069C061F06AC062F06BC063F01200E5
:104DF80048C060F049C061F04AC062F04BC063F03F
:104E08006D0E0001646F4E0E656FC60E666F410E23
:104E1800676FD0EC26F060C048F061C049F062C00E
:104E28004AF063C04BF0390E4826300E4922000E76
:104E38004A22000E4B22FF0E4A1400016C6F7F0EAF
:104E48004B146D6F120016D098C0F6FF99C0F7FF8B
:104E5800F86A070EF76403D00800F55005D0F6CFBE
:104E6800E9FFF7CFEAFFEF50AD6E0001984B992BA1
:104E7800ACA2FED798C0F6FF99C0F7FFF86A070EF4
:104E8800F76403D00800F55005D0F6CFE9FFF7CF57
:104E9800EAFFEF500009D8B41200D6D77AC082F0E2
:104EA8007BC083F000017FAF10D07AC0D9FF7BC0F0
:104EB800DAFF2D0EDF6E7A4B7B2B7F1F7E1F7D1F47
:104EC8007C6D000E7D237E237F237AC06DF07BC02E
:104ED8006EF07CC06FF07DC070F07EC071F07FC056
:104EE80072F080C073F081C074F03FEC1EF01200C5
:104EF800000E0001666F000E656F62516311D8B431
:104F08001CD0010E646F04D0D89062376337642BCD
:104F180063AFFAD7D890653766376251605D6351E1
:104F28006159D8A005D06251605F6351615B6581AA
:104F3800D89063336233642FEDD765C060F066C0E4
:104F480061F01200000E066E000E056E035004108C
:104F5800D8B41CD0010E076E04D0D890033604369E
:104F6800072A04AEFAD7D890053606360350015CF6
:104F780004500258D8A005D00350015E0450025ACC
:104F88000580D89004320332072EEDD705C001F012
:104F980006C002F01200060E000171256A6F000EAD
:104FA80072216B6F2EEC29F06FC07AF000017051FE
:104FB8007B6F2A0E7C6F81987C0E606F000E616F8C
:104FC8006FEC26F07B0E0001606F000E616F6FECD6
:104FD80026F07A0E0001606F000E616F6FEC26F00C
:104FE80081881200010E0001726F000E746F000EAE
:104FF800736F000E716F710E6A6F000E6B6F740E17
:10500800BDEC29F000017139E842070B070BE806EF
:10501800D8A404D0000E746F000E03D0010E746F74
:105028002D0E736F72C06EF073C06FF074C070F0A5
:105038001200760E00016A6F000E6B6F1C0EBDEC3D
:1050480029F0770E00016A6F000E6B6F1D0EBDEC24
:1050580029F0000E0001706FFF0E716F7751736FAA
:10506800726B70517217715173177651746F756B3B
:10507800725174116E6F735175116F6F12000001C8
:10508800626F15D0CA0E0001606F7F0E616F12004B
:10509800DE0E606F7F0E616F1200E20E606F7F0E92
:1050A800616F1200A80E606F7E0E616F1200000122
:1050B8006251010AD8B4E6D7070AD8B4E9D7170A63
:1050C800D8B4EBD7EFD7A90E0001786FFE0E796F31
:1050D800FCEC26F06CC06EF06DC06FF0000E0001A5
:1050E800716FFD0E706F5DEC25F000016E297A6F0F
:1050F800FCEC26F000016C517B6F78C074F079C02D
:1051080075F07AC076F07BC077F0120010D0C50E2B
:105118000001606F7F0E616F1200E60E606F7F0EF8
:10512800616F1200960E606F7E0E616F120060C094
:1051380062F061C063F000016351080AD8A4F2D795
:105148006251000AD8B4E3D7060AD8B4E6D7EAD73A
:10515800000170517111D8B418D0010E726F04D0CB
:10516800D89070377137722B71AFFAD770516E5D66
:1051780071516F59D8A004D070516E5F71516F5B37
:10518800D89071337033722FF1D76EC06EF06FC044
:105198006FF01200000E0001666F050E666501D003
:1051A80018D06651010DF3506225D96EF450632171
:1051B800DA6E6651010DF3506025E16EF4506121FD
:1051C800E26EDE50E618D8B402D0D8901200662BF2
:1051D800E4D7D8801200000E0001666F030E6665E2
:1051E80001D018D06651010DF3506225D96EF450E4
:1051F8006321DA6E6651010DF3506025E16EF450BB
:105208006121E26EDE50E618D8B402D0D8901200C0
:10521800662BE4D7D8801200FDEC2BF0300E00018D
:1052280063196211D8A407D05F0E6F6FFE0E6E6F00
:1052380079EC2AF00BD0FDEC2BF0FE0E0001622574
:105248006E6FFF0E63216F6F79EC2AF0CC0EAAEC1B
:105258002BF012006C0E00016C6F6AC06DF06B5180
:105268006E6F81986C0E606F000E616F6FEC26F0A8
:105278006D0E0001606F000E616F6FEC26F06E0E10
:105288000001606F000E616F6FEC26F081881200DC
:10529800640E00016C6F6AC06DF06B516E6F81987F
:1052A8006C0E606F000E616F6FEC26F06D0E0001E2
:1052B800606F000E616F6FEC26F06E0E0001606F7C
:1052C800000E616F6FEC26F081881200000E00015D
:1052D800606F070E606501D013D06051090D060E8E
:1052E800F326000EF422000EF324D96E020EF420E9
:1052F800DA6EDF50D8A402D0D8901200602BE9D71C
:10530800D8801200000E0001606F070E606501D0A2
:1053180013D06051090D060EF326000EF422000E7C
:10532800F324D96E020EF420DA6EDF50D8B402D01E
:10533800D8901200602BE9D7D880120000016C6F5A
:10534800220E00016D6F81986D0E606F000E616F07
:105358006FEC26F06C0E0001606F000E616F6FEC51
:1053680026F06AC060F06BC061F06FEC26F08188AF
:10537800120000016C6F200E00016D6F81986D0E98
:10538800606F000E616F6FEC26F06C0E0001606FAD
:10539800000E616F6FEC26F06AC060F06BC061F0C0
:1053A80006EC26F081881200DE0E00017A6F010EED
:1053B8007B6F84C07CF085C07DF086C07EF087C09E
:1053C8007FF0000E816F0A0E806F52EC27F0DE0E20
:1053D8000001846F010E856F1200000E0001626FDC
:1053E800050E626501D00FD06251010DF3506025A2
:1053F800D96EF4506121DA6EDF50D8B402D0D8905B
:105408001200622BEDD7D8801200000E0001626FE7
:10541800030E626501D00FD06251010DF350602573
:10542800D96EF4506121DA6EDF50D8B402D0D8902A
:105438001200622BEDD7D88012003F3F3A3F3F3A27
:105448003F3F3A3F3F3A3F3F3A3F3F003F065B4FBF
:10545800666D7D077F6F00403F3F3F2E3F3F3F2EE9
:105468003F3F3F2E3F3F3F000001676F00016751FC
:105478000E0D040EF326000EF422000EF324D96E4E
:10548800030EF420DA6E00EE60F0050EDBCFEBFFC2
:10549800E806FCE212006EC070F000016F51716FF7
:1054A800700E6A6F000E6B6F000EA2EC29F0710E81
:1054B80000016A6F000E6B6F010EA2EC29F012005A
:1054C8006EC070F000016F51716F700E6A6F000E40
:1054D8006B6F020EA2EC29F0710E00016A6F000ECC
:1054E8006B6F030EA2EC29F012006EC070F0000181
:1054F8006F51716F700E6A6F000E6B6F060EA2EC23
:1055080029F0710E00016A6F000E6B6F070EA2EC96
:1055180029F012006EC070F000016F51716F700EAB
:105528006A6F000E6B6F040EA2EC29F0710E000179
:105538006A6F000E6B6F050EA2EC29F012000001D5
:10554800C26F82C0C0F083C0C1F020EE95F000EEBB
:105558006FF0080EDBCFEBFFE806FCE20001C2515A
:1055680073EC24F01200000160516203F3CF64F081
:10557800F4CF65F060516303F3506527615162030E
:10558800F350652764C060F065C061F0120072C016
:105598006EF073C06FF04FEC2AF076C06EF077C0F3
:1055A8006FF064EC2AF0D40EAAEC2BF000017A51CB
:1055B8002CEC2BF01200000E00016E6F6E0E6A6F5D
:1055C800000E6B6F6F0EBDEC29F000016E8B6E0E36
:1055D8006A6F000E6B6F6F0EA2EC29F01200000EBE
:1055E8000001626F030E626501D012006251010D65
:1055F800F3506025D96EF4506121DA6E000EDF6E2B
:10560800622BF0D7000E0001626F050E626501D0B3
:1056180012006251010DF3506025D96EF4506121DA
:10562800DA6E000EDF6E622BF0D7000E0001626F9B
:10563800050E626501D012006251010DF35060251C
:10564800D96EF4506121DA6EFF0EDF6E622BF0D74F
:105658000001606F00016051090D060EF326000E6F
:10566800F422000EF324D96E020EF420DA6E000E36
:10567800DF6E12000B0EF66E7A0EF76E20EE62F0F9
:105688000A0E0900F5CFDEFFE806FBE2620E000114
:10569800606F000E616F12000001606F0A0E00015A
:1056A800606103D06051300F1200100E606103D0AA
:1056B8006051370F1200000E12009AC084F09BC090
:1056C80085F09CC086F09DC087F0D8EC29F084C096
:1056D80098F085C099F027EC27F012004E90F20E52
:1056E8000001606F010E616FF3EC2AF0EE0E00010D
:1056F800606F010E616FF3EC2AF01200C69AC78C36
:1057080093800F015C9193925C9393965C97939826
:105718005C998188C68A1200F80E8216F80E9416D3
:10572800000E926E000E0F015B6FF80E5D17806819
:105738001200000E00016E6F6E0E6A6F000E6B6F26
:105748001A0EBDEC29F000016E51120000016A6FBB
:1057580081986A0E0001606F000E616F6FEC26F091
:105768008188120060C0EEF161C0EFF162C0F0F113
:1057780063C0F1F14E80120060C03CF061C03DF0A2
:105788004EB002D0D8901200D8801200F2C160F05A
:10579800F3C161F0F4C162F0F5C163F012009DEC51
:1057A8002BF00009D8B402D0010E1200000E12002E
:1057B800EEC160F0EFC161F0F0C162F0F1C163F0D9
:1057C800120029C060F02AC061F02BC062F02CC022
:1057D80063F01200AC8AAC98AB8EAC8CAC80030E34
:1057E800AF6E12007AC048F07BC049F04A6A4B6A33
:1057F800120017EC2CF060C062F061C063F0120078
:105808000001726F00017251F0EC22F01200010EDB
:105818002926000E2A222B222C221200E9EC24F041
:1058280072EC2BF0120042C060F043C061F012002D
:1058380060C042F061C043F01200E80EAAEC2BF001
:085848001200010000001234FF
:107A0A0000454E433432344A363030005B415250DE
:107A1A005D3A204F7065726174696F6E2077617389
:107A2A0020696E746572727570746564206265632C
:107A3A0061757365206C696E6B20776173206C6F5A
:107A4A0073742E0A0D0045746865726E657420633E
:107A5A006F6E74726F6C6C657220686173207265E8
:107A6A007475726E656420616E20756E6B6E6F77C9
:107A7A006E206465766963652049442E002D2D2D9C
:107A8A002D2D2D2D2D2D2D2D2D2D2D2D2D2D2D2D1C
:107A9A002D2D2D2D2D2D2D2D2D2D2D2D2D2D2D2D0C
:107AAA002D2D2D2D2D2D2D2D2D2D2D2D2D0A0D006C
:107ABA00072A2A2A20435249544943414C20455215
:107ACA00524F523A205741544348444F472043416A
:107ADA0055534544205245534554202A2A2A0A0D13
:107AEA00005B4152505D3A2053656E64696E6720AF
:107AFA00477261747569746F7573204152502072B0
:107B0A0065717565737420666F7220005B495076E3
:107B1A00345D3A205061636B65742077617320731A
:107B2A00656E74207375636365737366756C6C79BF
:107B3A002E0A0D005B496E76616C696420415250D1
:107B4A00204D65737361676520776173206469737B
:107B5A006361726465642E5D0D0A005B4152505D7B
:107B6A003A20436F6E666C69637420647572696E3D
:107B7A006720616E6E6F756E63656D656E742E0A31
:107B8A000D005B4152505D3A205461626C6520776A
:107B9A0061732072657365742073756363657373AB
:107BAA0066756C6C792E0A0D0045746865726E658F
:107BBA007420636F6E74726F6C6C657220697320C7
:107BCA00756E726573706F6E736976652E005B49A8
:107BDA005076345D3A204164647265737320636F32
:107BEA006E666C6963742064657465637465642E7B
:107BFA000A0D005B495076345D3A20536574746906
:107C0A006E6720495076342053726320416464724F
:107C1A0065737320746F20005B4152505D3A204EA9
:107C2A006F626F647920616E737765726564207420
:107C3A006F2070726F6265732E0A0D005B4152509D
:107C4A005D3A20416E20756E6B6E6F776E2065729D
:107C5A00726F72206F6363757265642E0A0D005B22
:107C6A004152505D3A20436F6E666C6963742064BA
:107C7A007572696E672070726F62696E672E0A0D7F
:107C8A00004950206164647265737320636F756C78
