:0400000065EF00F0B8
:100008004F82FACF16F0FBCF17F0E9CF18F0EACFFE
:1000180019F0E1CF1AF0E2CF1BF0D9CF1CF0DACFFC
:100028001DF0F3CF1EF0F4CF1FF0F6CF20F0F7CF7E
:1000380021F0F8CF22F0F5CF23F04FC024F050C0C4
:1000480025F051C026F052C027F09EA403D09E94FC
:1000580021EC37F0F2A40DD0F29430C00FF031C08B
:1000680010F022EC29F0E70E016E020E026EE4ECAD
:100078002BF0F0B2F09227C052F026C051F025C004
:1000880050F024C04FF023C0F5FF22C0F8FF21C074
:10009800F7FF20C0F6FF1FC0F4FF1EC0F3FF1DC00E
:1000A800DAFF1CC0D9FF1BC0E2FF1AC0E1FF19C06C
:1000B800EAFF18C0E9FF17C0FBFF16C0FAFF4F920E
:1000C800110033EF2AF074C06FF075C070F0000EA5
:1000D80082EC31F074C06FF075C070F0010E82ECE4
:1000E80031F000017F6F7F51816F806B7DC0D9FF38
:1000F8007EC0DAFF80C0DEFF81C0DDFF74C06FF014
:1001080075C070F0010E82EC31F000017F6F7F51F5
:100118007DC0D9FF7EC0DAFFDE12000EDD1274C08A
:100128006FF075C070F0010E82EC31F000017F6F46
:100138007F51816F806B20EE02F07D51D9267E5170
:10014800DA2280C0DEFF81C0DDFF74C06FF075C0A9
:1001580070F0010E82EC31F000017F6F806B20EEB1
:1001680002F07D51D9267E51DA227F51DE1280516C
:10017800DD1274C06FF075C070F0010E82EC31F0C2
:1001880000017F6F7FC080F0816B826B836B80C0C2
:1001980083F0826B816B806B20EE04F07D51D92651
:1001A8007E51DA2280C0DEFF81C0DEFF82C0DEFF22
:1001B80083C0DEFF74C06FF075C070F0010E82EC72
:1001C80031F000017F6F7FC080F0816B826B836BA1
:1001D80081C083F080C082F0816B806B20EE04F0D8
:1001E8007D51D9267E51DA228051DE128151DE12EC
:1001F8008251DE128351DE1274C06FF075C070F048
:10020800010E82EC31F000017F6F7FC080F0816BBE
:10021800826B836B82C083F081C082F080C081F0E2
:10022800806B20EE04F07D51D9267E51DA22805170
:10023800DE128151DE128251DE128351DE1274C049
:100248006FF075C070F0010E82EC31F000017F6F25
:100258007FC080F0816B826B836B20EE04F07D5150
:10026800D9267E51DA228051DE128151DE12825166
:10027800DE128351DE1274C06FF075C070F0010E8B
:1002880082EC31F000017F6F7FC080F0816B826B60
:10029800836B80C083F0826B816B806B20EE08F0EB
:1002A8007D51D9267E51DA2280C0DEFF81C0DEFF73
:1002B80082C0DEFF83C0DEFF74C06FF075C070F0CF
:1002C800010E82EC31F000017F6F7FC080F0816BFE
:1002D800826B836B81C083F080C082F0816B806BFE
:1002E80020EE08F07D51D9267E51DA228051DE12A7
:1002F8008151DE128251DE128351DE1274C06FF01A
:1003080075C070F0010E82EC31F000017F6F7FC084
:1003180080F0816B826B836B82C083F081C082F036
:1003280080C081F0806B20EE08F07D51D9267E5187
:10033800DA228051DE128151DE128251DE1283519F
:10034800DE1274C06FF075C070F0010E82EC31F0EF
:1003580000017F6F7FC080F0816B826B836B20EE22
:1003680008F07D51D9267E51DA228051DE12815162
:10037800DE128251DE128351DE1274C06FF075C036
:1003880070F0010E82EC31F00001846F20EE0CF069
:100398007D51D9267E51DA2284390F0B0F0BDF6E7F
:1003A80084C07FF0010E7F1720EE0DF07D51D92615
:1003B8007E51DA22DF507F19FE0B7F19DF6E74C081
:1003C8006FF075C070F0010E82EC31F00001846F9F
:1003D80084AF03D07F6B7F2B02D000017F6B20EEB0
:1003E8000DF07D51D9267E51DA227F47DF507F19E3
:1003F800FD0B7F19DF6E84AD03D07F6B7F2B02D09E
:1004080000017F6B20EE0DF07D51D9267E51DA2256
:100418007F477F47DF507F19FB0B7F19DF6E84AB67
:1004280003D07F6B7F2B02D000017F6B20EE0DF095
:100438007D51D9267E51DA227F477F477F47DF509B
:100448007F19F70B7F19DF6E84A903D07F6B7F2B91
:1004580002D000017F6B20EE0DF07D51D9267E5130
:10046800DA227F3BDF507F19EF0B7F19DF6E84A7FD
:1004780003D07F6B7F2B02D000017F6B20EE0DF045
:100488007D51D9267E51DA227F3B7F47DF507F1985
:10049800DF0B7F19DF6E84A503D07F6B7F2B02D023
:1004A80000017F6B20EE0DF07D51D9267E51DA22B6
:1004B8007F3B7F477F47DF507F19BF0B7F19DF6E78
:1004C80084A303D07F6B7F2B02D000017F6B20EECB
:1004D8000DF07D51D9267E51DA227F337F33DF50EC
:1004E8007F197F0B7F19DF6E84A103D07F6B7F2B71
:1004F80002D000017F6B20EE0EF07D51D9267E518F
:10050800DA22DF507F19FE0B7F19DF6E74C06FF09F
:1005180075C070F0010E82EC31F000017F6F7F51E1
:10052800816F806B20EE0FF07D51D9267E51DA2243
:1005380080C0DEFF81C0DDFF74C06FF075C070F051
:10054800010E82EC31F000017F6F806B20EE0FF01E
:100558007D51D9267E51DA227F51DE128051DD127B
:1005680074C06FF075C070F0010E82EC31F00001BC
:100578007F6F7F51816F806B20EE11F07D51D926FE
:100588007E51DA2280C0DEFF81C0DDFF74C06FF0CB
:1005980075C070F0010E82EC31F000017F6F806B46
:1005A80020EE11F07D51D9267E51DA227F51DE12DC
:1005B8008051DD1274C06FF075C070F0010E82ECCE
:1005C80031F000017F6F7F51816F806B20EE13F057
:1005D8007D51D9267E51DA2280C0DEFF81C0DDFF41
:1005E80074C06FF075C070F0010E82EC31F000013C
:1005F8007F6F806B20EE13F07D51D9267E51DA2271
:100608007F51DE128051DD1274C06FF075C070F03A
:10061800020E82EC31F0120054EC20F078C0F3F1B5
:1006280079C0F4F10101F3A744D0220EEC250001B2
:10063800806F000E0101ED210001816F06EC2EF0A4
:10064800010120EE22F0EC51D926ED51DA22DE0428
:10065800D8A41ED0000E00016E6F000EBFEC2DF066
:10066800020E00016E6F010EBFEC2DF0010120EEAD
:1006780077F0EC51D926ED51DA22DECF60F0DECFEB
:1006880061F0DECF62F0DECF63F0D1EC36F00ED051
:10069800010E00016E6F000EBFEC2DF0010E00017F
:1006A8006E6F010EBFEC2DF02EEC2DF00B0E37EC1B
:1006B80037F00101F3A90BD0EEEC36F00009D8B4FD
:1006C80006D0ECC1DFF1EDC1E0F1F3EC07F0010178
:1006D800F4A331D0000E8EEC2BF0EA0E00018D6FE2
:1006E8007F0E8E6F36EC32F0000E8EEC36F060C066
:1006F8008DF061C08EF036EC32F0640E00018D6F23
:100708007C0E8E6F36EC32F0000E8EEC36F060C048
:100718008DF061C08EF036EC32F011EC37F0EB0E54
:1007280000018D6F7F0E8E6F36EC32F057EC37F08C
:100738008FEC2CF0FF00010120EE34F0EC51D926AB
:10074800ED51DA22DE04D8B44BD155D1010120EEA7
:1007580039F0EC51D926ED51DA223EEC37F0DE5073
:100768000001605DDE506159D8B002D0010EE6D0BC
:10077800020E0201D16F010120EE35F0EC51D926AD
:10078800ED51DA2213EE48F0410EDBCFE3FFE80625
:10079800FCE231D1010120EE35F0EC51D926ED51C2
:1007A800DA2213EE48F0410EDBCFE3FFE806FCE265
:1007B8000201D051D8A407D03EEC37F060C07CF3DA
:1007C80061C07DF31BD03EEC37F00101FA51EE6FAA
:1007D800EF6B000160510101EE5D00016151010103
:1007E800EF59D8A007D03EEC37F060C07CF361C069
:1007F8007DF304D0FAC17CF303017D6B03017C51C6
:1008080078257A6F7D5179217B6F7C5100084C25C2
:100818000101FA6F7AC3CBF27BC3CCF278C384F0C0
:1008280079C385F00001866B876B0A0E886F0DEC23
:1008380035F084C08DF085C08EF036EC32F0D00EE5
:1008480000018D6F7F0E8E6F36EC32F07AC384F024
:100858007BC385F00001866B876B0A0E886F0DECF1
:1008680035F084C08DF085C08EF036EC32F0F10E94
:1008780000018D6F7F0E8E6F36EC32F07CC384F0F2
:100888007DC385F00001866B876B0A0E886F0DECBF
:1008980035F084C08DF085C08EF036EC32F0EE0E67
:1008A80000018D6F7F0E8E6F36EC32F0000E000166
:1008B8008D6F7E0E8E6F36EC32F00101FA51000119
:1008C800846F856B866B876B0A0E886F0DEC35F02D
:1008D80084C08DF085C08EF036EC32F0EB0E00014E
:1008E8008D6F7F0E8E6F36EC32F0020E27D001012D
:1008F80020EE35F0EC51D926ED51DA2201EE34F034
:10090800410EDBCFEBFFE806FCE2DAEC1EF034C167
:10091800F5F135C1F6F136C1F7F10201D02B030E1E
:100928000101F519D8B441D066D020EE34F0EC516D
:10093800D926ED51DA22000EDF6E000E0201D16FCA
:100948005AD0000E8EEC2BF06A0E00018D6F7D0ED2
:100958008E6F36EC32F0010120EE48F0EC51D926CA
:10096800ED51DA22DECF84F0DECF85F0DECF86F0DF
:10097800DECF87F076EC23F084C08DF085C08EF052
:1009880036EC32F011EC37F0EB0E00018D6F7F0E74
:100998008E6F36EC32F0010120EE34F0EC51D9269E
:1009A800ED51DA22000EDF6E26D021EEF6F0DECF12
:1009B800EEF1DDCFEFF1EF51000AD8B404D0010A0F
:1009C800D8B406D018D0EE51000AD8B4AED713D098
:1009D800EE51910AD8B40FD0050AD8B4B2D70BD0CB
:1009E8000201D151000AD8B4B1D6010AD8B4D2D67E
:1009F800030AD8B47CD7010120EE22F0EC51D926A5
:100A0800ED51DA22DF50B9EC25F051C1F0F152C1B5
:100A1800F1F153C1F2F1010120EE22F0EC51D92697
:100A2800ED51DA22DF5000EC21F060C0F5F161C031
:100A3800F6F162C0F7F1040E0101F519D8A412000D
:100A4800F50EF6195DE1F705D8A41200000E8EEC3C
:100A58002BF0040E00018D6F7D0E8E6F36EC32F098
:100A680011EC37F07AEC33F0010120EE77F0EC511D
:100A7800D926ED51DA22000174C0DEFF75C0DEFF11
:100A880076C0DEFF77C0DEFF000E8EEC2BF0290E5D
:100A980000018D6F7D0E8E6F36EC32F0010120EE75
:100AA80077F0EC51D926ED51DA22DECF84F0DECF93
:100AB80085F0DECF86F0DECF87F076EC23F084C0B9
:100AC8008DF085C08EF036EC32F0EB0E00018D6FA4
:100AD8007F0E8E6F36EC32F011EC37F0010120EE0C
:100AE80077F0EC51D926ED51DA22DECF60F0DECF77
:100AF80061F0DECF62F0DECF63F0D1EC36F01200A9
:100B08001200000E0001A16F84518511D8A40CD0E9
:100B1800010E9F6F20EE98F000EE84F0080EDBCFF8
:100B2800EBFFE806FCE212009FEC34F0D8A00DD0F1
:100B3800010E00019F6F20EE98F000EE84F0080E81
:100B4800DBCFEBFFE806FCE21200BBEC34F0D8A0E8
:100B580038D2300E0001855DD8A00CD0010E9F6FF1
:100B680020EE98F000EE84F0080EDBCFEBFFE806ED
:100B7800FCE21200000E0301016F000E006F84C03A
:100B880002F385C003F384C004F385C005F3010EA6
:100B9800066F000E086F23EE00F000EE84F0080EDA
:100BA800DBCFEBFFE806FCE212000001A151090DC2
:100BB800060EF326000EF422000EF324D96E030E5F
:100BC800F420DA6EDF50D8A4EBD1A151D8B407D005
:100BD800FF0EA125936F946BFF0E942304D0000E93
:100BE800946F070E936F93C06EF094C06FF0000E71
:100BF800716F090E706FE9EC35F0020E00016E2777
:100C0800000E6F23000E6E25D96E030E6F21DA6E6B
:100C1800DECF8DF0DDCF8EF0010E8D27000E8E23F6
:100C2800A151090D000EF324D96E030EF420DA6EDB
:100C38008DC0DEFF8EC0DDFFA151090D000EF3242B
:100C4800D96E030EF420DA6EDECF8DF0DDCF8EF094
:100C580084518D2785518E238D05300E8E59D8A04D
:100C6800CFD0070EA119D8A4CBD003010651D8A420
:100C7800C7D00001A151090D040EF326000EF4227D
:100C8800000EF324D96E030EF420DA6E84C0DEFF62
:100C980085C0DDFFA151090D040EF326000EF422D4
:100CA800000EF324D96E030EF420DA6EDECF8DF039
:100CB800DDCF8EF0FF0E8F6F2F0E906FA151090DB3
:100CC800000EF324D96E030EF420DA6EDECF91F015
:100CD800DDCF92F0911F921F914B922B8F5191274C
:100CE80090519223911F921F914B922B8D519127D6
:100CF8008E519223A151090D020EF326000EF42203
:100D0800000EF324D96E030EF420DA6E91C0DEFFD4
:100D180092C0DDFF000E966F070E966501D044D095
:100D2800A1519619D8B43ED0A151090D000EF32453
:100D3800D96E030EF420DA6E00EE72F0080EDBCFE7
:100D4800EBFFE806FCE29651090D000EF324D96E7C
:100D5800030EF420DA6E00EE7BF0080EDBCFEBFF1B
:100D6800E806FCE29DEC24F00001D8A01BD09651C7
:100D7800090D060EF326000EF422000EF324D96E98
:100D8800030EF420DA6EDF50D8B40CD0010E9F6F3A
:100D980020EE98F000EE84F0080EDBCFEBFFE806BB
:100DA800FCE21200962BB8D7A151090D060EF326C6
:100DB800000EF422000EF324D96E030EF420DA6E2E
:100DC800010EDF6EA151090D080EF326000EF42264
:100DD800000EF324D96E030EF420DA6EA1C0DFFFF3
:100DE800A151090D000EF324D96E030EF420DA6E1A
:100DF80000EE84F0080EDBCFEBFFE806FCE2120001
:100E0800010E0001956FA151090D000EF324D96E52
:100E1800030EF420DA6EDECF8DF0DDCF8EF0845134
:100E28008D2785518E23A151090D020EF326000E40
:100E3800F422000EF324D96E030EF420DA6E8DC06E
:100E4800DEFF8EC0DDFF000E976F070E976501D09D
:100E58003AD0A1519719D8B434D09751090D060E3C
:100E6800F326000EF422000EF324D96E030EF420AC
:100E7800DA6EDF50D8B425D0A151090D000EF32445
:100E8800D96E030EF420DA6E00EE72F0080EDBCF96
:100E9800EBFFE806FCE29751090D000EF324D96E2A
:100EA800030EF420DA6E00EE7BF0080EDBCFEBFFCA
:100EB800E806FCE29DEC24F00001D8A002D0000E68
:100EC800956F972BC2D79551D8B46AD0A151090D07
:100ED800060EF326000EF422000EF324D96E030E3C
:100EE800F420DA6E010EDF6EA151090D000EF32415
:100EF800D96E030EF420DA6EDECF8DF0DDCF8EF0E2
:100F080084518D2785518E23A151090D020EF32698
:100F1800000EF422000EF324D96E030EF420DA6ECC
:100F28008DC0DEFF8EC0DDFFA151090D070EF3262F
:100F3800000EF422000EF324D96E030EF420DA6EAC
:100F4800000EDF6EA151090D040EF326000EF422E7
:100F5800000EF324D96E030EF420DA6E84C0DEFF8F
:100F680085C0DDFFA151090D080EF326000EF422FD
:100F7800000EF324D96E030EF420DA6EA1C0DFFF51
:100F8800A151090D000EF324D96E030EF420DA6E78
:100F980000EE84F0080EDBCFEBFFE806FCE212005F
:100FA800A12B080EA119D8A40CD0010E9F6F20EE1A
:100FB80098F000EE84F0080EDBCFEBFFE806FCE2C9
:100FC8001200080E0001A165F0D520EE98F000EEA1
:100FD80084F0080EDBCFEBFFE806FCE21200020EFD
:100FE8000101E96F000EEB6F000EEA6F00EC37F0BD
:100FF800010120EE1EF0DF51D926E051DA2200016E
:1010080060C0DEFF61C0DEFF62C0DEFF63C0DEFFDE
:1010180030EC37F0010120EE10F0DF51D926E05115
:10102800DA22000162C0DEFF63C0DDFF51EC2FF061
:10103800010120EE16F0DF51D926E051DA22010E27
:10104800DF6E20EE10F0DF51D926E051DA22DECF34
:1010580071F0DDCF72F0CAEC2FF0010120EE19F02B
:10106800DF51D926E051DA22040EEBCFDBFFE80688
:10107800FCE220EE19F0DF51D926E051DA2210EE19
:1010880014F0DF51E126E051E222DECFE6FFDDCFAA
:10109800E5FF20EE14F0DF51D926E051DA22DECF49
:1010A800E1F1DDCFE2F120EE10F0DF51D926E05179
:1010B800DA22DECFE3F1DDCFE4F1E151E327E251BB
:1010C800E423600EE45DD8A03BD0000EE16F300E43
:1010D800E26F20EE14F0DF51D926E051DA22DECF9C
:1010E800E3F1DDCFE4F1FF0EE56F2F0EE66F20EEA2
:1010F80010F0DF51D926E051DA22DECFE7F1DDCF5B
:10110800E8F1E71FE81FE74BE82BE551E727E65131
:10111800E823E71FE81FE74BE82BE351E727E451F3
:10112800E823E151E727E251E82320EE12F0DF51EE
:10113800D926E051DA22E7C1DEFFE8C1DDFF22D07F
:1011480020EE14F0DF51D926E051DA22DECFE1F1AA
:10115800DDCFE2F120EE10F0DF51D926E051DA229E
:10116800DECFE3F1DDCFE4F1E151E327E251E423FF
:1011780020EE12F0DF51D926E051DA22E3C1DEFF7A
:10118800E4C1DDFF20EE10F0DF51D926E051DA226C
:1011980000EE6FF0080EDBCFEBFFE806FCE277EC21
:1011A80030F0010120EE0EF0DF51D926E051DA22AD
:1011B80000016FC0DEFF70C0DDFFFB0E8D6F7F0E7C
:1011C8008E6F36EC32F0C4C284F0C5C285F0C6C258
:1011D80086F0C7C287F00A0E0001886F0DEC35F063
:1011E80084C08DF085C08EF036EC32F0010E02011D
:1011F800C427000EC523C623C723900E00018D6F98
:101208007F0E8E6F36EC32F0010120EE1BF0DF51BD
:10121800D926E051DA22DFAE07D0360E00018D6FF5
:101228007F0E8E6F36EC32F0010120EE1DF0DF519B
:10123800D926E051DA22DFA407D0620E00018D6FB3
:101248007F0E8E6F36EC32F0010120EE1BF0DF517D
:10125800D926E051DA22DFBAF1D0000E8EEC2BF05D
:10126800800E00018D6F7E0E8E6F36EC32F011EC21
:1012780037F0E4D0020E8EEC2BF0FB0E00018D6FE0
:101288007F0E8E6F36EC32F0080E0001616F060E8D
:10129800606FBFEC33F060C08DF061C08EF036EC4B
:1012A80032F0900E00018D6F7F0E8E6F36EC32F0AB
:1012B80011EC37F0DFC1FCF0E0C1FDF0BFEC28F025
:1012C800D4D0040E8EEC2BF0FB0E00018D6F7F0E38
:1012D8008E6F36EC32F0080E0001616F000E606F01
:1012E800BFEC33F060C08DF061C08EF036EC32F0A8
:1012F800900E00018D6F7F0E8E6F36EC32F011EC80
:1013080037F0DFC1DDF1E0C1DEF112EC15F0ADD050
:10131800000E8EEC2BF0FB0E00018D6F7F0E8E6F92
:1013280036EC32F0FF0E0001616F6069BFEC33F0FC
:1013380060C08DF061C08EF036EC32F0FA0E00011C
:101348008D6F7F0E8E6F36EC32F0010120EE02F0C9
:10135800DF51D926E051DA2200EE84F0050EDBCF0A
:10136800EBFFE806FCE2E2EC2AF084C08DF085C0D1
:101378008EF036EC32F0F70E00018D6F7F0E8E6F17
:1013880036EC32F0010120EE08F0DF51D926E051A9
:10139800DA2200EE84F0050EDBCFEBFFE806FCE274
:1013A800E2EC2AF084C08DF085C08EF036EC32F085
:1013B800FA0E00018D6F7F0E8E6F36EC32F0010150
:1013C80020EE0EF0DF51D926E051DA22DECF60F0B0
:1013D800DDCF61F0BFEC33F060C08DF061C08EF0FE
:1013E80036EC32F0D50E00018D6F7F0E8E6F36EC25
:1013F80032F0DFC1D9FFE0C1DAFFDECFE1F1DDCFA6
:10140800E2F1E1C184F0E2C185F00001866B876BEF
:101418000A0E886F0DEC35F084C08DF085C08EF013
:1014280036EC32F0F40E00018D6F7F0E8E6F36ECC5
:1014380032F011EC37F045EC34F017D0010120EE12
:101448000EF0DF51D926E051DA22DECFE1F1DDCF0F
:10145800E2F1E251080AD8A45BD7E151000AD8B4F6
:1014680030D7060AD8B406D753D7EB0E00018D6FD4
:101478007F0E8E6F36EC32F01200000E00018E6F78
:10148800000E8F6F000E906F000E916F725171C039
:1014980079F07A6B79C07AF0796B7913000E7A1348
:1014A80079518E277A518F23000E9023000E9123B5
:1014B800745173C079F07A6B79C07AF0796B7913CB
:1014C800000E7A1379518E277A518F23000E9023BC
:1014D800000E9123765175C079F07A6B79C07AF055
:1014E800796B7913000E7A1379518E277A518F23ED
:1014F800000E9023000E9123785177C079F07A6B13
:1015080079C07AF0796B7913000E7A1379518E27A6
:101518007A518F23000E9023000E91236E518E274F
:10152800000E8F2390239123140E8E27000E8F23F5
:101538009023912360C0D9FF61C0DAFFDECF79F034
:10154800DDCF7AF079518E277A518F23000E9023C0
:10155800000E912320EE02F06051D9266151DA2263
:10156800DECF79F0DDCF7AF079518E277A518F234B
:10157800000E9023000E912320EE04F06051D9262E
:101588006151DA22FF0EDE14796FFF0EDE147A6FD6
:10159800000EDE147B6F000EDE147C6F79518E27EF
:1015A8007A518F237B5190237C51912320EE04F0B4
:1015B8006051D9266151DA22000EDE14796F000ECF
:1015C800DE147A6FFF0EDE147B6FFF0EDE147C6F65
:1015D800110E05D0D8907C337B337A337933E82EDB
:1015E800F9D779518E277A518F23000E9023000E58
:1015F800912320EE08F06051D9266151DA22FF0EBE
:10160800DE14796FFF0EDE147A6F000EDE147B6F26
:10161800000EDE147C6F79518E277A518F237B510F
:1016280090237C51912320EE08F06051D926615116
:10163800DA22000EDE14796F000EDE147A6FFF0EC8
:10164800DE147B6FFF0EDE147C6F110E05D0D89070
:101658007C337B337A337933E82EF9D779518E2767
:101668007A518F23000E9023000E912320EE0DF067
:101678006051D9266151DA22DFBE04D0000E7F6F97
:10168800000E03D0000E7F6F020E7E6F20EE0DF06D
:101698006051D9266151DA22DFBC04D0000E816F77
:1016A800000E03D0000E816F040E806F20EE0DF047
:1016B8006051D9266151DA22DFBA04D0000E836F57
:1016C800000E03D0000E836F080E826F20EE0DF01F
:1016D8006051D9266151DA22DFB804D0000E856F37
:1016E800000E03D0000E856F100E846F20EE0DF0F3
:1016F8006051D9266151DA22DFB604D0000E876F17
:10170800000E03D0000E876F200E866F20EE0DF0BE
:101718006051D9266151DA22DFB404D0000E896FF6
:10172800000E03D0000E896F400E886F20EE0DF07A
:101738006051D9266151DA22DFB204D0000E8B6FD6
:10174800000E03D0000E8B6F800E8A6F20EE0DF016
:101758006051D9266151DA22DFB002D0000E01D0E3
:10176800010E8D6F000E8C6F20EE0CF06051D926A3
:101778006151DA22DF500F0B796F7A6B0C0ED8901B
:1017880079377A37E82EFBD720EE0EF06051D9264C
:101798006151DA22DFA003D07B6B7B2B02D00001E2
:1017A8007B6B7B517913000E7A138C5179138D5111
:1017B8007A138A5179138B517A1388517913895185
:1017C8007A138651791387517A1384517913855185
:1017D8007A138251791383517A1380517913815185
:1017E8007A137E5179137F517A1379518E277A5162
:1017F8008F23000E9023000E912320EE0FF06051EE
:10180800D9266151DA22DECF79F0DDCF7AF079512D
:101818008E277A518F23000E9023000E912320EEFD
:1018280013F06051D9266151DA22DECF79F0DDCF8D
:101838007AF079518E277A518F23000E9023000E6B
:101848009123000E8E15796F000E8F157A6FFF0E9B
:1018580090157B6FFF0E91157C6F110E05D0D890F7
:101868007C337B337A337933E82EF9D779517D6F1E
:10187800FF0E8E17FF0E8F17000E9017000E911790
:101888007D518E27000E8F2390239123915103E1E0
:101898009005D8A025D0000E8E15796F000E8F15F3
:1018A8007A6FFF0E90157B6FFF0E91157C6F110EEE
:1018B80005D0D8907C337B337A337933E82EF9D747
:1018C80079518E277A518F237B5190237C51912314
:1018D800FF0E8E17FF0E8F17000E9017000E911730
:1018E8008E1D796F8F1D7A6F20EE11F06051D92609
:1018F8006151DA2279C0DEFF7AC0DDFF1200000EE6
:1019080000019C6F160E9B6F20EE10F07451D926C3
:101918007551DA22DECF94F0DDCF95F09B519425F6
:101928006F6F9C519521706F000E82EC31F00001B1
:1019380020EE10F07451D9267551DA22DECF94F0DA
:10194800DDCF95F09B5194256F6F9C519521706F59
:10195800010E82EC31F000019E6F9D6B20EE10F0BD
:101968007451D9267551DA22DECF94F0DDCF95F087
:101978009B5194256F6F9C519521706F010E82ECDD
:1019880031F00001966F96519D1320EE10F07451BE
:10199800D9267551DA22DECF94F0DDCF95F09B5130
:1019A80094256F6F9C519521706F010E82EC31F078
:1019B8000001A06F9F6B20EE10F07451D92675516D
:1019C800DA22DECF94F0DDCF95F09B5194256F6F2E
:1019D8009C519521706F010E82EC31F00001966FD9
:1019E80096519F1320EE10F07451D9267551DA22C2
:1019F800DECF94F0DDCF95F09B5194256F6F9C510D
:101A08009521706F010E82EC31F00001A16F20EE7C
:101A180010F07451D9267551DA22DECF94F0DDCF5B
:101A280095F09B5194256F6F9C519521706F010E15
:101A380082EC31F00001A26F20EE10F07451D9262B
:101A48007551DA22DECF94F0DDCF95F09B519425C5
:101A58006F6F9C519521706F010E82EC31F000017F
:101A6800A46FA36B20EE10F07451D9267551DA22B9
:101A7800DECF94F0DDCF95F09B5194256F6F9C518C
:101A88009521706F010E82EC31F00001966F96512E
:101A9800A313000E976F24D020EE10F07451D926AE
:101AA8007551DA22DECF94F0DDCF95F09B51942565
:101AB8006F6F9C519521706F010E82EC31F000011F
:101AC800966F9751010D080EF326000EF4229D0E15
:101AD800F324D96E000EF420DA6E96C0DFFF972B40
:101AE800A151975DD8A0D8D7000E986F24D020EECA
:101AF80010F07451D9267551DA22DECF94F0DDCF7B
:101B080095F09B5194256F6F9C519521706F010E34
:101B180082EC31F00001966F9851010D0E0EF326FC
:101B2800000EF4229D0EF324D96E000EF420DA6E16
:101B380096C0DFFF982BA251985DD8A0D8D7000E89
:101B4800996F24D020EE10F07451D9267551DA22FD
:101B5800DECF94F0DDCF95F09B5194256F6F9C51AB
:101B68009521706F010E82EC31F00001966F99514A
:101B7800010D120EF326000EF4229D0EF324D96EE9
:101B8800000EF420DA6E96C0DFFF992BA151995D03
:101B9800D8A0D8D7000E9A6F24D020EE10F0745138
:101BA800D9267551DA22DECF94F0DDCF95F09B511E
:101BB80094256F6F9C519521706F010E82EC31F066
:101BC8000001966F9A51010D180EF326000EF422AB
:101BD8009D0EF324D96E000EF420DA6E96C0DFFF56
:101BE8009A2BA2519A5DD8A0D8D720EE10F0745144
:101BF800D9267551DA22DECF94F0DDCF95F09B51CE
:101C080094256F6F9C519521706F020E82EC31F014
:101C1800AB0E0001606F000E616F3DEC35F0000106
:101C2800D8A002D0B9833CD0B993AB0E606F000E38
:101C3800616FB50E626F000E636F24EC34F0000123
:101C4800D8A00DD0AF0E606F000E616F25EC35F097
:101C58000001D8A004D0A305A411D8B41FD0AB0E9E
:101C6800606F000E616FB50E626F000E636F24EC3B
:101C780034F00001D8A014D0A50E606F000E616F7B
:101C8800AF0E626F000E636F03EC34F00001D8A052
:101C980007D0020EA319A411D8A402D0B98101D08B
:101CA800B9919D059E11D8A413D0080EA0199F11B3
:101CB800D8A40ED0A4510CE1030EA35DD8B008D06F
:101CC800060EA119D8A404D0040EA219D8B404D0C1
:101CD800010EBC6F950E03D0000EBC6F000EBB6FDB
:101CE800030EBA6F20EE9DF000EE74F01F0EDBCFEE
:101CF800EBFFE806FCE21200050E0101716F000E11
:101D0800726F000E736F000E786F000E7A6F000E00
:101D1800796F060E7C6F000120EE04F0C151D926C0
:101D2800C251DA22DECF83F1DECF84F1DECF85F136
:101D3800DECF86F1E5EC36F060C07FF161C080F15E
:101D480062C081F163C082F1000E0101756F280E37
:101D5800746F7B69040E706F700E0001606F010E66
:101D6800616F65EC10F021EE70F000EE60F0160E79
:101D7800DBCFEBFFE806FCE2000E0001776F010EF7
:101D8800786F9DEC1FF0700E0001A76F010EA86F11
:101D980041EC22F0050E0101BE6F000120EE0AF0B1
:101DA800C151D926C251DA22DECFB4F1DDCFB5F167
:101DB80020EE08F0C151D926C251DA22DECFB2F1A5
:101DC800DDCFB3F1010EC3250101BA6F000E00018A
:101DD800C4210101BB6F000E0001C5210101BC6FC8
:101DE800000E0001C6210101BD6F7B0EB66F000E0B
:101DF800B76F000EB86F000EB96F000EC66F000EF9
:101E0800C56F000EC26F140EC16FBF89BF8FBF911F
:101E1800BF93BF95BF97BF9BBF9DC091B20E0001F6
:101E2800606F010E616F21EE70F000EE62F0160E29
:101E3800DBCFEBFFE806FCE241EC0AF0FB0E000109
:101E48008D6F7F0E8E6F36EC32F0B2C184F0B3C165
:101E580085F00001866B876B0A0E886F0DEC35F0F4
:101E680084C08DF085C08EF036EC32F0D00E0001C3
:101E78008D6F7F0E8E6F36EC32F0B4C184F0B5C131
:101E880085F00001866B876B0A0E886F0DEC35F0C4
:101E980084C08DF085C08EF036EC32F0900E0001D3
:101EA8008D6F7F0E8E6F36EC32F00101B351206FCB
:101EB800B2C121F1B551226FB4C123F121EEB6F0C0
:101EC800000EDE140001C76F000EDE14C86F000E8E
:101ED800DE14C96FFF0EDE14CA6F190E05D0D89034
:101EE800CA33C933C833C733E82EF9D7C7510101FC
:101EF800246FB8C125F1B7C126F1B6C127F121EE8B
:101F0800BAF0000EDE140001C76F000EDE14C86FB1
:101F1800000EDE14C96FFF0EDE14CA6F190E05D04D
:101F2800D890CA33C933C833C733E82EF9D7C75155
:101F38000101286FBCC129F1BBC12AF1BAC12BF13B
:101F4800BFA104D00001C76BC72B02D00001C76B2B
:101F58000101BE39F00B0001C71101012C6FBFBF91
:101F680004D0000E616F000E03D0000E616F020EE8
:101F7800606FBFBD04D0000E636F000E03D0000E6B
:101F8800636F040E626FBFBB04D0000E656F000E56
:101F980003D0000E656F080E646FBFB904D0000E41
:101FA800676F000E03D0000E676F100E666FBFB725
:101FB80004D0000E696F000E03D0000E696F200E6A
:101FC800686FBFB304D0000E6B6F000E03D0000E15
:101FD8006B6F400E6A6FBFB304D0000E6D6F000EBA
:101FE80003D0000E6D6F800E6C6FC0A102D0010E81
:101FF80001D0000E6C116A1168116611641162112A
:1020080060112D6FC2512E6FC1C12FF1C451306FB5
:10201800C3C131F1C651326FC5C133F1000E6F6FC4
:10202800000E6E6F3BD07151040DF3506E5DF4508D
:102038006F59D8B013D021EE70F000EE7EF0410E4B
:10204800DBCFEBFFE806FCE2000E6E25D96E010E31
:102058006F21DA6EDF507EEC36F01DD021EE70F085
:1020680000EE7EF0410EDBCFEBFFE806FCE201015B
:102078007151040DF31EF41EF34AF42A6E51F3262F
:102088006F51F422200EF324D96E010EF420DA6E7B
:10209800DF507EEC36F001016E4B6F2B74516E5D94
:1020A80075516F59D8A0BFD721EE70F014EE35F0F6
:1020B800410EDBCFE3FFE806FCE2010E0401346FBA
:1020C8001200000E00016B6F000E6C6F000E6D6F3A
:1020D800000E6E6F000E6A6F20EE02F06051D92676
:1020E8006151DA22DF50626F636BD89062376337D1
:1020F800D8906237633720EE01F06051D9266151DC
:10210800DA22DF50646F6451666F656B60C0D9FF77
:1021180061C0DAFFDF50676F686B0C0ED8906737C5
:102128006837E82EFBD7655167136651681362510B
:1021380067136351681320EE03F06051D92661518B
:10214800DA22DF50696F69516713000E681367C0A0
:102158006BF068C06CF06D6B6E6B20EE04F0605134
:10216800D9266151DA22DECF62F0DDCF63F0625109
:102178006B2763516C23000E6D23000E6E2320EE37
:1021880006F06051D9266151DA22DECF62F0DDCF48
:1021980063F062516B2763516C23000E6D23000EB0
:1021A8006E2320EE09F06051D9266151DA22DECF84
:1021B80062F0DDCF63F020EE08F06051D92661515E
:1021C800DA22DF50646F656B0D0ED890643765377F
:1021D800E82EFBD7625164136351651364516B2772
:1021E80065516C23000E6D23000E6E2320EE0BF05C
:1021F8006051D9266151DA22DF50626F6251646FF3
:10220800636B20EE0CF06051D9266151DA22DF5061
:10221800656F65516313000E641363516B27645136
:102228006C23000E6D23000E6E2320EE0FF060511C
:10223800D9266151DA22DF50626F6251646F636B95
:1022480020EE10F06051D9266151DA22DF50656F17
:10225800666B635165136451661365516B2766514C
:102268006C23000E6D23000E6E2320EE11F06051DA
:10227800D9266151DA22DF50626F6251646F636B55
:1022880020EE12F06051D9266151DA22DF50656FD5
:10229800666B635165136451661365516B2766510C
:1022A8006C23000E6D23000E6E2320EE13F0605198
:1022B800D9266151DA22DF50626F6251646F636B15
:1022C80020EE14F06051D9266151DA22DF50656F93
:1022D800666B635165136451661365516B276651CC
:1022E8006C23000E6D23000E6E2320EE15F0605156
:1022F800D9266151DA22DF50626F6251646F636BD5
:1023080020EE16F06051D9266151DA22DF50656F50
:10231800666B635165136451661365516B2766518B
:102328006C23000E6D23000E6E23000E6B15626F7A
:10233800000E6C15636FFF0E6D15646FFF0E6E1542
:10234800656F110E05D0D8906533643363336233FB
:10235800E82EF9D762516A6FFF0E6B17FF0E6C17E4
:10236800000E6D17000E6E176A516B27000E6C2356
:102378006D236E236E5103E16D05D8A025D0000EA4
:102388006B15626F000E6C15636FFF0E6D15646F31
:10239800FF0E6E15656F110E05D0D8906533643346
:1023A80063336233E82EF9D762516B2763516C238C
:1023B80064516D2365516E23FF0E6B17FF0E6C176A
:1023C800000E6D17000E6E176B1D626F6C1D636F2C
:1023D80020EE0DF06051D9266151DA2262C0DEFF8D
:1023E80063C0DDFF1200000E0001656FFF0E666F0F
:1023F80020EE01F06051D9266151DA22DF50676F73
:102408006751696F686B655168176651691760C0D5
:10241800D9FF61C0DAFFDF506A6F6B6B68516A11D0
:102428006C6F69516B116D6F20EE02F06051D92607
:102438006151DA22DFA003D0656B652B02D0000161
:10244800656B6E516519FE0B65196E6F20EE02F013
:102458006051D9266151DA22DFA403D0656B652B60
:1024680002D00001656B65476E516519FD0B651952
:102478006E6F20EE02F06051D9266151DA22DFA892
:1024880003D0656B652B02D00001656B6547654716
:102498006E516519FB0B65196E6F20EE02F06051E5
:1024A800D9266151DA22DFAA03D0656B652B02D0E9
:1024B8000001656B6547654765476E516519F70B00
:1024C80065196E6F20EE02F06051D9266151DA224B
:1024D800DFAC03D0656B652B02D00001656B653BF3
:1024E8006E516519EF0B65196E6F20EE02F06051A1
:1024F800D9266151DA22DFAE03D0656B652B02D095
:102508000001656B653B65476E516519DF0B651901
:102518006E6F20EE03F06051D9266151DA22DFA0F8
:1025280003D0656B652B02D00001656B653B654781
:1025380065476E516519BF0B65196E6F20EE03F084
:102548006051D9266151DA22DFA203D0656B652B71
:1025580002D00001656B653365336E5165197F0BD9
:1025680065196E6F20EE03F06051D9266151DA22A9
:10257800DFA603D0656B652B02D00001656B65474C
:102588006F516519FD0B65196F6F20EE03F06051EF
:10259800D9266151DA22DFA803D0656B652B02D0FA
:1025A8000001656B654765476F516519FB0B651938
:1025B8006F6F20EE03F06051D9266151DA22DFAA4D
:1025C80003D0656B652B02D00001656B65476547D5
:1025D80065476F516519F70B65196F6F20EE03F0AA
:1025E8006051D9266151DA22DFAC03D0656B652BC7
:1025F80002D00001656B653B6F516519EF0B6519DA
:102608006F6F20EE03F06051D9266151DA22DFAEF8
:1026180003D0656B652B02D00001656B653B654790
:102628006F516519DF0B65196F6F20EE04F060516B
:10263800D9266151DA22DFA003D0656B652B02D061
:102648000001656B653B654765476F516519BF0BB1
:1026580065196F6F20EE04F06051D9266151DA22B6
:10266800DFA203D0656B652B02D00001656B653373
:1026780065336F5165197F0B65196F6F20EE04F094
:102688006051D9266151DA22DFA403D0656B652B2E
:1026980002D00001656B70516519FE0B6519706FEA
:1026A80020EE04F06051D9266151DA22DFA603D06A
:1026B800656B652B02D00001656B65477051651924
:1026C800FD0B6519706F20EE04F06051D926615139
:1026D800DA22DFA803D0656B652B02D00001656B99
:1026E8006547654770516519FB0B6519706F20EEDA
:1026F8006CF000EE60F0040EDBCFEBFFE806FCE2C6
:102708001200FC0ED316D3508F0B6009D36ED288FB
:10271800F29EF28AF0889F9A9D8AF28CD58ED58C8B
:10272800D59AD596D550F80B0509D56ECD80BD50F4
:10273800F00B0B09BD6E1F0EBF6E400EBE6E9D8462
:10274800F28C939C19EC37F0ABEC36F0680E010173
:10275800F86FE40EE82EFED7F82FFCD700F0FD0E38
:1027680000018D6F7F0E8E6F36EC32F0D0B625D01B
:10277800000E8EEC2BF0EA0E00018D6F7F0E8E6F2F
:1027880036EC32F0000E8EEC36F060C08DF061C091
:102798008EF036EC32F0D20E00018D6F7C0E8E6F0B
:1027A80036EC32F0000E8EEC36F060C08DF061C071
:1027B8008EF036EC32F011EC37F09F0E00018D6F81
:1027C8007D0E8E6F36EC32F02A0E00018D6F7F0E73
:1027D8008E6F36EC32F0EF0E00018D6F7F0E8E6F2C
:1027E80036EC32F06C0E00018D6F7F0E8E6F36EC7A
:1027F80032F0250E00018D6F7D0E8E6F36EC32F0B3
:102808008FEC2CF07AC006F67BC007F67CC008F681
:10281800060107510811D8B408D006C660F007C6EB
:1028280061F008C662F056EC37F006EC33F06EC083
:1028380006F66FC007F670C008F6060107510811C2
:10284800D8A40FD05CEC36F060C08DF061C08EF07B
:1028580036EC32F01E0E00018D6F7F0E8E6F36EC57
:1028680032F0000E8EEC36F060C08DF061C08EF054
:1028780036EC32F0EB0E00018D6F7F0E8E6F36EC6A
:1028880032F029EC37F0000E00016E6F000EBFEC3D
:102898002DF0000E00016E6F000EBFEC2DF0150E2E
:1028A8000101F96F4B0EF86FBE0EE82EFED7F82F18
:1028B800FCD7F92FFAD700F0010E00016E6F000E59
:1028C800BFEC2DF0010E00016E6F000EBFEC2DF075
:1028D800000E0601006F000E016F000E026F000E61
:1028E800036F0F015C9B938AA90E0601116FFE0E00
:1028F800126F6C0E136F870E146FF28EF28C04EC4D
:1029080030F0050EE926000EEA22EF500101F86FBB
:10291800F85100017A6F7B6B09EC37F07AEC33F0F1
:1029280074C077F475C078F476C079F477C07AF417
:10293800000E06011E6F010E1D6FB1EC31F0000193
:102948006CC021F66DC022F60601236B246B150EB0
:1029580000018F6F060E906FC9EC26F0000E06017D
:102968000A6F010E096FC20E0C6F020E0B6F000E7C
:102978000E6F6C0E0D6F0400000E0101EC6F040E5B
:10298800ED6F10EC03F024EE22F000EE8FF00E0E47
:10299800DBCFEBFFE806FCE20BEC32F0040122513E
:1029A800D8B405D0CFC204F60601056B05D0030ED6
:1029B8000601056FE80E046F04C630F005C631F055
:1029C800326A336A4EA41CD004012205D8A418D058
:1029D8003451D8A415D00201CF2B26EE09F000EE11
:1029E800C1F0070EDBCFEBFFE806FCE211C6C9F029
:1029F80012C6CAF013C6CBF014C6CCF01BEC1DF0FF
:102A08000201E751D8B4B7D7000EE76F000ECF6FB9
:102A18004EB402D04E84AFD74E94ADD7010120EE0C
:102A28000EF0DD51D926DE51DA22DE5004E1080E1F
:102A3800DE18D8B407D0DDC172F0DEC173F045EC02
:102A480034F01200010120EE10F0DD51D926DE51DC
:102A5800DA2212EEAFF0080EDBCFE3FFE806FCE265
:102A680020EE10F0DD51D926DE51DA22DECFF1F06A
:102A7800DDCFF2F0160E0001F1250201AF6F000E56
:102A88000001F2210201B06FAF0E0001746F020E57
:102A9800756FE6EC19F022EE8FF0160EEBCFDBFF28
:102AA800E806FCE202019051040DF3CFB3F2F4CF33
:102AB800B4F2AF51B3250001F16F0201B051B42156
:102AC8000001F26F600EF25DD8A024D0FF0EF16F06
:102AD8005F0EF26FAFC2F3F0B0C2F4F0F31FF41F51
:102AE800F34BF42BF151F327F251F423F31FF41FA6
:102AF800F34BF42B0201B3510001F3270201B45147
:102B08000001F423FF0EF3250201B16FFF0E00014F
:102B1800F42111D00201AF51B3250001F16F020178
:102B2800B051B4210001F26FFF0EF1250201B16F1F
:102B3800FF0E0001F2210201B26F010EB125A66F4E
:102B4800000EB221A76F010120EE12F0DD51D92647
:102B5800DE51DA22DECFA8F2DDCFA9F20201A851B8
:102B6800A65DA951A759D8A017D0A6C2F1F0A7C24F
:102B7800F2F00001F11FF21FF14BF22B0201A851F4
:102B88000001F1270201A9510001F223FF0EF125EE
:102B980002018D6F5F0E10D0A6C2F1F0A7C2F2F04D
:102BA8000001F11FF21FF14BF22B0201A8510001A5
:102BB800F12502018D6FA9510001F22102018E6FEA
:102BC8008DC2AAF28EC2ABF28F0E00016F6F020E99
:102BD800706FDEEC32F00001D8B006D0DDC172F0C3
:102BE800DEC173F045EC34F0040E02018F19D8B43D
:102BF80006D0DDC172F0DEC173F045EC34F002019D
:102C08009A51D8A406D0DDC172F0DEC173F045EC4C
:102C180034F0020193519411D8A431D0DDC172F07F
:102C2800DEC173F045EC34F02AD022EE8FF001EECD
:102C3800AFF0160EDBCFEBFFE806FCE222EEA6F0C3
:102C480001EEC6F0080EDBCFEBFFE806FCE22CEC49
:102C580025F01ED022EE8FF000EECFF0160EDBCF5F
:102C6800EBFFE806FCE222EEA6F000EEE6F0080E26
:102C7800DBCFEBFFE806FCE2C1EC18F009D002015B
:102C88009B51010AD8B4D1D7070AD8B4E3D7170A99
:102C9800DDC172F0DEC173F045EC34F01200C70EEE
:102CA8000001606F000E616F37EC36F020EEC7F060
:102CB80010EED9F0050EDBCFE3FFE806FCE2000ECC
:102CC8000001D26F240ED16F20EEF3F000EE6FF00A
:102CD800080EDBCFEBFFE806FCE2AFEC30F020EEAD
:102CE800D3F0050EEBCFDBFFE806FCE2080E00018F
:102CF800E06F060EDF6FD10EA26F000EA36F4BECD4
:102D080028F00001E851D8A41200080EE125F36F5D
:102D1800000EE221F46FE3C0F5F0E4C0F6F0000E17
:102D2800F86F1C0EF76F20EEF3F000EE6FF0080E50
:102D3800DBCFEBFFE806FCE2A8518EEC2FF020EE8B
:102D4800F3F000EE6FF0080EDBCFEBFFE806FCE2D5
:102D58000001A7518EEC2FF020EEF3F000EE6FF09B
:102D6800080EDBCFEBFFE806FCE20001AA518EEC6F
:102D78002FF020EEF3F000EE6FF0080EDBCFEBFF44
:102D8800E806FCE20001A9518EEC2FF020EEF3F0EA
:102D980000EE6FF0080EDBCFEBFFE806FCE2000167
:102DA800AB518EEC2FF020EEF3F000EE6FF0080E32
:102DB800DBCFEBFFE806FCE20001AC518EEC2FF014
:102DC80020EEF3F000EE6FF0080EDBCFEBFFE80625
:102DD800FCE20001AE518EEC2FF020EEF3F000EE95
:102DE8006FF0080EDBCFEBFFE806FCE20001AD5107
:102DF8008EEC2FF0000E0001CD6F1AD020EEF3F00C
:102E080000EE6FF0080EDBCFEBFFE806FCE2CD51D9
:102E1800010D080EF326000EF422A70EF324D96E36
:102E2800000EF420DA6EDF508EEC2FF00001CD2B6F
:102E3800AB51CD5DD8A0E2D7000ECE6F1AD020EEF0
:102E4800F3F000EE6FF0080EDBCFEBFFE806FCE2D4
:102E5800CE51010D0E0EF326000EF422A70EF32418
:102E6800D96E000EF420DA6EDF508EEC2FF00001E0
:102E7800CE2BAC51CE5DD8A0E2D7000ECF6F1AD0C2
:102E880020EEF3F000EE6FF0080EDBCFEBFFE80664
:102E9800FCE2CF51010D120EF326000EF422A70E0C
:102EA800F324D96E000EF420DA6EDF508EEC2FF08A
:102EB8000001CF2BAB51CF5DD8A0E2D7000ED06F69
:102EC8001AD020EEF3F000EE6FF0080EDBCFEBFF28
:102ED800E806FCE2D051010D180EF326000EF4228C
:102EE800A70EF324D96E000EF420DA6EDF508EECB4
:102EF8002FF00001D02BAC51D05DD8A0E2D720EE46
:102F0800E1F000EE72F0080EDBCFEBFFE806FCE222
:102F1800FDEC35F01200030E01014E6F3851D8A4B4
:102F28000FD0000E416E000E426E010E506F970ECC
:102F38004F6F4EC134F14FC135F150C136F1120017
:102F480034C167F035C168F036C169F037C16AF03D
:102F5800410E00016B6F010E6C6FDAEC29F000096D
:102F6800D8B4F7D0030E416EF4D0420E0001606F62
:102F7800010E616F11EC36F000EC37F060C046F1DD
:102F880061C047F162C048F163C049F1B1EC31F06A
:102F98006CC06EF06DC06FF0030E0001716FE80E2B
:102FA800706FE1EC33F000016EC04AF16FC04BF175
:102FB80001014C6B4D6B010E416E55D046C139F184
:102FC80047C13AF148C13BF149C13CF10101391F00
:102FD8003A1F3B1F3C1F392B000E3A233B233C234F
:102FE80000EC37F0010139510001602501013D6F06
:102FF8003A510001612101013E6F3B5100016221FC
:1030080001013F6F3C51000163210101406F4A51AA
:103018003D5D4B513E594C513F594D514059D8A0F7
:1030280022D0020E416EE80E396F030E3A6FB1ECF2
:1030380031F06CC06EF06DC06FF0030E0001716F5F
:10304800E80E706FE1EC33F00101395100016E2791
:1030580001013A5100016F236EC04AF16FC04BF174
:1030680001014C6B4D6B010E506F910E70D04250A8
:10307800D8B433D046C139F147C13AF148C13BF120
:1030880049C13CF10101391F3A1F3B1F3C1F392B35
:10309800000E3A233B233C2300EC37F00101395161
:1030A8000001602501013D6F3A51000161210101D4
:1030B8003E6F3B510001622101013F6F3C5100010D
:1030C80063210101406F3D514A5D3E514B593F51CB
:1030D8004C5940514D59D8B049D000EC37F060C038
:1030E80046F161C047F162C048F163C049F1030E7F
:1030F800426012D042C100F143C101F144C102F162
:1031080045C103F134C104F135C105F136C106F1F9
:1031180037C107F1DFEC2CF0020E426409D0000E33
:10312800426E000E416E010E0101506F930E0FD0DA
:10313800010E0101506F910E4F6F422A17D0000EF9
:10314800426E000E416E010E0101506F960E4F6FD8
:103158000DD04150000AD8B408D7010AD8B42ED7E8
:10316800030AD8B484D7010AD8B4E9D74EC134F1D8
:103178004FC135F150C136F1120020EEE6F000EEF5
:1031880074F0080EDBCFEBFFE806FCE2C80E000186
:103198007D6F010E7E6F67EC00F0FB0E00018D6FF6
:1031A8007F0E8E6F36EC32F0C8C184F0C9C185F04D
:1031B8000001866B876B0A0E886F0DEC35F084C0B2
:1031C8008DF085C08EF036EC32F0D00E00018D6F98
:1031D8007F0E8E6F36EC32F0CAC184F0CBC185F019
:1031E8000001866B876B0A0E886F0DEC35F084C082
:1031F8008DF085C08EF036EC32F0850E00018D6FB3
:103208007F0E8E6F36EC32F0CCC184F0CDC185F0E4
:10321800CEC186F0CFC187F00A0E0001886F0DEC91
:1032280035F084C08DF085C08EF036EC32F0900E0B
:1032380000018D6F7F0E8E6F36EC32F00101D5A143
:1032480007D0BC0E00018D6F7F0E8E6F36EC32F00A
:103258000101D5A307D0B00E00018D6F7F0E8E6FD0
:1032680036EC32F00101D5A507D08C0E00018D6F28
:103278007F0E8E6F36EC32F00101D5A707D0920E83
:1032880000018D6F7F0E8E6F36EC32F00101D5A9EB
:1032980007D09E0E00018D6F7F0E8E6F36EC32F0D8
:1032A8000101D5AB07D0980E00018D6F7F0E8E6F90
:1032B80036EC32F00101D5AD07D0B60E00018D6FA6
:1032C8007F0E8E6F36EC32F00101D5AF07D0AA0E13
:1032D80000018D6F7F0E8E6F36EC32F00101D6A1A2
:1032E80007D0A40E00018D6F7F0E8E6F36EC32F082
:1032F800000E0101C76F0B0EC76501D01200C75140
:10330800110D080EF326000EF422000EF324D96ED8
:10331800050EF420DA6EDE50CA1951E1DE50CB19E1
:10332800D8A44DD0C751110D100EF326000EF4226B
:10333800000EF324D96E050EF420DA6EDF50D8A4FF
:103348003ED04E0E00018D6F7D0E8E6F36EC32F042
:1033580020EEDEF00101C751110D040EF326000E18
:10336800F422000EF324E16E050EF420E26EDECFA7
:10337800E6FFDECFE6FFDECFE6FFDECFE6FFC75192
:10338800110D0A0EF326000EF422000EF324D96E56
:10339800050EF420DA6EC8C1DEFFC9C1DDFFC751D2
:1033A800110D000EF3240001CB6F050EF420CC6F35
:1033B800C80ECD6F010ECE6F38EC2BF01200010154
:1033C800C72B99D774C0D9FF75C0DAFFDECF6FF06D
:1033D800DDCF70F0000E82EC31F074C0D9FF75C0FB
:1033E800DAFFDECF6FF0DDCF70F0010E82EC31F046
:1033F80000018E6F8E390F0B0F0B8F6F8E510F0BD5
:10340800906F74C0D9FF75C0DAFFDECF6FF0DDCFE3
:1034180070F0010E82EC31F000018E6F8E511F0B9F
:10342800916F8E45E846030B030B926F74C0D9FF6A
:1034380075C0DAFFDECF6FF0DDCF70F0010E82ECE1
:1034480031F00001946F936B74C0D9FF75C0DAFF37
:10345800DECF6FF0DDCF70F0010E82EC31F00001AD
:103468008B6F8B51931374C0D9FF75C0DAFFDECF11
:103478006FF0DDCF70F0010E82EC31F00001966F35
:10348800956B74C0D9FF75C0DAFFDECF6FF0DDCF62
:1034980070F0010E82EC31F000018B6F8B519513A7
:1034A80074C0D9FF75C0DAFFDECF6FF0DDCF70F0E2
:1034B800010E82EC31F000018E6F8E39E842070B65
:1034C800070B976F8E511F0B996F986B74C0D9FFBC
:1034D80075C0DAFFDECF6FF0DDCF70F0010E82EC41
:1034E80031F000018B6F8B51981374C0D9FF75C0F0
:1034F800DAFFDECF6FF0DDCF70F0010E82EC31F035
:1035080000019A6F74C0D9FF75C0DAFFDECF6FF083
:10351800DDCF70F0010E82EC31F000019B6F74C0BA
:10352800D9FF75C0DAFFDECF6FF0DDCF70F0010E86
:1035380082EC31F000019D6F9C6B74C0D9FF75C09F
:10354800DAFFDECF6FF0DDCF70F0010E82EC31F0E4
:1035580000018B6F8B519C13000E8C6F030E8C65D2
:1035680001D01DD074C0D9FF75C0DAFFDECF6FF06F
:10357800DDCF70F0010E82EC31F000018B6F8C51C1
:10358800010D0F0EF326000EF4228F0EF324D96ED0
:10359800000EF420DA6E8BC0DFFF8C2BDFD7000E15
:1035A8008D6F030E8D6501D01DD074C0D9FF75C015
:1035B800DAFFDECF6FF0DDCF70F0010E82EC31F074
:1035C80000018B6F8D51010D130EF326000EF422AE
:1035D8008F0EF324D96E000EF420DA6E8BC0DFFF55
:1035E8008D2BDFD774C0D9FF75C0DAFFDECF6FF03F
:1035F800DDCF70F0020E82EC31F020EE8FF000EE9D
:1036080074F0160EDBCFEBFFE806FCE21200050EA5
:1036180001016E6F000E6F6F000E706F000E756FF8
:10362800000E776F000E766F010E796FD0C080F1B3
:10363800D1C081F1D2C082F1D3C083F1E5EC36F07C
:1036480060C07CF161C07DF162C07EF163C07FF132
:10365800C5C071F1C6C072F101017869040E6D6FC1
:103668006D0E0001606F010E616F65EC10F021EEC8
:103678006DF000EE60F0160EDBCFEBFFE806FCE223
:10368800400E0001776F010E786F9DEC1FF0000E61
:103698000101656F000E666FDCC069F1DDC06AF17B
:1036A800DEC06BF1DFC06CF1DAC067F1DBC068F136
:1036B800000E0001606F010E616F21EE65F000EEF3
:1036C80062F0070EDBCFEBFFE806FCE28BEC2AF09A
:1036D800080E0001E0256F6F000EE121706F000EEB
:1036E80082EC31F0080E0101626F18D0080E00015B
:1036F800E0256F6F000EE121706F010E82EC31F052
:103708000001E96F01016251010D000EF324D96E29
:10371800010EF420DA6EE9C0DFFF622B040E00010F
:10372800E425E96F000EE521EA6F0101625100010D
:10373800EB6FEC6BE951EB5DEA51EC59D8A0D6D7A9
:10374800080EE0256F6F000EE121706F020E82EC0B
:1037580031F0000E0001606F010E616FE4C062F08D
:10376800E5C063F0DCEC22F060C060F161C061F19B
:1037780001016151026F60C103F16D0E0001A76F75
:10378800010EA86F41EC22F0000E0101646F000EDB
:10379800636F3BD06E51040DF350635DF450645970
:1037A800D8B013D021EE6DF000EE7EF0410EDBCFE5
:1037B800EBFFE806FCE2400E6325D96E010E64219A
:1037C800DA6EDF507EEC36F01DD021EE6DF000EEA3
:1037D8007EF0410EDBCFEBFFE806FCE201016E5103
:1037E800040DF31EF41EF34AF42A6351F3266451C0
:1037F800F422000EF324D96E010EF420DA6EDF50A5
:103808007EEC36F00101634B642B7151635D72519C
:103818006459D8A0BFD721EE6DF014EE35F0410EF3
:10382800DBCFE3FFE806FCE2010E0401346F12006F
:10383800030E0001FD6F010EFF6F910EFE6F010177
:103848003851D8A410D0000E406E000E3F6E010E05
:103858000001FF6F970EFE6FFDC034F1FEC035F119
:10386800FFC036F1120034C167F035C168F036C1C7
:1038780069F037C16AF0FC0E00016B6F000E6C6FC7
:10388800DAEC29F00009D8B4BED0030E3F6EBBD0E5
:10389800010E0001FF6F910EFE6F00EC37F060C063
:1038A80028F061C029F062C02AF063C02BF0010E35
:1038B8003F6EB6D0010E0001FF6F910EFE6F28C05B
:1038C80039F129C03AF12AC03BF12BC03CF1010182
:1038D800391F3A1F3B1F3C1F392B000E3A233B234D
:1038E8003C2300EC37F0010139510001602501014A
:1038F8003D6F3A510001612101013E6F3B510001CA
:10390800622101013F6F3C51000163210101406FB9
:1039180040513F1106E1D10E3D5D070E3E59D8A03A
:103928007FD0020E3F6E000E406E7AD0010E00016D
:10393800FF6F910EFE6F4050D8B432D028C039F1D5
:1039480029C03AF12AC03BF12BC03CF10101391FD3
:103958003A1F3B1F3C1F392B000E3A233B233C23C5
:1039680000EC37F0010139510001602501013D6F7C
:103978003A510001612101013E6F3B510001622172
:1039880001013F6F3C51000163210101406F40512B
:103998003F1106E1D10E3D5D070E3E59D8A01DD05E
:1039A80000EC37F060C028F061C029F062C02AF04E
:1039B80063C02BF034C100F135C101F136C102F109
:1039C80037C103F134C104F135C105F136C106F13F
:1039D80037C107F1DFEC2CF0402A010E406420D0FB
:1039E800000E406E000E3F6E000E0001FF6F000ECD
:1039F80008D0000E406E000E3F6E010E0001FF6FF2
:103A0800960EFE6F0DD03F50000AD8B441D7010A78
:103A1800D8B450D7030AD8B489D7010AD8B4E9D79B
:103A2800FDC034F1FEC035F1FFC036F11200050EBD
:103A38000101656F000E666F000E676F000E6C6FF8
:103A4800000E6E6F000E6D6F110E706FC9C077F1AA
:103A5800CAC078F1CBC079F1CCC07AF1E5EC36F088
:103A680060C073F161C074F162C075F163C076F132
:103A7800140E0001C5250101686F000E0001C62162
:103A88000101696F6F69040E646F640E0001606F55
:103A9800010E616F65EC10F021EE64F000EE60F04D
:103AA800160EDBCFEBFFE806FCE2400E0001776F55
:103AB800010E786F9DEC1FF0640E0001A76F010ED8
:103AC800A86F41EC22F0000E0001C86F000EC76F0E
:103AD800C2510101006FC1C001F10001C4510101CF
:103AE800026FC3C003F10001C6510101046FC5C0D4
:103AF80005F10001C8510101066FC7C007F13CC0BC
:103B080060F1616B3C2A000E636F000E626F63D038
:103B18006551040DF350625DF4506359D8B013D069
:103B280021EE64F000EE7EF0410EDBCFEBFFE806FD
:103B3800FCE2400E6225D96E010E6321DA6EDF5079
:103B48007EEC36F045D0010165510001CD6FCE6B9A
:103B5800D890CD37CE37D890CD37CE37080ECD2771
:103B6800000ECE23CD510101625D0001CE5101014D
:103B78006359D8B01DD021EE64F000EE7EF0410EFE
:103B8800DBCFEBFFE806FCE26551040DF31EF41EE3
:103B9800F34AF42A6251F3266351F422000EF32407
:103BA800D96E010EF420DA6EDF507EEC36F010D0BC
:103BB80021EE64F000EE7EF0410EDBCFEBFFE8066D
:103BC800FCE2010160517EEC36F00101604B612B93
:103BD8000101624B632B6851625D69516359D8A03A
:103BE80097D721EE64F014EE35F0410EDBCFE3FFFA
:103BF800E806FCE2010E0401346F120074C06FF095
:103C080075C070F0000E82EC31F074C06FF075C0B2
:103C180070F0010E82EC31F07DC0D9FF7EC0DAFF72
:103C2800DF6E74C06FF075C070F0010E82EC31F079
:103C380000017F6F20EE01F07D51D9267E51DA22F6
:103C48007FC0DFFF74C06FF075C070F0010E82ECAA
:103C580031F000017F6F7F51816F806B20EE02F0A1
:103C68007D51D9267E51DA2280C0DEFF81C0DDFF7A
:103C780074C06FF075C070F0010E82EC31F0000175
:103C88007F6F806B20EE02F07D51D9267E51DA22BB
:103C98007F51DE128051DD1274C06FF075C070F074
:103CA800010E82EC31F000017F6F7FC080F0816BE4
:103CB800826B836B80C083F0826B816B806B20EE9C
:103CC80004F07D51D9267E51DA2280C0DEFF81C002
:103CD800DEFF82C0DEFF83C0DEFF74C06FF075C0F8
:103CE80070F0010E82EC31F000017F6F7FC080F030
:103CF800816B826B836B81C083F080C082F0816BA3
:103D0800806B20EE04F07D51D9267E51DA22805155
:103D1800DE128151DE128251DE128351DE1274C02E
:103D28006FF075C070F0010E82EC31F000017F6F0A
:103D38007FC080F0816B826B836B82C083F081C00F
:103D480082F080C081F0806B20EE04F07D51D9268E
:103D58007E51DA228051DE128151DE128251DE124A
:103D68008351DE1274C06FF075C070F0010E82ECE2
:103D780031F000017F6F7FC080F0816B826B836BB5
:103D880020EE04F07D51D9267E51DA228051DE12D0
:103D98008151DE128251DE128351DE1274C06FF03F
:103DA80075C070F0020E82EC31F01200030E0001B3
:103DB800FD6F010EFF6F910EFE6F47C167F048C19E
:103DC80068F049C169F04AC16AF0FC0E6B6F000ED9
:103DD8006C6FDAEC29F00009D8B444D00001FC512A
:103DE80055EC35F021EE5CF0050EEBCFDBFFE80675
:103DF800FCE204EC30F021EE56F0050EEBCFDBFFD1
:103E0800E806FCE221EE5CF000EE6FF0050EDBCF79
:103E1800EBFFE806FCE221EE64F000EE75F0080E18
:103E2800DBCFEBFFE806FCE2D2EC2EF021EE64F0EB
:103E380000EE72F0080EDBCFEBFFE806FCE2FDECCB
:103E480035F0000E0001FF6F000EFE6F000E02013C
:103E5800BC6F000EBD6F000EBE6F000EBF6F000E70
:103E68003D6E60D0BCC276F1BDC277F1BEC278F1BA
:103E7800BFC279F10101761F771F781F791F762B52
:103E8800000E77237823792300EC37F0010176516F
:103E98000001602501017A6F77510001612101015C
:103EA8007B6F78510001622101017C6F795100011B
:103EB800632101017D6F7D517C110DE1D10E7A5D89
:103EC800070E7B59D8B007D00201BC51BD11BE11F5
:103ED800BF11D8A427D03D2A00EC37F060C0BCF24F
:103EE80061C0BDF262C0BEF263C0BFF243C100F15F
:103EF80044C101F145C102F146C103F147C104F1D2
:103F080048C105F149C106F14AC107F1DFEC2CF0BF
:103F1800020E3D6407D0000E3D6E010E0001FF6FDA
:103F2800940EFE6FFDC034F1FEC035F1FFC036F1CE
:103F3800120000016039F00B611177C0D9FF78C019
:103F4800DAFFDF6E20EE01F07751D9267851DA22B8
:103F580063C079F0030E79176245E846FC0B7911C6
:103F6800DF6E20EE02F07751D9267851DA226551BA
:103F7800DF6E20EE03F07751D9267851DA2264C03B
:103F8800DFFF20EE04F07751D9267851DA22675105
:103F9800DF6E20EE05F07751D9267851DA2266C017
:103FA800DFFF20EE06F07751D9267851DA2210EE9D
:103FB80069F0E6CF79F0E5CF7AF07AC079F07A6BDC
:103FC8001F0E79176839E846E00B7911DF6E20EE8D
:103FD80007F07751D9267851DA2269C0DFFF20EE41
:103FE80008F07751D9267851DA226BC0DFFF20EE2E
:103FF80009F07751D9267851DA226CC0DFFF20EE1C
:104008000AF07751D9267851DA226E51DF6E20EE08
:104018000BF07751D9267851DA226DC0DFFF20EEF8
:104028000CF07751D9267851DA226FC0DFFF20EEE5
:104038000DF07751D9267851DA2270C0DFFF20EED3
:104048000EF07751D9267851DA2271C0DFFF20EEC1
:104058000FF07751D9267851DA2272C0DFFF20EEAF
:1040680010F07751D9267851DA2273C0DFFF20EE9D
:1040780011F07751D9267851DA2274C0DFFF20EE8B
:1040880012F07751D9267851DA2275C0DFFF20EE79
:1040980013F07751D9267851DA2276C0DFFF120063
:1040A80054EC33F06EC080F06FC081F0000181AD38
:1040B80003D07A6B7A2B02D000017A6B7E517A1981
:1040C800FE0B7A197E6F81AB03D07A6B7A2B02D004
:1040D80000017A6B7A477E517A19FD0B7A197E6F47
:1040E80081A903D07A6B7A2B02D000017A6B7A47C8
:1040F8007A477E517A19FB0B7A197E6F81A703D014
:104108007A6B7A2B02D000017A6B7A477A477A4722
:104118007E517A19F70B7A197E6F80AD03D07A6BCE
:104128007A2B02D000017A6B7A3B7E517A19EF0B19
:104138007A197E6F80AB03D07A6B7A2B02D000019C
:104148007A6B7A3B7A477E517A19DF0B7A197E6F40
:104158009EA803D07A6B7A2B02D000017A6B010EED
:104168007B6F000E7C6F7A2B03D0D8907B377C371F
:104178007A2FFBD7000180517B1781517C177B5127
:104188007C11D8B403D07D6B7D2B02D000017D6BF0
:104198007D3B7D477D477E517D19BF0B7D197E6F25
:1041A80080A503D07A6B7A2B02D000017A6B7A3320
:1041B8007A337E517A197F0B7A197E6F80A303D0E8
:1041C8007A6B7A2B02D000017A6B7F517A19FE0B39
:1041D8007A197F6F80A103D07A6B7A2B02D0000105
:1041E8007A6B7A477F517A19FD0B7A197F6F7EC0F7
:1041F80078F07FC079F01200040E0001656F000EA0
:10420800676F000E666F36C0D9FF37C0DAFF030E3E
:10421800DE18D8A48BD04EB063D088D036C0D9FF72
:1042280037C0DAFFDECF65F0DECF66F0DDCF67F0AE
:10423800D8C2E0F2D9C2E1F2DAC2E2F2DBC2E3F2BA
:104248004E9065C060F066C061F067C062F0120011
:1042580036C0D9FF37C0DAFFDECF65F0DECF66F0B3
:10426800DDCF67F065C060F066C061F067C062F0DE
:104278001200010E676FF50E666F4E9065C060F014
:1042880066C061F067C062F0120065C060F066C089
:1042980061F067C062F0120036C0D9FF37C0DAFF9C
:1042A800DECF65F0DECF66F0DDCF67F04E9065C0FB
:1042B80060F066C061F067C062F012004E9036C0D0
:1042C800D9FF37C0DAFFDECF65F0DECF66F0DDCF8D
:1042D80067F065C060F066C061F067C062F0120008
:1042E80020EE01F03650D9263750DA22DECF63F0BF
:1042F800DDCF64F06451000AD8B404D0010AD8B400
:1043080006D0DCD76351000AD8B488D7D7D7635111
:10431800910AD8B49DD7020AD8B4B7D7050AD8B439
:10432800A8D7010AD8B4B8D7640AC8D7020E676FED
:10433800570E666F65C060F066C061F067C062F0D6
:104348001200000179697A697B697C69000E7D6FCA
:10435800000E7E6F070E7E6501D057D07E510E0D80
:104368000A0EF326000EF4227C0EF324D96E040EF6
:10437800F420DA6EDE50795DDE507A59DE507B59D2
:10438800DE507C59D8A016D07E510E0D0A0EF326A9
:10439800000EF4227C0EF324D96E040EF420DA6E9B
:1043A800DECF79F0DECF7AF0DECF7BF0DECF7CF0A7
:1043B8007EC07DF07E510E0D040EF326000EF42211
:1043C8007C0EF324606F040EF420616F670E626F39
:1043D800000E636F03EC34F00001D8A014D07E51B6
:1043E8000E0D7C0EF324606F040EF420616F6D0EC9
:1043F800626F000E636F24EC34F00001D8A003D084
:104408007EC07DF002D07E2BA5D77D510E0D7C0E8F
:10441800F324D96E040EF420DA6E6DC0DEFF6EC090
:10442800DEFF6FC0DEFF70C0DEFF20EE67F07D515B
:104438000E0D040EF326000EF4227C0EF324E16E1A
:10444800040EF420E26E050EDBCFE3FFE806FCE283
:104458007D510E0D0A0EF326000EF4227C0EF32475
:10446800D96E040EF420DA6E71C0DEFF72C0DEFF72
:1044780073C0DEFF74C0DEFF1200000120EE04F0FE
:10448800A751D926A851DA22DECFA9F0DDCFAAF0AC
:10449800080EA927000EAA2320EE20F0A751D9263E
:1044A800A851DA22A9C0DEFFAAC0DDFF20EE2EF057
:1044B800A751D926A851DA22000EDE6E080EDD6E4D
:1044C800200EA725A26F000EA821A36F4BEC28F0A1
:1044D800000120EE36F0A751D926A851DA2210EEB5
:1044E8001DF0A751E126A851E222DFCFE7FF20EE19
:1044F80037F0A751D926A851DA2210EE1EF0A7519D
:10450800E126A851E222DFCFE7FF20EE38F0A751DD
:10451800D926A851DA2210EE1FF0A751E126A8519A
:10452800E222DFCFE7FF20EE30F0A751D926A851CD
:10453800DA22DECFA9F0DDCFAAF0080EA927000EF7
:10454800AA2320EE17F0A751D926A851DA22A9C02C
:10455800DEFFAAC0DDFF20EE32F0A751D926A85110
:10456800DA2210EE19F0A751E126A851E222DECF97
:10457800E6FFDDCFE5FFF80EA96FFF0EAA6F20EE6C
:1045880034F0A751D926A851DA22DECFABF0DDCF1F
:10459800ACF0A951AB27AA51AC2320EE1BF0A751D0
:1045A800D926A851DA22ABC0DEFFACC0DDFF12006D
:1045B800040E00016227000E6323000E6D6F000ECB
:1045C8006E6F000E6F6F000E706F000E6C6F000E36
:1045D8006B6F29D0000E6A6F000E696F60C0D9FF3B
:1045E80061C0DAFFDF506A6F696B604B612B60C096
:1045F800D9FF61C0DAFFDF50646F64516913604B03
:10460800612B6B056C11D8A404D0000E6A6F000EE4
:10461800696F69516D276A516E23000E6F23000E72
:1046280070236B4B6C2BD8906331656F6231646F6C
:1046380064516B5D65516C59D8A0CCD7000E6D15CF
:10464800646F000E6E15656FFF0E6F15666FFF0EB7
:104658007015676F110E05D0D890673366336533D0
:104668006433E82EF9D76451686FFF0E6D17FF0E9B
:104678006E17000E6F17000E701768516D27000E29
:104688006E236F237023705103E16F05D8A025D0E6
:10469800000E6D15646F000E6E15656FFF0E6F15B9
:1046A800666FFF0E7015676F110E05D0D8906733CF
:1046B800663365336433E82EF9D764516D27655145
:1046C8006E2366516F2367517023FF0E6D17FF0E1F
:1046D8006E17000E6F17000E70176D1D606F6E1D40
:1046E800616F1200000E00018A6F000E896F000EC4
:1046F8008B6F030E8B6501D07CD0DC0E7C6F020EB5
:104708007D6F8B51010D840EF324D96E000EF420B9
:10471800DA6EDF50886F88517E6F7F6B000E816F75
:104728000A0E806F9DEC33F000018B51010D840E51
:10473800F324D96E000EF420DA6E630EDF6414D011
:104748008951010DDC0EF324D96E020EF420DA6EC5
:104758008A51010D990EF324E16E030EF420E26EE6
:10476800DFCFE7FF892B8A2B8B51010D840EF324B1
:10477800D96E000EF420DA6E090EDF6414D0895168
:10478800010DDC0EF324D96E020EF420DA6E8A5184
:10479800010D990EF324E16E030EF420E26EDFCFD3
:1047A800E7FF892B8A2B8951010DDC0EF324D96E82
:1047B800020EF420DA6E8A51010D990EF324E16E8F
:1047C800030EF420E26EDFCFE7FF892B8A2B000E61
:1047D800896F030E8B610BD08A51010D990EF3245A
:1047E800D96E030EF420DA6E2E0EDF6E8A2B8B2B19
:1047F80080D78A51010D990EF324D96E030EF42047
:10480800DA6E000EDF6E990E846F030E856F12004C
:104818000001766F000176511F0B776F010E786FDC
:10482800000E796F000E7A6F000E7B6F000E7C6FA2
:10483800770E6A6F000E6B6F540EF2EC34F0780E40
:1048480000016A6F000E6B6F550EF2EC34F07F0EAC
:1048580000016A6F000E6B6F520ED7EC34F0000146
:104868007F817F0E6A6F000E6B6F520EF2EC34F090
:10487800450EE82EFED700F07F0E00016A6F000E8D
:104888006B6F6A0ED7EC34F0010E00017927000E29
:104898007A237B237C237FA108D07C517B1105E1FF
:1048A80079290F0E7A59D8A0E7D77C517B1140E1BE
:1048B80079290F0E7A59D8B012007F0E6A6F000E50
:1048C8006B6F520ED7EC34F000017F917F0E6A6F48
:1048D800000E6B6F520EF2EC34F07D0E00016A6F21
:1048E800000E6B6F680ED7EC34F07E0E00016A6F15
:1048F800000E6B6F690ED7EC34F0000E0001706F7C
:10490800FF0E716F7E51736F726B70517217715118
:1049180073177D51746F756B7251741373517513DE
:104928006EC0D9FF6FC0DAFF74C0DEFF75C0DDFF4F
:10493800120000017B51721904E17C517319D8B43B
:1049480029D07D51741904E17E517519D8B422D04B
:1049580072517D1904E173517E19D8B41BD07B5173
:10496800741904E17C517519D8B414D07405300E4B
:104978007559D8B00FD07205300E7359D8B00AD017
:104988007D05300E7E59D8B005D07B05300E7C5998
:10499800D8A002D0D88012007451725D7551735935
:1049A800D8B03BD07D517B5D7E517C59D8B02BD09F
:1049B8007B51725D7C517359D8B00AD074517B5DBC
:1049C80075517C59D8B002D0D8801200D890120006
:1049D80020EE7BF000EE60F0080EDBCFEBFFE80680
:1049E800FCE220EE72F000EE69F0080EDBCFEBFF80
:1049F800E806FCE281EC29F00001D8B002D0D8909A
:104A08001200D880120072517D5D73517E59D8B062
:104A180002D0D8901200D880120020EE7BF000EE71
:104A280060F0080EDBCFEBFFE806FCE220EE72F048
:104A380000EE69F0080EDBCFEBFFE806FCE281EC44
:104A480029F00001D8B002D0D8901200D880120006
:104A5800050E0201806F816982690101CB5104E171
:104A6800810ECA5DD8A008D0590E0001ED6F020E64
:104A7800EE6FEDC080F2120021EEC6F000EE74F089
:104A8800080EDBCFEBFFE806FCE2850E00017D6F28
:104A9800020E7E6F02EC1EF0C6C16FF0C7C170F047
:104AA800000E82EC31F0000E0201846F000E836F5D
:104AB80014D0C6C16FF0C7C170F0010E82EC31F09E
:104AC8000001ED6F000E02018325D96E020E8421CC
:104AD800DA6EEDC0DFFF834B842B040E0101CA257B
:104AE8000001ED6F000E0101CB210001EE6FED51C9
:104AF8000201835D0001EE5102018459D8A0D9D783
:104B0800C6C16FF0C7C170F0020E82EC31F0000E22
:104B18000001606F020E616FCAC162F0CBC163F021
:104B2800DCEC22F0080E02018519D8A4120021EE4F
:104B3800AFF000EEC1F0160EDBCFEBFFE806FCE2AB
:104B480022EE85F000EED8F0070EDBCFEBFFE8068B
:104B5800FCE221EEC6F000EEE0F0080EDBCFEBFF42
:104B6800E806FCE20BEC1BF012000101566F010E87
:104B7800496E910E486E030E476E74D0F7EC36F00E
:104B880060C0C0F261C0C1F262C0C2F263C0C3F2C9
:104B9800470E0001606F000E616FDBEC36F000011C
:104BA800D8A031D0C0C234F1C1C235F1C2C236F189
:104BB800C3C237F156C138F18FEC17F0340ED96EF5
:104BC800010EDA6E010ED926000EDA22DECF5BF175
:104BD800DDCF5CF103D0010E3E6E15D021EE5BF007
:104BE800DECF54F1DDCF55F101015551010AD8A4AA
:104BF8000AD05451910AD8B406D0020AD8B4EBD7D7
:104C0800050AD8A4010A5BC148F05CC149F031D05B
:104C1800C0C234F1C1C235F1C2C236F1C3C237F1E4
:104C280056C138F11CEC1CF034C157F135C158F1AC
:104C380036C159F158C148F059C149F0960E481883
:104C480005E14904D8A402D0000E3E6E030E01010E
:104C58005719D8A40ED058515911D8A40AD0000E0B
:104C68003E6E07D03E50000AD8B488D7010AD8B49F
:104C7800CFD747C051F148C052F149C053F1120093
:104C8800000E0001726F4CC073F04DC074F0CDC2BD
:104C980075F0CEC276F0010E776F000E796F000EB8
:104CA800786F050E72615FD0730E6A6F000E6B6FBE
:104CB800160EF2EC34F0740E00016A6F000E6B6F82
:104CC800170EF2EC34F0750E00016A6F000E6B6F70
:104CD800160ED7EC34F0760E00016A6F000E6B6F7B
:104CE800170ED7EC34F0000173517519D8A438D0D9
:104CF80074517619D8A434D0CA0EC5EC36F0420ED9
:104D0800E82EFED700D0750E00016A6F000E6B6F9B
:104D1800160ED7EC34F0760E00016A6F000E6B6F3A
:104D2800170ED7EC34F000017551D8A40DD0765188
:104D3800D8A40AD0030E0001716FA70EE82EFED783
:104D4800712FFCD700D005D0010E0001796F2E0E0F
:104D5800786F77C06EF078C06FF079C070F012008D
:104D68000001722B0BD0010E796F2E0E786F77C071
:104D78006EF078C06FF079C070F0120077C06EF0F6
:104D880078C06FF079C070F01200000120EE10F0CA
:104D98008F51D9269051DA22000EDF6EB1EC31F036
:104DA8006CC06EF06DC06FF0B1EC31F06CC070F09B
:104DB8006DC071F0E9EC35F000016EC091F06FC084
:104DC80092F0000E92BFFF0E936F946F20EE0CF0DE
:104DD8008F51D9269051DA2291C0DEFF92C0DEFFB2
:104DE80093C0DEFF94C0DEFF8FC0D9FF90C0DAFF0A
:104DF80015EE00F0100EDBCFE3FFE806FCE2850EAF
:104E08008D6F7D0E8E6F36EC32F0000120EE08F0CB
:104E18008F51D9269051DA22DECF91F0DDCF92F072
:104E280091C084F092C085F0866B876B0A0E886FFC
:104E38000DEC35F084C08DF085C08EF036EC32F084
:104E4800750E00018D6F7F0E8E6F36EC32F000010B
:104E580020EE0CF08F51D9269051DA22DECF84F063
:104E6800DECF85F0DECF86F0DECF87F00A0E886FC2
:104E78000DEC35F084C08DF085C08EF036EC32F044
:104E8800DA0E00018D6F7F0E8E6F36EC32F0120055
:104E9800010106050711D8A41200E5EC36F060C040
:104EA80034F161C035F162C036F163C037F1180ED4
:104EB8000001606F010E616F340E626F010E636F47
:104EC80024EC34F00001D8A0120004EC30F021EEFC
:104ED80020F0050EEBCFDBFFE806FCE221EE08F040
:104EE80011EE26F0050EDBCFE3FFE806FCE2E5EC69
:104EF80036F060C02CF161C02DF162C02EF163C0A4
:104F08002FF10EC130F10FC131F110C132F111C1D1
:104F180033F1060E01013C6F040E3D6F000E396F30
:104F2800010E386F080E3B6F000E3A6F000E3F6F90
:104F3800020E3E6F2CC146F12DC147F12EC148F13A
:104F48002FC149F121EE20F011EE40F0050EDBCF24
:104F5800E3FFE806FCE230C150F131C151F132C142
:104F680052F133C153F121EE26F011EE4AF0050E4D
:104F7800DBCFE3FFE806FCE221EE38F000EEA7F015
:104F88001F0EDBCFEBFFE806FCE253EC16F0120035
:104F98006FC075F070C076F071C077F072C078F0AD
:104FA80075C060F076C061F077C062F078C063F0D9
:104FB80073C064F074C065F00001000E65BFFF0E99
:104FC800666F676F90EC2EF060C075F061C076F088
:104FD80062C077F063C078F000016D4B6E2B75519D
:104FE800761177117811D8A4DBD76DC0D9FF6EC0C0
:104FF800DAFF000EDF6E6D07D8A06E076FC060F095
:1050080070C061F071C062F072C063F073C064F088
:1050180074C065F0000E65BFFF0E666F676F1CEC0D
:1050280031F000016051796F6FC060F070C061F0BD
:1050380071C062F072C063F073C064F074C065F050
:10504800000E65BFFF0E666F676F90EC2EF060C0B4
:105058006FF061C070F062C071F063C072F0090E49
:105068000001796502D0070E7927300E79276DC0C7
:10507800D9FF6EC0DAFF79C0DFFF6D07D8A06E07D1
:105088006F51701171117211D8B41200B7D7020E96
:105098000001A46F000EA66F000EA56FA2C0D9FF75
:1050A800A3C0DAFFDECF84F0DDCF85F085EC05F014
:1050B800000120EE10F0A251D926A351DA22080EE1
:1050C800EBCFDBFFE806FCE220EE17F0A251D92671
:1050D800A351DA22DF50D8B407D0000EA46F000E17
:1050E800A66F650EA56F120020EE16F0A251D92604
:1050F800A351DA22DF50D8A407D0000EA46F000E07
:10510800A66FC70EA56F120020EE08F0A251D9268F
:10511800A351DA2200EE6FF0050EDBCFEBFFE806B5
:10512800FCE220EE10F0A251D926A351DA2200EEBB
:1051380075F0080EDBCFEBFFE806FCE2D2EC2EF0B0
:10514800000120EE0EF0A251D926A351DA22DECFBB
:105158006FF0DDCF70F020EE10F0A251D926A351E8
:10516800DA2200EE71F0080EDBCFEBFFE806FCE276
:105178002DEC33F01200000120EE0EF0FC51D92680
:10518800FD51DA22060EDE1804E1080EDE18D8B446
:1051980007D0FCC072F0FDC073F045EC34F012008B
:1051A800FCC074F0FDC075F083EC0CF021EE58F0F3
:1051B8001F0EEBCFDBFFE806FCE201017651771109
:1051C800D8B407D0FCC072F0FDC073F045EC34F0E1
:1051D800120021EE58F001EE00F01F0EDBCFEBFFBE
:1051E800E806FCE24CEC27F0660E0001606F010E49
:1051F800616F3DEC35F00001D8B01DD021EE60F0B4
:1052080000EE67F0050EDBCFEBFFE806FCE266C1B7
:105218006DF067C16EF068C16FF069C170F000ECA5
:1052280037F060C071F061C072F062C073F063C0A3
:1052380074F0A5EC21F045EC34F0120043C011F0F5
:10524800010E126E112A02D0D8901236112EFCD7F8
:105258001250FF0A8216000E806E020E436007D0BD
:10526800010E4324136E146A000E142204D0000E9B
:10527800146E000E136E13C043F0E80E0F5C030E9D
:105288001058D8B01200000E156E020E156401D029
:1052980013D01550010DC80EF324D96E020EF42058
:1052A800DA6E0FC008F010C009F015C00AF012EC51
:1052B8002FF0DF6E152AE9D743C011F0010E126EE8
:1052C800112A02D0D8901236112EFCD71250821211
:1052D8004350010DC80EF324D96E020EF420DA6E85
:1052E800DF50116E1150010DE90EF324D96E030E33
:1052F800F420DA6EDF50806E1200000169516019E7
:1053080004E16A516119D8B429D06B51621904E1DA
:105318006C516319D8B422D060516B1904E1615102
:105328006C19D8B41BD06951621904E16A51631928
:10533800D8B414D06205300E6359D8B00FD06005C8
:10534800300E6159D8B00AD06B05300E6C59D8B000
:1053580005D06905300E6A59D8A002D0D88012004D
:105368006251605D63516159D8B01ED06B51695D5F
:105378006C516A59D8B010D06951605D6A51615951
:10538800D8B012D06251695D63516A59D8B002D061
:10539800D8801200D890120060516B5D61516C5931
:1053A800D8A0F8D7D8801200D8801200000E0001CB
:1053B800756F070E756501D050D075510E0D7C0EB6
:1053C800F324606F040EF420616F670E626F000EA5
:1053D800636F24EC34F00001D8A03DD075510E0D58
:1053E8000A0EF326000EF4227C0EF324D96E040E66
:1053F800F420DA6EDECF6DF0DECF6EF0DECF6FF028
:10540800DECF70F06D1F6E1F6F1F701F6D2B000EAB
:105418006E236F23702300EC37F000016D51602577
:10542800716F6E516121726F6F516221736F70518C
:105438006321746F745173110EE1300E715D750E36
:105448007259D8B008D06BC0D9FF6CC0DAFF75C0EC
:10545800DFFF010E1200752BACD7000E1200D80E1C
:10546800F66E6A0EF76E000EF86E03EECBF010EED5
:105478002AF00900F5CFEEFFE550E150FAE1A80E59
:10548800F66E6E0EF76E000EF86E02EEE8F010EE95
:1054980004F00900F5CFEEFFE550E150FAE1A40E63
:1054A800F66E6E0EF76E000EF86E00EE4AF010EE15
:1054B80004F00900F5CFEEFFE550E150FAE105EE02
:1054C80000F0FE0EEE6AE806FDE104EE00F0EC0ED8
:1054D800EE6AE806FDE103EE00F0CB0EEE6AE806A0
:1054E800FDE102EEB8F0300EEE6AE806FDE10101DA
:1054F800FA6B4E6A00EE28F0220EEE6AE806FDE12D
:105508004F904F92000EF86E000185EF13F060C0C7
:10551800D9FF61C0DAFF62C0DFFF000120EE01F0B1
:105528006051D9266151DA2263C0DFFF20EE02F014
:105538006051D9266151DA226551DF6E20EE03F001
:105548006051D9266151DA2264C0DFFF20EE04F0F1
:105558006051D9266151DA2210EE66F0000EE61489
:105568006A6F000EE6146B6F000EE6146C6FFF0E88
:10557800E6146D6F190E05D0D8906D336C336B330C
:105588006A33E82EF9D76A51DF6E20EE05F06051D4
:10559800D9266151DA2268C0DFFF20EE06F060519B
:1055A800D9266151DA2267C0DFFF20EE07F060518B
:1055B800D9266151DA2266C0DFFF1200000E000111
:1055C8008C6F000E8B6F050E8B6501D03ED0E40EFC
:1055D8007C6F020E7D6F8B51010D840EF324D96E02
:1055E800000EF420DA6EDF508A6F8A517E6F7F6B6F
:1055F800000E816F100E806F9DEC33F000018C510E
:10560800010DAD0EF324D96E030EF420DA6EE4C258
:10561800DFFF8C2B8C51010DAD0EF324D96E030ED8
:10562800F420DA6EE5C2DFFF8C2B050E8B610BD000
:105638008C51010DAD0EF324D96E030EF420DA6EF1
:105648003A0EDF6E8C2B8B2BBED78C51010DAD0E15
:10565800F324D96E030EF420DA6E000EDF6EAD0E61
:10566800846F030E856F12002DD0000120EE0DF01F
:10567800CD51D926CE51DA22DFAE120020EE10F03D
:10568800CB51D926CC51DA22020EDF6E900E8D6FE7
:105698007E0E8E6F36EC32F0CBC0C1F0CCC0C2F0BB
:1056A800000120EE04F0CD51D926CE51DA22DECF0A
:1056B800C3F0DECFC4F0DECFC5F0DECFC6F080EC9D
:1056C8000EF01200000120EE10F0CB51D926CC517B
:1056D800DA22DF50000AD8B4C8D7010AD8B41200B9
:1056E800030AD8B41200010AD8B41200070AD8B4C1
:1056F8001200010AD8B41200030AD8B41200010A31
:10570800D8B412000F0AD8B41200010AD8B4120093
:10571800030A120000018F6F38D0E20E00018D6F6E
:105728007E0E8E6F36EC32F01200060E00018D6F81
:105738007F0E8E6F36EC32F01200EE0E00018D6F88
:105748007E0E8E6F36EC32F01200FA0E00018D6F6D
:105758007E0E8E6F36EC32F01200120E00018D6F45
:105768007F0E8E6F36EC32F01200BB0E00018D6F8B
:105778007E0E8E6F36EC32F01200420E00018D6FF5
:105788007F0E8E6F36EC32F0120000018F51000A46
:10579800D8B4C3D7010AD8B4C8D7030AD8B4CDD768
:1057A800010AD8B4E2D7070AD8B4CFD7010AD8B4C7
:1057B800D4D7030AD8B41200010AD8A41200DDD73E
:1057C8001F0E076E000E086E000E096E000E0A6EA0
:1057D800FF0E036E030E046E000E056E000E066EBD
:1057E80081BA07D0010E2C26000E2D222E222F2240
:1057F80008D0000E2C6E000E2D6E000E2E6E000EC0
:105808002F6E07502C5C08502D5809502E580A50FE
:105818002F58D8A002D0010E01D0000E446E44507B
:10582800D8B411D04550D8A40ED007C02CF008C069
:105838002DF009C02EF00AC02FF001C0D9FF02C018
:10584800DAFF010E05D001C0D9FF02C0DAFF000E51
:10585800DF6E2C50035C2D5004582E5005582F50E5
:105868000658D8A0FF0044C045F0120075C079F072
:1058780076C07AF079C060F07AC061F077C062F0E3
:1058880078C063F061EC32F060C079F061C07AF002
:105898000001734B742B79517A11D8A4EBD773C0DC
:1058A800D9FF74C0DAFF000EDF6E7307D8A0740743
:1058B80075C06EF076C06FF077C070F078C071F088
:1058C800E1EC33F000016E517B6F75C060F076C07B
:1058D80061F077C062F078C063F061EC32F060C0CC
:1058E80075F061C076F0090E00017B6502D0070EE5
:1058F8007B27300E7B2773C0D9FF74C0DAFF7BC0CB
:10590800DFFF7307D8A0740775517611D8A4D0D7D4
:10591800734B742B12009DEC36F044EC26F06EC0ED
:105928007DF06FC07EF070C07FF000017E517F1166
:10593800D8B407D07DC07AF07EC07BF07FC07CF001
:10594800120006EC33F06EC07DF06FC07EF070C0C0
:105958007FF000017E517F11D8B407D07DC07AF066
:105968007EC07BF07FC07CF01200300E6F6F000E9F
:105978006E6F96EC35F0300E0001616F000E606FAF
:1059880049EC37F05F0E00016F6FFE0E6E6F81EC11
:1059980035F04EEC37F0D5EC35F0010E00017D6F97
:1059A800000E7F6F000E7E6F7DC07AF07EC07BF0A8
:1059B8007FC07CF0120004EC30F021EE08F0050EF8
:1059C800EBCFDBFFE806FCE20E0E0001606F010E74
:1059D800616F24EC36F0060E0101186F040E196F82
:1059E800000E156F010E146F080E176F000E166F5C
:1059F800000E1B6F010E1A6F00C122F101C123F1C5
:105A080002C124F103C125F121EE08F011EE1CF0CA
:105A1800050EDBCFE3FFE806FCE204C12CF105C16B
:105A28002DF106C12EF107C12FF121EE0EF011EE76
:105A380026F0050EDBCFE3FFE806FCE221EE14F0CA
:105A480000EEA7F01F0EDBCFEBFFE806FCE253ECFD
:105A580016F01200690E0001606F000E616F11EC04
:105A680036F0630E0001606F000E616F24EC36F0B3
:105A7800000E00016D6F070E6D6501D012006D51AB
:105A88000E0D7C0EF324D96E040EF420DA6E69C074
:105A9800DEFF6AC0DEFF6BC0DEFF6CC0DEFF20EEFB
:105AA80063F06D510E0D040EF326000EF4227C0EE9
:105AB800F324E16E040EF420E26E050EDBCFE3FF63
:105AC800E806FCE26D510E0D0A0EF326000EF422D4
:105AD8007C0EF324D96E040EF420DA6EDE6ADE6AD8
