:0400000074EF00F0A9
:100008005082FACF17F0FBCF18F0E9CF19F0EACFFA
:100018001AF0E1CF1BF0E2CF1CF0D9CF1DF0DACFF8
:100028001EF0F3CF1FF0F4CF20F0F6CF21F0F7CF7A
:1000380022F0F8CF23F0F5CF24F050C025F051C0BE
:1000480026F052C027F053C028F09EA412D09E94E8
:1000580081AC02D0010E01D0000EFF0A166E163ACE
:100068001646164681501618BF0B1618816E68EC96
:1000780026F0F2A40DD0F29431C00FF032C010F087
:10008800FBEC1AF0F00E016E010E026E65EC1CF02E
:10009800F0B2F09228C053F027C052F026C051F0B9
:1000A80025C050F024C0F5FF23C0F8FF22C0F7FF99
:1000B80021C0F6FF20C0F4FF1FC0F3FF1EC0DAFF07
:1000C8001DC0D9FF1CC0E2FF1BC0E1FF1AC0EAFF38
:1000D80019C0E9FF18C0FBFF17C0FAFF50921100C2
:1000E8001FEF1EF0020E0101836F000E856F000ED8
:1000F800846F39EC26F0010120EE1EF07851D926E4
:100108007951DA22000160C0DEFF61C0DEFF62C003
:10011800DEFF63C0DEFF5AEC26F0010120EE10F08E
:100128007851D9267951DA22000162C0DEFF63C016
:10013800DDFFDEEC1EF0010120EE16F07851D92625
:100148007951DA22010EDF6E20EE10F07851D926AF
:100158007951DA22DECF71F0DDCF72F057EC1FF063
:10016800010120EE19F07851D9267951DA22040ECE
:10017800EBCFDBFFE806FCE220EE19F07851D92638
:100188007951DA2210EE14F07851E1267951E22201
:10019800DECFE6FFDDCFE5FF20EE14F07851D9265B
:1001A8007951DA22DECF7BF1DDCF7CF120EE10F041
:1001B8007851D9267951DA22DECF7DF1DDCF7EF173
:1001C8007B517D277C517E23600E7E5DD8A03BD07D
:1001D800000E7B6F300E7C6F20EE14F07851D9261C
:1001E8007951DA22DECF7DF1DDCF7EF1FF0E7F6F10
:1001F8002F0E806F20EE10F07851D9267951DA222F
:10020800DECF81F1DDCF82F1811F821F814B822BEE
:100218007F51812780518223811F821F814B822B2E
:100228007D5181277E5182237B5181277C518223F6
:1002380020EE12F07851D9267951DA2281C1DEFFF9
:1002480082C1DDFF22D020EE14F07851D9267951F1
:10025800DA22DECF7BF1DDCF7CF120EE10F0785191
:10026800D9267951DA22DECF7DF1DDCF7EF17B51BF
:100278007D277C517E2320EE12F07851D9267951C2
:10028800DA227DC1DEFF7EC1DDFF20EE10F078515D
:10029800D9267951DA2200EE6FF0080EDBCFEBFF9A
:1002A800E806FCE204EC20F0010120EE0EF07851A3
:1002B800D9267951DA2200016FC0DEFF70C0DDFF58
:1002C800CF0E986F7F0E996FC8EC21F035C084F07F
:1002D80036C085F037C086F038C087F07EEC24F051
:1002E80084C098F085C099F0C8EC21F0010E35263D
:1002F800000E362237223822FB0E0001986F7F0E3F
:10030800996FC8EC21F0010120EE1BF07851D92635
:100318007951DA22DFAE07D06E0E0001986F7F0E9A
:10032800996FC8EC21F0010120EE1DF07851D92613
:100338007951DA22DFA407D08F0E0001986F7F0E63
:10034800996FC8EC21F0010120EE1BF07851D926F5
:100358007951DA22DFBA07D00D0E0001986F7F0EAF
:10036800996FC8EC21F0CF0E0001986F7F0E996F3E
:10037800C8EC21F0010120EE1EF07851D926795100
:10038800DA22DECF84F0DECF85F0DECF86F0DECF56
:1003980087F07EEC24F084C098F085C099F0C8EC12
:1003A80021F0FB0E0001986F7F0E996FC8EC21F0C9
:1003B80097D0C10E0001986F7F0E996FC8EC21F09D
:1003C80078C1FCF079C1FDF066EC10F0A0D0BA0E4F
:1003D8000001986F7F0E996FC8EC21F078C1B5F0D5
:1003E80079C1B6F03DEC11F092D0690E0001986F1A
:1003F8007E0E996FC8EC21F0CF0E0001986F7F0E2A
:10040800996FC8EC21F0010120EE02F07851D9264D
:100418007951DA2200EE7AF0050EDBCFEBFFE80621
:10042800FCE236EC17F07AC098F07BC099F0C8EC83
:1004380021F0F40E0001986F7F0E996FC8EC21F03F
:10044800010120EE08F07851D9267951DA2200EE20
:100458007AF0050EDBCFEBFFE806FCE236EC17F08E
:100468007AC098F07BC099F0C8EC21F0F70E000133
:10047800986F7F0E996FC8EC21F0010120EE0EF005
:100488007851D9267951DA22DECF60F0DDCF61F0DC
:1004980030EC23F060C098F061C099F0C8EC21F00E
:1004A800E00E0001986F7F0E996FC8EC21F078C1BB
:1004B800D9FF79C1DAFFDECF7BF1DDCF7CF17BC1DB
:1004C8009AF07CC19BF000019C6B9D6BC9EC25F0F8
:1004D800F10E0001986F7F0E996FC8EC21F017D0CC
:1004E800010120EE0EF07851D9267951DA22DECFBB
:1004F8007BF1DDCF7CF17C51080AD8A476D77B51FB
:10050800000AD8B464D7060AD8B453D76ED7CF0E2A
:100518000001986F7F0E996FC8EC21F0010120EE61
:1005280010F07851D9267951DA22DECF7BF1DDCF70
:100538007CF17BC184F07CC185F00001866B876B00
:100548007EEC24F084C098F085C099F0C8EC21F0C6
:10055800080E0001986F7F0E996FC8EC21F0010119
:1005680020EE12F07851D9267951DA22DECF7BF1CC
:10057800DDCF7CF17BC184F07CC185F00001866B06
:10058800876B7EEC24F084C098F085C099F0C8ECA5
:1005980021F01E0E0001986F7C0E996FC8EC21F0B7
:1005A800010120EE14F07851D9267951DA22DECFF4
:1005B8007BF1DDCF7CF17BC184F07CC185F000014B
:1005C800866B876B7EEC24F084C098F085C099F028
:1005D800C8EC21F0FA0E0001986F7F0E996FC8ECF5
:1005E80021F078C172F079C173F0B6EC23F0DB0E1C
:1005F8000001986F7C0E996FC8EC21F083C178F1E7
:1006080084C179F185C17AF11200000E0001A16F51
:1006180084518511D8A40CD0010E9F6F20EE98F05C
:1006280000EE84F0080EDBCFEBFFE806FCE21200D8
:1006380010EC24F0D8A00DD0010E00019F6F20EE21
:1006480098F000EE84F0080EDBCFEBFFE806FCE242
:1006580012002CEC24F0D8A038D2300E0001855DB1
:10066800D8A00CD0010E9F6F20EE98F000EE84F019
:10067800080EDBCFEBFFE806FCE21200000E0101DA
:100688008C6F000E8B6F84C08DF185C08EF184C095
:100698008FF185C090F1010E916F000E936F21EEDE
:1006A8008BF000EE84F0080EDBCFEBFFE806FCE2EF
:1006B80012000001A151090D060EF326000EF422C6
:1006C8008B0EF324D96E010EF420DA6EDF50D8A415
:1006D800EBD1A151D8B407D0FF0EA125936F946B2D
:1006E800FF0E942304D0000E946F070E936F93C0EF
:1006F80060F094C061F0000E636F090E626F32EC17
:1007080025F0020E00016027000E61238B0E602584
:10071800D96E010E6121DA6EDECF8DF0DDCF8EF05D
:10072800010E8D27000E8E23A151090D8B0EF32487
:10073800D96E010EF420DA6E8DC0DEFF8EC0DDFFAB
:10074800A151090D8B0EF324D96E010EF420DA6E37
:10075800DECF8DF0DDCF8EF084518D2785518E232D
:100768008D05300E8E59D8A0CFD0070EA119D8A468
:10077800CBD001019151D8A4C7D00001A151090DD6
:10078800040EF326000EF4228B0EF324D96E010E0C
:10079800F420DA6E84C0DEFF85C0DDFFA151090DAB
:1007A800040EF326000EF4228B0EF324D96E010EEC
:1007B800F420DA6EDECF8DF0DDCF8EF0FF0E8F6F76
:1007C8002F0E906FA151090D8B0EF324D96E010ED7
:1007D800F420DA6EDECF91F0DDCF92F0911F921FF8
:1007E800914B922B8F51912790519223911F921FD9
:1007F800914B922B8D5191278E519223A151090D26
:10080800020EF326000EF4228B0EF324D96E010E8D
:10081800F420DA6E91C0DEFF92C0DDFF000E966F05
:10082800070E966501D044D0A1519619D8B43ED090
:10083800A151090D8B0EF324D96E010EF420DA6E46
:1008480000EE72F0080EDBCFEBFFE806FCE29651F3
:10085800090D8B0EF324D96E010EF420DA6E00EE2A
:100868007BF0080EDBCFEBFFE806FCE222EC16F08B
:100878000001D8A01BD09651090D060EF326000ED4
:10088800F4228B0EF324D96E010EF420DA6EDF50B9
:10089800D8B40CD0010E9F6F20EE98F000EE84F0D3
:1008A800080EDBCFEBFFE806FCE21200962BB8D768
:1008B800A151090D060EF326000EF4228B0EF32427
:1008C800D96E010EF420DA6E010EDF6EA151090D0A
:1008D800080EF326000EF4228B0EF324D96E010EB7
:1008E800F420DA6EA1C0DFFFA151090D8B0EF324AD
:1008F800D96E010EF420DA6E00EE84F0080EDBCF1C
:10090800EBFFE806FCE21200010E0001956FA15111
:10091800090D8B0EF324D96E010EF420DA6EDECFAA
:100928008DF0DDCF8EF084518D2785518E23A15116
:10093800090D020EF326000EF4228B0EF324D96E55
:10094800010EF420DA6E8DC0DEFF8EC0DDFF000ED2
:10095800976F070E976501D03AD0A1519719D8B46F
:1009680034D09751090D060EF326000EF4228B0E93
:10097800F324D96E010EF420DA6EDF50D8B425D0F6
:10098800A151090D8B0EF324D96E010EF420DA6EF5
:1009980000EE72F0080EDBCFEBFFE806FCE29751A1
:1009A800090D8B0EF324D96E010EF420DA6E00EED9
:1009B8007BF0080EDBCFEBFFE806FCE222EC16F03A
:1009C8000001D8A002D0000E956F972BC2D7955181
:1009D800D8B46AD0A151090D060EF326000EF422F0
:1009E8008B0EF324D96E010EF420DA6E010EDF6E41
:1009F800A151090D8B0EF324D96E010EF420DA6E85
:100A0800DECF8DF0DDCF8EF084518D2785518E237A
:100A1800A151090D020EF326000EF4228B0EF324C9
:100A2800D96E010EF420DA6E8DC0DEFF8EC0DDFFB8
:100A3800A151090D070EF326000EF4228B0EF324A4
:100A4800D96E010EF420DA6E000EDF6EA151090D89
:100A5800040EF326000EF4228B0EF324D96E010E39
:100A6800F420DA6E84C0DEFF85C0DDFFA151090DD8
:100A7800080EF326000EF4228B0EF324D96E010E15
:100A8800F420DA6EA1C0DFFFA151090D8B0EF3240B
:100A9800D96E010EF420DA6E00EE84F0080EDBCF7A
:100AA800EBFFE806FCE21200A12B080EA119D8A45E
:100AB8000CD0010E9F6F20EE98F000EE84F0080E27
:100AC800DBCFEBFFE806FCE21200080E0001A1658F
:100AD800F0D520EE98F000EE84F0080EDBCFEBFFA7
:100AE800E806FCE21200000E00019C6F160E9B6FD8
:100AF80020EE10F07451D9267551DA22DECF94F029
:100B0800DDCF95F09B5194256F6F9C519521706FA7
:100B1800000E42EC21F0000120EE10F07451D926AD
:100B28007551DA22DECF94F0DDCF95F09B519425F4
:100B38006F6F9C519521706F010E42EC21F00001FE
:100B48009E6F9D6B20EE10F07451D9267551DA22F4
:100B5800DECF94F0DDCF95F09B5194256F6F9C51BB
:100B68009521706F010E42EC21F00001966F9651AD
:100B78009D1320EE10F07451D9267551DA22DECF7C
:100B880094F0DDCF95F09B5194256F6F9C51952182
:100B9800706F010E42EC21F00001A06F9F6B20EEF8
:100BA80010F07451D9267551DA22DECF94F0DDCFDA
:100BB80095F09B5194256F6F9C519521706F010E94
:100BC80042EC21F00001966F96519F1320EE10F031
:100BD8007451D9267551DA22DECF94F0DDCF95F025
:100BE8009B5194256F6F9C519521706F010E42ECBB
:100BF80021F00001A16F20EE10F07451D926755133
:100C0800DA22DECF94F0DDCF95F09B5194256F6FFB
:100C18009C519521706F010E42EC21F00001A26FEA
:100C280020EE10F07451D9267551DA22DECF94F0F7
:100C3800DDCF95F09B5194256F6F9C519521706F76
:100C4800010E42EC21F00001A46FA36B20EE10F01E
:100C58007451D9267551DA22DECF94F0DDCF95F0A4
:100C68009B5194256F6F9C519521706F010E42EC3A
:100C780021F00001966F9651A313000E976F24D0B0
:100C880020EE10F07451D9267551DA22DECF94F097
:100C9800DDCF95F09B5194256F6F9C519521706F16
:100CA800010E42EC21F00001966F9751010D080EDC
:100CB800F326000EF4229D0EF324D96E000EF420C4
:100CC800DA6E96C0DFFF972BA151975DD8A0D8D7D1
:100CD800000E986F24D020EE10F07451D92675516B
:100CE800DA22DECF94F0DDCF95F09B5194256F6F1B
:100CF8009C519521706F010E42EC21F00001966F16
:100D08009851010D0E0EF326000EF4229D0EF324C9
:100D1800D96E000EF420DA6E96C0DFFF982BA25130
:100D2800985DD8A0D8D7000E996F24D020EE10F087
:100D38007451D9267551DA22DECF94F0DDCF95F0C3
:100D48009B5194256F6F9C519521706F010E42EC59
:100D580021F00001966F9951010D120EF326000E35
:100D6800F4229D0EF324D96E000EF420DA6E96C09C
:100D7800DFFF992BA151995DD8A0D8D7000E9A6FA3
:100D880024D020EE10F07451D9267551DA22DECF26
:100D980094F0DDCF95F09B5194256F6F9C51952170
:100DA800706F010E42EC21F00001966F9A51010D0F
:100DB800180EF326000EF4229D0EF324D96E000EB1
:100DC800F420DA6E96C0DFFF9A2BA2519A5DD8A064
:100DD800D8D720EE10F07451D9267551DA22DECF1B
:100DE80094F0DDCF95F09B5194256F6F9C51952120
:100DF800706F020E42EC21F0AB0E0001606F000E26
:100E0800616FAFEC24F00001D8A002D0B9833CD0C8
:100E1800B993AB0E606F000E616FB50E626F000E76
:100E2800636F95EC23F00001D8A00DD0AF0E606F72
:100E3800000E616F97EC24F00001D8A004D0A30540
:100E4800A411D8B41FD0AB0E606F000E616FB50E41
:100E5800626F000E636F95EC23F00001D8A014D0E8
:100E6800A50E606F000E616FAF0E626F000E636FAC
:100E780074EC23F00001D8A007D0020EA319A41126
:100E8800D8A402D0B98101D0B9919D059E11D8A4EA
:100E980013D0080EA0199F11D8A40ED0A4510CE1AC
:100EA800030EA35DD8B008D0060EA119D8A404D0AB
:100EB800040EA219D8B404D0010EBC6F930E03D04F
:100EC800000EBC6F000EBB6F030EBA6F20EE9DF0D4
:100ED80000EE74F01F0EDBCFEBFFE806FCE2120019
:100EE800000E0001656FFF0E666F20EE01F0605185
:100EF800D9266151DA22DF50676F6751696F686BD5
:100F0800655168176651691760C0D9FF61C0DAFF7B
:100F1800DF506A6F6B6B68516A116C6F69516B11A6
:100F28006D6F20EE02F06051D9266151DA22DFA000
:100F380003D0656B652B02D00001656B6E51651996
:100F4800FE0B65196E6F20EE02F06051D9266151D3
:100F5800DA22DFA403D0656B652B02D00001656B34
:100F680065476E516519FD0B65196E6F20EE02F02D
:100F78006051D9266151DA22DFA803D0656B652B51
:100F880002D00001656B654765476E516519FB0B1B
:100F980065196E6F20EE02F06051D9266151DA2290
:100FA800DFAA03D0656B652B02D00001656B65472E
:100FB800654765476E516519F70B65196E6F20EE29
:100FC80002F06051D9266151DA22DFAC03D0656B9B
:100FD800652B02D00001656B653B6E516519EF0BFF
:100FE80065196E6F20EE02F06051D9266151DA2240
:100FF800DFAE03D0656B652B02D00001656B653BE6
:1010080065476E516519DF0B65196E6F20EE03F0A9
:101018006051D9266151DA22DFA003D0656B652BB8
:1010280002D00001656B653B654765476E516519E0
:10103800BF0B65196E6F20EE03F06051D926615120
:10104800DA22DFA203D0656B652B02D00001656B45
:10105800653365336E5165197F0B65196E6F20EE28
:1010680003F06051D9266151DA22DFA603D0656BFF
:10107800652B02D00001656B65476F516519FD0B43
:1010880065196F6F20EE03F06051D9266151DA229D
:10109800DFA803D0656B652B02D00001656B65473F
:1010A80065476F516519FB0B65196F6F20EE03F0EB
:1010B8006051D9266151DA22DFAA03D0656B652B0E
:1010C80002D00001656B6547654765476F51651933
:1010D800F70B65196F6F20EE03F06051D926615147
:1010E800DA22DFAC03D0656B652B02D00001656B9B
:1010F800653B6F516519EF0B65196F6F20EE03F0B3
:101108006051D9266151DA22DFAE03D0656B652BB9
:1011180002D00001656B653B65476F516519DF0BB0
:1011280065196F6F20EE04F06051D9266151DA22FB
:10113800DFA003D0656B652B02D00001656B653BB2
:10114800654765476F516519BF0B65196F6F20EECD
:1011580004F06051D9266151DA22DFA203D0656B11
:10116800652B02D00001656B653365336F516519D6
:101178007F0B65196F6F20EE04F06051D92661511D
:10118800DA22DFA403D0656B652B02D00001656B02
:1011980070516519FE0B6519706F20EE04F06051EF
:1011A800D9266151DA22DFA603D0656B652B02D000
:1011B8000001656B654770516519FD0B6519706F06
:1011C80020EE04F06051D9266151DA22DFA803D05D
:1011D800656B652B02D00001656B654765477051EB
:1011E8006519FB0B6519706F20EE6CF000EE60F06E
:1011F800040EDBCFEBFFE806FCE21200000E000154
:101208006E6F000E6F6F000E706F000E716F20EE24
:1012180002F06051D9266151DA22DF50626F636BA8
:10122800D89062376337D8906237633720EE01F081
:101238006051D9266151DA22DF50646F6451666FBC
:10124800656B60C0D9FF61C0DAFFDF50676F686BFC
:101258000C0ED89067376837E82EFBD765516713AF
:1012680066516813625167136351681320EE03F0E7
:101278006051D9266151DA22DF50696F69516713CD
:10128800000E681367C06EF068C06FF0706B716B0A
:1012980020EE04F06051D9266151DA22DECF62F0E7
:1012A800DDCF63F062516E2763516F23000E702308
:1012B800000E712320EE06F06051D9266151DA2222
:1012C800DECF62F0DDCF63F062516E2763516F238A
:1012D800000E7023000E712320EE09F06051D9260C
:1012E8006151DA22DECF62F0DDCF63F020EE08F044
:1012F8006051D9266151DA22DF50646F656B0D0E9B
:10130800D89064376537E82EFBD762516413635170
:10131800651364516E2765516F23000E7023000E0C
:10132800712320EE0BF06051D9266151DA22DF508B
:10133800626F6251646F636B20EE0CF06051D926C6
:101348006151DA22DF50656F65516313000E641333
:1013580063516E2764516F23000E7023000E7123B2
:1013680020EE0FF06051D9266151DA22DF50626F0A
:101378006251646F636B20EE10F06051D9266151A1
:10138800DA22DF50656F666B63516513645166132B
:1013980065516E2766516F23000E7023000E71236E
:1013A80020EE11F06051D9266151DA22DF50626FC8
:1013B8006251646F636B20EE12F06051D92661515F
:1013C800DA22DF50656F666B6351651364516613EB
:1013D80065516E2766516F23000E7023000E71232E
:1013E80020EE13F06051D9266151DA22DF50626F86
:1013F8006251646F636B20EE14F06051D92661511D
:10140800DA22DF50656F666B6351651364516613AA
:1014180065516E2766516F23000E7023000E7123ED
:1014280020EE15F06051D9266151DA22DF50626F43
:101438006251646F636B20EE16F06051D9266151DA
:10144800DA22DF50656F666B63516513645166136A
:1014580065516E2766516F23000E7023000E7123AD
:101468006EC062F06FC063F070C064F071C065F068
:10147800110E05D0D8906533643363336233E82E98
:10148800F9D70F0E6215666F000E6315676F000EB1
:101498006415686F000E6515696FFF0E6E156A6F2B
:1014A800FF0E6F156B6F000E70156C6F000E7115C7
:1014B8006D6F66516A256E6F67516B216F6F68514A
:1014C8006C21706F69516D21716F6EC062F06FC0D1
:1014D80063F070C064F071C065F0621F631F641F21
:1014E800651F62C06EF063C06FF064C070F065C0C5
:1014F80071F020EE0DF06051D9266151DA226EC0EC
:10150800DEFF6FC0DDFF1200FC0ED316D3508F0B29
:101518006009D36ED288F29EF28AF0889F9A9D8ADB
:10152800F28CD58ED58CD59AD596D550F80B050961
:10153800D56ECD80BD50F00B0B09BD6E1F0EBF6E72
:10154800400EBE6E9D84F28C939C4BEC26F0F7EC1B
:1015580025F0680E0101896FE40EE82EFED7892F69
:10156800FCD700F0FD0E0001986F7F0E996FC8EC54
:1015780021F0D0B615D0660E0001986F7B0E996FDA
:10158800C8EC21F0990E0001986F7B0E996FC8EC9A
:1015980021F0660E0001986F7B0E996FC8EC21F060
:1015A8000F0E0001986F7E0E996FC8EC21F0620E45
:1015B8000001986F7F0E996FC8EC21F0670E00014B
:1015C800986F7E0E996FC8EC21F0A20E0001986FFB
:1015D8007F0E996FC8EC21F0DC0E0001986F7F0E2A
:1015E800996FC8EC21F0CBEC1FF07AC07FF37BC079
:1015F80080F37CC081F3030180518111D8B408D0F5
:101608007FC39AF080C39BF081C39CF0FAEC14F07E
:10161800BFEC22F06EC07FF36FC080F370C081F31F
:10162800030180518111D8A40FD0A6EC25F060C029
:1016380098F061C099F0C8EC21F0560E0001986F3F
:101648007F0E996FC8EC21F03E0E0001986F7E0E58
:10165800996FC8EC21F091EC1FF0E9CFD9FFEACFE0
:10166800DAFF00EE7AF0050EDBCFEBFFE806FCE2CE
:1016780036EC17F07AC098F07BC099F0C8EC21F0EE
:10168800DC0E0001986F7F0E996FC8EC21F0660E92
:101698000001986F7B0E996FC8EC21F06FEC26F073
:1016A800000E00016E6F000E0CEC1DF0000E000124
:1016B8006E6F000E0CEC1DF0150E01018A6F4B0EBB
:1016C800896FBE0EE82EFED7892FFCD78A2FFAD74E
:1016D80000F0010E00016E6F000E0CEC1DF0010E03
:1016E80000016E6F000E0CEC1DF0000E0301796F07
:1016F800000E7A6F000E7B6F000E7C6F0F015C9BF3
:10170800938AC00E0301866FA80E876F000E886F3C
:10171800010E896FC00E826FA80E836F000E846F52
:10172800040E856FF28EF28C91EC1FF0050EE926FF
:10173800000EEA22EF500101896F895100017A6F8A
:101748007B6B53EC26F086C39AF087C39BF088C363
:101758009CF089C39DF070EC22F00400000E01019A
:10176800866F030E876FBCEC18F023EE00F000EED6
:101778009AF00E0EDBCFEBFFE806FCE2BBEC1CF0A8
:1017880003010051D8B409D085EC26F00101896F16
:10179800895103017D6F7E6B04D0030E7E6FE80EC6
:1017A8007D6F7DC331F07EC332F0000E32BEFF0E76
:1017B800336E346E0101F051D8B4CFD7000EF06FFC
:1017C80086C39AF087C39BF088C39CF089C39DF0B9
:1017D80070EC22F0C2D7C70E0001606F000E616F77
:1017E80081EC25F020EEC7F010EED9F0050EDBCF26
:1017F800E3FFE806FCE2000E0001D26F240ED16F71
:1018080020EEF3F000EE6FF0080EDBCFEBFFE806FA
:10181800FCE23CEC20F020EED3F0050EEBCFDBFF32
:10182800E806FCE2080E0001E06F060EDF6FD10E3D
:10183800A26F000EA36F23EC1AF00001E851D8A4A0
:101848001200080EE125F36F000EE221F46FE3C0E9
:10185800F5F0E4C0F6F0000EF86F1C0EF76F20EEFE
:10186800F3F000EE6FF0080EDBCFEBFFE806FCE2CA
:10187800A8511BEC1FF020EEF3F000EE6FF0080EFD
:10188800DBCFEBFFE806FCE20001A7511BEC1FF0E1
:1018980020EEF3F000EE6FF0080EDBCFEBFFE8066A
:1018A800FCE20001AA511BEC1FF020EEF3F000EE61
:1018B8006FF0080EDBCFEBFFE806FCE20001A95150
:1018C8001BEC1FF020EEF3F000EE6FF0080EDBCFFC
:1018D800EBFFE806FCE20001AB511BEC1FF020EE29
:1018E800F3F000EE6FF0080EDBCFEBFFE806FCE24A
:1018F8000001AC511BEC1FF020EEF3F000EE6FF08E
:10190800080EDBCFEBFFE806FCE20001AE511BEC52
:101918001FF020EEF3F000EE6FF0080EDBCFEBFFC8
:10192800E806FCE20001AD511BEC1FF0000E0001BF
:10193800CD6F1AD020EEF3F000EE6FF0080EDBCF7B
:10194800EBFFE806FCE2CD51010D080EF326000E70
:10195800F422A70EF324D96E000EF420DA6EDF50BD
:101968001BEC1FF00001CD2BAB51CD5DD8A0E2D709
:10197800000ECE6F1AD020EEF3F000EE6FF0080ED6
:10198800DBCFEBFFE806FCE2CE51010D0E0EF3268D
:10199800000EF422A70EF324D96E000EF420DA6E9E
:1019A800DF501BEC1FF00001CE2BAC51CE5DD8A050
:1019B800E2D7000ECF6F1AD020EEF3F000EE6FF0F2
:1019C800080EDBCFEBFFE806FCE2CF51010D120E4B
:1019D800F326000EF422A70EF324D96E000EF4208D
:1019E800DA6EDF501BEC1FF00001CF2BAB51CF5D3F
:1019F800D8A0E2D7000ED06F1AD020EEF3F000EE98
:101A08006FF0080EDBCFEBFFE806FCE2D051010DCA
:101A1800180EF326000EF422A70EF324D96E000E3A
:101A2800F420DA6EDF501BEC1FF00001D02BAC5114
:101A3800D05DD8A0E2D720EEE1F000EE72F0080EFB
:101A4800DBCFEBFFE806FCE246EC25F0120074C0A1
:101A5800D9FF75C0DAFFDECF6FF0DDCF70F0000E72
:101A680042EC21F074C0D9FF75C0DAFFDECF6FF009
:101A7800DDCF70F0010E42EC21F000018E6F8E393F
:101A88000F0B0F0B8F6F8E510F0B906F74C0D9FF18
:101A980075C0DAFFDECF6FF0DDCF70F0010E42ECDB
:101AA80021F000018E6F8E511F0B916F8E45E84615
:101AB800030B030B926F74C0D9FF75C0DAFFDECF3A
:101AC8006FF0DDCF70F0010E42EC21F00001946F51
:101AD800936B74C0D9FF75C0DAFFDECF6FF0DDCF2E
:101AE80070F0010E42EC21F000018B6F8B519313C3
:101AF80074C0D9FF75C0DAFFDECF6FF0DDCF70F0AC
:101B0800010E42EC21F00001966F956B74C0D9FF6D
:101B180075C0DAFFDECF6FF0DDCF70F0010E42EC5A
:101B280021F000018B6F8B51951374C0D9FF75C0DC
:101B3800DAFFDECF6FF0DDCF70F0010E42EC21F05E
:101B480000018E6F8E45E846030B030B976F8E518D
:101B58001F0B996F986B74C0D9FF75C0DAFFDECF81
:101B68006FF0DDCF70F0010E42EC21F000018B6FB9
:101B78008B51981374C0D9FF75C0DAFFDECF6FF0B0
:101B8800DDCF70F0010E42EC21F000019A6F74C0B5
:101B9800D9FF75C0DAFFDECF6FF0DDCF70F0010E30
:101BA80042EC21F000019B6F74C0D9FF75C0DAFFC9
:101BB800DECF6FF0DDCF70F0010E42EC21F00001B6
:101BC8009D6F9C6B74C0D9FF75C0DAFFDECF6FF0D4
:101BD800DDCF70F0010E42EC21F000018B6F8B51CC
:101BE8009C13000E8C6F030E8C6501D01DD074C041
:101BF800D9FF75C0DAFFDECF6FF0DDCF70F0010ED0
:101C080042EC21F000018B6F8C51010D0F0EF32671
:101C1800000EF4228F0EF324D96E000EF420DA6E33
:101C28008BC0DFFF8C2BDFD7000E8D6F030E8D6509
:101C380001D01DD074C0D9FF75C0DAFFDECF6FF0B8
:101C4800DDCF70F0010E42EC21F000018B6F8D5159
:101C5800010D130EF326000EF4228F0EF324D96E15
:101C6800000EF420DA6E8BC0DFFF8D2BDFD774C037
:101C7800D9FF75C0DAFFDECF6FF0DDCF70F0020E4E
:101C880042EC21F020EE8FF000EE74F0160EDBCF60
:101C9800EBFFE806FCE21200030E0101496FFCC0ED
:101CA80067F0FDC068F0FEC069F0FFC06AF03C0E46
:101CB80000016B6F010E6C6F5AEC1BF00009D8B471
:101CC800F5D0030E0101E56FF1D0450E0001606FFC
:101CD800010E616FDAEC25F039EC26F060C03DF1B9
:101CE80061C03EF162C03FF163C040F19DEC21F05C
:101CF8006CC06EF06DC06FF0030E0001716FE80EDE
:101D0800706F52EC23F000016EC041F16FC042F1D8
:101D18000101436B446B010EE56F54D03DC134F1B2
:101D28003EC135F13FC136F140C137F1341F351F8F
:101D3800361F371F342B000E35233623372339EC53
:101D480026F001013451000160250101386F355139
:101D5800000161210101396F365100016221010141
:101D68003A6F37510001632101013B6F4151385DE2
:101D78004251395943513A5944513B59D8A022D07C
:101D8800020EE56FE80E346F030E356F9DEC21F0FF
:101D98006CC06EF06DC06FF0030E0001716FE80E3D
:101DA800706F52EC23F00101345100016E270101DC
:101DB800355100016F236EC041F16FC042F101013E
:101DC800436B446B010E4B6F910E6ED0E651D8B445
:101DD80032D03DC134F13EC135F13FC136F140C189
:101DE80037F1341F351F361F371F342B000E3523AC
:101DF8003623372339EC26F00101345100016025E0
:101E08000101386F3551000161210101396F3651E7
:101E18000001622101013A6F37510001632101017C
:101E28003B6F3851415D395142593A5143593B5101
:101E38004459D8B049D039EC26F060C03DF161C0B2
:101E48003EF162C03FF163C040F1030E0101E6615B
:101E580012D045C100F146C101F147C102F148C1A4
:101E680003F1FCC004F1FDC005F1FEC006F1FFC09E
:101E780007F1B3EC1BF0020E0101E66508D0000E75
:101E8800E66F000EE56F010E4B6F920E0DD0010E3E
:101E98004B6F910E4A6FE62B17D0000EE66F000EBF
:101EA800E56F010E4B6F940E4A6F0ED00101E5519C
:101EB800000AD8B40AD7010AD8B430D7030AD8B46C
:101EC80085D7010AD8B4E9D749C1FCF04AC1FDF069
:101ED8004BC1FEF01200000E0001876F000E886FE4
:101EE800030E886501D0DFD08851010D830EF324DD
:101EF800D96E000EF420DA6E8851010D730EF324AA
:101F0800E16E000EF420E26EE750776F7751606F54
:101F1800616B000E636F640E626FF3EC21F00001D9
:101F28006051DF6E8851010D7F0EF324D96E000ECB
:101F3800F420DA6E8851010D830EF324E16E000E51
:101F4800F420E26EE750776F7751640DF3CF78F0A5
:101F5800F4CF79F0781F791F784B792B8851010DD0
:101F6800730EF324E16E000EF420E26EE7507A6FF0
:101F78007A517825606F000E7921616F000E636FCA
:101F88000A0E626FF3EC21F000016051DF6E885198
:101F9800010D7B0EF324D96E000EF420DA6E885101
:101FA800010D730EF324E16E000EF420E26EE7508B
:101FB800776F77516E6F6F6B000E716F0A0E706FCF
:101FC80052EC23F000016E51DF6E8851010D830E33
:101FD800F324D96E000EF420DA6EDF50D8B414D092
:101FE8008751010DE30EF324D96E020EF420DA6E48
:101FF8008851010D830EF324E16E000EF420E26E89
:10200800E750300FDF6E872B8851010D7F0EF324C8
:10201800D96E000EF420DA6EDF50D8A40BD08851A8
:10202800010D830EF324D96E000EF420DA6EDF5012
:10203800D8B414D08751010DE30EF324D96E020EE3
:10204800F420DA6E8851010D7F0EF324E16E000E44
:10205800F420E26EE750300FDF6E872B8751010DB9
:10206800E30EF324D96E020EF420DA6E8851010DC6
:102078007B0EF324E16E000EF420E26EE750300F81
:10208800DF6E872B030E8819D8B40BD08751010D4A
:10209800E30EF324D96E020EF420DA6E2E0EDF6EF4
:1020A800872B882B1DD78751010DE30EF324D96E9A
:1020B800020EF420DA6E000EDF6EE30E736F020E6E
:1020C800746F1200000120EE0EF0FC51D926FD516C
:1020D800DA22060EDE1804E1080EDE18D8B407D09E
:1020E800FCC072F0FDC073F0B6EC23F01200FCC027
:1020F80074F0FDC075F077EC05F021EE58F01F0E76
:10210800EBCFDBFFE806FCE2010176517711D8B48A
:102118000ED0FCC072F0FDC073F0B6EC23F0480E90
:102128000001986F7C0E996FC8EC21F01200CF0E59
:102138000001986F7F0E996FC8EC21F021EE60F0D6
:1021480000EE7AF0050EDBCFEBFFE806FCE236EC9A
:1021580017F07AC098F07BC099F0C8EC21F0660EB1
:102168000001986F7E0E996FC8EC21F066C173F07C
:1021780067C174F068C175F069C176F06FEC0FF053
:1021880073C098F074C099F0C8EC21F0CC0E00012F
:10219800986F7F0E996FC8EC21F021EE6AF000EE7F
:1021A8007AF0050EDBCFEBFFE806FCE236EC17F021
:1021B8007AC098F07BC099F0C8EC21F0660E000157
:1021C800986F7E0E996FC8EC21F070C173F071C1E1
:1021D80074F072C175F073C176F06FEC0FF073C0D4
:1021E80098F074C099F0C8EC21F0FB0E0001986FCC
:1021F8007F0E996FC8EC21F0010174A307D0850EFA
:102208000001986F7F0E996FC8EC21F0010174A14D
:1022180007D01D0E0001986F7F0E996FC8EC21F052
:1022280021EE58F001EE00F01F0EDBCFEBFFE806C1
:10223800FCE298EC13F021EE60F000EE64F0050E7D
:10224800DBCFEBFFE806FCE266C16AF067C16BF022
:1022580068C16CF069C16DF039EC26F060C06EF0B1
:1022680061C06FF062C070F063C071F0ACEC19F03F
:102278001200000120EE0EF0B551D926B651DA222F
:10228800DE5004E1080EDE18D8B407D0B5C072F0ED
:10229800B6C073F0B6EC23F01200000120EE10F087
:1022A800B551D926B651DA2210EEB9F0080EDBCFB7
:1022B800E3FFE806FCE220EE10F0B551D926B6514E
:1022C800DA22DECFB7F0DDCFB8F0160EB725B96F3A
:1022D800000EB821BA6FB90E746F000E756F2BEC33
:1022E8000DF020EEC2F0160EEBCFDBFFE806FCE2A5
:1022F800CF0E0001986F7F0E996FC8EC21F0D1C006
:1023080073F0D2C074F0D3C075F0D4C076F06FEC1F
:102318000FF073C098F074C099F0C8EC21F0C70EA4
:102328000001986F7F0E996FC8EC21F0D5C073F04B
:10233800D6C074F0D7C075F0D8C076F06FEC0FF047
:1023480073C098F074C099F0C8EC21F0F70E000142
:10235800986F7F0E996FC8EC21F00001CE510CECFC
:1023680023F060C098F061C099F0C8EC21F0F70E36
:102378000001986F7F0E996FC8EC21F0C6C084F0F9
:10238800C7C085F00001866B876B7EEC24F084C0A3
:1023980098F085C099F0C8EC21F0F70E0001986F0D
:1023A8007F0E996FC8EC21F00001C251846F856BD4
:1023B800866B876B7EEC24F084C098F085C099F01A
:1023C800C8EC21F0660E0001986F7E0E996FC8EC7C
:1023D80021F00001C351846F856B866B876B7EEC9F
:1023E80024F084C098F085C099F0C8EC21F0FB0E69
:1023F8000001986F7F0E996FC8EC21F0C20E0001A2
:102408009A6F000E9B6F97EC1AF00001D8B012007B
:102418007D0E986F7E0E996FC8EC21F01200040EA5
:1024280000019C6F000E9E6F000E9D6F3CC0D9FF8F
:102438003DC0DAFF030EDE18D8A4B6D04FB090D056
:10244800B3D03CC0D9FF3DC0DAFFDECF9CF0DECF71
:102458009DF0DDCF9EF012003CC0D9FF3DC0DAFFF1
:10246800DECF9CF0DECF9DF0DDCF9EF01200DE0EB9
:10247800986F7C0E996FC8EC21F04F90B40E000154
:10248800986F7A0E996FC8EC21F01200000E0001C7
:102498009E6F000E9D6FCA0E986F7B0E996FC8ECE9
:1024A80021F0630E0001986F7D0E996FC8EC21F042
:1024B800270E0001986F7E0E996FC8EC21F0DFC1DE
:1024C80073F0E0C174F0E1C175F0E2C176F06FEC31
:1024D8000FF073C098F074C099F0C8EC21F0D7C120
:1024E800DFF1D8C1E0F1D9C1E1F1DAC1E2F16F0E53
:1024F8000001986F7C0E996FC8EC21F0DFC173F072
:10250800E0C174F0E1C175F0E2C176F06FEC0FF054
:1025180073C098F074C099F0C8EC21F0DB0E00018C
:10252800986F7F0E996FC8EC21F04F90F40E000160
:10253800986F7A0E996FC8EC21F012003CC0D9FF51
:102548003DC0DAFFDECF9CF0DECF9DF0DDCF9EF000
:10255800210E0001986F7C0E996FC8EC21F01200D3
:1025680020EE01F03C50D9263D50DA22DECF9AF019
:10257800DDCF9BF000019B51000AD8B404D0010ABA
:10258800D8B406D0DBD79A51000AD8B45AD7D6D7D0
:102598009A51910AD8B460D7030AD8B477D7060AF3
:1025A800D8B465D7670ACAD7020E9E6F570E9D6FBB
:1025B8001200030E01013C6F010E3E6F910E3D6F3C
:1025C800A2D039EC26F060C0DBF161C0DCF162C05A
:1025D800DDF163C0DEF1010E0101E36F9ED0DBC1C6
:1025E80034F1DCC135F1DDC136F1DEC137F1341F1C
:1025F800351F361F371F342B000E3523362337235C
:1026080039EC26F001013451000160250101386FD1
:102618003551000161210101396F365100016221F4
:1026280001013A6F37510001632101013B6F3B51B2
:102638003A1106E1D10E385D070E3959D8A06DD090
:10264800020EE36F000EE46F68D0E451D8B431D0C5
:10265800DBC134F1DCC135F1DDC136F1DEC137F162
:10266800341F351F361F371F342B000E35233623F2
:10267800372339EC26F001013451000160250101AE
:10268800386F3551000161210101396F3651000160
:10269800622101013A6F37510001632101013B6F4B
:1026A8003B513A1106E1D10E385D070E3959D8A0D1
:1026B8001ED039EC26F060C0DBF161C0DCF162C0ED
:1026C800DDF163C0DEF1FCC000F1FDC001F1FEC028
:1026D80002F1FFC003F1FCC004F1FDC005F1FEC02A
:1026E80006F1FFC007F1B3EC1BF00101E42B010E6A
:1026F800E46513D0000EE46F000EE36F000E3E6F2A
:10270800000E3D6F0AD0E351000AD8B45AD7010A27
:10271800D8B465D7030AD8B498D73CC1FCF03DC1FA
:10272800FDF03EC1FEF01200010106050711D8A414
:10273800120042EC26F060C034F161C035F162C08D
:1027480036F163C037F1180E0001606F010E616F3A
:10275800340E626F010E636F95EC23F00001D8A070
:10276800120091EC1FF021EE20F0050EEBCFDBFFFD
:10277800E806FCE221EE08F011EE26F0050EDBCFAC
:10278800E3FFE806FCE242EC26F060C02CF161C0F1
:102798002DF162C02EF163C02FF10EC130F10FC1CF
:1027A80031F110C132F111C133F1060E01013C6F54
:1027B800040E3D6F000E396F010E386F080E3B6F27
:1027C800000E3A6F000E3F6F020E3E6F2CC146F1AD
:1027D8002DC147F12EC148F12FC149F121EE20F05A
:1027E80011EE40F0050EDBCFE3FFE806FCE230C156
:1027F80050F131C151F132C152F133C153F121EEDF
:1028080026F011EE4AF0050EDBCFE3FFE806FCE206
:1028180021EE38F000EEA7F01F0EDBCFEBFFE80645
:10282800FCE2EFEC0BF0FD0E0001986F7E0E996F45
:10283800C8EC21F021EE4AF000EE7AF0050EDBCF6D
:10284800EBFFE806FCE236EC17F07AC098F07BC0A4
:1028580099F0C8EC21F0660E0001986F7E0E996F12
:10286800C8EC21F050C173F051C174F052C175F039
:1028780053C176F06FEC0FF073C098F074C099F004
:10288800C8EC21F0FB0E0001986F7F0E996FC8EC21
:1028980021F01200E6EC22F06EC080F06FC081F0EB
:1028A800000181AD03D07A6B7A2B02D000017A6BDC
:1028B8007E517A19FE0B7A197E6F81AB03D07A6B41
:1028C8007A2B02D000017A6B7A477E517A19FD0B78
:1028D8007A197E6F81A903D07A6B7A2B02D0000116
:1028E8007A6B7A477A477E517A19FB0B7A197E6F91
:1028F80081A703D07A6B7A2B02D000017A6B7A47D2
:102908007A477A477E517A19F70B7A197E6F80AD2C
:1029180003D07A6B7A2B02D000017A6B7A3B7E5116
:102928007A19EF0B7A197E6F80AB03D07A6B7A2B0A
:1029380002D000017A6B7A3B7A477E517A19DF0B15
:102948007A197E6F9EA803D07A6B7A2B02D0000189
:102958007A6B010E7B6F000E7C6F7A2B03D0D890B8
:102968007B377C377A2FFBD7000180517B17815149
:102978007C177B517C11D8B403D07D6B7D2B02D0A2
:1029880000017D6B7D3B7D477D477E517D19BF0BE7
:102998007D197E6F80A503D07A6B7A2B02D0000157
:1029A8007A6B7A337A337E517A197F0B7A197E6F74
:1029B80080A303D07A6B7A2B02D000017A6B7F5107
:1029C8007A19FE0B7A197F6F80A103D07A6B7A2B64
:1029D80002D000017A6B7A477F517A19FD0B7A1978
:1029E8007F6F7EC078F07FC079F01200AB0E0001D7
:1029F800986F7F0E996FC8EC21F028D0EC0E00017B
:102A0800986F7E0E996FC8EC21F050D0810E0001AE
:102A1800986F7D0E996FC8EC21F048D0B60E000172
:102A2800986F7E0E996FC8EC21F040D03B0E0001E4
:102A3800986F7F0E996FC8EC21F038D02C0E0001EA
:102A4800986F7F0E996FC8EC21F030D000019A5131
:102A5800000AD8B4D3D7010AD8B4D8D7030AD8B44F
:102A6800DDD7010AD8B4E2D7070AD8B4E7D71ED011
:102A7800950E986F7C0E996FC8EC21F030D02F0E10
:102A88000001986F7B0E996FC8EC21F028D0010ED9
:102A98000001986F7D0E996FC8EC21F09F0E000120
:102AA800986F7D0E996FC8EC21F019D020EE9BF03D
:102AB800DECF9DF0DDCF9EF000019E51010AD8A423
:102AC800EDD79D512D0AD8B4DAD7030AD8B4D0D798
:102AD800A10AD8B4E3D71D0AD8B4D9D7DFD7990E3D
:102AE8000001986F7F0E996FC8EC21F09BC084F0AD
:102AF8009CC085F00001866B876B7EEC24F084C057
:102B080098F085C099F0C8EC21F0DB0E0001986FB1
:102B18007F0E996FC8EC21F012000001766F00015A
:102B280076511F0B776F010E786F000E796F000ECC
:102B38007A6F000E7B6F000E7C6F770E6A6F000E47
:102B48006B6F540E48EC24F0780E00016A6F000E8B
:102B58006B6F550E48EC24F07F0E00016A6F000E73
:102B68006B6F520E63EC24F000017F817F0E6A6F59
:102B7800000E6B6F520E48EC24F0450EE82EFED77F
:102B880000F07F0E00016A6F000E6B6F6A0E63EC37
:102B980024F0010E00017927000E7A237B237C2381
:102BA8007FA108D07C517B1105E179290F0E7A5954
:102BB800D8A0E7D77C517B1140E179290F0E7A59CB
:102BC800D8B012007F0E6A6F000E6B6F520E63EC66
:102BD80024F000017F917F0E6A6F000E6B6F520E1A
:102BE80048EC24F07D0E00016A6F000E6B6F680ED2
:102BF80063EC24F07E0E00016A6F000E6B6F690EA5
:102C080063EC24F0000E0001706FFF0E716F7E51AF
:102C1800736F726B70517217715173177D51746FA6
:102C2800756B72517413735175136EC0D9FF6FC0F1
:102C3800DAFF74C0DEFF75C0DDFF120000017B51B2
:102C4800721904E17C517319D8B429D07D517419D3
:102C580004E17E517519D8B422D072517D1904E16E
:102C680073517E19D8B41BD07B51741904E17C517F
:102C78007519D8B414D07405300E7559D8B00FD062
:102C88007205300E7359D8B00AD07D05300E7E59C2
:102C9800D8B005D07B05300E7C59D8A002D0D8809A
:102CA80012007451725D75517359D8B03BD07D5183
:102CB8007B5D7E517C59D8B02BD07B51725D7C51A5
:102CC8007359D8B00AD074517B5D75517C59D8B00E
:102CD80002D0D8801200D890120020EE7BF000EECF
:102CE80060F0080EDBCFEBFFE806FCE220EE72F0A6
:102CF80000EE69F0080EDBCFEBFFE806FCE20CEC17
:102D08001CF00001D8B002D0D8901200D880120070
:102D180072517D5D73517E59D8B002D0D89012009F
:102D2800D880120020EE7BF000EE60F0080EDBCFBA
:102D3800EBFFE806FCE220EE72F000EE69F0080E08
:102D4800DBCFEBFFE806FCE20CEC1CF00001D8B08E
:102D580002D0D8901200D8801200000E0001726FC5
:102D68004DC073F04EC074F040C075F041C076F0AD
:102D7800010E776F000E796F000E786F050E726185
:102D88005FD0730E6A6F000E6B6F160E48EC24F05E
:102D9800740E00016A6F000E6B6F170E48EC24F07A
:102DA800750E00016A6F000E6B6F160E63EC24F04F
:102DB800760E00016A6F000E6B6F170E63EC24F03D
:102DC800000173517519D8A438D074517619D8A454
:102DD80034D0CA0E11EC26F0420EE82EFED700D0F1
:102DE800750E00016A6F000E6B6F160E63EC24F00F
:102DF800760E00016A6F000E6B6F170E63EC24F0FD
:102E080000017551D8A40DD07651D8A40AD0030E6C
:102E18000001716FA70EE82EFED7712FFCD700D0E6
:102E280005D0010E0001796F2E0E786F77C06EF015
:102E380078C06FF079C070F012000001722B0BD0CF
:102E4800010E796F2E0E786F77C06EF078C06FF034
:102E580079C070F0120077C06EF078C06FF079C05A
:102E680070F0120022EEC5F010EE81F0110EDBCFEB
:102E7800E3FFE806FCE2000E0001976F000E966F74
:102E8800000E956F96BF06D096516BE1060E955DC4
:102E9800D8B067D07A0E9525D96E000E9621DA6ED5
:102EA800DF50806F80390F0B0F0B936F7A0E9525CB
:102EB800D96E000E9621DA6EDF500F0B946F300E2C
:102EC8009327300E9427390E93650CD09751010D36
:102ED800810EF324D96E000EF420DA6E9351070F99
:102EE800DF6E0AD09751010D810EF324D96E000EC2
:102EF800F420DA6E93C0DFFF972B390E94650CD05F
:102F08009751010D810EF324D96E000EF420DA6E6C
:102F18009451070FDF6E0AD09751010D810EF324EB
:102F2800D96E000EF420DA6E94C0DFFF972B96BF9F
:102F380006D096510FE1050E955DD8B00BD097518C
:102F4800010D810EF324D96E000EF420DA6E3A0ECC
:102F5800DF6E972B954B962B96BF9CD7965101E128
:102F680095D7810E7A6F000E7B6F12000101EE6912
:102F7800EF69030EED6F30EC26F060C04EF161C0D2
:102F88004FF162C050F163C051F1ED0E0001606F66
:102F9800010E616F1DEC26F00001D8A046D04EC18D
:102FA800FCF04FC1FDF050C1FEF051C1FFF050ECF4
:102FB8000EF0FC0ED96E000EDA6E010ED926000E48
:102FC800DA22DECFEEF1DDCFEFF119D0BA0E000133
:102FD800986F7C0E996FC8EC21F027D0F70E00018E
:102FE800986F7D0E996FC8EC21F04F821ED0230E8A
:102FF8000001986F7D0E996FC8EC21F016D021EE74
:10300800EEF0DECF4CF1DDCF4DF101014D51010A5B
:10301800D8A4EDD74C51910AD8B407D0030AD8B434
:10302800DDD7060AD8B4D2D7E2D74FA212004EC1D4
:10303800FCF04FC1FDF050C1FEF051C1FFF0DDECD6
:1030480012F0FCC052F1FDC053F1FEC054F1030E62
:1030580001015219D8A4120053515411D8A41200D6
:10306800440E0001986F7D0E996FC8EC21F04F92C5
:1030780012006FC075F070C076F071C077F072C042
:1030880078F075C060F076C061F077C062F078C003
:1030980063F073C064F074C065F00001000E65BF92
:1030A800FF0E666F676FDDEC1DF060C075F061C0E4
:1030B80076F062C077F063C078F000016D4B6E2B3C
:1030C8007551761177117811D8A4DBD76DC0D9FF67
:1030D8006EC0DAFF000EDF6E6D07D8A06E076FC0F6
:1030E80060F070C061F071C062F072C063F073C0CC
:1030F80064F074C065F0000E65BFFF0E666F676F01
:10310800A9EC20F000016051796F6FC060F070C0C9
:1031180061F071C062F072C063F073C064F074C093
:1031280065F0000E65BFFF0E666F676FDDEC1DF082
:1031380060C06FF061C070F062C071F063C072F07F
:10314800090E0001796502D0070E7927300E79271C
:103158006DC0D9FF6EC0DAFF79C0DFFF6D07D8A058
:103168006E076F51701171117211D8B41200B7D770
:103178004EEC14F0010120EE12F08651D926875149
:10318800DA22000178C0DEFF79C0DDFF010120EE00
:1031980012F08651D9268751DA22DFA635D086C1AA
:1031A80080F087C181F053EC1DF086C1D9FF87C13B
:1031B800DAFFDE04D8A40DD0000E00016E6F000EF9
:1031C8000CEC1DF0020E00016E6F010E0CEC1DF0F0
:1031D8000CD0010E00016E6F000E0CEC1DF0010EFC
:1031E80000016E6F010E0CEC1DF042EC26F060C081
:1031F8009AF061C09BF062C09CF063C09DF070ECD7
:1032080022F00B0E61EC26F0010120EE12F086513F
:10321800D9268751DA22DFA818D027EC26F0000932
:10322800D8B413D086C178F187C179F176EC00F073
:10323800010120EE0FF08651D9268751DA2278C194
:10324800DEFF79C1DEFF7AC1DEFF010120EE14F056
:103258008651D9268751DA22BAEC17F013EC12F00E
:103268001200000E0001696F6451631103E16205E9
:10327800D8A02FD06951010DB10EF324D96E020EDA
:10328800F420DA6E61C065F062C066F063C067F072
:1032980064C068F00D0E05D0D89068336733663384
:1032A8006533E82EF9D765510F0BB8EC25F0DF6EC2
:1032B8000001692B6951010DB10EF324D96E020E7C
:1032C800F420DA6E62510F0BB8EC25F0DF6E0001C6
:1032D800692B6951010DB10EF324D96E020EF42049
:1032E800DA6E61C065F062C066F063C067F064C002
:1032F80068F0050E05D0D8906833673366336533B8
:10330800E82EF9D765510F0BB8EC25F0DF6E0001F8
:10331800692B6951010DB10EF324D96E020EF42008
:10332800DA6E61510F0BB8EC25F0DF6E0001692BE6
:103338006951010DB10EF324D96E020EF420DA6E34
:10334800000EDF6E692BB10E616F020E626F120004
:10335800000E0001766F000E776F000E786F000E7A
:10336800796F000E7A6F000E7B6F070E7B6501D0B8
:103378002ED07B510E0D0A0EF326000EF4220F0EEE
:10338800F324D96E020EF420DA6EDE50765DDE503C
:103398007759DE507859DE507959D8B016D07B511C
:1033A8000E0D0A0EF326000EF4220F0EF324D96E2A
:1033B800020EF420DA6EDECF76F0DECF77F0DECFC5
:1033C80078F0DECF79F07BC07AF07B2BCED77A51BC
:1033D8000E0D0F0EF324D96E020EF420DA6E6AC0B9
:1033E800DEFF6BC0DEFF6CC0DEFF6DC0DEFF20EECF
:1033F80064F07A510E0D040EF326000EF4220F0E1F
:10340800F324E16E020EF420E26E050EDBCFE3FF3B
:10341800E806FCE27A510E0D0A0EF326000EF4229D
:103428000F0EF324D96E020EF420DA6E6EC0DEFFA2
:103438006FC0DEFF70C0DEFF71C0DEFF1200020E3B
:103448000001A46F000EA66F000EA56FA2C0D9FFE1
:10345800A3C0DAFFDECF84F0DDCF85F009EC03F0FE
:10346800000120EE10F0A251D926A351DA22080E4D
:10347800EBCFDBFFE806FCE220EE17F0A251D926DD
:10348800A351DA22DF50D8B407D0000EA46F000E83
:10349800A66F650EA56F120020EE16F0A251D92670
:1034A800A351DA22DF50D8A407D0000EA46F000E73
:1034B800A66FC70EA56F120020EE08F0A251D926FC
:1034C800A351DA2200EE6FF0050EDBCFEBFFE80622
:1034D800FCE220EE10F0A251D926A351DA2200EE28
:1034E80075F0080EDBCFEBFFE806FCE25FEC1EF0A0
:1034F800000120EE0EF0A251D926A351DA22DECF28
:103508006FF0DDCF70F020EE10F0A251D926A35154
:10351800DA2200EE71F0080EDBCFEBFFE806FCE2E2
:1035280098EC22F012009AC0D9FF9BC0DAFF10EE87
:103538009EF0160EDBCFE3FFE806FCE2000E00016A
:10354800AC6F000EAB6F9E0E606F000E616F02ECE9
:1035580009F0000120EE0DF09A51D9269B51DA228C
:10356800DE50AB1906E1DE50AC19D8A402D0D880E1
:1035780012007A0E986F7F0E996FC8EC21F0ABC0DD
:1035880061F0ACC062F00001636B646B35EC19F05C
:1035980061C098F062C099F0C8EC21F0B30E000148
:1035A800986F7F0E996FC8EC21F0000120EE0DF0A6
:1035B8009A51D9269B51DA22DECF9CF0DDCF9DF0BF
:1035C8009CC061F09DC062F0636B646B35EC19F0D0
:1035D80061C098F062C099F0C8EC21F0FB0E0001C0
:1035E800986F7F0E996FC8EC21F0D890120045C0F3
:1035F80011F0010E126E112A02D0D8901236112E37
:10360800FCD71250FF0A8216000E806E020E45602B
:1036180007D0010E4524136E146A000E142204D03C
:10362800000E146E000E136E13C045F0E80E0F5C0A
:10363800030E1058D8B01200000E156E020E156455
:1036480001D013D01550010D390EF324D96E000E98
:10365800F420DA6E0FC008F010C009F015C00AF0A7
:103668009FEC1EF0DF6E152AE9D745C011F0010E58
:10367800126E112A02D0D8901236112EFCD7125091
:1036880082124550010D390EF324D96E000EF42034
:10369800DA6EDF50116E1150010DD70EF324D96E7A
:1036A800020EF420DA6EDF50806E1200000E000168
:1036B800756F070E756501D050D075510E0D0F0E40
:1036C800F324606F020EF420616F670E626F000EC4
:1036D800636F95EC23F00001D8A03DD075510E0D15
:1036E8000A0EF326000EF4220F0EF324D96E020EF2
:1036F800F420DA6EDECF6DF0DECF6EF0DECF6FF045
:10370800DECF70F06D1F6E1F6F1F701F6D2B000EC8
:103718006E236F23702339EC26F000016D5160256C
:10372800716F6E516121726F6F516221736F7051A9
:103738006321746F745173110EE1300E715D750E53
:103748007259D8B008D06BC0D9FF6CC0DAFF75C009
:10375800DFFF010E1200752BACD7000E120091ECA2
:103768001FF021EE08F0050EEBCFDBFFE806FCE2C8
:1037780042EC26F060C000F161C001F162C002F1C4
:1037880063C003F10E0E0001606F010E616F6EECF5
:1037980025F0060E0101186F040E196F000E156F43
:1037A800010E146F080E176F000E166F000E1B6FB8
:1037B800010E1A6F00C122F101C123F102C124F1E7
:1037C80003C125F121EE08F011EE1CF0050EDBCF48
:1037D800E3FFE806FCE204C12CF105C12DF106C1A6
:1037E8002EF107C12FF121EE0EF011EE26F0050E95
:1037F800DBCFE3FFE806FCE221EE14F000EEA7F0D1
:103808001F0EDBCFEBFFE806FCE2EFEC0BF012003B
:1038180000016951601904E16A516119D8B429D0CD
:103828006B51621904E16C516319D8B422D060510C
:103838006B1904E161516C19D8B41BD06951621934
:1038480004E16A516319D8B414D06205300E635983
:10385800D8B00FD06005300E6159D8B00AD06B05CA
:10386800300E6C59D8B005D06905300E6A59D8A009
:1038780002D0D88012006251605D63516159D8B09E
:103888001ED06B51695D6C516A59D8B010D069511E
:10389800605D6A516159D8B012D06251695D635157
:1038A8006A59D8B002D0D8801200D890120060515E
:1038B8006B5D61516C59D8A0F8D7D8801200D880B8
:1038C80012001F0E076E000E086E000E096E000E25
:1038D8000A6EFF0E036E0F0E046E000E056E000ECC
:1038E800066E81BA07D0010E2D26000E2E222F2239
:1038F800302208D0000E2D6E000E2E6E000E2F6E98
:10390800000E306E07502D5C08502E5809502F5865
:103918000A503058D8A002D0010E01D0000E466ED1
:103928004650D8B411D04750D8A40ED007C02DF0B7
:1039380008C02EF009C02FF00AC030F001C0D9FF2E
:1039480002C0DAFF010E05D001C0D9FF02C0DAFFBC
:10395800000EDF6E2D50035C2E5004582F50055872
:1039680030500658D8A0FF0046C047F012000201A8
:10397800005100019A19D8B441D09A51D8A407D05F
:10398800490E986F7F0E996FC8EC21F00AD000019C
:103998009A05D8A406D0A30E986F7E0E996FC8EC2E
:1039A80021F000019A05D8A429D09B51D8A407D0AA
:1039B800900E986F7E0E996FC8EC21F00AD0000126
:1039C8009B05D8A406D0550E986F7E0E996FC8EC4B
:1039D80021F000019C51D8A407D0BD0E986F7D0E30
:1039E800996FC8EC21F00AD000019C05D8A406D034
:1039F800DA0E986F7D0E996FC8EC21F020EE9AF0E0
:103A080012EE00F00E0EDBCFE3FFE806FCE2120038
:103A180000016F6F700E00016A6F000E6B6F750EFC
:103A280063EC24F000016F05D8B40BD015D0F00E6C
:103A3800701770812CD0F00E18D0F00E7017060E8B
:103A480019D06E51000AD8B4F6D7010AD8B4EFD706
:103A5800030AD8B4F2D7EBD76F51D8B40DD017D02A
:103A68000F0E7017708913D00F0E701710D00F0E2D
:103A78007017600E70130BD06E51000AD8B4F4D7CB
:103A8800010AD8B4EDD7030AD8B4F1D7E9D7700E34
:103A98006A6F000E6B6F750E48EC24F01200820EF0
:103AA80000016A6F000E6B6F1B0E63EC24F00001BF
:103AB80082A106D080C0D9FF81C0DAFF010E05D0EF
:103AC80080C0D9FF81C0DAFF000EDF6E830E6E6FF3
:103AD800000E6F6F1F0E91EC15F0000183A708D040
:103AE80020EE01F08051D9268151DA22010E07D04B
:103AF80020EE01F08051D9268151DA22000EDF6EC6
:103B080083A909D020EE02F08051D9268151DA220A
:103B1800010EDF6E120020EE02F08051D92681518D
:103B2800DA22000EDF6E12000001706F080E00012D
:103B380070611ED0710E6A6F000E6B6F1C0E63EC05
:103B480024F070C06EF0010E00016F6F6E2B02D072
:103B5800D8906F376E2FFCD700016F51FF0A71178D
:103B6800710E6A6F000E6B6F1C0E48EC24F0120089
:103B7800080E0001705F710E6A6F000E6B6F1D0EEC
:103B880063EC24F070C06EF0010E00016F6F6E2BB5
:103B980002D0D8906F376E2FFCD700016F51FF0A03
:103BA8007117710E6A6F000E6B6F1D0E48EC24F0D2
:103BB8001200000E0001686F000E696F000E6A6F38
:103BC800000E6B6F6451651166116711D8B42AD065
:103BD800010E6C6F06D0D890643765376637673743
:103BE8006C2B67AFF8D7D890683769376A376B3767
:103BF8006451605D655161596651625967516359F5
:103C0800D8A009D06451605F6551615B6651625B01
:103C18006751635B6881D890673366336533643373
:103C28006C2FE1D768C060F069C061F06AC062F0CB
:103C38006BC063F012008E0EF66E490EF76E000E22
:103C4800F86E02EEC5F010EE2EF00900F5CFEEFF8B
:103C5800E550E150FAE1040EF66E4D0EF76E000ED7
:103C6800F86E00EE49F010EE06F00900F5CFEEFF11
:103C7800E550E150FAE103EE00F0790EEE6AE8064D
:103C8800FDE102EE00F0C50EEE6AE806FDE101EE88
:103C98008BF0660EEE6AE806FDE14F6A00EE29F049
:103CA800200EEE6AE806FDE150905092000EF86E84
:103CB800000188EF0AF075C06AF076C06BF0D4ECAA
:103CC80023F0000E0001866F050E866501D014D022
:103CD8008651010D6F0EF324D96E000EF420DA6EB2
:103CE8008651010D7E0EF324E16E000EF420E26E83
:103CF800DFCFE7FF862BE8D72A0E846F8198840EE2
:103D0800606F000E616F10EC21F0000E0001856FEE
:103D1800050E856501D00DD08551010D7E0EF32469
:103D2800606F000EF420616F10EC21F00001852B0C
:103D3800EFD78188120008C001F009C002F0000E18
:103D4800046E640E036E47EC22F001500E6E0E50A6
:103D5800640DF31EF41EF34AF42A0850F324016E8E
:103D68000950F420026E000E046E0A0E036E47EC32
:103D780022F001500D6E0D500A0DF3CF0BF00E50CE
:103D8800640DF3500B24000808240C6E08D00C5066
:103D980012000D5012000E501200000E12000A50B0
:103DA800000AD8B4F8D7010AD8B4F3D7030AD8B4AC
:103DB800EED7F3D774EC26F060C075F061C076F0EA
:103DC80075C06AF076C06BF0F2EC23F02C0E00019F
:103DD800776F8198770E606F000E616F10EC21F09D
:103DE800780E0001606F000E616F74EC20F0790EA0
:103DF8000001606F000E616F74EC20F08188000E86
:103E080000016F6FFF0E706F7951726F716B6F5198
:103E18007117705172177851736F746B71517311F8
:103E2800606F72517411616F79EC26F01200000115
:103E38007C6F3E503F10D8A410D06FC06AF070C09D
:103E48006BF0D4EC23F02A0E00017D6F81987D0E73
:103E5800606F000E616F10EC21F07C0E0001606F46
:103E6800000E616F10EC21F0FF0E0001786FFF0E5D
:103E7800796F20EE73F0DECF7AF0DDCF7BF07851EA
:103E88007A2779517B233E507A190AE13F507B19F2
:103E9800D8A406D08188000E3F6E000E3E6E120038
:103EA8003E4A3F2A1200020E000171256A6F000E79
:103EB80072216B6FF2EC23F02C0E0001766F819863
:103EC800760E606F000E616F10EC21F0000E00019D
:103ED800776F050E776501D00DD07751010DE70E8C
:103EE800F324606F010EF420616F74EC20F0000180
:103EF800772BEFD78188E70E606F010E616F74EC46
:103F080007F0E9CFD9FFEACFDAFF00EE71F0040E2F
:103F1800DBCFEBFFE806FCE21200740E00016A6FCB
:103F2800000E6B6F640E63EC24F0750E00016A6F6F
:103F3800000E6B6F650E63EC24F0760E00016A6F5D
:103F4800000E6B6F620E63EC24F0770E00016A6F4F
:103F5800000E6B6F630E63EC24F0780E00016A6F3D
:103F6800000E6B6F600E63EC24F0790E00016A6F2F
:103F7800000E6B6F610E63EC24F020EE74F000EE1F
:103F88006EF0050EDBCFEBFFE806FCE21200E9EC71
:103F980025F0B1EC16F06EC07DF06FC07EF070C0F9
:103FA8007FF0BFEC22F06EC07DF06FC07EF070C075
:103FB8007FF0300E00016F6F000E6E6F1DEC25F064
:103FC800300E0001616F000E606F79EC26F05F0E15
:103FD80000016F6FFE0E6E6F08EC25F07EEC26F088
:103FE8005AEC25F0010E00017D6F000E7F6F000E68
:103FF8007E6F7DC07AF07EC07BF07FC07CF01200BF
:10400800000E00017D6F000E7C6F140E6F256A6F25
:10401800000E70216B6FF2EC23F02C0E00017E6F06
:1040280081987E0E606F000E616F10EC21F0800E9B
:104038000001606F000E616F74EC20F07F0E0001CC
:10404800606F000E616F74EC20F000018051796F91
:10405800786B7F517A6F7B6B78517A117C6F7951CD
:104068007B117D6F81887CC06FF07DC070F012007D
:104078000E0E00016F256A6F000E70216B6FF2EC57
:1040880023F02C0E0001786F8198780E606F000E77
:10409800616F10EC21F0000E0001806F050E806545
:1040A80001D013D07F0E606F000E616F74EC20F0AA
:1040B80000018051010D790EF324D96E000EF42011
:1040C800DA6E7FC0DFFF802BE9D7818820EE79F098
:1040D80000EE6FF0050EDBCFEBFFE806FCE2120006
:1040E800000E0001666F000E676F000E686F000E0D
:1040F800696F000EC96EC7B015D066C062F067C0A0
:1041080063F068C064F069C065F0662B000E672331
:10411800682369236551641105E162290F0E63590B
:10412800D8A0E9D76951681105E166290F0E6759CA
:10413800D8A004D08188E9EC25F0120060C0D9FF2E
:1041480061C0DAFFC9CFDFFF1200000164516511B9
:1041580066116711D8B424D0010E686F06D0D890C4
:104168006437653766376737682B67AFF8D76451A8
:10417800605D655161596651625967516359D8A0AC
:1041880008D06451605F6551615B6651625B67513D
:10419800635BD8906733663365336433682FE7D73A
:1041A80060C060F061C061F062C062F063C063F03B
:1041B80012007C0E0001606F000E616F6EEC25F03E
:1041C800820E0001606F000E616FDAEC25F0000EC0
:1041D8000001866F070E866501D0120020EE7CF084
:1041E80000EE64F0050EDBCFEBFFE806FCE282C0D0
:1041F8006AF083C06BF084C06CF085C06DF0FF0E70
:104208006E6FFF0E6F6FFF0E706FFF0E716FACEC6D
:1042180019F00001862BDED7000E0001666F000E34
:10422800676F000E686F000E696F60C0D9FF61C0CC
:10423800DAFFDF50C96EC7B015D066C062F067C03C
:1042480063F068C064F069C065F0662B000E6723F0
:10425800682369236551641105E162290F0E6359CA
:10426800D8A0E9D76951681105E166290F0E675989
:10427800D8A012008188E9EC25F012000001716FC6
:104288001FD06FC06AF070C06BF0F2EC23F02C0EF8
:104298000001726F8198720E606F000E616F10ECF2
:1042A80021F0000E1200730E0001606F000E616FA6
:1042B80074EC20F00001735112008188000E120086
:1042C80000017151000AD8B4DCD7010AD8B4EBD781
:1042D800030AD8B4F2D7000E1200000E0001686F6E
:1042E800000E696F000E6A6F000E6B6F60A108D038
:1042F800645168276551692366516A2367516B23A6
:10430800D8906437653766376737D8906333623338
:10431800613360336051611162116311D8A4E6D72B
:1043280068C060F069C061F06AC062F06BC063F099
:10433800120049C060F04AC061F04BC062F04CC046
:1043480063F06D0E0001646F4E0E656FC60E666FEA
:10435800410E676F71EC21F060C049F061C04AF00E
:1043680062C04BF063C04CF0390E4926300E4A2229
:10437800000E4B22000E4C22FF0E4B1400016C6FF6
:104388007F0E4C146D6F120016D098C0F6FF99C0BE
:10439800F7FFF86A070EF76403D00800F55005D058
:1043A800F6CFE9FFF7CFEAFFEF50AD6E0001984B6B
:1043B800992BACA2FED798C0F6FF99C0F7FFF86A10
:1043C800070EF76403D00800F55005D0F6CFE9FFD3
:1043D800F7CFEAFFEF500009D8B41200D6D7000E85
:1043E8000001666F000E656F62516311D8B41CD06E
:1043F800010E646F04D0D89062376337642B63AFC3
:10440800FAD7D890653766376251605D6351615954
:10441800D8A005D06251605F6351615B6581D89017
:1044280063336233642FEDD765C060F066C061F016
:1044380012007AC082F07BC083F000017FAF10D0F9
:104448007AC0D9FF7BC0DAFF2D0EDF6E7A4B7B2B4B
:104458007F1F7E1F7D1F7C6D000E7D237E237F23A3
:104468007AC06DF07BC06EF07CC06FF07DC070F0DC
:104478007EC071F07FC072F080C073F081C074F0AC
:104488003DEC18F01200000E066E000E056E03508B
:104498000410D8B41CD0010E076E04D0D89003368F
:1044A8000436072A04AEFAD7D890053606360350E4
:1044B800015C04500258D8A005D00350015E045096
:1044C800025A0580D89004320332072EEDD705C072
:1044D80001F006C002F01200F70E0001986F7B0E83
:1044E800996FC8EC21F09AC073F09BC074F09CC01F
:1044F80075F09DC076F06FEC0FF073C098F074C043
:1045080099F0C8EC21F0DB0E0001986F7F0E996FCF
:10451800C8EC21F09AC0D7F19BC0D8F19CC0D9F162
:104528009DC0DAF14F801200060E000171256A6FF6
:10453800000E72216B6FD4EC23F06FC07AF000018B
:1045480070517B6F2A0E7C6F81987C0E606F000E15
:10455800616F10EC21F07B0E0001606F000E616F3F
:1045680010EC21F07A0E0001606F000E616F10EC04
:1045780021F081881200010E0001726F000E746F25
:10458800000E736F000E716F710E6A6F000E6B6F05
:10459800740E63EC24F000017139E842070B070B35
:1045A800E806D8A404D0000E746F000E03D0010EE4
:1045B800746F2D0E736F72C06EF073C06FF074C09D
:1045C80070F01200760E00016A6F000E6B6F1C0E01
:1045D80063EC24F0770E00016A6F000E6B6F1D0EFE
:1045E80063EC24F0000E0001706FFF0E716F7751BD
:1045F800736F726B70517217715173177651746FB4
:10460800756B725174116E6F735175116F6F120063
:104618000001626F15D0D60E0001606F7F0E616FCA
:104628001200E50E606F7F0E616F1200E90E606F79
:104638007F0E616F1200DB0E606F7E0E616F1200DD
:1046480000016251010AD8B4E6D7070AD8B4E9D7FD
:10465800170AD8B4EBD7EFD710D0D10E0001606F8E
:104668007F0E616F1200ED0E606F7F0E616F12009A
:10467800C90E606F7E0E616F120060C062F061C08B
:1046880063F000016351080AD8A4F2D76251000A06
:10469800D8B4E3D7060AD8B4E6D7EAD700017051F0
:1046A8007111D8B418D0010E726F04D0D890703739
:1046B8007137722B71AFFAD770516E5D71516F59A6
:1046C800D8A004D070516E5F71516F5BD890713370
:1046D8007033722FF1D76EC06EF06FC06FF012009A
:1046E800000E0001666F050E666501D018D0665190
:1046F800010DF3506225D96EF4506321DA6E6651CC
:10470800010DF3506025E16EF4506121E26EDE5038
:10471800E618D8B402D0D8901200662BE4D7D88017
:104728001200000E0001666F030E666501D018D0F6
:104738006651010DF3506225D96EF4506321DA6E8B
:104748006651010DF3506025E16EF4506121E26E6F
:10475800DE50E618D8B402D0D8901200662BE4D701
:10476800D88012005AEC26F0300E0001631962114D
:10477800D8A407D05F0E6F6FFE0E6E6F08EC25F0A1
:104788000BD05AEC26F0FE0E000162256E6FFF0E6C
:1047980063216F6F08EC25F0CC0E11EC26F01200A7
:1047A8006C0E00016C6F6AC06DF06B516E6F819872
:1047B8006C0E606F000E616F10EC21F06D0E000141
:1047C800606F000E616F10EC21F06E0E0001606FDB
:1047D800000E616F10EC21F081881200640E000158
:1047E8006C6F6AC06DF06B516E6F81986C0E606F64
:1047F800000E616F10EC21F06D0E0001606F000E6D
:10480800616F10EC21F06E0E0001606F000E616F99
:1048180010EC21F081881200000E0001606F070E75
:10482800606501D013D06051090D060EF326000E05
:10483800F4228B0EF324D96E010EF420DA6EDF50C9
:10484800D8A402D0D8901200602BE9D7D8801200E3
:10485800000E0001606F070E606501D013D0605133
:10486800090D060EF326000EF4228B0EF324D96EE2
:10487800010EF420DA6EDF50D8B402D0D8901200BE
:10488800602BE9D7D880120000016C6F220E00015E
:104898006D6F81986D0E606F000E616F10EC21F0E6
:1048A8006C0E0001606F000E616F10EC21F06AC0A1
:1048B80060F06BC061F010EC21F0818812000001FB
:1048C8006C6F200E00016D6F81986D0E606F000E89
:1048D800616F10EC21F06C0E0001606F000E616FCB
:1048E80010EC21F06AC060F06BC061F074EC20F04D
:1048F80081881200BB0E00017A6F020E7B6F84C0A4
:104908007CF085C07DF086C07EF087C07FF0000E09
:10491800816F0A0E806F1DEC22F0BB0E0001846FC0
:10492800020E856F1200000E0001626F050E6265AF
:1049380001D00FD06251010DF3506025D96EF450AB
:104948006121DA6EDF50D8B402D0D8901200622B01
:10495800EDD7D8801200000E0001626F030E626569
:1049680001D00FD06251010DF3506025D96EF4507B
:104978006121DA6EDF50D8B402D0D8901200622BD1
:10498800EDD7D88012003F3F3A3F3F3A3F3F3A3F8A
:104998003F3A3F3F3A3F3F003F065B4F666D7D071A
:1049A8007F6F00403F3F3F2E3F3F3F2E3F3F3F2E10
:1049B8003F3F3F006EC070F000016F51716F700E85
:1049C8006A6F000E6B6F000E48EC24F0710E000148
:1049D8006A6F000E6B6F010E48EC24F012006EC077
:1049E80070F000016F51716F700E6A6F000E6B6F7F
:1049F800020E48EC24F0710E00016A6F000E6B6F16
:104A0800030E48EC24F012006EC070F000016F51E4
:104A1800716F700E6A6F000E6B6F060E48EC24F013
:104A2800710E00016A6F000E6B6F070E48EC24F0E0
:104A380012006EC070F000016F51716F700E6A6FD6
:104A4800000E6B6F040E48EC24F0710E00016A6FC3
:104A5800000E6B6F050E48EC24F012000001605147
:104A68006203F3CF64F0F4CF65F060516303F35051
:104A7800652761516203F350652764C060F065C023
:104A880061F0120072C06EF073C06FF0DEEC24F0BB
:104A980076C06EF077C06FF0F3EC24F0D40E11EC12
:104AA80026F000017A5194EC25F01200000E000166
:104AB8006E6F6E0E6A6F000E6B6F6F0E63EC24F0F4
:104AC80000016E8B6E0E6A6F000E6B6F6F0E48ECF6
:104AD80024F01200000E0001626F050E626501D01D
:104AE80012006251010DF3506025D96EF450612116
:104AF800DA6E000EDF6E622BF0D7000E0001626FD7
:104B0800050E626501D012006251010DF350602557
:104B1800D96EF4506121DA6EFF0EDF6E622BF0D78A
:104B28000001606F00016051090D060EF326000EAA
:104B3800F4228B0EF324D96E010EF420DA6E000EE7
:104B4800DF6E1200A90EF66E7A0EF76E20EE62F096
:104B58000A0E0900F5CFDEFFE806FBE2620E00014F
:104B6800606F000E616F12000001606F0A0E000195
:104B7800606103D06051300F1200100E606103D0E5
:104B88006051370F1200000E12009AC084F09BC0CB
:104B980085F09CC086F09DC087F07EEC24F084C030
:104BA80098F085C099F0C8EC21F01200000E0001C1
:104BB800626F030E626501D0120060C0D9FF61C048
:104BC800DAFF000EDF6E622BF4D7C69AC78C93808B
:104BD8000F015C9193925C9393965C9793985C9980
:104BE8008188C68A1200F80E8216F80E9416000EF6
:104BF800926E000E0F015B6FF80E5D178068120051
:104C0800000E00016E6F6E0E6A6F000E6B6F1A0E4B
:104C180063EC24F000016E51120000016A6F819864
:104C28006A0E0001606F000E616F10EC21F0818840
:104C3800120060C03CF061C03DF04FB002D0D89087
:104C48001200D880120004EC26F00009D8B402D073
:104C5800010E1200000E1200D7C160F0D8C161F039
:104C6800D9C162F0DAC163F0120029C060F02AC02D
:104C780061F02BC062F02CC063F01200DFC160F05D
:104C8800E0C161F0E1C162F0E2C163F01200AC8AF8
:104C9800AC98AB8EAC8CAC80030EAF6E12007AC0B1
:104CA80049F07BC04AF04B6A4C6A120074EC26F05B
:104CB80060C062F061C063F012000001726F000111
:104CC800725198EC1DF01200010E2926000E2A22BE
:104CD8002B222C221200DDEC20F088EC26F01200AA
:104CE80042C060F043C061F0120060C042F061C091
:104CF80043F01200E80E11EC26F01200010000004B
:0C4D0800123404EC26F012004F90120050
:107AA80000454E433432344A36303000495076343B
:107AB8003A20466C6167207761732072657365743C
:107AC80020626563617573652061646472657373B0
:107AD800206368616E67652077617320756E7375C2
:107AE800636365737366756C2E0A0D0049507634AE
:107AF8003A20466C616720776173207265736574FC
:107B0800206265636175736520616464726573736F
:107B1800206368616E676520697320636F6D706CA0
:107B28006574652E0A0D0045746865726E6574206B
:107B3800636F6E74726F6C6C65722068617320720B
:107B4800657475726E656420616E20756E6B6E6FFC
:107B5800776E206465766963652049442E002D2D73
:107B68002D2D2D2D2D2D2D2D2D2D2D2D2D2D2D2D3D
:107B78002D2D2D2D2D2D2D2D2D2D2D2D2D2D2D2D2D
:107B88002D2D2D2D2D2D2D2D2D2D2D2D2D2D0A0D60
:107B980000072A2A2A20435249544943414C204588
:107BA80052524F523A205741544348444F4720437A
:107BB8004155534544205245534554202A2A2A0A00
:107BC8000D00495076343A204152502073656E7446
:107BD800206D6178696D756D206E756D62657220B6
:107BE8006F662072657175657374732E0A0D00498E
:107BF8005076343A205265717565737420666F72D9
:107C0800206E657720495020736F75726365206117
:107C1800646472657373202800495076343A2041B1
:107C280052502072657475726E656420616E20759D
:107C38006E6B6E6F776E206572726F722E0A0D0012
:107C48005B496E76616C696420415250204D6573C2
:107C58007361676520776173206469736361726417
:107C680065642E5D0D0A00207761732073657420AA
:107C7800746F20746865207072656C696D696E61D7
:107C88007279206164647265737320280045746892
:107C980065726E657420636F6E74726F6C6C65725A
:107CA80020697320756E726573706F6E736976657F
:107CB8002E004152503A2049507634206164647253
:107CC80065737320616C726561647920696E2075D3
:107CD8007365210A0D00495076343A204164647274
:107CE80065737320697320616C72656164792069BA
:107CF8006E207573652E0A0D004950206164647208
:107D080065737320636F756C64206E6F7420626591
:107D1800207265736F6C7665642E004152503A206C
:107D2800416E20756E6B6E6F776E206572726F7222
:107D3800206F6363757265642E0A0D004152503AD4
:107D480020416C6C20416E6E6F756E63656D656E5B
:107D580074732073656E742E0A0D00495076343A98
:107D6800204152502072657475726E656420737577
:107D780063636573732E0A0D002045544845524EBF
:107D8800455420434F4E54524F4C4C4552204D4F72
:107D980044554C453A2000416E20756E6B6E6F77E6
:107DA8006E206572726F7220686173206F636375ED
:107DB8007265642E00636F6E6E656374696F6E2002
:107DC80069732048616C66204475706C65782E0A6A
:107DD8000D00636F6E6E656374696F6E2069732042
:107DE80046756C6C204475706C65782E0A0D0041E0
:107DF80052503A204E6F626F647920616E737765D6
:107E08007265642E0A0D004649524D57415245206D
:107E18004255494C44204441544520495320004987
:107E28005076343A204F6C642049502053726320B6
:107E3800416464722000536F75726365204D41433D
:107E480020616464726573732069732000537065E0
:107E5800656420697320313030204D6270732C20A6
:107E6800005B556E6B6E6F776E2045746865725453
:107E78007970655D005B494E56414C494420434842
:107E880045434B53554D5D005370656564206973D8
:107E9800203130204D6270732C20004C696E6B20AD
:107EA80065737461626C69736865642E200020458F
:107EB800544845524E4554204D4F44554C453A2060
:107EC80000556E6B6E6F776E2045746865725479D5
:107ED800706500556E6B6E6F776E2050726F746FA1
:107EE800636F6C00204D454D4F5259204D4F4455FE
:107EF8004C453A20005B5265706C792073656E744E
:107F080020746F20005B53796D626F6C204572722C
:107F18006F72735D005B4973477261747569746F42
:107F280075735D002049507634204D4F44554C45BB
:107F38003A200020415250204D4F44554C453A209C
:107F4800004C696E6B206C6F73742E0A0D002064F0
:107F5800657465637465642E20004D617220313745
:107F68002032303139005B42726F6164636173742F
:107F78005D005B457870656374656420005B4973D8
:107F880050726F62655D005B556E69636173745D05
:107F9800002028436F64653A200031393A34363A74
:107FA8003235005B4552524F525D002C20676F748A
:107FB80020005B495076345D005B4152505D0020E3
:107FC8002D3E20005D2D3E5B00495076340049432C
:107FD8004D5000292E0A0D005D5B4C3D0054435066
:107FE8000055445000415250005D20002D3E005D78
:087FF8005B00295D001200008E
:020000040020DA
:08000000FFFFFFFFFFFFFFFF00
:020000040030CA
:0E00000002285F2BFFD385FF0FC00FE00F40DB
:00000001FF
