:0400000062EF00F0BB
:100008004F82FACF16F0FBCF17F0E9CF18F0EACFFE
:1000180019F0E1CF1AF0E2CF1BF0D9CF1CF0DACFFC
:100028001DF0F3CF1EF0F4CF1FF0F6CF20F0F7CF7E
:1000380021F0F8CF22F0F5CF23F04FC024F050C0C4
:1000480025F051C026F052C027F0F2A40FD0F29448
:100058005DEC22F030C00FF031C010F06DEC18F0FC
:10006800D30E016E010E026E81EC1AF0F0B2F0921E
:1000780027C052F026C051F025C050F024C04FF0E0
:1000880023C0F5FF22C0F8FF21C0F7FF20C0F6FF0C
:100098001FC0F4FF1EC0F3FF1DC0DAFF1CC0D9FF4C
:1000A8001BC0E2FF1AC0E1FF19C0EAFF18C0E9FF50
:1000B80017C0FBFF16C0FAFF4F921100E0EF1CF0CB
:1000C800000E00019B6F80518111D8A40BD0998339
:1000D80020EE93F000EE80F0070EDBCFEBFFE80692
:1000E800FCE21200D9EC20F00009D8B40CD00001D1
:1000F800998320EE93F000EE80F0070EDBCFEBFF44
:10010800E806FCE21200F6EC20F00009D8B440D270
:10011800300E0001815DD8A00BD0998320EE93F0BA
:1001280000EE80F0070EDBCFEBFFE806FCE21200E2
:10013800000E0101816F000E806F80C082F181C0C6
:1001480083F180C084F181C085F18681000E876FBC
:1001580021EE80F000EE80F0070EDBCFEBFFE80623
:10016800FCE2120000019B51080D060EF326000E5A
:10017800F422800EF324D96E010EF420DA6E010108
:10018800DFB0F5D100019B51D8B407D0FF0E9B25F5
:100198008E6F8F6BFF0E8F2304D0000E8F6F070EAC
:1001A8008E6F8EC088F08FC089F0D89088378937D5
:1001B800D89088378937D89088378937020E8827AA
:1001C800000E8923800E8825D96E010E8921DA6EEA
:1001D800DECF8AF0DDCF8BF0010E8A27000E8B234D
:1001E8009B51080D800EF324D96E010EF420DA6EAF
:1001F8008AC0DEFF8BC0DDFF9B51080D800EF32403
:10020800D96E010EF420DA6EDECF88F0DDCF89F0EA
:1002180080518827815189238805300E8959D8A0B3
:10022800D1D0070E9B19D8A4CDD0010186B1CAD070
:1002380000019B51080D040EF326000EF422800ED7
:10024800F324D96E010EF420DA6E80C0DEFF81C07F
:10025800DDFF9B51080D040EF326000EF422800EDC
:10026800F324D96E010EF420DA6EDECF88F0DDCFEC
:1002780089F0FF0E8A6F2F0E8B6F9B51080D800E31
:10028800F324D96E010EF420DA6EDECF8CF0DDCFC8
:100298008DF08C1F8D1F8C4B8D2B8A518C278B5189
:1002A8008D238C1F8D1F8C4B8D2B88518C2789514A
:1002B8008D239B51080D020EF326000EF422800EAA
:1002C800F324D96E010EF420DA6E8CC0DEFF8DC0E7
:1002D800DDFF000E916F070E916501D046D09B514E
:1002E8009119D8B43FD09B51080D800EF324D96ED4
:1002F800010EF420DA6E00EE70F0070EDBCFEBFF94
:10030800E806FCE29151080D800EF324D96E010E27
:10031800F420DA6E00EE78F0070EDBCFEBFFE8068C
:10032800FCE200EC17F00009D8B41CD00001915190
:10033800080D060EF326000EF422800EF324D96E63
:10034800010EF420DA6E0101DFA00CD000019983C0
:1003580020EE93F000EE80F0070EDBCFEBFFE8060F
:10036800FCE212000001912BB6D79B51080D060E36
:10037800F326000EF422800EF324D96E010EF42029
:10038800DA6E0101DF8000019B51080D070EF3268C
:10039800000EF422800EF324D96E010EF420DA6EDA
:1003A8009BC0DFFF9B51080D800EF324D96E010E10
:1003B800F420DA6E00EE80F0070EDBCFEBFFE806E4
:1003C800FCE21200010E0001906F9B51080D800E97
:1003D800F324D96E010EF420DA6EDECF88F0DDCF7B
:1003E80089F080518827815189239B51080D020E7D
:1003F800F326000EF422800EF324D96E010EF420A9
:10040800DA6E88C0DEFF89C0DDFF000E926F070E2E
:10041800926501D03DD09B519219D8B436D09251F3
:10042800080D060EF326000EF422800EF324D96E72
:10043800010EF420DA6E0101DFA027D000019B51E4
:10044800080D800EF324D96E010EF420DA6E00EE4A
:1004580070F0070EDBCFEBFFE806FCE29251080DC7
:10046800800EF324D96E010EF420DA6E00EE78F0D7
:10047800070EDBCFEBFFE806FCE200EC17F0000903
:10048800D8B403D0000E0001906F0001922BBFD7A3
:100498009051D8B46CD09B51080D060EF326000E6F
:1004A800F422800EF324D96E010EF420DA6E0101D5
:1004B800DF8000019B51080D800EF324D96E010ED8
:1004C800F420DA6EDECF88F0DDCF89F080518827FE
:1004D800815189239B51080D020EF326000EF42248
:1004E800800EF324D96E010EF420DA6E88C0DEFF88
:1004F80089C0DDFF9B51080D060EF326000EF4227D
:10050800800EF324D96E010EF420DA6E0101DF9219
:1005180000019B51080D040EF326000EF422800EF4
:10052800F324D96E010EF420DA6E80C0DEFF81C09C
:10053800DDFF9B51080D070EF326000EF422800EF6
:10054800F324D96E010EF420DA6E9BC0DFFF9B51B5
:10055800080D800EF324D96E010EF420DA6E00EE39
:1005680080F0070EDBCFEBFFE806FCE2120000018B
:100578009B2B080E9B19D8A40BD0998320EE93F0DF
:1005880000EE80F0070EDBCFEBFFE806FCE212007E
:10059800080E00019B65E6D51200020E0001FA6FF5
:1005A800000EFC6F000EFB6F1FEC23F0010120EE24
:1005B80010F07651D9267751DA22000162C0DEFFA9
:1005C80063C0DDFF010120EE16F07651D926775180
:1005D800DA22DF8020EE10F07651D9267751DA2220
:1005E800DECF71F0DDCF72F01BEC1DF0010120EEC3
:1005F80018F07651D9267751DA22040EEBCFDBFFBB
:10060800E806FCE220EE18F07651D9267751DA2276
:1006180010EE14F07651E1267751E222DECFE6FFA4
:10062800DDCFE5FF20EE14F07651D9267751DA2296
:10063800DECFF2F0DDCFF3F020EE10F07651D926C0
:100648007751DA22DECFF4F0DDCFF5F00001F25178
:10065800F427F351F523600EF55DD8A040D0000EC5
:10066800F26F300EF36F010120EE14F07651D926A7
:100678007751DA22DECFF4F0DDCFF5F0FF0E00017E
:10068800F66F2F0EF76F010120EE10F07651D92684
:100698007751DA22DECFF8F0DDCFF9F00001F81F4C
:1006A800F91FF84BF92BF651F827F751F923F81FE2
:1006B800F91FF84BF92BF451F827F551F923F251AA
:1006C800F827F351F923010120EE12F07651D926CB
:1006D8007751DA22F8C0DEFFF9C0DDFF25D001012D
:1006E80020EE14F07651D9267751DA22DECFF2F0D7
:1006F800DDCFF3F020EE10F07651D9267751DA22CB
:10070800DECFF4F0DDCFF5F00001F251F427F3511C
:10071800F523010120EE12F07651D9267751DA221D
:10072800F4C0DEFFF5C0DDFFE0EC1BF0010120EEB8
:100738000EF07651D9267751DA2200016FC0DEFF1C
:1007480070C0DDFF010120EE1AF07651D9267751ED
:10075800DA22DFAE07D08B0E0001986F7F0E996FFB
:10076800FBEC1EF0010120EE1CF07651D9267751E2
:10077800DA22DFA407D0A10E0001986F7F0E996FCF
:10078800FBEC1EF0010120EE1AF07651D9267751C4
:10079800DA22DFBA9ED01A0E0001986F7F0E996F89
:1007A800FBEC1EF096D0D40E0001986F7F0E996F67
:1007B800FBEC1EF076C154F177C155F1B2EC10F0A4
:1007C800ABD0CD0E0001986F7F0E996FFBEC1EF039
:1007D80076C19AF077C19BF0C3EC22F09DD0DD0E74
:1007E8000001986F7F0E996FFBEC1EF0010120EE5F
:1007F80002F07651D9267751DA2200EE7AF0050E0A
:10080800DBCFEBFFE806FCE27CEC16F07AC098F050
:100818007BC099F0FBEC1EF0F50E0001986F7F0E7F
:10082800996FFBEC1EF0010120EE08F07651D926F5
:100838007751DA2200EE7AF0050EDBCFEBFFE806FF
:10084800FCE27CEC16F07AC098F07BC099F0FBECE7
:100858001EF0F80E0001986F7F0E996FFBEC1EF0EA
:10086800010120EE0EF07651D9267751DA22DECF3B
:1008780060F0DDCF61F017EC20F060C098F061C047
:1008880099F0FBEC1EF0E90E0001986F7F0E996F4E
:10089800FBEC1EF076C1D9FF77C1DAFFDECFF2F0AC
:1008A800DDCFF3F0F2C09AF0F3C09BF000019C6B2F
:1008B8009D6B94EC22F0FC0E0001986F7F0E996FEF
:1008C800FBEC1EF076C172F077C173F0CCEC18F037
:1008D80023D0010120EE0EF07651D9267751DA2285
:1008E800DECFF2F0DDCFF3F00001F351080AD8B4FF
:1008F80004D0800AD8B40CD072D7F251000AD8B408
:1009080060D7060AD8B44FD7440AD8B405D067D7F9
:10091800F251080AD8A463D7DD0E0001986F7F0E44
:10092800996FFBEC1EF0010120EE10F07651D926EC
:100938007751DA22DECFF2F0DDCFF3F0F2C073F0B8
:10094800F3C074F00001756B766BA1EC0BF073C00B
:1009580098F074C099F0FBEC1EF0150E0001986F2A
:100968007F0E996FFBEC1EF0010120EE12F076511C
:10097800D9267751DA22DECFF2F0DDCFF3F0F2C0DC
:1009880073F0F3C074F00001756B766BA1EC0BF09B
:1009980073C098F074C099F0FBEC1EF0F20E0001E1
:1009A800986F7F0E996FFBEC1EF0010120EE14F09A
:1009B8007651D9267751DA22DECFF2F0DDCFF3F087
:1009C800F2C073F0F3C074F00001756B766BA1ECA4
:1009D8000BF073C098F074C099F0FBEC1EF0FB0E9E
:1009E8000001986F7F0E996FFBEC1EF0F70E000167
:1009F800986F7C0E996FFBEC1EF01200FC0ED3165C
:100A0800D3508F0B6009D36ED288F29EF28AF08899
:100A18009F9A9D8AF28CD58ED58CD59AD596D5502D
:100A2800F80B0509D56E17EC23F0DFEC22F0340E35
:100A38000001986F7E0E996FFBEC1EF07F0E00018F
:100A4800986F7F0E996FFBEC1EF08A0E0001986F6D
:100A58007E0E996FFBEC1EF0B40E0001986F7F0EAE
:100A6800996FFBEC1EF0F70E0001986F7C0E996FE2
:100A7800FBEC1EF0210E0001986F7D0E996FFBECC8
:100A88001EF08FEC1DF0A6C097F3A7C098F3A8C07E
:100A980099F3030198519911D8B408D097C39AF0E3
:100AA80098C39BF099C39CF0F1EC15F0CAEC1FF0C9
:100AB8006EC097F36FC098F370C099F30301985113
:100AC8009911D8A40FD082EC22F060C098F061C0D0
:100AD80099F0FBEC1EF0730E0001986F7F0E996F72
:100AE800FBEC1EF0630E0001986F7E0E996FFBEC15
:100AF8001EF0A5EC22F001017D6F7D5100019A6F77
:100B08009B6B9C6B9D6B94EC22F0E50E0001986F3B
:100B18007F0E996FFBEC1EF04C0E0001986F7E0E55
:100B2800996FFBEC1EF055EC1DF0E9CFD9FFEACF29
:100B3800DAFF00EE7AF0050EDBCFEBFFE806FCE209
:100B48007CEC16F07AC098F07BC099F0FBEC1EF0B4
:100B5800E50E0001986F7F0E996FFBEC1EF0FF0EFB
:100B68000001986F7D0E996FFBEC1EF0C70E000117
:100B7800986F7C0E996FFBEC1EF065EC1EF0000E72
:100B880000016E6F000ECAEC1EF0000E00016E6FC1
:100B9800010ECAEC1EF0150E01017E6F4B0E7D6F23
:100BA800BE0EE82EFED77D2FFCD77E2FFAD700F099
:100BB800010E00016E6F000ECAEC1EF0010E00015E
:100BC8006E6F010ECAEC1EF0000E0301706F000E6E
:100BD800716F000E726F000E736F0F015C9B938A2A
:100BE800800E0201186F1F0E196F120E1A6F1B0E5E
:100BF8001B6F6A0E1C6F2F0E1D6FC00E03019A6FBC
:100C0800A80E9B6F000E9C6F040E9D6FA90E9E6F21
:100C1800FE0E9F6F6C0EA06F870EA16FF28EF28C86
:100C280004000F0E0101796F020E7A6FDDEC0FF0F0
:100C380022EE0FF000EE9AF00E0EDBCFEBFFE80687
:100C4800FCE230EC1AF002010F51D8B409D03BECA9
:100C580023F001017D6F7D510301946F956B05D0E1
:100C6800030E0301956FE80E946F94C330F095C39B
:100C780031F0000E31BEFF0E326E336E0101D351DA
:100C8800D8B4CED7000ED36F02010F05D8A4C8D7A9
:100C98009EC354F29FC355F2A0C356F2A1C357F2A4
:100CA8009AC350F29BC351F29CC352F29DC353F2B4
:100CB800000E466F780E456F4C69040E416F410E69
:100CC8000001606F020E616FCCEC06F022EE41F07D
:100CD80000EE60F0160EDBCFEBFFE806FCE2740EC8
:100CE8000001776F030E786F40EC12F0410E00019F
:100CF800A16F020EA26FF7EC12F0000E0301966FBF
:100D080036D002014251040D0301965101017D6F55
:100D18007E6BF3507D5D7E51800A7F6FF450800AB0
:100D28007F59D8B016D022EE41F000EE72F03B0E9B
:100D3800DBCFEBFFE806FCE203019651010D740ED0
:100D4800F324D96E030EF420DA6EDF5026EC1FF080
:100D58000CD022EE41F000EE72F03B0EDBCFEBFF41
:100D6800E806FCE2010E26EC1FF00301962B9651D3
:100D780001017D6F7E6B0201455101017D5D02011C
:100D8800465101017E59D8A0BCD70201238148D71A
:100D9800000120EE01F06051D9266151DA22050EDA
:100DA800DF6E20EE02F06051D9266151DA22000E82
:100DB800DF6E20EE03F06051D9266151DA22000E71
:100DC800DF6E20EE08F06051D9266151DA22000E5C
:100DD800DF6E20EE09F06051D9266151DA22000E4B
:100DE800DE6E000EDD6E20EE06F06051D9266151F0
:100DF800DA22000EDE6E000EDD6E000E6E6F000E43
:100E08006F6F000E706F000E716F20EE02F0605170
:100E1800D9266151DA22DF50626F636BD89062374E
:100E28006337D8906237633720EE01F06051D926D6
:100E38006151DA22DF50646F6451666F656B60C080
:100E4800D9FF61C0DAFFDF50676F686B0C0ED8906E
:100E580067376837E82EFBD7655167136651681303
:100E6800625167136351681320EE03F06051D9266D
:100E78006151DA22DF50696F69516713000E6813F8
:100E880067C06EF068C06FF0706B716B20EE04F095
:100E98006051D9266151DA22DECF62F0DDCF63F0EE
:100EA80062516E2763516F23000E7023000E712369
:100EB80020EE06F06051D9266151DA22DECF62F0C9
:100EC800DDCF63F062516E2763516F23000E7023EC
:100ED800000E712320EE09F06051D9266151DA2203
:100EE800DECF62F0DDCF63F020EE08F06051D92646
:100EF8006151DA22DF50646F656B0D0ED89064374C
:100F08006537E82EFBD7625164136351651364514A
:100F18006E2765516F23000E7023000E712320EE9B
:100F28000BF06051D9266151DA22DF50626F6251AD
:100F3800646F636B20EE0CF06051D9266151DA22A0
:100F4800DF50656F65516313000E641363516E279C
:100F580064516F23000E7023000E712320EE0FF0F2
:100F68006051D9266151DA22DF50626F6251646F95
:100F7800636B20EE10F06051D9266151DA22DF5000
:100F8800656F666B635165136451661365516E270F
:100F980066516F23000E7023000E712320EE11F0AE
:100FA8006051D9266151DA22DF50626F6251646F55
:100FB800636B20EE12F06051D9266151DA22DF50BE
:100FC800656F666B635165136451661365516E27CF
:100FD80066516F23000E7023000E712320EE13F06C
:100FE8006051D9266151DA22DF50626F6251646F15
:100FF800636B20EE14F06051D9266151DA22DF507C
:10100800656F666B635165136451661365516E278E
:1010180066516F23000E7023000E712320EE15F029
:101028006051D9266151DA22DF50626F6251646FD4
:10103800636B20EE16F06051D9266151DA22DF5039
:10104800656F666B635165136451661365516E274E
:1010580066516F23000E7023000E71236EC062F07C
:101068006FC063F070C064F071C065F0110E05D0F8
:10107800D8906533643363336233E82EF9D70F0EA3
:101088006215666F000E6315676F000E6415686F52
:10109800000E6515696FFF0E6E156A6FFF0E6F15EE
:1010A8006B6F000E70156C6F000E71156D6F6651C9
:1010B8006A256E6F67516B216F6F68516C21706F75
:1010C80069516D21716F6EC062F06FC063F070C0BE
:1010D80064F071C065F0621F631F641F651F62C002
:1010E8006EF063C06FF064C070F065C071F020EE00
:1010F8000DF06051D9266151DA226EC0DEFF6FC053
:10110800DDFF1200000E0001656FFF0E666F20EE16
:1011180001F06051D9266151DA22DF50676F6751BB
:10112800696F686B655168176651691760C0D9FFA8
:1011380061C0DAFFDF506A6F6B6B68516A116C6FC0
:1011480069516B116D6F20EE02F06051D926615123
:10115800DA22DFA003D0656B652B02D00001656B36
:101168006E516519FE0B65196E6F20EE02F0605125
:10117800D9266151DA22DFA403D0656B652B02D032
:101188000001656B65476E516519FD0B65196E6F3A
:1011980020EE02F06051D9266151DA22DFA803D08F
:1011A800656B652B02D00001656B654765476E511D
:1011B8006519FB0B65196E6F20EE02F06051D92698
:1011C8006151DA22DFAA03D0656B652B02D00001DA
:1011D800656B6547654765476E516519F70B651976
:1011E8006E6F20EE02F06051D9266151DA22DFAC31
:1011F80003D0656B652B02D00001656B653B6E51B2
:101208006519EF0B65196E6F20EE02F06051D92653
:101218006151DA22DFAE03D0656B652B02D0000185
:10122800656B653B65476E516519DF0B65196E6F18
:1012380020EE03F06051D9266151DA22DFA003D0F5
:10124800656B652B02D00001656B653B654765479B
:101258006E516519BF0B65196E6F20EE03F0605172
:10126800D9266151DA22DFA203D0656B652B02D043
:101278000001656B653365336E5165197F0B651920
:101288006E6F20EE03F06051D9266151DA22DFA695
:1012980003D0656B652B02D00001656B65476F5104
:1012A8006519FD0B65196F6F20EE03F06051D926A3
:1012B8006151DA22DFA803D0656B652B02D00001EB
:1012C800656B654765476F516519FB0B65196F6F4E
:1012D80020EE03F06051D9266151DA22DFAA03D04B
:1012E800656B652B02D00001656B654765476547EF
:1012F8006F516519F70B65196F6F20EE03F0605198
:10130800D9266151DA22DFAC03D0656B652B02D098
:101318000001656B653B6F516519EF0B65196F6FC0
:1013280020EE03F06051D9266151DA22DFAE03D0F6
:10133800656B652B02D00001656B653B65476F5196
:101348006519DF0B65196F6F20EE04F06051D9261F
:101358006151DA22DFA003D0656B652B02D0000152
:10136800656B653B654765476F516519BF0B651927
:101378006F6F20EE04F06051D9266151DA22DFA2A6
:1013880003D0656B652B02D00001656B653365334F
:101398006F5165197F0B65196F6F20EE04F060516E
:1013A800D9266151DA22DFA403D0656B652B02D000
:1013B8000001656B70516519FE0B6519706F20EEA1
:1013C80004F06051D9266151DA22DFA603D0656B9B
:1013D800652B02D00001656B654770516519FD0BDF
:1013E8006519706F20EE04F06051D9266151DA2238
:1013F800DFA803D0656B652B02D00001656B6547DC
:10140800654770516519FB0B6519706F20EE6CF01C
:1014180000EE60F0040EDBCFEBFFE806FCE2120002
:10142800000E0001B76F0E0EB66F4B0E726F000EF6
:10143800736FB6C074F0B7C075F0000E83EC11F08E
:101448004B0E0001726F000E736FB6C074F0B7C018
:1014580075F0010E83EC11F00001B96FB86B4B0EFB
:10146800726F000E736FB6C074F0B7C075F0010EDE
:1014780083EC11F00001B16FB151B8134B0E726FCC
:10148800000E736FB6C074F0B7C075F0010E83EC30
:1014980011F00001BB6FBA6B4B0E726F000E736FC9
:1014A800B6C074F0B7C075F0010E83EC11F00001FE
:1014B800B16FB151BA134B0E726F000E736FB6C095
:1014C80074F0B7C075F0010E83EC11F00001BC6F29
:1014D8004B0E726F000E736FB6C074F0B7C075F024
:1014E800010E83EC11F00001BD6F4B0E726F000E00
:1014F800736FB6C074F0B7C075F0010E83EC11F0CD
:101508000001BF6FBE6B4B0E726F000E736FB6C0DB
:1015180074F0B7C075F0010E83EC11F00001B16FE3
:10152800B151BE13000EB26F1CD04B0E726F000E7D
:10153800736FB6C074F0B7C075F0010E83EC11F08C
:101548000001B16FB251010D080EF326000EF4220E
:10155800B80EF324D96E000EF420DA6EB1C0DFFFA6
:10156800B22BBC51B25DD8A0E0D7000EB36F1CD02F
:101578004B0E726F000E736FB6C074F0B7C075F083
:10158800010E83EC11F00001B16FB351010D0E0E85
:10159800F326000EF422B80EF324D96E000EF420C0
:1015A800DA6EB1C0DFFFB32BBD51B35DD8A0E0D771
:1015B800000EB46F1CD04B0E726F000E736FB6C066
:1015C80074F0B7C075F0010E83EC11F00001B16F33
:1015D800B451010D120EF326000EF422B80EF324B6
:1015E800D96E000EF420DA6EB1C0DFFFB42BBC5107
:1015F800B45DD8A0E0D7000EB56F1CD04B0E726F4B
:10160800000E736FB6C074F0B7C075F0010E83ECAE
:1016180011F00001B16FB551010D180EF326000E3F
:10162800F422B80EF324D96E000EF420DA6EB1C09D
:10163800DFFFB52BBD51B55DD8A0E0D74B0E726F5B
:10164800000E736FB6C074F0B7C075F0020E83EC6D
:1016580011F0C60E0001606F000E616F61EC21F0A1
:101668000001D8A002D0D4833CD0D493C60E606FBA
:10167800000E616FD00E626F000E636F7CEC20F07D
:101688000001D8A00DD0CA0E606F000E616F49EC42
:1016980021F00001D8A004D0BE05BF11D8B41FD0D6
:1016A800C60E606F000E616FD00E626F000E636F22
:1016B8007CEC20F00001D8A014D0C00E606F000EA2
:1016C800616FCA0E626F000E636F5BEC20F0000161
:1016D800D8A007D0020EBE19BF11D8A402D0D48159
:1016E80001D0D491B805B911D8A413D0080EBB19EC
:1016F800BA11D8A40ED0BF510CE1030EBE5DD8B00C
:1017080008D0060EBC19D8A404D0040EBD19D8B44C
:1017180004D0010ED76F930E03D0000ED76F000EC2
:10172800D66F030ED56F20EEB8F000EE91F01F0EC5
:10173800DBCFEBFFE806FCE21200000E0001866F2B
:1017480073C066F074C067F075C068F076C069F061
:10175800100E6A6F270E6B6F000E6C6F000E6D6FA8
:101768009EEC1BF000016651856F85C060F0616BCF
:10177800270E636F100E626FFBEC21F000016051C1
:10178800776F6151786F796B7A6B771F781F791F44
:101798007A1F772B000E782379237A2373517725C4
:1017A800666F74517821676F75517921686F76512A
:1017B8007A21696FE80E6A6F030E6B6F000E6C6F0B
:1017C800000E6D6F9EEC1BF000016651846F85C0A2
:1017D80060F0616B270E636F100E626FFBEC21F0F7
:1017E80060C077F061C078F084C060F00001616B80
:1017F800030E636FE80E626FFBEC21F00001775176
:101808006025796F785161217A6F7B6BD8B07B2B1B
:101818007C6B791F7A1F7B1F7C1F792B000E7A2324
:101828007B237C2373517925666F74517A21676F06
:1018380075517B21686F76517C21696F640E6A6FE0
:10184800000E6B6F000E6C6F000E6D6F9EEC1BF040
:1018580000016651836F85C060F0616B270E636F6E
:10186800100E626FFBEC21F060C077F061C078F079
:1018780084C060F00001616B030E636FE80E626F55
:10188800FBEC21F0000177516025796F78516121D7
:101898007A6F7B6BD8B07B2B7C6B8351640DF350D4
:1018A80079257D6FF4507A217E6F000E7B217F6F42
:1018B800000E7C21806F7D1F7E1F7F1F801F7D2B68
:1018C800000E7E237F23802373517D25666F74511C
:1018D8007E21676F75517F21686F76518021696F0E
:1018E8000A0E6A6F000E6B6F000E6C6F000E6D6F44
:1018F8009EEC1BF000016651816F73C060F074C0EC
:1019080061F075C062F076C063F00A0E646F000E75
:10191800656F000E666F000E676FFDEC1DF000012D
:101928006051826F7651751106E1100E735D270EB6
:101938007459D8A00CD08651010DC90EF324D96E64
:10194800010EF420DA6E8551300FDF6E862B76514A
:10195800751106E1E80E735D030E7459D8A00CD01A
:101968008651010DC90EF324D96E010EF420DA6EEA
:101978008451300FDF6E862B76517511741104E196
:10198800640E735DD8A00CD08651010DC90EF324E6
:10199800D96E010EF420DA6E8351300FDF6E862B7C
:1019A80076517511741104E10A0E735DD8A00CD03C
:1019B8008651010DC90EF324D96E010EF420DA6E9A
:1019C8008151300FDF6E862B8651010DC90EF3242D
:1019D800D96E010EF420DA6E8251300FDF6E862B3D
:1019E8008651010DC90EF324D96E010EF420DA6E6A
:1019F800000EDF6E862BC90E736F010E746F120016
:101A0800000E00017B6F000E7C6F030E7C6501D019
:101A1800DFD07C51010D770EF324D96E000EF4202F
:101A2800DA6E7C51010D670EF324E16E000EF4208E
:101A3800E26EE7506B6F6B51606F616B000E636F06
:101A4800640E626F50EC1FF000016051DF6E7C5134
:101A5800010D730EF324D96E000EF420DA6E7C515A
:101A6800010D770EF324E16E000EF420E26EE750CC
:101A78006B6F6B51640DF3CF6CF0F4CF6DF06C1F8E
:101A88006D1F6C4B6D2B7C51010D670EF324E16EBD
:101A9800000EF420E26EE7506E6F6E516C25606F99
:101AA800000E6D21616F000E636F0A0E626F50ECBD
:101AB8001FF000016051DF6E7C51010D6F0EF324A1
:101AC800D96E000EF420DA6E7C51010D670EF324F6
:101AD800E16E000EF420E26EE7506B6F6B51606FA1
:101AE800616B000E636F0A0E626F39EC20F0000123
:101AF8006051DF6E7C51010D770EF324D96E000E14
:101B0800F420DA6EDF50D8B414D07B51010DD30E17
:101B1800F324D96E020EF420DA6E7C51010D770E93
:101B2800F324E16E000EF420E26EE750300FDF6E12
:101B38007B2B7C51010D730EF324D96E000EF4201B
:101B4800DA6EDF50D8A40BD07C51010D770EF32448
:101B5800D96E000EF420DA6EDF50D8B414D07B5161
:101B6800010DD30EF324D96E020EF420DA6E7C51E7
:101B7800010D730EF324E16E000EF420E26EE750BF
:101B8800300FDF6E7B2B7B51010DD30EF324D96E02
:101B9800020EF420DA6E7C51010D6F0EF324E16E13
:101BA800000EF420E26EE750300FDF6E7B2B030E41
:101BB8007C19D8B40BD07B51010DD30EF324D96E08
:101BC800020EF420DA6E2E0EDF6E7B2B7C2B1DD7D7
:101BD8007B51010DD30EF324D96E020EF420DA6E78
:101BE800000EDF6ED30E676F020E686F1200C10E13
:101BF8000001606F000E616F37EC22F0000E0001EB
:101C0800CC6F240ECB6F20EEB3F010EED3F0050EA0
:101C1800DBCFE3FFE806FCE261EC1CF020EECDF040
:101C2800050EEBCFDBFFE806FCE2080E0001DA6FD9
:101C3800060ED96FCB0E9C6F000E9D6FFBEC17F054
:101C48000001E1B31200080EDB25E86F000EDC216D
:101C5800E96FDDC0EAF0DEC0EBF0000EED6F1C0EA0
:101C6800EC6FECC06AF0EDC06BF0A25131EC1EF0E5
:101C7800ECC06AF0EDC06BF00001A15131EC1EF030
:101C8800ECC06AF0EDC06BF00001A45131EC1EF01D
:101C9800ECC06AF0EDC06BF00001A35131EC1EF00E
:101CA800ECC06AF0EDC06BF00001A55131EC1EF0FC
:101CB800ECC06AF0EDC06BF00001A65131EC1EF0EB
:101CC800ECC06AF0EDC06BF00001A85131EC1EF0D9
:101CD800ECC06AF0EDC06BF00001A75131EC1EF0CA
:101CE800000E0001C76F15D0ECC06AF0EDC06BF0B4
:101CF800C751010D080EF326000EF422A10EF3249D
:101D0800D96E000EF420DA6EDF5031EC1EF00001BF
:101D1800C72BA551C75DD8A0E7D7000EC86F15D04F
:101D2800ECC06AF0EDC06BF0C851010D0E0EF32641
:101D3800000EF422A10EF324D96E000EF420DA6E00
:101D4800DF5031EC1EF00001C82BA651C85DD8A0A9
:101D5800E7D7000EC96F15D0ECC06AF0EDC06BF084
:101D6800C951010D120EF326000EF422A10EF32420
:101D7800D96E000EF420DA6EDF5031EC1EF000014F
:101D8800C92BA551C95DD8A0E7D7000ECA6F15D0D9
:101D9800ECC06AF0EDC06BF0CA51010D180EF326C5
:101DA800000EF422A10EF324D96E000EF420DA6E90
:101DB800DF5031EC1EF00001CA2BA651CA5DD8A035
:101DC800E7D720EEDBF000EE72F0070EDBCFEBFF7B
:101DD800E806FCE20FEC22F01200030E0101736F1B
:101DE800030E706F020E716F47C167F048C168F04B
:101DF80049C169F04AC16AF0720E00016B6F010EA9
:101E08006C6F27EC19F00009D8B46ED0010172513B
:101E180090EC21F021EE5BF0050EEBCFDBFFE8063E
:101E2800FCE247C167F048C168F049C169F04AC19E
:101E38006AF004EC0DF067C098F068C099F0FBEC0C
:101E48001EF0BD0E0001986F7F0E996FFBEC1EF01F
:101E580021EE5BF000EE7AF0050EDBCFEBFFE80633
:101E6800FCE27CEC16F07AC098F07BC099F0FBECB1
:101E78001EF0E50E0001986F7F0E996FFBEC1EF0C7
:101E880055EC1DF021EE55F0050EEBCFDBFFE80613
:101E9800FCE221EE5BF000EE6FF0050EDBCFEBFF0E
:101EA800E806FCE221EE63F000EE75F0070EDBCFEA
:101EB800EBFFE806FCE221EC1CF021EE63F000EEFB
:101EC80072F0070EDBCFEBFFE806FCE20FEC22F026
:101ED800000E0101756F000E746F73C134F174C187
:101EE80035F175C136F1120071C1F4F00001F56BDE
:101EF800F66BF76BC0C1F8F0C1C1F9F0C2C1FAF0D6
:101F0800C3C1FBF0F81FF91FFA1FFB1FF82B000EC7
:101F1800F923FA23FB2305EC23F00001F85160258F
:101F2800FC6FF9516121FD6FFA516221FE6FFB517F
:101F38006321FF6FF451FC5DF551FD59F651FE59CF
:101F4800F751FF59D8A029D005EC23F060C0C0F1A3
:101F580061C0C1F162C0C2F163C0C3F10101705137
:101F6800C85DD8B00CD0C82B47C1F0F048C1F1F01B
:101F780049C1F2F04AC1F3F0D9EC19F00ED0000EC5
:101F88000101C86F010E756F920E746F73C134F141
:101F980074C135F175C136F11200010E0101756F7A
:101FA800910E746F73C134F174C135F175C136F196
:101FB8001200CDEC14F0010120EE12F07951D9266F
:101FC8007A51DA22000178C0DEFF79C0DDFF010115
:101FD80020EE12F07951D9267A51DA22DFA818D0EA
:101FE8000EEC23F00009D8B413D079C176F17AC188
:101FF80077F1D1EC02F0010120EE0FF07951D926EA
:102008007A51DA2276C1DEFF77C1DEFF78C1DEFFC2
:10201800010120EE14F07951D9267A51DA22DFA095
:102028006BD020EE32F07951D9267A51DA2201EEBE
:1020380034F03B0EDBCFEBFFE806FCE2F1EC0EF0F0
:10204800010120EE0FF07951D9267A51DA2234C1F4
:10205800DEFF35C1DEFF36C1DEFF20EE0FF079511D
:10206800D9267A51DA22030EDE18D8A42AD020EE17
:1020780010F07951D9267A51DA22920EDE1821E130
:10208800DE04D8A41ED020EE45F07951D9267A5125
:10209800DA22DECF67F0DECF68F0DECF69F0DECF80
:1020A8006AF004EC0DF067C098F068C099F0FBEC9A
:1020B8001EF0010120EE14F07951D9267A51DA2266
:1020C800DF9020EE0FF07951D9267A51DA22030EEB
:1020D800DE18D8A411D020EE10F07951D9267A5103
:1020E800DA22DE50DE10D8A407D020EE14F07951A1
:1020F800D9267A51DA22DF9020EE12F07951D926CA
:102108007A51DA22DFA6120079C180F07AC181F013
:1021180014EC1BF079C1D9FF7AC1DAFFDE04D8A428
:102128000DD0000E00016E6F000ECAEC1EF0020EFC
:1021380000016E6F010ECDEC1AF00CD0010E0001FB
:102148006E6F000ECAEC1EF0010E00016E6F010EDC
:10215800CAEC1EF00B0E26EC23F01200010120EE53
:102168000EF05451D9265551DA22060EDE1804E134
:10217800080EDE18D8B407D054C172F055C173F0F8
:10218800CCEC18F0120054C191F055C192F014EC47
:102198000AF021EE56F01F0EEBCFDBFFE806FCE25B
:1021A800010174517511D8B408D0FA0E0001986F66
:1021B8007C0E996FFBEC1EF01200DD0E0001986F8B
:1021C8007F0E996FFBEC1EF021EE5EF000EE7AF0C8
:1021D800050EDBCFEBFFE806FCE27CEC16F07AC0DC
:1021E80098F07BC099F0FBEC1EF0890E0001986F07
:1021F8007E0E996FFBEC1EF064C167F065C168F054
:1022080066C169F067C16AF004EC0DF067C098F028
:1022180068C099F0FBEC1EF0DA0E0001986F7F0E93
:10222800996FFBEC1EF021EE68F000EE7AF0050ED7
:10223800DBCFEBFFE806FCE27CEC16F07AC098F006
:102248007BC099F0FBEC1EF0890E0001986F7E0EA2
:10225800996FFBEC1EF06EC167F06FC168F070C13A
:1022680069F071C16AF004EC0DF067C098F068C0BD
:1022780099F0FBEC1EF0FC0E0001986F7F0E996F31
:10228800FBEC1EF0010172A307D0970E0001986FB6
:102298007F0E996FFBEC1EF0010172A107D03A0E78
:1022A8000001986F7F0E996FFBEC1EF021EE56F03F
:1022B80001EE00F01F0EDBCFEBFFE806FCE239EC85
:1022C80014F021EE5EF000EE64F0050EDBCFEBFFBC
:1022D800E806FCE264C16AF065C16BF066C16CF0A7
:1022E80067C16DF005EC23F060C06EF061C06FF05F
:1022F80062C070F063C071F084EC17F01200000146
:102308008F6F000E0001836F000E826F8F51D8A46B
:1023180084D02DEC23F0000160C08BF061C08CF0FC
:102328008D6B8E6B8BC06AF08CC06BF0BBEC20F0B1
:102338002C0E0001866F8198860E606F000E616F0B
:1023480098EC1EF0880E0001606F000E616FC8ECFB
:102358001DF0890E0001606F000E616FC8EC1DF062
:10236800000E0001766FFF0E776F8951796F786BD9
:10237800765178177751791788517A6F7B6B785136
:102388007A11606F79517B11616F32EC23F0000E86
:102398000001906F050E906501D00DD09051010D90
:1023A8007C0EF324606F000EF420616FC8EC1DF002
:1023B8000001902BEFD7000E766FFF0E776F7D51DF
:1023C800796F786B76517817775179177C517A6FD6
:1023D8007B6B78517A11826F79517B11836F72C050
:1023E800D9FF73C0DAFF82C0DEFF83C0DDFF000EB5
:1023F800856F000E846F09D0870E606F000E616FC5
:10240800C8EC1DF00001844B852B7451845D755117
:102418008559D8A0F1D7000E12008F05D8A409D08D
:102428008A0E606F000E616FC8EC1DF000018A51C2
:102438001200020E8F19D8A41DD08188300E8C1975
:102448008B118D118E11D8A407D0550E6F6FFE0E0B
:102458006E6FD1EC21F009D0FE0E00018B256E6F56
:10246800FF0E8C216F6FD1EC21F0CC0EF9EC22F02D
:10247800000E1200000E120000016039F00B61110D
:1024880077C0D9FF78C0DAFFDF6E20EE01F0775110
:10249800D9267851DA2263C079F0030E791762459C
:1024A800E846FC0B7911DF6E20EE02F07751D92651
:1024B8007851DA226551DF6E20EE03F07751D92684
:1024C8007851DA2264C0DFFF20EE04F07751D92674
:1024D8007851DA226751DF6E20EE05F07751D92660
:1024E8007851DA2266C0DFFF20EE06F07751D92650
:1024F8007851DA2210EE69F0E6CF79F0E5CF7AF07C
:102508007AC079F07A6B1F0E79176839E846E00BC4
:102518007911DF6E20EE07F07751D9267851DA224B
:1025280069C0DFFF20EE08F07751D9267851DA220A
:102538006BC0DFFF20EE09F07751D9267851DA22F7
:102548006CC0DFFF20EE0AF07751D9267851DA22E5
:102558006E51DF6E20EE0BF07751D9267851DA22D2
:102568006DC0DFFF20EE0CF07751D9267851DA22C2
:102578006FC0DFFF20EE0DF07751D9267851DA22AF
:1025880070C0DFFF20EE0EF07751D9267851DA229D
:1025980071C0DFFF20EE0FF07751D9267851DA228B
:1025A80072C0DFFF20EE10F07751D9267851DA2279
:1025B80073C0DFFF20EE11F07751D9267851DA2267
:1025C80074C0DFFF20EE12F07751D9267851DA2255
:1025D80075C0DFFF20EE13F07751D9267851DA2243
:1025E80076C0DFFF1200000120EE04F0A151D926C9
:1025F800A251DA22DECFA3F0DDCFA4F0080EA32784
:10260800000EA42320EE1FF0A151D926A251DA22F0
:10261800A3C0DEFFA4C0DDFF20EE2DF0A151D92616
:10262800A251DA22000EDE6E080EDD6E1F0EA12505
:102638009C6F000EA2219D6FFBEC17F0000120EEAD
:1026480035F0A151D926A251DA2210EE1DF0A15180
:10265800E126A251E222DFB002D0E79002D00001C9
:10266800E78020EE35F0A151D926A251DA2210EEEA
:102678001DF0A151E126A251E222DFB202D0E79279
:1026880002D00001E78220EE36F0A151D926A251EE
:10269800DA2210EE1EF0A151E126A251E222DFCF8C
:1026A800E7FF20EE2FF0A151D926A251DA22DECF82
:1026B800A3F0DDCFA4F0080EA327000EA42320EE7C
:1026C80017F0A151D926A251DA22A3C0DEFFA4C077
:1026D800DDFF20EE31F0A151D926A251DA2210EE09
:1026E80019F0A151E126A251E222DECFE6FFDDCFAB
:1026F800E5FFF80EA36FFF0EA46F20EE33F0A15193
:10270800D926A251DA22DECFA5F0DDCFA6F0A3515B
:10271800A527A451A62320EE1BF0A151D926A2512A
:10272800DA22A5C0DEFFA6C0DDFF1200000E000100
:102738009E6F4DC09FF04EC0A0F043C0A1F044C0B2
:10274800A2F0010EA36F000EA56F000EA46F050E78
:102758009E6172D09F0E6A6F000E6B6F160E13EC9F
:1027680021F0A00E00016A6F000E6B6F170E13ECBC
:1027780021F0A10E00016A6F000E6B6F160E2EEC91
:1027880021F0A20E00016A6F000E6B6F170E2EEC7F
:1027980021F000019F51A119D8A44BD0A051A21932
:1027A800D8A447D0E20E986F7D0E996FFBEC1EF00F
:1027B800CA0EF9EC22F0420EE82EFED700D0A10E88
:1027C80000016A6F000E6B6F160E2EEC21F0A20E40
:1027D80000016A6F000E6B6F170E2EEC21F00001DE
:1027E800A151D8A413D0A251D8A410D0F90E986F33
:1027F8007E0E996FFBEC1EF0030E00019D6FA70E75
:10280800E82EFED79D2FFCD700D00CD02A0E000151
:10281800986F7F0E996FFBEC1EF0010E0001A56FFB
:102828002E0EA46FA3C09AF0A4C09BF0A5C09CF084
:10283800120000019E2B12D01B0E986F7E0E996F0E
:10284800FBEC1EF0010E0001A56F2E0EA46FA3C0B5
:102858009AF0A4C09BF0A5C09CF01200A3C09AF007
:10286800A4C09BF0A5C09CF0120001010605071149
:10287800D8A4120055EC1DF021EE24F0050EEBCF84
:10288800DBFFE806FCE221EE08F011EE2AF0050E67
:10289800DBCFE3FFE806FCE20EC130F10FC131F1F6
:1028A80010C132F111C133F1060E0101386F040E67
:1028B800396F000E356F010E346F080E376F000E3A
:1028C800366F000E3B6F020E3A6F20C142F121C1F4
:1028D80043F122C144F123C145F121EE24F011EE68
:1028E8003CF0050EDBCFE3FFE806FCE230C14CF11B
:1028F80031C14DF132C14EF133C14FF121EE2AF011
:1029080011EE46F0050EDBCFE3FFE806FCE221EE10
:1029180034F000EEA1F01F0EDBCFEBFFE806FCE27F
:10292800FBEC0DF00A0E0001986F7F0E996FFBEC1F
:102938001EF021EE46F000EE7AF0050EDBCFEBFF3D
:10294800E806FCE27CEC16F07AC098F07BC099F0BF
:10295800FBEC1EF0890E0001986F7E0E996FFBEC60
:102968001EF04CC167F04DC168F04EC169F04FC10F
:102978006AF004EC0DF067C098F068C099F0FBECC1
:102988001EF0FC0E0001986F7F0E996FFBEC1EF095
:102998001200F1EC1FF06EC07DF06FC07EF00001F8
:1029A8007EAD03D07A6B7A2B02D000017A6B7B5113
:1029B8007A19FE0B7A197B6F7EAB03D07A6B7A2B70
:1029C80002D000017A6B7A477B517A19FD0B7A198C
:1029D8007B6F7EA903D07A6B7A2B02D000017A6BC9
:1029E8007A477A477B517A19FB0B7A197B6F7EA756
:1029F80003D07A6B7A2B02D000017A6B7A477A4738
:102A08007A477B517A19F70B7A197B6F7DAD03D022
:102A18007A6B7A2B02D000017A6B7A3B7B517A1958
:102A2800EF0B7A197B6F7DAB03D07A6B7A2B02D0D0
:102A380000017A6B7A3B7A477B517A19DF0B7A1956
:102A48007B6F7DA703D07A6B7A2B02D000017A6B5B
:102A58007A3B7A477A477B517A19BF0B7A197B6F91
:102A68007DA503D07A6B7A2B02D000017A6B7A337A
:102A78007A337B517A197F0B7A197B6F7DA303D048
:102A88007A6B7A2B02D000017A6B7C517A19FE0B93
:102A98007A197C6F7DA103D07A6B7A2B02D0000162
:102AA8007A6B7A477C517A19FD0B7A197C6F7BC057
:102AB80078F07CC079F012000001766F0001765141
:102AC8001F0B776F010E786F000E796F000E7A6F0B
:102AD800000E7B6F000E7C6F770E6A6F000E6B6FB7
:102AE800540E13EC21F0780E00016A6F000E6B6F24
:102AF800550E13EC21F07F0E00016A6F000E6B6F0C
:102B0800520E2EEC21F000017F817F0E6A6F000EBD
:102B18006B6F520E13EC21F0450EE82EFED700F035
:102B28007F0E00016A6F000E6B6F6A0E2EEC21F0AB
:102B3800010E00017927000E7A237B237C237FA1D5
:102B480008D07C517B1105E179290F0E7A59D8A05C
:102B5800E7D77C517B1140E179290F0E7A59D8B01B
:102B680012007F0E6A6F000E6B6F520E2EEC21F072
:102B780000017F917F0E6A6F000E6B6F520E13EC8F
:102B880021F07D0E00016A6F000E6B6F680E2EEC4F
:102B980021F07E0E00016A6F000E6B6F690E2EEC3D
:102BA80021F0000E0001706FFF0E716F7E51736F80
:102BB800726B70517217715173177D51746F756B09
:102BC80072517413735175136EC0D9FF6FC0DAFF59
:102BD80074C0DEFF75C0DDFF1200C50E0001986FDE
:102BE8007F0E996FFBEC1EF028D0E80E0001986F5D
:102BF8007E0E996FFBEC1EF049D06C0E0001986FA9
:102C08007D0E996FFBEC1EF041D0B20E0001986F5B
:102C18007E0E996FFBEC1EF039D0580E0001986FAC
:102C28007F0E996FFBEC1EF031D0490E0001986FB2
:102C38007F0E996FFBEC1EF029D000019A51000A13
:102C4800D8B4D3D7010AD8B4D8D7030AD8B4DDD7B3
:102C5800010AD8B4E2D7070AD8B4E7D717D0470E85
:102C6800986F7D0E996FFBEC1EF024D0900E00013A
:102C7800986F7C0E996FFBEC1EF01CD08A0E000139
:102C8800986F7D0E996FFBEC1EF014D020EE9BF030
:102C9800DECF9DF0DDCF9EF000019E51010AD8A441
:102CA800EDD79D512D0AD8B4E1D7030AD8B4D7D7A8
:102CB800A10AE4D7AB0E0001986F7F0E996FFBEC69
:102CC8001EF09BC073F09CC074F00001756B766BAE
:102CD800A1EC0BF073C098F074C099F0FBEC1EF0F7
:102CE800E40E0001986F7F0E996FFBEC1EF0120046
:102CF80022EEB5F010EE81F0110EDBCFE3FFE8060F
:102D0800FCE2000E0001976F000E966F000E956FA3
:102D180096BF06D096516BE1060E955DD8B067D088
:102D28007A0E9525D96E000E9621DA6EDF50806FE7
:102D380080390F0B0F0B936F7A0E9525D96E000E05
:102D48009621DA6EDF500F0B946F300E9327300EFA
:102D58009427390E93650CD09751010D810EF324F9
:102D6800D96E000EF420DA6E9351070FDF6E0AD089
:102D78009751010D810EF324D96E000EF420DA6EFE
:102D880093C0DFFF972B390E94650CD09751010D36
:102D9800810EF324D96E000EF420DA6E9451070FD9
:102DA800DF6E0AD09751010D810EF324D96E000E03
:102DB800F420DA6E94C0DFFF972B96BF06D09651A9
:102DC8000FE1050E955DD8B00BD09751010D810E1E
:102DD800F324D96E000EF420DA6E3A0EDF6E972BCC
:102DE800954B962B96BF9CD7965101E195D7810EAE
:102DF8007A6F000E7B6F120000017851701904E1A0
:102E080079517119D8B429D07A51721904E17B51DA
:102E18007319D8B422D070517A1904E171517B1911
:102E2800D8B41BD07851721904E179517319D8B408
:102E380014D07205300E7359D8B00FD07005300E0B
:102E48007159D8B00AD07A05300E7B59D8B005D060
:102E58007805300E7959D8A002D0010E12007251AF
:102E6800705D73517159D8B036D07A51785D7B5105
:102E78007959D8B025D07851705D79517159D8B049
:102E88000AD07251785D73517959D8B002D0010EC9
:102E98001200000E120020EE78F000EE60F0070E2F
:102EA800DBCFEBFFE806FCE220EE70F000EE68F006
:102EB800070EDBCFEBFFE806FCE280EC19F012000E
:102EC800000170517A5D71517B59D8B002D0000E63
:102ED8001200010E120020EE78F000EE60F0070EEE
:102EE800DBCFEBFFE806FCE220EE70F000EE68F0C6
:102EF800070EDBCFEBFFE806FCE280EC19F01200CE
:102F0800000E0001766F000E776F000E786F000ECE
:102F1800796F000E7A6F000E7B6F070E7B6501D00C
:102F28002ED07B510E0D0A0EF326000EF422000E51
:102F3800F324D96E030EF420DA6EDE50765DDE508F
:102F48007759DE507859DE507959D8B016D07B5170
:102F58000E0D0A0EF326000EF422000EF324D96E8D
:102F6800030EF420DA6EDECF76F0DECF77F0DECF18
:102F780078F0DECF79F07BC07AF07B2BCED77A5110
:102F88000E0D000EF324D96E030EF420DA6E6AC01B
:102F9800DEFF6BC0DEFF6CC0DEFF6DC0DEFF20EE23
:102FA80064F07A510E0D040EF326000EF422000E82
:102FB800F324E16E030EF420E26E050EDBCFE3FF8F
:102FC800E806FCE27A510E0D0A0EF326000EF422F2
:102FD800000EF324D96E030EF420DA6E6EC0DEFF05
:102FE8006FC0DEFF70C0DEFF71C0DEFF1200020E90
:102FF80000019E6F000EA06F000E9F6F9CC0D9FF4E
:103008009DC0DAFFDECF80F0DDCF81F064EC00F008
:10301800000120EE10F09C51D9269D51DA22070EAE
:10302800EBCFDBFFE806FCE220EE16F09C51D92638
:103038009D51DA22DFA207D0000E9E6F000EA06F0E
:10304800650E9F6F120020EE16F09C51D9269D51F7
:10305800DA22DFB007D0000E9E6F000EA06FC70EF9
:103068009F6F120020EE08F09C51D9269D51DA225C
:1030780000EE6FF0050EDBCFEBFFE806FCE220EE7A
:1030880010F09C51D9269D51DA2200EE75F0070EFA
:10309800DBCFEBFFE806FCE221EC1CF0000120EEA0
:1030A8000EF09C51D9269D51DA22DECF6FF0DDCF8C
:1030B80070F020EE10F09C51D9269D51DA2200EED6
:1030C80071F0070EDBCFEBFFE806FCE2A3EC1FF084
:1030D800120047C011F0010E126E112A02D0D890CA
:1030E8001236112EFCD71250FF0A8216000E806E7F
:1030F800020E476007D0010E4724136E146A000EB3
:10310800142204D0000E146E000E136E13C047F084
:10311800E80E0F5C030E1058D8B01200000E156EA2
:10312800020E156401D013D01550010D380EF3248A
:10313800D96E000EF420DA6E0FC008F010C009F046
:1031480015C00AF0A1EC1CF0DF6E152AE9D747C0BC
:1031580011F0010E126E112A02D0D8901236112EDB
:10316800FCD7125082124750010D380EF324D96E45
:10317800000EF420DA6EDF50116E1150010DC70EEB
:10318800F324D96E020EF420DA6EDF50806E12003E
:103198002DEC23F0000160C07DF061C07EF07F6BF4
:1031A800806B7DC06AF07EC06BF0BBEC20F02C0E0B
:1031B80000017A6F81987A0E606F000E616F98EC4B
:1031C8001EF07B0E0001606F000E616FC8EC1DF0F1
:1031D8007C0E0001606F000E616FC8EC1DF0000EE0
:1031E8000001746FFF0E756F7C51776F766B7451A9
:1031F8007617755177177B51786F796B76517811FF
:10320800606F77517911616F32EC23F08188300E4D
:1032180000017E197D117F118011D8A407D05F0E9F
:103228006F6FFE0E6E6FD1EC21F009D0FE0E00011B
:103238007D256E6FFF0E7E216F6FD1EC21F0CC0ED5
:10324800F9EC22F01200000E0001756F070E75658B
:1032580001D050D075510E0D000EF324606F030E8F
:10326800F420616F670E626F000E636F7CEC20F0D4
:103278000001D8A03DD075510E0D0A0EF326000EA0
:10328800F422000EF324D96E030EF420DA6EDECF9A
:103298006DF0DECF6EF0DECF6FF0DECF70F06D1F19
:1032A8006E1F6F1F701F6D2B000E6E236F23702310
:1032B80005EC23F000016D516025716F6E5161219D
:1032C800726F6F516221736F70516321746F745103
:1032D80073110EE12C0E715D010E7259D8B008D031
:1032E8006BC0D9FF6CC0DAFF75C0DFFF010E12009A
:1032F800752BACD7000E120000016851601904E16B
:1033080069516119D8B429D06A51621904E16B5125
:103318006319D8B422D060516A1904E161516B195C
:10332800D8B41BD06851621904E169516319D8B443
:1033380014D06205300E6359D8B00FD06005300E36
:103348006159D8B00AD06A05300E6B59D8B005D08B
:103358006805300E6959D8A002D0010E12006251DA
:10336800605D63516159D8B012006A51685D6B5154
:103378006959D8B010D06851605D69516159D8B0A9
:1033880012006251685D63516959D8B002D0010ECC
:103398001200000E120060516A5D61516B59D8B07D
:1033A80002D0000E1200010E120055EC1DF021EEA5
:1033B80004F0050EEBCFDBFFE806FCE20E0E000181
:1033C800606F010E616F37EC22F0F0C00AF1F1C0B6
:1033D8000BF1F2C00CF1F3C00DF1060E0101186FEC
:1033E800040E196F000E156F010E146F080E176F7B
:1033F800000E166F000E1B6F010E1A6F00C122F12E
:1034080001C123F102C124F103C125F121EE04F029
:1034180011EE1CF0050EDBCFE3FFE806FCE20AC163
:103428002CF10BC12DF10CC12EF10DC12FF121EEA4
:103438000EF011EE26F0050EDBCFE3FFE806FCE206
:1034480021EE14F000EEA1F01F0EDBCFEBFFE80633
:10345800FCE2FBEC0DF012000201005100019A1988
:10346800D8B441D09A51D8A407D0660E986F7F0E71
:10347800996FFBEC1EF00AD000019A05D8A406D07B
:103488009F0E986F7E0E996FFBEC1EF000019A0557
:10349800D8A429D09B51D8A407D08C0E986F7E0E43
:1034A800996FFBEC1EF00AD000019B05D8A406D04A
:1034B800780E986F7E0E996FFBEC1EF000019C5100
:1034C800D8A407D0A80E986F7D0E996FFBEC1EF05C
:1034D8000AD000019C05D8A406D0C50E986F7D0EB1
:1034E800996FFBEC1EF020EE9AF012EE00F00E0E33
:1034F800DBCFE3FFE806FCE212001F0E036E000EAE
:10350800046E000E056E000E066E81BA0FD02F50A5
:103518002E1014E12C28FF0E2D58D8B00FD0010E14
:103528002C26000E2D222E222F2208D0000E2C6EC3
:10353800000E2D6E000E2E6E000E2F6E03502C5CAA
:1035480004502D5805502E5806502F58D8A002D098
:10355800010E01D0000E486E4850D8B411D0495021
:10356800D8A40ED003C02CF004C02DF005C02EF056
:1035780006C02FF001C0D9FF02C0DAFF010E05D046
:1035880001C0D9FF02C0DAFF000EDF6E48C049F063
:10359800120000016F6F700E00016A6F000E6B6FF2
:1035A800750E2EEC21F000016F05D8B40BD015D0A4
:1035B800F00E701770812CD0F00E18D0F00E701726
:1035C800060E19D06E51000AD8B4F6D7010AD8B43D
:1035D800EFD7030AD8B4F2D7EBD76F51D8B40DD0D0
:1035E80017D00F0E7017708913D00F0E701710D0E8
:1035F8000F0E7017600E70130BD06E51000AD8B4FE
:10360800F4D7010AD8B4EDD7030AD8B4F1D7E9D76B
:10361800700E6A6F000E6B6F750E13EC21F01200BE
:10362800820E00016A6F000E6B6F1B0E2EEC21F0EC
:10363800000182A106D080C0D9FF81C0DAFF010E47
:1036480005D080C0D9FF81C0DAFF000EDF6E830E7F
:103658006E6F000E6F6F1F0E60EC15F0000183A7F0
:1036680008D020EE01F08051D9268151DA22010ECE
:1036780007D020EE01F08051D9268151DA22000EC0
:10368800DF6E83A909D020EE02F08051D92681513E
:10369800DA22010EDF6E120020EE02F08051D926E8
:1036A8008151DA22000EDF6E12000001706F080EE1
:1036B800000170611ED0710E6A6F000E6B6F1C0ED8
:1036C8002EEC21F070C06EF0010E00016F6F6E2BB2
:1036D80002D0D8906F376E2FFCD700016F51FF0AC8
:1036E8007117710E6A6F000E6B6F1C0E13EC21F0D0
:1036F8001200080E0001705F710E6A6F000E6B6F8A
:103708001D0E2EEC21F070C06EF0010E00016F6FDF
:103718006E2B02D0D8906F376E2FFCD700016F51F7
:10372800FF0A7117710E6A6F000E6B6F1D0E13EC96
:1037380021F01200000E00016E6F000E6F6F000E78
:10374800706F000E716F6A516B116C116D11D8B4E6
:103758002AD0010E726F06D0D8906A376B376C3753
:103768006D37722B6DAFF8D7D8906E376F377037CB
:1037780071376A51665D6B5167596C5168596D5163
:103788006959D8A009D06A51665F6B51675B6C5163
:10379800685B6D51695B6E81D8906D336C336B33A8
:1037A8006A33722FE1D76EC066F06FC067F070C0E1
:1037B80068F071C069F01200000E00017A6F000E07
:1037C800796F2DEC23F0000160C075F061C076F0D0
:1037D800776B786B140E75256A6F000E76216B6F08
:1037E800BBEC20F02C0E00017B6F81987B0E606F84
:1037F800000E616F98EC1EF07D0E0001606F000EE8
:10380800616FC8EC1DF07C0E0001606F000E616FE7
:10381800C8EC1DF000017D51726F716B7C51736FA4
:10382800746B71517311796F725174117A6F818849
:1038380079C06FF07AC070F0120075C06AF076C077
:103848006BF09DEC20F0000E0001856F050E85657C
:1038580001D014D08551010D6F0EF324D96E000EDE
:10386800F420DA6E8551010D7D0EF324E16E000E11
:10387800F420E26EDFCFE7FF852BE8D72A0E836FAF
:103888008198830E606F000E616F98EC1EF0000E39
:103898000001846F050E846501D00DD08451010D9F
:1038A8007D0EF324606F000EF420616F98EC1EF01B
:1038B8000001842BEFD7818812002DEC23F0000142
:1038C80060C075F061C076F0776B786B0E0E752569
:1038D8006A6F000E76216B6FBBEC20F02C0E000196
:1038E800796F8198790E606F000E616F98EC1EF009
:1038F800000E0001816F050E816501D013D0800E86
:10390800606F000E616FC8EC1DF000018151010D60
:103918007A0EF324D96E000EF420DA6E80C0DFFF31
:10392800812BE9D7818820EE7AF000EE6FF0050E42
:10393800DBCFEBFFE806FCE2120008C001F009C08B
:1039480002F0000E046E640E036E7AEC1FF0015054
:103958000E6E0E50640DF31EF41EF34AF42A08503E
:10396800F324016E0950F420026E000E046E0A0E54
:10397800036E7AEC1FF001500D6E0D500A0DF3CF57
:103988000BF00E50640DF3500B24000808240C6E45
:1039980008D00C5012000D5012000E501200000EEC
:1039A80012000A50000AD8B4F8D7010AD8B4F3D7DD
:1039B800030AD8B4EED7F3D7F20EF66E420EF76EBE
:1039C800000EF86E02EEB5F010EE2EF00900F5CFFD
:1039D800EEFFE550E150FAE17C0EF66E460EF76E0A
:1039E800000EF86E0900F5CF4DF00900F5CF4EF046
:1039F80003EE00F0700EEE6AE806FDE102EE00F05C
:103A0800B50EEE6AE806FDE101EE80F0540EEE6AAE
:103A1800E806FDE100EE28F0250EEE6AE806FDE175
:103A28004F904F92000EF86E000102EF05F0020E63
:103A3800000171256A6F000E72216B6FBBEC20F0DC
:103A48002C0E0001766F8198760E606F000E616F04
:103A580098EC1EF0000E0001776F050E776501D017
:103A68000DD07751010DAF0EF324606F020EF420D4
:103A7800616FC8EC1DF00001772BEFD78188AF0E7E
:103A8800606F020E616F86EC08F0E9CFD9FFEACFCC
:103A9800DAFF00EE71F0040EDBCFEBFFE806FCE284
:103AA8001200740E00016A6F000E6B6F640E2EEC2C
:103AB80021F0750E00016A6F000E6B6F650E2EEC1B
:103AC80021F0760E00016A6F000E6B6F620E2EEC0D
:103AD80021F0770E00016A6F000E6B6F630E2EECFB
:103AE80021F0780E00016A6F000E6B6F600E2EECED
:103AF80021F0790E00016A6F000E6B6F610E2EECDB
:103B080021F020EE74F000EE6EF0050EDBCFEBFF37
:103B1800E806FCE21200D1EC22F09AEC13F09AC00D
:103B2800A9F09BC0AAF09CC0ABF0CAEC1FF06EC015
:103B3800A9F06FC0AAF070C0ABF0300E00016F6F33
:103B4800000E6E6FE6EC21F0300E0001616F000E82
:103B5800606F32EC23F05F0E00016F6FFE0E6E6F28
:103B6800D1EC21F037EC23F023EC22F0010E000118
:103B7800A96F000EAB6F000EAA6FA9C0A6F0AAC06D
:103B8800A7F0ABC0A8F01200000E0001666F000E8F
:103B9800676F000E686F000E696F000EC96EC7B0C0
:103BA80015D066C062F067C063F068C064F069C091
:103BB80065F0662B000E672368236923655164113D
:103BC80005E162290F0E6359D8A0E9D76951681138
:103BD80005E166290F0E6759D8A004D08188D1EC79
:103BE80022F0120060C0D9FF61C0DAFFC9CFDFFF41
:103BF800120000016451651166116711D8B424D010
:103C0800010E686F06D0D890643765376637673716
:103C1800682B67AFF8D76451605D6551615966518B
:103C2800625967516359D8A008D06451605F6551E3
:103C3800615B6651625B6751635BD890673366333B
:103C480065336433682FE7D760C060F061C061F006
:103C580062C062F063C063F012000001706F4150EF
:103C68004210D8A40AD02A0E0001716F8198710EF3
:103C7800606F000E616F98EC1EF0700E0001606FAF
:103C8800000E616F98EC1EF0FF0E00016C6FFF0EC6
:103C98006D6F6AC06EF06BC06FF06C516E276D511E
:103CA8006F2341506E190AE142506F19D8A406D00B
:103CB8008188000E426E000E416E1200414A422A6F
:103CC80012007C0E0001606F000E616F4AEC22F05A
:103CD800820E0001606F000E616FB4EC22F0000EDE
:103CE8000001866F070E866501D0120020EE7CF079
:103CF80000EE64F0050EDBCFEBFFE806FCE282C0C5
:103D08006AF083C06BF084C06CF085C06DF0FF0E64
:103D18006E6FFF0E6F6FFF0E706FFF0E716F84EC8A
:103D280017F00001862BDED7000E0001666F000E2B
:103D3800676F000E686F000E696F60C0D9FF61C0C1
:103D4800DAFFDF50C96EC7B015D066C062F067C031
:103D580063F068C064F069C065F0662B000E6723E5
:103D6800682369236551641105E162290F0E6359BF
:103D7800D8A0E9D76951681105E166290F0E67597E
:103D8800D8A012008188D1EC22F0120000016F6FD8
:103D9800700E00016A6F000E6B6F750E2EEC21F02D
:103DA80000016F05D8A40CD06E51D8A402D0F00E33
:103DB8000ED06E05D8A413D0F00E701770810FD0F6
:103DC8006F51D8A40CD06E51D8A403D00F0E701721
:103DD80006D06E05D8A403D00F0E70177089700E28
:103DE8006A6F000E6B6F750E13EC21F0120016D07F
:103DF80098C0F6FF99C0F7FFF86A070EF76403D07A
:103E08000800F55005D0F6CFE9FFF7CFEAFFEF50ED
:103E1800AD6E0001984B992BACA2FED798C0F6FF67
:103E280099C0F7FFF86A070EF76403D00800F55049
:103E380005D0F6CFE9FFF7CFEAFFEF500009D8B475
:103E48001200D6D70001B26F76C0B3F077C0B4F0D5
:103E5800B3C06AF0B4C06BF00001B25131EC1EF08F
:103E6800FF0E0001AE6FFF0EAF6FB3C0B0F0B4C06D
:103E7800B1F0AE51B027AF51B1233B50B01909E1B1
:103E88003C50B119D8A405D0000E3C6E000E3B6E14
:103E980012003B4A3C2A1200000E0001666F000E19
:103EA800656F62516311D8B41CD0010E646F04D0E1
:103EB800D89062376337642B63AFFAD7D8906537E9
:103EC80066376251605D63516159D8A005D062516F
:103ED800605F6351615B6581D89063336233642F9F
:103EE800EDD765C060F066C061F01200000E066E86
:103EF800000E056E03500410D8B41CD0010E076ED6
:103F080004D0D89003360436072A04AEFAD7D890DE
:103F1800053606360350015C04500258D8A005D077
:103F28000350015E0450025A0580D89004320332CF
:103F3800072EEDD705C001F006C002F01200060EEC
:103F4800000171256A6F000E72216B6F9DEC20F0E5
:103F58006FC079F0000170517A6F2A0E7B6F8198DB
:103F68007B0E606F000E616F98EC1EF07A0E0001F8
:103F7800606F000E616F98EC1EF0790E0001606FA3
:103F8800000E616F98EC1EF081881200010E00018E
:103F9800726F000E746F000E736F000E716F710EEA
:103FA8006A6F000E6B6F740E2EEC21F000017139F0
:103FB800E842070B070BE806D8A404D0000E746F7C
:103FC800000E03D0010E746F2D0E736F72C06EF069
:103FD80073C06FF074C070F01200770E00016A6F42
:103FE800000E6B6F1D0E2EEC21F0760E00016A6F2D
:103FF800000E6B6F1C0E2EEC21F0000E0001706F8E
:10400800FF0E716F7751736F726B70517217715128
:1040180073177651746F756B725174116E6F73519B
:1040280075116F6F120010D0DF0E0001606F7F0EE8
:10403800616F1200EE0E606F7F0E616F1200C50E89
:10404800606F7E0E616F120060C062F061C063F045
:1040580000016351080AD8A4F2D76251000AD8B403
:10406800E3D7060AD8B4E6D7EAD70001625163114C
:10407800D8B418D0010E646F04D0D8906237633773
:10408800642B63AFFAD76251605D63516159D8A060
:1040980004D06251605F6351615BD89063336233CF
:1040A800642FF1D760C060F061C061F01200000EAB
:1040B8000001666F050E666501D018D06651010DC6
:1040C800F3506225D96EF4506321DA6E6651010D02
:1040D800F3506025E16EF4506121E26EDE50E6187F
:1040E800D8B402D0D8901200662BE4D7D88012003A
:1040F800000E0001666F030E666501D018D0665188
:10410800010DF3506225D96EF4506321DA6E6651C1
:10411800010DF3506025E16EF4506121E26EDE502E
:10412800E618D8B402D0D8901200662BE4D7D8800D
:1041380012006C0E00016C6F6AC06DF06B516E6FEF
:1041480081986C0E606F000E616F98EC1EF06D0E1A
:104158000001606F000E616F98EC1EF06E0E00019A
:10416800606F000E616F98EC1EF081881200640E7B
:1041780000016C6F6AC06DF06B516E6F81986C0EA8
:10418800606F000E616F98EC1EF06D0E0001606F9D
:10419800000E616F98EC1EF06E0E0001606F000E4D
:1041A800616F98EC1EF081881200000E0001606FAC
:1041B800070E606501D014D06051080D060EF32675
:1041C800000EF422800EF324D96E010EF420DA6E6C
:1041D8000101DFB002D0000E12000001602BE8D709
:1041E800010E1200000E0001606F070E606501D01D
:1041F80014D06051080D060EF326000EF422800E2E
:10420800F324D96E010EF420DA6E0101DFA002D08A
:10421800000E12000001602BE8D7010E1200000109
:104228006C6F220E00016D6F81986D0E606F000E2D
:10423800616F98EC1EF06C0E0001606F000E616FEC
:1042480098EC1EF06AC060F06BC061F098EC1EF04C
:104258008188120000016C6F200E00016D6F81983B
:104268006D0E606F000E616F98EC1EF06C0E000111
:10427800606F000E616F98EC1EF06AC060F06BC052
:1042880061F0C8EC1DF081881200000E0001626F19
:10429800050E626501D00FD06251010DF350602503
:1042A800D96EF4506121DA6EDF50D8B402D0D890BC
:1042B8001200622BEDD7D8801200000E0001626F49
:1042C800030E626501D00FD06251010DF3506025D5
:1042D800D96EF4506121DA6EDF50D8B402D0D8908C
:1042E8001200622BEDD7D88012003F3F3A3F3F3A89
:1042F8003F3F3A3F3F3A3F3F3A3F3F003F065B4F21
:10430800666D7D077F6F00403F3F3F2E3F3F3F2E4A
:104318003F3F3F2E3F3F3F000001676F000167515D
:104328000E0D040EF326000EF422000EF324D96EAF
:10433800030EF420DA6E00EE60F0050EDBCFEBFF23
:10434800E806FCE212006EC070F000016F51716F58
:10435800700E6A6F000E6B6F000E13EC21F0710E79
:1043680000016A6F000E6B6F010E13EC21F0120052
:104378006EC070F000016F51716F700E6A6F000EA1
:104388006B6F020E13EC21F0710E00016A6F000EC4
:104398006B6F030E13EC21F012006EC070F0000179
:1043A8006F51716F700E6A6F000E6B6F060E13EC13
:1043B80021F0710E00016A6F000E6B6F070E13EC8F
:1043C80021F012006EC070F000016F51716F700E15
:1043D8006A6F000E6B6F040E13EC21F0710E000172
:1043E8006A6F000E6B6F050E13EC21F012000001CE
:1043F80060516203F3CF64F0F4CF65F0605163035A
:10440800F350652761516203F350652764C060F07B
:1044180065C061F0120072C06EF073C06FF0A7EC57
:1044280021F076C06EF077C06FF0BCEC21F0D40EAE
:10443800F9EC22F00001795170EC22F01200000E24
:1044480000016E6F6E0E6A6F000E6B6F6F0E2EECB2
:1044580021F000016E8B6E0E6A6F000E6B6F6F0E8F
:1044680013EC21F01200000E0001626F050E626568
:1044780001D012006251010DF3506025D96EF4503D
:104488006121DA6EFF0EDF6E622BF0D7000E00019D
:10449800626F050E626501D012006251010DF35082
:1044A8006025D96EF4506121DA6E000EDF6E622B42
:1044B800F0D7F30E3F184010D8A40BD0000E406E72
:1044C800000E3F6E010E3426000E352236223722AA
:1044D80012003F4A402A12000001606F000160513B
:1044E800080D060EF326000EF422800EF324D96E72
:1044F800010EF420DA6E0101DF901200850EF66ECF
:104508007C0EF76E20EE62F00A0E0900F5CFDEFF92
:10451800E806FBE2620E0001606F000E616F120098
:104528009AC073F09BC074F09CC075F09DC076F083
:10453800A1EC0BF073C098F074C099F0FBEC1EF07E
:104548001200000E00016E6F6E0E6A6F000E6B6F28
:10455800740E2EEC21F01F0E00016E176E51120022
:10456800000E0001626F030E626501D0120060C088
:10457800D9FF61C0DAFF000EDF6E622BF4D7D70EC9
:104588000001986F7E0E996FFBEC1EF09AC072F0D6
:104598009BC073F0CCEC18F01200C69AC78C9380BD
:1045A8000F015C9193925C9393965C9793985C99B6
:1045B8008188C68A1200F80E8216F80E9416000E2C
:1045C800926E000E0F015B6FF80E5D178068120087
:1045D800000E00016E6F6E0E6A6F000E6B6F1A0E82
:1045E8002EEC21F000016E51120000016A6F8198D3
:1045F8006A0E0001606F000E616F98EC1EF08188F2
:10460800120034C060F035C061F036C062F037C0C7
:1046180063F01200ECEC22F00009D8B402D0010ECD
:104628001200000E1200AC8AAC98AB8EAC8CAC8039
:10463800030EAF6E12002DEC23F060C062F061C073
:1046480063F012000001726F0001725159EC1BF007
:10465800120045C060F046C061F0120060C045F02D
:1046680061C046F01200E80EF9EC22F01200ECEC02
:0646780022F012001234D2
:107C840000454E433432344A36303000457468651A
:107C9400726E657420636F6E74726F6C6C657220A3
:107CA4006861732072657475726E656420616E20FC
:107CB400756E6B6E6F776E206465766963652049B7
:107CC400442E002D2D2D2D2D2D2D2D2D2D2D2D2DF5
:107CD4002D2D2D2D2D2D2D2D2D2D2D2D2D2D2D2DD0
:107CE4002D2D2D2D2D2D2D2D2D2D2D2D2D2D2D2DC0
:107CF4002D2D2D0A0D005B496E76616C696420415F
:107D04005250204D657373616765207761732064F9
:107D140069736361726465642E5D0D0A00496E695E
:107D24007469616C6973696E672045746865726E05
:107D3400657420436F6E74726F6C6C65722E2E2E98
:107D44000A0D0045746865726E657420636F6E7405
:107D5400726F6C6C657220697320756E72657370D6
:107D64006F6E736976652E002045544845524E4522
:107D74005420434F4E54524F4C4C4552204D4F4487
:107D8400554C453A2000416E20756E6B6E6F776ED0
:107D9400206572726F7220686173206F63637572FD
:107DA40065642E00636F6E6E656374696F6E20691F
:107DB400732048616C66204475706C65782E0A0DDA
:107DC40000636F6E6E656374696F6E20697320461D
:107DD400756C6C204475706C65782E0A0D005772B2
:107DE4006974696E67203078313233342073756377
:107DF4006365737366756C2E0A0D00496E69746948
:107E0400616C69736174696F6E20636F6D706C650A
:107E14007465642E0A0D0057726974696E672030A8
:107E24007831323334206661696C65642E0A0D0042
:107E34004649524D57415245204255494C442044ED
:107E44004154452049532000536F75726365204D9A
:107E54004143206164647265737320697320005325
:107E6400696C69636F6E207265766973696F6E20E1
:107E74006973200053706565642069732031303064
:107E8400204D6270732C2000537065656420697303
:107E9400203130204D6270732C20004C696E6B20B1
:107EA40065737461626C69736865642E2000204593
:107EB400544845524E4554204D4F44554C453A2064
:107EC40000556E6B6E6F776E2045746865725479D9
:107ED4007065005B5041434B45542044524F505011
:107EE40045445D00204D454D4F5259204D4F44555A
:107EF4004C453A200052657365742073756363655D
:107F040073732E0A0D005B5265706C792073656E75
:107F14007420746F20005B53796D626F6C2045721E
:107F2400726F72735D005265736574206661696C6B
:107F340065642E0A0D005B49734772617475697438
:107F44006F75735D002049507634204D4F44554C75
:107F5400453A200020415250204D4F44554C453A5B
:107F640020004C696E6B206C6F73742E0A0D002018
:107F740064657465637465642E200046656220320E
:107F8400362032303139005B42726F616463617351
:107F9400745D005B497350726F62655D005B556E82
:107FA40069636173745D002028436F64653A20003F
:107FB40030303A31333A3338002069732061742009
:107FC400005B4552524F525D005B495076345D0070
:107FD4005B4152505D005D2D3E5B0049507634009C
:107FE400292E0A0D005D5B4C3D00415250002028B3
:0B7FF400002D3E005D5B00295D0000D9
:020000040020DA
:08000000FFFFFFFFFFFFFFFF00
:020000040030CA
:0E00000002285F3FFFD385FF0FC00FE00F40C7
:00000001FF
